{
	"data": {
		"bytecode": {
			"linkReferences": {},
			"object": "608060405260006008553480156200001657600080fd5b5060405162004c3538038062004c3583398181016040528101906200003c9190620002cb565b82828160039080519060200190620000569291906200019d565b5080600490805190602001906200006f9291906200019d565b5050506200009262000086620000cf60201b60201c565b620000d760201b60201c565b6000603c60146101000a81548160ff02191690831515021790555080603d9080519060200190620000c59291906200019d565b5050505062000508565b600033905090565b6000603c60009054906101000a900473ffffffffffffffffffffffffffffffffffffffff16905081603c60006101000a81548173ffffffffffffffffffffffffffffffffffffffff021916908373ffffffffffffffffffffffffffffffffffffffff1602179055508173ffffffffffffffffffffffffffffffffffffffff168173ffffffffffffffffffffffffffffffffffffffff167f8be0079c531659141344cd1fd0a4f28419497f9722a3daafe3b4186f6b6457e060405160405180910390a35050565b828054620001ab9062000419565b90600052602060002090601f016020900481019282620001cf57600085556200021b565b82601f10620001ea57805160ff19168380011785556200021b565b828001600101855582156200021b579182015b828111156200021a578251825591602001919060010190620001fd565b5b5090506200022a91906200022e565b5090565b5b80821115620002495760008160009055506001016200022f565b5090565b6000620002646200025e84620003ad565b62000384565b905082815260208101848484011115620002835762000282620004e8565b5b62000290848285620003e3565b509392505050565b600082601f830112620002b057620002af620004e3565b5b8151620002c28482602086016200024d565b91505092915050565b600080600060608486031215620002e757620002e6620004f2565b5b600084015167ffffffffffffffff811115620003085762000307620004ed565b5b620003168682870162000298565b935050602084015167ffffffffffffffff8111156200033a5762000339620004ed565b5b620003488682870162000298565b925050604084015167ffffffffffffffff8111156200036c576200036b620004ed565b5b6200037a8682870162000298565b9150509250925092565b600062000390620003a3565b90506200039e82826200044f565b919050565b6000604051905090565b600067ffffffffffffffff821115620003cb57620003ca620004b4565b5b620003d682620004f7565b9050602081019050919050565b60005b8381101562000403578082015181840152602081019050620003e6565b8381111562000413576000848401525b50505050565b600060028204905060018216806200043257607f821691505b6020821081141562000449576200044862000485565b5b50919050565b6200045a82620004f7565b810181811067ffffffffffffffff821117156200047c576200047b620004b4565b5b80604052505050565b7f4e487b7100000000000000000000000000000000000000000000000000000000600052602260045260246000fd5b7f4e487b7100000000000000000000000000000000000000000000000000000000600052604160045260246000fd5b600080fd5b600080fd5b600080fd5b600080fd5b6000601f19601f8301169050919050565b61471d80620005186000396000f3fe608060405234801561001057600080fd5b50600436106102115760003560e01c80637f4ab1dd11610125578063c6786e5a116100ad578063dd62ed3e1161007c578063dd62ed3e14610616578063e46638e614610646578063f2fde38b14610676578063fb78ed4014610692578063fcf196b4146106b057610211565b8063c6786e5a14610592578063cc872b66146105ae578063d4ce1415146105ca578063db006a75146105fa57610211565b806395d89b41116100f457806395d89b41146104da5780639fcaff50146104f8578063a457c2d714610516578063a4a0a30114610546578063a9059cbb1461056257610211565b80637f4ab1dd146104665780638140d0dc146104965780638456cb59146104b25780638da5cb5b146104bc57610211565b806339509351116101a85780635fff8cd3116101775780635fff8cd3146103c4578063630e327d146103e0578063634daf76146103fc57806370a082311461042c578063715018a61461045c57610211565b8063395093511461033c5780633f4ba83a1461036c5780635c975abb146103765780635ee7a9421461039457610211565b8063246b72ec116101e4578063246b72ec146102b25780632613169c146102d0578063313ce5671461030057806333a8c45a1461031e57610211565b806306fdde0314610216578063095ea7b31461023457806318160ddd1461026457806323b872dd14610282575b600080fd5b61021e6106ce565b60405161022b9190613b24565b60405180910390f35b61024e600480360381019061024991906131e2565b610760565b60405161025b9190613a8d565b60405180910390f35b61026c61077c565b6040516102799190613d66565b60405180910390f35b61029c6004803603810190610297919061318f565b610786565b6040516102a99190613a8d565b60405180910390f35b6102ba6108fb565b6040516102c79190613aa8565b60405180910390f35b6102ea60048036038101906102e5919061326f565b61091f565b6040516102f79190613a49565b60405180910390f35b610308610aa5565b6040516103159190613d81565b60405180910390f35b610326610aaa565b6040516103339190613b24565b60405180910390f35b610356600480360381019061035191906131e2565b610b38565b6040516103639190613a8d565b60405180910390f35b610374610b54565b005b61037e610b66565b60405161038b9190613a8d565b60405180910390f35b6103ae60048036038101906103a991906133f5565b610b7d565b6040516103bb9190613d66565b60405180910390f35b6103de60048036038101906103d9919061314f565b610bae565b005b6103fa60048036038101906103f591906132e5565b610f33565b005b61041660048036038101906104119190613422565b610f86565b6040516104239190613d66565b60405180910390f35b61044660048036038101906104419190613122565b610ff6565b6040516104539190613d66565b60405180910390f35b61046461103e565b005b610480600480360381019061047b9190613462565b611052565b60405161048d9190613b24565b60405180910390f35b6104b060048036038101906104ab919061335f565b6111ff565b005b6104ba611256565b005b6104c4611268565b6040516104d191906139d3565b60405180910390f35b6104e2611292565b6040516104ef9190613b24565b60405180910390f35b610500611324565b60405161050d9190613ac3565b60405180910390f35b610530600480360381019061052b91906131e2565b6113f3565b60405161053d9190613a8d565b60405180910390f35b610560600480360381019061055b9190613332565b61140f565b005b61057c600480360381019061057791906131e2565b61149e565b6040516105899190613a8d565b60405180910390f35b6105ac60048036038101906105a79190613222565b611610565b005b6105c860048036038101906105c391906133f5565b611917565b005b6105e460048036038101906105df919061318f565b611a74565b6040516105f19190613d81565b60405180910390f35b610614600480360381019061060f91906133f5565b611ba4565b005b610630600480360381019061062b919061314f565b611d01565b60405161063d9190613d66565b60405180910390f35b610660600480360381019061065b919061318f565b611d88565b60405161066d9190613a8d565b60405180910390f35b610690600480360381019061068b9190613122565b611eb8565b005b61069a611f3c565b6040516106a79190613a6b565b60405180910390f35b6106b8611f94565b6040516106c59190613ae5565b60405180910390f35b6060600380546106dd906140bc565b80601f0160208091040260200160405190810160405280929190818152602001828054610709906140bc565b80156107565780601f1061072b57610100808354040283529160200191610756565b820191906000526020600020905b81548152906001019060200180831161073957829003601f168201915b5050505050905090565b600061076a611fba565b6107748383612004565b905092915050565b6000600254905090565b6000610790611fba565b600073ffffffffffffffffffffffffffffffffffffffff16603f60009054906101000a900473ffffffffffffffffffffffffffffffffffffffff1673ffffffffffffffffffffffffffffffffffffffff16146108e657603f60009054906101000a900473ffffffffffffffffffffffffffffffffffffffff1673ffffffffffffffffffffffffffffffffffffffff1663c6946a128585856040518463ffffffff1660e01b8152600401610845939291906139ee565b60206040518083038186803b15801561085d57600080fd5b505afa158015610871573d6000803e3d6000fd5b505050506040513d601f19601f8201168201806040525081019061089591906132b8565b6108d4576040517f08c379a00000000000000000000000000000000000000000000000000000000081526004016108cb90613ce6565b60405180910390fd5b6108df848484612027565b90506108f4565b6108f1848484612027565b90505b9392505050565b7f809a0fc49fc0600540f1d39e23454e1f6f215bc7505fa22b17c154616570ddef81565b6060610929612056565b6000825167ffffffffffffffff81111561094657610945614253565b5b60405190808252806020026020018201604052801561097957816020015b60608152602001906001900390816109645790505b50905060005b8351811015610a9b57603e600085838151811061099f5761099e614224565b5b602002602001015173ffffffffffffffffffffffffffffffffffffffff1673ffffffffffffffffffffffffffffffffffffffff16815260200190815260200160002080546109ec906140bc565b80601f0160208091040260200160405190810160405280929190818152602001828054610a18906140bc565b8015610a655780601f10610a3a57610100808354040283529160200191610a65565b820191906000526020600020905b815481529060010190602001808311610a4857829003601f168201915b5050505050828281518110610a7d57610a7c614224565b5b60200260200101819052508080610a939061411f565b91505061097f565b5080915050919050565b600090565b603d8054610ab7906140bc565b80601f0160208091040260200160405190810160405280929190818152602001828054610ae3906140bc565b8015610b305780601f10610b0557610100808354040283529160200191610b30565b820191906000526020600020905b815481529060010190602001808311610b1357829003601f168201915b505050505081565b6000610b42611fba565b610b4c83836120d4565b905092915050565b610b5c612056565b610b6461210b565b565b6000603c60149054906101000a900460ff16905090565b6000806000610b8d84600661216e565b9150915081610ba357610b9e61077c565b610ba5565b805b92505050919050565b610bb6612056565b610bbe611fba565b600073ffffffffffffffffffffffffffffffffffffffff168273ffffffffffffffffffffffffffffffffffffffff161415610c2e576040517f08c379a0000000000000000000000000000000000000000000000000000000008152600401610c2590613cc6565b60405180910390fd5b600073ffffffffffffffffffffffffffffffffffffffff168173ffffffffffffffffffffffffffffffffffffffff161415610c9e576040517f08c379a0000000000000000000000000000000000000000000000000000000008152600401610c9590613c86565b60405180910390fd5b8073ffffffffffffffffffffffffffffffffffffffff168273ffffffffffffffffffffffffffffffffffffffff161415610d0d576040517f08c379a0000000000000000000000000000000000000000000000000000000008152600401610d0490613b66565b60405180910390fd5b60008060008473ffffffffffffffffffffffffffffffffffffffff1673ffffffffffffffffffffffffffffffffffffffff1681526020019081526020016000205490506000811415610d94576040517f08c379a0000000000000000000000000000000000000000000000000000000008152600401610d8b90613b46565b60405180910390fd5b806000808473ffffffffffffffffffffffffffffffffffffffff1673ffffffffffffffffffffffffffffffffffffffff16815260200190815260200160002054610dde9190613f18565b6000808473ffffffffffffffffffffffffffffffffffffffff1673ffffffffffffffffffffffffffffffffffffffff1681526020019081526020016000208190555060008060008573ffffffffffffffffffffffffffffffffffffffff1673ffffffffffffffffffffffffffffffffffffffff168152602001908152602001600020819055508173ffffffffffffffffffffffffffffffffffffffff168373ffffffffffffffffffffffffffffffffffffffff167fddf252ad1be2c89b69c2b068fc378daa952ba7f163c4a11628f55a4df523b3ef83604051610ec19190613d66565b60405180910390a38173ffffffffffffffffffffffffffffffffffffffff168373ffffffffffffffffffffffffffffffffffffffff167f9b50bb42c2f723a111ed2b4a02d7963b78fcef409123755e32db36acf004c72183604051610f269190613d66565b60405180910390a3505050565b8181603e60003373ffffffffffffffffffffffffffffffffffffffff1673ffffffffffffffffffffffffffffffffffffffff1681526020019081526020016000209190610f81929190612d6b565b505050565b6000806000610fd385600560008773ffffffffffffffffffffffffffffffffffffffff1673ffffffffffffffffffffffffffffffffffffffff16815260200190815260200160002061216e565b9150915081610fea57610fe584610ff6565b610fec565b805b9250505092915050565b60008060008373ffffffffffffffffffffffffffffffffffffffff1673ffffffffffffffffffffffffffffffffffffffff168152602001908152602001600020549050919050565b611046612056565b61105060006121d7565b565b6060600060ff168260ff1614156110a0576040518060400160405280600e81526020017f4e6f207265737472696374696f6e00000000000000000000000000000000000081525090506111fa565b600160ff168260ff1614156110ec576040518060400160405280601481526020017f416c6c207472616e73666572732070617573656400000000000000000000000081525090506111fa565b600073ffffffffffffffffffffffffffffffffffffffff16603f60009054906101000a900473ffffffffffffffffffffffffffffffffffffffff1673ffffffffffffffffffffffffffffffffffffffff16146111f957603f60009054906101000a900473ffffffffffffffffffffffffffffffffffffffff1673ffffffffffffffffffffffffffffffffffffffff16637f4ab1dd836040518263ffffffff1660e01b815260040161119d9190613d81565b60006040518083038186803b1580156111b557600080fd5b505afa1580156111c9573d6000803e3d6000fd5b505050506040513d6000823e3d601f19601f820116820180604052508101906111f291906133ac565b90506111fa565b5b919050565b611207612056565b8181603d9190611218929190612df1565b507f188bad42ea723dd12513086ade62bd9d922818bd71ec4761f9b66c171c17dd0d828260405161124a929190613b00565b60405180910390a15050565b61125e612056565b61126661229d565b565b6000603c60009054906101000a900473ffffffffffffffffffffffffffffffffffffffff16905090565b6060600480546112a1906140bc565b80601f01602080910402602001604051908101604052809291908181526020018280546112cd906140bc565b801561131a5780601f106112ef5761010080835404028352916020019161131a565b820191906000526020600020905b8154815290600101906020018083116112fd57829003601f168201915b5050505050905090565b6060603e60003373ffffffffffffffffffffffffffffffffffffffff1673ffffffffffffffffffffffffffffffffffffffff1681526020019081526020016000208054611370906140bc565b80601f016020809104026020016040519081016040528092919081815260200182805461139c906140bc565b80156113e95780601f106113be576101008083540402835291602001916113e9565b820191906000526020600020905b8154815290600101906020018083116113cc57829003601f168201915b5050505050905090565b60006113fd611fba565b6114078383612300565b905092915050565b611417612056565b80603f60006101000a81548173ffffffffffffffffffffffffffffffffffffffff021916908373ffffffffffffffffffffffffffffffffffffffff1602179055508073ffffffffffffffffffffffffffffffffffffffff167fc821fee57f621fad293a6960b94de2653a70bcc62506ea4f85149777b45901fe60405160405180910390a250565b60006114a8611fba565b600073ffffffffffffffffffffffffffffffffffffffff16603f60009054906101000a900473ffffffffffffffffffffffffffffffffffffffff1673ffffffffffffffffffffffffffffffffffffffff16146115fd57603f60009054906101000a900473ffffffffffffffffffffffffffffffffffffffff1673ffffffffffffffffffffffffffffffffffffffff1663c6946a123385856040518463ffffffff1660e01b815260040161155d939291906139ee565b60206040518083038186803b15801561157557600080fd5b505afa158015611589573d6000803e3d6000fd5b505050506040513d601f19601f820116820180604052508101906115ad91906132b8565b6115ec576040517f08c379a00000000000000000000000000000000000000000000000000000000081526004016115e390613ce6565b60405180910390fd5b6115f68383612377565b905061160a565b6116078383612377565b90505b92915050565b611618612056565b60005b828290508110156118d95761162e611268565b73ffffffffffffffffffffffffffffffffffffffff1683838381811061165757611656614224565b5b905060200201602081019061166c9190613122565b73ffffffffffffffffffffffffffffffffffffffff1614156116c3576040517f08c379a00000000000000000000000000000000000000000000000000000000081526004016116ba90613c06565b60405180910390fd5b60008060008585858181106116db576116da614224565b5b90506020020160208101906116f09190613122565b73ffffffffffffffffffffffffffffffffffffffff1673ffffffffffffffffffffffffffffffffffffffff16815260200190815260200160002054905080600080611739611268565b73ffffffffffffffffffffffffffffffffffffffff1673ffffffffffffffffffffffffffffffffffffffff1681526020019081526020016000205461177e9190613f18565b600080611789611268565b73ffffffffffffffffffffffffffffffffffffffff1673ffffffffffffffffffffffffffffffffffffffff1681526020019081526020016000208190555060008060008686868181106117df576117de614224565b5b90506020020160208101906117f49190613122565b73ffffffffffffffffffffffffffffffffffffffff1673ffffffffffffffffffffffffffffffffffffffff1681526020019081526020016000208190555061183a611268565b73ffffffffffffffffffffffffffffffffffffffff1684848481811061186357611862614224565b5b90506020020160208101906118789190613122565b73ffffffffffffffffffffffffffffffffffffffff167fddf252ad1be2c89b69c2b068fc378daa952ba7f163c4a11628f55a4df523b3ef836040516118bd9190613d66565b60405180910390a35080806118d19061411f565b91505061161b565b507fef8a7d1d9ed56b75ba2d074c0443d09a07e60674f3f6d4e992e9bda38efe5880828260405161190b929190613a25565b60405180910390a15050565b61191f612056565b8060008061192b611268565b73ffffffffffffffffffffffffffffffffffffffff1673ffffffffffffffffffffffffffffffffffffffff168152602001908152602001600020546119709190613f18565b60008061197b611268565b73ffffffffffffffffffffffffffffffffffffffff1673ffffffffffffffffffffffffffffffffffffffff16815260200190815260200160002081905550806002546119c79190613f18565b6002819055506119d5611268565b73ffffffffffffffffffffffffffffffffffffffff16600073ffffffffffffffffffffffffffffffffffffffff167fddf252ad1be2c89b69c2b068fc378daa952ba7f163c4a11628f55a4df523b3ef83604051611a329190613d66565b60405180910390a37f5aa5d4dbb3bdc35fe42446ba12fc59cdd56ee008d5a8159ba5e5fb5834734f6281604051611a699190613d66565b60405180910390a150565b6000611a7e610b66565b15611a8c5760019050611b9d565b600073ffffffffffffffffffffffffffffffffffffffff16603f60009054906101000a900473ffffffffffffffffffffffffffffffffffffffff1673ffffffffffffffffffffffffffffffffffffffff1614611b9857603f60009054906101000a900473ffffffffffffffffffffffffffffffffffffffff1673ffffffffffffffffffffffffffffffffffffffff1663d4ce14158585856040518463ffffffff1660e01b8152600401611b41939291906139ee565b60206040518083038186803b158015611b5957600080fd5b505afa158015611b6d573d6000803e3d6000fd5b505050506040513d601f19601f82011682018060405250810190611b91919061348f565b9050611b9d565b600090505b9392505050565b611bac612056565b80600080611bb8611268565b73ffffffffffffffffffffffffffffffffffffffff1673ffffffffffffffffffffffffffffffffffffffff16815260200190815260200160002054611bfd9190613f9f565b600080611c08611268565b73ffffffffffffffffffffffffffffffffffffffff1673ffffffffffffffffffffffffffffffffffffffff1681526020019081526020016000208190555080600254611c549190613f9f565b600281905550600073ffffffffffffffffffffffffffffffffffffffff16611c7a611268565b73ffffffffffffffffffffffffffffffffffffffff167fddf252ad1be2c89b69c2b068fc378daa952ba7f163c4a11628f55a4df523b3ef83604051611cbf9190613d66565b60405180910390a37fe3dd692f7e5c129a26d85142bf6118f2ecf7722a79a4507ac05ad7bb7aaab15281604051611cf69190613d66565b60405180910390a150565b6000600160008473ffffffffffffffffffffffffffffffffffffffff1673ffffffffffffffffffffffffffffffffffffffff16815260200190815260200160002060008373ffffffffffffffffffffffffffffffffffffffff1673ffffffffffffffffffffffffffffffffffffffff16815260200190815260200160002054905092915050565b6000611d92610b66565b15611da05760009050611eb1565b600073ffffffffffffffffffffffffffffffffffffffff16603f60009054906101000a900473ffffffffffffffffffffffffffffffffffffffff1673ffffffffffffffffffffffffffffffffffffffff1614611eac57603f60009054906101000a900473ffffffffffffffffffffffffffffffffffffffff1673ffffffffffffffffffffffffffffffffffffffff1663c6946a128585856040518463ffffffff1660e01b8152600401611e55939291906139ee565b60206040518083038186803b158015611e6d57600080fd5b505afa158015611e81573d6000803e3d6000fd5b505050506040513d601f19601f82011682018060405250810190611ea591906132b8565b9050611eb1565b600190505b9392505050565b611ec0612056565b600073ffffffffffffffffffffffffffffffffffffffff168173ffffffffffffffffffffffffffffffffffffffff161415611f30576040517f08c379a0000000000000000000000000000000000000000000000000000000008152600401611f2790613bc6565b60405180910390fd5b611f39816121d7565b50565b60606009805480602002602001604051908101604052809291908181526020018280548015611f8a57602002820191906000526020600020905b815481526020019060010190808311611f76575b5050505050905090565b603f60009054906101000a900473ffffffffffffffffffffffffffffffffffffffff1681565b611fc2610b66565b15612002576040517f08c379a0000000000000000000000000000000000000000000000000000000008152600401611ff990613c66565b60405180910390fd5b565b60008061200f61239a565b905061201c8185856123a2565b600191505092915050565b60008061203261239a565b905061203f85828561256d565b61204a8585856125f9565b60019150509392505050565b61205e61239a565b73ffffffffffffffffffffffffffffffffffffffff1661207c611268565b73ffffffffffffffffffffffffffffffffffffffff16146120d2576040517f08c379a00000000000000000000000000000000000000000000000000000000081526004016120c990613ca6565b60405180910390fd5b565b6000806120df61239a565b90506121008185856120f18589611d01565b6120fb9190613f18565b6123a2565b600191505092915050565b612113612871565b6000603c60146101000a81548160ff0219169083151502179055507f5db9ee0a495bf2e6ff9c91a7834c1ba4fdd244a5e8aa4e537bd38aeae4b073aa61215761239a565b60405161216491906139d3565b60405180910390a1565b600080600061218985856000016128ba90919063ffffffff16565b905083600001805490508114156121a75760008092509250506121d0565b60018460010182815481106121bf576121be614224565b5b906000526020600020015492509250505b9250929050565b6000603c60009054906101000a900473ffffffffffffffffffffffffffffffffffffffff16905081603c60006101000a81548173ffffffffffffffffffffffffffffffffffffffff021916908373ffffffffffffffffffffffffffffffffffffffff1602179055508173ffffffffffffffffffffffffffffffffffffffff168173ffffffffffffffffffffffffffffffffffffffff167f8be0079c531659141344cd1fd0a4f28419497f9722a3daafe3b4186f6b6457e060405160405180910390a35050565b6122a5611fba565b6001603c60146101000a81548160ff0219169083151502179055507f62e78cea01bee320cd4e420270b5ea74000d11b0c9f74754ebdbfc544b05a2586122e961239a565b6040516122f691906139d3565b60405180910390a1565b60008061230b61239a565b905060006123198286611d01565b90508381101561235e576040517f08c379a000000000000000000000000000000000000000000000000000000000815260040161235590613d46565b60405180910390fd5b61236b82868684036123a2565b60019250505092915050565b60008061238261239a565b905061238f8185856125f9565b600191505092915050565b600033905090565b600073ffffffffffffffffffffffffffffffffffffffff168373ffffffffffffffffffffffffffffffffffffffff161415612412576040517f08c379a000000000000000000000000000000000000000000000000000000000815260040161240990613d26565b60405180910390fd5b600073ffffffffffffffffffffffffffffffffffffffff168273ffffffffffffffffffffffffffffffffffffffff161415612482576040517f08c379a000000000000000000000000000000000000000000000000000000000815260040161247990613be6565b60405180910390fd5b80600160008573ffffffffffffffffffffffffffffffffffffffff1673ffffffffffffffffffffffffffffffffffffffff16815260200190815260200160002060008473ffffffffffffffffffffffffffffffffffffffff1673ffffffffffffffffffffffffffffffffffffffff168152602001908152602001600020819055508173ffffffffffffffffffffffffffffffffffffffff168373ffffffffffffffffffffffffffffffffffffffff167f8c5be1e5ebec7d5bd14f71427d1e84f3dd0314c0f7b2291e5b200ac8c7c3b925836040516125609190613d66565b60405180910390a3505050565b60006125798484611d01565b90507fffffffffffffffffffffffffffffffffffffffffffffffffffffffffffffffff81146125f357818110156125e5576040517f08c379a00000000000000000000000000000000000000000000000000000000081526004016125dc90613c26565b60405180910390fd5b6125f284848484036123a2565b5b50505050565b600073ffffffffffffffffffffffffffffffffffffffff168373ffffffffffffffffffffffffffffffffffffffff161415612669576040517f08c379a000000000000000000000000000000000000000000000000000000000815260040161266090613d06565b60405180910390fd5b600073ffffffffffffffffffffffffffffffffffffffff168273ffffffffffffffffffffffffffffffffffffffff1614156126d9576040517f08c379a00000000000000000000000000000000000000000000000000000000081526004016126d090613b86565b60405180910390fd5b6126e4838383612994565b60008060008573ffffffffffffffffffffffffffffffffffffffff1673ffffffffffffffffffffffffffffffffffffffff1681526020019081526020016000205490508181101561276a576040517f08c379a000000000000000000000000000000000000000000000000000000000815260040161276190613c46565b60405180910390fd5b8181036000808673ffffffffffffffffffffffffffffffffffffffff1673ffffffffffffffffffffffffffffffffffffffff16815260200190815260200160002081905550816000808573ffffffffffffffffffffffffffffffffffffffff1673ffffffffffffffffffffffffffffffffffffffff168152602001908152602001600020600082825401925050819055508273ffffffffffffffffffffffffffffffffffffffff168473ffffffffffffffffffffffffffffffffffffffff167fddf252ad1be2c89b69c2b068fc378daa952ba7f163c4a11628f55a4df523b3ef846040516128589190613d66565b60405180910390a361286b848484612a4b565b50505050565b612879610b66565b6128b8576040517f08c379a00000000000000000000000000000000000000000000000000000000081526004016128af90613ba6565b60405180910390fd5b565b600080838054905014156128d1576000905061298e565b600080848054905090505b808210156129355760006128f08383612a50565b90508486828154811061290657612905614224565b5b9060005260206000200154111561291f5780915061292f565b60018161292c9190613f18565b92505b506128dc565b60008211801561296d5750838560018461294f9190613f9f565b815481106129605761295f614224565b5b9060005260206000200154145b156129885760018261297f9190613f9f565b9250505061298e565b81925050505b92915050565b61299f838383612a76565b6129a7612a7b565b600073ffffffffffffffffffffffffffffffffffffffff168373ffffffffffffffffffffffffffffffffffffffff1614612a34576129e483612aa3565b600073ffffffffffffffffffffffffffffffffffffffff168273ffffffffffffffffffffffffffffffffffffffff1614612a2657612a2182612aa3565b612a2f565b612a2e612af6565b5b612a46565b612a3d82612aa3565b612a45612af6565b5b505050565b505050565b60006002828418612a619190613f6e565b828416612a6e9190613f18565b905092915050565b505050565b6000612a85612b0a565b90506000811115612aa05780600881905550612a9f612bc1565b5b50565b612af3600560008373ffffffffffffffffffffffffffffffffffffffff1673ffffffffffffffffffffffffffffffffffffffff168152602001908152602001600020612aee83610ff6565b612c1c565b50565b612b086006612b0361077c565b612c1c565b565b6000806009805490501415612b225760009050612bbe565b6000805b600980549050811015612bb8574260098281548110612b4857612b47614224565b5b906000526020600020015411158015612b7e57508160098281548110612b7157612b70614224565b5b9060005260206000200154115b15612ba55760098181548110612b9757612b96614224565b5b906000526020600020015491505b8080612bb09061411f565b915050612b26565b50809150505b90565b60005b600980549050811015612c19574260098281548110612be657612be5614224565b5b906000526020600020015411612c0457612bff81612c97565b612c14565b600181612c119190613f18565b90505b612bc4565b50565b6000612c26612d14565b905080612c3584600001612d1e565b1015612c925782600001819080600181540180825580915050600190039060005260206000200160009091909190915055826001018290806001815401808255809150506001900390600052602060002001600090919091909150555b505050565b60096001600980549050612cab9190613f9f565b81548110612cbc57612cbb614224565b5b906000526020600020015460098281548110612cdb57612cda614224565b5b90600052602060002001819055506009805480612cfb57612cfa6141f5565b5b6001900381819060005260206000200160009055905550565b6000600854905090565b60008082805490501415612d355760009050612d66565b8160018380549050612d479190613f9f565b81548110612d5857612d57614224565b5b906000526020600020015490505b919050565b828054612d77906140bc565b90600052602060002090601f016020900481019282612d995760008555612de0565b82601f10612db257803560ff1916838001178555612de0565b82800160010185558215612de0579182015b82811115612ddf578235825591602001919060010190612dc4565b5b509050612ded9190612e77565b5090565b828054612dfd906140bc565b90600052602060002090601f016020900481019282612e1f5760008555612e66565b82601f10612e3857803560ff1916838001178555612e66565b82800160010185558215612e66579182015b82811115612e65578235825591602001919060010190612e4a565b5b509050612e739190612e77565b5090565b5b80821115612e90576000816000905550600101612e78565b5090565b6000612ea7612ea284613dc1565b613d9c565b90508083825260208201905082856020860282011115612eca57612ec961428c565b5b60005b85811015612efa5781612ee08882612f46565b845260208401935060208301925050600181019050612ecd565b5050509392505050565b6000612f17612f1284613ded565b613d9c565b905082815260208101848484011115612f3357612f32614291565b5b612f3e848285614089565b509392505050565b600081359050612f5581614674565b92915050565b60008083601f840112612f7157612f70614287565b5b8235905067ffffffffffffffff811115612f8e57612f8d614282565b5b602083019150836020820283011115612faa57612fa961428c565b5b9250929050565b600082601f830112612fc657612fc5614287565b5b8135612fd6848260208601612e94565b91505092915050565b600081519050612fee8161468b565b92915050565b60008083601f84011261300a57613009614287565b5b8235905067ffffffffffffffff81111561302757613026614282565b5b6020830191508360018202830111156130435761304261428c565b5b9250929050565b600081359050613059816146a2565b92915050565b60008083601f84011261307557613074614287565b5b8235905067ffffffffffffffff81111561309257613091614282565b5b6020830191508360018202830111156130ae576130ad61428c565b5b9250929050565b600082601f8301126130ca576130c9614287565b5b81516130da848260208601612f04565b91505092915050565b6000813590506130f2816146b9565b92915050565b600081359050613107816146d0565b92915050565b60008151905061311c816146d0565b92915050565b6000602082840312156131385761313761429b565b5b600061314684828501612f46565b91505092915050565b600080604083850312156131665761316561429b565b5b600061317485828601612f46565b925050602061318585828601612f46565b9150509250929050565b6000806000606084860312156131a8576131a761429b565b5b60006131b686828701612f46565b93505060206131c786828701612f46565b92505060406131d8868287016130e3565b9150509250925092565b600080604083850312156131f9576131f861429b565b5b600061320785828601612f46565b9250506020613218858286016130e3565b9150509250929050565b600080602083850312156132395761323861429b565b5b600083013567ffffffffffffffff81111561325757613256614296565b5b61326385828601612f5b565b92509250509250929050565b6000602082840312156132855761328461429b565b5b600082013567ffffffffffffffff8111156132a3576132a2614296565b5b6132af84828501612fb1565b91505092915050565b6000602082840312156132ce576132cd61429b565b5b60006132dc84828501612fdf565b91505092915050565b600080602083850312156132fc576132fb61429b565b5b600083013567ffffffffffffffff81111561331a57613319614296565b5b61332685828601612ff4565b92509250509250929050565b6000602082840312156133485761334761429b565b5b60006133568482850161304a565b91505092915050565b600080602083850312156133765761337561429b565b5b600083013567ffffffffffffffff81111561339457613393614296565b5b6133a08582860161305f565b92509250509250929050565b6000602082840312156133c2576133c161429b565b5b600082015167ffffffffffffffff8111156133e0576133df614296565b5b6133ec848285016130b5565b91505092915050565b60006020828403121561340b5761340a61429b565b5b6000613419848285016130e3565b91505092915050565b600080604083850312156134395761343861429b565b5b6000613447858286016130e3565b925050602061345885828601612f46565b9150509250929050565b6000602082840312156134785761347761429b565b5b6000613486848285016130f8565b91505092915050565b6000602082840312156134a5576134a461429b565b5b60006134b38482850161310d565b91505092915050565b60006134c88383613500565b60208301905092915050565b60006134e0838361366c565b905092915050565b60006134f483836139a6565b60208301905092915050565b61350981613fd3565b82525050565b61351881613fd3565b82525050565b600061352a8385613e9b565b935061353582613e1e565b8060005b8581101561356e5761354b8284613f01565b61355588826134bc565b975061356083613e74565b925050600181019050613539565b5085925050509392505050565b600061358682613e48565b6135908185613eac565b9350836020820285016135a285613e28565b8060005b858110156135de57848403895281516135bf85826134d4565b94506135ca83613e81565b925060208a019950506001810190506135a6565b50829750879550505050505092915050565b60006135fb82613e53565b6136058185613ebd565b935061361083613e38565b8060005b8381101561364157815161362888826134e8565b975061363383613e8e565b925050600181019050613614565b5085935050505092915050565b61365781613fe5565b82525050565b61366681613ff1565b82525050565b600061367782613e5e565b6136818185613ece565b9350613691818560208601614089565b61369a816142a0565b840191505092915050565b60006136b082613e5e565b6136ba8185613edf565b93506136ca818560208601614089565b6136d3816142a0565b840191505092915050565b6136e781614044565b82525050565b60006136f98385613ef0565b935061370683858461407a565b61370f836142a0565b840190509392505050565b600061372582613e69565b61372f8185613ef0565b935061373f818560208601614089565b613748816142a0565b840191505092915050565b6000613760600483613ef0565b915061376b826142b1565b602082019050919050565b6000613783600483613ef0565b915061378e826142da565b602082019050919050565b60006137a6602383613ef0565b91506137b182614303565b604082019050919050565b60006137c9601483613ef0565b91506137d482614352565b602082019050919050565b60006137ec602683613ef0565b91506137f78261437b565b604082019050919050565b600061380f602283613ef0565b915061381a826143ca565b604082019050919050565b6000613832600483613ef0565b915061383d82614419565b602082019050919050565b6000613855601d83613ef0565b915061386082614442565b602082019050919050565b6000613878602683613ef0565b91506138838261446b565b604082019050919050565b600061389b601083613ef0565b91506138a6826144ba565b602082019050919050565b60006138be600483613ef0565b91506138c9826144e3565b602082019050919050565b60006138e1602083613ef0565b91506138ec8261450c565b602082019050919050565b6000613904600483613ef0565b915061390f82614535565b602082019050919050565b6000613927600483613ef0565b91506139328261455e565b602082019050919050565b600061394a602583613ef0565b915061395582614587565b604082019050919050565b600061396d602483613ef0565b9150613978826145d6565b604082019050919050565b6000613990602583613ef0565b915061399b82614625565b604082019050919050565b6139af8161402d565b82525050565b6139be8161402d565b82525050565b6139cd81614037565b82525050565b60006020820190506139e8600083018461350f565b92915050565b6000606082019050613a03600083018661350f565b613a10602083018561350f565b613a1d60408301846139b5565b949350505050565b60006020820190508181036000830152613a4081848661351e565b90509392505050565b60006020820190508181036000830152613a63818461357b565b905092915050565b60006020820190508181036000830152613a8581846135f0565b905092915050565b6000602082019050613aa2600083018461364e565b92915050565b6000602082019050613abd600083018461365d565b92915050565b60006020820190508181036000830152613add81846136a5565b905092915050565b6000602082019050613afa60008301846136de565b92915050565b60006020820190508181036000830152613b1b8184866136ed565b90509392505050565b60006020820190508181036000830152613b3e818461371a565b905092915050565b60006020820190508181036000830152613b5f81613753565b9050919050565b60006020820190508181036000830152613b7f81613776565b9050919050565b60006020820190508181036000830152613b9f81613799565b9050919050565b60006020820190508181036000830152613bbf816137bc565b9050919050565b60006020820190508181036000830152613bdf816137df565b9050919050565b60006020820190508181036000830152613bff81613802565b9050919050565b60006020820190508181036000830152613c1f81613825565b9050919050565b60006020820190508181036000830152613c3f81613848565b9050919050565b60006020820190508181036000830152613c5f8161386b565b9050919050565b60006020820190508181036000830152613c7f8161388e565b9050919050565b60006020820190508181036000830152613c9f816138b1565b9050919050565b60006020820190508181036000830152613cbf816138d4565b9050919050565b60006020820190508181036000830152613cdf816138f7565b9050919050565b60006020820190508181036000830152613cff8161391a565b9050919050565b60006020820190508181036000830152613d1f8161393d565b9050919050565b60006020820190508181036000830152613d3f81613960565b9050919050565b60006020820190508181036000830152613d5f81613983565b9050919050565b6000602082019050613d7b60008301846139b5565b92915050565b6000602082019050613d9660008301846139c4565b92915050565b6000613da6613db7565b9050613db282826140ee565b919050565b6000604051905090565b600067ffffffffffffffff821115613ddc57613ddb614253565b5b602082029050602081019050919050565b600067ffffffffffffffff821115613e0857613e07614253565b5b613e11826142a0565b9050602081019050919050565b6000819050919050565b6000819050602082019050919050565b6000819050602082019050919050565b600081519050919050565b600081519050919050565b600081519050919050565b600081519050919050565b6000602082019050919050565b6000602082019050919050565b6000602082019050919050565b600082825260208201905092915050565b600082825260208201905092915050565b600082825260208201905092915050565b600082825260208201905092915050565b600082825260208201905092915050565b600082825260208201905092915050565b6000613f106020840184612f46565b905092915050565b6000613f238261402d565b9150613f2e8361402d565b9250827fffffffffffffffffffffffffffffffffffffffffffffffffffffffffffffffff03821115613f6357613f62614168565b5b828201905092915050565b6000613f798261402d565b9150613f848361402d565b925082613f9457613f93614197565b5b828204905092915050565b6000613faa8261402d565b9150613fb58361402d565b925082821015613fc857613fc7614168565b5b828203905092915050565b6000613fde8261400d565b9050919050565b60008115159050919050565b6000819050919050565b600061400682613fd3565b9050919050565b600073ffffffffffffffffffffffffffffffffffffffff82169050919050565b6000819050919050565b600060ff82169050919050565b600061404f82614056565b9050919050565b600061406182614068565b9050919050565b60006140738261400d565b9050919050565b82818337600083830152505050565b60005b838110156140a757808201518184015260208101905061408c565b838111156140b6576000848401525b50505050565b600060028204905060018216806140d457607f821691505b602082108114156140e8576140e76141c6565b5b50919050565b6140f7826142a0565b810181811067ffffffffffffffff8211171561411657614115614253565b5b80604052505050565b600061412a8261402d565b91507fffffffffffffffffffffffffffffffffffffffffffffffffffffffffffffffff82141561415d5761415c614168565b5b600182019050919050565b7f4e487b7100000000000000000000000000000000000000000000000000000000600052601160045260246000fd5b7f4e487b7100000000000000000000000000000000000000000000000000000000600052601260045260246000fd5b7f4e487b7100000000000000000000000000000000000000000000000000000000600052602260045260246000fd5b7f4e487b7100000000000000000000000000000000000000000000000000000000600052603160045260246000fd5b7f4e487b7100000000000000000000000000000000000000000000000000000000600052603260045260246000fd5b7f4e487b7100000000000000000000000000000000000000000000000000000000600052604160045260246000fd5b600080fd5b600080fd5b600080fd5b600080fd5b600080fd5b600080fd5b6000601f19601f8301169050919050565b7f434d303500000000000000000000000000000000000000000000000000000000600082015250565b7f434d303300000000000000000000000000000000000000000000000000000000600082015250565b7f45524332303a207472616e7366657220746f20746865207a65726f206164647260008201527f6573730000000000000000000000000000000000000000000000000000000000602082015250565b7f5061757361626c653a206e6f7420706175736564000000000000000000000000600082015250565b7f4f776e61626c653a206e6577206f776e657220697320746865207a65726f206160008201527f6464726573730000000000000000000000000000000000000000000000000000602082015250565b7f45524332303a20617070726f766520746f20746865207a65726f20616464726560008201527f7373000000000000000000000000000000000000000000000000000000000000602082015250565b7f434d303600000000000000000000000000000000000000000000000000000000600082015250565b7f45524332303a20696e73756666696369656e7420616c6c6f77616e6365000000600082015250565b7f45524332303a207472616e7366657220616d6f756e742065786365656473206260008201527f616c616e63650000000000000000000000000000000000000000000000000000602082015250565b7f5061757361626c653a2070617573656400000000000000000000000000000000600082015250565b7f434d303200000000000000000000000000000000000000000000000000000000600082015250565b7f4f776e61626c653a2063616c6c6572206973206e6f7420746865206f776e6572600082015250565b7f434d303100000000000000000000000000000000000000000000000000000000600082015250565b7f434d303400000000000000000000000000000000000000000000000000000000600082015250565b7f45524332303a207472616e736665722066726f6d20746865207a65726f20616460008201527f6472657373000000000000000000000000000000000000000000000000000000602082015250565b7f45524332303a20617070726f76652066726f6d20746865207a65726f2061646460008201527f7265737300000000000000000000000000000000000000000000000000000000602082015250565b7f45524332303a2064656372656173656420616c6c6f77616e63652062656c6f7760008201527f207a65726f000000000000000000000000000000000000000000000000000000602082015250565b61467d81613fd3565b811461468857600080fd5b50565b61469481613fe5565b811461469f57600080fd5b50565b6146ab81613ffb565b81146146b657600080fd5b50565b6146c28161402d565b81146146cd57600080fd5b50565b6146d981614037565b81146146e457600080fd5b5056fea264697066735822122078b793fe2ed8f52de1534e1242f8b4c51bfd054e903fcd23065290bdd626af1064736f6c63430008070033",
			"opcodes": "PUSH1 0x80 PUSH1 0x40 MSTORE PUSH1 0x0 PUSH1 0x8 SSTORE CALLVALUE DUP1 ISZERO PUSH3 0x16 JUMPI PUSH1 0x0 DUP1 REVERT JUMPDEST POP PUSH1 0x40 MLOAD PUSH3 0x4C35 CODESIZE SUB DUP1 PUSH3 0x4C35 DUP4 CODECOPY DUP2 DUP2 ADD PUSH1 0x40 MSTORE DUP2 ADD SWAP1 PUSH3 0x3C SWAP2 SWAP1 PUSH3 0x2CB JUMP JUMPDEST DUP3 DUP3 DUP2 PUSH1 0x3 SWAP1 DUP1 MLOAD SWAP1 PUSH1 0x20 ADD SWAP1 PUSH3 0x56 SWAP3 SWAP2 SWAP1 PUSH3 0x19D JUMP JUMPDEST POP DUP1 PUSH1 0x4 SWAP1 DUP1 MLOAD SWAP1 PUSH1 0x20 ADD SWAP1 PUSH3 0x6F SWAP3 SWAP2 SWAP1 PUSH3 0x19D JUMP JUMPDEST POP POP POP PUSH3 0x92 PUSH3 0x86 PUSH3 0xCF PUSH1 0x20 SHL PUSH1 0x20 SHR JUMP JUMPDEST PUSH3 0xD7 PUSH1 0x20 SHL PUSH1 0x20 SHR JUMP JUMPDEST PUSH1 0x0 PUSH1 0x3C PUSH1 0x14 PUSH2 0x100 EXP DUP2 SLOAD DUP2 PUSH1 0xFF MUL NOT AND SWAP1 DUP4 ISZERO ISZERO MUL OR SWAP1 SSTORE POP DUP1 PUSH1 0x3D SWAP1 DUP1 MLOAD SWAP1 PUSH1 0x20 ADD SWAP1 PUSH3 0xC5 SWAP3 SWAP2 SWAP1 PUSH3 0x19D JUMP JUMPDEST POP POP POP POP PUSH3 0x508 JUMP JUMPDEST PUSH1 0x0 CALLER SWAP1 POP SWAP1 JUMP JUMPDEST PUSH1 0x0 PUSH1 0x3C PUSH1 0x0 SWAP1 SLOAD SWAP1 PUSH2 0x100 EXP SWAP1 DIV PUSH20 0xFFFFFFFFFFFFFFFFFFFFFFFFFFFFFFFFFFFFFFFF AND SWAP1 POP DUP2 PUSH1 0x3C PUSH1 0x0 PUSH2 0x100 EXP DUP2 SLOAD DUP2 PUSH20 0xFFFFFFFFFFFFFFFFFFFFFFFFFFFFFFFFFFFFFFFF MUL NOT AND SWAP1 DUP4 PUSH20 0xFFFFFFFFFFFFFFFFFFFFFFFFFFFFFFFFFFFFFFFF AND MUL OR SWAP1 SSTORE POP DUP2 PUSH20 0xFFFFFFFFFFFFFFFFFFFFFFFFFFFFFFFFFFFFFFFF AND DUP2 PUSH20 0xFFFFFFFFFFFFFFFFFFFFFFFFFFFFFFFFFFFFFFFF AND PUSH32 0x8BE0079C531659141344CD1FD0A4F28419497F9722A3DAAFE3B4186F6B6457E0 PUSH1 0x40 MLOAD PUSH1 0x40 MLOAD DUP1 SWAP2 SUB SWAP1 LOG3 POP POP JUMP JUMPDEST DUP3 DUP1 SLOAD PUSH3 0x1AB SWAP1 PUSH3 0x419 JUMP JUMPDEST SWAP1 PUSH1 0x0 MSTORE PUSH1 0x20 PUSH1 0x0 KECCAK256 SWAP1 PUSH1 0x1F ADD PUSH1 0x20 SWAP1 DIV DUP2 ADD SWAP3 DUP3 PUSH3 0x1CF JUMPI PUSH1 0x0 DUP6 SSTORE PUSH3 0x21B JUMP JUMPDEST DUP3 PUSH1 0x1F LT PUSH3 0x1EA JUMPI DUP1 MLOAD PUSH1 0xFF NOT AND DUP4 DUP1 ADD OR DUP6 SSTORE PUSH3 0x21B JUMP JUMPDEST DUP3 DUP1 ADD PUSH1 0x1 ADD DUP6 SSTORE DUP3 ISZERO PUSH3 0x21B JUMPI SWAP2 DUP3 ADD JUMPDEST DUP3 DUP2 GT ISZERO PUSH3 0x21A JUMPI DUP3 MLOAD DUP3 SSTORE SWAP2 PUSH1 0x20 ADD SWAP2 SWAP1 PUSH1 0x1 ADD SWAP1 PUSH3 0x1FD JUMP JUMPDEST JUMPDEST POP SWAP1 POP PUSH3 0x22A SWAP2 SWAP1 PUSH3 0x22E JUMP JUMPDEST POP SWAP1 JUMP JUMPDEST JUMPDEST DUP1 DUP3 GT ISZERO PUSH3 0x249 JUMPI PUSH1 0x0 DUP2 PUSH1 0x0 SWAP1 SSTORE POP PUSH1 0x1 ADD PUSH3 0x22F JUMP JUMPDEST POP SWAP1 JUMP JUMPDEST PUSH1 0x0 PUSH3 0x264 PUSH3 0x25E DUP5 PUSH3 0x3AD JUMP JUMPDEST PUSH3 0x384 JUMP JUMPDEST SWAP1 POP DUP3 DUP2 MSTORE PUSH1 0x20 DUP2 ADD DUP5 DUP5 DUP5 ADD GT ISZERO PUSH3 0x283 JUMPI PUSH3 0x282 PUSH3 0x4E8 JUMP JUMPDEST JUMPDEST PUSH3 0x290 DUP5 DUP3 DUP6 PUSH3 0x3E3 JUMP JUMPDEST POP SWAP4 SWAP3 POP POP POP JUMP JUMPDEST PUSH1 0x0 DUP3 PUSH1 0x1F DUP4 ADD SLT PUSH3 0x2B0 JUMPI PUSH3 0x2AF PUSH3 0x4E3 JUMP JUMPDEST JUMPDEST DUP2 MLOAD PUSH3 0x2C2 DUP5 DUP3 PUSH1 0x20 DUP7 ADD PUSH3 0x24D JUMP JUMPDEST SWAP2 POP POP SWAP3 SWAP2 POP POP JUMP JUMPDEST PUSH1 0x0 DUP1 PUSH1 0x0 PUSH1 0x60 DUP5 DUP7 SUB SLT ISZERO PUSH3 0x2E7 JUMPI PUSH3 0x2E6 PUSH3 0x4F2 JUMP JUMPDEST JUMPDEST PUSH1 0x0 DUP5 ADD MLOAD PUSH8 0xFFFFFFFFFFFFFFFF DUP2 GT ISZERO PUSH3 0x308 JUMPI PUSH3 0x307 PUSH3 0x4ED JUMP JUMPDEST JUMPDEST PUSH3 0x316 DUP7 DUP3 DUP8 ADD PUSH3 0x298 JUMP JUMPDEST SWAP4 POP POP PUSH1 0x20 DUP5 ADD MLOAD PUSH8 0xFFFFFFFFFFFFFFFF DUP2 GT ISZERO PUSH3 0x33A JUMPI PUSH3 0x339 PUSH3 0x4ED JUMP JUMPDEST JUMPDEST PUSH3 0x348 DUP7 DUP3 DUP8 ADD PUSH3 0x298 JUMP JUMPDEST SWAP3 POP POP PUSH1 0x40 DUP5 ADD MLOAD PUSH8 0xFFFFFFFFFFFFFFFF DUP2 GT ISZERO PUSH3 0x36C JUMPI PUSH3 0x36B PUSH3 0x4ED JUMP JUMPDEST JUMPDEST PUSH3 0x37A DUP7 DUP3 DUP8 ADD PUSH3 0x298 JUMP JUMPDEST SWAP2 POP POP SWAP3 POP SWAP3 POP SWAP3 JUMP JUMPDEST PUSH1 0x0 PUSH3 0x390 PUSH3 0x3A3 JUMP JUMPDEST SWAP1 POP PUSH3 0x39E DUP3 DUP3 PUSH3 0x44F JUMP JUMPDEST SWAP2 SWAP1 POP JUMP JUMPDEST PUSH1 0x0 PUSH1 0x40 MLOAD SWAP1 POP SWAP1 JUMP JUMPDEST PUSH1 0x0 PUSH8 0xFFFFFFFFFFFFFFFF DUP3 GT ISZERO PUSH3 0x3CB JUMPI PUSH3 0x3CA PUSH3 0x4B4 JUMP JUMPDEST JUMPDEST PUSH3 0x3D6 DUP3 PUSH3 0x4F7 JUMP JUMPDEST SWAP1 POP PUSH1 0x20 DUP2 ADD SWAP1 POP SWAP2 SWAP1 POP JUMP JUMPDEST PUSH1 0x0 JUMPDEST DUP4 DUP2 LT ISZERO PUSH3 0x403 JUMPI DUP1 DUP3 ADD MLOAD DUP2 DUP5 ADD MSTORE PUSH1 0x20 DUP2 ADD SWAP1 POP PUSH3 0x3E6 JUMP JUMPDEST DUP4 DUP2 GT ISZERO PUSH3 0x413 JUMPI PUSH1 0x0 DUP5 DUP5 ADD MSTORE JUMPDEST POP POP POP POP JUMP JUMPDEST PUSH1 0x0 PUSH1 0x2 DUP3 DIV SWAP1 POP PUSH1 0x1 DUP3 AND DUP1 PUSH3 0x432 JUMPI PUSH1 0x7F DUP3 AND SWAP2 POP JUMPDEST PUSH1 0x20 DUP3 LT DUP2 EQ ISZERO PUSH3 0x449 JUMPI PUSH3 0x448 PUSH3 0x485 JUMP JUMPDEST JUMPDEST POP SWAP2 SWAP1 POP JUMP JUMPDEST PUSH3 0x45A DUP3 PUSH3 0x4F7 JUMP JUMPDEST DUP2 ADD DUP2 DUP2 LT PUSH8 0xFFFFFFFFFFFFFFFF DUP3 GT OR ISZERO PUSH3 0x47C JUMPI PUSH3 0x47B PUSH3 0x4B4 JUMP JUMPDEST JUMPDEST DUP1 PUSH1 0x40 MSTORE POP POP POP JUMP JUMPDEST PUSH32 0x4E487B7100000000000000000000000000000000000000000000000000000000 PUSH1 0x0 MSTORE PUSH1 0x22 PUSH1 0x4 MSTORE PUSH1 0x24 PUSH1 0x0 REVERT JUMPDEST PUSH32 0x4E487B7100000000000000000000000000000000000000000000000000000000 PUSH1 0x0 MSTORE PUSH1 0x41 PUSH1 0x4 MSTORE PUSH1 0x24 PUSH1 0x0 REVERT JUMPDEST PUSH1 0x0 DUP1 REVERT JUMPDEST PUSH1 0x0 DUP1 REVERT JUMPDEST PUSH1 0x0 DUP1 REVERT JUMPDEST PUSH1 0x0 DUP1 REVERT JUMPDEST PUSH1 0x0 PUSH1 0x1F NOT PUSH1 0x1F DUP4 ADD AND SWAP1 POP SWAP2 SWAP1 POP JUMP JUMPDEST PUSH2 0x471D DUP1 PUSH3 0x518 PUSH1 0x0 CODECOPY PUSH1 0x0 RETURN INVALID PUSH1 0x80 PUSH1 0x40 MSTORE CALLVALUE DUP1 ISZERO PUSH2 0x10 JUMPI PUSH1 0x0 DUP1 REVERT JUMPDEST POP PUSH1 0x4 CALLDATASIZE LT PUSH2 0x211 JUMPI PUSH1 0x0 CALLDATALOAD PUSH1 0xE0 SHR DUP1 PUSH4 0x7F4AB1DD GT PUSH2 0x125 JUMPI DUP1 PUSH4 0xC6786E5A GT PUSH2 0xAD JUMPI DUP1 PUSH4 0xDD62ED3E GT PUSH2 0x7C JUMPI DUP1 PUSH4 0xDD62ED3E EQ PUSH2 0x616 JUMPI DUP1 PUSH4 0xE46638E6 EQ PUSH2 0x646 JUMPI DUP1 PUSH4 0xF2FDE38B EQ PUSH2 0x676 JUMPI DUP1 PUSH4 0xFB78ED40 EQ PUSH2 0x692 JUMPI DUP1 PUSH4 0xFCF196B4 EQ PUSH2 0x6B0 JUMPI PUSH2 0x211 JUMP JUMPDEST DUP1 PUSH4 0xC6786E5A EQ PUSH2 0x592 JUMPI DUP1 PUSH4 0xCC872B66 EQ PUSH2 0x5AE JUMPI DUP1 PUSH4 0xD4CE1415 EQ PUSH2 0x5CA JUMPI DUP1 PUSH4 0xDB006A75 EQ PUSH2 0x5FA JUMPI PUSH2 0x211 JUMP JUMPDEST DUP1 PUSH4 0x95D89B41 GT PUSH2 0xF4 JUMPI DUP1 PUSH4 0x95D89B41 EQ PUSH2 0x4DA JUMPI DUP1 PUSH4 0x9FCAFF50 EQ PUSH2 0x4F8 JUMPI DUP1 PUSH4 0xA457C2D7 EQ PUSH2 0x516 JUMPI DUP1 PUSH4 0xA4A0A301 EQ PUSH2 0x546 JUMPI DUP1 PUSH4 0xA9059CBB EQ PUSH2 0x562 JUMPI PUSH2 0x211 JUMP JUMPDEST DUP1 PUSH4 0x7F4AB1DD EQ PUSH2 0x466 JUMPI DUP1 PUSH4 0x8140D0DC EQ PUSH2 0x496 JUMPI DUP1 PUSH4 0x8456CB59 EQ PUSH2 0x4B2 JUMPI DUP1 PUSH4 0x8DA5CB5B EQ PUSH2 0x4BC JUMPI PUSH2 0x211 JUMP JUMPDEST DUP1 PUSH4 0x39509351 GT PUSH2 0x1A8 JUMPI DUP1 PUSH4 0x5FFF8CD3 GT PUSH2 0x177 JUMPI DUP1 PUSH4 0x5FFF8CD3 EQ PUSH2 0x3C4 JUMPI DUP1 PUSH4 0x630E327D EQ PUSH2 0x3E0 JUMPI DUP1 PUSH4 0x634DAF76 EQ PUSH2 0x3FC JUMPI DUP1 PUSH4 0x70A08231 EQ PUSH2 0x42C JUMPI DUP1 PUSH4 0x715018A6 EQ PUSH2 0x45C JUMPI PUSH2 0x211 JUMP JUMPDEST DUP1 PUSH4 0x39509351 EQ PUSH2 0x33C JUMPI DUP1 PUSH4 0x3F4BA83A EQ PUSH2 0x36C JUMPI DUP1 PUSH4 0x5C975ABB EQ PUSH2 0x376 JUMPI DUP1 PUSH4 0x5EE7A942 EQ PUSH2 0x394 JUMPI PUSH2 0x211 JUMP JUMPDEST DUP1 PUSH4 0x246B72EC GT PUSH2 0x1E4 JUMPI DUP1 PUSH4 0x246B72EC EQ PUSH2 0x2B2 JUMPI DUP1 PUSH4 0x2613169C EQ PUSH2 0x2D0 JUMPI DUP1 PUSH4 0x313CE567 EQ PUSH2 0x300 JUMPI DUP1 PUSH4 0x33A8C45A EQ PUSH2 0x31E JUMPI PUSH2 0x211 JUMP JUMPDEST DUP1 PUSH4 0x6FDDE03 EQ PUSH2 0x216 JUMPI DUP1 PUSH4 0x95EA7B3 EQ PUSH2 0x234 JUMPI DUP1 PUSH4 0x18160DDD EQ PUSH2 0x264 JUMPI DUP1 PUSH4 0x23B872DD EQ PUSH2 0x282 JUMPI JUMPDEST PUSH1 0x0 DUP1 REVERT JUMPDEST PUSH2 0x21E PUSH2 0x6CE JUMP JUMPDEST PUSH1 0x40 MLOAD PUSH2 0x22B SWAP2 SWAP1 PUSH2 0x3B24 JUMP JUMPDEST PUSH1 0x40 MLOAD DUP1 SWAP2 SUB SWAP1 RETURN JUMPDEST PUSH2 0x24E PUSH1 0x4 DUP1 CALLDATASIZE SUB DUP2 ADD SWAP1 PUSH2 0x249 SWAP2 SWAP1 PUSH2 0x31E2 JUMP JUMPDEST PUSH2 0x760 JUMP JUMPDEST PUSH1 0x40 MLOAD PUSH2 0x25B SWAP2 SWAP1 PUSH2 0x3A8D JUMP JUMPDEST PUSH1 0x40 MLOAD DUP1 SWAP2 SUB SWAP1 RETURN JUMPDEST PUSH2 0x26C PUSH2 0x77C JUMP JUMPDEST PUSH1 0x40 MLOAD PUSH2 0x279 SWAP2 SWAP1 PUSH2 0x3D66 JUMP JUMPDEST PUSH1 0x40 MLOAD DUP1 SWAP2 SUB SWAP1 RETURN JUMPDEST PUSH2 0x29C PUSH1 0x4 DUP1 CALLDATASIZE SUB DUP2 ADD SWAP1 PUSH2 0x297 SWAP2 SWAP1 PUSH2 0x318F JUMP JUMPDEST PUSH2 0x786 JUMP JUMPDEST PUSH1 0x40 MLOAD PUSH2 0x2A9 SWAP2 SWAP1 PUSH2 0x3A8D JUMP JUMPDEST PUSH1 0x40 MLOAD DUP1 SWAP2 SUB SWAP1 RETURN JUMPDEST PUSH2 0x2BA PUSH2 0x8FB JUMP JUMPDEST PUSH1 0x40 MLOAD PUSH2 0x2C7 SWAP2 SWAP1 PUSH2 0x3AA8 JUMP JUMPDEST PUSH1 0x40 MLOAD DUP1 SWAP2 SUB SWAP1 RETURN JUMPDEST PUSH2 0x2EA PUSH1 0x4 DUP1 CALLDATASIZE SUB DUP2 ADD SWAP1 PUSH2 0x2E5 SWAP2 SWAP1 PUSH2 0x326F JUMP JUMPDEST PUSH2 0x91F JUMP JUMPDEST PUSH1 0x40 MLOAD PUSH2 0x2F7 SWAP2 SWAP1 PUSH2 0x3A49 JUMP JUMPDEST PUSH1 0x40 MLOAD DUP1 SWAP2 SUB SWAP1 RETURN JUMPDEST PUSH2 0x308 PUSH2 0xAA5 JUMP JUMPDEST PUSH1 0x40 MLOAD PUSH2 0x315 SWAP2 SWAP1 PUSH2 0x3D81 JUMP JUMPDEST PUSH1 0x40 MLOAD DUP1 SWAP2 SUB SWAP1 RETURN JUMPDEST PUSH2 0x326 PUSH2 0xAAA JUMP JUMPDEST PUSH1 0x40 MLOAD PUSH2 0x333 SWAP2 SWAP1 PUSH2 0x3B24 JUMP JUMPDEST PUSH1 0x40 MLOAD DUP1 SWAP2 SUB SWAP1 RETURN JUMPDEST PUSH2 0x356 PUSH1 0x4 DUP1 CALLDATASIZE SUB DUP2 ADD SWAP1 PUSH2 0x351 SWAP2 SWAP1 PUSH2 0x31E2 JUMP JUMPDEST PUSH2 0xB38 JUMP JUMPDEST PUSH1 0x40 MLOAD PUSH2 0x363 SWAP2 SWAP1 PUSH2 0x3A8D JUMP JUMPDEST PUSH1 0x40 MLOAD DUP1 SWAP2 SUB SWAP1 RETURN JUMPDEST PUSH2 0x374 PUSH2 0xB54 JUMP JUMPDEST STOP JUMPDEST PUSH2 0x37E PUSH2 0xB66 JUMP JUMPDEST PUSH1 0x40 MLOAD PUSH2 0x38B SWAP2 SWAP1 PUSH2 0x3A8D JUMP JUMPDEST PUSH1 0x40 MLOAD DUP1 SWAP2 SUB SWAP1 RETURN JUMPDEST PUSH2 0x3AE PUSH1 0x4 DUP1 CALLDATASIZE SUB DUP2 ADD SWAP1 PUSH2 0x3A9 SWAP2 SWAP1 PUSH2 0x33F5 JUMP JUMPDEST PUSH2 0xB7D JUMP JUMPDEST PUSH1 0x40 MLOAD PUSH2 0x3BB SWAP2 SWAP1 PUSH2 0x3D66 JUMP JUMPDEST PUSH1 0x40 MLOAD DUP1 SWAP2 SUB SWAP1 RETURN JUMPDEST PUSH2 0x3DE PUSH1 0x4 DUP1 CALLDATASIZE SUB DUP2 ADD SWAP1 PUSH2 0x3D9 SWAP2 SWAP1 PUSH2 0x314F JUMP JUMPDEST PUSH2 0xBAE JUMP JUMPDEST STOP JUMPDEST PUSH2 0x3FA PUSH1 0x4 DUP1 CALLDATASIZE SUB DUP2 ADD SWAP1 PUSH2 0x3F5 SWAP2 SWAP1 PUSH2 0x32E5 JUMP JUMPDEST PUSH2 0xF33 JUMP JUMPDEST STOP JUMPDEST PUSH2 0x416 PUSH1 0x4 DUP1 CALLDATASIZE SUB DUP2 ADD SWAP1 PUSH2 0x411 SWAP2 SWAP1 PUSH2 0x3422 JUMP JUMPDEST PUSH2 0xF86 JUMP JUMPDEST PUSH1 0x40 MLOAD PUSH2 0x423 SWAP2 SWAP1 PUSH2 0x3D66 JUMP JUMPDEST PUSH1 0x40 MLOAD DUP1 SWAP2 SUB SWAP1 RETURN JUMPDEST PUSH2 0x446 PUSH1 0x4 DUP1 CALLDATASIZE SUB DUP2 ADD SWAP1 PUSH2 0x441 SWAP2 SWAP1 PUSH2 0x3122 JUMP JUMPDEST PUSH2 0xFF6 JUMP JUMPDEST PUSH1 0x40 MLOAD PUSH2 0x453 SWAP2 SWAP1 PUSH2 0x3D66 JUMP JUMPDEST PUSH1 0x40 MLOAD DUP1 SWAP2 SUB SWAP1 RETURN JUMPDEST PUSH2 0x464 PUSH2 0x103E JUMP JUMPDEST STOP JUMPDEST PUSH2 0x480 PUSH1 0x4 DUP1 CALLDATASIZE SUB DUP2 ADD SWAP1 PUSH2 0x47B SWAP2 SWAP1 PUSH2 0x3462 JUMP JUMPDEST PUSH2 0x1052 JUMP JUMPDEST PUSH1 0x40 MLOAD PUSH2 0x48D SWAP2 SWAP1 PUSH2 0x3B24 JUMP JUMPDEST PUSH1 0x40 MLOAD DUP1 SWAP2 SUB SWAP1 RETURN JUMPDEST PUSH2 0x4B0 PUSH1 0x4 DUP1 CALLDATASIZE SUB DUP2 ADD SWAP1 PUSH2 0x4AB SWAP2 SWAP1 PUSH2 0x335F JUMP JUMPDEST PUSH2 0x11FF JUMP JUMPDEST STOP JUMPDEST PUSH2 0x4BA PUSH2 0x1256 JUMP JUMPDEST STOP JUMPDEST PUSH2 0x4C4 PUSH2 0x1268 JUMP JUMPDEST PUSH1 0x40 MLOAD PUSH2 0x4D1 SWAP2 SWAP1 PUSH2 0x39D3 JUMP JUMPDEST PUSH1 0x40 MLOAD DUP1 SWAP2 SUB SWAP1 RETURN JUMPDEST PUSH2 0x4E2 PUSH2 0x1292 JUMP JUMPDEST PUSH1 0x40 MLOAD PUSH2 0x4EF SWAP2 SWAP1 PUSH2 0x3B24 JUMP JUMPDEST PUSH1 0x40 MLOAD DUP1 SWAP2 SUB SWAP1 RETURN JUMPDEST PUSH2 0x500 PUSH2 0x1324 JUMP JUMPDEST PUSH1 0x40 MLOAD PUSH2 0x50D SWAP2 SWAP1 PUSH2 0x3AC3 JUMP JUMPDEST PUSH1 0x40 MLOAD DUP1 SWAP2 SUB SWAP1 RETURN JUMPDEST PUSH2 0x530 PUSH1 0x4 DUP1 CALLDATASIZE SUB DUP2 ADD SWAP1 PUSH2 0x52B SWAP2 SWAP1 PUSH2 0x31E2 JUMP JUMPDEST PUSH2 0x13F3 JUMP JUMPDEST PUSH1 0x40 MLOAD PUSH2 0x53D SWAP2 SWAP1 PUSH2 0x3A8D JUMP JUMPDEST PUSH1 0x40 MLOAD DUP1 SWAP2 SUB SWAP1 RETURN JUMPDEST PUSH2 0x560 PUSH1 0x4 DUP1 CALLDATASIZE SUB DUP2 ADD SWAP1 PUSH2 0x55B SWAP2 SWAP1 PUSH2 0x3332 JUMP JUMPDEST PUSH2 0x140F JUMP JUMPDEST STOP JUMPDEST PUSH2 0x57C PUSH1 0x4 DUP1 CALLDATASIZE SUB DUP2 ADD SWAP1 PUSH2 0x577 SWAP2 SWAP1 PUSH2 0x31E2 JUMP JUMPDEST PUSH2 0x149E JUMP JUMPDEST PUSH1 0x40 MLOAD PUSH2 0x589 SWAP2 SWAP1 PUSH2 0x3A8D JUMP JUMPDEST PUSH1 0x40 MLOAD DUP1 SWAP2 SUB SWAP1 RETURN JUMPDEST PUSH2 0x5AC PUSH1 0x4 DUP1 CALLDATASIZE SUB DUP2 ADD SWAP1 PUSH2 0x5A7 SWAP2 SWAP1 PUSH2 0x3222 JUMP JUMPDEST PUSH2 0x1610 JUMP JUMPDEST STOP JUMPDEST PUSH2 0x5C8 PUSH1 0x4 DUP1 CALLDATASIZE SUB DUP2 ADD SWAP1 PUSH2 0x5C3 SWAP2 SWAP1 PUSH2 0x33F5 JUMP JUMPDEST PUSH2 0x1917 JUMP JUMPDEST STOP JUMPDEST PUSH2 0x5E4 PUSH1 0x4 DUP1 CALLDATASIZE SUB DUP2 ADD SWAP1 PUSH2 0x5DF SWAP2 SWAP1 PUSH2 0x318F JUMP JUMPDEST PUSH2 0x1A74 JUMP JUMPDEST PUSH1 0x40 MLOAD PUSH2 0x5F1 SWAP2 SWAP1 PUSH2 0x3D81 JUMP JUMPDEST PUSH1 0x40 MLOAD DUP1 SWAP2 SUB SWAP1 RETURN JUMPDEST PUSH2 0x614 PUSH1 0x4 DUP1 CALLDATASIZE SUB DUP2 ADD SWAP1 PUSH2 0x60F SWAP2 SWAP1 PUSH2 0x33F5 JUMP JUMPDEST PUSH2 0x1BA4 JUMP JUMPDEST STOP JUMPDEST PUSH2 0x630 PUSH1 0x4 DUP1 CALLDATASIZE SUB DUP2 ADD SWAP1 PUSH2 0x62B SWAP2 SWAP1 PUSH2 0x314F JUMP JUMPDEST PUSH2 0x1D01 JUMP JUMPDEST PUSH1 0x40 MLOAD PUSH2 0x63D SWAP2 SWAP1 PUSH2 0x3D66 JUMP JUMPDEST PUSH1 0x40 MLOAD DUP1 SWAP2 SUB SWAP1 RETURN JUMPDEST PUSH2 0x660 PUSH1 0x4 DUP1 CALLDATASIZE SUB DUP2 ADD SWAP1 PUSH2 0x65B SWAP2 SWAP1 PUSH2 0x318F JUMP JUMPDEST PUSH2 0x1D88 JUMP JUMPDEST PUSH1 0x40 MLOAD PUSH2 0x66D SWAP2 SWAP1 PUSH2 0x3A8D JUMP JUMPDEST PUSH1 0x40 MLOAD DUP1 SWAP2 SUB SWAP1 RETURN JUMPDEST PUSH2 0x690 PUSH1 0x4 DUP1 CALLDATASIZE SUB DUP2 ADD SWAP1 PUSH2 0x68B SWAP2 SWAP1 PUSH2 0x3122 JUMP JUMPDEST PUSH2 0x1EB8 JUMP JUMPDEST STOP JUMPDEST PUSH2 0x69A PUSH2 0x1F3C JUMP JUMPDEST PUSH1 0x40 MLOAD PUSH2 0x6A7 SWAP2 SWAP1 PUSH2 0x3A6B JUMP JUMPDEST PUSH1 0x40 MLOAD DUP1 SWAP2 SUB SWAP1 RETURN JUMPDEST PUSH2 0x6B8 PUSH2 0x1F94 JUMP JUMPDEST PUSH1 0x40 MLOAD PUSH2 0x6C5 SWAP2 SWAP1 PUSH2 0x3AE5 JUMP JUMPDEST PUSH1 0x40 MLOAD DUP1 SWAP2 SUB SWAP1 RETURN JUMPDEST PUSH1 0x60 PUSH1 0x3 DUP1 SLOAD PUSH2 0x6DD SWAP1 PUSH2 0x40BC JUMP JUMPDEST DUP1 PUSH1 0x1F ADD PUSH1 0x20 DUP1 SWAP2 DIV MUL PUSH1 0x20 ADD PUSH1 0x40 MLOAD SWAP1 DUP2 ADD PUSH1 0x40 MSTORE DUP1 SWAP3 SWAP2 SWAP1 DUP2 DUP2 MSTORE PUSH1 0x20 ADD DUP3 DUP1 SLOAD PUSH2 0x709 SWAP1 PUSH2 0x40BC JUMP JUMPDEST DUP1 ISZERO PUSH2 0x756 JUMPI DUP1 PUSH1 0x1F LT PUSH2 0x72B JUMPI PUSH2 0x100 DUP1 DUP4 SLOAD DIV MUL DUP4 MSTORE SWAP2 PUSH1 0x20 ADD SWAP2 PUSH2 0x756 JUMP JUMPDEST DUP3 ADD SWAP2 SWAP1 PUSH1 0x0 MSTORE PUSH1 0x20 PUSH1 0x0 KECCAK256 SWAP1 JUMPDEST DUP2 SLOAD DUP2 MSTORE SWAP1 PUSH1 0x1 ADD SWAP1 PUSH1 0x20 ADD DUP1 DUP4 GT PUSH2 0x739 JUMPI DUP3 SWAP1 SUB PUSH1 0x1F AND DUP3 ADD SWAP2 JUMPDEST POP POP POP POP POP SWAP1 POP SWAP1 JUMP JUMPDEST PUSH1 0x0 PUSH2 0x76A PUSH2 0x1FBA JUMP JUMPDEST PUSH2 0x774 DUP4 DUP4 PUSH2 0x2004 JUMP JUMPDEST SWAP1 POP SWAP3 SWAP2 POP POP JUMP JUMPDEST PUSH1 0x0 PUSH1 0x2 SLOAD SWAP1 POP SWAP1 JUMP JUMPDEST PUSH1 0x0 PUSH2 0x790 PUSH2 0x1FBA JUMP JUMPDEST PUSH1 0x0 PUSH20 0xFFFFFFFFFFFFFFFFFFFFFFFFFFFFFFFFFFFFFFFF AND PUSH1 0x3F PUSH1 0x0 SWAP1 SLOAD SWAP1 PUSH2 0x100 EXP SWAP1 DIV PUSH20 0xFFFFFFFFFFFFFFFFFFFFFFFFFFFFFFFFFFFFFFFF AND PUSH20 0xFFFFFFFFFFFFFFFFFFFFFFFFFFFFFFFFFFFFFFFF AND EQ PUSH2 0x8E6 JUMPI PUSH1 0x3F PUSH1 0x0 SWAP1 SLOAD SWAP1 PUSH2 0x100 EXP SWAP1 DIV PUSH20 0xFFFFFFFFFFFFFFFFFFFFFFFFFFFFFFFFFFFFFFFF AND PUSH20 0xFFFFFFFFFFFFFFFFFFFFFFFFFFFFFFFFFFFFFFFF AND PUSH4 0xC6946A12 DUP6 DUP6 DUP6 PUSH1 0x40 MLOAD DUP5 PUSH4 0xFFFFFFFF AND PUSH1 0xE0 SHL DUP2 MSTORE PUSH1 0x4 ADD PUSH2 0x845 SWAP4 SWAP3 SWAP2 SWAP1 PUSH2 0x39EE JUMP JUMPDEST PUSH1 0x20 PUSH1 0x40 MLOAD DUP1 DUP4 SUB DUP2 DUP7 DUP1 EXTCODESIZE ISZERO DUP1 ISZERO PUSH2 0x85D JUMPI PUSH1 0x0 DUP1 REVERT JUMPDEST POP GAS STATICCALL ISZERO DUP1 ISZERO PUSH2 0x871 JUMPI RETURNDATASIZE PUSH1 0x0 DUP1 RETURNDATACOPY RETURNDATASIZE PUSH1 0x0 REVERT JUMPDEST POP POP POP POP PUSH1 0x40 MLOAD RETURNDATASIZE PUSH1 0x1F NOT PUSH1 0x1F DUP3 ADD AND DUP3 ADD DUP1 PUSH1 0x40 MSTORE POP DUP2 ADD SWAP1 PUSH2 0x895 SWAP2 SWAP1 PUSH2 0x32B8 JUMP JUMPDEST PUSH2 0x8D4 JUMPI PUSH1 0x40 MLOAD PUSH32 0x8C379A000000000000000000000000000000000000000000000000000000000 DUP2 MSTORE PUSH1 0x4 ADD PUSH2 0x8CB SWAP1 PUSH2 0x3CE6 JUMP JUMPDEST PUSH1 0x40 MLOAD DUP1 SWAP2 SUB SWAP1 REVERT JUMPDEST PUSH2 0x8DF DUP5 DUP5 DUP5 PUSH2 0x2027 JUMP JUMPDEST SWAP1 POP PUSH2 0x8F4 JUMP JUMPDEST PUSH2 0x8F1 DUP5 DUP5 DUP5 PUSH2 0x2027 JUMP JUMPDEST SWAP1 POP JUMPDEST SWAP4 SWAP3 POP POP POP JUMP JUMPDEST PUSH32 0x809A0FC49FC0600540F1D39E23454E1F6F215BC7505FA22B17C154616570DDEF DUP2 JUMP JUMPDEST PUSH1 0x60 PUSH2 0x929 PUSH2 0x2056 JUMP JUMPDEST PUSH1 0x0 DUP3 MLOAD PUSH8 0xFFFFFFFFFFFFFFFF DUP2 GT ISZERO PUSH2 0x946 JUMPI PUSH2 0x945 PUSH2 0x4253 JUMP JUMPDEST JUMPDEST PUSH1 0x40 MLOAD SWAP1 DUP1 DUP3 MSTORE DUP1 PUSH1 0x20 MUL PUSH1 0x20 ADD DUP3 ADD PUSH1 0x40 MSTORE DUP1 ISZERO PUSH2 0x979 JUMPI DUP2 PUSH1 0x20 ADD JUMPDEST PUSH1 0x60 DUP2 MSTORE PUSH1 0x20 ADD SWAP1 PUSH1 0x1 SWAP1 SUB SWAP1 DUP2 PUSH2 0x964 JUMPI SWAP1 POP JUMPDEST POP SWAP1 POP PUSH1 0x0 JUMPDEST DUP4 MLOAD DUP2 LT ISZERO PUSH2 0xA9B JUMPI PUSH1 0x3E PUSH1 0x0 DUP6 DUP4 DUP2 MLOAD DUP2 LT PUSH2 0x99F JUMPI PUSH2 0x99E PUSH2 0x4224 JUMP JUMPDEST JUMPDEST PUSH1 0x20 MUL PUSH1 0x20 ADD ADD MLOAD PUSH20 0xFFFFFFFFFFFFFFFFFFFFFFFFFFFFFFFFFFFFFFFF AND PUSH20 0xFFFFFFFFFFFFFFFFFFFFFFFFFFFFFFFFFFFFFFFF AND DUP2 MSTORE PUSH1 0x20 ADD SWAP1 DUP2 MSTORE PUSH1 0x20 ADD PUSH1 0x0 KECCAK256 DUP1 SLOAD PUSH2 0x9EC SWAP1 PUSH2 0x40BC JUMP JUMPDEST DUP1 PUSH1 0x1F ADD PUSH1 0x20 DUP1 SWAP2 DIV MUL PUSH1 0x20 ADD PUSH1 0x40 MLOAD SWAP1 DUP2 ADD PUSH1 0x40 MSTORE DUP1 SWAP3 SWAP2 SWAP1 DUP2 DUP2 MSTORE PUSH1 0x20 ADD DUP3 DUP1 SLOAD PUSH2 0xA18 SWAP1 PUSH2 0x40BC JUMP JUMPDEST DUP1 ISZERO PUSH2 0xA65 JUMPI DUP1 PUSH1 0x1F LT PUSH2 0xA3A JUMPI PUSH2 0x100 DUP1 DUP4 SLOAD DIV MUL DUP4 MSTORE SWAP2 PUSH1 0x20 ADD SWAP2 PUSH2 0xA65 JUMP JUMPDEST DUP3 ADD SWAP2 SWAP1 PUSH1 0x0 MSTORE PUSH1 0x20 PUSH1 0x0 KECCAK256 SWAP1 JUMPDEST DUP2 SLOAD DUP2 MSTORE SWAP1 PUSH1 0x1 ADD SWAP1 PUSH1 0x20 ADD DUP1 DUP4 GT PUSH2 0xA48 JUMPI DUP3 SWAP1 SUB PUSH1 0x1F AND DUP3 ADD SWAP2 JUMPDEST POP POP POP POP POP DUP3 DUP3 DUP2 MLOAD DUP2 LT PUSH2 0xA7D JUMPI PUSH2 0xA7C PUSH2 0x4224 JUMP JUMPDEST JUMPDEST PUSH1 0x20 MUL PUSH1 0x20 ADD ADD DUP2 SWAP1 MSTORE POP DUP1 DUP1 PUSH2 0xA93 SWAP1 PUSH2 0x411F JUMP JUMPDEST SWAP2 POP POP PUSH2 0x97F JUMP JUMPDEST POP DUP1 SWAP2 POP POP SWAP2 SWAP1 POP JUMP JUMPDEST PUSH1 0x0 SWAP1 JUMP JUMPDEST PUSH1 0x3D DUP1 SLOAD PUSH2 0xAB7 SWAP1 PUSH2 0x40BC JUMP JUMPDEST DUP1 PUSH1 0x1F ADD PUSH1 0x20 DUP1 SWAP2 DIV MUL PUSH1 0x20 ADD PUSH1 0x40 MLOAD SWAP1 DUP2 ADD PUSH1 0x40 MSTORE DUP1 SWAP3 SWAP2 SWAP1 DUP2 DUP2 MSTORE PUSH1 0x20 ADD DUP3 DUP1 SLOAD PUSH2 0xAE3 SWAP1 PUSH2 0x40BC JUMP JUMPDEST DUP1 ISZERO PUSH2 0xB30 JUMPI DUP1 PUSH1 0x1F LT PUSH2 0xB05 JUMPI PUSH2 0x100 DUP1 DUP4 SLOAD DIV MUL DUP4 MSTORE SWAP2 PUSH1 0x20 ADD SWAP2 PUSH2 0xB30 JUMP JUMPDEST DUP3 ADD SWAP2 SWAP1 PUSH1 0x0 MSTORE PUSH1 0x20 PUSH1 0x0 KECCAK256 SWAP1 JUMPDEST DUP2 SLOAD DUP2 MSTORE SWAP1 PUSH1 0x1 ADD SWAP1 PUSH1 0x20 ADD DUP1 DUP4 GT PUSH2 0xB13 JUMPI DUP3 SWAP1 SUB PUSH1 0x1F AND DUP3 ADD SWAP2 JUMPDEST POP POP POP POP POP DUP2 JUMP JUMPDEST PUSH1 0x0 PUSH2 0xB42 PUSH2 0x1FBA JUMP JUMPDEST PUSH2 0xB4C DUP4 DUP4 PUSH2 0x20D4 JUMP JUMPDEST SWAP1 POP SWAP3 SWAP2 POP POP JUMP JUMPDEST PUSH2 0xB5C PUSH2 0x2056 JUMP JUMPDEST PUSH2 0xB64 PUSH2 0x210B JUMP JUMPDEST JUMP JUMPDEST PUSH1 0x0 PUSH1 0x3C PUSH1 0x14 SWAP1 SLOAD SWAP1 PUSH2 0x100 EXP SWAP1 DIV PUSH1 0xFF AND SWAP1 POP SWAP1 JUMP JUMPDEST PUSH1 0x0 DUP1 PUSH1 0x0 PUSH2 0xB8D DUP5 PUSH1 0x6 PUSH2 0x216E JUMP JUMPDEST SWAP2 POP SWAP2 POP DUP2 PUSH2 0xBA3 JUMPI PUSH2 0xB9E PUSH2 0x77C JUMP JUMPDEST PUSH2 0xBA5 JUMP JUMPDEST DUP1 JUMPDEST SWAP3 POP POP POP SWAP2 SWAP1 POP JUMP JUMPDEST PUSH2 0xBB6 PUSH2 0x2056 JUMP JUMPDEST PUSH2 0xBBE PUSH2 0x1FBA JUMP JUMPDEST PUSH1 0x0 PUSH20 0xFFFFFFFFFFFFFFFFFFFFFFFFFFFFFFFFFFFFFFFF AND DUP3 PUSH20 0xFFFFFFFFFFFFFFFFFFFFFFFFFFFFFFFFFFFFFFFF AND EQ ISZERO PUSH2 0xC2E JUMPI PUSH1 0x40 MLOAD PUSH32 0x8C379A000000000000000000000000000000000000000000000000000000000 DUP2 MSTORE PUSH1 0x4 ADD PUSH2 0xC25 SWAP1 PUSH2 0x3CC6 JUMP JUMPDEST PUSH1 0x40 MLOAD DUP1 SWAP2 SUB SWAP1 REVERT JUMPDEST PUSH1 0x0 PUSH20 0xFFFFFFFFFFFFFFFFFFFFFFFFFFFFFFFFFFFFFFFF AND DUP2 PUSH20 0xFFFFFFFFFFFFFFFFFFFFFFFFFFFFFFFFFFFFFFFF AND EQ ISZERO PUSH2 0xC9E JUMPI PUSH1 0x40 MLOAD PUSH32 0x8C379A000000000000000000000000000000000000000000000000000000000 DUP2 MSTORE PUSH1 0x4 ADD PUSH2 0xC95 SWAP1 PUSH2 0x3C86 JUMP JUMPDEST PUSH1 0x40 MLOAD DUP1 SWAP2 SUB SWAP1 REVERT JUMPDEST DUP1 PUSH20 0xFFFFFFFFFFFFFFFFFFFFFFFFFFFFFFFFFFFFFFFF AND DUP3 PUSH20 0xFFFFFFFFFFFFFFFFFFFFFFFFFFFFFFFFFFFFFFFF AND EQ ISZERO PUSH2 0xD0D JUMPI PUSH1 0x40 MLOAD PUSH32 0x8C379A000000000000000000000000000000000000000000000000000000000 DUP2 MSTORE PUSH1 0x4 ADD PUSH2 0xD04 SWAP1 PUSH2 0x3B66 JUMP JUMPDEST PUSH1 0x40 MLOAD DUP1 SWAP2 SUB SWAP1 REVERT JUMPDEST PUSH1 0x0 DUP1 PUSH1 0x0 DUP5 PUSH20 0xFFFFFFFFFFFFFFFFFFFFFFFFFFFFFFFFFFFFFFFF AND PUSH20 0xFFFFFFFFFFFFFFFFFFFFFFFFFFFFFFFFFFFFFFFF AND DUP2 MSTORE PUSH1 0x20 ADD SWAP1 DUP2 MSTORE PUSH1 0x20 ADD PUSH1 0x0 KECCAK256 SLOAD SWAP1 POP PUSH1 0x0 DUP2 EQ ISZERO PUSH2 0xD94 JUMPI PUSH1 0x40 MLOAD PUSH32 0x8C379A000000000000000000000000000000000000000000000000000000000 DUP2 MSTORE PUSH1 0x4 ADD PUSH2 0xD8B SWAP1 PUSH2 0x3B46 JUMP JUMPDEST PUSH1 0x40 MLOAD DUP1 SWAP2 SUB SWAP1 REVERT JUMPDEST DUP1 PUSH1 0x0 DUP1 DUP5 PUSH20 0xFFFFFFFFFFFFFFFFFFFFFFFFFFFFFFFFFFFFFFFF AND PUSH20 0xFFFFFFFFFFFFFFFFFFFFFFFFFFFFFFFFFFFFFFFF AND DUP2 MSTORE PUSH1 0x20 ADD SWAP1 DUP2 MSTORE PUSH1 0x20 ADD PUSH1 0x0 KECCAK256 SLOAD PUSH2 0xDDE SWAP2 SWAP1 PUSH2 0x3F18 JUMP JUMPDEST PUSH1 0x0 DUP1 DUP5 PUSH20 0xFFFFFFFFFFFFFFFFFFFFFFFFFFFFFFFFFFFFFFFF AND PUSH20 0xFFFFFFFFFFFFFFFFFFFFFFFFFFFFFFFFFFFFFFFF AND DUP2 MSTORE PUSH1 0x20 ADD SWAP1 DUP2 MSTORE PUSH1 0x20 ADD PUSH1 0x0 KECCAK256 DUP2 SWAP1 SSTORE POP PUSH1 0x0 DUP1 PUSH1 0x0 DUP6 PUSH20 0xFFFFFFFFFFFFFFFFFFFFFFFFFFFFFFFFFFFFFFFF AND PUSH20 0xFFFFFFFFFFFFFFFFFFFFFFFFFFFFFFFFFFFFFFFF AND DUP2 MSTORE PUSH1 0x20 ADD SWAP1 DUP2 MSTORE PUSH1 0x20 ADD PUSH1 0x0 KECCAK256 DUP2 SWAP1 SSTORE POP DUP2 PUSH20 0xFFFFFFFFFFFFFFFFFFFFFFFFFFFFFFFFFFFFFFFF AND DUP4 PUSH20 0xFFFFFFFFFFFFFFFFFFFFFFFFFFFFFFFFFFFFFFFF AND PUSH32 0xDDF252AD1BE2C89B69C2B068FC378DAA952BA7F163C4A11628F55A4DF523B3EF DUP4 PUSH1 0x40 MLOAD PUSH2 0xEC1 SWAP2 SWAP1 PUSH2 0x3D66 JUMP JUMPDEST PUSH1 0x40 MLOAD DUP1 SWAP2 SUB SWAP1 LOG3 DUP2 PUSH20 0xFFFFFFFFFFFFFFFFFFFFFFFFFFFFFFFFFFFFFFFF AND DUP4 PUSH20 0xFFFFFFFFFFFFFFFFFFFFFFFFFFFFFFFFFFFFFFFF AND PUSH32 0x9B50BB42C2F723A111ED2B4A02D7963B78FCEF409123755E32DB36ACF004C721 DUP4 PUSH1 0x40 MLOAD PUSH2 0xF26 SWAP2 SWAP1 PUSH2 0x3D66 JUMP JUMPDEST PUSH1 0x40 MLOAD DUP1 SWAP2 SUB SWAP1 LOG3 POP POP POP JUMP JUMPDEST DUP2 DUP2 PUSH1 0x3E PUSH1 0x0 CALLER PUSH20 0xFFFFFFFFFFFFFFFFFFFFFFFFFFFFFFFFFFFFFFFF AND PUSH20 0xFFFFFFFFFFFFFFFFFFFFFFFFFFFFFFFFFFFFFFFF AND DUP2 MSTORE PUSH1 0x20 ADD SWAP1 DUP2 MSTORE PUSH1 0x20 ADD PUSH1 0x0 KECCAK256 SWAP2 SWAP1 PUSH2 0xF81 SWAP3 SWAP2 SWAP1 PUSH2 0x2D6B JUMP JUMPDEST POP POP POP JUMP JUMPDEST PUSH1 0x0 DUP1 PUSH1 0x0 PUSH2 0xFD3 DUP6 PUSH1 0x5 PUSH1 0x0 DUP8 PUSH20 0xFFFFFFFFFFFFFFFFFFFFFFFFFFFFFFFFFFFFFFFF AND PUSH20 0xFFFFFFFFFFFFFFFFFFFFFFFFFFFFFFFFFFFFFFFF AND DUP2 MSTORE PUSH1 0x20 ADD SWAP1 DUP2 MSTORE PUSH1 0x20 ADD PUSH1 0x0 KECCAK256 PUSH2 0x216E JUMP JUMPDEST SWAP2 POP SWAP2 POP DUP2 PUSH2 0xFEA JUMPI PUSH2 0xFE5 DUP5 PUSH2 0xFF6 JUMP JUMPDEST PUSH2 0xFEC JUMP JUMPDEST DUP1 JUMPDEST SWAP3 POP POP POP SWAP3 SWAP2 POP POP JUMP JUMPDEST PUSH1 0x0 DUP1 PUSH1 0x0 DUP4 PUSH20 0xFFFFFFFFFFFFFFFFFFFFFFFFFFFFFFFFFFFFFFFF AND PUSH20 0xFFFFFFFFFFFFFFFFFFFFFFFFFFFFFFFFFFFFFFFF AND DUP2 MSTORE PUSH1 0x20 ADD SWAP1 DUP2 MSTORE PUSH1 0x20 ADD PUSH1 0x0 KECCAK256 SLOAD SWAP1 POP SWAP2 SWAP1 POP JUMP JUMPDEST PUSH2 0x1046 PUSH2 0x2056 JUMP JUMPDEST PUSH2 0x1050 PUSH1 0x0 PUSH2 0x21D7 JUMP JUMPDEST JUMP JUMPDEST PUSH1 0x60 PUSH1 0x0 PUSH1 0xFF AND DUP3 PUSH1 0xFF AND EQ ISZERO PUSH2 0x10A0 JUMPI PUSH1 0x40 MLOAD DUP1 PUSH1 0x40 ADD PUSH1 0x40 MSTORE DUP1 PUSH1 0xE DUP2 MSTORE PUSH1 0x20 ADD PUSH32 0x4E6F207265737472696374696F6E000000000000000000000000000000000000 DUP2 MSTORE POP SWAP1 POP PUSH2 0x11FA JUMP JUMPDEST PUSH1 0x1 PUSH1 0xFF AND DUP3 PUSH1 0xFF AND EQ ISZERO PUSH2 0x10EC JUMPI PUSH1 0x40 MLOAD DUP1 PUSH1 0x40 ADD PUSH1 0x40 MSTORE DUP1 PUSH1 0x14 DUP2 MSTORE PUSH1 0x20 ADD PUSH32 0x416C6C207472616E736665727320706175736564000000000000000000000000 DUP2 MSTORE POP SWAP1 POP PUSH2 0x11FA JUMP JUMPDEST PUSH1 0x0 PUSH20 0xFFFFFFFFFFFFFFFFFFFFFFFFFFFFFFFFFFFFFFFF AND PUSH1 0x3F PUSH1 0x0 SWAP1 SLOAD SWAP1 PUSH2 0x100 EXP SWAP1 DIV PUSH20 0xFFFFFFFFFFFFFFFFFFFFFFFFFFFFFFFFFFFFFFFF AND PUSH20 0xFFFFFFFFFFFFFFFFFFFFFFFFFFFFFFFFFFFFFFFF AND EQ PUSH2 0x11F9 JUMPI PUSH1 0x3F PUSH1 0x0 SWAP1 SLOAD SWAP1 PUSH2 0x100 EXP SWAP1 DIV PUSH20 0xFFFFFFFFFFFFFFFFFFFFFFFFFFFFFFFFFFFFFFFF AND PUSH20 0xFFFFFFFFFFFFFFFFFFFFFFFFFFFFFFFFFFFFFFFF AND PUSH4 0x7F4AB1DD DUP4 PUSH1 0x40 MLOAD DUP3 PUSH4 0xFFFFFFFF AND PUSH1 0xE0 SHL DUP2 MSTORE PUSH1 0x4 ADD PUSH2 0x119D SWAP2 SWAP1 PUSH2 0x3D81 JUMP JUMPDEST PUSH1 0x0 PUSH1 0x40 MLOAD DUP1 DUP4 SUB DUP2 DUP7 DUP1 EXTCODESIZE ISZERO DUP1 ISZERO PUSH2 0x11B5 JUMPI PUSH1 0x0 DUP1 REVERT JUMPDEST POP GAS STATICCALL ISZERO DUP1 ISZERO PUSH2 0x11C9 JUMPI RETURNDATASIZE PUSH1 0x0 DUP1 RETURNDATACOPY RETURNDATASIZE PUSH1 0x0 REVERT JUMPDEST POP POP POP POP PUSH1 0x40 MLOAD RETURNDATASIZE PUSH1 0x0 DUP3 RETURNDATACOPY RETURNDATASIZE PUSH1 0x1F NOT PUSH1 0x1F DUP3 ADD AND DUP3 ADD DUP1 PUSH1 0x40 MSTORE POP DUP2 ADD SWAP1 PUSH2 0x11F2 SWAP2 SWAP1 PUSH2 0x33AC JUMP JUMPDEST SWAP1 POP PUSH2 0x11FA JUMP JUMPDEST JUMPDEST SWAP2 SWAP1 POP JUMP JUMPDEST PUSH2 0x1207 PUSH2 0x2056 JUMP JUMPDEST DUP2 DUP2 PUSH1 0x3D SWAP2 SWAP1 PUSH2 0x1218 SWAP3 SWAP2 SWAP1 PUSH2 0x2DF1 JUMP JUMPDEST POP PUSH32 0x188BAD42EA723DD12513086ADE62BD9D922818BD71EC4761F9B66C171C17DD0D DUP3 DUP3 PUSH1 0x40 MLOAD PUSH2 0x124A SWAP3 SWAP2 SWAP1 PUSH2 0x3B00 JUMP JUMPDEST PUSH1 0x40 MLOAD DUP1 SWAP2 SUB SWAP1 LOG1 POP POP JUMP JUMPDEST PUSH2 0x125E PUSH2 0x2056 JUMP JUMPDEST PUSH2 0x1266 PUSH2 0x229D JUMP JUMPDEST JUMP JUMPDEST PUSH1 0x0 PUSH1 0x3C PUSH1 0x0 SWAP1 SLOAD SWAP1 PUSH2 0x100 EXP SWAP1 DIV PUSH20 0xFFFFFFFFFFFFFFFFFFFFFFFFFFFFFFFFFFFFFFFF AND SWAP1 POP SWAP1 JUMP JUMPDEST PUSH1 0x60 PUSH1 0x4 DUP1 SLOAD PUSH2 0x12A1 SWAP1 PUSH2 0x40BC JUMP JUMPDEST DUP1 PUSH1 0x1F ADD PUSH1 0x20 DUP1 SWAP2 DIV MUL PUSH1 0x20 ADD PUSH1 0x40 MLOAD SWAP1 DUP2 ADD PUSH1 0x40 MSTORE DUP1 SWAP3 SWAP2 SWAP1 DUP2 DUP2 MSTORE PUSH1 0x20 ADD DUP3 DUP1 SLOAD PUSH2 0x12CD SWAP1 PUSH2 0x40BC JUMP JUMPDEST DUP1 ISZERO PUSH2 0x131A JUMPI DUP1 PUSH1 0x1F LT PUSH2 0x12EF JUMPI PUSH2 0x100 DUP1 DUP4 SLOAD DIV MUL DUP4 MSTORE SWAP2 PUSH1 0x20 ADD SWAP2 PUSH2 0x131A JUMP JUMPDEST DUP3 ADD SWAP2 SWAP1 PUSH1 0x0 MSTORE PUSH1 0x20 PUSH1 0x0 KECCAK256 SWAP1 JUMPDEST DUP2 SLOAD DUP2 MSTORE SWAP1 PUSH1 0x1 ADD SWAP1 PUSH1 0x20 ADD DUP1 DUP4 GT PUSH2 0x12FD JUMPI DUP3 SWAP1 SUB PUSH1 0x1F AND DUP3 ADD SWAP2 JUMPDEST POP POP POP POP POP SWAP1 POP SWAP1 JUMP JUMPDEST PUSH1 0x60 PUSH1 0x3E PUSH1 0x0 CALLER PUSH20 0xFFFFFFFFFFFFFFFFFFFFFFFFFFFFFFFFFFFFFFFF AND PUSH20 0xFFFFFFFFFFFFFFFFFFFFFFFFFFFFFFFFFFFFFFFF AND DUP2 MSTORE PUSH1 0x20 ADD SWAP1 DUP2 MSTORE PUSH1 0x20 ADD PUSH1 0x0 KECCAK256 DUP1 SLOAD PUSH2 0x1370 SWAP1 PUSH2 0x40BC JUMP JUMPDEST DUP1 PUSH1 0x1F ADD PUSH1 0x20 DUP1 SWAP2 DIV MUL PUSH1 0x20 ADD PUSH1 0x40 MLOAD SWAP1 DUP2 ADD PUSH1 0x40 MSTORE DUP1 SWAP3 SWAP2 SWAP1 DUP2 DUP2 MSTORE PUSH1 0x20 ADD DUP3 DUP1 SLOAD PUSH2 0x139C SWAP1 PUSH2 0x40BC JUMP JUMPDEST DUP1 ISZERO PUSH2 0x13E9 JUMPI DUP1 PUSH1 0x1F LT PUSH2 0x13BE JUMPI PUSH2 0x100 DUP1 DUP4 SLOAD DIV MUL DUP4 MSTORE SWAP2 PUSH1 0x20 ADD SWAP2 PUSH2 0x13E9 JUMP JUMPDEST DUP3 ADD SWAP2 SWAP1 PUSH1 0x0 MSTORE PUSH1 0x20 PUSH1 0x0 KECCAK256 SWAP1 JUMPDEST DUP2 SLOAD DUP2 MSTORE SWAP1 PUSH1 0x1 ADD SWAP1 PUSH1 0x20 ADD DUP1 DUP4 GT PUSH2 0x13CC JUMPI DUP3 SWAP1 SUB PUSH1 0x1F AND DUP3 ADD SWAP2 JUMPDEST POP POP POP POP POP SWAP1 POP SWAP1 JUMP JUMPDEST PUSH1 0x0 PUSH2 0x13FD PUSH2 0x1FBA JUMP JUMPDEST PUSH2 0x1407 DUP4 DUP4 PUSH2 0x2300 JUMP JUMPDEST SWAP1 POP SWAP3 SWAP2 POP POP JUMP JUMPDEST PUSH2 0x1417 PUSH2 0x2056 JUMP JUMPDEST DUP1 PUSH1 0x3F PUSH1 0x0 PUSH2 0x100 EXP DUP2 SLOAD DUP2 PUSH20 0xFFFFFFFFFFFFFFFFFFFFFFFFFFFFFFFFFFFFFFFF MUL NOT AND SWAP1 DUP4 PUSH20 0xFFFFFFFFFFFFFFFFFFFFFFFFFFFFFFFFFFFFFFFF AND MUL OR SWAP1 SSTORE POP DUP1 PUSH20 0xFFFFFFFFFFFFFFFFFFFFFFFFFFFFFFFFFFFFFFFF AND PUSH32 0xC821FEE57F621FAD293A6960B94DE2653A70BCC62506EA4F85149777B45901FE PUSH1 0x40 MLOAD PUSH1 0x40 MLOAD DUP1 SWAP2 SUB SWAP1 LOG2 POP JUMP JUMPDEST PUSH1 0x0 PUSH2 0x14A8 PUSH2 0x1FBA JUMP JUMPDEST PUSH1 0x0 PUSH20 0xFFFFFFFFFFFFFFFFFFFFFFFFFFFFFFFFFFFFFFFF AND PUSH1 0x3F PUSH1 0x0 SWAP1 SLOAD SWAP1 PUSH2 0x100 EXP SWAP1 DIV PUSH20 0xFFFFFFFFFFFFFFFFFFFFFFFFFFFFFFFFFFFFFFFF AND PUSH20 0xFFFFFFFFFFFFFFFFFFFFFFFFFFFFFFFFFFFFFFFF AND EQ PUSH2 0x15FD JUMPI PUSH1 0x3F PUSH1 0x0 SWAP1 SLOAD SWAP1 PUSH2 0x100 EXP SWAP1 DIV PUSH20 0xFFFFFFFFFFFFFFFFFFFFFFFFFFFFFFFFFFFFFFFF AND PUSH20 0xFFFFFFFFFFFFFFFFFFFFFFFFFFFFFFFFFFFFFFFF AND PUSH4 0xC6946A12 CALLER DUP6 DUP6 PUSH1 0x40 MLOAD DUP5 PUSH4 0xFFFFFFFF AND PUSH1 0xE0 SHL DUP2 MSTORE PUSH1 0x4 ADD PUSH2 0x155D SWAP4 SWAP3 SWAP2 SWAP1 PUSH2 0x39EE JUMP JUMPDEST PUSH1 0x20 PUSH1 0x40 MLOAD DUP1 DUP4 SUB DUP2 DUP7 DUP1 EXTCODESIZE ISZERO DUP1 ISZERO PUSH2 0x1575 JUMPI PUSH1 0x0 DUP1 REVERT JUMPDEST POP GAS STATICCALL ISZERO DUP1 ISZERO PUSH2 0x1589 JUMPI RETURNDATASIZE PUSH1 0x0 DUP1 RETURNDATACOPY RETURNDATASIZE PUSH1 0x0 REVERT JUMPDEST POP POP POP POP PUSH1 0x40 MLOAD RETURNDATASIZE PUSH1 0x1F NOT PUSH1 0x1F DUP3 ADD AND DUP3 ADD DUP1 PUSH1 0x40 MSTORE POP DUP2 ADD SWAP1 PUSH2 0x15AD SWAP2 SWAP1 PUSH2 0x32B8 JUMP JUMPDEST PUSH2 0x15EC JUMPI PUSH1 0x40 MLOAD PUSH32 0x8C379A000000000000000000000000000000000000000000000000000000000 DUP2 MSTORE PUSH1 0x4 ADD PUSH2 0x15E3 SWAP1 PUSH2 0x3CE6 JUMP JUMPDEST PUSH1 0x40 MLOAD DUP1 SWAP2 SUB SWAP1 REVERT JUMPDEST PUSH2 0x15F6 DUP4 DUP4 PUSH2 0x2377 JUMP JUMPDEST SWAP1 POP PUSH2 0x160A JUMP JUMPDEST PUSH2 0x1607 DUP4 DUP4 PUSH2 0x2377 JUMP JUMPDEST SWAP1 POP JUMPDEST SWAP3 SWAP2 POP POP JUMP JUMPDEST PUSH2 0x1618 PUSH2 0x2056 JUMP JUMPDEST PUSH1 0x0 JUMPDEST DUP3 DUP3 SWAP1 POP DUP2 LT ISZERO PUSH2 0x18D9 JUMPI PUSH2 0x162E PUSH2 0x1268 JUMP JUMPDEST PUSH20 0xFFFFFFFFFFFFFFFFFFFFFFFFFFFFFFFFFFFFFFFF AND DUP4 DUP4 DUP4 DUP2 DUP2 LT PUSH2 0x1657 JUMPI PUSH2 0x1656 PUSH2 0x4224 JUMP JUMPDEST JUMPDEST SWAP1 POP PUSH1 0x20 MUL ADD PUSH1 0x20 DUP2 ADD SWAP1 PUSH2 0x166C SWAP2 SWAP1 PUSH2 0x3122 JUMP JUMPDEST PUSH20 0xFFFFFFFFFFFFFFFFFFFFFFFFFFFFFFFFFFFFFFFF AND EQ ISZERO PUSH2 0x16C3 JUMPI PUSH1 0x40 MLOAD PUSH32 0x8C379A000000000000000000000000000000000000000000000000000000000 DUP2 MSTORE PUSH1 0x4 ADD PUSH2 0x16BA SWAP1 PUSH2 0x3C06 JUMP JUMPDEST PUSH1 0x40 MLOAD DUP1 SWAP2 SUB SWAP1 REVERT JUMPDEST PUSH1 0x0 DUP1 PUSH1 0x0 DUP6 DUP6 DUP6 DUP2 DUP2 LT PUSH2 0x16DB JUMPI PUSH2 0x16DA PUSH2 0x4224 JUMP JUMPDEST JUMPDEST SWAP1 POP PUSH1 0x20 MUL ADD PUSH1 0x20 DUP2 ADD SWAP1 PUSH2 0x16F0 SWAP2 SWAP1 PUSH2 0x3122 JUMP JUMPDEST PUSH20 0xFFFFFFFFFFFFFFFFFFFFFFFFFFFFFFFFFFFFFFFF AND PUSH20 0xFFFFFFFFFFFFFFFFFFFFFFFFFFFFFFFFFFFFFFFF AND DUP2 MSTORE PUSH1 0x20 ADD SWAP1 DUP2 MSTORE PUSH1 0x20 ADD PUSH1 0x0 KECCAK256 SLOAD SWAP1 POP DUP1 PUSH1 0x0 DUP1 PUSH2 0x1739 PUSH2 0x1268 JUMP JUMPDEST PUSH20 0xFFFFFFFFFFFFFFFFFFFFFFFFFFFFFFFFFFFFFFFF AND PUSH20 0xFFFFFFFFFFFFFFFFFFFFFFFFFFFFFFFFFFFFFFFF AND DUP2 MSTORE PUSH1 0x20 ADD SWAP1 DUP2 MSTORE PUSH1 0x20 ADD PUSH1 0x0 KECCAK256 SLOAD PUSH2 0x177E SWAP2 SWAP1 PUSH2 0x3F18 JUMP JUMPDEST PUSH1 0x0 DUP1 PUSH2 0x1789 PUSH2 0x1268 JUMP JUMPDEST PUSH20 0xFFFFFFFFFFFFFFFFFFFFFFFFFFFFFFFFFFFFFFFF AND PUSH20 0xFFFFFFFFFFFFFFFFFFFFFFFFFFFFFFFFFFFFFFFF AND DUP2 MSTORE PUSH1 0x20 ADD SWAP1 DUP2 MSTORE PUSH1 0x20 ADD PUSH1 0x0 KECCAK256 DUP2 SWAP1 SSTORE POP PUSH1 0x0 DUP1 PUSH1 0x0 DUP7 DUP7 DUP7 DUP2 DUP2 LT PUSH2 0x17DF JUMPI PUSH2 0x17DE PUSH2 0x4224 JUMP JUMPDEST JUMPDEST SWAP1 POP PUSH1 0x20 MUL ADD PUSH1 0x20 DUP2 ADD SWAP1 PUSH2 0x17F4 SWAP2 SWAP1 PUSH2 0x3122 JUMP JUMPDEST PUSH20 0xFFFFFFFFFFFFFFFFFFFFFFFFFFFFFFFFFFFFFFFF AND PUSH20 0xFFFFFFFFFFFFFFFFFFFFFFFFFFFFFFFFFFFFFFFF AND DUP2 MSTORE PUSH1 0x20 ADD SWAP1 DUP2 MSTORE PUSH1 0x20 ADD PUSH1 0x0 KECCAK256 DUP2 SWAP1 SSTORE POP PUSH2 0x183A PUSH2 0x1268 JUMP JUMPDEST PUSH20 0xFFFFFFFFFFFFFFFFFFFFFFFFFFFFFFFFFFFFFFFF AND DUP5 DUP5 DUP5 DUP2 DUP2 LT PUSH2 0x1863 JUMPI PUSH2 0x1862 PUSH2 0x4224 JUMP JUMPDEST JUMPDEST SWAP1 POP PUSH1 0x20 MUL ADD PUSH1 0x20 DUP2 ADD SWAP1 PUSH2 0x1878 SWAP2 SWAP1 PUSH2 0x3122 JUMP JUMPDEST PUSH20 0xFFFFFFFFFFFFFFFFFFFFFFFFFFFFFFFFFFFFFFFF AND PUSH32 0xDDF252AD1BE2C89B69C2B068FC378DAA952BA7F163C4A11628F55A4DF523B3EF DUP4 PUSH1 0x40 MLOAD PUSH2 0x18BD SWAP2 SWAP1 PUSH2 0x3D66 JUMP JUMPDEST PUSH1 0x40 MLOAD DUP1 SWAP2 SUB SWAP1 LOG3 POP DUP1 DUP1 PUSH2 0x18D1 SWAP1 PUSH2 0x411F JUMP JUMPDEST SWAP2 POP POP PUSH2 0x161B JUMP JUMPDEST POP PUSH32 0xEF8A7D1D9ED56B75BA2D074C0443D09A07E60674F3F6D4E992E9BDA38EFE5880 DUP3 DUP3 PUSH1 0x40 MLOAD PUSH2 0x190B SWAP3 SWAP2 SWAP1 PUSH2 0x3A25 JUMP JUMPDEST PUSH1 0x40 MLOAD DUP1 SWAP2 SUB SWAP1 LOG1 POP POP JUMP JUMPDEST PUSH2 0x191F PUSH2 0x2056 JUMP JUMPDEST DUP1 PUSH1 0x0 DUP1 PUSH2 0x192B PUSH2 0x1268 JUMP JUMPDEST PUSH20 0xFFFFFFFFFFFFFFFFFFFFFFFFFFFFFFFFFFFFFFFF AND PUSH20 0xFFFFFFFFFFFFFFFFFFFFFFFFFFFFFFFFFFFFFFFF AND DUP2 MSTORE PUSH1 0x20 ADD SWAP1 DUP2 MSTORE PUSH1 0x20 ADD PUSH1 0x0 KECCAK256 SLOAD PUSH2 0x1970 SWAP2 SWAP1 PUSH2 0x3F18 JUMP JUMPDEST PUSH1 0x0 DUP1 PUSH2 0x197B PUSH2 0x1268 JUMP JUMPDEST PUSH20 0xFFFFFFFFFFFFFFFFFFFFFFFFFFFFFFFFFFFFFFFF AND PUSH20 0xFFFFFFFFFFFFFFFFFFFFFFFFFFFFFFFFFFFFFFFF AND DUP2 MSTORE PUSH1 0x20 ADD SWAP1 DUP2 MSTORE PUSH1 0x20 ADD PUSH1 0x0 KECCAK256 DUP2 SWAP1 SSTORE POP DUP1 PUSH1 0x2 SLOAD PUSH2 0x19C7 SWAP2 SWAP1 PUSH2 0x3F18 JUMP JUMPDEST PUSH1 0x2 DUP2 SWAP1 SSTORE POP PUSH2 0x19D5 PUSH2 0x1268 JUMP JUMPDEST PUSH20 0xFFFFFFFFFFFFFFFFFFFFFFFFFFFFFFFFFFFFFFFF AND PUSH1 0x0 PUSH20 0xFFFFFFFFFFFFFFFFFFFFFFFFFFFFFFFFFFFFFFFF AND PUSH32 0xDDF252AD1BE2C89B69C2B068FC378DAA952BA7F163C4A11628F55A4DF523B3EF DUP4 PUSH1 0x40 MLOAD PUSH2 0x1A32 SWAP2 SWAP1 PUSH2 0x3D66 JUMP JUMPDEST PUSH1 0x40 MLOAD DUP1 SWAP2 SUB SWAP1 LOG3 PUSH32 0x5AA5D4DBB3BDC35FE42446BA12FC59CDD56EE008D5A8159BA5E5FB5834734F62 DUP2 PUSH1 0x40 MLOAD PUSH2 0x1A69 SWAP2 SWAP1 PUSH2 0x3D66 JUMP JUMPDEST PUSH1 0x40 MLOAD DUP1 SWAP2 SUB SWAP1 LOG1 POP JUMP JUMPDEST PUSH1 0x0 PUSH2 0x1A7E PUSH2 0xB66 JUMP JUMPDEST ISZERO PUSH2 0x1A8C JUMPI PUSH1 0x1 SWAP1 POP PUSH2 0x1B9D JUMP JUMPDEST PUSH1 0x0 PUSH20 0xFFFFFFFFFFFFFFFFFFFFFFFFFFFFFFFFFFFFFFFF AND PUSH1 0x3F PUSH1 0x0 SWAP1 SLOAD SWAP1 PUSH2 0x100 EXP SWAP1 DIV PUSH20 0xFFFFFFFFFFFFFFFFFFFFFFFFFFFFFFFFFFFFFFFF AND PUSH20 0xFFFFFFFFFFFFFFFFFFFFFFFFFFFFFFFFFFFFFFFF AND EQ PUSH2 0x1B98 JUMPI PUSH1 0x3F PUSH1 0x0 SWAP1 SLOAD SWAP1 PUSH2 0x100 EXP SWAP1 DIV PUSH20 0xFFFFFFFFFFFFFFFFFFFFFFFFFFFFFFFFFFFFFFFF AND PUSH20 0xFFFFFFFFFFFFFFFFFFFFFFFFFFFFFFFFFFFFFFFF AND PUSH4 0xD4CE1415 DUP6 DUP6 DUP6 PUSH1 0x40 MLOAD DUP5 PUSH4 0xFFFFFFFF AND PUSH1 0xE0 SHL DUP2 MSTORE PUSH1 0x4 ADD PUSH2 0x1B41 SWAP4 SWAP3 SWAP2 SWAP1 PUSH2 0x39EE JUMP JUMPDEST PUSH1 0x20 PUSH1 0x40 MLOAD DUP1 DUP4 SUB DUP2 DUP7 DUP1 EXTCODESIZE ISZERO DUP1 ISZERO PUSH2 0x1B59 JUMPI PUSH1 0x0 DUP1 REVERT JUMPDEST POP GAS STATICCALL ISZERO DUP1 ISZERO PUSH2 0x1B6D JUMPI RETURNDATASIZE PUSH1 0x0 DUP1 RETURNDATACOPY RETURNDATASIZE PUSH1 0x0 REVERT JUMPDEST POP POP POP POP PUSH1 0x40 MLOAD RETURNDATASIZE PUSH1 0x1F NOT PUSH1 0x1F DUP3 ADD AND DUP3 ADD DUP1 PUSH1 0x40 MSTORE POP DUP2 ADD SWAP1 PUSH2 0x1B91 SWAP2 SWAP1 PUSH2 0x348F JUMP JUMPDEST SWAP1 POP PUSH2 0x1B9D JUMP JUMPDEST PUSH1 0x0 SWAP1 POP JUMPDEST SWAP4 SWAP3 POP POP POP JUMP JUMPDEST PUSH2 0x1BAC PUSH2 0x2056 JUMP JUMPDEST DUP1 PUSH1 0x0 DUP1 PUSH2 0x1BB8 PUSH2 0x1268 JUMP JUMPDEST PUSH20 0xFFFFFFFFFFFFFFFFFFFFFFFFFFFFFFFFFFFFFFFF AND PUSH20 0xFFFFFFFFFFFFFFFFFFFFFFFFFFFFFFFFFFFFFFFF AND DUP2 MSTORE PUSH1 0x20 ADD SWAP1 DUP2 MSTORE PUSH1 0x20 ADD PUSH1 0x0 KECCAK256 SLOAD PUSH2 0x1BFD SWAP2 SWAP1 PUSH2 0x3F9F JUMP JUMPDEST PUSH1 0x0 DUP1 PUSH2 0x1C08 PUSH2 0x1268 JUMP JUMPDEST PUSH20 0xFFFFFFFFFFFFFFFFFFFFFFFFFFFFFFFFFFFFFFFF AND PUSH20 0xFFFFFFFFFFFFFFFFFFFFFFFFFFFFFFFFFFFFFFFF AND DUP2 MSTORE PUSH1 0x20 ADD SWAP1 DUP2 MSTORE PUSH1 0x20 ADD PUSH1 0x0 KECCAK256 DUP2 SWAP1 SSTORE POP DUP1 PUSH1 0x2 SLOAD PUSH2 0x1C54 SWAP2 SWAP1 PUSH2 0x3F9F JUMP JUMPDEST PUSH1 0x2 DUP2 SWAP1 SSTORE POP PUSH1 0x0 PUSH20 0xFFFFFFFFFFFFFFFFFFFFFFFFFFFFFFFFFFFFFFFF AND PUSH2 0x1C7A PUSH2 0x1268 JUMP JUMPDEST PUSH20 0xFFFFFFFFFFFFFFFFFFFFFFFFFFFFFFFFFFFFFFFF AND PUSH32 0xDDF252AD1BE2C89B69C2B068FC378DAA952BA7F163C4A11628F55A4DF523B3EF DUP4 PUSH1 0x40 MLOAD PUSH2 0x1CBF SWAP2 SWAP1 PUSH2 0x3D66 JUMP JUMPDEST PUSH1 0x40 MLOAD DUP1 SWAP2 SUB SWAP1 LOG3 PUSH32 0xE3DD692F7E5C129A26D85142BF6118F2ECF7722A79A4507AC05AD7BB7AAAB152 DUP2 PUSH1 0x40 MLOAD PUSH2 0x1CF6 SWAP2 SWAP1 PUSH2 0x3D66 JUMP JUMPDEST PUSH1 0x40 MLOAD DUP1 SWAP2 SUB SWAP1 LOG1 POP JUMP JUMPDEST PUSH1 0x0 PUSH1 0x1 PUSH1 0x0 DUP5 PUSH20 0xFFFFFFFFFFFFFFFFFFFFFFFFFFFFFFFFFFFFFFFF AND PUSH20 0xFFFFFFFFFFFFFFFFFFFFFFFFFFFFFFFFFFFFFFFF AND DUP2 MSTORE PUSH1 0x20 ADD SWAP1 DUP2 MSTORE PUSH1 0x20 ADD PUSH1 0x0 KECCAK256 PUSH1 0x0 DUP4 PUSH20 0xFFFFFFFFFFFFFFFFFFFFFFFFFFFFFFFFFFFFFFFF AND PUSH20 0xFFFFFFFFFFFFFFFFFFFFFFFFFFFFFFFFFFFFFFFF AND DUP2 MSTORE PUSH1 0x20 ADD SWAP1 DUP2 MSTORE PUSH1 0x20 ADD PUSH1 0x0 KECCAK256 SLOAD SWAP1 POP SWAP3 SWAP2 POP POP JUMP JUMPDEST PUSH1 0x0 PUSH2 0x1D92 PUSH2 0xB66 JUMP JUMPDEST ISZERO PUSH2 0x1DA0 JUMPI PUSH1 0x0 SWAP1 POP PUSH2 0x1EB1 JUMP JUMPDEST PUSH1 0x0 PUSH20 0xFFFFFFFFFFFFFFFFFFFFFFFFFFFFFFFFFFFFFFFF AND PUSH1 0x3F PUSH1 0x0 SWAP1 SLOAD SWAP1 PUSH2 0x100 EXP SWAP1 DIV PUSH20 0xFFFFFFFFFFFFFFFFFFFFFFFFFFFFFFFFFFFFFFFF AND PUSH20 0xFFFFFFFFFFFFFFFFFFFFFFFFFFFFFFFFFFFFFFFF AND EQ PUSH2 0x1EAC JUMPI PUSH1 0x3F PUSH1 0x0 SWAP1 SLOAD SWAP1 PUSH2 0x100 EXP SWAP1 DIV PUSH20 0xFFFFFFFFFFFFFFFFFFFFFFFFFFFFFFFFFFFFFFFF AND PUSH20 0xFFFFFFFFFFFFFFFFFFFFFFFFFFFFFFFFFFFFFFFF AND PUSH4 0xC6946A12 DUP6 DUP6 DUP6 PUSH1 0x40 MLOAD DUP5 PUSH4 0xFFFFFFFF AND PUSH1 0xE0 SHL DUP2 MSTORE PUSH1 0x4 ADD PUSH2 0x1E55 SWAP4 SWAP3 SWAP2 SWAP1 PUSH2 0x39EE JUMP JUMPDEST PUSH1 0x20 PUSH1 0x40 MLOAD DUP1 DUP4 SUB DUP2 DUP7 DUP1 EXTCODESIZE ISZERO DUP1 ISZERO PUSH2 0x1E6D JUMPI PUSH1 0x0 DUP1 REVERT JUMPDEST POP GAS STATICCALL ISZERO DUP1 ISZERO PUSH2 0x1E81 JUMPI RETURNDATASIZE PUSH1 0x0 DUP1 RETURNDATACOPY RETURNDATASIZE PUSH1 0x0 REVERT JUMPDEST POP POP POP POP PUSH1 0x40 MLOAD RETURNDATASIZE PUSH1 0x1F NOT PUSH1 0x1F DUP3 ADD AND DUP3 ADD DUP1 PUSH1 0x40 MSTORE POP DUP2 ADD SWAP1 PUSH2 0x1EA5 SWAP2 SWAP1 PUSH2 0x32B8 JUMP JUMPDEST SWAP1 POP PUSH2 0x1EB1 JUMP JUMPDEST PUSH1 0x1 SWAP1 POP JUMPDEST SWAP4 SWAP3 POP POP POP JUMP JUMPDEST PUSH2 0x1EC0 PUSH2 0x2056 JUMP JUMPDEST PUSH1 0x0 PUSH20 0xFFFFFFFFFFFFFFFFFFFFFFFFFFFFFFFFFFFFFFFF AND DUP2 PUSH20 0xFFFFFFFFFFFFFFFFFFFFFFFFFFFFFFFFFFFFFFFF AND EQ ISZERO PUSH2 0x1F30 JUMPI PUSH1 0x40 MLOAD PUSH32 0x8C379A000000000000000000000000000000000000000000000000000000000 DUP2 MSTORE PUSH1 0x4 ADD PUSH2 0x1F27 SWAP1 PUSH2 0x3BC6 JUMP JUMPDEST PUSH1 0x40 MLOAD DUP1 SWAP2 SUB SWAP1 REVERT JUMPDEST PUSH2 0x1F39 DUP2 PUSH2 0x21D7 JUMP JUMPDEST POP JUMP JUMPDEST PUSH1 0x60 PUSH1 0x9 DUP1 SLOAD DUP1 PUSH1 0x20 MUL PUSH1 0x20 ADD PUSH1 0x40 MLOAD SWAP1 DUP2 ADD PUSH1 0x40 MSTORE DUP1 SWAP3 SWAP2 SWAP1 DUP2 DUP2 MSTORE PUSH1 0x20 ADD DUP3 DUP1 SLOAD DUP1 ISZERO PUSH2 0x1F8A JUMPI PUSH1 0x20 MUL DUP3 ADD SWAP2 SWAP1 PUSH1 0x0 MSTORE PUSH1 0x20 PUSH1 0x0 KECCAK256 SWAP1 JUMPDEST DUP2 SLOAD DUP2 MSTORE PUSH1 0x20 ADD SWAP1 PUSH1 0x1 ADD SWAP1 DUP1 DUP4 GT PUSH2 0x1F76 JUMPI JUMPDEST POP POP POP POP POP SWAP1 POP SWAP1 JUMP JUMPDEST PUSH1 0x3F PUSH1 0x0 SWAP1 SLOAD SWAP1 PUSH2 0x100 EXP SWAP1 DIV PUSH20 0xFFFFFFFFFFFFFFFFFFFFFFFFFFFFFFFFFFFFFFFF AND DUP2 JUMP JUMPDEST PUSH2 0x1FC2 PUSH2 0xB66 JUMP JUMPDEST ISZERO PUSH2 0x2002 JUMPI PUSH1 0x40 MLOAD PUSH32 0x8C379A000000000000000000000000000000000000000000000000000000000 DUP2 MSTORE PUSH1 0x4 ADD PUSH2 0x1FF9 SWAP1 PUSH2 0x3C66 JUMP JUMPDEST PUSH1 0x40 MLOAD DUP1 SWAP2 SUB SWAP1 REVERT JUMPDEST JUMP JUMPDEST PUSH1 0x0 DUP1 PUSH2 0x200F PUSH2 0x239A JUMP JUMPDEST SWAP1 POP PUSH2 0x201C DUP2 DUP6 DUP6 PUSH2 0x23A2 JUMP JUMPDEST PUSH1 0x1 SWAP2 POP POP SWAP3 SWAP2 POP POP JUMP JUMPDEST PUSH1 0x0 DUP1 PUSH2 0x2032 PUSH2 0x239A JUMP JUMPDEST SWAP1 POP PUSH2 0x203F DUP6 DUP3 DUP6 PUSH2 0x256D JUMP JUMPDEST PUSH2 0x204A DUP6 DUP6 DUP6 PUSH2 0x25F9 JUMP JUMPDEST PUSH1 0x1 SWAP2 POP POP SWAP4 SWAP3 POP POP POP JUMP JUMPDEST PUSH2 0x205E PUSH2 0x239A JUMP JUMPDEST PUSH20 0xFFFFFFFFFFFFFFFFFFFFFFFFFFFFFFFFFFFFFFFF AND PUSH2 0x207C PUSH2 0x1268 JUMP JUMPDEST PUSH20 0xFFFFFFFFFFFFFFFFFFFFFFFFFFFFFFFFFFFFFFFF AND EQ PUSH2 0x20D2 JUMPI PUSH1 0x40 MLOAD PUSH32 0x8C379A000000000000000000000000000000000000000000000000000000000 DUP2 MSTORE PUSH1 0x4 ADD PUSH2 0x20C9 SWAP1 PUSH2 0x3CA6 JUMP JUMPDEST PUSH1 0x40 MLOAD DUP1 SWAP2 SUB SWAP1 REVERT JUMPDEST JUMP JUMPDEST PUSH1 0x0 DUP1 PUSH2 0x20DF PUSH2 0x239A JUMP JUMPDEST SWAP1 POP PUSH2 0x2100 DUP2 DUP6 DUP6 PUSH2 0x20F1 DUP6 DUP10 PUSH2 0x1D01 JUMP JUMPDEST PUSH2 0x20FB SWAP2 SWAP1 PUSH2 0x3F18 JUMP JUMPDEST PUSH2 0x23A2 JUMP JUMPDEST PUSH1 0x1 SWAP2 POP POP SWAP3 SWAP2 POP POP JUMP JUMPDEST PUSH2 0x2113 PUSH2 0x2871 JUMP JUMPDEST PUSH1 0x0 PUSH1 0x3C PUSH1 0x14 PUSH2 0x100 EXP DUP2 SLOAD DUP2 PUSH1 0xFF MUL NOT AND SWAP1 DUP4 ISZERO ISZERO MUL OR SWAP1 SSTORE POP PUSH32 0x5DB9EE0A495BF2E6FF9C91A7834C1BA4FDD244A5E8AA4E537BD38AEAE4B073AA PUSH2 0x2157 PUSH2 0x239A JUMP JUMPDEST PUSH1 0x40 MLOAD PUSH2 0x2164 SWAP2 SWAP1 PUSH2 0x39D3 JUMP JUMPDEST PUSH1 0x40 MLOAD DUP1 SWAP2 SUB SWAP1 LOG1 JUMP JUMPDEST PUSH1 0x0 DUP1 PUSH1 0x0 PUSH2 0x2189 DUP6 DUP6 PUSH1 0x0 ADD PUSH2 0x28BA SWAP1 SWAP2 SWAP1 PUSH4 0xFFFFFFFF AND JUMP JUMPDEST SWAP1 POP DUP4 PUSH1 0x0 ADD DUP1 SLOAD SWAP1 POP DUP2 EQ ISZERO PUSH2 0x21A7 JUMPI PUSH1 0x0 DUP1 SWAP3 POP SWAP3 POP POP PUSH2 0x21D0 JUMP JUMPDEST PUSH1 0x1 DUP5 PUSH1 0x1 ADD DUP3 DUP2 SLOAD DUP2 LT PUSH2 0x21BF JUMPI PUSH2 0x21BE PUSH2 0x4224 JUMP JUMPDEST JUMPDEST SWAP1 PUSH1 0x0 MSTORE PUSH1 0x20 PUSH1 0x0 KECCAK256 ADD SLOAD SWAP3 POP SWAP3 POP POP JUMPDEST SWAP3 POP SWAP3 SWAP1 POP JUMP JUMPDEST PUSH1 0x0 PUSH1 0x3C PUSH1 0x0 SWAP1 SLOAD SWAP1 PUSH2 0x100 EXP SWAP1 DIV PUSH20 0xFFFFFFFFFFFFFFFFFFFFFFFFFFFFFFFFFFFFFFFF AND SWAP1 POP DUP2 PUSH1 0x3C PUSH1 0x0 PUSH2 0x100 EXP DUP2 SLOAD DUP2 PUSH20 0xFFFFFFFFFFFFFFFFFFFFFFFFFFFFFFFFFFFFFFFF MUL NOT AND SWAP1 DUP4 PUSH20 0xFFFFFFFFFFFFFFFFFFFFFFFFFFFFFFFFFFFFFFFF AND MUL OR SWAP1 SSTORE POP DUP2 PUSH20 0xFFFFFFFFFFFFFFFFFFFFFFFFFFFFFFFFFFFFFFFF AND DUP2 PUSH20 0xFFFFFFFFFFFFFFFFFFFFFFFFFFFFFFFFFFFFFFFF AND PUSH32 0x8BE0079C531659141344CD1FD0A4F28419497F9722A3DAAFE3B4186F6B6457E0 PUSH1 0x40 MLOAD PUSH1 0x40 MLOAD DUP1 SWAP2 SUB SWAP1 LOG3 POP POP JUMP JUMPDEST PUSH2 0x22A5 PUSH2 0x1FBA JUMP JUMPDEST PUSH1 0x1 PUSH1 0x3C PUSH1 0x14 PUSH2 0x100 EXP DUP2 SLOAD DUP2 PUSH1 0xFF MUL NOT AND SWAP1 DUP4 ISZERO ISZERO MUL OR SWAP1 SSTORE POP PUSH32 0x62E78CEA01BEE320CD4E420270B5EA74000D11B0C9F74754EBDBFC544B05A258 PUSH2 0x22E9 PUSH2 0x239A JUMP JUMPDEST PUSH1 0x40 MLOAD PUSH2 0x22F6 SWAP2 SWAP1 PUSH2 0x39D3 JUMP JUMPDEST PUSH1 0x40 MLOAD DUP1 SWAP2 SUB SWAP1 LOG1 JUMP JUMPDEST PUSH1 0x0 DUP1 PUSH2 0x230B PUSH2 0x239A JUMP JUMPDEST SWAP1 POP PUSH1 0x0 PUSH2 0x2319 DUP3 DUP7 PUSH2 0x1D01 JUMP JUMPDEST SWAP1 POP DUP4 DUP2 LT ISZERO PUSH2 0x235E JUMPI PUSH1 0x40 MLOAD PUSH32 0x8C379A000000000000000000000000000000000000000000000000000000000 DUP2 MSTORE PUSH1 0x4 ADD PUSH2 0x2355 SWAP1 PUSH2 0x3D46 JUMP JUMPDEST PUSH1 0x40 MLOAD DUP1 SWAP2 SUB SWAP1 REVERT JUMPDEST PUSH2 0x236B DUP3 DUP7 DUP7 DUP5 SUB PUSH2 0x23A2 JUMP JUMPDEST PUSH1 0x1 SWAP3 POP POP POP SWAP3 SWAP2 POP POP JUMP JUMPDEST PUSH1 0x0 DUP1 PUSH2 0x2382 PUSH2 0x239A JUMP JUMPDEST SWAP1 POP PUSH2 0x238F DUP2 DUP6 DUP6 PUSH2 0x25F9 JUMP JUMPDEST PUSH1 0x1 SWAP2 POP POP SWAP3 SWAP2 POP POP JUMP JUMPDEST PUSH1 0x0 CALLER SWAP1 POP SWAP1 JUMP JUMPDEST PUSH1 0x0 PUSH20 0xFFFFFFFFFFFFFFFFFFFFFFFFFFFFFFFFFFFFFFFF AND DUP4 PUSH20 0xFFFFFFFFFFFFFFFFFFFFFFFFFFFFFFFFFFFFFFFF AND EQ ISZERO PUSH2 0x2412 JUMPI PUSH1 0x40 MLOAD PUSH32 0x8C379A000000000000000000000000000000000000000000000000000000000 DUP2 MSTORE PUSH1 0x4 ADD PUSH2 0x2409 SWAP1 PUSH2 0x3D26 JUMP JUMPDEST PUSH1 0x40 MLOAD DUP1 SWAP2 SUB SWAP1 REVERT JUMPDEST PUSH1 0x0 PUSH20 0xFFFFFFFFFFFFFFFFFFFFFFFFFFFFFFFFFFFFFFFF AND DUP3 PUSH20 0xFFFFFFFFFFFFFFFFFFFFFFFFFFFFFFFFFFFFFFFF AND EQ ISZERO PUSH2 0x2482 JUMPI PUSH1 0x40 MLOAD PUSH32 0x8C379A000000000000000000000000000000000000000000000000000000000 DUP2 MSTORE PUSH1 0x4 ADD PUSH2 0x2479 SWAP1 PUSH2 0x3BE6 JUMP JUMPDEST PUSH1 0x40 MLOAD DUP1 SWAP2 SUB SWAP1 REVERT JUMPDEST DUP1 PUSH1 0x1 PUSH1 0x0 DUP6 PUSH20 0xFFFFFFFFFFFFFFFFFFFFFFFFFFFFFFFFFFFFFFFF AND PUSH20 0xFFFFFFFFFFFFFFFFFFFFFFFFFFFFFFFFFFFFFFFF AND DUP2 MSTORE PUSH1 0x20 ADD SWAP1 DUP2 MSTORE PUSH1 0x20 ADD PUSH1 0x0 KECCAK256 PUSH1 0x0 DUP5 PUSH20 0xFFFFFFFFFFFFFFFFFFFFFFFFFFFFFFFFFFFFFFFF AND PUSH20 0xFFFFFFFFFFFFFFFFFFFFFFFFFFFFFFFFFFFFFFFF AND DUP2 MSTORE PUSH1 0x20 ADD SWAP1 DUP2 MSTORE PUSH1 0x20 ADD PUSH1 0x0 KECCAK256 DUP2 SWAP1 SSTORE POP DUP2 PUSH20 0xFFFFFFFFFFFFFFFFFFFFFFFFFFFFFFFFFFFFFFFF AND DUP4 PUSH20 0xFFFFFFFFFFFFFFFFFFFFFFFFFFFFFFFFFFFFFFFF AND PUSH32 0x8C5BE1E5EBEC7D5BD14F71427D1E84F3DD0314C0F7B2291E5B200AC8C7C3B925 DUP4 PUSH1 0x40 MLOAD PUSH2 0x2560 SWAP2 SWAP1 PUSH2 0x3D66 JUMP JUMPDEST PUSH1 0x40 MLOAD DUP1 SWAP2 SUB SWAP1 LOG3 POP POP POP JUMP JUMPDEST PUSH1 0x0 PUSH2 0x2579 DUP5 DUP5 PUSH2 0x1D01 JUMP JUMPDEST SWAP1 POP PUSH32 0xFFFFFFFFFFFFFFFFFFFFFFFFFFFFFFFFFFFFFFFFFFFFFFFFFFFFFFFFFFFFFFFF DUP2 EQ PUSH2 0x25F3 JUMPI DUP2 DUP2 LT ISZERO PUSH2 0x25E5 JUMPI PUSH1 0x40 MLOAD PUSH32 0x8C379A000000000000000000000000000000000000000000000000000000000 DUP2 MSTORE PUSH1 0x4 ADD PUSH2 0x25DC SWAP1 PUSH2 0x3C26 JUMP JUMPDEST PUSH1 0x40 MLOAD DUP1 SWAP2 SUB SWAP1 REVERT JUMPDEST PUSH2 0x25F2 DUP5 DUP5 DUP5 DUP5 SUB PUSH2 0x23A2 JUMP JUMPDEST JUMPDEST POP POP POP POP JUMP JUMPDEST PUSH1 0x0 PUSH20 0xFFFFFFFFFFFFFFFFFFFFFFFFFFFFFFFFFFFFFFFF AND DUP4 PUSH20 0xFFFFFFFFFFFFFFFFFFFFFFFFFFFFFFFFFFFFFFFF AND EQ ISZERO PUSH2 0x2669 JUMPI PUSH1 0x40 MLOAD PUSH32 0x8C379A000000000000000000000000000000000000000000000000000000000 DUP2 MSTORE PUSH1 0x4 ADD PUSH2 0x2660 SWAP1 PUSH2 0x3D06 JUMP JUMPDEST PUSH1 0x40 MLOAD DUP1 SWAP2 SUB SWAP1 REVERT JUMPDEST PUSH1 0x0 PUSH20 0xFFFFFFFFFFFFFFFFFFFFFFFFFFFFFFFFFFFFFFFF AND DUP3 PUSH20 0xFFFFFFFFFFFFFFFFFFFFFFFFFFFFFFFFFFFFFFFF AND EQ ISZERO PUSH2 0x26D9 JUMPI PUSH1 0x40 MLOAD PUSH32 0x8C379A000000000000000000000000000000000000000000000000000000000 DUP2 MSTORE PUSH1 0x4 ADD PUSH2 0x26D0 SWAP1 PUSH2 0x3B86 JUMP JUMPDEST PUSH1 0x40 MLOAD DUP1 SWAP2 SUB SWAP1 REVERT JUMPDEST PUSH2 0x26E4 DUP4 DUP4 DUP4 PUSH2 0x2994 JUMP JUMPDEST PUSH1 0x0 DUP1 PUSH1 0x0 DUP6 PUSH20 0xFFFFFFFFFFFFFFFFFFFFFFFFFFFFFFFFFFFFFFFF AND PUSH20 0xFFFFFFFFFFFFFFFFFFFFFFFFFFFFFFFFFFFFFFFF AND DUP2 MSTORE PUSH1 0x20 ADD SWAP1 DUP2 MSTORE PUSH1 0x20 ADD PUSH1 0x0 KECCAK256 SLOAD SWAP1 POP DUP2 DUP2 LT ISZERO PUSH2 0x276A JUMPI PUSH1 0x40 MLOAD PUSH32 0x8C379A000000000000000000000000000000000000000000000000000000000 DUP2 MSTORE PUSH1 0x4 ADD PUSH2 0x2761 SWAP1 PUSH2 0x3C46 JUMP JUMPDEST PUSH1 0x40 MLOAD DUP1 SWAP2 SUB SWAP1 REVERT JUMPDEST DUP2 DUP2 SUB PUSH1 0x0 DUP1 DUP7 PUSH20 0xFFFFFFFFFFFFFFFFFFFFFFFFFFFFFFFFFFFFFFFF AND PUSH20 0xFFFFFFFFFFFFFFFFFFFFFFFFFFFFFFFFFFFFFFFF AND DUP2 MSTORE PUSH1 0x20 ADD SWAP1 DUP2 MSTORE PUSH1 0x20 ADD PUSH1 0x0 KECCAK256 DUP2 SWAP1 SSTORE POP DUP2 PUSH1 0x0 DUP1 DUP6 PUSH20 0xFFFFFFFFFFFFFFFFFFFFFFFFFFFFFFFFFFFFFFFF AND PUSH20 0xFFFFFFFFFFFFFFFFFFFFFFFFFFFFFFFFFFFFFFFF AND DUP2 MSTORE PUSH1 0x20 ADD SWAP1 DUP2 MSTORE PUSH1 0x20 ADD PUSH1 0x0 KECCAK256 PUSH1 0x0 DUP3 DUP3 SLOAD ADD SWAP3 POP POP DUP2 SWAP1 SSTORE POP DUP3 PUSH20 0xFFFFFFFFFFFFFFFFFFFFFFFFFFFFFFFFFFFFFFFF AND DUP5 PUSH20 0xFFFFFFFFFFFFFFFFFFFFFFFFFFFFFFFFFFFFFFFF AND PUSH32 0xDDF252AD1BE2C89B69C2B068FC378DAA952BA7F163C4A11628F55A4DF523B3EF DUP5 PUSH1 0x40 MLOAD PUSH2 0x2858 SWAP2 SWAP1 PUSH2 0x3D66 JUMP JUMPDEST PUSH1 0x40 MLOAD DUP1 SWAP2 SUB SWAP1 LOG3 PUSH2 0x286B DUP5 DUP5 DUP5 PUSH2 0x2A4B JUMP JUMPDEST POP POP POP POP JUMP JUMPDEST PUSH2 0x2879 PUSH2 0xB66 JUMP JUMPDEST PUSH2 0x28B8 JUMPI PUSH1 0x40 MLOAD PUSH32 0x8C379A000000000000000000000000000000000000000000000000000000000 DUP2 MSTORE PUSH1 0x4 ADD PUSH2 0x28AF SWAP1 PUSH2 0x3BA6 JUMP JUMPDEST PUSH1 0x40 MLOAD DUP1 SWAP2 SUB SWAP1 REVERT JUMPDEST JUMP JUMPDEST PUSH1 0x0 DUP1 DUP4 DUP1 SLOAD SWAP1 POP EQ ISZERO PUSH2 0x28D1 JUMPI PUSH1 0x0 SWAP1 POP PUSH2 0x298E JUMP JUMPDEST PUSH1 0x0 DUP1 DUP5 DUP1 SLOAD SWAP1 POP SWAP1 POP JUMPDEST DUP1 DUP3 LT ISZERO PUSH2 0x2935 JUMPI PUSH1 0x0 PUSH2 0x28F0 DUP4 DUP4 PUSH2 0x2A50 JUMP JUMPDEST SWAP1 POP DUP5 DUP7 DUP3 DUP2 SLOAD DUP2 LT PUSH2 0x2906 JUMPI PUSH2 0x2905 PUSH2 0x4224 JUMP JUMPDEST JUMPDEST SWAP1 PUSH1 0x0 MSTORE PUSH1 0x20 PUSH1 0x0 KECCAK256 ADD SLOAD GT ISZERO PUSH2 0x291F JUMPI DUP1 SWAP2 POP PUSH2 0x292F JUMP JUMPDEST PUSH1 0x1 DUP2 PUSH2 0x292C SWAP2 SWAP1 PUSH2 0x3F18 JUMP JUMPDEST SWAP3 POP JUMPDEST POP PUSH2 0x28DC JUMP JUMPDEST PUSH1 0x0 DUP3 GT DUP1 ISZERO PUSH2 0x296D JUMPI POP DUP4 DUP6 PUSH1 0x1 DUP5 PUSH2 0x294F SWAP2 SWAP1 PUSH2 0x3F9F JUMP JUMPDEST DUP2 SLOAD DUP2 LT PUSH2 0x2960 JUMPI PUSH2 0x295F PUSH2 0x4224 JUMP JUMPDEST JUMPDEST SWAP1 PUSH1 0x0 MSTORE PUSH1 0x20 PUSH1 0x0 KECCAK256 ADD SLOAD EQ JUMPDEST ISZERO PUSH2 0x2988 JUMPI PUSH1 0x1 DUP3 PUSH2 0x297F SWAP2 SWAP1 PUSH2 0x3F9F JUMP JUMPDEST SWAP3 POP POP POP PUSH2 0x298E JUMP JUMPDEST DUP2 SWAP3 POP POP POP JUMPDEST SWAP3 SWAP2 POP POP JUMP JUMPDEST PUSH2 0x299F DUP4 DUP4 DUP4 PUSH2 0x2A76 JUMP JUMPDEST PUSH2 0x29A7 PUSH2 0x2A7B JUMP JUMPDEST PUSH1 0x0 PUSH20 0xFFFFFFFFFFFFFFFFFFFFFFFFFFFFFFFFFFFFFFFF AND DUP4 PUSH20 0xFFFFFFFFFFFFFFFFFFFFFFFFFFFFFFFFFFFFFFFF AND EQ PUSH2 0x2A34 JUMPI PUSH2 0x29E4 DUP4 PUSH2 0x2AA3 JUMP JUMPDEST PUSH1 0x0 PUSH20 0xFFFFFFFFFFFFFFFFFFFFFFFFFFFFFFFFFFFFFFFF AND DUP3 PUSH20 0xFFFFFFFFFFFFFFFFFFFFFFFFFFFFFFFFFFFFFFFF AND EQ PUSH2 0x2A26 JUMPI PUSH2 0x2A21 DUP3 PUSH2 0x2AA3 JUMP JUMPDEST PUSH2 0x2A2F JUMP JUMPDEST PUSH2 0x2A2E PUSH2 0x2AF6 JUMP JUMPDEST JUMPDEST PUSH2 0x2A46 JUMP JUMPDEST PUSH2 0x2A3D DUP3 PUSH2 0x2AA3 JUMP JUMPDEST PUSH2 0x2A45 PUSH2 0x2AF6 JUMP JUMPDEST JUMPDEST POP POP POP JUMP JUMPDEST POP POP POP JUMP JUMPDEST PUSH1 0x0 PUSH1 0x2 DUP3 DUP5 XOR PUSH2 0x2A61 SWAP2 SWAP1 PUSH2 0x3F6E JUMP JUMPDEST DUP3 DUP5 AND PUSH2 0x2A6E SWAP2 SWAP1 PUSH2 0x3F18 JUMP JUMPDEST SWAP1 POP SWAP3 SWAP2 POP POP JUMP JUMPDEST POP POP POP JUMP JUMPDEST PUSH1 0x0 PUSH2 0x2A85 PUSH2 0x2B0A JUMP JUMPDEST SWAP1 POP PUSH1 0x0 DUP2 GT ISZERO PUSH2 0x2AA0 JUMPI DUP1 PUSH1 0x8 DUP2 SWAP1 SSTORE POP PUSH2 0x2A9F PUSH2 0x2BC1 JUMP JUMPDEST JUMPDEST POP JUMP JUMPDEST PUSH2 0x2AF3 PUSH1 0x5 PUSH1 0x0 DUP4 PUSH20 0xFFFFFFFFFFFFFFFFFFFFFFFFFFFFFFFFFFFFFFFF AND PUSH20 0xFFFFFFFFFFFFFFFFFFFFFFFFFFFFFFFFFFFFFFFF AND DUP2 MSTORE PUSH1 0x20 ADD SWAP1 DUP2 MSTORE PUSH1 0x20 ADD PUSH1 0x0 KECCAK256 PUSH2 0x2AEE DUP4 PUSH2 0xFF6 JUMP JUMPDEST PUSH2 0x2C1C JUMP JUMPDEST POP JUMP JUMPDEST PUSH2 0x2B08 PUSH1 0x6 PUSH2 0x2B03 PUSH2 0x77C JUMP JUMPDEST PUSH2 0x2C1C JUMP JUMPDEST JUMP JUMPDEST PUSH1 0x0 DUP1 PUSH1 0x9 DUP1 SLOAD SWAP1 POP EQ ISZERO PUSH2 0x2B22 JUMPI PUSH1 0x0 SWAP1 POP PUSH2 0x2BBE JUMP JUMPDEST PUSH1 0x0 DUP1 JUMPDEST PUSH1 0x9 DUP1 SLOAD SWAP1 POP DUP2 LT ISZERO PUSH2 0x2BB8 JUMPI TIMESTAMP PUSH1 0x9 DUP3 DUP2 SLOAD DUP2 LT PUSH2 0x2B48 JUMPI PUSH2 0x2B47 PUSH2 0x4224 JUMP JUMPDEST JUMPDEST SWAP1 PUSH1 0x0 MSTORE PUSH1 0x20 PUSH1 0x0 KECCAK256 ADD SLOAD GT ISZERO DUP1 ISZERO PUSH2 0x2B7E JUMPI POP DUP2 PUSH1 0x9 DUP3 DUP2 SLOAD DUP2 LT PUSH2 0x2B71 JUMPI PUSH2 0x2B70 PUSH2 0x4224 JUMP JUMPDEST JUMPDEST SWAP1 PUSH1 0x0 MSTORE PUSH1 0x20 PUSH1 0x0 KECCAK256 ADD SLOAD GT JUMPDEST ISZERO PUSH2 0x2BA5 JUMPI PUSH1 0x9 DUP2 DUP2 SLOAD DUP2 LT PUSH2 0x2B97 JUMPI PUSH2 0x2B96 PUSH2 0x4224 JUMP JUMPDEST JUMPDEST SWAP1 PUSH1 0x0 MSTORE PUSH1 0x20 PUSH1 0x0 KECCAK256 ADD SLOAD SWAP2 POP JUMPDEST DUP1 DUP1 PUSH2 0x2BB0 SWAP1 PUSH2 0x411F JUMP JUMPDEST SWAP2 POP POP PUSH2 0x2B26 JUMP JUMPDEST POP DUP1 SWAP2 POP POP JUMPDEST SWAP1 JUMP JUMPDEST PUSH1 0x0 JUMPDEST PUSH1 0x9 DUP1 SLOAD SWAP1 POP DUP2 LT ISZERO PUSH2 0x2C19 JUMPI TIMESTAMP PUSH1 0x9 DUP3 DUP2 SLOAD DUP2 LT PUSH2 0x2BE6 JUMPI PUSH2 0x2BE5 PUSH2 0x4224 JUMP JUMPDEST JUMPDEST SWAP1 PUSH1 0x0 MSTORE PUSH1 0x20 PUSH1 0x0 KECCAK256 ADD SLOAD GT PUSH2 0x2C04 JUMPI PUSH2 0x2BFF DUP2 PUSH2 0x2C97 JUMP JUMPDEST PUSH2 0x2C14 JUMP JUMPDEST PUSH1 0x1 DUP2 PUSH2 0x2C11 SWAP2 SWAP1 PUSH2 0x3F18 JUMP JUMPDEST SWAP1 POP JUMPDEST PUSH2 0x2BC4 JUMP JUMPDEST POP JUMP JUMPDEST PUSH1 0x0 PUSH2 0x2C26 PUSH2 0x2D14 JUMP JUMPDEST SWAP1 POP DUP1 PUSH2 0x2C35 DUP5 PUSH1 0x0 ADD PUSH2 0x2D1E JUMP JUMPDEST LT ISZERO PUSH2 0x2C92 JUMPI DUP3 PUSH1 0x0 ADD DUP2 SWAP1 DUP1 PUSH1 0x1 DUP2 SLOAD ADD DUP1 DUP3 SSTORE DUP1 SWAP2 POP POP PUSH1 0x1 SWAP1 SUB SWAP1 PUSH1 0x0 MSTORE PUSH1 0x20 PUSH1 0x0 KECCAK256 ADD PUSH1 0x0 SWAP1 SWAP2 SWAP1 SWAP2 SWAP1 SWAP2 POP SSTORE DUP3 PUSH1 0x1 ADD DUP3 SWAP1 DUP1 PUSH1 0x1 DUP2 SLOAD ADD DUP1 DUP3 SSTORE DUP1 SWAP2 POP POP PUSH1 0x1 SWAP1 SUB SWAP1 PUSH1 0x0 MSTORE PUSH1 0x20 PUSH1 0x0 KECCAK256 ADD PUSH1 0x0 SWAP1 SWAP2 SWAP1 SWAP2 SWAP1 SWAP2 POP SSTORE JUMPDEST POP POP POP JUMP JUMPDEST PUSH1 0x9 PUSH1 0x1 PUSH1 0x9 DUP1 SLOAD SWAP1 POP PUSH2 0x2CAB SWAP2 SWAP1 PUSH2 0x3F9F JUMP JUMPDEST DUP2 SLOAD DUP2 LT PUSH2 0x2CBC JUMPI PUSH2 0x2CBB PUSH2 0x4224 JUMP JUMPDEST JUMPDEST SWAP1 PUSH1 0x0 MSTORE PUSH1 0x20 PUSH1 0x0 KECCAK256 ADD SLOAD PUSH1 0x9 DUP3 DUP2 SLOAD DUP2 LT PUSH2 0x2CDB JUMPI PUSH2 0x2CDA PUSH2 0x4224 JUMP JUMPDEST JUMPDEST SWAP1 PUSH1 0x0 MSTORE PUSH1 0x20 PUSH1 0x0 KECCAK256 ADD DUP2 SWAP1 SSTORE POP PUSH1 0x9 DUP1 SLOAD DUP1 PUSH2 0x2CFB JUMPI PUSH2 0x2CFA PUSH2 0x41F5 JUMP JUMPDEST JUMPDEST PUSH1 0x1 SWAP1 SUB DUP2 DUP2 SWAP1 PUSH1 0x0 MSTORE PUSH1 0x20 PUSH1 0x0 KECCAK256 ADD PUSH1 0x0 SWAP1 SSTORE SWAP1 SSTORE POP JUMP JUMPDEST PUSH1 0x0 PUSH1 0x8 SLOAD SWAP1 POP SWAP1 JUMP JUMPDEST PUSH1 0x0 DUP1 DUP3 DUP1 SLOAD SWAP1 POP EQ ISZERO PUSH2 0x2D35 JUMPI PUSH1 0x0 SWAP1 POP PUSH2 0x2D66 JUMP JUMPDEST DUP2 PUSH1 0x1 DUP4 DUP1 SLOAD SWAP1 POP PUSH2 0x2D47 SWAP2 SWAP1 PUSH2 0x3F9F JUMP JUMPDEST DUP2 SLOAD DUP2 LT PUSH2 0x2D58 JUMPI PUSH2 0x2D57 PUSH2 0x4224 JUMP JUMPDEST JUMPDEST SWAP1 PUSH1 0x0 MSTORE PUSH1 0x20 PUSH1 0x0 KECCAK256 ADD SLOAD SWAP1 POP JUMPDEST SWAP2 SWAP1 POP JUMP JUMPDEST DUP3 DUP1 SLOAD PUSH2 0x2D77 SWAP1 PUSH2 0x40BC JUMP JUMPDEST SWAP1 PUSH1 0x0 MSTORE PUSH1 0x20 PUSH1 0x0 KECCAK256 SWAP1 PUSH1 0x1F ADD PUSH1 0x20 SWAP1 DIV DUP2 ADD SWAP3 DUP3 PUSH2 0x2D99 JUMPI PUSH1 0x0 DUP6 SSTORE PUSH2 0x2DE0 JUMP JUMPDEST DUP3 PUSH1 0x1F LT PUSH2 0x2DB2 JUMPI DUP1 CALLDATALOAD PUSH1 0xFF NOT AND DUP4 DUP1 ADD OR DUP6 SSTORE PUSH2 0x2DE0 JUMP JUMPDEST DUP3 DUP1 ADD PUSH1 0x1 ADD DUP6 SSTORE DUP3 ISZERO PUSH2 0x2DE0 JUMPI SWAP2 DUP3 ADD JUMPDEST DUP3 DUP2 GT ISZERO PUSH2 0x2DDF JUMPI DUP3 CALLDATALOAD DUP3 SSTORE SWAP2 PUSH1 0x20 ADD SWAP2 SWAP1 PUSH1 0x1 ADD SWAP1 PUSH2 0x2DC4 JUMP JUMPDEST JUMPDEST POP SWAP1 POP PUSH2 0x2DED SWAP2 SWAP1 PUSH2 0x2E77 JUMP JUMPDEST POP SWAP1 JUMP JUMPDEST DUP3 DUP1 SLOAD PUSH2 0x2DFD SWAP1 PUSH2 0x40BC JUMP JUMPDEST SWAP1 PUSH1 0x0 MSTORE PUSH1 0x20 PUSH1 0x0 KECCAK256 SWAP1 PUSH1 0x1F ADD PUSH1 0x20 SWAP1 DIV DUP2 ADD SWAP3 DUP3 PUSH2 0x2E1F JUMPI PUSH1 0x0 DUP6 SSTORE PUSH2 0x2E66 JUMP JUMPDEST DUP3 PUSH1 0x1F LT PUSH2 0x2E38 JUMPI DUP1 CALLDATALOAD PUSH1 0xFF NOT AND DUP4 DUP1 ADD OR DUP6 SSTORE PUSH2 0x2E66 JUMP JUMPDEST DUP3 DUP1 ADD PUSH1 0x1 ADD DUP6 SSTORE DUP3 ISZERO PUSH2 0x2E66 JUMPI SWAP2 DUP3 ADD JUMPDEST DUP3 DUP2 GT ISZERO PUSH2 0x2E65 JUMPI DUP3 CALLDATALOAD DUP3 SSTORE SWAP2 PUSH1 0x20 ADD SWAP2 SWAP1 PUSH1 0x1 ADD SWAP1 PUSH2 0x2E4A JUMP JUMPDEST JUMPDEST POP SWAP1 POP PUSH2 0x2E73 SWAP2 SWAP1 PUSH2 0x2E77 JUMP JUMPDEST POP SWAP1 JUMP JUMPDEST JUMPDEST DUP1 DUP3 GT ISZERO PUSH2 0x2E90 JUMPI PUSH1 0x0 DUP2 PUSH1 0x0 SWAP1 SSTORE POP PUSH1 0x1 ADD PUSH2 0x2E78 JUMP JUMPDEST POP SWAP1 JUMP JUMPDEST PUSH1 0x0 PUSH2 0x2EA7 PUSH2 0x2EA2 DUP5 PUSH2 0x3DC1 JUMP JUMPDEST PUSH2 0x3D9C JUMP JUMPDEST SWAP1 POP DUP1 DUP4 DUP3 MSTORE PUSH1 0x20 DUP3 ADD SWAP1 POP DUP3 DUP6 PUSH1 0x20 DUP7 MUL DUP3 ADD GT ISZERO PUSH2 0x2ECA JUMPI PUSH2 0x2EC9 PUSH2 0x428C JUMP JUMPDEST JUMPDEST PUSH1 0x0 JUMPDEST DUP6 DUP2 LT ISZERO PUSH2 0x2EFA JUMPI DUP2 PUSH2 0x2EE0 DUP9 DUP3 PUSH2 0x2F46 JUMP JUMPDEST DUP5 MSTORE PUSH1 0x20 DUP5 ADD SWAP4 POP PUSH1 0x20 DUP4 ADD SWAP3 POP POP PUSH1 0x1 DUP2 ADD SWAP1 POP PUSH2 0x2ECD JUMP JUMPDEST POP POP POP SWAP4 SWAP3 POP POP POP JUMP JUMPDEST PUSH1 0x0 PUSH2 0x2F17 PUSH2 0x2F12 DUP5 PUSH2 0x3DED JUMP JUMPDEST PUSH2 0x3D9C JUMP JUMPDEST SWAP1 POP DUP3 DUP2 MSTORE PUSH1 0x20 DUP2 ADD DUP5 DUP5 DUP5 ADD GT ISZERO PUSH2 0x2F33 JUMPI PUSH2 0x2F32 PUSH2 0x4291 JUMP JUMPDEST JUMPDEST PUSH2 0x2F3E DUP5 DUP3 DUP6 PUSH2 0x4089 JUMP JUMPDEST POP SWAP4 SWAP3 POP POP POP JUMP JUMPDEST PUSH1 0x0 DUP2 CALLDATALOAD SWAP1 POP PUSH2 0x2F55 DUP2 PUSH2 0x4674 JUMP JUMPDEST SWAP3 SWAP2 POP POP JUMP JUMPDEST PUSH1 0x0 DUP1 DUP4 PUSH1 0x1F DUP5 ADD SLT PUSH2 0x2F71 JUMPI PUSH2 0x2F70 PUSH2 0x4287 JUMP JUMPDEST JUMPDEST DUP3 CALLDATALOAD SWAP1 POP PUSH8 0xFFFFFFFFFFFFFFFF DUP2 GT ISZERO PUSH2 0x2F8E JUMPI PUSH2 0x2F8D PUSH2 0x4282 JUMP JUMPDEST JUMPDEST PUSH1 0x20 DUP4 ADD SWAP2 POP DUP4 PUSH1 0x20 DUP3 MUL DUP4 ADD GT ISZERO PUSH2 0x2FAA JUMPI PUSH2 0x2FA9 PUSH2 0x428C JUMP JUMPDEST JUMPDEST SWAP3 POP SWAP3 SWAP1 POP JUMP JUMPDEST PUSH1 0x0 DUP3 PUSH1 0x1F DUP4 ADD SLT PUSH2 0x2FC6 JUMPI PUSH2 0x2FC5 PUSH2 0x4287 JUMP JUMPDEST JUMPDEST DUP2 CALLDATALOAD PUSH2 0x2FD6 DUP5 DUP3 PUSH1 0x20 DUP7 ADD PUSH2 0x2E94 JUMP JUMPDEST SWAP2 POP POP SWAP3 SWAP2 POP POP JUMP JUMPDEST PUSH1 0x0 DUP2 MLOAD SWAP1 POP PUSH2 0x2FEE DUP2 PUSH2 0x468B JUMP JUMPDEST SWAP3 SWAP2 POP POP JUMP JUMPDEST PUSH1 0x0 DUP1 DUP4 PUSH1 0x1F DUP5 ADD SLT PUSH2 0x300A JUMPI PUSH2 0x3009 PUSH2 0x4287 JUMP JUMPDEST JUMPDEST DUP3 CALLDATALOAD SWAP1 POP PUSH8 0xFFFFFFFFFFFFFFFF DUP2 GT ISZERO PUSH2 0x3027 JUMPI PUSH2 0x3026 PUSH2 0x4282 JUMP JUMPDEST JUMPDEST PUSH1 0x20 DUP4 ADD SWAP2 POP DUP4 PUSH1 0x1 DUP3 MUL DUP4 ADD GT ISZERO PUSH2 0x3043 JUMPI PUSH2 0x3042 PUSH2 0x428C JUMP JUMPDEST JUMPDEST SWAP3 POP SWAP3 SWAP1 POP JUMP JUMPDEST PUSH1 0x0 DUP2 CALLDATALOAD SWAP1 POP PUSH2 0x3059 DUP2 PUSH2 0x46A2 JUMP JUMPDEST SWAP3 SWAP2 POP POP JUMP JUMPDEST PUSH1 0x0 DUP1 DUP4 PUSH1 0x1F DUP5 ADD SLT PUSH2 0x3075 JUMPI PUSH2 0x3074 PUSH2 0x4287 JUMP JUMPDEST JUMPDEST DUP3 CALLDATALOAD SWAP1 POP PUSH8 0xFFFFFFFFFFFFFFFF DUP2 GT ISZERO PUSH2 0x3092 JUMPI PUSH2 0x3091 PUSH2 0x4282 JUMP JUMPDEST JUMPDEST PUSH1 0x20 DUP4 ADD SWAP2 POP DUP4 PUSH1 0x1 DUP3 MUL DUP4 ADD GT ISZERO PUSH2 0x30AE JUMPI PUSH2 0x30AD PUSH2 0x428C JUMP JUMPDEST JUMPDEST SWAP3 POP SWAP3 SWAP1 POP JUMP JUMPDEST PUSH1 0x0 DUP3 PUSH1 0x1F DUP4 ADD SLT PUSH2 0x30CA JUMPI PUSH2 0x30C9 PUSH2 0x4287 JUMP JUMPDEST JUMPDEST DUP2 MLOAD PUSH2 0x30DA DUP5 DUP3 PUSH1 0x20 DUP7 ADD PUSH2 0x2F04 JUMP JUMPDEST SWAP2 POP POP SWAP3 SWAP2 POP POP JUMP JUMPDEST PUSH1 0x0 DUP2 CALLDATALOAD SWAP1 POP PUSH2 0x30F2 DUP2 PUSH2 0x46B9 JUMP JUMPDEST SWAP3 SWAP2 POP POP JUMP JUMPDEST PUSH1 0x0 DUP2 CALLDATALOAD SWAP1 POP PUSH2 0x3107 DUP2 PUSH2 0x46D0 JUMP JUMPDEST SWAP3 SWAP2 POP POP JUMP JUMPDEST PUSH1 0x0 DUP2 MLOAD SWAP1 POP PUSH2 0x311C DUP2 PUSH2 0x46D0 JUMP JUMPDEST SWAP3 SWAP2 POP POP JUMP JUMPDEST PUSH1 0x0 PUSH1 0x20 DUP3 DUP5 SUB SLT ISZERO PUSH2 0x3138 JUMPI PUSH2 0x3137 PUSH2 0x429B JUMP JUMPDEST JUMPDEST PUSH1 0x0 PUSH2 0x3146 DUP5 DUP3 DUP6 ADD PUSH2 0x2F46 JUMP JUMPDEST SWAP2 POP POP SWAP3 SWAP2 POP POP JUMP JUMPDEST PUSH1 0x0 DUP1 PUSH1 0x40 DUP4 DUP6 SUB SLT ISZERO PUSH2 0x3166 JUMPI PUSH2 0x3165 PUSH2 0x429B JUMP JUMPDEST JUMPDEST PUSH1 0x0 PUSH2 0x3174 DUP6 DUP3 DUP7 ADD PUSH2 0x2F46 JUMP JUMPDEST SWAP3 POP POP PUSH1 0x20 PUSH2 0x3185 DUP6 DUP3 DUP7 ADD PUSH2 0x2F46 JUMP JUMPDEST SWAP2 POP POP SWAP3 POP SWAP3 SWAP1 POP JUMP JUMPDEST PUSH1 0x0 DUP1 PUSH1 0x0 PUSH1 0x60 DUP5 DUP7 SUB SLT ISZERO PUSH2 0x31A8 JUMPI PUSH2 0x31A7 PUSH2 0x429B JUMP JUMPDEST JUMPDEST PUSH1 0x0 PUSH2 0x31B6 DUP7 DUP3 DUP8 ADD PUSH2 0x2F46 JUMP JUMPDEST SWAP4 POP POP PUSH1 0x20 PUSH2 0x31C7 DUP7 DUP3 DUP8 ADD PUSH2 0x2F46 JUMP JUMPDEST SWAP3 POP POP PUSH1 0x40 PUSH2 0x31D8 DUP7 DUP3 DUP8 ADD PUSH2 0x30E3 JUMP JUMPDEST SWAP2 POP POP SWAP3 POP SWAP3 POP SWAP3 JUMP JUMPDEST PUSH1 0x0 DUP1 PUSH1 0x40 DUP4 DUP6 SUB SLT ISZERO PUSH2 0x31F9 JUMPI PUSH2 0x31F8 PUSH2 0x429B JUMP JUMPDEST JUMPDEST PUSH1 0x0 PUSH2 0x3207 DUP6 DUP3 DUP7 ADD PUSH2 0x2F46 JUMP JUMPDEST SWAP3 POP POP PUSH1 0x20 PUSH2 0x3218 DUP6 DUP3 DUP7 ADD PUSH2 0x30E3 JUMP JUMPDEST SWAP2 POP POP SWAP3 POP SWAP3 SWAP1 POP JUMP JUMPDEST PUSH1 0x0 DUP1 PUSH1 0x20 DUP4 DUP6 SUB SLT ISZERO PUSH2 0x3239 JUMPI PUSH2 0x3238 PUSH2 0x429B JUMP JUMPDEST JUMPDEST PUSH1 0x0 DUP4 ADD CALLDATALOAD PUSH8 0xFFFFFFFFFFFFFFFF DUP2 GT ISZERO PUSH2 0x3257 JUMPI PUSH2 0x3256 PUSH2 0x4296 JUMP JUMPDEST JUMPDEST PUSH2 0x3263 DUP6 DUP3 DUP7 ADD PUSH2 0x2F5B JUMP JUMPDEST SWAP3 POP SWAP3 POP POP SWAP3 POP SWAP3 SWAP1 POP JUMP JUMPDEST PUSH1 0x0 PUSH1 0x20 DUP3 DUP5 SUB SLT ISZERO PUSH2 0x3285 JUMPI PUSH2 0x3284 PUSH2 0x429B JUMP JUMPDEST JUMPDEST PUSH1 0x0 DUP3 ADD CALLDATALOAD PUSH8 0xFFFFFFFFFFFFFFFF DUP2 GT ISZERO PUSH2 0x32A3 JUMPI PUSH2 0x32A2 PUSH2 0x4296 JUMP JUMPDEST JUMPDEST PUSH2 0x32AF DUP5 DUP3 DUP6 ADD PUSH2 0x2FB1 JUMP JUMPDEST SWAP2 POP POP SWAP3 SWAP2 POP POP JUMP JUMPDEST PUSH1 0x0 PUSH1 0x20 DUP3 DUP5 SUB SLT ISZERO PUSH2 0x32CE JUMPI PUSH2 0x32CD PUSH2 0x429B JUMP JUMPDEST JUMPDEST PUSH1 0x0 PUSH2 0x32DC DUP5 DUP3 DUP6 ADD PUSH2 0x2FDF JUMP JUMPDEST SWAP2 POP POP SWAP3 SWAP2 POP POP JUMP JUMPDEST PUSH1 0x0 DUP1 PUSH1 0x20 DUP4 DUP6 SUB SLT ISZERO PUSH2 0x32FC JUMPI PUSH2 0x32FB PUSH2 0x429B JUMP JUMPDEST JUMPDEST PUSH1 0x0 DUP4 ADD CALLDATALOAD PUSH8 0xFFFFFFFFFFFFFFFF DUP2 GT ISZERO PUSH2 0x331A JUMPI PUSH2 0x3319 PUSH2 0x4296 JUMP JUMPDEST JUMPDEST PUSH2 0x3326 DUP6 DUP3 DUP7 ADD PUSH2 0x2FF4 JUMP JUMPDEST SWAP3 POP SWAP3 POP POP SWAP3 POP SWAP3 SWAP1 POP JUMP JUMPDEST PUSH1 0x0 PUSH1 0x20 DUP3 DUP5 SUB SLT ISZERO PUSH2 0x3348 JUMPI PUSH2 0x3347 PUSH2 0x429B JUMP JUMPDEST JUMPDEST PUSH1 0x0 PUSH2 0x3356 DUP5 DUP3 DUP6 ADD PUSH2 0x304A JUMP JUMPDEST SWAP2 POP POP SWAP3 SWAP2 POP POP JUMP JUMPDEST PUSH1 0x0 DUP1 PUSH1 0x20 DUP4 DUP6 SUB SLT ISZERO PUSH2 0x3376 JUMPI PUSH2 0x3375 PUSH2 0x429B JUMP JUMPDEST JUMPDEST PUSH1 0x0 DUP4 ADD CALLDATALOAD PUSH8 0xFFFFFFFFFFFFFFFF DUP2 GT ISZERO PUSH2 0x3394 JUMPI PUSH2 0x3393 PUSH2 0x4296 JUMP JUMPDEST JUMPDEST PUSH2 0x33A0 DUP6 DUP3 DUP7 ADD PUSH2 0x305F JUMP JUMPDEST SWAP3 POP SWAP3 POP POP SWAP3 POP SWAP3 SWAP1 POP JUMP JUMPDEST PUSH1 0x0 PUSH1 0x20 DUP3 DUP5 SUB SLT ISZERO PUSH2 0x33C2 JUMPI PUSH2 0x33C1 PUSH2 0x429B JUMP JUMPDEST JUMPDEST PUSH1 0x0 DUP3 ADD MLOAD PUSH8 0xFFFFFFFFFFFFFFFF DUP2 GT ISZERO PUSH2 0x33E0 JUMPI PUSH2 0x33DF PUSH2 0x4296 JUMP JUMPDEST JUMPDEST PUSH2 0x33EC DUP5 DUP3 DUP6 ADD PUSH2 0x30B5 JUMP JUMPDEST SWAP2 POP POP SWAP3 SWAP2 POP POP JUMP JUMPDEST PUSH1 0x0 PUSH1 0x20 DUP3 DUP5 SUB SLT ISZERO PUSH2 0x340B JUMPI PUSH2 0x340A PUSH2 0x429B JUMP JUMPDEST JUMPDEST PUSH1 0x0 PUSH2 0x3419 DUP5 DUP3 DUP6 ADD PUSH2 0x30E3 JUMP JUMPDEST SWAP2 POP POP SWAP3 SWAP2 POP POP JUMP JUMPDEST PUSH1 0x0 DUP1 PUSH1 0x40 DUP4 DUP6 SUB SLT ISZERO PUSH2 0x3439 JUMPI PUSH2 0x3438 PUSH2 0x429B JUMP JUMPDEST JUMPDEST PUSH1 0x0 PUSH2 0x3447 DUP6 DUP3 DUP7 ADD PUSH2 0x30E3 JUMP JUMPDEST SWAP3 POP POP PUSH1 0x20 PUSH2 0x3458 DUP6 DUP3 DUP7 ADD PUSH2 0x2F46 JUMP JUMPDEST SWAP2 POP POP SWAP3 POP SWAP3 SWAP1 POP JUMP JUMPDEST PUSH1 0x0 PUSH1 0x20 DUP3 DUP5 SUB SLT ISZERO PUSH2 0x3478 JUMPI PUSH2 0x3477 PUSH2 0x429B JUMP JUMPDEST JUMPDEST PUSH1 0x0 PUSH2 0x3486 DUP5 DUP3 DUP6 ADD PUSH2 0x30F8 JUMP JUMPDEST SWAP2 POP POP SWAP3 SWAP2 POP POP JUMP JUMPDEST PUSH1 0x0 PUSH1 0x20 DUP3 DUP5 SUB SLT ISZERO PUSH2 0x34A5 JUMPI PUSH2 0x34A4 PUSH2 0x429B JUMP JUMPDEST JUMPDEST PUSH1 0x0 PUSH2 0x34B3 DUP5 DUP3 DUP6 ADD PUSH2 0x310D JUMP JUMPDEST SWAP2 POP POP SWAP3 SWAP2 POP POP JUMP JUMPDEST PUSH1 0x0 PUSH2 0x34C8 DUP4 DUP4 PUSH2 0x3500 JUMP JUMPDEST PUSH1 0x20 DUP4 ADD SWAP1 POP SWAP3 SWAP2 POP POP JUMP JUMPDEST PUSH1 0x0 PUSH2 0x34E0 DUP4 DUP4 PUSH2 0x366C JUMP JUMPDEST SWAP1 POP SWAP3 SWAP2 POP POP JUMP JUMPDEST PUSH1 0x0 PUSH2 0x34F4 DUP4 DUP4 PUSH2 0x39A6 JUMP JUMPDEST PUSH1 0x20 DUP4 ADD SWAP1 POP SWAP3 SWAP2 POP POP JUMP JUMPDEST PUSH2 0x3509 DUP2 PUSH2 0x3FD3 JUMP JUMPDEST DUP3 MSTORE POP POP JUMP JUMPDEST PUSH2 0x3518 DUP2 PUSH2 0x3FD3 JUMP JUMPDEST DUP3 MSTORE POP POP JUMP JUMPDEST PUSH1 0x0 PUSH2 0x352A DUP4 DUP6 PUSH2 0x3E9B JUMP JUMPDEST SWAP4 POP PUSH2 0x3535 DUP3 PUSH2 0x3E1E JUMP JUMPDEST DUP1 PUSH1 0x0 JUMPDEST DUP6 DUP2 LT ISZERO PUSH2 0x356E JUMPI PUSH2 0x354B DUP3 DUP5 PUSH2 0x3F01 JUMP JUMPDEST PUSH2 0x3555 DUP9 DUP3 PUSH2 0x34BC JUMP JUMPDEST SWAP8 POP PUSH2 0x3560 DUP4 PUSH2 0x3E74 JUMP JUMPDEST SWAP3 POP POP PUSH1 0x1 DUP2 ADD SWAP1 POP PUSH2 0x3539 JUMP JUMPDEST POP DUP6 SWAP3 POP POP POP SWAP4 SWAP3 POP POP POP JUMP JUMPDEST PUSH1 0x0 PUSH2 0x3586 DUP3 PUSH2 0x3E48 JUMP JUMPDEST PUSH2 0x3590 DUP2 DUP6 PUSH2 0x3EAC JUMP JUMPDEST SWAP4 POP DUP4 PUSH1 0x20 DUP3 MUL DUP6 ADD PUSH2 0x35A2 DUP6 PUSH2 0x3E28 JUMP JUMPDEST DUP1 PUSH1 0x0 JUMPDEST DUP6 DUP2 LT ISZERO PUSH2 0x35DE JUMPI DUP5 DUP5 SUB DUP10 MSTORE DUP2 MLOAD PUSH2 0x35BF DUP6 DUP3 PUSH2 0x34D4 JUMP JUMPDEST SWAP5 POP PUSH2 0x35CA DUP4 PUSH2 0x3E81 JUMP JUMPDEST SWAP3 POP PUSH1 0x20 DUP11 ADD SWAP10 POP POP PUSH1 0x1 DUP2 ADD SWAP1 POP PUSH2 0x35A6 JUMP JUMPDEST POP DUP3 SWAP8 POP DUP8 SWAP6 POP POP POP POP POP POP SWAP3 SWAP2 POP POP JUMP JUMPDEST PUSH1 0x0 PUSH2 0x35FB DUP3 PUSH2 0x3E53 JUMP JUMPDEST PUSH2 0x3605 DUP2 DUP6 PUSH2 0x3EBD JUMP JUMPDEST SWAP4 POP PUSH2 0x3610 DUP4 PUSH2 0x3E38 JUMP JUMPDEST DUP1 PUSH1 0x0 JUMPDEST DUP4 DUP2 LT ISZERO PUSH2 0x3641 JUMPI DUP2 MLOAD PUSH2 0x3628 DUP9 DUP3 PUSH2 0x34E8 JUMP JUMPDEST SWAP8 POP PUSH2 0x3633 DUP4 PUSH2 0x3E8E JUMP JUMPDEST SWAP3 POP POP PUSH1 0x1 DUP2 ADD SWAP1 POP PUSH2 0x3614 JUMP JUMPDEST POP DUP6 SWAP4 POP POP POP POP SWAP3 SWAP2 POP POP JUMP JUMPDEST PUSH2 0x3657 DUP2 PUSH2 0x3FE5 JUMP JUMPDEST DUP3 MSTORE POP POP JUMP JUMPDEST PUSH2 0x3666 DUP2 PUSH2 0x3FF1 JUMP JUMPDEST DUP3 MSTORE POP POP JUMP JUMPDEST PUSH1 0x0 PUSH2 0x3677 DUP3 PUSH2 0x3E5E JUMP JUMPDEST PUSH2 0x3681 DUP2 DUP6 PUSH2 0x3ECE JUMP JUMPDEST SWAP4 POP PUSH2 0x3691 DUP2 DUP6 PUSH1 0x20 DUP7 ADD PUSH2 0x4089 JUMP JUMPDEST PUSH2 0x369A DUP2 PUSH2 0x42A0 JUMP JUMPDEST DUP5 ADD SWAP2 POP POP SWAP3 SWAP2 POP POP JUMP JUMPDEST PUSH1 0x0 PUSH2 0x36B0 DUP3 PUSH2 0x3E5E JUMP JUMPDEST PUSH2 0x36BA DUP2 DUP6 PUSH2 0x3EDF JUMP JUMPDEST SWAP4 POP PUSH2 0x36CA DUP2 DUP6 PUSH1 0x20 DUP7 ADD PUSH2 0x4089 JUMP JUMPDEST PUSH2 0x36D3 DUP2 PUSH2 0x42A0 JUMP JUMPDEST DUP5 ADD SWAP2 POP POP SWAP3 SWAP2 POP POP JUMP JUMPDEST PUSH2 0x36E7 DUP2 PUSH2 0x4044 JUMP JUMPDEST DUP3 MSTORE POP POP JUMP JUMPDEST PUSH1 0x0 PUSH2 0x36F9 DUP4 DUP6 PUSH2 0x3EF0 JUMP JUMPDEST SWAP4 POP PUSH2 0x3706 DUP4 DUP6 DUP5 PUSH2 0x407A JUMP JUMPDEST PUSH2 0x370F DUP4 PUSH2 0x42A0 JUMP JUMPDEST DUP5 ADD SWAP1 POP SWAP4 SWAP3 POP POP POP JUMP JUMPDEST PUSH1 0x0 PUSH2 0x3725 DUP3 PUSH2 0x3E69 JUMP JUMPDEST PUSH2 0x372F DUP2 DUP6 PUSH2 0x3EF0 JUMP JUMPDEST SWAP4 POP PUSH2 0x373F DUP2 DUP6 PUSH1 0x20 DUP7 ADD PUSH2 0x4089 JUMP JUMPDEST PUSH2 0x3748 DUP2 PUSH2 0x42A0 JUMP JUMPDEST DUP5 ADD SWAP2 POP POP SWAP3 SWAP2 POP POP JUMP JUMPDEST PUSH1 0x0 PUSH2 0x3760 PUSH1 0x4 DUP4 PUSH2 0x3EF0 JUMP JUMPDEST SWAP2 POP PUSH2 0x376B DUP3 PUSH2 0x42B1 JUMP JUMPDEST PUSH1 0x20 DUP3 ADD SWAP1 POP SWAP2 SWAP1 POP JUMP JUMPDEST PUSH1 0x0 PUSH2 0x3783 PUSH1 0x4 DUP4 PUSH2 0x3EF0 JUMP JUMPDEST SWAP2 POP PUSH2 0x378E DUP3 PUSH2 0x42DA JUMP JUMPDEST PUSH1 0x20 DUP3 ADD SWAP1 POP SWAP2 SWAP1 POP JUMP JUMPDEST PUSH1 0x0 PUSH2 0x37A6 PUSH1 0x23 DUP4 PUSH2 0x3EF0 JUMP JUMPDEST SWAP2 POP PUSH2 0x37B1 DUP3 PUSH2 0x4303 JUMP JUMPDEST PUSH1 0x40 DUP3 ADD SWAP1 POP SWAP2 SWAP1 POP JUMP JUMPDEST PUSH1 0x0 PUSH2 0x37C9 PUSH1 0x14 DUP4 PUSH2 0x3EF0 JUMP JUMPDEST SWAP2 POP PUSH2 0x37D4 DUP3 PUSH2 0x4352 JUMP JUMPDEST PUSH1 0x20 DUP3 ADD SWAP1 POP SWAP2 SWAP1 POP JUMP JUMPDEST PUSH1 0x0 PUSH2 0x37EC PUSH1 0x26 DUP4 PUSH2 0x3EF0 JUMP JUMPDEST SWAP2 POP PUSH2 0x37F7 DUP3 PUSH2 0x437B JUMP JUMPDEST PUSH1 0x40 DUP3 ADD SWAP1 POP SWAP2 SWAP1 POP JUMP JUMPDEST PUSH1 0x0 PUSH2 0x380F PUSH1 0x22 DUP4 PUSH2 0x3EF0 JUMP JUMPDEST SWAP2 POP PUSH2 0x381A DUP3 PUSH2 0x43CA JUMP JUMPDEST PUSH1 0x40 DUP3 ADD SWAP1 POP SWAP2 SWAP1 POP JUMP JUMPDEST PUSH1 0x0 PUSH2 0x3832 PUSH1 0x4 DUP4 PUSH2 0x3EF0 JUMP JUMPDEST SWAP2 POP PUSH2 0x383D DUP3 PUSH2 0x4419 JUMP JUMPDEST PUSH1 0x20 DUP3 ADD SWAP1 POP SWAP2 SWAP1 POP JUMP JUMPDEST PUSH1 0x0 PUSH2 0x3855 PUSH1 0x1D DUP4 PUSH2 0x3EF0 JUMP JUMPDEST SWAP2 POP PUSH2 0x3860 DUP3 PUSH2 0x4442 JUMP JUMPDEST PUSH1 0x20 DUP3 ADD SWAP1 POP SWAP2 SWAP1 POP JUMP JUMPDEST PUSH1 0x0 PUSH2 0x3878 PUSH1 0x26 DUP4 PUSH2 0x3EF0 JUMP JUMPDEST SWAP2 POP PUSH2 0x3883 DUP3 PUSH2 0x446B JUMP JUMPDEST PUSH1 0x40 DUP3 ADD SWAP1 POP SWAP2 SWAP1 POP JUMP JUMPDEST PUSH1 0x0 PUSH2 0x389B PUSH1 0x10 DUP4 PUSH2 0x3EF0 JUMP JUMPDEST SWAP2 POP PUSH2 0x38A6 DUP3 PUSH2 0x44BA JUMP JUMPDEST PUSH1 0x20 DUP3 ADD SWAP1 POP SWAP2 SWAP1 POP JUMP JUMPDEST PUSH1 0x0 PUSH2 0x38BE PUSH1 0x4 DUP4 PUSH2 0x3EF0 JUMP JUMPDEST SWAP2 POP PUSH2 0x38C9 DUP3 PUSH2 0x44E3 JUMP JUMPDEST PUSH1 0x20 DUP3 ADD SWAP1 POP SWAP2 SWAP1 POP JUMP JUMPDEST PUSH1 0x0 PUSH2 0x38E1 PUSH1 0x20 DUP4 PUSH2 0x3EF0 JUMP JUMPDEST SWAP2 POP PUSH2 0x38EC DUP3 PUSH2 0x450C JUMP JUMPDEST PUSH1 0x20 DUP3 ADD SWAP1 POP SWAP2 SWAP1 POP JUMP JUMPDEST PUSH1 0x0 PUSH2 0x3904 PUSH1 0x4 DUP4 PUSH2 0x3EF0 JUMP JUMPDEST SWAP2 POP PUSH2 0x390F DUP3 PUSH2 0x4535 JUMP JUMPDEST PUSH1 0x20 DUP3 ADD SWAP1 POP SWAP2 SWAP1 POP JUMP JUMPDEST PUSH1 0x0 PUSH2 0x3927 PUSH1 0x4 DUP4 PUSH2 0x3EF0 JUMP JUMPDEST SWAP2 POP PUSH2 0x3932 DUP3 PUSH2 0x455E JUMP JUMPDEST PUSH1 0x20 DUP3 ADD SWAP1 POP SWAP2 SWAP1 POP JUMP JUMPDEST PUSH1 0x0 PUSH2 0x394A PUSH1 0x25 DUP4 PUSH2 0x3EF0 JUMP JUMPDEST SWAP2 POP PUSH2 0x3955 DUP3 PUSH2 0x4587 JUMP JUMPDEST PUSH1 0x40 DUP3 ADD SWAP1 POP SWAP2 SWAP1 POP JUMP JUMPDEST PUSH1 0x0 PUSH2 0x396D PUSH1 0x24 DUP4 PUSH2 0x3EF0 JUMP JUMPDEST SWAP2 POP PUSH2 0x3978 DUP3 PUSH2 0x45D6 JUMP JUMPDEST PUSH1 0x40 DUP3 ADD SWAP1 POP SWAP2 SWAP1 POP JUMP JUMPDEST PUSH1 0x0 PUSH2 0x3990 PUSH1 0x25 DUP4 PUSH2 0x3EF0 JUMP JUMPDEST SWAP2 POP PUSH2 0x399B DUP3 PUSH2 0x4625 JUMP JUMPDEST PUSH1 0x40 DUP3 ADD SWAP1 POP SWAP2 SWAP1 POP JUMP JUMPDEST PUSH2 0x39AF DUP2 PUSH2 0x402D JUMP JUMPDEST DUP3 MSTORE POP POP JUMP JUMPDEST PUSH2 0x39BE DUP2 PUSH2 0x402D JUMP JUMPDEST DUP3 MSTORE POP POP JUMP JUMPDEST PUSH2 0x39CD DUP2 PUSH2 0x4037 JUMP JUMPDEST DUP3 MSTORE POP POP JUMP JUMPDEST PUSH1 0x0 PUSH1 0x20 DUP3 ADD SWAP1 POP PUSH2 0x39E8 PUSH1 0x0 DUP4 ADD DUP5 PUSH2 0x350F JUMP JUMPDEST SWAP3 SWAP2 POP POP JUMP JUMPDEST PUSH1 0x0 PUSH1 0x60 DUP3 ADD SWAP1 POP PUSH2 0x3A03 PUSH1 0x0 DUP4 ADD DUP7 PUSH2 0x350F JUMP JUMPDEST PUSH2 0x3A10 PUSH1 0x20 DUP4 ADD DUP6 PUSH2 0x350F JUMP JUMPDEST PUSH2 0x3A1D PUSH1 0x40 DUP4 ADD DUP5 PUSH2 0x39B5 JUMP JUMPDEST SWAP5 SWAP4 POP POP POP POP JUMP JUMPDEST PUSH1 0x0 PUSH1 0x20 DUP3 ADD SWAP1 POP DUP2 DUP2 SUB PUSH1 0x0 DUP4 ADD MSTORE PUSH2 0x3A40 DUP2 DUP5 DUP7 PUSH2 0x351E JUMP JUMPDEST SWAP1 POP SWAP4 SWAP3 POP POP POP JUMP JUMPDEST PUSH1 0x0 PUSH1 0x20 DUP3 ADD SWAP1 POP DUP2 DUP2 SUB PUSH1 0x0 DUP4 ADD MSTORE PUSH2 0x3A63 DUP2 DUP5 PUSH2 0x357B JUMP JUMPDEST SWAP1 POP SWAP3 SWAP2 POP POP JUMP JUMPDEST PUSH1 0x0 PUSH1 0x20 DUP3 ADD SWAP1 POP DUP2 DUP2 SUB PUSH1 0x0 DUP4 ADD MSTORE PUSH2 0x3A85 DUP2 DUP5 PUSH2 0x35F0 JUMP JUMPDEST SWAP1 POP SWAP3 SWAP2 POP POP JUMP JUMPDEST PUSH1 0x0 PUSH1 0x20 DUP3 ADD SWAP1 POP PUSH2 0x3AA2 PUSH1 0x0 DUP4 ADD DUP5 PUSH2 0x364E JUMP JUMPDEST SWAP3 SWAP2 POP POP JUMP JUMPDEST PUSH1 0x0 PUSH1 0x20 DUP3 ADD SWAP1 POP PUSH2 0x3ABD PUSH1 0x0 DUP4 ADD DUP5 PUSH2 0x365D JUMP JUMPDEST SWAP3 SWAP2 POP POP JUMP JUMPDEST PUSH1 0x0 PUSH1 0x20 DUP3 ADD SWAP1 POP DUP2 DUP2 SUB PUSH1 0x0 DUP4 ADD MSTORE PUSH2 0x3ADD DUP2 DUP5 PUSH2 0x36A5 JUMP JUMPDEST SWAP1 POP SWAP3 SWAP2 POP POP JUMP JUMPDEST PUSH1 0x0 PUSH1 0x20 DUP3 ADD SWAP1 POP PUSH2 0x3AFA PUSH1 0x0 DUP4 ADD DUP5 PUSH2 0x36DE JUMP JUMPDEST SWAP3 SWAP2 POP POP JUMP JUMPDEST PUSH1 0x0 PUSH1 0x20 DUP3 ADD SWAP1 POP DUP2 DUP2 SUB PUSH1 0x0 DUP4 ADD MSTORE PUSH2 0x3B1B DUP2 DUP5 DUP7 PUSH2 0x36ED JUMP JUMPDEST SWAP1 POP SWAP4 SWAP3 POP POP POP JUMP JUMPDEST PUSH1 0x0 PUSH1 0x20 DUP3 ADD SWAP1 POP DUP2 DUP2 SUB PUSH1 0x0 DUP4 ADD MSTORE PUSH2 0x3B3E DUP2 DUP5 PUSH2 0x371A JUMP JUMPDEST SWAP1 POP SWAP3 SWAP2 POP POP JUMP JUMPDEST PUSH1 0x0 PUSH1 0x20 DUP3 ADD SWAP1 POP DUP2 DUP2 SUB PUSH1 0x0 DUP4 ADD MSTORE PUSH2 0x3B5F DUP2 PUSH2 0x3753 JUMP JUMPDEST SWAP1 POP SWAP2 SWAP1 POP JUMP JUMPDEST PUSH1 0x0 PUSH1 0x20 DUP3 ADD SWAP1 POP DUP2 DUP2 SUB PUSH1 0x0 DUP4 ADD MSTORE PUSH2 0x3B7F DUP2 PUSH2 0x3776 JUMP JUMPDEST SWAP1 POP SWAP2 SWAP1 POP JUMP JUMPDEST PUSH1 0x0 PUSH1 0x20 DUP3 ADD SWAP1 POP DUP2 DUP2 SUB PUSH1 0x0 DUP4 ADD MSTORE PUSH2 0x3B9F DUP2 PUSH2 0x3799 JUMP JUMPDEST SWAP1 POP SWAP2 SWAP1 POP JUMP JUMPDEST PUSH1 0x0 PUSH1 0x20 DUP3 ADD SWAP1 POP DUP2 DUP2 SUB PUSH1 0x0 DUP4 ADD MSTORE PUSH2 0x3BBF DUP2 PUSH2 0x37BC JUMP JUMPDEST SWAP1 POP SWAP2 SWAP1 POP JUMP JUMPDEST PUSH1 0x0 PUSH1 0x20 DUP3 ADD SWAP1 POP DUP2 DUP2 SUB PUSH1 0x0 DUP4 ADD MSTORE PUSH2 0x3BDF DUP2 PUSH2 0x37DF JUMP JUMPDEST SWAP1 POP SWAP2 SWAP1 POP JUMP JUMPDEST PUSH1 0x0 PUSH1 0x20 DUP3 ADD SWAP1 POP DUP2 DUP2 SUB PUSH1 0x0 DUP4 ADD MSTORE PUSH2 0x3BFF DUP2 PUSH2 0x3802 JUMP JUMPDEST SWAP1 POP SWAP2 SWAP1 POP JUMP JUMPDEST PUSH1 0x0 PUSH1 0x20 DUP3 ADD SWAP1 POP DUP2 DUP2 SUB PUSH1 0x0 DUP4 ADD MSTORE PUSH2 0x3C1F DUP2 PUSH2 0x3825 JUMP JUMPDEST SWAP1 POP SWAP2 SWAP1 POP JUMP JUMPDEST PUSH1 0x0 PUSH1 0x20 DUP3 ADD SWAP1 POP DUP2 DUP2 SUB PUSH1 0x0 DUP4 ADD MSTORE PUSH2 0x3C3F DUP2 PUSH2 0x3848 JUMP JUMPDEST SWAP1 POP SWAP2 SWAP1 POP JUMP JUMPDEST PUSH1 0x0 PUSH1 0x20 DUP3 ADD SWAP1 POP DUP2 DUP2 SUB PUSH1 0x0 DUP4 ADD MSTORE PUSH2 0x3C5F DUP2 PUSH2 0x386B JUMP JUMPDEST SWAP1 POP SWAP2 SWAP1 POP JUMP JUMPDEST PUSH1 0x0 PUSH1 0x20 DUP3 ADD SWAP1 POP DUP2 DUP2 SUB PUSH1 0x0 DUP4 ADD MSTORE PUSH2 0x3C7F DUP2 PUSH2 0x388E JUMP JUMPDEST SWAP1 POP SWAP2 SWAP1 POP JUMP JUMPDEST PUSH1 0x0 PUSH1 0x20 DUP3 ADD SWAP1 POP DUP2 DUP2 SUB PUSH1 0x0 DUP4 ADD MSTORE PUSH2 0x3C9F DUP2 PUSH2 0x38B1 JUMP JUMPDEST SWAP1 POP SWAP2 SWAP1 POP JUMP JUMPDEST PUSH1 0x0 PUSH1 0x20 DUP3 ADD SWAP1 POP DUP2 DUP2 SUB PUSH1 0x0 DUP4 ADD MSTORE PUSH2 0x3CBF DUP2 PUSH2 0x38D4 JUMP JUMPDEST SWAP1 POP SWAP2 SWAP1 POP JUMP JUMPDEST PUSH1 0x0 PUSH1 0x20 DUP3 ADD SWAP1 POP DUP2 DUP2 SUB PUSH1 0x0 DUP4 ADD MSTORE PUSH2 0x3CDF DUP2 PUSH2 0x38F7 JUMP JUMPDEST SWAP1 POP SWAP2 SWAP1 POP JUMP JUMPDEST PUSH1 0x0 PUSH1 0x20 DUP3 ADD SWAP1 POP DUP2 DUP2 SUB PUSH1 0x0 DUP4 ADD MSTORE PUSH2 0x3CFF DUP2 PUSH2 0x391A JUMP JUMPDEST SWAP1 POP SWAP2 SWAP1 POP JUMP JUMPDEST PUSH1 0x0 PUSH1 0x20 DUP3 ADD SWAP1 POP DUP2 DUP2 SUB PUSH1 0x0 DUP4 ADD MSTORE PUSH2 0x3D1F DUP2 PUSH2 0x393D JUMP JUMPDEST SWAP1 POP SWAP2 SWAP1 POP JUMP JUMPDEST PUSH1 0x0 PUSH1 0x20 DUP3 ADD SWAP1 POP DUP2 DUP2 SUB PUSH1 0x0 DUP4 ADD MSTORE PUSH2 0x3D3F DUP2 PUSH2 0x3960 JUMP JUMPDEST SWAP1 POP SWAP2 SWAP1 POP JUMP JUMPDEST PUSH1 0x0 PUSH1 0x20 DUP3 ADD SWAP1 POP DUP2 DUP2 SUB PUSH1 0x0 DUP4 ADD MSTORE PUSH2 0x3D5F DUP2 PUSH2 0x3983 JUMP JUMPDEST SWAP1 POP SWAP2 SWAP1 POP JUMP JUMPDEST PUSH1 0x0 PUSH1 0x20 DUP3 ADD SWAP1 POP PUSH2 0x3D7B PUSH1 0x0 DUP4 ADD DUP5 PUSH2 0x39B5 JUMP JUMPDEST SWAP3 SWAP2 POP POP JUMP JUMPDEST PUSH1 0x0 PUSH1 0x20 DUP3 ADD SWAP1 POP PUSH2 0x3D96 PUSH1 0x0 DUP4 ADD DUP5 PUSH2 0x39C4 JUMP JUMPDEST SWAP3 SWAP2 POP POP JUMP JUMPDEST PUSH1 0x0 PUSH2 0x3DA6 PUSH2 0x3DB7 JUMP JUMPDEST SWAP1 POP PUSH2 0x3DB2 DUP3 DUP3 PUSH2 0x40EE JUMP JUMPDEST SWAP2 SWAP1 POP JUMP JUMPDEST PUSH1 0x0 PUSH1 0x40 MLOAD SWAP1 POP SWAP1 JUMP JUMPDEST PUSH1 0x0 PUSH8 0xFFFFFFFFFFFFFFFF DUP3 GT ISZERO PUSH2 0x3DDC JUMPI PUSH2 0x3DDB PUSH2 0x4253 JUMP JUMPDEST JUMPDEST PUSH1 0x20 DUP3 MUL SWAP1 POP PUSH1 0x20 DUP2 ADD SWAP1 POP SWAP2 SWAP1 POP JUMP JUMPDEST PUSH1 0x0 PUSH8 0xFFFFFFFFFFFFFFFF DUP3 GT ISZERO PUSH2 0x3E08 JUMPI PUSH2 0x3E07 PUSH2 0x4253 JUMP JUMPDEST JUMPDEST PUSH2 0x3E11 DUP3 PUSH2 0x42A0 JUMP JUMPDEST SWAP1 POP PUSH1 0x20 DUP2 ADD SWAP1 POP SWAP2 SWAP1 POP JUMP JUMPDEST PUSH1 0x0 DUP2 SWAP1 POP SWAP2 SWAP1 POP JUMP JUMPDEST PUSH1 0x0 DUP2 SWAP1 POP PUSH1 0x20 DUP3 ADD SWAP1 POP SWAP2 SWAP1 POP JUMP JUMPDEST PUSH1 0x0 DUP2 SWAP1 POP PUSH1 0x20 DUP3 ADD SWAP1 POP SWAP2 SWAP1 POP JUMP JUMPDEST PUSH1 0x0 DUP2 MLOAD SWAP1 POP SWAP2 SWAP1 POP JUMP JUMPDEST PUSH1 0x0 DUP2 MLOAD SWAP1 POP SWAP2 SWAP1 POP JUMP JUMPDEST PUSH1 0x0 DUP2 MLOAD SWAP1 POP SWAP2 SWAP1 POP JUMP JUMPDEST PUSH1 0x0 DUP2 MLOAD SWAP1 POP SWAP2 SWAP1 POP JUMP JUMPDEST PUSH1 0x0 PUSH1 0x20 DUP3 ADD SWAP1 POP SWAP2 SWAP1 POP JUMP JUMPDEST PUSH1 0x0 PUSH1 0x20 DUP3 ADD SWAP1 POP SWAP2 SWAP1 POP JUMP JUMPDEST PUSH1 0x0 PUSH1 0x20 DUP3 ADD SWAP1 POP SWAP2 SWAP1 POP JUMP JUMPDEST PUSH1 0x0 DUP3 DUP3 MSTORE PUSH1 0x20 DUP3 ADD SWAP1 POP SWAP3 SWAP2 POP POP JUMP JUMPDEST PUSH1 0x0 DUP3 DUP3 MSTORE PUSH1 0x20 DUP3 ADD SWAP1 POP SWAP3 SWAP2 POP POP JUMP JUMPDEST PUSH1 0x0 DUP3 DUP3 MSTORE PUSH1 0x20 DUP3 ADD SWAP1 POP SWAP3 SWAP2 POP POP JUMP JUMPDEST PUSH1 0x0 DUP3 DUP3 MSTORE PUSH1 0x20 DUP3 ADD SWAP1 POP SWAP3 SWAP2 POP POP JUMP JUMPDEST PUSH1 0x0 DUP3 DUP3 MSTORE PUSH1 0x20 DUP3 ADD SWAP1 POP SWAP3 SWAP2 POP POP JUMP JUMPDEST PUSH1 0x0 DUP3 DUP3 MSTORE PUSH1 0x20 DUP3 ADD SWAP1 POP SWAP3 SWAP2 POP POP JUMP JUMPDEST PUSH1 0x0 PUSH2 0x3F10 PUSH1 0x20 DUP5 ADD DUP5 PUSH2 0x2F46 JUMP JUMPDEST SWAP1 POP SWAP3 SWAP2 POP POP JUMP JUMPDEST PUSH1 0x0 PUSH2 0x3F23 DUP3 PUSH2 0x402D JUMP JUMPDEST SWAP2 POP PUSH2 0x3F2E DUP4 PUSH2 0x402D JUMP JUMPDEST SWAP3 POP DUP3 PUSH32 0xFFFFFFFFFFFFFFFFFFFFFFFFFFFFFFFFFFFFFFFFFFFFFFFFFFFFFFFFFFFFFFFF SUB DUP3 GT ISZERO PUSH2 0x3F63 JUMPI PUSH2 0x3F62 PUSH2 0x4168 JUMP JUMPDEST JUMPDEST DUP3 DUP3 ADD SWAP1 POP SWAP3 SWAP2 POP POP JUMP JUMPDEST PUSH1 0x0 PUSH2 0x3F79 DUP3 PUSH2 0x402D JUMP JUMPDEST SWAP2 POP PUSH2 0x3F84 DUP4 PUSH2 0x402D JUMP JUMPDEST SWAP3 POP DUP3 PUSH2 0x3F94 JUMPI PUSH2 0x3F93 PUSH2 0x4197 JUMP JUMPDEST JUMPDEST DUP3 DUP3 DIV SWAP1 POP SWAP3 SWAP2 POP POP JUMP JUMPDEST PUSH1 0x0 PUSH2 0x3FAA DUP3 PUSH2 0x402D JUMP JUMPDEST SWAP2 POP PUSH2 0x3FB5 DUP4 PUSH2 0x402D JUMP JUMPDEST SWAP3 POP DUP3 DUP3 LT ISZERO PUSH2 0x3FC8 JUMPI PUSH2 0x3FC7 PUSH2 0x4168 JUMP JUMPDEST JUMPDEST DUP3 DUP3 SUB SWAP1 POP SWAP3 SWAP2 POP POP JUMP JUMPDEST PUSH1 0x0 PUSH2 0x3FDE DUP3 PUSH2 0x400D JUMP JUMPDEST SWAP1 POP SWAP2 SWAP1 POP JUMP JUMPDEST PUSH1 0x0 DUP2 ISZERO ISZERO SWAP1 POP SWAP2 SWAP1 POP JUMP JUMPDEST PUSH1 0x0 DUP2 SWAP1 POP SWAP2 SWAP1 POP JUMP JUMPDEST PUSH1 0x0 PUSH2 0x4006 DUP3 PUSH2 0x3FD3 JUMP JUMPDEST SWAP1 POP SWAP2 SWAP1 POP JUMP JUMPDEST PUSH1 0x0 PUSH20 0xFFFFFFFFFFFFFFFFFFFFFFFFFFFFFFFFFFFFFFFF DUP3 AND SWAP1 POP SWAP2 SWAP1 POP JUMP JUMPDEST PUSH1 0x0 DUP2 SWAP1 POP SWAP2 SWAP1 POP JUMP JUMPDEST PUSH1 0x0 PUSH1 0xFF DUP3 AND SWAP1 POP SWAP2 SWAP1 POP JUMP JUMPDEST PUSH1 0x0 PUSH2 0x404F DUP3 PUSH2 0x4056 JUMP JUMPDEST SWAP1 POP SWAP2 SWAP1 POP JUMP JUMPDEST PUSH1 0x0 PUSH2 0x4061 DUP3 PUSH2 0x4068 JUMP JUMPDEST SWAP1 POP SWAP2 SWAP1 POP JUMP JUMPDEST PUSH1 0x0 PUSH2 0x4073 DUP3 PUSH2 0x400D JUMP JUMPDEST SWAP1 POP SWAP2 SWAP1 POP JUMP JUMPDEST DUP3 DUP2 DUP4 CALLDATACOPY PUSH1 0x0 DUP4 DUP4 ADD MSTORE POP POP POP JUMP JUMPDEST PUSH1 0x0 JUMPDEST DUP4 DUP2 LT ISZERO PUSH2 0x40A7 JUMPI DUP1 DUP3 ADD MLOAD DUP2 DUP5 ADD MSTORE PUSH1 0x20 DUP2 ADD SWAP1 POP PUSH2 0x408C JUMP JUMPDEST DUP4 DUP2 GT ISZERO PUSH2 0x40B6 JUMPI PUSH1 0x0 DUP5 DUP5 ADD MSTORE JUMPDEST POP POP POP POP JUMP JUMPDEST PUSH1 0x0 PUSH1 0x2 DUP3 DIV SWAP1 POP PUSH1 0x1 DUP3 AND DUP1 PUSH2 0x40D4 JUMPI PUSH1 0x7F DUP3 AND SWAP2 POP JUMPDEST PUSH1 0x20 DUP3 LT DUP2 EQ ISZERO PUSH2 0x40E8 JUMPI PUSH2 0x40E7 PUSH2 0x41C6 JUMP JUMPDEST JUMPDEST POP SWAP2 SWAP1 POP JUMP JUMPDEST PUSH2 0x40F7 DUP3 PUSH2 0x42A0 JUMP JUMPDEST DUP2 ADD DUP2 DUP2 LT PUSH8 0xFFFFFFFFFFFFFFFF DUP3 GT OR ISZERO PUSH2 0x4116 JUMPI PUSH2 0x4115 PUSH2 0x4253 JUMP JUMPDEST JUMPDEST DUP1 PUSH1 0x40 MSTORE POP POP POP JUMP JUMPDEST PUSH1 0x0 PUSH2 0x412A DUP3 PUSH2 0x402D JUMP JUMPDEST SWAP2 POP PUSH32 0xFFFFFFFFFFFFFFFFFFFFFFFFFFFFFFFFFFFFFFFFFFFFFFFFFFFFFFFFFFFFFFFF DUP3 EQ ISZERO PUSH2 0x415D JUMPI PUSH2 0x415C PUSH2 0x4168 JUMP JUMPDEST JUMPDEST PUSH1 0x1 DUP3 ADD SWAP1 POP SWAP2 SWAP1 POP JUMP JUMPDEST PUSH32 0x4E487B7100000000000000000000000000000000000000000000000000000000 PUSH1 0x0 MSTORE PUSH1 0x11 PUSH1 0x4 MSTORE PUSH1 0x24 PUSH1 0x0 REVERT JUMPDEST PUSH32 0x4E487B7100000000000000000000000000000000000000000000000000000000 PUSH1 0x0 MSTORE PUSH1 0x12 PUSH1 0x4 MSTORE PUSH1 0x24 PUSH1 0x0 REVERT JUMPDEST PUSH32 0x4E487B7100000000000000000000000000000000000000000000000000000000 PUSH1 0x0 MSTORE PUSH1 0x22 PUSH1 0x4 MSTORE PUSH1 0x24 PUSH1 0x0 REVERT JUMPDEST PUSH32 0x4E487B7100000000000000000000000000000000000000000000000000000000 PUSH1 0x0 MSTORE PUSH1 0x31 PUSH1 0x4 MSTORE PUSH1 0x24 PUSH1 0x0 REVERT JUMPDEST PUSH32 0x4E487B7100000000000000000000000000000000000000000000000000000000 PUSH1 0x0 MSTORE PUSH1 0x32 PUSH1 0x4 MSTORE PUSH1 0x24 PUSH1 0x0 REVERT JUMPDEST PUSH32 0x4E487B7100000000000000000000000000000000000000000000000000000000 PUSH1 0x0 MSTORE PUSH1 0x41 PUSH1 0x4 MSTORE PUSH1 0x24 PUSH1 0x0 REVERT JUMPDEST PUSH1 0x0 DUP1 REVERT JUMPDEST PUSH1 0x0 DUP1 REVERT JUMPDEST PUSH1 0x0 DUP1 REVERT JUMPDEST PUSH1 0x0 DUP1 REVERT JUMPDEST PUSH1 0x0 DUP1 REVERT JUMPDEST PUSH1 0x0 DUP1 REVERT JUMPDEST PUSH1 0x0 PUSH1 0x1F NOT PUSH1 0x1F DUP4 ADD AND SWAP1 POP SWAP2 SWAP1 POP JUMP JUMPDEST PUSH32 0x434D303500000000000000000000000000000000000000000000000000000000 PUSH1 0x0 DUP3 ADD MSTORE POP JUMP JUMPDEST PUSH32 0x434D303300000000000000000000000000000000000000000000000000000000 PUSH1 0x0 DUP3 ADD MSTORE POP JUMP JUMPDEST PUSH32 0x45524332303A207472616E7366657220746F20746865207A65726F2061646472 PUSH1 0x0 DUP3 ADD MSTORE PUSH32 0x6573730000000000000000000000000000000000000000000000000000000000 PUSH1 0x20 DUP3 ADD MSTORE POP JUMP JUMPDEST PUSH32 0x5061757361626C653A206E6F7420706175736564000000000000000000000000 PUSH1 0x0 DUP3 ADD MSTORE POP JUMP JUMPDEST PUSH32 0x4F776E61626C653A206E6577206F776E657220697320746865207A65726F2061 PUSH1 0x0 DUP3 ADD MSTORE PUSH32 0x6464726573730000000000000000000000000000000000000000000000000000 PUSH1 0x20 DUP3 ADD MSTORE POP JUMP JUMPDEST PUSH32 0x45524332303A20617070726F766520746F20746865207A65726F206164647265 PUSH1 0x0 DUP3 ADD MSTORE PUSH32 0x7373000000000000000000000000000000000000000000000000000000000000 PUSH1 0x20 DUP3 ADD MSTORE POP JUMP JUMPDEST PUSH32 0x434D303600000000000000000000000000000000000000000000000000000000 PUSH1 0x0 DUP3 ADD MSTORE POP JUMP JUMPDEST PUSH32 0x45524332303A20696E73756666696369656E7420616C6C6F77616E6365000000 PUSH1 0x0 DUP3 ADD MSTORE POP JUMP JUMPDEST PUSH32 0x45524332303A207472616E7366657220616D6F756E7420657863656564732062 PUSH1 0x0 DUP3 ADD MSTORE PUSH32 0x616C616E63650000000000000000000000000000000000000000000000000000 PUSH1 0x20 DUP3 ADD MSTORE POP JUMP JUMPDEST PUSH32 0x5061757361626C653A2070617573656400000000000000000000000000000000 PUSH1 0x0 DUP3 ADD MSTORE POP JUMP JUMPDEST PUSH32 0x434D303200000000000000000000000000000000000000000000000000000000 PUSH1 0x0 DUP3 ADD MSTORE POP JUMP JUMPDEST PUSH32 0x4F776E61626C653A2063616C6C6572206973206E6F7420746865206F776E6572 PUSH1 0x0 DUP3 ADD MSTORE POP JUMP JUMPDEST PUSH32 0x434D303100000000000000000000000000000000000000000000000000000000 PUSH1 0x0 DUP3 ADD MSTORE POP JUMP JUMPDEST PUSH32 0x434D303400000000000000000000000000000000000000000000000000000000 PUSH1 0x0 DUP3 ADD MSTORE POP JUMP JUMPDEST PUSH32 0x45524332303A207472616E736665722066726F6D20746865207A65726F206164 PUSH1 0x0 DUP3 ADD MSTORE PUSH32 0x6472657373000000000000000000000000000000000000000000000000000000 PUSH1 0x20 DUP3 ADD MSTORE POP JUMP JUMPDEST PUSH32 0x45524332303A20617070726F76652066726F6D20746865207A65726F20616464 PUSH1 0x0 DUP3 ADD MSTORE PUSH32 0x7265737300000000000000000000000000000000000000000000000000000000 PUSH1 0x20 DUP3 ADD MSTORE POP JUMP JUMPDEST PUSH32 0x45524332303A2064656372656173656420616C6C6F77616E63652062656C6F77 PUSH1 0x0 DUP3 ADD MSTORE PUSH32 0x207A65726F000000000000000000000000000000000000000000000000000000 PUSH1 0x20 DUP3 ADD MSTORE POP JUMP JUMPDEST PUSH2 0x467D DUP2 PUSH2 0x3FD3 JUMP JUMPDEST DUP2 EQ PUSH2 0x4688 JUMPI PUSH1 0x0 DUP1 REVERT JUMPDEST POP JUMP JUMPDEST PUSH2 0x4694 DUP2 PUSH2 0x3FE5 JUMP JUMPDEST DUP2 EQ PUSH2 0x469F JUMPI PUSH1 0x0 DUP1 REVERT JUMPDEST POP JUMP JUMPDEST PUSH2 0x46AB DUP2 PUSH2 0x3FFB JUMP JUMPDEST DUP2 EQ PUSH2 0x46B6 JUMPI PUSH1 0x0 DUP1 REVERT JUMPDEST POP JUMP JUMPDEST PUSH2 0x46C2 DUP2 PUSH2 0x402D JUMP JUMPDEST DUP2 EQ PUSH2 0x46CD JUMPI PUSH1 0x0 DUP1 REVERT JUMPDEST POP JUMP JUMPDEST PUSH2 0x46D9 DUP2 PUSH2 0x4037 JUMP JUMPDEST DUP2 EQ PUSH2 0x46E4 JUMPI PUSH1 0x0 DUP1 REVERT JUMPDEST POP JUMP INVALID LOG2 PUSH5 0x6970667358 0x22 SLT KECCAK256 PUSH25 0xB793FE2ED8F52DE1534E1242F8B4C51BFD054E903FCD230652 SWAP1 0xBD 0xD6 0x26 0xAF LT PUSH5 0x736F6C6343 STOP ADDMOD SMOD STOP CALLER "
		},
		"gasEstimates": {
			"creation": {
				"codeDepositCost": "3641000",
				"executionCost": "infinite",
				"totalCost": "infinite"
			},
			"external": {
				"SNAPSHOOTER_ROLE()": "375",
				"allowance(address,address)": "infinite",
				"approve(address,uint256)": "infinite",
				"balanceOf(address)": "2952",
				"canTransfer(address,address,uint256)": "infinite",
				"contact()": "infinite",
				"decimals()": "425",
				"decreaseAllowance(address,uint256)": "infinite",
				"destroy(address[])": "infinite",
				"detectTransferRestriction(address,address,uint256)": "infinite",
				"getNextSnapshots()": "infinite",
				"identity(address[])": "infinite",
				"increaseAllowance(address,uint256)": "infinite",
				"issue(uint256)": "infinite",
				"messageForTransferRestriction(uint8)": "infinite",
				"name()": "infinite",
				"owner()": "2634",
				"pause()": "infinite",
				"paused()": "2619",
				"reassign(address,address)": "infinite",
				"redeem(uint256)": "infinite",
				"renounceOwnership()": "30531",
				"ruleEngine()": "2732",
				"setContact(string)": "infinite",
				"setMyIdentity(bytes)": "infinite",
				"setRuleEngine(address)": "28301",
				"showMyIdentity()": "infinite",
				"snapshotBalanceOf(uint256,address)": "infinite",
				"snapshotTotalSupply(uint256)": "infinite",
				"symbol()": "infinite",
				"totalSupply()": "2528",
				"transfer(address,uint256)": "infinite",
				"transferFrom(address,address,uint256)": "infinite",
				"transferOwnership(address)": "30835",
				"unpause()": "infinite"
			}
		},
		"methodIdentifiers": {
			"SNAPSHOOTER_ROLE()": "246b72ec",
			"allowance(address,address)": "dd62ed3e",
			"approve(address,uint256)": "095ea7b3",
			"balanceOf(address)": "70a08231",
			"canTransfer(address,address,uint256)": "e46638e6",
			"contact()": "33a8c45a",
			"decimals()": "313ce567",
			"decreaseAllowance(address,uint256)": "a457c2d7",
			"destroy(address[])": "c6786e5a",
			"detectTransferRestriction(address,address,uint256)": "d4ce1415",
			"getNextSnapshots()": "fb78ed40",
			"identity(address[])": "2613169c",
			"increaseAllowance(address,uint256)": "39509351",
			"issue(uint256)": "cc872b66",
			"messageForTransferRestriction(uint8)": "7f4ab1dd",
			"name()": "06fdde03",
			"owner()": "8da5cb5b",
			"pause()": "8456cb59",
			"paused()": "5c975abb",
			"reassign(address,address)": "5fff8cd3",
			"redeem(uint256)": "db006a75",
			"renounceOwnership()": "715018a6",
			"ruleEngine()": "fcf196b4",
			"setContact(string)": "8140d0dc",
			"setMyIdentity(bytes)": "630e327d",
			"setRuleEngine(address)": "a4a0a301",
			"showMyIdentity()": "9fcaff50",
			"snapshotBalanceOf(uint256,address)": "634daf76",
			"snapshotTotalSupply(uint256)": "5ee7a942",
			"symbol()": "95d89b41",
			"totalSupply()": "18160ddd",
			"transfer(address,uint256)": "a9059cbb",
			"transferFrom(address,address,uint256)": "23b872dd",
			"transferOwnership(address)": "f2fde38b",
			"unpause()": "3f4ba83a"
		}
	},
	"abi": [
		{
			"inputs": [
				{
					"internalType": "string",
					"name": "_name",
					"type": "string"
				},
				{
					"internalType": "string",
					"name": "_symbol",
					"type": "string"
				},
				{
					"internalType": "string",
					"name": "_contact",
					"type": "string"
				}
			],
			"stateMutability": "nonpayable",
			"type": "constructor"
		},
		{
			"anonymous": false,
			"inputs": [
				{
					"indexed": true,
					"internalType": "address",
					"name": "owner",
					"type": "address"
				},
				{
					"indexed": true,
					"internalType": "address",
					"name": "spender",
					"type": "address"
				},
				{
					"indexed": false,
					"internalType": "uint256",
					"name": "value",
					"type": "uint256"
				}
			],
			"name": "Approval",
			"type": "event"
		},
		{
			"anonymous": false,
			"inputs": [
				{
					"indexed": false,
					"internalType": "string",
					"name": "contact",
					"type": "string"
				}
			],
			"name": "LogContactSet",
			"type": "event"
		},
		{
			"anonymous": false,
			"inputs": [
				{
					"indexed": false,
					"internalType": "address[]",
					"name": "shareholders",
					"type": "address[]"
				}
			],
			"name": "LogDestroyed",
			"type": "event"
		},
		{
			"anonymous": false,
			"inputs": [
				{
					"indexed": false,
					"internalType": "uint256",
					"name": "value",
					"type": "uint256"
				}
			],
			"name": "LogIssued",
			"type": "event"
		},
		{
			"anonymous": false,
			"inputs": [
				{
					"indexed": true,
					"internalType": "address",
					"name": "original",
					"type": "address"
				},
				{
					"indexed": true,
					"internalType": "address",
					"name": "replacement",
					"type": "address"
				},
				{
					"indexed": false,
					"internalType": "uint256",
					"name": "value",
					"type": "uint256"
				}
			],
			"name": "LogReassigned",
			"type": "event"
		},
		{
			"anonymous": false,
			"inputs": [
				{
					"indexed": false,
					"internalType": "uint256",
					"name": "value",
					"type": "uint256"
				}
			],
			"name": "LogRedeemed",
			"type": "event"
		},
		{
			"anonymous": false,
			"inputs": [
				{
					"indexed": true,
					"internalType": "address",
					"name": "newRuleEngine",
					"type": "address"
				}
			],
			"name": "LogRuleEngineSet",
			"type": "event"
		},
		{
			"anonymous": false,
			"inputs": [
				{
					"indexed": true,
					"internalType": "address",
					"name": "previousOwner",
					"type": "address"
				},
				{
					"indexed": true,
					"internalType": "address",
					"name": "newOwner",
					"type": "address"
				}
			],
			"name": "OwnershipTransferred",
			"type": "event"
		},
		{
			"anonymous": false,
			"inputs": [
				{
					"indexed": false,
					"internalType": "address",
					"name": "account",
					"type": "address"
				}
			],
			"name": "Paused",
			"type": "event"
		},
		{
			"anonymous": false,
			"inputs": [
				{
					"indexed": true,
					"internalType": "uint256",
					"name": "oldTime",
					"type": "uint256"
				},
				{
					"indexed": true,
					"internalType": "uint256",
					"name": "newTime",
					"type": "uint256"
				}
			],
			"name": "SnapshotSchedule",
			"type": "event"
		},
		{
			"anonymous": false,
			"inputs": [
				{
					"indexed": true,
					"internalType": "uint256",
					"name": "time",
					"type": "uint256"
				}
			],
			"name": "SnapshotUnschedule",
			"type": "event"
		},
		{
			"anonymous": false,
			"inputs": [
				{
					"indexed": true,
					"internalType": "address",
					"name": "from",
					"type": "address"
				},
				{
					"indexed": true,
					"internalType": "address",
					"name": "to",
					"type": "address"
				},
				{
					"indexed": false,
					"internalType": "uint256",
					"name": "value",
					"type": "uint256"
				}
			],
			"name": "Transfer",
			"type": "event"
		},
		{
			"anonymous": false,
			"inputs": [
				{
					"indexed": false,
					"internalType": "address",
					"name": "account",
					"type": "address"
				}
			],
			"name": "Unpaused",
			"type": "event"
		},
		{
			"inputs": [],
			"name": "SNAPSHOOTER_ROLE",
			"outputs": [
				{
					"internalType": "bytes32",
					"name": "",
					"type": "bytes32"
				}
			],
			"stateMutability": "view",
			"type": "function"
		},
		{
			"inputs": [
				{
					"internalType": "address",
					"name": "owner",
					"type": "address"
				},
				{
					"internalType": "address",
					"name": "spender",
					"type": "address"
				}
			],
			"name": "allowance",
			"outputs": [
				{
					"internalType": "uint256",
					"name": "",
					"type": "uint256"
				}
			],
			"stateMutability": "view",
			"type": "function"
		},
		{
			"inputs": [
				{
					"internalType": "address",
					"name": "_spender",
					"type": "address"
				},
				{
					"internalType": "uint256",
					"name": "_value",
					"type": "uint256"
				}
			],
			"name": "approve",
			"outputs": [
				{
					"internalType": "bool",
					"name": "",
					"type": "bool"
				}
			],
			"stateMutability": "nonpayable",
			"type": "function"
		},
		{
			"inputs": [
				{
					"internalType": "address",
					"name": "account",
					"type": "address"
				}
			],
			"name": "balanceOf",
			"outputs": [
				{
					"internalType": "uint256",
					"name": "",
					"type": "uint256"
				}
			],
			"stateMutability": "view",
			"type": "function"
		},
		{
			"inputs": [
				{
					"internalType": "address",
					"name": "_from",
					"type": "address"
				},
				{
					"internalType": "address",
					"name": "_to",
					"type": "address"
				},
				{
					"internalType": "uint256",
					"name": "_value",
					"type": "uint256"
				}
			],
			"name": "canTransfer",
			"outputs": [
				{
					"internalType": "bool",
					"name": "",
					"type": "bool"
				}
			],
			"stateMutability": "view",
			"type": "function"
		},
		{
			"inputs": [],
			"name": "contact",
			"outputs": [
				{
					"internalType": "string",
					"name": "",
					"type": "string"
				}
			],
			"stateMutability": "view",
			"type": "function"
		},
		{
			"inputs": [],
			"name": "decimals",
			"outputs": [
				{
					"internalType": "uint8",
					"name": "",
					"type": "uint8"
				}
			],
			"stateMutability": "pure",
			"type": "function"
		},
		{
			"inputs": [
				{
					"internalType": "address",
					"name": "_spender",
					"type": "address"
				},
				{
					"internalType": "uint256",
					"name": "_subtractedValue",
					"type": "uint256"
				}
			],
			"name": "decreaseAllowance",
			"outputs": [
				{
					"internalType": "bool",
					"name": "",
					"type": "bool"
				}
			],
			"stateMutability": "nonpayable",
			"type": "function"
		},
		{
			"inputs": [
				{
					"internalType": "address[]",
					"name": "shareholders",
					"type": "address[]"
				}
			],
			"name": "destroy",
			"outputs": [],
			"stateMutability": "nonpayable",
			"type": "function"
		},
		{
			"inputs": [
				{
					"internalType": "address",
					"name": "_from",
					"type": "address"
				},
				{
					"internalType": "address",
					"name": "_to",
					"type": "address"
				},
				{
					"internalType": "uint256",
					"name": "_value",
					"type": "uint256"
				}
			],
			"name": "detectTransferRestriction",
			"outputs": [
				{
					"internalType": "uint8",
					"name": "",
					"type": "uint8"
				}
			],
			"stateMutability": "view",
			"type": "function"
		},
		{
			"inputs": [],
			"name": "getNextSnapshots",
			"outputs": [
				{
					"internalType": "uint256[]",
					"name": "",
					"type": "uint256[]"
				}
			],
			"stateMutability": "view",
			"type": "function"
		},
		{
			"inputs": [
				{
					"internalType": "address[]",
					"name": "shareholder",
					"type": "address[]"
				}
			],
			"name": "identity",
			"outputs": [
				{
					"internalType": "bytes[]",
					"name": "",
					"type": "bytes[]"
				}
			],
			"stateMutability": "view",
			"type": "function"
		},
		{
			"inputs": [
				{
					"internalType": "address",
					"name": "_spender",
					"type": "address"
				},
				{
					"internalType": "uint256",
					"name": "_addedValue",
					"type": "uint256"
				}
			],
			"name": "increaseAllowance",
			"outputs": [
				{
					"internalType": "bool",
					"name": "",
					"type": "bool"
				}
			],
			"stateMutability": "nonpayable",
			"type": "function"
		},
		{
			"inputs": [
				{
					"internalType": "uint256",
					"name": "_value",
					"type": "uint256"
				}
			],
			"name": "issue",
			"outputs": [],
			"stateMutability": "nonpayable",
			"type": "function"
		},
		{
			"inputs": [
				{
					"internalType": "uint8",
					"name": "_restrictionCode",
					"type": "uint8"
				}
			],
			"name": "messageForTransferRestriction",
			"outputs": [
				{
					"internalType": "string",
					"name": "",
					"type": "string"
				}
			],
			"stateMutability": "view",
			"type": "function"
		},
		{
			"inputs": [],
			"name": "name",
			"outputs": [
				{
					"internalType": "string",
					"name": "",
					"type": "string"
				}
			],
			"stateMutability": "view",
			"type": "function"
		},
		{
			"inputs": [],
			"name": "owner",
			"outputs": [
				{
					"internalType": "address",
					"name": "",
					"type": "address"
				}
			],
			"stateMutability": "view",
			"type": "function"
		},
		{
			"inputs": [],
			"name": "pause",
			"outputs": [],
			"stateMutability": "nonpayable",
			"type": "function"
		},
		{
			"inputs": [],
			"name": "paused",
			"outputs": [
				{
					"internalType": "bool",
					"name": "",
					"type": "bool"
				}
			],
			"stateMutability": "view",
			"type": "function"
		},
		{
			"inputs": [
				{
					"internalType": "address",
					"name": "original",
					"type": "address"
				},
				{
					"internalType": "address",
					"name": "replacement",
					"type": "address"
				}
			],
			"name": "reassign",
			"outputs": [],
			"stateMutability": "nonpayable",
			"type": "function"
		},
		{
			"inputs": [
				{
					"internalType": "uint256",
					"name": "_value",
					"type": "uint256"
				}
			],
			"name": "redeem",
			"outputs": [],
			"stateMutability": "nonpayable",
			"type": "function"
		},
		{
			"inputs": [],
			"name": "renounceOwnership",
			"outputs": [],
			"stateMutability": "nonpayable",
			"type": "function"
		},
		{
			"inputs": [],
			"name": "ruleEngine",
			"outputs": [
				{
					"internalType": "contract IRuleEngine",
					"name": "",
					"type": "address"
				}
			],
			"stateMutability": "view",
			"type": "function"
		},
		{
			"inputs": [
				{
					"internalType": "string",
					"name": "_contact",
					"type": "string"
				}
			],
			"name": "setContact",
			"outputs": [],
			"stateMutability": "nonpayable",
			"type": "function"
		},
		{
			"inputs": [
				{
					"internalType": "bytes",
					"name": "_identity",
					"type": "bytes"
				}
			],
			"name": "setMyIdentity",
			"outputs": [],
			"stateMutability": "nonpayable",
			"type": "function"
		},
		{
			"inputs": [
				{
					"internalType": "contract IRuleEngine",
					"name": "_ruleEngine",
					"type": "address"
				}
			],
			"name": "setRuleEngine",
			"outputs": [],
			"stateMutability": "nonpayable",
			"type": "function"
		},
		{
			"inputs": [],
			"name": "showMyIdentity",
			"outputs": [
				{
					"internalType": "bytes",
					"name": "",
					"type": "bytes"
				}
			],
			"stateMutability": "view",
			"type": "function"
		},
		{
			"inputs": [
				{
					"internalType": "uint256",
					"name": "time",
					"type": "uint256"
				},
				{
					"internalType": "address",
					"name": "owner",
					"type": "address"
				}
			],
			"name": "snapshotBalanceOf",
			"outputs": [
				{
					"internalType": "uint256",
					"name": "",
					"type": "uint256"
				}
			],
			"stateMutability": "view",
			"type": "function"
		},
		{
			"inputs": [
				{
					"internalType": "uint256",
					"name": "time",
					"type": "uint256"
				}
			],
			"name": "snapshotTotalSupply",
			"outputs": [
				{
					"internalType": "uint256",
					"name": "",
					"type": "uint256"
				}
			],
			"stateMutability": "view",
			"type": "function"
		},
		{
			"inputs": [],
			"name": "symbol",
			"outputs": [
				{
					"internalType": "string",
					"name": "",
					"type": "string"
				}
			],
			"stateMutability": "view",
			"type": "function"
		},
		{
			"inputs": [],
			"name": "totalSupply",
			"outputs": [
				{
					"internalType": "uint256",
					"name": "",
					"type": "uint256"
				}
			],
			"stateMutability": "view",
			"type": "function"
		},
		{
			"inputs": [
				{
					"internalType": "address",
					"name": "_to",
					"type": "address"
				},
				{
					"internalType": "uint256",
					"name": "_value",
					"type": "uint256"
				}
			],
			"name": "transfer",
			"outputs": [
				{
					"internalType": "bool",
					"name": "",
					"type": "bool"
				}
			],
			"stateMutability": "nonpayable",
			"type": "function"
		},
		{
			"inputs": [
				{
					"internalType": "address",
					"name": "_from",
					"type": "address"
				},
				{
					"internalType": "address",
					"name": "_to",
					"type": "address"
				},
				{
					"internalType": "uint256",
					"name": "_value",
					"type": "uint256"
				}
			],
			"name": "transferFrom",
			"outputs": [
				{
					"internalType": "bool",
					"name": "",
					"type": "bool"
				}
			],
			"stateMutability": "nonpayable",
			"type": "function"
		},
		{
			"inputs": [
				{
					"internalType": "address",
					"name": "newOwner",
					"type": "address"
				}
			],
			"name": "transferOwnership",
			"outputs": [],
			"stateMutability": "nonpayable",
			"type": "function"
		},
		{
			"inputs": [],
			"name": "unpause",
			"outputs": [],
			"stateMutability": "nonpayable",
			"type": "function"
		}
	]
}