{
	"data": {
		"bytecode": {
			"linkReferences": {},
			"object": "608060405260006008553480156200001657600080fd5b5060405162007cfc38038062007cfc83398181016040528101906200003c9190620005fa565b8383816003908051906020019062000056929190620004cc565b5080600490805190602001906200006f929190620004cc565b5050506200009262000086620003fe60201b60201c565b6200040660201b60201c565b6040518060400160405280600f81526020017f5472616e73666572204661696c65640000000000000000000000000000000000815250603e6000605060ff1681526020019081526020016000209080519060200190620000f4929190620004cc565b506040518060400160405280601381526020017f5472616e73666572207375636365737366756c00000000000000000000000000815250603e6000605160ff168152602001908152602001600020908051906020019062000157929190620004cc565b506040518060400160405280601281526020017f496e73756666696369656e742046756e64730000000000000000000000000000815250603e6000605460ff1681526020019081526020016000209080519060200190620001ba929190620004cc565b506040518060400160405280600881526020017f4e6f2046756e6473000000000000000000000000000000000000000000000000815250603e6000605960ff16815260200190815260200160002090805190602001906200021d929190620004cc565b506040518060400160405280601781526020017f5265636569766572206e6f74206964656e746966696564000000000000000000815250603e6000605a60ff168152602001908152602001600020908051906020019062000280929190620004cc565b506040518060400160405280600f81526020017f5472616e73666572205061757365640000000000000000000000000000000000815250603e6000604260ff1681526020019081526020016000209080519060200190620002e3929190620004cc565b506000603f60006101000a81548160ff02191690831515021790555081604a60000190805190602001906200031a929190620004cc565b5080604a600101908051906020019062000336929190620004cc565b5033604860006101000a81548173ffffffffffffffffffffffffffffffffffffffff021916908373ffffffffffffffffffffffffffffffffffffffff16021790555033604660006101000a81548173ffffffffffffffffffffffffffffffffffffffff021916908373ffffffffffffffffffffffffffffffffffffffff1602179055507fb013723207a7de0f794018980b89eef7e65f56ed634098a03df4dcb95d6348fd8282604051620003ec92919062000729565b60405180910390a15050505062000904565b600033905090565b6000603d60009054906101000a900473ffffffffffffffffffffffffffffffffffffffff16905081603d60006101000a81548173ffffffffffffffffffffffffffffffffffffffff021916908373ffffffffffffffffffffffffffffffffffffffff1602179055508173ffffffffffffffffffffffffffffffffffffffff168173ffffffffffffffffffffffffffffffffffffffff167f8be0079c531659141344cd1fd0a4f28419497f9722a3daafe3b4186f6b6457e060405160405180910390a35050565b828054620004da9062000815565b90600052602060002090601f016020900481019282620004fe57600085556200054a565b82601f106200051957805160ff19168380011785556200054a565b828001600101855582156200054a579182015b82811115620005495782518255916020019190600101906200052c565b5b5090506200055991906200055d565b5090565b5b80821115620005785760008160009055506001016200055e565b5090565b6000620005936200058d846200078d565b62000764565b905082815260208101848484011115620005b257620005b1620008e4565b5b620005bf848285620007df565b509392505050565b600082601f830112620005df57620005de620008df565b5b8151620005f18482602086016200057c565b91505092915050565b60008060008060808587031215620006175762000616620008ee565b5b600085015167ffffffffffffffff811115620006385762000637620008e9565b5b6200064687828801620005c7565b945050602085015167ffffffffffffffff8111156200066a5762000669620008e9565b5b6200067887828801620005c7565b935050604085015167ffffffffffffffff8111156200069c576200069b620008e9565b5b620006aa87828801620005c7565b925050606085015167ffffffffffffffff811115620006ce57620006cd620008e9565b5b620006dc87828801620005c7565b91505092959194509250565b6000620006f582620007c3565b620007018185620007ce565b935062000713818560208601620007df565b6200071e81620008f3565b840191505092915050565b60006040820190508181036000830152620007458185620006e8565b905081810360208301526200075b8184620006e8565b90509392505050565b60006200077062000783565b90506200077e82826200084b565b919050565b6000604051905090565b600067ffffffffffffffff821115620007ab57620007aa620008b0565b5b620007b682620008f3565b9050602081019050919050565b600081519050919050565b600082825260208201905092915050565b60005b83811015620007ff578082015181840152602081019050620007e2565b838111156200080f576000848401525b50505050565b600060028204905060018216806200082e57607f821691505b6020821081141562000845576200084462000881565b5b50919050565b6200085682620008f3565b810181811067ffffffffffffffff82111715620008785762000877620008b0565b5b80604052505050565b7f4e487b7100000000000000000000000000000000000000000000000000000000600052602260045260246000fd5b7f4e487b7100000000000000000000000000000000000000000000000000000000600052604160045260246000fd5b600080fd5b600080fd5b600080fd5b600080fd5b6000601f19601f8301169050919050565b6173e880620009146000396000f3fe608060405234801561001057600080fd5b50600436106103995760003560e01c806388d695b2116101e9578063ccace0b01161010f578063dd62ed3e116100ad578063f2fde38b1161007c578063f2fde38b14610aaa578063f87c080914610ac6578063fb78ed4014610ae4578063fcf196b414610b0257610399565b8063dd62ed3e146109fc578063e20c35e514610a2c578063e235835114610a5c578063e46638e614610a7a57610399565b8063d4ce1415116100e9578063d4ce141514610974578063d635d66e146109a4578063db006a75146109c2578063dcbf4305146109de57610399565b8063ccace0b014610909578063cff688f314610925578063d21268ef1461094457610399565b8063a69ee24f11610187578063b71afb0911610156578063b71afb0914610899578063c0ee0b8a146108b5578063c6786e5a146108d1578063cc872b66146108ed57610399565b8063a69ee24f14610813578063a9059cbb1461082f578063ab377daa1461085f578063ae6f1f321461088f57610399565b80639fcaff50116101c35780639fcaff501461078d578063a312e155146107ab578063a457c2d7146107c7578063a4a0a301146107f757610399565b806388d695b2146107355780638da5cb5b1461075157806395d89b411461076f57610399565b806340b9c28a116102ce578063699798bb1161026c578063715018a61161023b578063715018a6146106d55780637f4ab1dd146106df57806382e0fbac1461070f5780638456cb591461072b57610399565b8063699798bb146106635780636c11c21c1461066d57806370a082311461068957806370ea07b8146106b957610399565b80635dc952f3116102a85780635dc952f3146105c85780635ee7a942146105e75780635fff8cd314610617578063634daf761461063357610399565b806340b9c28a146105705780634cd12dd71461058e5780635c975abb146105aa57610399565b8063246b72ec1161033b5780633013ce29116103155780633013ce29146104fa578063313ce5671461051857806339509351146105365780633f4ba83a1461056657610399565b8063246b72ec146104905780632613169c146104ae57806327ac0c58146104de57610399565b80630ff8cf9b116103775780630ff8cf9b1461040857806310b3b1591461042657806318160ddd1461044257806323b872dd1461046057610399565b8063067a8a701461039e57806306fdde03146103ba578063095ea7b3146103d8575b600080fd5b6103b860048036038101906103b39190615723565b610b20565b005b6103c2610bdc565b6040516103cf919061630d565b60405180910390f35b6103f260048036038101906103ed9190615723565b610c6e565b6040516103ff9190616286565b60405180910390f35b610410610c8a565b60405161041d91906166a6565b60405180910390f35b610440600480360381019061043b9190615623565b610c90565b005b61044a610cdc565b60405161045791906166a6565b60405180910390f35b61047a60048036038101906104759190615690565b610ce6565b6040516104879190616286565b60405180910390f35b610498611003565b6040516104a591906162a1565b60405180910390f35b6104c860048036038101906104c3919061581f565b611027565b6040516104d59190616242565b60405180910390f35b6104f860048036038101906104f391906155f6565b611041565b005b610502611055565b60405161050f91906162f2565b60405180910390f35b61052061107b565b60405161052d91906166ea565b60405180910390f35b610550600480360381019061054b9190615723565b611080565b60405161055d9190616286565b60405180910390f35b61056e61109c565b005b61057861111b565b604051610585919061617c565b60405180910390f35b6105a860048036038101906105a3919061581f565b61114d565b005b6105b26111ea565b6040516105bf9190616286565b60405180910390f35b6105d0611201565b6040516105de92919061632f565b60405180910390f35b61060160048036038101906105fc9190615a73565b61132e565b60405161060e91906166a6565b60405180910390f35b610631600480360381019061062c9190615650565b61135f565b005b61064d60048036038101906106489190615acd565b61189e565b60405161065a91906166a6565b60405180910390f35b61066b61190e565b005b610687600480360381019061068291906155f6565b61195a565b005b6106a3600480360381019061069e91906155f6565b6119a6565b6040516106b091906166a6565b60405180910390f35b6106d360048036038101906106ce91906158e0565b6119ee565b005b6106dd611ac0565b005b6106f960048036038101906106f49190615b4d565b611ad4565b604051610706919061630d565b60405180910390f35b610729600480360381019061072491906159fb565b611cf7565b005b610733611d84565b005b61074f600480360381019061074a9190615868565b611e03565b005b6107596120f3565b604051610766919061617c565b60405180910390f35b61077761211d565b604051610784919061630d565b60405180910390f35b6107956121af565b6040516107a291906162bc565b60405180910390f35b6107c560048036038101906107c09190615a73565b612203565b005b6107e160048036038101906107dc9190615723565b612285565b6040516107ee9190616286565b60405180910390f35b610811600480360381019061080c9190615985565b6122a1565b005b61082d60048036038101906108289190615a73565b612330565b005b61084960048036038101906108449190615723565b6124e8565b6040516108569190616286565b60405180910390f35b61087960048036038101906108749190615a73565b612803565b604051610886919061617c565b60405180910390f35b610897612842565b005b6108b360048036038101906108ae91906156e3565b61288e565b005b6108cf60048036038101906108ca9190615763565b612930565b005b6108eb60048036038101906108e691906157d2565b612ae5565b005b61090760048036038101906109029190615a73565b612e46565b005b610923600480360381019061091e91906155f6565b612eff565b005b61092d612f4b565b60405161093b92919061632f565b60405180910390f35b61095e60048036038101906109599190615b0d565b61306d565b60405161096b91906166a6565b60405180910390f35b61098e60048036038101906109899190615690565b6130f6565b60405161099b91906166ea565b60405180910390f35b6109ac61329f565b6040516109b99190616264565b60405180910390f35b6109dc60048036038101906109d79190615a73565b6132f7565b005b6109e6613454565b6040516109f3919061617c565b60405180910390f35b610a166004803603810190610a119190615650565b613486565b604051610a2391906166a6565b60405180910390f35b610a466004803603810190610a419190615a73565b61350d565b604051610a5391906166a6565b60405180910390f35b610a64613594565b604051610a719190616286565b60405180910390f35b610a946004803603810190610a8f9190615690565b6137e8565b604051610aa19190616286565b60405180910390f35b610ac46004803603810190610abf91906155f6565b613991565b005b610ace613a15565b604051610adb919061617c565b60405180910390f35b610aec613a2c565b604051610af99190616264565b60405180910390f35b610b0a613a84565b604051610b1791906162d7565b60405180910390f35b610b28613aaa565b604960009054906101000a900473ffffffffffffffffffffffffffffffffffffffff1673ffffffffffffffffffffffffffffffffffffffff1663095ea7b383836040518363ffffffff1660e01b8152600401610b859291906161f7565b602060405180830381600087803b158015610b9f57600080fd5b505af1158015610bb3573d6000803e3d6000fd5b505050506040513d601f19601f82011682018060405250810190610bd79190615958565b505050565b606060038054610beb90616b88565b80601f0160208091040260200160405190810160405280929190818152602001828054610c1790616b88565b8015610c645780601f10610c3957610100808354040283529160200191610c64565b820191906000526020600020905b815481529060010190602001808311610c4757829003601f168201915b5050505050905090565b6000610c78613b28565b610c828383613b72565b905092915050565b60445481565b610c98613aaa565b80604960006101000a81548173ffffffffffffffffffffffffffffffffffffffff021916908373ffffffffffffffffffffffffffffffffffffffff16021790555050565b6000600254905090565b6000826000604260008373ffffffffffffffffffffffffffffffffffffffff1673ffffffffffffffffffffffffffffffffffffffff16815260200190815260200160002060009054906101000a900460c01b77ffffffffffffffffffffffffffffffffffffffffffffffff19161415610d94576040517f08c379a0000000000000000000000000000000000000000000000000000000008152600401610d8b90616546565b60405180910390fd5b610d9c613b28565b600073ffffffffffffffffffffffffffffffffffffffff16604360009054906101000a900473ffffffffffffffffffffffffffffffffffffffff1673ffffffffffffffffffffffffffffffffffffffff1614610ee157604360009054906101000a900473ffffffffffffffffffffffffffffffffffffffff1673ffffffffffffffffffffffffffffffffffffffff1663c6946a128686866040518463ffffffff1660e01b8152600401610e51939291906161c0565b60206040518083038186803b158015610e6957600080fd5b505afa158015610e7d573d6000803e3d6000fd5b505050506040513d601f19601f82011682018060405250810190610ea19190615958565b610ee0576040517f08c379a0000000000000000000000000000000000000000000000000000000008152600401610ed790616366565b60405180910390fd5b5b604160008573ffffffffffffffffffffffffffffffffffffffff1673ffffffffffffffffffffffffffffffffffffffff16815260200190815260200160002060009054906101000a900460ff16610fee576001604160008673ffffffffffffffffffffffffffffffffffffffff1673ffffffffffffffffffffffffffffffffffffffff16815260200190815260200160002060006101000a81548160ff0219169083151502179055506040849080600181540180825580915050600190039060005260206000200160009091909190916101000a81548173ffffffffffffffffffffffffffffffffffffffff021916908373ffffffffffffffffffffffffffffffffffffffff1602179055505b610ff9858585613b95565b9150509392505050565b7f809a0fc49fc0600540f1d39e23454e1f6f215bc7505fa22b17c154616570ddef81565b6060611031613aaa565b61103a82613bc4565b9050919050565b611049613aaa565b61105281613991565b50565b604960009054906101000a900473ffffffffffffffffffffffffffffffffffffffff1681565b600090565b600061108a613b28565b6110948383613cfb565b905092915050565b6110a4613454565b73ffffffffffffffffffffffffffffffffffffffff163373ffffffffffffffffffffffffffffffffffffffff1614611111576040517f08c379a000000000000000000000000000000000000000000000000000000000815260040161110890616526565b60405180910390fd5b611119613d32565b565b6000611125613aaa565b604660009054906101000a900473ffffffffffffffffffffffffffffffffffffffff16905090565b611155613aaa565b60005b81518110156111e65760016045600084848151811061117a57611179616d0a565b5b602002602001015173ffffffffffffffffffffffffffffffffffffffff1673ffffffffffffffffffffffffffffffffffffffff16815260200190815260200160002060006101000a81548160ff02191690831515021790555080806111de90616c05565b915050611158565b5050565b6000603f60009054906101000a900460ff16905090565b606080604a600101604a60000181805461121a90616b88565b80601f016020809104026020016040519081016040528092919081815260200182805461124690616b88565b80156112935780601f1061126857610100808354040283529160200191611293565b820191906000526020600020905b81548152906001019060200180831161127657829003601f168201915b505050505091508080546112a690616b88565b80601f01602080910402602001604051908101604052809291908181526020018280546112d290616b88565b801561131f5780601f106112f45761010080835404028352916020019161131f565b820191906000526020600020905b81548152906001019060200180831161130257829003601f168201915b50505050509050915091509091565b600080600061133e846006613d95565b91509150816113545761134f610cdc565b611356565b805b92505050919050565b611367613aaa565b806000604260008373ffffffffffffffffffffffffffffffffffffffff1673ffffffffffffffffffffffffffffffffffffffff16815260200190815260200160002060009054906101000a900460c01b77ffffffffffffffffffffffffffffffffffffffffffffffff19161415611413576040517f08c379a000000000000000000000000000000000000000000000000000000000815260040161140a90616546565b60405180910390fd5b61141b613b28565b600073ffffffffffffffffffffffffffffffffffffffff168373ffffffffffffffffffffffffffffffffffffffff16141561148b576040517f08c379a0000000000000000000000000000000000000000000000000000000008152600401611482906164e6565b60405180910390fd5b600073ffffffffffffffffffffffffffffffffffffffff168273ffffffffffffffffffffffffffffffffffffffff1614156114fb576040517f08c379a00000000000000000000000000000000000000000000000000000000081526004016114f2906164e6565b60405180910390fd5b8173ffffffffffffffffffffffffffffffffffffffff168373ffffffffffffffffffffffffffffffffffffffff16141561156a576040517f08c379a000000000000000000000000000000000000000000000000000000000815260040161156190616466565b60405180910390fd5b60008060008573ffffffffffffffffffffffffffffffffffffffff1673ffffffffffffffffffffffffffffffffffffffff16815260200190815260200160002054905060008114156115f1576040517f08c379a00000000000000000000000000000000000000000000000000000000081526004016115e890616506565b60405180910390fd5b806000808573ffffffffffffffffffffffffffffffffffffffff1673ffffffffffffffffffffffffffffffffffffffff1681526020019081526020016000205461163b9190616908565b6000808573ffffffffffffffffffffffffffffffffffffffff1673ffffffffffffffffffffffffffffffffffffffff1681526020019081526020016000208190555060008060008673ffffffffffffffffffffffffffffffffffffffff1673ffffffffffffffffffffffffffffffffffffffff16815260200190815260200160002081905550604160008473ffffffffffffffffffffffffffffffffffffffff1673ffffffffffffffffffffffffffffffffffffffff16815260200190815260200160002060009054906101000a900460ff166117ce576001604160008573ffffffffffffffffffffffffffffffffffffffff1673ffffffffffffffffffffffffffffffffffffffff16815260200190815260200160002060006101000a81548160ff0219169083151502179055506040839080600181540180825580915050600190039060005260206000200160009091909190916101000a81548173ffffffffffffffffffffffffffffffffffffffff021916908373ffffffffffffffffffffffffffffffffffffffff1602179055505b8273ffffffffffffffffffffffffffffffffffffffff168473ffffffffffffffffffffffffffffffffffffffff167fddf252ad1be2c89b69c2b068fc378daa952ba7f163c4a11628f55a4df523b3ef8360405161182b91906166a6565b60405180910390a38273ffffffffffffffffffffffffffffffffffffffff168473ffffffffffffffffffffffffffffffffffffffff167f9b50bb42c2f723a111ed2b4a02d7963b78fcef409123755e32db36acf004c7218360405161189091906166a6565b60405180910390a350505050565b60008060006118eb85600560008773ffffffffffffffffffffffffffffffffffffffff1673ffffffffffffffffffffffffffffffffffffffff168152602001908152602001600020613d95565b9150915081611902576118fd846119a6565b611904565b805b9250505092915050565b611916613aaa565b6000604660006101000a81548173ffffffffffffffffffffffffffffffffffffffff021916908373ffffffffffffffffffffffffffffffffffffffff160217905550565b611962613aaa565b80604860006101000a81548173ffffffffffffffffffffffffffffffffffffffff021916908373ffffffffffffffffffffffffffffffffffffffff16021790555050565b60008060008373ffffffffffffffffffffffffffffffffffffffff1673ffffffffffffffffffffffffffffffffffffffff168152602001908152602001600020549050919050565b6119f6613aaa565b8051825114611a3a576040517f08c379a0000000000000000000000000000000000000000000000000000000008152600401611a31906163c6565b60405180910390fd5b60005b8251811015611abb57818181518110611a5957611a58616d0a565b5b6020026020010151603e6000858481518110611a7857611a77616d0a565b5b602002602001015160ff1660ff1681526020019081526020016000209080519060200190611aa792919061505a565b508080611ab390616c05565b915050611a3d565b505050565b611ac8613aaa565b611ad26000613dfe565b565b60606000603e60008460ff1660ff1681526020019081526020016000208054611afc90616b88565b905014611bac57603e60008360ff1660ff1681526020019081526020016000208054611b2790616b88565b80601f0160208091040260200160405190810160405280929190818152602001828054611b5390616b88565b8015611ba05780601f10611b7557610100808354040283529160200191611ba0565b820191906000526020600020905b815481529060010190602001808311611b8357829003601f168201915b50505050509050611cf2565b600073ffffffffffffffffffffffffffffffffffffffff16604360009054906101000a900473ffffffffffffffffffffffffffffffffffffffff1673ffffffffffffffffffffffffffffffffffffffff1614611cb957604360009054906101000a900473ffffffffffffffffffffffffffffffffffffffff1673ffffffffffffffffffffffffffffffffffffffff16637f4ab1dd836040518263ffffffff1660e01b8152600401611c5d91906166ea565b60006040518083038186803b158015611c7557600080fd5b505afa158015611c89573d6000803e3d6000fd5b505050506040513d6000823e3d601f19601f82011682018060405250810190611cb291906159b2565b9050611cf2565b6040518060400160405280600c81526020017f756e6b6e6f776e20636f6465000000000000000000000000000000000000000081525090505b919050565b611cff613aaa565b6000825114611d235781604a6000019080519060200190611d2192919061505a565b505b6000815114611d475780604a6001019080519060200190611d4592919061505a565b505b7fb013723207a7de0f794018980b89eef7e65f56ed634098a03df4dcb95d6348fd8282604051611d7892919061632f565b60405180910390a15050565b611d8c613454565b73ffffffffffffffffffffffffffffffffffffffff163373ffffffffffffffffffffffffffffffffffffffff1614611df9576040517f08c379a0000000000000000000000000000000000000000000000000000000008152600401611df090616526565b60405180910390fd5b611e01613ec4565b565b611e0b613b28565b8051825114611e4f576040517f08c379a0000000000000000000000000000000000000000000000000000000008152600401611e46906165a6565b60405180910390fd5b60005b82518110156120ee57600060c01b60426000858481518110611e7757611e76616d0a565b5b602002602001015173ffffffffffffffffffffffffffffffffffffffff1673ffffffffffffffffffffffffffffffffffffffff16815260200190815260200160002060009054906101000a900460c01b77ffffffffffffffffffffffffffffffffffffffffffffffff19161415611f23576040517f08c379a0000000000000000000000000000000000000000000000000000000008152600401611f1a906164c6565b60405180910390fd5b600073ffffffffffffffffffffffffffffffffffffffff16604360009054906101000a900473ffffffffffffffffffffffffffffffffffffffff1673ffffffffffffffffffffffffffffffffffffffff16146120db57604360009054906101000a900473ffffffffffffffffffffffffffffffffffffffff1673ffffffffffffffffffffffffffffffffffffffff1663c6946a1233858481518110611fcb57611fca616d0a565b5b6020026020010151858581518110611fe657611fe5616d0a565b5b60200260200101516040518463ffffffff1660e01b815260040161200c939291906161c0565b60206040518083038186803b15801561202457600080fd5b505afa158015612038573d6000803e3d6000fd5b505050506040513d601f19601f8201168201806040525081019061205c9190615958565b61209b576040517f08c379a000000000000000000000000000000000000000000000000000000000815260040161209290616366565b60405180910390fd5b6120d98382815181106120b1576120b0616d0a565b5b60200260200101518383815181106120cc576120cb616d0a565b5b6020026020010151613f27565b505b80806120e690616c05565b915050611e52565b505050565b6000603d60009054906101000a900473ffffffffffffffffffffffffffffffffffffffff16905090565b60606004805461212c90616b88565b80601f016020809104026020016040519081016040528092919081815260200182805461215890616b88565b80156121a55780601f1061217a576101008083540402835291602001916121a5565b820191906000526020600020905b81548152906001019060200180831161218857829003601f168201915b5050505050905090565b6000604260003373ffffffffffffffffffffffffffffffffffffffff1673ffffffffffffffffffffffffffffffffffffffff16815260200190815260200160002060009054906101000a900460c01b905090565b61220b61111b565b73ffffffffffffffffffffffffffffffffffffffff163373ffffffffffffffffffffffffffffffffffffffff1614612278576040517f08c379a000000000000000000000000000000000000000000000000000000000815260040161226f90616526565b60405180910390fd5b61228181613f4a565b5050565b600061228f613b28565b612299838361403e565b905092915050565b6122a9613aaa565b80604360006101000a81548173ffffffffffffffffffffffffffffffffffffffff021916908373ffffffffffffffffffffffffffffffffffffffff1602179055508073ffffffffffffffffffffffffffffffffffffffff167fc821fee57f621fad293a6960b94de2653a70bcc62506ea4f85149777b45901fe60405160405180910390a250565b612338613aaa565b612340611d84565b60005b6040805490508110156124a457604560006040838154811061236857612367616d0a565b5b9060005260206000200160009054906101000a900473ffffffffffffffffffffffffffffffffffffffff1673ffffffffffffffffffffffffffffffffffffffff1673ffffffffffffffffffffffffffffffffffffffff16815260200190815260200160002060009054906101000a900460ff166124915760006123e9610cdc565b61243060408481548110612400576123ff616d0a565b5b9060005260206000200160009054906101000a900473ffffffffffffffffffffffffffffffffffffffff166119a6565b8461243b919061698f565b612445919061695e565b905061248f6040838154811061245e5761245d616d0a565b5b9060005260206000200160009054906101000a900473ffffffffffffffffffffffffffffffffffffffff1682610b20565b505b808061249c90616c05565b915050612343565b50806044819055507f41cff6f1b8d667e20f991282b47096a71f45d3893a1571d74edc73c48c4d5efe42826040516124dd9291906166c1565b60405180910390a150565b6000826000604260008373ffffffffffffffffffffffffffffffffffffffff1673ffffffffffffffffffffffffffffffffffffffff16815260200190815260200160002060009054906101000a900460c01b77ffffffffffffffffffffffffffffffffffffffffffffffff19161415612596576040517f08c379a000000000000000000000000000000000000000000000000000000000815260040161258d90616546565b60405180910390fd5b61259e613b28565b600073ffffffffffffffffffffffffffffffffffffffff16604360009054906101000a900473ffffffffffffffffffffffffffffffffffffffff1673ffffffffffffffffffffffffffffffffffffffff16146126e357604360009054906101000a900473ffffffffffffffffffffffffffffffffffffffff1673ffffffffffffffffffffffffffffffffffffffff1663c6946a123386866040518463ffffffff1660e01b8152600401612653939291906161c0565b60206040518083038186803b15801561266b57600080fd5b505afa15801561267f573d6000803e3d6000fd5b505050506040513d601f19601f820116820180604052508101906126a39190615958565b6126e2576040517f08c379a00000000000000000000000000000000000000000000000000000000081526004016126d990616366565b60405180910390fd5b5b604160008573ffffffffffffffffffffffffffffffffffffffff1673ffffffffffffffffffffffffffffffffffffffff16815260200190815260200160002060009054906101000a900460ff166127f0576001604160008673ffffffffffffffffffffffffffffffffffffffff1673ffffffffffffffffffffffffffffffffffffffff16815260200190815260200160002060006101000a81548160ff0219169083151502179055506040849080600181540180825580915050600190039060005260206000200160009091909190916101000a81548173ffffffffffffffffffffffffffffffffffffffff021916908373ffffffffffffffffffffffffffffffffffffffff1602179055505b6127fa8484613f27565b91505092915050565b6040818154811061281357600080fd5b906000526020600020016000915054906101000a900473ffffffffffffffffffffffffffffffffffffffff1681565b61284a613aaa565b6000604860006101000a81548173ffffffffffffffffffffffffffffffffffffffff021916908373ffffffffffffffffffffffffffffffffffffffff160217905550565b612896613aaa565b80604260008473ffffffffffffffffffffffffffffffffffffffff1673ffffffffffffffffffffffffffffffffffffffff16815260200190815260200160002060006101000a81548167ffffffffffffffff021916908360c01c02179055507f7d8b5d160431a88659debb1733fecbe3058ff139085f28741b54a1da0fa940f582604051612924919061617c565b60405180910390a15050565b826000604260008373ffffffffffffffffffffffffffffffffffffffff1673ffffffffffffffffffffffffffffffffffffffff16815260200190815260200160002060009054906101000a900460c01b77ffffffffffffffffffffffffffffffffffffffffffffffff191614156129dc576040517f08c379a00000000000000000000000000000000000000000000000000000000081526004016129d390616546565b60405180910390fd5b604960009054906101000a900473ffffffffffffffffffffffffffffffffffffffff1673ffffffffffffffffffffffffffffffffffffffff163373ffffffffffffffffffffffffffffffffffffffff1614612a63576040517fa6c1ff4800000000000000000000000000000000000000000000000000000000815260040160405180910390fd5b612a6b6120f3565b73ffffffffffffffffffffffffffffffffffffffff168473ffffffffffffffffffffffffffffffffffffffff1614612adf57612aa784846140b5565b7f5aa5d4dbb3bdc35fe42446ba12fc59cdd56ee008d5a8159ba5e5fb5834734f6283604051612ad691906166a6565b60405180910390a15b50505050565b612aed613aaa565b60005b82829050811015612e0a57612b036120f3565b73ffffffffffffffffffffffffffffffffffffffff1660408281548110612b2d57612b2c616d0a565b5b9060005260206000200160009054906101000a900473ffffffffffffffffffffffffffffffffffffffff1673ffffffffffffffffffffffffffffffffffffffff161415612baf576040517f08c379a0000000000000000000000000000000000000000000000000000000008152600401612ba690616646565b60405180910390fd5b600080600060408481548110612bc857612bc7616d0a565b5b9060005260206000200160009054906101000a900473ffffffffffffffffffffffffffffffffffffffff1673ffffffffffffffffffffffffffffffffffffffff1673ffffffffffffffffffffffffffffffffffffffff16815260200190815260200160002054905080600080612c3c6120f3565b73ffffffffffffffffffffffffffffffffffffffff1673ffffffffffffffffffffffffffffffffffffffff16815260200190815260200160002054612c819190616908565b600080612c8c6120f3565b73ffffffffffffffffffffffffffffffffffffffff1673ffffffffffffffffffffffffffffffffffffffff16815260200190815260200160002081905550600080600060408581548110612ce357612ce2616d0a565b5b9060005260206000200160009054906101000a900473ffffffffffffffffffffffffffffffffffffffff1673ffffffffffffffffffffffffffffffffffffffff1673ffffffffffffffffffffffffffffffffffffffff16815260200190815260200160002081905550612d546120f3565b73ffffffffffffffffffffffffffffffffffffffff1660408381548110612d7e57612d7d616d0a565b5b9060005260206000200160009054906101000a900473ffffffffffffffffffffffffffffffffffffffff1673ffffffffffffffffffffffffffffffffffffffff167fddf252ad1be2c89b69c2b068fc378daa952ba7f163c4a11628f55a4df523b3ef83604051612dee91906166a6565b60405180910390a3508080612e0290616c05565b915050612af0565b507fef8a7d1d9ed56b75ba2d074c0443d09a07e60674f3f6d4e992e9bda38efe588060408051612e3a9190616220565b60405180910390a15050565b612e4e613aaa565b612e58338261421f565b612e606120f3565b73ffffffffffffffffffffffffffffffffffffffff16600073ffffffffffffffffffffffffffffffffffffffff167fddf252ad1be2c89b69c2b068fc378daa952ba7f163c4a11628f55a4df523b3ef83604051612ebd91906166a6565b60405180910390a37f5aa5d4dbb3bdc35fe42446ba12fc59cdd56ee008d5a8159ba5e5fb5834734f6281604051612ef491906166a6565b60405180910390a150565b612f07613aaa565b80604660006101000a81548173ffffffffffffffffffffffffffffffffffffffff021916908373ffffffffffffffffffffffffffffffffffffffff16021790555050565b604a806000018054612f5c90616b88565b80601f0160208091040260200160405190810160405280929190818152602001828054612f8890616b88565b8015612fd55780601f10612faa57610100808354040283529160200191612fd5565b820191906000526020600020905b815481529060010190602001808311612fb857829003601f168201915b505050505090806001018054612fea90616b88565b80601f016020809104026020016040519081016040528092919081815260200182805461301690616b88565b80156130635780601f1061303857610100808354040283529160200191613063565b820191906000526020600020905b81548152906001019060200180831161304657829003601f168201915b5050505050905082565b600061307761111b565b73ffffffffffffffffffffffffffffffffffffffff163373ffffffffffffffffffffffffffffffffffffffff16146130e4576040517f08c379a00000000000000000000000000000000000000000000000000000000081526004016130db90616526565b60405180910390fd5b6130ee8383614376565b905092915050565b60006131006111ea565b1561310e5760429050613298565b6000604260008573ffffffffffffffffffffffffffffffffffffffff1673ffffffffffffffffffffffffffffffffffffffff16815260200190815260200160002060009054906101000a900460c01b77ffffffffffffffffffffffffffffffffffffffffffffffff1916141561318757605a9050613298565b600073ffffffffffffffffffffffffffffffffffffffff16604360009054906101000a900473ffffffffffffffffffffffffffffffffffffffff1673ffffffffffffffffffffffffffffffffffffffff161461329357604360009054906101000a900473ffffffffffffffffffffffffffffffffffffffff1673ffffffffffffffffffffffffffffffffffffffff1663d4ce14158585856040518463ffffffff1660e01b815260040161323c939291906161c0565b60206040518083038186803b15801561325457600080fd5b505afa158015613268573d6000803e3d6000fd5b505050506040513d601f19601f8201168201806040525081019061328c9190615b7a565b9050613298565b605190505b9392505050565b6060600a8054806020026020016040519081016040528092919081815260200182805480156132ed57602002820191906000526020600020905b8154815260200190600101908083116132d9575b5050505050905090565b6132ff613aaa565b8060008061330b6120f3565b73ffffffffffffffffffffffffffffffffffffffff1673ffffffffffffffffffffffffffffffffffffffff1681526020019081526020016000205461335091906169e9565b60008061335b6120f3565b73ffffffffffffffffffffffffffffffffffffffff1673ffffffffffffffffffffffffffffffffffffffff16815260200190815260200160002081905550806002546133a791906169e9565b600281905550600073ffffffffffffffffffffffffffffffffffffffff166133cd6120f3565b73ffffffffffffffffffffffffffffffffffffffff167fddf252ad1be2c89b69c2b068fc378daa952ba7f163c4a11628f55a4df523b3ef8360405161341291906166a6565b60405180910390a37fe3dd692f7e5c129a26d85142bf6118f2ecf7722a79a4507ac05ad7bb7aaab1528160405161344991906166a6565b60405180910390a150565b600061345e613aaa565b604860009054906101000a900473ffffffffffffffffffffffffffffffffffffffff16905090565b6000600160008473ffffffffffffffffffffffffffffffffffffffff1673ffffffffffffffffffffffffffffffffffffffff16815260200190815260200160002060008373ffffffffffffffffffffffffffffffffffffffff1673ffffffffffffffffffffffffffffffffffffffff16815260200190815260200160002054905092915050565b600061351761111b565b73ffffffffffffffffffffffffffffffffffffffff163373ffffffffffffffffffffffffffffffffffffffff1614613584576040517f08c379a000000000000000000000000000000000000000000000000000000000815260040161357b90616526565b60405180910390fd5b61358d826144f8565b9050919050565b600080604960009054906101000a900473ffffffffffffffffffffffffffffffffffffffff1673ffffffffffffffffffffffffffffffffffffffff1663dd62ed3e30336040518363ffffffff1660e01b81526004016135f4929190616197565b60206040518083038186803b15801561360c57600080fd5b505afa158015613620573d6000803e3d6000fd5b505050506040513d601f19601f820116820180604052508101906136449190615aa0565b90506000604960009054906101000a900473ffffffffffffffffffffffffffffffffffffffff1673ffffffffffffffffffffffffffffffffffffffff1663a9059cbb33846040518363ffffffff1660e01b81526004016136a59291906161f7565b602060405180830381600087803b1580156136bf57600080fd5b505af11580156136d3573d6000803e3d6000fd5b505050506040513d601f19601f820116820180604052508101906136f79190615958565b9050604960009054906101000a900473ffffffffffffffffffffffffffffffffffffffff1673ffffffffffffffffffffffffffffffffffffffff1663a457c2d733846040518363ffffffff1660e01b81526004016137569291906161f7565b602060405180830381600087803b15801561377057600080fd5b505af1158015613784573d6000803e3d6000fd5b505050506040513d601f19601f820116820180604052508101906137a89190615958565b507f9a8f88c5e6e981484880bf04d7b9e25440b611853c83cc5655d78455dc462fee336040516137d8919061617c565b60405180910390a1809250505090565b60006137f26111ea565b15613800576000905061398a565b6000604260008573ffffffffffffffffffffffffffffffffffffffff1673ffffffffffffffffffffffffffffffffffffffff16815260200190815260200160002060009054906101000a900460c01b77ffffffffffffffffffffffffffffffffffffffffffffffff19161415613879576000905061398a565b600073ffffffffffffffffffffffffffffffffffffffff16604360009054906101000a900473ffffffffffffffffffffffffffffffffffffffff1673ffffffffffffffffffffffffffffffffffffffff161461398557604360009054906101000a900473ffffffffffffffffffffffffffffffffffffffff1673ffffffffffffffffffffffffffffffffffffffff1663c6946a128585856040518463ffffffff1660e01b815260040161392e939291906161c0565b60206040518083038186803b15801561394657600080fd5b505afa15801561395a573d6000803e3d6000fd5b505050506040513d601f19601f8201168201806040525081019061397e9190615958565b905061398a565b600190505b9392505050565b613999613aaa565b600073ffffffffffffffffffffffffffffffffffffffff168173ffffffffffffffffffffffffffffffffffffffff161415613a09576040517f08c379a0000000000000000000000000000000000000000000000000000000008152600401613a00906163e6565b60405180910390fd5b613a1281613dfe565b50565b6000613a1f613aaa565b613a276120f3565b905090565b60606009805480602002602001604051908101604052809291908181526020018280548015613a7a57602002820191906000526020600020905b815481526020019060010190808311613a66575b5050505050905090565b604360009054906101000a900473ffffffffffffffffffffffffffffffffffffffff1681565b613ab26145cc565b73ffffffffffffffffffffffffffffffffffffffff16613ad06120f3565b73ffffffffffffffffffffffffffffffffffffffff1614613b26576040517f08c379a0000000000000000000000000000000000000000000000000000000008152600401613b1d90616566565b60405180910390fd5b565b613b306111ea565b15613b70576040517f08c379a0000000000000000000000000000000000000000000000000000000008152600401613b67906164a6565b60405180910390fd5b565b600080613b7d6145cc565b9050613b8a8185856145d4565b600191505092915050565b600080613ba06145cc565b9050613bad85828561479f565b613bb885858561482b565b60019150509392505050565b60606000825167ffffffffffffffff811115613be357613be2616d39565b5b604051908082528060200260200182016040528015613c115781602001602082028036833780820191505090505b50905060005b8351811015613cf15760426000858381518110613c3757613c36616d0a565b5b602002602001015173ffffffffffffffffffffffffffffffffffffffff1673ffffffffffffffffffffffffffffffffffffffff16815260200190815260200160002060009054906101000a900460c01b828281518110613c9a57613c99616d0a565b5b602002602001019077ffffffffffffffffffffffffffffffffffffffffffffffff1916908177ffffffffffffffffffffffffffffffffffffffffffffffff1916815250508080613ce990616c05565b915050613c17565b5080915050919050565b600080613d066145cc565b9050613d27818585613d188589613486565b613d229190616908565b6145d4565b600191505092915050565b613d3a614aa3565b6000603f60006101000a81548160ff0219169083151502179055507f5db9ee0a495bf2e6ff9c91a7834c1ba4fdd244a5e8aa4e537bd38aeae4b073aa613d7e6145cc565b604051613d8b919061617c565b60405180910390a1565b6000806000613db08585600001614aec90919063ffffffff16565b90508360000180549050811415613dce576000809250925050613df7565b6001846001018281548110613de657613de5616d0a565b5b906000526020600020015492509250505b9250929050565b6000603d60009054906101000a900473ffffffffffffffffffffffffffffffffffffffff16905081603d60006101000a81548173ffffffffffffffffffffffffffffffffffffffff021916908373ffffffffffffffffffffffffffffffffffffffff1602179055508173ffffffffffffffffffffffffffffffffffffffff168173ffffffffffffffffffffffffffffffffffffffff167f8be0079c531659141344cd1fd0a4f28419497f9722a3daafe3b4186f6b6457e060405160405180910390a35050565b613ecc613b28565b6001603f60006101000a81548160ff0219169083151502179055507f62e78cea01bee320cd4e420270b5ea74000d11b0c9f74754ebdbfc544b05a258613f106145cc565b604051613f1d919061617c565b60405180910390a1565b600080613f326145cc565b9050613f3f81858561482b565b600191505092915050565b6000814210613f8e576040517f08c379a0000000000000000000000000000000000000000000000000000000008152600401613f85906165e6565b60405180910390fd5b6000613f9983614bc6565b5090508015613fdd576040517f08c379a0000000000000000000000000000000000000000000000000000000008152600401613fd490616626565b60405180910390fd5b60098390806001815401808255809150506001900390600052602060002001600090919091909150558260007fe2ad3b1abe53383dbe6359f02f11ae76d91cfab321b37083b16e1d96a81d418360405160405180910390a382915050919050565b6000806140496145cc565b905060006140578286613486565b90508381101561409c576040517f08c379a000000000000000000000000000000000000000000000000000000000815260040161409390616666565b60405180910390fd5b6140a982868684036145d4565b60019250505092915050565b6140bd613b28565b600073ffffffffffffffffffffffffffffffffffffffff16604360009054906101000a900473ffffffffffffffffffffffffffffffffffffffff1673ffffffffffffffffffffffffffffffffffffffff161461420957604360009054906101000a900473ffffffffffffffffffffffffffffffffffffffff1673ffffffffffffffffffffffffffffffffffffffff1663c6946a126141596120f3565b84846040518463ffffffff1660e01b8152600401614179939291906161c0565b60206040518083038186803b15801561419157600080fd5b505afa1580156141a5573d6000803e3d6000fd5b505050506040513d601f19601f820116820180604052508101906141c99190615958565b614208576040517f08c379a00000000000000000000000000000000000000000000000000000000081526004016141ff90616366565b60405180910390fd5b5b61421b6142146120f3565b838361482b565b5050565b600073ffffffffffffffffffffffffffffffffffffffff168273ffffffffffffffffffffffffffffffffffffffff16141561428f576040517f08c379a000000000000000000000000000000000000000000000000000000000815260040161428690616686565b60405180910390fd5b61429b60008383614c2d565b80600260008282546142ad9190616908565b92505081905550806000808473ffffffffffffffffffffffffffffffffffffffff1673ffffffffffffffffffffffffffffffffffffffff168152602001908152602001600020600082825401925050819055508173ffffffffffffffffffffffffffffffffffffffff16600073ffffffffffffffffffffffffffffffffffffffff167fddf252ad1be2c89b69c2b068fc378daa952ba7f163c4a11628f55a4df523b3ef8360405161435e91906166a6565b60405180910390a361437260008383614ce4565b5050565b60008242106143ba576040517f08c379a00000000000000000000000000000000000000000000000000000000081526004016143b190616446565b60405180910390fd5b8142106143fc576040517f08c379a00000000000000000000000000000000000000000000000000000000081526004016143f3906165e6565b60405180910390fd5b600061440783614bc6565b509050801561444b576040517f08c379a000000000000000000000000000000000000000000000000000000000815260040161444290616626565b60405180910390fd5b60008061445786614bc6565b915091508161449b576040517f08c379a000000000000000000000000000000000000000000000000000000000815260040161449290616586565b60405180910390fd5b84600982815481106144b0576144af616d0a565b5b906000526020600020018190555084867fe2ad3b1abe53383dbe6359f02f11ae76d91cfab321b37083b16e1d96a81d418360405160405180910390a384935050505092915050565b600081421061453c576040517f08c379a000000000000000000000000000000000000000000000000000000000815260040161453390616446565b60405180910390fd5b60008061454884614bc6565b915091508161458c576040517f08c379a000000000000000000000000000000000000000000000000000000000815260040161458390616586565b60405180910390fd5b61459581614ce9565b837f06e2498f5548e5491bfe985562cc494131eae56b5b6543b59129c8886f129f6560405160405180910390a28392505050919050565b600033905090565b600073ffffffffffffffffffffffffffffffffffffffff168373ffffffffffffffffffffffffffffffffffffffff161415614644576040517f08c379a000000000000000000000000000000000000000000000000000000000815260040161463b90616606565b60405180910390fd5b600073ffffffffffffffffffffffffffffffffffffffff168273ffffffffffffffffffffffffffffffffffffffff1614156146b4576040517f08c379a00000000000000000000000000000000000000000000000000000000081526004016146ab90616406565b60405180910390fd5b80600160008573ffffffffffffffffffffffffffffffffffffffff1673ffffffffffffffffffffffffffffffffffffffff16815260200190815260200160002060008473ffffffffffffffffffffffffffffffffffffffff1673ffffffffffffffffffffffffffffffffffffffff168152602001908152602001600020819055508173ffffffffffffffffffffffffffffffffffffffff168373ffffffffffffffffffffffffffffffffffffffff167f8c5be1e5ebec7d5bd14f71427d1e84f3dd0314c0f7b2291e5b200ac8c7c3b9258360405161479291906166a6565b60405180910390a3505050565b60006147ab8484613486565b90507fffffffffffffffffffffffffffffffffffffffffffffffffffffffffffffffff81146148255781811015614817576040517f08c379a000000000000000000000000000000000000000000000000000000000815260040161480e90616426565b60405180910390fd5b61482484848484036145d4565b5b50505050565b600073ffffffffffffffffffffffffffffffffffffffff168373ffffffffffffffffffffffffffffffffffffffff16141561489b576040517f08c379a0000000000000000000000000000000000000000000000000000000008152600401614892906165c6565b60405180910390fd5b600073ffffffffffffffffffffffffffffffffffffffff168273ffffffffffffffffffffffffffffffffffffffff16141561490b576040517f08c379a000000000000000000000000000000000000000000000000000000000815260040161490290616386565b60405180910390fd5b614916838383614c2d565b60008060008573ffffffffffffffffffffffffffffffffffffffff1673ffffffffffffffffffffffffffffffffffffffff1681526020019081526020016000205490508181101561499c576040517f08c379a000000000000000000000000000000000000000000000000000000000815260040161499390616486565b60405180910390fd5b8181036000808673ffffffffffffffffffffffffffffffffffffffff1673ffffffffffffffffffffffffffffffffffffffff16815260200190815260200160002081905550816000808573ffffffffffffffffffffffffffffffffffffffff1673ffffffffffffffffffffffffffffffffffffffff168152602001908152602001600020600082825401925050819055508273ffffffffffffffffffffffffffffffffffffffff168473ffffffffffffffffffffffffffffffffffffffff167fddf252ad1be2c89b69c2b068fc378daa952ba7f163c4a11628f55a4df523b3ef84604051614a8a91906166a6565b60405180910390a3614a9d848484614ce4565b50505050565b614aab6111ea565b614aea576040517f08c379a0000000000000000000000000000000000000000000000000000000008152600401614ae1906163a6565b60405180910390fd5b565b60008083805490501415614b035760009050614bc0565b600080848054905090505b80821015614b67576000614b228383614dbc565b905084868281548110614b3857614b37616d0a565b5b90600052602060002001541115614b5157809150614b61565b600181614b5e9190616908565b92505b50614b0e565b600082118015614b9f57508385600184614b8191906169e9565b81548110614b9257614b91616d0a565b5b9060005260206000200154145b15614bba57600182614bb191906169e9565b92505050614bc0565b81925050505b92915050565b60008060005b600980549050811015614c1f578360098281548110614bee57614bed616d0a565b5b90600052602060002001541415614c0c576001819250925050614c28565b8080614c1790616c05565b915050614bcc565b50600080915091505b915091565b614c38838383614de2565b614c40614de7565b600073ffffffffffffffffffffffffffffffffffffffff168373ffffffffffffffffffffffffffffffffffffffff1614614ccd57614c7d83614e0f565b600073ffffffffffffffffffffffffffffffffffffffff168273ffffffffffffffffffffffffffffffffffffffff1614614cbf57614cba82614e0f565b614cc8565b614cc7614e62565b5b614cdf565b614cd682614e0f565b614cde614e62565b5b505050565b505050565b60096001600980549050614cfd91906169e9565b81548110614d0e57614d0d616d0a565b5b906000526020600020015460098281548110614d2d57614d2c616d0a565b5b906000526020600020018190555060096001600980549050614d4f91906169e9565b81548110614d6057614d5f616d0a565b5b9060005260206000200154600a808054905081548110614d8357614d82616d0a565b5b90600052602060002001819055506009805480614da357614da2616cdb565b5b6001900381819060005260206000200160009055905550565b60006002828418614dcd919061695e565b828416614dda9190616908565b905092915050565b505050565b6000614df1614e76565b90506000811115614e0c5780600881905550614e0b614f2d565b5b50565b614e5f600560008373ffffffffffffffffffffffffffffffffffffffff1673ffffffffffffffffffffffffffffffffffffffff168152602001908152602001600020614e5a836119a6565b614f88565b50565b614e746006614e6f610cdc565b614f88565b565b6000806009805490501415614e8e5760009050614f2a565b6000805b600980549050811015614f24574260098281548110614eb457614eb3616d0a565b5b906000526020600020015411158015614eea57508160098281548110614edd57614edc616d0a565b5b9060005260206000200154115b15614f115760098181548110614f0357614f02616d0a565b5b906000526020600020015491505b8080614f1c90616c05565b915050614e92565b50809150505b90565b60005b600980549050811015614f85574260098281548110614f5257614f51616d0a565b5b906000526020600020015411614f7057614f6b81614ce9565b614f80565b600181614f7d9190616908565b90505b614f30565b50565b6000614f92615003565b905080614fa18460000161500d565b1015614ffe5782600001819080600181540180825580915050600190039060005260206000200160009091909190915055826001018290806001815401808255809150506001900390600052602060002001600090919091909150555b505050565b6000600854905090565b600080828054905014156150245760009050615055565b816001838054905061503691906169e9565b8154811061504757615046616d0a565b5b906000526020600020015490505b919050565b82805461506690616b88565b90600052602060002090601f01602090048101928261508857600085556150cf565b82601f106150a157805160ff19168380011785556150cf565b828001600101855582156150cf579182015b828111156150ce5782518255916020019190600101906150b3565b5b5090506150dc91906150e0565b5090565b5b808211156150f95760008160009055506001016150e1565b5090565b600061511061510b8461672a565b616705565b9050808382526020820190508285602086028201111561513357615132616d85565b5b60005b85811015615163578161514988826153a1565b845260208401935060208301925050600181019050615136565b5050509392505050565b600061518061517b84616756565b616705565b905080838252602082019050828560208602820111156151a3576151a2616d85565b5b60005b858110156151f157813567ffffffffffffffff8111156151c9576151c8616d80565b5b8086016151d68982615546565b855260208501945060208401935050506001810190506151a6565b5050509392505050565b600061520e61520984616782565b616705565b9050808382526020820190508285602086028201111561523157615230616d85565b5b60005b85811015615261578161524788826155a2565b845260208401935060208301925050600181019050615234565b5050509392505050565b600061527e615279846167ae565b616705565b905080838252602082019050828560208602820111156152a1576152a0616d85565b5b60005b858110156152d157816152b788826155cc565b8452602084019350602083019250506001810190506152a4565b5050509392505050565b60006152ee6152e9846167da565b616705565b90508281526020810184848401111561530a57615309616d8a565b5b615315848285616b46565b509392505050565b600061533061532b8461680b565b616705565b90508281526020810184848401111561534c5761534b616d8a565b5b615357848285616b46565b509392505050565b600061537261536d8461680b565b616705565b90508281526020810184848401111561538e5761538d616d8a565b5b615399848285616b55565b509392505050565b6000813590506153b081617311565b92915050565b6000813590506153c581617328565b92915050565b60008083601f8401126153e1576153e0616d80565b5b8235905067ffffffffffffffff8111156153fe576153fd616d7b565b5b60208301915083602082028301111561541a57615419616d85565b5b9250929050565b600082601f83011261543657615435616d80565b5b81356154468482602086016150fd565b91505092915050565b600082601f83011261546457615463616d80565b5b813561547484826020860161516d565b91505092915050565b600082601f83011261549257615491616d80565b5b81356154a28482602086016151fb565b91505092915050565b600082601f8301126154c0576154bf616d80565b5b81356154d084826020860161526b565b91505092915050565b6000815190506154e88161733f565b92915050565b6000813590506154fd81617356565b92915050565b600082601f83011261551857615517616d80565b5b81356155288482602086016152db565b91505092915050565b6000813590506155408161736d565b92915050565b600082601f83011261555b5761555a616d80565b5b813561556b84826020860161531d565b91505092915050565b600082601f83011261558957615588616d80565b5b815161559984826020860161535f565b91505092915050565b6000813590506155b181617384565b92915050565b6000815190506155c681617384565b92915050565b6000813590506155db8161739b565b92915050565b6000815190506155f08161739b565b92915050565b60006020828403121561560c5761560b616d94565b5b600061561a848285016153a1565b91505092915050565b60006020828403121561563957615638616d94565b5b6000615647848285016153b6565b91505092915050565b6000806040838503121561566757615666616d94565b5b6000615675858286016153a1565b9250506020615686858286016153a1565b9150509250929050565b6000806000606084860312156156a9576156a8616d94565b5b60006156b7868287016153a1565b93505060206156c8868287016153a1565b92505060406156d9868287016155a2565b9150509250925092565b600080604083850312156156fa576156f9616d94565b5b6000615708858286016153a1565b9250506020615719858286016154ee565b9150509250929050565b6000806040838503121561573a57615739616d94565b5b6000615748858286016153a1565b9250506020615759858286016155a2565b9150509250929050565b60008060006060848603121561577c5761577b616d94565b5b600061578a868287016153a1565b935050602061579b868287016155a2565b925050604084013567ffffffffffffffff8111156157bc576157bb616d8f565b5b6157c886828701615503565b9150509250925092565b600080602083850312156157e9576157e8616d94565b5b600083013567ffffffffffffffff81111561580757615806616d8f565b5b615813858286016153cb565b92509250509250929050565b60006020828403121561583557615834616d94565b5b600082013567ffffffffffffffff81111561585357615852616d8f565b5b61585f84828501615421565b91505092915050565b6000806040838503121561587f5761587e616d94565b5b600083013567ffffffffffffffff81111561589d5761589c616d8f565b5b6158a985828601615421565b925050602083013567ffffffffffffffff8111156158ca576158c9616d8f565b5b6158d68582860161547d565b9150509250929050565b600080604083850312156158f7576158f6616d94565b5b600083013567ffffffffffffffff81111561591557615914616d8f565b5b615921858286016154ab565b925050602083013567ffffffffffffffff81111561594257615941616d8f565b5b61594e8582860161544f565b9150509250929050565b60006020828403121561596e5761596d616d94565b5b600061597c848285016154d9565b91505092915050565b60006020828403121561599b5761599a616d94565b5b60006159a984828501615531565b91505092915050565b6000602082840312156159c8576159c7616d94565b5b600082015167ffffffffffffffff8111156159e6576159e5616d8f565b5b6159f284828501615574565b91505092915050565b60008060408385031215615a1257615a11616d94565b5b600083013567ffffffffffffffff811115615a3057615a2f616d8f565b5b615a3c85828601615546565b925050602083013567ffffffffffffffff811115615a5d57615a5c616d8f565b5b615a6985828601615546565b9150509250929050565b600060208284031215615a8957615a88616d94565b5b6000615a97848285016155a2565b91505092915050565b600060208284031215615ab657615ab5616d94565b5b6000615ac4848285016155b7565b91505092915050565b60008060408385031215615ae457615ae3616d94565b5b6000615af2858286016155a2565b9250506020615b03858286016153a1565b9150509250929050565b60008060408385031215615b2457615b23616d94565b5b6000615b32858286016155a2565b9250506020615b43858286016155a2565b9150509250929050565b600060208284031215615b6357615b62616d94565b5b6000615b71848285016155cc565b91505092915050565b600060208284031215615b9057615b8f616d94565b5b6000615b9e848285016155e1565b91505092915050565b6000615bb38383615bef565b60208301905092915050565b6000615bcb8383615d4c565b60208301905092915050565b6000615be3838361614f565b60208301905092915050565b615bf881616a3d565b82525050565b615c0781616a3d565b82525050565b6000615c1882616871565b615c2281856168c4565b9350615c2d8361683c565b8060005b83811015615c6557615c4282616d68565b615c4c8882615ba7565b9750615c578361689d565b925050600181019050615c31565b5085935050505092915050565b6000615c7d8261687c565b615c8781856168d5565b9350615c9283616851565b8060005b83811015615cc3578151615caa8882615bbf565b9750615cb5836168aa565b925050600181019050615c96565b5085935050505092915050565b6000615cdb82616887565b615ce581856168e6565b9350615cf083616861565b8060005b83811015615d21578151615d088882615bd7565b9750615d13836168b7565b925050600181019050615cf4565b5085935050505092915050565b615d3781616a61565b82525050565b615d4681616a6d565b82525050565b615d5581616a77565b82525050565b615d6481616a77565b82525050565b615d7381616aec565b82525050565b615d8281616afe565b82525050565b6000615d9382616892565b615d9d81856168f7565b9350615dad818560208601616b55565b615db681616d99565b840191505092915050565b6000615dce6004836168f7565b9150615dd982616db7565b602082019050919050565b6000615df16023836168f7565b9150615dfc82616de0565b604082019050919050565b6000615e146014836168f7565b9150615e1f82616e2f565b602082019050919050565b6000615e376025836168f7565b9150615e4282616e58565b604082019050919050565b6000615e5a6026836168f7565b9150615e6582616ea7565b604082019050919050565b6000615e7d6022836168f7565b9150615e8882616ef6565b604082019050919050565b6000615ea0601d836168f7565b9150615eab82616f45565b602082019050919050565b6000615ec36015836168f7565b9150615ece82616f6e565b602082019050919050565b6000615ee66016836168f7565b9150615ef182616f97565b602082019050919050565b6000615f096004836168f7565b9150615f1482616fc0565b602082019050919050565b6000615f2c6010836168f7565b9150615f3782616fe9565b602082019050919050565b6000615f4f6017836168f7565b9150615f5a82617012565b602082019050919050565b6000615f726009836168f7565b9150615f7d8261703b565b602082019050919050565b6000615f956004836168f7565b9150615fa082617064565b602082019050919050565b6000615fb8600e836168f7565b9150615fc38261708d565b602082019050919050565b6000615fdb6017836168f7565b9150615fe6826170b6565b602082019050919050565b6000615ffe6020836168f7565b9150616009826170df565b602082019050919050565b60006160216012836168f7565b915061602c82617108565b602082019050919050565b6000616044601f836168f7565b915061604f82617131565b602082019050919050565b60006160676025836168f7565b91506160728261715a565b604082019050919050565b600061608a601e836168f7565b9150616095826171a9565b602082019050919050565b60006160ad6024836168f7565b91506160b8826171d2565b604082019050919050565b60006160d06028836168f7565b91506160db82617221565b604082019050919050565b60006160f36010836168f7565b91506160fe82617270565b602082019050919050565b60006161166025836168f7565b915061612182617299565b604082019050919050565b6000616139601f836168f7565b9150616144826172e8565b602082019050919050565b61615881616ad5565b82525050565b61616781616ad5565b82525050565b61617681616adf565b82525050565b60006020820190506161916000830184615bfe565b92915050565b60006040820190506161ac6000830185615bfe565b6161b96020830184615bfe565b9392505050565b60006060820190506161d56000830186615bfe565b6161e26020830185615bfe565b6161ef604083018461615e565b949350505050565b600060408201905061620c6000830185615bfe565b616219602083018461615e565b9392505050565b6000602082019050818103600083015261623a8184615c0d565b905092915050565b6000602082019050818103600083015261625c8184615c72565b905092915050565b6000602082019050818103600083015261627e8184615cd0565b905092915050565b600060208201905061629b6000830184615d2e565b92915050565b60006020820190506162b66000830184615d3d565b92915050565b60006020820190506162d16000830184615d5b565b92915050565b60006020820190506162ec6000830184615d6a565b92915050565b60006020820190506163076000830184615d79565b92915050565b600060208201905081810360008301526163278184615d88565b905092915050565b600060408201905081810360008301526163498185615d88565b9050818103602083015261635d8184615d88565b90509392505050565b6000602082019050818103600083015261637f81615dc1565b9050919050565b6000602082019050818103600083015261639f81615de4565b9050919050565b600060208201905081810360008301526163bf81615e07565b9050919050565b600060208201905081810360008301526163df81615e2a565b9050919050565b600060208201905081810360008301526163ff81615e4d565b9050919050565b6000602082019050818103600083015261641f81615e70565b9050919050565b6000602082019050818103600083015261643f81615e93565b9050919050565b6000602082019050818103600083015261645f81615eb6565b9050919050565b6000602082019050818103600083015261647f81615ed9565b9050919050565b6000602082019050818103600083015261649f81615efc565b9050919050565b600060208201905081810360008301526164bf81615f1f565b9050919050565b600060208201905081810360008301526164df81615f42565b9050919050565b600060208201905081810360008301526164ff81615f65565b9050919050565b6000602082019050818103600083015261651f81615f88565b9050919050565b6000602082019050818103600083015261653f81615fab565b9050919050565b6000602082019050818103600083015261655f81615fce565b9050919050565b6000602082019050818103600083015261657f81615ff1565b9050919050565b6000602082019050818103600083015261659f81616014565b9050919050565b600060208201905081810360008301526165bf81616037565b9050919050565b600060208201905081810360008301526165df8161605a565b9050919050565b600060208201905081810360008301526165ff8161607d565b9050919050565b6000602082019050818103600083015261661f816160a0565b9050919050565b6000602082019050818103600083015261663f816160c3565b9050919050565b6000602082019050818103600083015261665f816160e6565b9050919050565b6000602082019050818103600083015261667f81616109565b9050919050565b6000602082019050818103600083015261669f8161612c565b9050919050565b60006020820190506166bb600083018461615e565b92915050565b60006040820190506166d6600083018561615e565b6166e3602083018461615e565b9392505050565b60006020820190506166ff600083018461616d565b92915050565b600061670f616720565b905061671b8282616bd4565b919050565b6000604051905090565b600067ffffffffffffffff82111561674557616744616d39565b5b602082029050602081019050919050565b600067ffffffffffffffff82111561677157616770616d39565b5b602082029050602081019050919050565b600067ffffffffffffffff82111561679d5761679c616d39565b5b602082029050602081019050919050565b600067ffffffffffffffff8211156167c9576167c8616d39565b5b602082029050602081019050919050565b600067ffffffffffffffff8211156167f5576167f4616d39565b5b6167fe82616d99565b9050602081019050919050565b600067ffffffffffffffff82111561682657616825616d39565b5b61682f82616d99565b9050602081019050919050565b60008190508160005260206000209050919050565b6000819050602082019050919050565b6000819050602082019050919050565b600081549050919050565b600081519050919050565b600081519050919050565b600081519050919050565b6000600182019050919050565b6000602082019050919050565b6000602082019050919050565b600082825260208201905092915050565b600082825260208201905092915050565b600082825260208201905092915050565b600082825260208201905092915050565b600061691382616ad5565b915061691e83616ad5565b9250827fffffffffffffffffffffffffffffffffffffffffffffffffffffffffffffffff0382111561695357616952616c4e565b5b828201905092915050565b600061696982616ad5565b915061697483616ad5565b92508261698457616983616c7d565b5b828204905092915050565b600061699a82616ad5565b91506169a583616ad5565b9250817fffffffffffffffffffffffffffffffffffffffffffffffffffffffffffffffff04831182151516156169de576169dd616c4e565b5b828202905092915050565b60006169f482616ad5565b91506169ff83616ad5565b925082821015616a1257616a11616c4e565b5b828203905092915050565b600073ffffffffffffffffffffffffffffffffffffffff82169050919050565b6000616a4882616ab5565b9050919050565b6000616a5a82616ab5565b9050919050565b60008115159050919050565b6000819050919050565b60007fffffffffffffffff00000000000000000000000000000000000000000000000082169050919050565b6000616aae82616a3d565b9050919050565b600073ffffffffffffffffffffffffffffffffffffffff82169050919050565b6000819050919050565b600060ff82169050919050565b6000616af782616b10565b9050919050565b6000616b0982616b22565b9050919050565b6000616b1b82616b34565b9050919050565b6000616b2d82616b34565b9050919050565b6000616b3f82616ab5565b9050919050565b82818337600083830152505050565b60005b83811015616b73578082015181840152602081019050616b58565b83811115616b82576000848401525b50505050565b60006002820490506001821680616ba057607f821691505b60208210811415616bb457616bb3616cac565b5b50919050565b6000616bcd616bc883616daa565b616a1d565b9050919050565b616bdd82616d99565b810181811067ffffffffffffffff82111715616bfc57616bfb616d39565b5b80604052505050565b6000616c1082616ad5565b91507fffffffffffffffffffffffffffffffffffffffffffffffffffffffffffffffff821415616c4357616c42616c4e565b5b600182019050919050565b7f4e487b7100000000000000000000000000000000000000000000000000000000600052601160045260246000fd5b7f4e487b7100000000000000000000000000000000000000000000000000000000600052601260045260246000fd5b7f4e487b7100000000000000000000000000000000000000000000000000000000600052602260045260246000fd5b7f4e487b7100000000000000000000000000000000000000000000000000000000600052603160045260246000fd5b7f4e487b7100000000000000000000000000000000000000000000000000000000600052603260045260246000fd5b7f4e487b7100000000000000000000000000000000000000000000000000000000600052604160045260246000fd5b6000616d748254616bba565b9050919050565b600080fd5b600080fd5b600080fd5b600080fd5b600080fd5b600080fd5b6000601f19601f8301169050919050565b60008160001c9050919050565b7f3078353000000000000000000000000000000000000000000000000000000000600082015250565b7f45524332303a207472616e7366657220746f20746865207a65726f206164647260008201527f6573730000000000000000000000000000000000000000000000000000000000602082015250565b7f5061757361626c653a206e6f7420706175736564000000000000000000000000600082015250565b7f70726f7669646520657175616c20616d6f756e74206f6620636f646520616e6460008201527f2074657874000000000000000000000000000000000000000000000000000000602082015250565b7f4f776e61626c653a206e6577206f776e657220697320746865207a65726f206160008201527f6464726573730000000000000000000000000000000000000000000000000000602082015250565b7f45524332303a20617070726f766520746f20746865207a65726f20616464726560008201527f7373000000000000000000000000000000000000000000000000000000000000602082015250565b7f45524332303a20696e73756666696369656e7420616c6c6f77616e6365000000600082015250565b7f536e617073686f7420616c726561647920646f6e650000000000000000000000600082015250565b7f6f726967696e616c203d207265706c6163656d656e7400000000000000000000600082015250565b7f3078353400000000000000000000000000000000000000000000000000000000600082015250565b7f5061757361626c653a2070617573656400000000000000000000000000000000600082015250565b7f6e6f74206964656e746966696564207265636569766572000000000000000000600082015250565b7f3020616464726573730000000000000000000000000000000000000000000000600082015250565b7f3078353900000000000000000000000000000000000000000000000000000000600082015250565b7f6e6f7420617574686f72697a6564000000000000000000000000000000000000600082015250565b7f5265636569766572206e6f74206964656e746966696564000000000000000000600082015250565b7f4f776e61626c653a2063616c6c6572206973206e6f7420746865206f776e6572600082015250565b7f536e617073686f74206e6f7420666f756e640000000000000000000000000000600082015250565b7f4e6f7420657175616c2072656365697665727320616e6420616d6f756e747300600082015250565b7f45524332303a207472616e736665722066726f6d20746865207a65726f20616460008201527f6472657373000000000000000000000000000000000000000000000000000000602082015250565b7f536e617073686f74207363686564756c656420696e2074686520706173740000600082015250565b7f45524332303a20617070726f76652066726f6d20746865207a65726f2061646460008201527f7265737300000000000000000000000000000000000000000000000000000000602082015250565b7f536e617073686f7420616c7265616479207363686564756c656420666f72207460008201527f6869732074696d65000000000000000000000000000000000000000000000000602082015250565b7f6f776e65722070726f74656374696f6e00000000000000000000000000000000600082015250565b7f45524332303a2064656372656173656420616c6c6f77616e63652062656c6f7760008201527f207a65726f000000000000000000000000000000000000000000000000000000602082015250565b7f45524332303a206d696e7420746f20746865207a65726f206164647265737300600082015250565b61731a81616a3d565b811461732557600080fd5b50565b61733181616a4f565b811461733c57600080fd5b50565b61734881616a61565b811461735357600080fd5b50565b61735f81616a77565b811461736a57600080fd5b50565b61737681616aa3565b811461738157600080fd5b50565b61738d81616ad5565b811461739857600080fd5b50565b6173a481616adf565b81146173af57600080fd5b5056fea2646970667358221220dccb16638e307ea614cffada0c3bfa5b42c2e798075c312ae3d7c59b30c8504864736f6c63430008070033",
			"opcodes": "PUSH1 0x80 PUSH1 0x40 MSTORE PUSH1 0x0 PUSH1 0x8 SSTORE CALLVALUE DUP1 ISZERO PUSH3 0x16 JUMPI PUSH1 0x0 DUP1 REVERT JUMPDEST POP PUSH1 0x40 MLOAD PUSH3 0x7CFC CODESIZE SUB DUP1 PUSH3 0x7CFC DUP4 CODECOPY DUP2 DUP2 ADD PUSH1 0x40 MSTORE DUP2 ADD SWAP1 PUSH3 0x3C SWAP2 SWAP1 PUSH3 0x5FA JUMP JUMPDEST DUP4 DUP4 DUP2 PUSH1 0x3 SWAP1 DUP1 MLOAD SWAP1 PUSH1 0x20 ADD SWAP1 PUSH3 0x56 SWAP3 SWAP2 SWAP1 PUSH3 0x4CC JUMP JUMPDEST POP DUP1 PUSH1 0x4 SWAP1 DUP1 MLOAD SWAP1 PUSH1 0x20 ADD SWAP1 PUSH3 0x6F SWAP3 SWAP2 SWAP1 PUSH3 0x4CC JUMP JUMPDEST POP POP POP PUSH3 0x92 PUSH3 0x86 PUSH3 0x3FE PUSH1 0x20 SHL PUSH1 0x20 SHR JUMP JUMPDEST PUSH3 0x406 PUSH1 0x20 SHL PUSH1 0x20 SHR JUMP JUMPDEST PUSH1 0x40 MLOAD DUP1 PUSH1 0x40 ADD PUSH1 0x40 MSTORE DUP1 PUSH1 0xF DUP2 MSTORE PUSH1 0x20 ADD PUSH32 0x5472616E73666572204661696C65640000000000000000000000000000000000 DUP2 MSTORE POP PUSH1 0x3E PUSH1 0x0 PUSH1 0x50 PUSH1 0xFF AND DUP2 MSTORE PUSH1 0x20 ADD SWAP1 DUP2 MSTORE PUSH1 0x20 ADD PUSH1 0x0 KECCAK256 SWAP1 DUP1 MLOAD SWAP1 PUSH1 0x20 ADD SWAP1 PUSH3 0xF4 SWAP3 SWAP2 SWAP1 PUSH3 0x4CC JUMP JUMPDEST POP PUSH1 0x40 MLOAD DUP1 PUSH1 0x40 ADD PUSH1 0x40 MSTORE DUP1 PUSH1 0x13 DUP2 MSTORE PUSH1 0x20 ADD PUSH32 0x5472616E73666572207375636365737366756C00000000000000000000000000 DUP2 MSTORE POP PUSH1 0x3E PUSH1 0x0 PUSH1 0x51 PUSH1 0xFF AND DUP2 MSTORE PUSH1 0x20 ADD SWAP1 DUP2 MSTORE PUSH1 0x20 ADD PUSH1 0x0 KECCAK256 SWAP1 DUP1 MLOAD SWAP1 PUSH1 0x20 ADD SWAP1 PUSH3 0x157 SWAP3 SWAP2 SWAP1 PUSH3 0x4CC JUMP JUMPDEST POP PUSH1 0x40 MLOAD DUP1 PUSH1 0x40 ADD PUSH1 0x40 MSTORE DUP1 PUSH1 0x12 DUP2 MSTORE PUSH1 0x20 ADD PUSH32 0x496E73756666696369656E742046756E64730000000000000000000000000000 DUP2 MSTORE POP PUSH1 0x3E PUSH1 0x0 PUSH1 0x54 PUSH1 0xFF AND DUP2 MSTORE PUSH1 0x20 ADD SWAP1 DUP2 MSTORE PUSH1 0x20 ADD PUSH1 0x0 KECCAK256 SWAP1 DUP1 MLOAD SWAP1 PUSH1 0x20 ADD SWAP1 PUSH3 0x1BA SWAP3 SWAP2 SWAP1 PUSH3 0x4CC JUMP JUMPDEST POP PUSH1 0x40 MLOAD DUP1 PUSH1 0x40 ADD PUSH1 0x40 MSTORE DUP1 PUSH1 0x8 DUP2 MSTORE PUSH1 0x20 ADD PUSH32 0x4E6F2046756E6473000000000000000000000000000000000000000000000000 DUP2 MSTORE POP PUSH1 0x3E PUSH1 0x0 PUSH1 0x59 PUSH1 0xFF AND DUP2 MSTORE PUSH1 0x20 ADD SWAP1 DUP2 MSTORE PUSH1 0x20 ADD PUSH1 0x0 KECCAK256 SWAP1 DUP1 MLOAD SWAP1 PUSH1 0x20 ADD SWAP1 PUSH3 0x21D SWAP3 SWAP2 SWAP1 PUSH3 0x4CC JUMP JUMPDEST POP PUSH1 0x40 MLOAD DUP1 PUSH1 0x40 ADD PUSH1 0x40 MSTORE DUP1 PUSH1 0x17 DUP2 MSTORE PUSH1 0x20 ADD PUSH32 0x5265636569766572206E6F74206964656E746966696564000000000000000000 DUP2 MSTORE POP PUSH1 0x3E PUSH1 0x0 PUSH1 0x5A PUSH1 0xFF AND DUP2 MSTORE PUSH1 0x20 ADD SWAP1 DUP2 MSTORE PUSH1 0x20 ADD PUSH1 0x0 KECCAK256 SWAP1 DUP1 MLOAD SWAP1 PUSH1 0x20 ADD SWAP1 PUSH3 0x280 SWAP3 SWAP2 SWAP1 PUSH3 0x4CC JUMP JUMPDEST POP PUSH1 0x40 MLOAD DUP1 PUSH1 0x40 ADD PUSH1 0x40 MSTORE DUP1 PUSH1 0xF DUP2 MSTORE PUSH1 0x20 ADD PUSH32 0x5472616E73666572205061757365640000000000000000000000000000000000 DUP2 MSTORE POP PUSH1 0x3E PUSH1 0x0 PUSH1 0x42 PUSH1 0xFF AND DUP2 MSTORE PUSH1 0x20 ADD SWAP1 DUP2 MSTORE PUSH1 0x20 ADD PUSH1 0x0 KECCAK256 SWAP1 DUP1 MLOAD SWAP1 PUSH1 0x20 ADD SWAP1 PUSH3 0x2E3 SWAP3 SWAP2 SWAP1 PUSH3 0x4CC JUMP JUMPDEST POP PUSH1 0x0 PUSH1 0x3F PUSH1 0x0 PUSH2 0x100 EXP DUP2 SLOAD DUP2 PUSH1 0xFF MUL NOT AND SWAP1 DUP4 ISZERO ISZERO MUL OR SWAP1 SSTORE POP DUP2 PUSH1 0x4A PUSH1 0x0 ADD SWAP1 DUP1 MLOAD SWAP1 PUSH1 0x20 ADD SWAP1 PUSH3 0x31A SWAP3 SWAP2 SWAP1 PUSH3 0x4CC JUMP JUMPDEST POP DUP1 PUSH1 0x4A PUSH1 0x1 ADD SWAP1 DUP1 MLOAD SWAP1 PUSH1 0x20 ADD SWAP1 PUSH3 0x336 SWAP3 SWAP2 SWAP1 PUSH3 0x4CC JUMP JUMPDEST POP CALLER PUSH1 0x48 PUSH1 0x0 PUSH2 0x100 EXP DUP2 SLOAD DUP2 PUSH20 0xFFFFFFFFFFFFFFFFFFFFFFFFFFFFFFFFFFFFFFFF MUL NOT AND SWAP1 DUP4 PUSH20 0xFFFFFFFFFFFFFFFFFFFFFFFFFFFFFFFFFFFFFFFF AND MUL OR SWAP1 SSTORE POP CALLER PUSH1 0x46 PUSH1 0x0 PUSH2 0x100 EXP DUP2 SLOAD DUP2 PUSH20 0xFFFFFFFFFFFFFFFFFFFFFFFFFFFFFFFFFFFFFFFF MUL NOT AND SWAP1 DUP4 PUSH20 0xFFFFFFFFFFFFFFFFFFFFFFFFFFFFFFFFFFFFFFFF AND MUL OR SWAP1 SSTORE POP PUSH32 0xB013723207A7DE0F794018980B89EEF7E65F56ED634098A03DF4DCB95D6348FD DUP3 DUP3 PUSH1 0x40 MLOAD PUSH3 0x3EC SWAP3 SWAP2 SWAP1 PUSH3 0x729 JUMP JUMPDEST PUSH1 0x40 MLOAD DUP1 SWAP2 SUB SWAP1 LOG1 POP POP POP POP PUSH3 0x904 JUMP JUMPDEST PUSH1 0x0 CALLER SWAP1 POP SWAP1 JUMP JUMPDEST PUSH1 0x0 PUSH1 0x3D PUSH1 0x0 SWAP1 SLOAD SWAP1 PUSH2 0x100 EXP SWAP1 DIV PUSH20 0xFFFFFFFFFFFFFFFFFFFFFFFFFFFFFFFFFFFFFFFF AND SWAP1 POP DUP2 PUSH1 0x3D PUSH1 0x0 PUSH2 0x100 EXP DUP2 SLOAD DUP2 PUSH20 0xFFFFFFFFFFFFFFFFFFFFFFFFFFFFFFFFFFFFFFFF MUL NOT AND SWAP1 DUP4 PUSH20 0xFFFFFFFFFFFFFFFFFFFFFFFFFFFFFFFFFFFFFFFF AND MUL OR SWAP1 SSTORE POP DUP2 PUSH20 0xFFFFFFFFFFFFFFFFFFFFFFFFFFFFFFFFFFFFFFFF AND DUP2 PUSH20 0xFFFFFFFFFFFFFFFFFFFFFFFFFFFFFFFFFFFFFFFF AND PUSH32 0x8BE0079C531659141344CD1FD0A4F28419497F9722A3DAAFE3B4186F6B6457E0 PUSH1 0x40 MLOAD PUSH1 0x40 MLOAD DUP1 SWAP2 SUB SWAP1 LOG3 POP POP JUMP JUMPDEST DUP3 DUP1 SLOAD PUSH3 0x4DA SWAP1 PUSH3 0x815 JUMP JUMPDEST SWAP1 PUSH1 0x0 MSTORE PUSH1 0x20 PUSH1 0x0 KECCAK256 SWAP1 PUSH1 0x1F ADD PUSH1 0x20 SWAP1 DIV DUP2 ADD SWAP3 DUP3 PUSH3 0x4FE JUMPI PUSH1 0x0 DUP6 SSTORE PUSH3 0x54A JUMP JUMPDEST DUP3 PUSH1 0x1F LT PUSH3 0x519 JUMPI DUP1 MLOAD PUSH1 0xFF NOT AND DUP4 DUP1 ADD OR DUP6 SSTORE PUSH3 0x54A JUMP JUMPDEST DUP3 DUP1 ADD PUSH1 0x1 ADD DUP6 SSTORE DUP3 ISZERO PUSH3 0x54A JUMPI SWAP2 DUP3 ADD JUMPDEST DUP3 DUP2 GT ISZERO PUSH3 0x549 JUMPI DUP3 MLOAD DUP3 SSTORE SWAP2 PUSH1 0x20 ADD SWAP2 SWAP1 PUSH1 0x1 ADD SWAP1 PUSH3 0x52C JUMP JUMPDEST JUMPDEST POP SWAP1 POP PUSH3 0x559 SWAP2 SWAP1 PUSH3 0x55D JUMP JUMPDEST POP SWAP1 JUMP JUMPDEST JUMPDEST DUP1 DUP3 GT ISZERO PUSH3 0x578 JUMPI PUSH1 0x0 DUP2 PUSH1 0x0 SWAP1 SSTORE POP PUSH1 0x1 ADD PUSH3 0x55E JUMP JUMPDEST POP SWAP1 JUMP JUMPDEST PUSH1 0x0 PUSH3 0x593 PUSH3 0x58D DUP5 PUSH3 0x78D JUMP JUMPDEST PUSH3 0x764 JUMP JUMPDEST SWAP1 POP DUP3 DUP2 MSTORE PUSH1 0x20 DUP2 ADD DUP5 DUP5 DUP5 ADD GT ISZERO PUSH3 0x5B2 JUMPI PUSH3 0x5B1 PUSH3 0x8E4 JUMP JUMPDEST JUMPDEST PUSH3 0x5BF DUP5 DUP3 DUP6 PUSH3 0x7DF JUMP JUMPDEST POP SWAP4 SWAP3 POP POP POP JUMP JUMPDEST PUSH1 0x0 DUP3 PUSH1 0x1F DUP4 ADD SLT PUSH3 0x5DF JUMPI PUSH3 0x5DE PUSH3 0x8DF JUMP JUMPDEST JUMPDEST DUP2 MLOAD PUSH3 0x5F1 DUP5 DUP3 PUSH1 0x20 DUP7 ADD PUSH3 0x57C JUMP JUMPDEST SWAP2 POP POP SWAP3 SWAP2 POP POP JUMP JUMPDEST PUSH1 0x0 DUP1 PUSH1 0x0 DUP1 PUSH1 0x80 DUP6 DUP8 SUB SLT ISZERO PUSH3 0x617 JUMPI PUSH3 0x616 PUSH3 0x8EE JUMP JUMPDEST JUMPDEST PUSH1 0x0 DUP6 ADD MLOAD PUSH8 0xFFFFFFFFFFFFFFFF DUP2 GT ISZERO PUSH3 0x638 JUMPI PUSH3 0x637 PUSH3 0x8E9 JUMP JUMPDEST JUMPDEST PUSH3 0x646 DUP8 DUP3 DUP9 ADD PUSH3 0x5C7 JUMP JUMPDEST SWAP5 POP POP PUSH1 0x20 DUP6 ADD MLOAD PUSH8 0xFFFFFFFFFFFFFFFF DUP2 GT ISZERO PUSH3 0x66A JUMPI PUSH3 0x669 PUSH3 0x8E9 JUMP JUMPDEST JUMPDEST PUSH3 0x678 DUP8 DUP3 DUP9 ADD PUSH3 0x5C7 JUMP JUMPDEST SWAP4 POP POP PUSH1 0x40 DUP6 ADD MLOAD PUSH8 0xFFFFFFFFFFFFFFFF DUP2 GT ISZERO PUSH3 0x69C JUMPI PUSH3 0x69B PUSH3 0x8E9 JUMP JUMPDEST JUMPDEST PUSH3 0x6AA DUP8 DUP3 DUP9 ADD PUSH3 0x5C7 JUMP JUMPDEST SWAP3 POP POP PUSH1 0x60 DUP6 ADD MLOAD PUSH8 0xFFFFFFFFFFFFFFFF DUP2 GT ISZERO PUSH3 0x6CE JUMPI PUSH3 0x6CD PUSH3 0x8E9 JUMP JUMPDEST JUMPDEST PUSH3 0x6DC DUP8 DUP3 DUP9 ADD PUSH3 0x5C7 JUMP JUMPDEST SWAP2 POP POP SWAP3 SWAP6 SWAP2 SWAP5 POP SWAP3 POP JUMP JUMPDEST PUSH1 0x0 PUSH3 0x6F5 DUP3 PUSH3 0x7C3 JUMP JUMPDEST PUSH3 0x701 DUP2 DUP6 PUSH3 0x7CE JUMP JUMPDEST SWAP4 POP PUSH3 0x713 DUP2 DUP6 PUSH1 0x20 DUP7 ADD PUSH3 0x7DF JUMP JUMPDEST PUSH3 0x71E DUP2 PUSH3 0x8F3 JUMP JUMPDEST DUP5 ADD SWAP2 POP POP SWAP3 SWAP2 POP POP JUMP JUMPDEST PUSH1 0x0 PUSH1 0x40 DUP3 ADD SWAP1 POP DUP2 DUP2 SUB PUSH1 0x0 DUP4 ADD MSTORE PUSH3 0x745 DUP2 DUP6 PUSH3 0x6E8 JUMP JUMPDEST SWAP1 POP DUP2 DUP2 SUB PUSH1 0x20 DUP4 ADD MSTORE PUSH3 0x75B DUP2 DUP5 PUSH3 0x6E8 JUMP JUMPDEST SWAP1 POP SWAP4 SWAP3 POP POP POP JUMP JUMPDEST PUSH1 0x0 PUSH3 0x770 PUSH3 0x783 JUMP JUMPDEST SWAP1 POP PUSH3 0x77E DUP3 DUP3 PUSH3 0x84B JUMP JUMPDEST SWAP2 SWAP1 POP JUMP JUMPDEST PUSH1 0x0 PUSH1 0x40 MLOAD SWAP1 POP SWAP1 JUMP JUMPDEST PUSH1 0x0 PUSH8 0xFFFFFFFFFFFFFFFF DUP3 GT ISZERO PUSH3 0x7AB JUMPI PUSH3 0x7AA PUSH3 0x8B0 JUMP JUMPDEST JUMPDEST PUSH3 0x7B6 DUP3 PUSH3 0x8F3 JUMP JUMPDEST SWAP1 POP PUSH1 0x20 DUP2 ADD SWAP1 POP SWAP2 SWAP1 POP JUMP JUMPDEST PUSH1 0x0 DUP2 MLOAD SWAP1 POP SWAP2 SWAP1 POP JUMP JUMPDEST PUSH1 0x0 DUP3 DUP3 MSTORE PUSH1 0x20 DUP3 ADD SWAP1 POP SWAP3 SWAP2 POP POP JUMP JUMPDEST PUSH1 0x0 JUMPDEST DUP4 DUP2 LT ISZERO PUSH3 0x7FF JUMPI DUP1 DUP3 ADD MLOAD DUP2 DUP5 ADD MSTORE PUSH1 0x20 DUP2 ADD SWAP1 POP PUSH3 0x7E2 JUMP JUMPDEST DUP4 DUP2 GT ISZERO PUSH3 0x80F JUMPI PUSH1 0x0 DUP5 DUP5 ADD MSTORE JUMPDEST POP POP POP POP JUMP JUMPDEST PUSH1 0x0 PUSH1 0x2 DUP3 DIV SWAP1 POP PUSH1 0x1 DUP3 AND DUP1 PUSH3 0x82E JUMPI PUSH1 0x7F DUP3 AND SWAP2 POP JUMPDEST PUSH1 0x20 DUP3 LT DUP2 EQ ISZERO PUSH3 0x845 JUMPI PUSH3 0x844 PUSH3 0x881 JUMP JUMPDEST JUMPDEST POP SWAP2 SWAP1 POP JUMP JUMPDEST PUSH3 0x856 DUP3 PUSH3 0x8F3 JUMP JUMPDEST DUP2 ADD DUP2 DUP2 LT PUSH8 0xFFFFFFFFFFFFFFFF DUP3 GT OR ISZERO PUSH3 0x878 JUMPI PUSH3 0x877 PUSH3 0x8B0 JUMP JUMPDEST JUMPDEST DUP1 PUSH1 0x40 MSTORE POP POP POP JUMP JUMPDEST PUSH32 0x4E487B7100000000000000000000000000000000000000000000000000000000 PUSH1 0x0 MSTORE PUSH1 0x22 PUSH1 0x4 MSTORE PUSH1 0x24 PUSH1 0x0 REVERT JUMPDEST PUSH32 0x4E487B7100000000000000000000000000000000000000000000000000000000 PUSH1 0x0 MSTORE PUSH1 0x41 PUSH1 0x4 MSTORE PUSH1 0x24 PUSH1 0x0 REVERT JUMPDEST PUSH1 0x0 DUP1 REVERT JUMPDEST PUSH1 0x0 DUP1 REVERT JUMPDEST PUSH1 0x0 DUP1 REVERT JUMPDEST PUSH1 0x0 DUP1 REVERT JUMPDEST PUSH1 0x0 PUSH1 0x1F NOT PUSH1 0x1F DUP4 ADD AND SWAP1 POP SWAP2 SWAP1 POP JUMP JUMPDEST PUSH2 0x73E8 DUP1 PUSH3 0x914 PUSH1 0x0 CODECOPY PUSH1 0x0 RETURN INVALID PUSH1 0x80 PUSH1 0x40 MSTORE CALLVALUE DUP1 ISZERO PUSH2 0x10 JUMPI PUSH1 0x0 DUP1 REVERT JUMPDEST POP PUSH1 0x4 CALLDATASIZE LT PUSH2 0x399 JUMPI PUSH1 0x0 CALLDATALOAD PUSH1 0xE0 SHR DUP1 PUSH4 0x88D695B2 GT PUSH2 0x1E9 JUMPI DUP1 PUSH4 0xCCACE0B0 GT PUSH2 0x10F JUMPI DUP1 PUSH4 0xDD62ED3E GT PUSH2 0xAD JUMPI DUP1 PUSH4 0xF2FDE38B GT PUSH2 0x7C JUMPI DUP1 PUSH4 0xF2FDE38B EQ PUSH2 0xAAA JUMPI DUP1 PUSH4 0xF87C0809 EQ PUSH2 0xAC6 JUMPI DUP1 PUSH4 0xFB78ED40 EQ PUSH2 0xAE4 JUMPI DUP1 PUSH4 0xFCF196B4 EQ PUSH2 0xB02 JUMPI PUSH2 0x399 JUMP JUMPDEST DUP1 PUSH4 0xDD62ED3E EQ PUSH2 0x9FC JUMPI DUP1 PUSH4 0xE20C35E5 EQ PUSH2 0xA2C JUMPI DUP1 PUSH4 0xE2358351 EQ PUSH2 0xA5C JUMPI DUP1 PUSH4 0xE46638E6 EQ PUSH2 0xA7A JUMPI PUSH2 0x399 JUMP JUMPDEST DUP1 PUSH4 0xD4CE1415 GT PUSH2 0xE9 JUMPI DUP1 PUSH4 0xD4CE1415 EQ PUSH2 0x974 JUMPI DUP1 PUSH4 0xD635D66E EQ PUSH2 0x9A4 JUMPI DUP1 PUSH4 0xDB006A75 EQ PUSH2 0x9C2 JUMPI DUP1 PUSH4 0xDCBF4305 EQ PUSH2 0x9DE JUMPI PUSH2 0x399 JUMP JUMPDEST DUP1 PUSH4 0xCCACE0B0 EQ PUSH2 0x909 JUMPI DUP1 PUSH4 0xCFF688F3 EQ PUSH2 0x925 JUMPI DUP1 PUSH4 0xD21268EF EQ PUSH2 0x944 JUMPI PUSH2 0x399 JUMP JUMPDEST DUP1 PUSH4 0xA69EE24F GT PUSH2 0x187 JUMPI DUP1 PUSH4 0xB71AFB09 GT PUSH2 0x156 JUMPI DUP1 PUSH4 0xB71AFB09 EQ PUSH2 0x899 JUMPI DUP1 PUSH4 0xC0EE0B8A EQ PUSH2 0x8B5 JUMPI DUP1 PUSH4 0xC6786E5A EQ PUSH2 0x8D1 JUMPI DUP1 PUSH4 0xCC872B66 EQ PUSH2 0x8ED JUMPI PUSH2 0x399 JUMP JUMPDEST DUP1 PUSH4 0xA69EE24F EQ PUSH2 0x813 JUMPI DUP1 PUSH4 0xA9059CBB EQ PUSH2 0x82F JUMPI DUP1 PUSH4 0xAB377DAA EQ PUSH2 0x85F JUMPI DUP1 PUSH4 0xAE6F1F32 EQ PUSH2 0x88F JUMPI PUSH2 0x399 JUMP JUMPDEST DUP1 PUSH4 0x9FCAFF50 GT PUSH2 0x1C3 JUMPI DUP1 PUSH4 0x9FCAFF50 EQ PUSH2 0x78D JUMPI DUP1 PUSH4 0xA312E155 EQ PUSH2 0x7AB JUMPI DUP1 PUSH4 0xA457C2D7 EQ PUSH2 0x7C7 JUMPI DUP1 PUSH4 0xA4A0A301 EQ PUSH2 0x7F7 JUMPI PUSH2 0x399 JUMP JUMPDEST DUP1 PUSH4 0x88D695B2 EQ PUSH2 0x735 JUMPI DUP1 PUSH4 0x8DA5CB5B EQ PUSH2 0x751 JUMPI DUP1 PUSH4 0x95D89B41 EQ PUSH2 0x76F JUMPI PUSH2 0x399 JUMP JUMPDEST DUP1 PUSH4 0x40B9C28A GT PUSH2 0x2CE JUMPI DUP1 PUSH4 0x699798BB GT PUSH2 0x26C JUMPI DUP1 PUSH4 0x715018A6 GT PUSH2 0x23B JUMPI DUP1 PUSH4 0x715018A6 EQ PUSH2 0x6D5 JUMPI DUP1 PUSH4 0x7F4AB1DD EQ PUSH2 0x6DF JUMPI DUP1 PUSH4 0x82E0FBAC EQ PUSH2 0x70F JUMPI DUP1 PUSH4 0x8456CB59 EQ PUSH2 0x72B JUMPI PUSH2 0x399 JUMP JUMPDEST DUP1 PUSH4 0x699798BB EQ PUSH2 0x663 JUMPI DUP1 PUSH4 0x6C11C21C EQ PUSH2 0x66D JUMPI DUP1 PUSH4 0x70A08231 EQ PUSH2 0x689 JUMPI DUP1 PUSH4 0x70EA07B8 EQ PUSH2 0x6B9 JUMPI PUSH2 0x399 JUMP JUMPDEST DUP1 PUSH4 0x5DC952F3 GT PUSH2 0x2A8 JUMPI DUP1 PUSH4 0x5DC952F3 EQ PUSH2 0x5C8 JUMPI DUP1 PUSH4 0x5EE7A942 EQ PUSH2 0x5E7 JUMPI DUP1 PUSH4 0x5FFF8CD3 EQ PUSH2 0x617 JUMPI DUP1 PUSH4 0x634DAF76 EQ PUSH2 0x633 JUMPI PUSH2 0x399 JUMP JUMPDEST DUP1 PUSH4 0x40B9C28A EQ PUSH2 0x570 JUMPI DUP1 PUSH4 0x4CD12DD7 EQ PUSH2 0x58E JUMPI DUP1 PUSH4 0x5C975ABB EQ PUSH2 0x5AA JUMPI PUSH2 0x399 JUMP JUMPDEST DUP1 PUSH4 0x246B72EC GT PUSH2 0x33B JUMPI DUP1 PUSH4 0x3013CE29 GT PUSH2 0x315 JUMPI DUP1 PUSH4 0x3013CE29 EQ PUSH2 0x4FA JUMPI DUP1 PUSH4 0x313CE567 EQ PUSH2 0x518 JUMPI DUP1 PUSH4 0x39509351 EQ PUSH2 0x536 JUMPI DUP1 PUSH4 0x3F4BA83A EQ PUSH2 0x566 JUMPI PUSH2 0x399 JUMP JUMPDEST DUP1 PUSH4 0x246B72EC EQ PUSH2 0x490 JUMPI DUP1 PUSH4 0x2613169C EQ PUSH2 0x4AE JUMPI DUP1 PUSH4 0x27AC0C58 EQ PUSH2 0x4DE JUMPI PUSH2 0x399 JUMP JUMPDEST DUP1 PUSH4 0xFF8CF9B GT PUSH2 0x377 JUMPI DUP1 PUSH4 0xFF8CF9B EQ PUSH2 0x408 JUMPI DUP1 PUSH4 0x10B3B159 EQ PUSH2 0x426 JUMPI DUP1 PUSH4 0x18160DDD EQ PUSH2 0x442 JUMPI DUP1 PUSH4 0x23B872DD EQ PUSH2 0x460 JUMPI PUSH2 0x399 JUMP JUMPDEST DUP1 PUSH4 0x67A8A70 EQ PUSH2 0x39E JUMPI DUP1 PUSH4 0x6FDDE03 EQ PUSH2 0x3BA JUMPI DUP1 PUSH4 0x95EA7B3 EQ PUSH2 0x3D8 JUMPI JUMPDEST PUSH1 0x0 DUP1 REVERT JUMPDEST PUSH2 0x3B8 PUSH1 0x4 DUP1 CALLDATASIZE SUB DUP2 ADD SWAP1 PUSH2 0x3B3 SWAP2 SWAP1 PUSH2 0x5723 JUMP JUMPDEST PUSH2 0xB20 JUMP JUMPDEST STOP JUMPDEST PUSH2 0x3C2 PUSH2 0xBDC JUMP JUMPDEST PUSH1 0x40 MLOAD PUSH2 0x3CF SWAP2 SWAP1 PUSH2 0x630D JUMP JUMPDEST PUSH1 0x40 MLOAD DUP1 SWAP2 SUB SWAP1 RETURN JUMPDEST PUSH2 0x3F2 PUSH1 0x4 DUP1 CALLDATASIZE SUB DUP2 ADD SWAP1 PUSH2 0x3ED SWAP2 SWAP1 PUSH2 0x5723 JUMP JUMPDEST PUSH2 0xC6E JUMP JUMPDEST PUSH1 0x40 MLOAD PUSH2 0x3FF SWAP2 SWAP1 PUSH2 0x6286 JUMP JUMPDEST PUSH1 0x40 MLOAD DUP1 SWAP2 SUB SWAP1 RETURN JUMPDEST PUSH2 0x410 PUSH2 0xC8A JUMP JUMPDEST PUSH1 0x40 MLOAD PUSH2 0x41D SWAP2 SWAP1 PUSH2 0x66A6 JUMP JUMPDEST PUSH1 0x40 MLOAD DUP1 SWAP2 SUB SWAP1 RETURN JUMPDEST PUSH2 0x440 PUSH1 0x4 DUP1 CALLDATASIZE SUB DUP2 ADD SWAP1 PUSH2 0x43B SWAP2 SWAP1 PUSH2 0x5623 JUMP JUMPDEST PUSH2 0xC90 JUMP JUMPDEST STOP JUMPDEST PUSH2 0x44A PUSH2 0xCDC JUMP JUMPDEST PUSH1 0x40 MLOAD PUSH2 0x457 SWAP2 SWAP1 PUSH2 0x66A6 JUMP JUMPDEST PUSH1 0x40 MLOAD DUP1 SWAP2 SUB SWAP1 RETURN JUMPDEST PUSH2 0x47A PUSH1 0x4 DUP1 CALLDATASIZE SUB DUP2 ADD SWAP1 PUSH2 0x475 SWAP2 SWAP1 PUSH2 0x5690 JUMP JUMPDEST PUSH2 0xCE6 JUMP JUMPDEST PUSH1 0x40 MLOAD PUSH2 0x487 SWAP2 SWAP1 PUSH2 0x6286 JUMP JUMPDEST PUSH1 0x40 MLOAD DUP1 SWAP2 SUB SWAP1 RETURN JUMPDEST PUSH2 0x498 PUSH2 0x1003 JUMP JUMPDEST PUSH1 0x40 MLOAD PUSH2 0x4A5 SWAP2 SWAP1 PUSH2 0x62A1 JUMP JUMPDEST PUSH1 0x40 MLOAD DUP1 SWAP2 SUB SWAP1 RETURN JUMPDEST PUSH2 0x4C8 PUSH1 0x4 DUP1 CALLDATASIZE SUB DUP2 ADD SWAP1 PUSH2 0x4C3 SWAP2 SWAP1 PUSH2 0x581F JUMP JUMPDEST PUSH2 0x1027 JUMP JUMPDEST PUSH1 0x40 MLOAD PUSH2 0x4D5 SWAP2 SWAP1 PUSH2 0x6242 JUMP JUMPDEST PUSH1 0x40 MLOAD DUP1 SWAP2 SUB SWAP1 RETURN JUMPDEST PUSH2 0x4F8 PUSH1 0x4 DUP1 CALLDATASIZE SUB DUP2 ADD SWAP1 PUSH2 0x4F3 SWAP2 SWAP1 PUSH2 0x55F6 JUMP JUMPDEST PUSH2 0x1041 JUMP JUMPDEST STOP JUMPDEST PUSH2 0x502 PUSH2 0x1055 JUMP JUMPDEST PUSH1 0x40 MLOAD PUSH2 0x50F SWAP2 SWAP1 PUSH2 0x62F2 JUMP JUMPDEST PUSH1 0x40 MLOAD DUP1 SWAP2 SUB SWAP1 RETURN JUMPDEST PUSH2 0x520 PUSH2 0x107B JUMP JUMPDEST PUSH1 0x40 MLOAD PUSH2 0x52D SWAP2 SWAP1 PUSH2 0x66EA JUMP JUMPDEST PUSH1 0x40 MLOAD DUP1 SWAP2 SUB SWAP1 RETURN JUMPDEST PUSH2 0x550 PUSH1 0x4 DUP1 CALLDATASIZE SUB DUP2 ADD SWAP1 PUSH2 0x54B SWAP2 SWAP1 PUSH2 0x5723 JUMP JUMPDEST PUSH2 0x1080 JUMP JUMPDEST PUSH1 0x40 MLOAD PUSH2 0x55D SWAP2 SWAP1 PUSH2 0x6286 JUMP JUMPDEST PUSH1 0x40 MLOAD DUP1 SWAP2 SUB SWAP1 RETURN JUMPDEST PUSH2 0x56E PUSH2 0x109C JUMP JUMPDEST STOP JUMPDEST PUSH2 0x578 PUSH2 0x111B JUMP JUMPDEST PUSH1 0x40 MLOAD PUSH2 0x585 SWAP2 SWAP1 PUSH2 0x617C JUMP JUMPDEST PUSH1 0x40 MLOAD DUP1 SWAP2 SUB SWAP1 RETURN JUMPDEST PUSH2 0x5A8 PUSH1 0x4 DUP1 CALLDATASIZE SUB DUP2 ADD SWAP1 PUSH2 0x5A3 SWAP2 SWAP1 PUSH2 0x581F JUMP JUMPDEST PUSH2 0x114D JUMP JUMPDEST STOP JUMPDEST PUSH2 0x5B2 PUSH2 0x11EA JUMP JUMPDEST PUSH1 0x40 MLOAD PUSH2 0x5BF SWAP2 SWAP1 PUSH2 0x6286 JUMP JUMPDEST PUSH1 0x40 MLOAD DUP1 SWAP2 SUB SWAP1 RETURN JUMPDEST PUSH2 0x5D0 PUSH2 0x1201 JUMP JUMPDEST PUSH1 0x40 MLOAD PUSH2 0x5DE SWAP3 SWAP2 SWAP1 PUSH2 0x632F JUMP JUMPDEST PUSH1 0x40 MLOAD DUP1 SWAP2 SUB SWAP1 RETURN JUMPDEST PUSH2 0x601 PUSH1 0x4 DUP1 CALLDATASIZE SUB DUP2 ADD SWAP1 PUSH2 0x5FC SWAP2 SWAP1 PUSH2 0x5A73 JUMP JUMPDEST PUSH2 0x132E JUMP JUMPDEST PUSH1 0x40 MLOAD PUSH2 0x60E SWAP2 SWAP1 PUSH2 0x66A6 JUMP JUMPDEST PUSH1 0x40 MLOAD DUP1 SWAP2 SUB SWAP1 RETURN JUMPDEST PUSH2 0x631 PUSH1 0x4 DUP1 CALLDATASIZE SUB DUP2 ADD SWAP1 PUSH2 0x62C SWAP2 SWAP1 PUSH2 0x5650 JUMP JUMPDEST PUSH2 0x135F JUMP JUMPDEST STOP JUMPDEST PUSH2 0x64D PUSH1 0x4 DUP1 CALLDATASIZE SUB DUP2 ADD SWAP1 PUSH2 0x648 SWAP2 SWAP1 PUSH2 0x5ACD JUMP JUMPDEST PUSH2 0x189E JUMP JUMPDEST PUSH1 0x40 MLOAD PUSH2 0x65A SWAP2 SWAP1 PUSH2 0x66A6 JUMP JUMPDEST PUSH1 0x40 MLOAD DUP1 SWAP2 SUB SWAP1 RETURN JUMPDEST PUSH2 0x66B PUSH2 0x190E JUMP JUMPDEST STOP JUMPDEST PUSH2 0x687 PUSH1 0x4 DUP1 CALLDATASIZE SUB DUP2 ADD SWAP1 PUSH2 0x682 SWAP2 SWAP1 PUSH2 0x55F6 JUMP JUMPDEST PUSH2 0x195A JUMP JUMPDEST STOP JUMPDEST PUSH2 0x6A3 PUSH1 0x4 DUP1 CALLDATASIZE SUB DUP2 ADD SWAP1 PUSH2 0x69E SWAP2 SWAP1 PUSH2 0x55F6 JUMP JUMPDEST PUSH2 0x19A6 JUMP JUMPDEST PUSH1 0x40 MLOAD PUSH2 0x6B0 SWAP2 SWAP1 PUSH2 0x66A6 JUMP JUMPDEST PUSH1 0x40 MLOAD DUP1 SWAP2 SUB SWAP1 RETURN JUMPDEST PUSH2 0x6D3 PUSH1 0x4 DUP1 CALLDATASIZE SUB DUP2 ADD SWAP1 PUSH2 0x6CE SWAP2 SWAP1 PUSH2 0x58E0 JUMP JUMPDEST PUSH2 0x19EE JUMP JUMPDEST STOP JUMPDEST PUSH2 0x6DD PUSH2 0x1AC0 JUMP JUMPDEST STOP JUMPDEST PUSH2 0x6F9 PUSH1 0x4 DUP1 CALLDATASIZE SUB DUP2 ADD SWAP1 PUSH2 0x6F4 SWAP2 SWAP1 PUSH2 0x5B4D JUMP JUMPDEST PUSH2 0x1AD4 JUMP JUMPDEST PUSH1 0x40 MLOAD PUSH2 0x706 SWAP2 SWAP1 PUSH2 0x630D JUMP JUMPDEST PUSH1 0x40 MLOAD DUP1 SWAP2 SUB SWAP1 RETURN JUMPDEST PUSH2 0x729 PUSH1 0x4 DUP1 CALLDATASIZE SUB DUP2 ADD SWAP1 PUSH2 0x724 SWAP2 SWAP1 PUSH2 0x59FB JUMP JUMPDEST PUSH2 0x1CF7 JUMP JUMPDEST STOP JUMPDEST PUSH2 0x733 PUSH2 0x1D84 JUMP JUMPDEST STOP JUMPDEST PUSH2 0x74F PUSH1 0x4 DUP1 CALLDATASIZE SUB DUP2 ADD SWAP1 PUSH2 0x74A SWAP2 SWAP1 PUSH2 0x5868 JUMP JUMPDEST PUSH2 0x1E03 JUMP JUMPDEST STOP JUMPDEST PUSH2 0x759 PUSH2 0x20F3 JUMP JUMPDEST PUSH1 0x40 MLOAD PUSH2 0x766 SWAP2 SWAP1 PUSH2 0x617C JUMP JUMPDEST PUSH1 0x40 MLOAD DUP1 SWAP2 SUB SWAP1 RETURN JUMPDEST PUSH2 0x777 PUSH2 0x211D JUMP JUMPDEST PUSH1 0x40 MLOAD PUSH2 0x784 SWAP2 SWAP1 PUSH2 0x630D JUMP JUMPDEST PUSH1 0x40 MLOAD DUP1 SWAP2 SUB SWAP1 RETURN JUMPDEST PUSH2 0x795 PUSH2 0x21AF JUMP JUMPDEST PUSH1 0x40 MLOAD PUSH2 0x7A2 SWAP2 SWAP1 PUSH2 0x62BC JUMP JUMPDEST PUSH1 0x40 MLOAD DUP1 SWAP2 SUB SWAP1 RETURN JUMPDEST PUSH2 0x7C5 PUSH1 0x4 DUP1 CALLDATASIZE SUB DUP2 ADD SWAP1 PUSH2 0x7C0 SWAP2 SWAP1 PUSH2 0x5A73 JUMP JUMPDEST PUSH2 0x2203 JUMP JUMPDEST STOP JUMPDEST PUSH2 0x7E1 PUSH1 0x4 DUP1 CALLDATASIZE SUB DUP2 ADD SWAP1 PUSH2 0x7DC SWAP2 SWAP1 PUSH2 0x5723 JUMP JUMPDEST PUSH2 0x2285 JUMP JUMPDEST PUSH1 0x40 MLOAD PUSH2 0x7EE SWAP2 SWAP1 PUSH2 0x6286 JUMP JUMPDEST PUSH1 0x40 MLOAD DUP1 SWAP2 SUB SWAP1 RETURN JUMPDEST PUSH2 0x811 PUSH1 0x4 DUP1 CALLDATASIZE SUB DUP2 ADD SWAP1 PUSH2 0x80C SWAP2 SWAP1 PUSH2 0x5985 JUMP JUMPDEST PUSH2 0x22A1 JUMP JUMPDEST STOP JUMPDEST PUSH2 0x82D PUSH1 0x4 DUP1 CALLDATASIZE SUB DUP2 ADD SWAP1 PUSH2 0x828 SWAP2 SWAP1 PUSH2 0x5A73 JUMP JUMPDEST PUSH2 0x2330 JUMP JUMPDEST STOP JUMPDEST PUSH2 0x849 PUSH1 0x4 DUP1 CALLDATASIZE SUB DUP2 ADD SWAP1 PUSH2 0x844 SWAP2 SWAP1 PUSH2 0x5723 JUMP JUMPDEST PUSH2 0x24E8 JUMP JUMPDEST PUSH1 0x40 MLOAD PUSH2 0x856 SWAP2 SWAP1 PUSH2 0x6286 JUMP JUMPDEST PUSH1 0x40 MLOAD DUP1 SWAP2 SUB SWAP1 RETURN JUMPDEST PUSH2 0x879 PUSH1 0x4 DUP1 CALLDATASIZE SUB DUP2 ADD SWAP1 PUSH2 0x874 SWAP2 SWAP1 PUSH2 0x5A73 JUMP JUMPDEST PUSH2 0x2803 JUMP JUMPDEST PUSH1 0x40 MLOAD PUSH2 0x886 SWAP2 SWAP1 PUSH2 0x617C JUMP JUMPDEST PUSH1 0x40 MLOAD DUP1 SWAP2 SUB SWAP1 RETURN JUMPDEST PUSH2 0x897 PUSH2 0x2842 JUMP JUMPDEST STOP JUMPDEST PUSH2 0x8B3 PUSH1 0x4 DUP1 CALLDATASIZE SUB DUP2 ADD SWAP1 PUSH2 0x8AE SWAP2 SWAP1 PUSH2 0x56E3 JUMP JUMPDEST PUSH2 0x288E JUMP JUMPDEST STOP JUMPDEST PUSH2 0x8CF PUSH1 0x4 DUP1 CALLDATASIZE SUB DUP2 ADD SWAP1 PUSH2 0x8CA SWAP2 SWAP1 PUSH2 0x5763 JUMP JUMPDEST PUSH2 0x2930 JUMP JUMPDEST STOP JUMPDEST PUSH2 0x8EB PUSH1 0x4 DUP1 CALLDATASIZE SUB DUP2 ADD SWAP1 PUSH2 0x8E6 SWAP2 SWAP1 PUSH2 0x57D2 JUMP JUMPDEST PUSH2 0x2AE5 JUMP JUMPDEST STOP JUMPDEST PUSH2 0x907 PUSH1 0x4 DUP1 CALLDATASIZE SUB DUP2 ADD SWAP1 PUSH2 0x902 SWAP2 SWAP1 PUSH2 0x5A73 JUMP JUMPDEST PUSH2 0x2E46 JUMP JUMPDEST STOP JUMPDEST PUSH2 0x923 PUSH1 0x4 DUP1 CALLDATASIZE SUB DUP2 ADD SWAP1 PUSH2 0x91E SWAP2 SWAP1 PUSH2 0x55F6 JUMP JUMPDEST PUSH2 0x2EFF JUMP JUMPDEST STOP JUMPDEST PUSH2 0x92D PUSH2 0x2F4B JUMP JUMPDEST PUSH1 0x40 MLOAD PUSH2 0x93B SWAP3 SWAP2 SWAP1 PUSH2 0x632F JUMP JUMPDEST PUSH1 0x40 MLOAD DUP1 SWAP2 SUB SWAP1 RETURN JUMPDEST PUSH2 0x95E PUSH1 0x4 DUP1 CALLDATASIZE SUB DUP2 ADD SWAP1 PUSH2 0x959 SWAP2 SWAP1 PUSH2 0x5B0D JUMP JUMPDEST PUSH2 0x306D JUMP JUMPDEST PUSH1 0x40 MLOAD PUSH2 0x96B SWAP2 SWAP1 PUSH2 0x66A6 JUMP JUMPDEST PUSH1 0x40 MLOAD DUP1 SWAP2 SUB SWAP1 RETURN JUMPDEST PUSH2 0x98E PUSH1 0x4 DUP1 CALLDATASIZE SUB DUP2 ADD SWAP1 PUSH2 0x989 SWAP2 SWAP1 PUSH2 0x5690 JUMP JUMPDEST PUSH2 0x30F6 JUMP JUMPDEST PUSH1 0x40 MLOAD PUSH2 0x99B SWAP2 SWAP1 PUSH2 0x66EA JUMP JUMPDEST PUSH1 0x40 MLOAD DUP1 SWAP2 SUB SWAP1 RETURN JUMPDEST PUSH2 0x9AC PUSH2 0x329F JUMP JUMPDEST PUSH1 0x40 MLOAD PUSH2 0x9B9 SWAP2 SWAP1 PUSH2 0x6264 JUMP JUMPDEST PUSH1 0x40 MLOAD DUP1 SWAP2 SUB SWAP1 RETURN JUMPDEST PUSH2 0x9DC PUSH1 0x4 DUP1 CALLDATASIZE SUB DUP2 ADD SWAP1 PUSH2 0x9D7 SWAP2 SWAP1 PUSH2 0x5A73 JUMP JUMPDEST PUSH2 0x32F7 JUMP JUMPDEST STOP JUMPDEST PUSH2 0x9E6 PUSH2 0x3454 JUMP JUMPDEST PUSH1 0x40 MLOAD PUSH2 0x9F3 SWAP2 SWAP1 PUSH2 0x617C JUMP JUMPDEST PUSH1 0x40 MLOAD DUP1 SWAP2 SUB SWAP1 RETURN JUMPDEST PUSH2 0xA16 PUSH1 0x4 DUP1 CALLDATASIZE SUB DUP2 ADD SWAP1 PUSH2 0xA11 SWAP2 SWAP1 PUSH2 0x5650 JUMP JUMPDEST PUSH2 0x3486 JUMP JUMPDEST PUSH1 0x40 MLOAD PUSH2 0xA23 SWAP2 SWAP1 PUSH2 0x66A6 JUMP JUMPDEST PUSH1 0x40 MLOAD DUP1 SWAP2 SUB SWAP1 RETURN JUMPDEST PUSH2 0xA46 PUSH1 0x4 DUP1 CALLDATASIZE SUB DUP2 ADD SWAP1 PUSH2 0xA41 SWAP2 SWAP1 PUSH2 0x5A73 JUMP JUMPDEST PUSH2 0x350D JUMP JUMPDEST PUSH1 0x40 MLOAD PUSH2 0xA53 SWAP2 SWAP1 PUSH2 0x66A6 JUMP JUMPDEST PUSH1 0x40 MLOAD DUP1 SWAP2 SUB SWAP1 RETURN JUMPDEST PUSH2 0xA64 PUSH2 0x3594 JUMP JUMPDEST PUSH1 0x40 MLOAD PUSH2 0xA71 SWAP2 SWAP1 PUSH2 0x6286 JUMP JUMPDEST PUSH1 0x40 MLOAD DUP1 SWAP2 SUB SWAP1 RETURN JUMPDEST PUSH2 0xA94 PUSH1 0x4 DUP1 CALLDATASIZE SUB DUP2 ADD SWAP1 PUSH2 0xA8F SWAP2 SWAP1 PUSH2 0x5690 JUMP JUMPDEST PUSH2 0x37E8 JUMP JUMPDEST PUSH1 0x40 MLOAD PUSH2 0xAA1 SWAP2 SWAP1 PUSH2 0x6286 JUMP JUMPDEST PUSH1 0x40 MLOAD DUP1 SWAP2 SUB SWAP1 RETURN JUMPDEST PUSH2 0xAC4 PUSH1 0x4 DUP1 CALLDATASIZE SUB DUP2 ADD SWAP1 PUSH2 0xABF SWAP2 SWAP1 PUSH2 0x55F6 JUMP JUMPDEST PUSH2 0x3991 JUMP JUMPDEST STOP JUMPDEST PUSH2 0xACE PUSH2 0x3A15 JUMP JUMPDEST PUSH1 0x40 MLOAD PUSH2 0xADB SWAP2 SWAP1 PUSH2 0x617C JUMP JUMPDEST PUSH1 0x40 MLOAD DUP1 SWAP2 SUB SWAP1 RETURN JUMPDEST PUSH2 0xAEC PUSH2 0x3A2C JUMP JUMPDEST PUSH1 0x40 MLOAD PUSH2 0xAF9 SWAP2 SWAP1 PUSH2 0x6264 JUMP JUMPDEST PUSH1 0x40 MLOAD DUP1 SWAP2 SUB SWAP1 RETURN JUMPDEST PUSH2 0xB0A PUSH2 0x3A84 JUMP JUMPDEST PUSH1 0x40 MLOAD PUSH2 0xB17 SWAP2 SWAP1 PUSH2 0x62D7 JUMP JUMPDEST PUSH1 0x40 MLOAD DUP1 SWAP2 SUB SWAP1 RETURN JUMPDEST PUSH2 0xB28 PUSH2 0x3AAA JUMP JUMPDEST PUSH1 0x49 PUSH1 0x0 SWAP1 SLOAD SWAP1 PUSH2 0x100 EXP SWAP1 DIV PUSH20 0xFFFFFFFFFFFFFFFFFFFFFFFFFFFFFFFFFFFFFFFF AND PUSH20 0xFFFFFFFFFFFFFFFFFFFFFFFFFFFFFFFFFFFFFFFF AND PUSH4 0x95EA7B3 DUP4 DUP4 PUSH1 0x40 MLOAD DUP4 PUSH4 0xFFFFFFFF AND PUSH1 0xE0 SHL DUP2 MSTORE PUSH1 0x4 ADD PUSH2 0xB85 SWAP3 SWAP2 SWAP1 PUSH2 0x61F7 JUMP JUMPDEST PUSH1 0x20 PUSH1 0x40 MLOAD DUP1 DUP4 SUB DUP2 PUSH1 0x0 DUP8 DUP1 EXTCODESIZE ISZERO DUP1 ISZERO PUSH2 0xB9F JUMPI PUSH1 0x0 DUP1 REVERT JUMPDEST POP GAS CALL ISZERO DUP1 ISZERO PUSH2 0xBB3 JUMPI RETURNDATASIZE PUSH1 0x0 DUP1 RETURNDATACOPY RETURNDATASIZE PUSH1 0x0 REVERT JUMPDEST POP POP POP POP PUSH1 0x40 MLOAD RETURNDATASIZE PUSH1 0x1F NOT PUSH1 0x1F DUP3 ADD AND DUP3 ADD DUP1 PUSH1 0x40 MSTORE POP DUP2 ADD SWAP1 PUSH2 0xBD7 SWAP2 SWAP1 PUSH2 0x5958 JUMP JUMPDEST POP POP POP JUMP JUMPDEST PUSH1 0x60 PUSH1 0x3 DUP1 SLOAD PUSH2 0xBEB SWAP1 PUSH2 0x6B88 JUMP JUMPDEST DUP1 PUSH1 0x1F ADD PUSH1 0x20 DUP1 SWAP2 DIV MUL PUSH1 0x20 ADD PUSH1 0x40 MLOAD SWAP1 DUP2 ADD PUSH1 0x40 MSTORE DUP1 SWAP3 SWAP2 SWAP1 DUP2 DUP2 MSTORE PUSH1 0x20 ADD DUP3 DUP1 SLOAD PUSH2 0xC17 SWAP1 PUSH2 0x6B88 JUMP JUMPDEST DUP1 ISZERO PUSH2 0xC64 JUMPI DUP1 PUSH1 0x1F LT PUSH2 0xC39 JUMPI PUSH2 0x100 DUP1 DUP4 SLOAD DIV MUL DUP4 MSTORE SWAP2 PUSH1 0x20 ADD SWAP2 PUSH2 0xC64 JUMP JUMPDEST DUP3 ADD SWAP2 SWAP1 PUSH1 0x0 MSTORE PUSH1 0x20 PUSH1 0x0 KECCAK256 SWAP1 JUMPDEST DUP2 SLOAD DUP2 MSTORE SWAP1 PUSH1 0x1 ADD SWAP1 PUSH1 0x20 ADD DUP1 DUP4 GT PUSH2 0xC47 JUMPI DUP3 SWAP1 SUB PUSH1 0x1F AND DUP3 ADD SWAP2 JUMPDEST POP POP POP POP POP SWAP1 POP SWAP1 JUMP JUMPDEST PUSH1 0x0 PUSH2 0xC78 PUSH2 0x3B28 JUMP JUMPDEST PUSH2 0xC82 DUP4 DUP4 PUSH2 0x3B72 JUMP JUMPDEST SWAP1 POP SWAP3 SWAP2 POP POP JUMP JUMPDEST PUSH1 0x44 SLOAD DUP2 JUMP JUMPDEST PUSH2 0xC98 PUSH2 0x3AAA JUMP JUMPDEST DUP1 PUSH1 0x49 PUSH1 0x0 PUSH2 0x100 EXP DUP2 SLOAD DUP2 PUSH20 0xFFFFFFFFFFFFFFFFFFFFFFFFFFFFFFFFFFFFFFFF MUL NOT AND SWAP1 DUP4 PUSH20 0xFFFFFFFFFFFFFFFFFFFFFFFFFFFFFFFFFFFFFFFF AND MUL OR SWAP1 SSTORE POP POP JUMP JUMPDEST PUSH1 0x0 PUSH1 0x2 SLOAD SWAP1 POP SWAP1 JUMP JUMPDEST PUSH1 0x0 DUP3 PUSH1 0x0 PUSH1 0x42 PUSH1 0x0 DUP4 PUSH20 0xFFFFFFFFFFFFFFFFFFFFFFFFFFFFFFFFFFFFFFFF AND PUSH20 0xFFFFFFFFFFFFFFFFFFFFFFFFFFFFFFFFFFFFFFFF AND DUP2 MSTORE PUSH1 0x20 ADD SWAP1 DUP2 MSTORE PUSH1 0x20 ADD PUSH1 0x0 KECCAK256 PUSH1 0x0 SWAP1 SLOAD SWAP1 PUSH2 0x100 EXP SWAP1 DIV PUSH1 0xC0 SHL PUSH24 0xFFFFFFFFFFFFFFFFFFFFFFFFFFFFFFFFFFFFFFFFFFFFFFFF NOT AND EQ ISZERO PUSH2 0xD94 JUMPI PUSH1 0x40 MLOAD PUSH32 0x8C379A000000000000000000000000000000000000000000000000000000000 DUP2 MSTORE PUSH1 0x4 ADD PUSH2 0xD8B SWAP1 PUSH2 0x6546 JUMP JUMPDEST PUSH1 0x40 MLOAD DUP1 SWAP2 SUB SWAP1 REVERT JUMPDEST PUSH2 0xD9C PUSH2 0x3B28 JUMP JUMPDEST PUSH1 0x0 PUSH20 0xFFFFFFFFFFFFFFFFFFFFFFFFFFFFFFFFFFFFFFFF AND PUSH1 0x43 PUSH1 0x0 SWAP1 SLOAD SWAP1 PUSH2 0x100 EXP SWAP1 DIV PUSH20 0xFFFFFFFFFFFFFFFFFFFFFFFFFFFFFFFFFFFFFFFF AND PUSH20 0xFFFFFFFFFFFFFFFFFFFFFFFFFFFFFFFFFFFFFFFF AND EQ PUSH2 0xEE1 JUMPI PUSH1 0x43 PUSH1 0x0 SWAP1 SLOAD SWAP1 PUSH2 0x100 EXP SWAP1 DIV PUSH20 0xFFFFFFFFFFFFFFFFFFFFFFFFFFFFFFFFFFFFFFFF AND PUSH20 0xFFFFFFFFFFFFFFFFFFFFFFFFFFFFFFFFFFFFFFFF AND PUSH4 0xC6946A12 DUP7 DUP7 DUP7 PUSH1 0x40 MLOAD DUP5 PUSH4 0xFFFFFFFF AND PUSH1 0xE0 SHL DUP2 MSTORE PUSH1 0x4 ADD PUSH2 0xE51 SWAP4 SWAP3 SWAP2 SWAP1 PUSH2 0x61C0 JUMP JUMPDEST PUSH1 0x20 PUSH1 0x40 MLOAD DUP1 DUP4 SUB DUP2 DUP7 DUP1 EXTCODESIZE ISZERO DUP1 ISZERO PUSH2 0xE69 JUMPI PUSH1 0x0 DUP1 REVERT JUMPDEST POP GAS STATICCALL ISZERO DUP1 ISZERO PUSH2 0xE7D JUMPI RETURNDATASIZE PUSH1 0x0 DUP1 RETURNDATACOPY RETURNDATASIZE PUSH1 0x0 REVERT JUMPDEST POP POP POP POP PUSH1 0x40 MLOAD RETURNDATASIZE PUSH1 0x1F NOT PUSH1 0x1F DUP3 ADD AND DUP3 ADD DUP1 PUSH1 0x40 MSTORE POP DUP2 ADD SWAP1 PUSH2 0xEA1 SWAP2 SWAP1 PUSH2 0x5958 JUMP JUMPDEST PUSH2 0xEE0 JUMPI PUSH1 0x40 MLOAD PUSH32 0x8C379A000000000000000000000000000000000000000000000000000000000 DUP2 MSTORE PUSH1 0x4 ADD PUSH2 0xED7 SWAP1 PUSH2 0x6366 JUMP JUMPDEST PUSH1 0x40 MLOAD DUP1 SWAP2 SUB SWAP1 REVERT JUMPDEST JUMPDEST PUSH1 0x41 PUSH1 0x0 DUP6 PUSH20 0xFFFFFFFFFFFFFFFFFFFFFFFFFFFFFFFFFFFFFFFF AND PUSH20 0xFFFFFFFFFFFFFFFFFFFFFFFFFFFFFFFFFFFFFFFF AND DUP2 MSTORE PUSH1 0x20 ADD SWAP1 DUP2 MSTORE PUSH1 0x20 ADD PUSH1 0x0 KECCAK256 PUSH1 0x0 SWAP1 SLOAD SWAP1 PUSH2 0x100 EXP SWAP1 DIV PUSH1 0xFF AND PUSH2 0xFEE JUMPI PUSH1 0x1 PUSH1 0x41 PUSH1 0x0 DUP7 PUSH20 0xFFFFFFFFFFFFFFFFFFFFFFFFFFFFFFFFFFFFFFFF AND PUSH20 0xFFFFFFFFFFFFFFFFFFFFFFFFFFFFFFFFFFFFFFFF AND DUP2 MSTORE PUSH1 0x20 ADD SWAP1 DUP2 MSTORE PUSH1 0x20 ADD PUSH1 0x0 KECCAK256 PUSH1 0x0 PUSH2 0x100 EXP DUP2 SLOAD DUP2 PUSH1 0xFF MUL NOT AND SWAP1 DUP4 ISZERO ISZERO MUL OR SWAP1 SSTORE POP PUSH1 0x40 DUP5 SWAP1 DUP1 PUSH1 0x1 DUP2 SLOAD ADD DUP1 DUP3 SSTORE DUP1 SWAP2 POP POP PUSH1 0x1 SWAP1 SUB SWAP1 PUSH1 0x0 MSTORE PUSH1 0x20 PUSH1 0x0 KECCAK256 ADD PUSH1 0x0 SWAP1 SWAP2 SWAP1 SWAP2 SWAP1 SWAP2 PUSH2 0x100 EXP DUP2 SLOAD DUP2 PUSH20 0xFFFFFFFFFFFFFFFFFFFFFFFFFFFFFFFFFFFFFFFF MUL NOT AND SWAP1 DUP4 PUSH20 0xFFFFFFFFFFFFFFFFFFFFFFFFFFFFFFFFFFFFFFFF AND MUL OR SWAP1 SSTORE POP JUMPDEST PUSH2 0xFF9 DUP6 DUP6 DUP6 PUSH2 0x3B95 JUMP JUMPDEST SWAP2 POP POP SWAP4 SWAP3 POP POP POP JUMP JUMPDEST PUSH32 0x809A0FC49FC0600540F1D39E23454E1F6F215BC7505FA22B17C154616570DDEF DUP2 JUMP JUMPDEST PUSH1 0x60 PUSH2 0x1031 PUSH2 0x3AAA JUMP JUMPDEST PUSH2 0x103A DUP3 PUSH2 0x3BC4 JUMP JUMPDEST SWAP1 POP SWAP2 SWAP1 POP JUMP JUMPDEST PUSH2 0x1049 PUSH2 0x3AAA JUMP JUMPDEST PUSH2 0x1052 DUP2 PUSH2 0x3991 JUMP JUMPDEST POP JUMP JUMPDEST PUSH1 0x49 PUSH1 0x0 SWAP1 SLOAD SWAP1 PUSH2 0x100 EXP SWAP1 DIV PUSH20 0xFFFFFFFFFFFFFFFFFFFFFFFFFFFFFFFFFFFFFFFF AND DUP2 JUMP JUMPDEST PUSH1 0x0 SWAP1 JUMP JUMPDEST PUSH1 0x0 PUSH2 0x108A PUSH2 0x3B28 JUMP JUMPDEST PUSH2 0x1094 DUP4 DUP4 PUSH2 0x3CFB JUMP JUMPDEST SWAP1 POP SWAP3 SWAP2 POP POP JUMP JUMPDEST PUSH2 0x10A4 PUSH2 0x3454 JUMP JUMPDEST PUSH20 0xFFFFFFFFFFFFFFFFFFFFFFFFFFFFFFFFFFFFFFFF AND CALLER PUSH20 0xFFFFFFFFFFFFFFFFFFFFFFFFFFFFFFFFFFFFFFFF AND EQ PUSH2 0x1111 JUMPI PUSH1 0x40 MLOAD PUSH32 0x8C379A000000000000000000000000000000000000000000000000000000000 DUP2 MSTORE PUSH1 0x4 ADD PUSH2 0x1108 SWAP1 PUSH2 0x6526 JUMP JUMPDEST PUSH1 0x40 MLOAD DUP1 SWAP2 SUB SWAP1 REVERT JUMPDEST PUSH2 0x1119 PUSH2 0x3D32 JUMP JUMPDEST JUMP JUMPDEST PUSH1 0x0 PUSH2 0x1125 PUSH2 0x3AAA JUMP JUMPDEST PUSH1 0x46 PUSH1 0x0 SWAP1 SLOAD SWAP1 PUSH2 0x100 EXP SWAP1 DIV PUSH20 0xFFFFFFFFFFFFFFFFFFFFFFFFFFFFFFFFFFFFFFFF AND SWAP1 POP SWAP1 JUMP JUMPDEST PUSH2 0x1155 PUSH2 0x3AAA JUMP JUMPDEST PUSH1 0x0 JUMPDEST DUP2 MLOAD DUP2 LT ISZERO PUSH2 0x11E6 JUMPI PUSH1 0x1 PUSH1 0x45 PUSH1 0x0 DUP5 DUP5 DUP2 MLOAD DUP2 LT PUSH2 0x117A JUMPI PUSH2 0x1179 PUSH2 0x6D0A JUMP JUMPDEST JUMPDEST PUSH1 0x20 MUL PUSH1 0x20 ADD ADD MLOAD PUSH20 0xFFFFFFFFFFFFFFFFFFFFFFFFFFFFFFFFFFFFFFFF AND PUSH20 0xFFFFFFFFFFFFFFFFFFFFFFFFFFFFFFFFFFFFFFFF AND DUP2 MSTORE PUSH1 0x20 ADD SWAP1 DUP2 MSTORE PUSH1 0x20 ADD PUSH1 0x0 KECCAK256 PUSH1 0x0 PUSH2 0x100 EXP DUP2 SLOAD DUP2 PUSH1 0xFF MUL NOT AND SWAP1 DUP4 ISZERO ISZERO MUL OR SWAP1 SSTORE POP DUP1 DUP1 PUSH2 0x11DE SWAP1 PUSH2 0x6C05 JUMP JUMPDEST SWAP2 POP POP PUSH2 0x1158 JUMP JUMPDEST POP POP JUMP JUMPDEST PUSH1 0x0 PUSH1 0x3F PUSH1 0x0 SWAP1 SLOAD SWAP1 PUSH2 0x100 EXP SWAP1 DIV PUSH1 0xFF AND SWAP1 POP SWAP1 JUMP JUMPDEST PUSH1 0x60 DUP1 PUSH1 0x4A PUSH1 0x1 ADD PUSH1 0x4A PUSH1 0x0 ADD DUP2 DUP1 SLOAD PUSH2 0x121A SWAP1 PUSH2 0x6B88 JUMP JUMPDEST DUP1 PUSH1 0x1F ADD PUSH1 0x20 DUP1 SWAP2 DIV MUL PUSH1 0x20 ADD PUSH1 0x40 MLOAD SWAP1 DUP2 ADD PUSH1 0x40 MSTORE DUP1 SWAP3 SWAP2 SWAP1 DUP2 DUP2 MSTORE PUSH1 0x20 ADD DUP3 DUP1 SLOAD PUSH2 0x1246 SWAP1 PUSH2 0x6B88 JUMP JUMPDEST DUP1 ISZERO PUSH2 0x1293 JUMPI DUP1 PUSH1 0x1F LT PUSH2 0x1268 JUMPI PUSH2 0x100 DUP1 DUP4 SLOAD DIV MUL DUP4 MSTORE SWAP2 PUSH1 0x20 ADD SWAP2 PUSH2 0x1293 JUMP JUMPDEST DUP3 ADD SWAP2 SWAP1 PUSH1 0x0 MSTORE PUSH1 0x20 PUSH1 0x0 KECCAK256 SWAP1 JUMPDEST DUP2 SLOAD DUP2 MSTORE SWAP1 PUSH1 0x1 ADD SWAP1 PUSH1 0x20 ADD DUP1 DUP4 GT PUSH2 0x1276 JUMPI DUP3 SWAP1 SUB PUSH1 0x1F AND DUP3 ADD SWAP2 JUMPDEST POP POP POP POP POP SWAP2 POP DUP1 DUP1 SLOAD PUSH2 0x12A6 SWAP1 PUSH2 0x6B88 JUMP JUMPDEST DUP1 PUSH1 0x1F ADD PUSH1 0x20 DUP1 SWAP2 DIV MUL PUSH1 0x20 ADD PUSH1 0x40 MLOAD SWAP1 DUP2 ADD PUSH1 0x40 MSTORE DUP1 SWAP3 SWAP2 SWAP1 DUP2 DUP2 MSTORE PUSH1 0x20 ADD DUP3 DUP1 SLOAD PUSH2 0x12D2 SWAP1 PUSH2 0x6B88 JUMP JUMPDEST DUP1 ISZERO PUSH2 0x131F JUMPI DUP1 PUSH1 0x1F LT PUSH2 0x12F4 JUMPI PUSH2 0x100 DUP1 DUP4 SLOAD DIV MUL DUP4 MSTORE SWAP2 PUSH1 0x20 ADD SWAP2 PUSH2 0x131F JUMP JUMPDEST DUP3 ADD SWAP2 SWAP1 PUSH1 0x0 MSTORE PUSH1 0x20 PUSH1 0x0 KECCAK256 SWAP1 JUMPDEST DUP2 SLOAD DUP2 MSTORE SWAP1 PUSH1 0x1 ADD SWAP1 PUSH1 0x20 ADD DUP1 DUP4 GT PUSH2 0x1302 JUMPI DUP3 SWAP1 SUB PUSH1 0x1F AND DUP3 ADD SWAP2 JUMPDEST POP POP POP POP POP SWAP1 POP SWAP2 POP SWAP2 POP SWAP1 SWAP2 JUMP JUMPDEST PUSH1 0x0 DUP1 PUSH1 0x0 PUSH2 0x133E DUP5 PUSH1 0x6 PUSH2 0x3D95 JUMP JUMPDEST SWAP2 POP SWAP2 POP DUP2 PUSH2 0x1354 JUMPI PUSH2 0x134F PUSH2 0xCDC JUMP JUMPDEST PUSH2 0x1356 JUMP JUMPDEST DUP1 JUMPDEST SWAP3 POP POP POP SWAP2 SWAP1 POP JUMP JUMPDEST PUSH2 0x1367 PUSH2 0x3AAA JUMP JUMPDEST DUP1 PUSH1 0x0 PUSH1 0x42 PUSH1 0x0 DUP4 PUSH20 0xFFFFFFFFFFFFFFFFFFFFFFFFFFFFFFFFFFFFFFFF AND PUSH20 0xFFFFFFFFFFFFFFFFFFFFFFFFFFFFFFFFFFFFFFFF AND DUP2 MSTORE PUSH1 0x20 ADD SWAP1 DUP2 MSTORE PUSH1 0x20 ADD PUSH1 0x0 KECCAK256 PUSH1 0x0 SWAP1 SLOAD SWAP1 PUSH2 0x100 EXP SWAP1 DIV PUSH1 0xC0 SHL PUSH24 0xFFFFFFFFFFFFFFFFFFFFFFFFFFFFFFFFFFFFFFFFFFFFFFFF NOT AND EQ ISZERO PUSH2 0x1413 JUMPI PUSH1 0x40 MLOAD PUSH32 0x8C379A000000000000000000000000000000000000000000000000000000000 DUP2 MSTORE PUSH1 0x4 ADD PUSH2 0x140A SWAP1 PUSH2 0x6546 JUMP JUMPDEST PUSH1 0x40 MLOAD DUP1 SWAP2 SUB SWAP1 REVERT JUMPDEST PUSH2 0x141B PUSH2 0x3B28 JUMP JUMPDEST PUSH1 0x0 PUSH20 0xFFFFFFFFFFFFFFFFFFFFFFFFFFFFFFFFFFFFFFFF AND DUP4 PUSH20 0xFFFFFFFFFFFFFFFFFFFFFFFFFFFFFFFFFFFFFFFF AND EQ ISZERO PUSH2 0x148B JUMPI PUSH1 0x40 MLOAD PUSH32 0x8C379A000000000000000000000000000000000000000000000000000000000 DUP2 MSTORE PUSH1 0x4 ADD PUSH2 0x1482 SWAP1 PUSH2 0x64E6 JUMP JUMPDEST PUSH1 0x40 MLOAD DUP1 SWAP2 SUB SWAP1 REVERT JUMPDEST PUSH1 0x0 PUSH20 0xFFFFFFFFFFFFFFFFFFFFFFFFFFFFFFFFFFFFFFFF AND DUP3 PUSH20 0xFFFFFFFFFFFFFFFFFFFFFFFFFFFFFFFFFFFFFFFF AND EQ ISZERO PUSH2 0x14FB JUMPI PUSH1 0x40 MLOAD PUSH32 0x8C379A000000000000000000000000000000000000000000000000000000000 DUP2 MSTORE PUSH1 0x4 ADD PUSH2 0x14F2 SWAP1 PUSH2 0x64E6 JUMP JUMPDEST PUSH1 0x40 MLOAD DUP1 SWAP2 SUB SWAP1 REVERT JUMPDEST DUP2 PUSH20 0xFFFFFFFFFFFFFFFFFFFFFFFFFFFFFFFFFFFFFFFF AND DUP4 PUSH20 0xFFFFFFFFFFFFFFFFFFFFFFFFFFFFFFFFFFFFFFFF AND EQ ISZERO PUSH2 0x156A JUMPI PUSH1 0x40 MLOAD PUSH32 0x8C379A000000000000000000000000000000000000000000000000000000000 DUP2 MSTORE PUSH1 0x4 ADD PUSH2 0x1561 SWAP1 PUSH2 0x6466 JUMP JUMPDEST PUSH1 0x40 MLOAD DUP1 SWAP2 SUB SWAP1 REVERT JUMPDEST PUSH1 0x0 DUP1 PUSH1 0x0 DUP6 PUSH20 0xFFFFFFFFFFFFFFFFFFFFFFFFFFFFFFFFFFFFFFFF AND PUSH20 0xFFFFFFFFFFFFFFFFFFFFFFFFFFFFFFFFFFFFFFFF AND DUP2 MSTORE PUSH1 0x20 ADD SWAP1 DUP2 MSTORE PUSH1 0x20 ADD PUSH1 0x0 KECCAK256 SLOAD SWAP1 POP PUSH1 0x0 DUP2 EQ ISZERO PUSH2 0x15F1 JUMPI PUSH1 0x40 MLOAD PUSH32 0x8C379A000000000000000000000000000000000000000000000000000000000 DUP2 MSTORE PUSH1 0x4 ADD PUSH2 0x15E8 SWAP1 PUSH2 0x6506 JUMP JUMPDEST PUSH1 0x40 MLOAD DUP1 SWAP2 SUB SWAP1 REVERT JUMPDEST DUP1 PUSH1 0x0 DUP1 DUP6 PUSH20 0xFFFFFFFFFFFFFFFFFFFFFFFFFFFFFFFFFFFFFFFF AND PUSH20 0xFFFFFFFFFFFFFFFFFFFFFFFFFFFFFFFFFFFFFFFF AND DUP2 MSTORE PUSH1 0x20 ADD SWAP1 DUP2 MSTORE PUSH1 0x20 ADD PUSH1 0x0 KECCAK256 SLOAD PUSH2 0x163B SWAP2 SWAP1 PUSH2 0x6908 JUMP JUMPDEST PUSH1 0x0 DUP1 DUP6 PUSH20 0xFFFFFFFFFFFFFFFFFFFFFFFFFFFFFFFFFFFFFFFF AND PUSH20 0xFFFFFFFFFFFFFFFFFFFFFFFFFFFFFFFFFFFFFFFF AND DUP2 MSTORE PUSH1 0x20 ADD SWAP1 DUP2 MSTORE PUSH1 0x20 ADD PUSH1 0x0 KECCAK256 DUP2 SWAP1 SSTORE POP PUSH1 0x0 DUP1 PUSH1 0x0 DUP7 PUSH20 0xFFFFFFFFFFFFFFFFFFFFFFFFFFFFFFFFFFFFFFFF AND PUSH20 0xFFFFFFFFFFFFFFFFFFFFFFFFFFFFFFFFFFFFFFFF AND DUP2 MSTORE PUSH1 0x20 ADD SWAP1 DUP2 MSTORE PUSH1 0x20 ADD PUSH1 0x0 KECCAK256 DUP2 SWAP1 SSTORE POP PUSH1 0x41 PUSH1 0x0 DUP5 PUSH20 0xFFFFFFFFFFFFFFFFFFFFFFFFFFFFFFFFFFFFFFFF AND PUSH20 0xFFFFFFFFFFFFFFFFFFFFFFFFFFFFFFFFFFFFFFFF AND DUP2 MSTORE PUSH1 0x20 ADD SWAP1 DUP2 MSTORE PUSH1 0x20 ADD PUSH1 0x0 KECCAK256 PUSH1 0x0 SWAP1 SLOAD SWAP1 PUSH2 0x100 EXP SWAP1 DIV PUSH1 0xFF AND PUSH2 0x17CE JUMPI PUSH1 0x1 PUSH1 0x41 PUSH1 0x0 DUP6 PUSH20 0xFFFFFFFFFFFFFFFFFFFFFFFFFFFFFFFFFFFFFFFF AND PUSH20 0xFFFFFFFFFFFFFFFFFFFFFFFFFFFFFFFFFFFFFFFF AND DUP2 MSTORE PUSH1 0x20 ADD SWAP1 DUP2 MSTORE PUSH1 0x20 ADD PUSH1 0x0 KECCAK256 PUSH1 0x0 PUSH2 0x100 EXP DUP2 SLOAD DUP2 PUSH1 0xFF MUL NOT AND SWAP1 DUP4 ISZERO ISZERO MUL OR SWAP1 SSTORE POP PUSH1 0x40 DUP4 SWAP1 DUP1 PUSH1 0x1 DUP2 SLOAD ADD DUP1 DUP3 SSTORE DUP1 SWAP2 POP POP PUSH1 0x1 SWAP1 SUB SWAP1 PUSH1 0x0 MSTORE PUSH1 0x20 PUSH1 0x0 KECCAK256 ADD PUSH1 0x0 SWAP1 SWAP2 SWAP1 SWAP2 SWAP1 SWAP2 PUSH2 0x100 EXP DUP2 SLOAD DUP2 PUSH20 0xFFFFFFFFFFFFFFFFFFFFFFFFFFFFFFFFFFFFFFFF MUL NOT AND SWAP1 DUP4 PUSH20 0xFFFFFFFFFFFFFFFFFFFFFFFFFFFFFFFFFFFFFFFF AND MUL OR SWAP1 SSTORE POP JUMPDEST DUP3 PUSH20 0xFFFFFFFFFFFFFFFFFFFFFFFFFFFFFFFFFFFFFFFF AND DUP5 PUSH20 0xFFFFFFFFFFFFFFFFFFFFFFFFFFFFFFFFFFFFFFFF AND PUSH32 0xDDF252AD1BE2C89B69C2B068FC378DAA952BA7F163C4A11628F55A4DF523B3EF DUP4 PUSH1 0x40 MLOAD PUSH2 0x182B SWAP2 SWAP1 PUSH2 0x66A6 JUMP JUMPDEST PUSH1 0x40 MLOAD DUP1 SWAP2 SUB SWAP1 LOG3 DUP3 PUSH20 0xFFFFFFFFFFFFFFFFFFFFFFFFFFFFFFFFFFFFFFFF AND DUP5 PUSH20 0xFFFFFFFFFFFFFFFFFFFFFFFFFFFFFFFFFFFFFFFF AND PUSH32 0x9B50BB42C2F723A111ED2B4A02D7963B78FCEF409123755E32DB36ACF004C721 DUP4 PUSH1 0x40 MLOAD PUSH2 0x1890 SWAP2 SWAP1 PUSH2 0x66A6 JUMP JUMPDEST PUSH1 0x40 MLOAD DUP1 SWAP2 SUB SWAP1 LOG3 POP POP POP POP JUMP JUMPDEST PUSH1 0x0 DUP1 PUSH1 0x0 PUSH2 0x18EB DUP6 PUSH1 0x5 PUSH1 0x0 DUP8 PUSH20 0xFFFFFFFFFFFFFFFFFFFFFFFFFFFFFFFFFFFFFFFF AND PUSH20 0xFFFFFFFFFFFFFFFFFFFFFFFFFFFFFFFFFFFFFFFF AND DUP2 MSTORE PUSH1 0x20 ADD SWAP1 DUP2 MSTORE PUSH1 0x20 ADD PUSH1 0x0 KECCAK256 PUSH2 0x3D95 JUMP JUMPDEST SWAP2 POP SWAP2 POP DUP2 PUSH2 0x1902 JUMPI PUSH2 0x18FD DUP5 PUSH2 0x19A6 JUMP JUMPDEST PUSH2 0x1904 JUMP JUMPDEST DUP1 JUMPDEST SWAP3 POP POP POP SWAP3 SWAP2 POP POP JUMP JUMPDEST PUSH2 0x1916 PUSH2 0x3AAA JUMP JUMPDEST PUSH1 0x0 PUSH1 0x46 PUSH1 0x0 PUSH2 0x100 EXP DUP2 SLOAD DUP2 PUSH20 0xFFFFFFFFFFFFFFFFFFFFFFFFFFFFFFFFFFFFFFFF MUL NOT AND SWAP1 DUP4 PUSH20 0xFFFFFFFFFFFFFFFFFFFFFFFFFFFFFFFFFFFFFFFF AND MUL OR SWAP1 SSTORE POP JUMP JUMPDEST PUSH2 0x1962 PUSH2 0x3AAA JUMP JUMPDEST DUP1 PUSH1 0x48 PUSH1 0x0 PUSH2 0x100 EXP DUP2 SLOAD DUP2 PUSH20 0xFFFFFFFFFFFFFFFFFFFFFFFFFFFFFFFFFFFFFFFF MUL NOT AND SWAP1 DUP4 PUSH20 0xFFFFFFFFFFFFFFFFFFFFFFFFFFFFFFFFFFFFFFFF AND MUL OR SWAP1 SSTORE POP POP JUMP JUMPDEST PUSH1 0x0 DUP1 PUSH1 0x0 DUP4 PUSH20 0xFFFFFFFFFFFFFFFFFFFFFFFFFFFFFFFFFFFFFFFF AND PUSH20 0xFFFFFFFFFFFFFFFFFFFFFFFFFFFFFFFFFFFFFFFF AND DUP2 MSTORE PUSH1 0x20 ADD SWAP1 DUP2 MSTORE PUSH1 0x20 ADD PUSH1 0x0 KECCAK256 SLOAD SWAP1 POP SWAP2 SWAP1 POP JUMP JUMPDEST PUSH2 0x19F6 PUSH2 0x3AAA JUMP JUMPDEST DUP1 MLOAD DUP3 MLOAD EQ PUSH2 0x1A3A JUMPI PUSH1 0x40 MLOAD PUSH32 0x8C379A000000000000000000000000000000000000000000000000000000000 DUP2 MSTORE PUSH1 0x4 ADD PUSH2 0x1A31 SWAP1 PUSH2 0x63C6 JUMP JUMPDEST PUSH1 0x40 MLOAD DUP1 SWAP2 SUB SWAP1 REVERT JUMPDEST PUSH1 0x0 JUMPDEST DUP3 MLOAD DUP2 LT ISZERO PUSH2 0x1ABB JUMPI DUP2 DUP2 DUP2 MLOAD DUP2 LT PUSH2 0x1A59 JUMPI PUSH2 0x1A58 PUSH2 0x6D0A JUMP JUMPDEST JUMPDEST PUSH1 0x20 MUL PUSH1 0x20 ADD ADD MLOAD PUSH1 0x3E PUSH1 0x0 DUP6 DUP5 DUP2 MLOAD DUP2 LT PUSH2 0x1A78 JUMPI PUSH2 0x1A77 PUSH2 0x6D0A JUMP JUMPDEST JUMPDEST PUSH1 0x20 MUL PUSH1 0x20 ADD ADD MLOAD PUSH1 0xFF AND PUSH1 0xFF AND DUP2 MSTORE PUSH1 0x20 ADD SWAP1 DUP2 MSTORE PUSH1 0x20 ADD PUSH1 0x0 KECCAK256 SWAP1 DUP1 MLOAD SWAP1 PUSH1 0x20 ADD SWAP1 PUSH2 0x1AA7 SWAP3 SWAP2 SWAP1 PUSH2 0x505A JUMP JUMPDEST POP DUP1 DUP1 PUSH2 0x1AB3 SWAP1 PUSH2 0x6C05 JUMP JUMPDEST SWAP2 POP POP PUSH2 0x1A3D JUMP JUMPDEST POP POP POP JUMP JUMPDEST PUSH2 0x1AC8 PUSH2 0x3AAA JUMP JUMPDEST PUSH2 0x1AD2 PUSH1 0x0 PUSH2 0x3DFE JUMP JUMPDEST JUMP JUMPDEST PUSH1 0x60 PUSH1 0x0 PUSH1 0x3E PUSH1 0x0 DUP5 PUSH1 0xFF AND PUSH1 0xFF AND DUP2 MSTORE PUSH1 0x20 ADD SWAP1 DUP2 MSTORE PUSH1 0x20 ADD PUSH1 0x0 KECCAK256 DUP1 SLOAD PUSH2 0x1AFC SWAP1 PUSH2 0x6B88 JUMP JUMPDEST SWAP1 POP EQ PUSH2 0x1BAC JUMPI PUSH1 0x3E PUSH1 0x0 DUP4 PUSH1 0xFF AND PUSH1 0xFF AND DUP2 MSTORE PUSH1 0x20 ADD SWAP1 DUP2 MSTORE PUSH1 0x20 ADD PUSH1 0x0 KECCAK256 DUP1 SLOAD PUSH2 0x1B27 SWAP1 PUSH2 0x6B88 JUMP JUMPDEST DUP1 PUSH1 0x1F ADD PUSH1 0x20 DUP1 SWAP2 DIV MUL PUSH1 0x20 ADD PUSH1 0x40 MLOAD SWAP1 DUP2 ADD PUSH1 0x40 MSTORE DUP1 SWAP3 SWAP2 SWAP1 DUP2 DUP2 MSTORE PUSH1 0x20 ADD DUP3 DUP1 SLOAD PUSH2 0x1B53 SWAP1 PUSH2 0x6B88 JUMP JUMPDEST DUP1 ISZERO PUSH2 0x1BA0 JUMPI DUP1 PUSH1 0x1F LT PUSH2 0x1B75 JUMPI PUSH2 0x100 DUP1 DUP4 SLOAD DIV MUL DUP4 MSTORE SWAP2 PUSH1 0x20 ADD SWAP2 PUSH2 0x1BA0 JUMP JUMPDEST DUP3 ADD SWAP2 SWAP1 PUSH1 0x0 MSTORE PUSH1 0x20 PUSH1 0x0 KECCAK256 SWAP1 JUMPDEST DUP2 SLOAD DUP2 MSTORE SWAP1 PUSH1 0x1 ADD SWAP1 PUSH1 0x20 ADD DUP1 DUP4 GT PUSH2 0x1B83 JUMPI DUP3 SWAP1 SUB PUSH1 0x1F AND DUP3 ADD SWAP2 JUMPDEST POP POP POP POP POP SWAP1 POP PUSH2 0x1CF2 JUMP JUMPDEST PUSH1 0x0 PUSH20 0xFFFFFFFFFFFFFFFFFFFFFFFFFFFFFFFFFFFFFFFF AND PUSH1 0x43 PUSH1 0x0 SWAP1 SLOAD SWAP1 PUSH2 0x100 EXP SWAP1 DIV PUSH20 0xFFFFFFFFFFFFFFFFFFFFFFFFFFFFFFFFFFFFFFFF AND PUSH20 0xFFFFFFFFFFFFFFFFFFFFFFFFFFFFFFFFFFFFFFFF AND EQ PUSH2 0x1CB9 JUMPI PUSH1 0x43 PUSH1 0x0 SWAP1 SLOAD SWAP1 PUSH2 0x100 EXP SWAP1 DIV PUSH20 0xFFFFFFFFFFFFFFFFFFFFFFFFFFFFFFFFFFFFFFFF AND PUSH20 0xFFFFFFFFFFFFFFFFFFFFFFFFFFFFFFFFFFFFFFFF AND PUSH4 0x7F4AB1DD DUP4 PUSH1 0x40 MLOAD DUP3 PUSH4 0xFFFFFFFF AND PUSH1 0xE0 SHL DUP2 MSTORE PUSH1 0x4 ADD PUSH2 0x1C5D SWAP2 SWAP1 PUSH2 0x66EA JUMP JUMPDEST PUSH1 0x0 PUSH1 0x40 MLOAD DUP1 DUP4 SUB DUP2 DUP7 DUP1 EXTCODESIZE ISZERO DUP1 ISZERO PUSH2 0x1C75 JUMPI PUSH1 0x0 DUP1 REVERT JUMPDEST POP GAS STATICCALL ISZERO DUP1 ISZERO PUSH2 0x1C89 JUMPI RETURNDATASIZE PUSH1 0x0 DUP1 RETURNDATACOPY RETURNDATASIZE PUSH1 0x0 REVERT JUMPDEST POP POP POP POP PUSH1 0x40 MLOAD RETURNDATASIZE PUSH1 0x0 DUP3 RETURNDATACOPY RETURNDATASIZE PUSH1 0x1F NOT PUSH1 0x1F DUP3 ADD AND DUP3 ADD DUP1 PUSH1 0x40 MSTORE POP DUP2 ADD SWAP1 PUSH2 0x1CB2 SWAP2 SWAP1 PUSH2 0x59B2 JUMP JUMPDEST SWAP1 POP PUSH2 0x1CF2 JUMP JUMPDEST PUSH1 0x40 MLOAD DUP1 PUSH1 0x40 ADD PUSH1 0x40 MSTORE DUP1 PUSH1 0xC DUP2 MSTORE PUSH1 0x20 ADD PUSH32 0x756E6B6E6F776E20636F64650000000000000000000000000000000000000000 DUP2 MSTORE POP SWAP1 POP JUMPDEST SWAP2 SWAP1 POP JUMP JUMPDEST PUSH2 0x1CFF PUSH2 0x3AAA JUMP JUMPDEST PUSH1 0x0 DUP3 MLOAD EQ PUSH2 0x1D23 JUMPI DUP2 PUSH1 0x4A PUSH1 0x0 ADD SWAP1 DUP1 MLOAD SWAP1 PUSH1 0x20 ADD SWAP1 PUSH2 0x1D21 SWAP3 SWAP2 SWAP1 PUSH2 0x505A JUMP JUMPDEST POP JUMPDEST PUSH1 0x0 DUP2 MLOAD EQ PUSH2 0x1D47 JUMPI DUP1 PUSH1 0x4A PUSH1 0x1 ADD SWAP1 DUP1 MLOAD SWAP1 PUSH1 0x20 ADD SWAP1 PUSH2 0x1D45 SWAP3 SWAP2 SWAP1 PUSH2 0x505A JUMP JUMPDEST POP JUMPDEST PUSH32 0xB013723207A7DE0F794018980B89EEF7E65F56ED634098A03DF4DCB95D6348FD DUP3 DUP3 PUSH1 0x40 MLOAD PUSH2 0x1D78 SWAP3 SWAP2 SWAP1 PUSH2 0x632F JUMP JUMPDEST PUSH1 0x40 MLOAD DUP1 SWAP2 SUB SWAP1 LOG1 POP POP JUMP JUMPDEST PUSH2 0x1D8C PUSH2 0x3454 JUMP JUMPDEST PUSH20 0xFFFFFFFFFFFFFFFFFFFFFFFFFFFFFFFFFFFFFFFF AND CALLER PUSH20 0xFFFFFFFFFFFFFFFFFFFFFFFFFFFFFFFFFFFFFFFF AND EQ PUSH2 0x1DF9 JUMPI PUSH1 0x40 MLOAD PUSH32 0x8C379A000000000000000000000000000000000000000000000000000000000 DUP2 MSTORE PUSH1 0x4 ADD PUSH2 0x1DF0 SWAP1 PUSH2 0x6526 JUMP JUMPDEST PUSH1 0x40 MLOAD DUP1 SWAP2 SUB SWAP1 REVERT JUMPDEST PUSH2 0x1E01 PUSH2 0x3EC4 JUMP JUMPDEST JUMP JUMPDEST PUSH2 0x1E0B PUSH2 0x3B28 JUMP JUMPDEST DUP1 MLOAD DUP3 MLOAD EQ PUSH2 0x1E4F JUMPI PUSH1 0x40 MLOAD PUSH32 0x8C379A000000000000000000000000000000000000000000000000000000000 DUP2 MSTORE PUSH1 0x4 ADD PUSH2 0x1E46 SWAP1 PUSH2 0x65A6 JUMP JUMPDEST PUSH1 0x40 MLOAD DUP1 SWAP2 SUB SWAP1 REVERT JUMPDEST PUSH1 0x0 JUMPDEST DUP3 MLOAD DUP2 LT ISZERO PUSH2 0x20EE JUMPI PUSH1 0x0 PUSH1 0xC0 SHL PUSH1 0x42 PUSH1 0x0 DUP6 DUP5 DUP2 MLOAD DUP2 LT PUSH2 0x1E77 JUMPI PUSH2 0x1E76 PUSH2 0x6D0A JUMP JUMPDEST JUMPDEST PUSH1 0x20 MUL PUSH1 0x20 ADD ADD MLOAD PUSH20 0xFFFFFFFFFFFFFFFFFFFFFFFFFFFFFFFFFFFFFFFF AND PUSH20 0xFFFFFFFFFFFFFFFFFFFFFFFFFFFFFFFFFFFFFFFF AND DUP2 MSTORE PUSH1 0x20 ADD SWAP1 DUP2 MSTORE PUSH1 0x20 ADD PUSH1 0x0 KECCAK256 PUSH1 0x0 SWAP1 SLOAD SWAP1 PUSH2 0x100 EXP SWAP1 DIV PUSH1 0xC0 SHL PUSH24 0xFFFFFFFFFFFFFFFFFFFFFFFFFFFFFFFFFFFFFFFFFFFFFFFF NOT AND EQ ISZERO PUSH2 0x1F23 JUMPI PUSH1 0x40 MLOAD PUSH32 0x8C379A000000000000000000000000000000000000000000000000000000000 DUP2 MSTORE PUSH1 0x4 ADD PUSH2 0x1F1A SWAP1 PUSH2 0x64C6 JUMP JUMPDEST PUSH1 0x40 MLOAD DUP1 SWAP2 SUB SWAP1 REVERT JUMPDEST PUSH1 0x0 PUSH20 0xFFFFFFFFFFFFFFFFFFFFFFFFFFFFFFFFFFFFFFFF AND PUSH1 0x43 PUSH1 0x0 SWAP1 SLOAD SWAP1 PUSH2 0x100 EXP SWAP1 DIV PUSH20 0xFFFFFFFFFFFFFFFFFFFFFFFFFFFFFFFFFFFFFFFF AND PUSH20 0xFFFFFFFFFFFFFFFFFFFFFFFFFFFFFFFFFFFFFFFF AND EQ PUSH2 0x20DB JUMPI PUSH1 0x43 PUSH1 0x0 SWAP1 SLOAD SWAP1 PUSH2 0x100 EXP SWAP1 DIV PUSH20 0xFFFFFFFFFFFFFFFFFFFFFFFFFFFFFFFFFFFFFFFF AND PUSH20 0xFFFFFFFFFFFFFFFFFFFFFFFFFFFFFFFFFFFFFFFF AND PUSH4 0xC6946A12 CALLER DUP6 DUP5 DUP2 MLOAD DUP2 LT PUSH2 0x1FCB JUMPI PUSH2 0x1FCA PUSH2 0x6D0A JUMP JUMPDEST JUMPDEST PUSH1 0x20 MUL PUSH1 0x20 ADD ADD MLOAD DUP6 DUP6 DUP2 MLOAD DUP2 LT PUSH2 0x1FE6 JUMPI PUSH2 0x1FE5 PUSH2 0x6D0A JUMP JUMPDEST JUMPDEST PUSH1 0x20 MUL PUSH1 0x20 ADD ADD MLOAD PUSH1 0x40 MLOAD DUP5 PUSH4 0xFFFFFFFF AND PUSH1 0xE0 SHL DUP2 MSTORE PUSH1 0x4 ADD PUSH2 0x200C SWAP4 SWAP3 SWAP2 SWAP1 PUSH2 0x61C0 JUMP JUMPDEST PUSH1 0x20 PUSH1 0x40 MLOAD DUP1 DUP4 SUB DUP2 DUP7 DUP1 EXTCODESIZE ISZERO DUP1 ISZERO PUSH2 0x2024 JUMPI PUSH1 0x0 DUP1 REVERT JUMPDEST POP GAS STATICCALL ISZERO DUP1 ISZERO PUSH2 0x2038 JUMPI RETURNDATASIZE PUSH1 0x0 DUP1 RETURNDATACOPY RETURNDATASIZE PUSH1 0x0 REVERT JUMPDEST POP POP POP POP PUSH1 0x40 MLOAD RETURNDATASIZE PUSH1 0x1F NOT PUSH1 0x1F DUP3 ADD AND DUP3 ADD DUP1 PUSH1 0x40 MSTORE POP DUP2 ADD SWAP1 PUSH2 0x205C SWAP2 SWAP1 PUSH2 0x5958 JUMP JUMPDEST PUSH2 0x209B JUMPI PUSH1 0x40 MLOAD PUSH32 0x8C379A000000000000000000000000000000000000000000000000000000000 DUP2 MSTORE PUSH1 0x4 ADD PUSH2 0x2092 SWAP1 PUSH2 0x6366 JUMP JUMPDEST PUSH1 0x40 MLOAD DUP1 SWAP2 SUB SWAP1 REVERT JUMPDEST PUSH2 0x20D9 DUP4 DUP3 DUP2 MLOAD DUP2 LT PUSH2 0x20B1 JUMPI PUSH2 0x20B0 PUSH2 0x6D0A JUMP JUMPDEST JUMPDEST PUSH1 0x20 MUL PUSH1 0x20 ADD ADD MLOAD DUP4 DUP4 DUP2 MLOAD DUP2 LT PUSH2 0x20CC JUMPI PUSH2 0x20CB PUSH2 0x6D0A JUMP JUMPDEST JUMPDEST PUSH1 0x20 MUL PUSH1 0x20 ADD ADD MLOAD PUSH2 0x3F27 JUMP JUMPDEST POP JUMPDEST DUP1 DUP1 PUSH2 0x20E6 SWAP1 PUSH2 0x6C05 JUMP JUMPDEST SWAP2 POP POP PUSH2 0x1E52 JUMP JUMPDEST POP POP POP JUMP JUMPDEST PUSH1 0x0 PUSH1 0x3D PUSH1 0x0 SWAP1 SLOAD SWAP1 PUSH2 0x100 EXP SWAP1 DIV PUSH20 0xFFFFFFFFFFFFFFFFFFFFFFFFFFFFFFFFFFFFFFFF AND SWAP1 POP SWAP1 JUMP JUMPDEST PUSH1 0x60 PUSH1 0x4 DUP1 SLOAD PUSH2 0x212C SWAP1 PUSH2 0x6B88 JUMP JUMPDEST DUP1 PUSH1 0x1F ADD PUSH1 0x20 DUP1 SWAP2 DIV MUL PUSH1 0x20 ADD PUSH1 0x40 MLOAD SWAP1 DUP2 ADD PUSH1 0x40 MSTORE DUP1 SWAP3 SWAP2 SWAP1 DUP2 DUP2 MSTORE PUSH1 0x20 ADD DUP3 DUP1 SLOAD PUSH2 0x2158 SWAP1 PUSH2 0x6B88 JUMP JUMPDEST DUP1 ISZERO PUSH2 0x21A5 JUMPI DUP1 PUSH1 0x1F LT PUSH2 0x217A JUMPI PUSH2 0x100 DUP1 DUP4 SLOAD DIV MUL DUP4 MSTORE SWAP2 PUSH1 0x20 ADD SWAP2 PUSH2 0x21A5 JUMP JUMPDEST DUP3 ADD SWAP2 SWAP1 PUSH1 0x0 MSTORE PUSH1 0x20 PUSH1 0x0 KECCAK256 SWAP1 JUMPDEST DUP2 SLOAD DUP2 MSTORE SWAP1 PUSH1 0x1 ADD SWAP1 PUSH1 0x20 ADD DUP1 DUP4 GT PUSH2 0x2188 JUMPI DUP3 SWAP1 SUB PUSH1 0x1F AND DUP3 ADD SWAP2 JUMPDEST POP POP POP POP POP SWAP1 POP SWAP1 JUMP JUMPDEST PUSH1 0x0 PUSH1 0x42 PUSH1 0x0 CALLER PUSH20 0xFFFFFFFFFFFFFFFFFFFFFFFFFFFFFFFFFFFFFFFF AND PUSH20 0xFFFFFFFFFFFFFFFFFFFFFFFFFFFFFFFFFFFFFFFF AND DUP2 MSTORE PUSH1 0x20 ADD SWAP1 DUP2 MSTORE PUSH1 0x20 ADD PUSH1 0x0 KECCAK256 PUSH1 0x0 SWAP1 SLOAD SWAP1 PUSH2 0x100 EXP SWAP1 DIV PUSH1 0xC0 SHL SWAP1 POP SWAP1 JUMP JUMPDEST PUSH2 0x220B PUSH2 0x111B JUMP JUMPDEST PUSH20 0xFFFFFFFFFFFFFFFFFFFFFFFFFFFFFFFFFFFFFFFF AND CALLER PUSH20 0xFFFFFFFFFFFFFFFFFFFFFFFFFFFFFFFFFFFFFFFF AND EQ PUSH2 0x2278 JUMPI PUSH1 0x40 MLOAD PUSH32 0x8C379A000000000000000000000000000000000000000000000000000000000 DUP2 MSTORE PUSH1 0x4 ADD PUSH2 0x226F SWAP1 PUSH2 0x6526 JUMP JUMPDEST PUSH1 0x40 MLOAD DUP1 SWAP2 SUB SWAP1 REVERT JUMPDEST PUSH2 0x2281 DUP2 PUSH2 0x3F4A JUMP JUMPDEST POP POP JUMP JUMPDEST PUSH1 0x0 PUSH2 0x228F PUSH2 0x3B28 JUMP JUMPDEST PUSH2 0x2299 DUP4 DUP4 PUSH2 0x403E JUMP JUMPDEST SWAP1 POP SWAP3 SWAP2 POP POP JUMP JUMPDEST PUSH2 0x22A9 PUSH2 0x3AAA JUMP JUMPDEST DUP1 PUSH1 0x43 PUSH1 0x0 PUSH2 0x100 EXP DUP2 SLOAD DUP2 PUSH20 0xFFFFFFFFFFFFFFFFFFFFFFFFFFFFFFFFFFFFFFFF MUL NOT AND SWAP1 DUP4 PUSH20 0xFFFFFFFFFFFFFFFFFFFFFFFFFFFFFFFFFFFFFFFF AND MUL OR SWAP1 SSTORE POP DUP1 PUSH20 0xFFFFFFFFFFFFFFFFFFFFFFFFFFFFFFFFFFFFFFFF AND PUSH32 0xC821FEE57F621FAD293A6960B94DE2653A70BCC62506EA4F85149777B45901FE PUSH1 0x40 MLOAD PUSH1 0x40 MLOAD DUP1 SWAP2 SUB SWAP1 LOG2 POP JUMP JUMPDEST PUSH2 0x2338 PUSH2 0x3AAA JUMP JUMPDEST PUSH2 0x2340 PUSH2 0x1D84 JUMP JUMPDEST PUSH1 0x0 JUMPDEST PUSH1 0x40 DUP1 SLOAD SWAP1 POP DUP2 LT ISZERO PUSH2 0x24A4 JUMPI PUSH1 0x45 PUSH1 0x0 PUSH1 0x40 DUP4 DUP2 SLOAD DUP2 LT PUSH2 0x2368 JUMPI PUSH2 0x2367 PUSH2 0x6D0A JUMP JUMPDEST JUMPDEST SWAP1 PUSH1 0x0 MSTORE PUSH1 0x20 PUSH1 0x0 KECCAK256 ADD PUSH1 0x0 SWAP1 SLOAD SWAP1 PUSH2 0x100 EXP SWAP1 DIV PUSH20 0xFFFFFFFFFFFFFFFFFFFFFFFFFFFFFFFFFFFFFFFF AND PUSH20 0xFFFFFFFFFFFFFFFFFFFFFFFFFFFFFFFFFFFFFFFF AND PUSH20 0xFFFFFFFFFFFFFFFFFFFFFFFFFFFFFFFFFFFFFFFF AND DUP2 MSTORE PUSH1 0x20 ADD SWAP1 DUP2 MSTORE PUSH1 0x20 ADD PUSH1 0x0 KECCAK256 PUSH1 0x0 SWAP1 SLOAD SWAP1 PUSH2 0x100 EXP SWAP1 DIV PUSH1 0xFF AND PUSH2 0x2491 JUMPI PUSH1 0x0 PUSH2 0x23E9 PUSH2 0xCDC JUMP JUMPDEST PUSH2 0x2430 PUSH1 0x40 DUP5 DUP2 SLOAD DUP2 LT PUSH2 0x2400 JUMPI PUSH2 0x23FF PUSH2 0x6D0A JUMP JUMPDEST JUMPDEST SWAP1 PUSH1 0x0 MSTORE PUSH1 0x20 PUSH1 0x0 KECCAK256 ADD PUSH1 0x0 SWAP1 SLOAD SWAP1 PUSH2 0x100 EXP SWAP1 DIV PUSH20 0xFFFFFFFFFFFFFFFFFFFFFFFFFFFFFFFFFFFFFFFF AND PUSH2 0x19A6 JUMP JUMPDEST DUP5 PUSH2 0x243B SWAP2 SWAP1 PUSH2 0x698F JUMP JUMPDEST PUSH2 0x2445 SWAP2 SWAP1 PUSH2 0x695E JUMP JUMPDEST SWAP1 POP PUSH2 0x248F PUSH1 0x40 DUP4 DUP2 SLOAD DUP2 LT PUSH2 0x245E JUMPI PUSH2 0x245D PUSH2 0x6D0A JUMP JUMPDEST JUMPDEST SWAP1 PUSH1 0x0 MSTORE PUSH1 0x20 PUSH1 0x0 KECCAK256 ADD PUSH1 0x0 SWAP1 SLOAD SWAP1 PUSH2 0x100 EXP SWAP1 DIV PUSH20 0xFFFFFFFFFFFFFFFFFFFFFFFFFFFFFFFFFFFFFFFF AND DUP3 PUSH2 0xB20 JUMP JUMPDEST POP JUMPDEST DUP1 DUP1 PUSH2 0x249C SWAP1 PUSH2 0x6C05 JUMP JUMPDEST SWAP2 POP POP PUSH2 0x2343 JUMP JUMPDEST POP DUP1 PUSH1 0x44 DUP2 SWAP1 SSTORE POP PUSH32 0x41CFF6F1B8D667E20F991282B47096A71F45D3893A1571D74EDC73C48C4D5EFE TIMESTAMP DUP3 PUSH1 0x40 MLOAD PUSH2 0x24DD SWAP3 SWAP2 SWAP1 PUSH2 0x66C1 JUMP JUMPDEST PUSH1 0x40 MLOAD DUP1 SWAP2 SUB SWAP1 LOG1 POP JUMP JUMPDEST PUSH1 0x0 DUP3 PUSH1 0x0 PUSH1 0x42 PUSH1 0x0 DUP4 PUSH20 0xFFFFFFFFFFFFFFFFFFFFFFFFFFFFFFFFFFFFFFFF AND PUSH20 0xFFFFFFFFFFFFFFFFFFFFFFFFFFFFFFFFFFFFFFFF AND DUP2 MSTORE PUSH1 0x20 ADD SWAP1 DUP2 MSTORE PUSH1 0x20 ADD PUSH1 0x0 KECCAK256 PUSH1 0x0 SWAP1 SLOAD SWAP1 PUSH2 0x100 EXP SWAP1 DIV PUSH1 0xC0 SHL PUSH24 0xFFFFFFFFFFFFFFFFFFFFFFFFFFFFFFFFFFFFFFFFFFFFFFFF NOT AND EQ ISZERO PUSH2 0x2596 JUMPI PUSH1 0x40 MLOAD PUSH32 0x8C379A000000000000000000000000000000000000000000000000000000000 DUP2 MSTORE PUSH1 0x4 ADD PUSH2 0x258D SWAP1 PUSH2 0x6546 JUMP JUMPDEST PUSH1 0x40 MLOAD DUP1 SWAP2 SUB SWAP1 REVERT JUMPDEST PUSH2 0x259E PUSH2 0x3B28 JUMP JUMPDEST PUSH1 0x0 PUSH20 0xFFFFFFFFFFFFFFFFFFFFFFFFFFFFFFFFFFFFFFFF AND PUSH1 0x43 PUSH1 0x0 SWAP1 SLOAD SWAP1 PUSH2 0x100 EXP SWAP1 DIV PUSH20 0xFFFFFFFFFFFFFFFFFFFFFFFFFFFFFFFFFFFFFFFF AND PUSH20 0xFFFFFFFFFFFFFFFFFFFFFFFFFFFFFFFFFFFFFFFF AND EQ PUSH2 0x26E3 JUMPI PUSH1 0x43 PUSH1 0x0 SWAP1 SLOAD SWAP1 PUSH2 0x100 EXP SWAP1 DIV PUSH20 0xFFFFFFFFFFFFFFFFFFFFFFFFFFFFFFFFFFFFFFFF AND PUSH20 0xFFFFFFFFFFFFFFFFFFFFFFFFFFFFFFFFFFFFFFFF AND PUSH4 0xC6946A12 CALLER DUP7 DUP7 PUSH1 0x40 MLOAD DUP5 PUSH4 0xFFFFFFFF AND PUSH1 0xE0 SHL DUP2 MSTORE PUSH1 0x4 ADD PUSH2 0x2653 SWAP4 SWAP3 SWAP2 SWAP1 PUSH2 0x61C0 JUMP JUMPDEST PUSH1 0x20 PUSH1 0x40 MLOAD DUP1 DUP4 SUB DUP2 DUP7 DUP1 EXTCODESIZE ISZERO DUP1 ISZERO PUSH2 0x266B JUMPI PUSH1 0x0 DUP1 REVERT JUMPDEST POP GAS STATICCALL ISZERO DUP1 ISZERO PUSH2 0x267F JUMPI RETURNDATASIZE PUSH1 0x0 DUP1 RETURNDATACOPY RETURNDATASIZE PUSH1 0x0 REVERT JUMPDEST POP POP POP POP PUSH1 0x40 MLOAD RETURNDATASIZE PUSH1 0x1F NOT PUSH1 0x1F DUP3 ADD AND DUP3 ADD DUP1 PUSH1 0x40 MSTORE POP DUP2 ADD SWAP1 PUSH2 0x26A3 SWAP2 SWAP1 PUSH2 0x5958 JUMP JUMPDEST PUSH2 0x26E2 JUMPI PUSH1 0x40 MLOAD PUSH32 0x8C379A000000000000000000000000000000000000000000000000000000000 DUP2 MSTORE PUSH1 0x4 ADD PUSH2 0x26D9 SWAP1 PUSH2 0x6366 JUMP JUMPDEST PUSH1 0x40 MLOAD DUP1 SWAP2 SUB SWAP1 REVERT JUMPDEST JUMPDEST PUSH1 0x41 PUSH1 0x0 DUP6 PUSH20 0xFFFFFFFFFFFFFFFFFFFFFFFFFFFFFFFFFFFFFFFF AND PUSH20 0xFFFFFFFFFFFFFFFFFFFFFFFFFFFFFFFFFFFFFFFF AND DUP2 MSTORE PUSH1 0x20 ADD SWAP1 DUP2 MSTORE PUSH1 0x20 ADD PUSH1 0x0 KECCAK256 PUSH1 0x0 SWAP1 SLOAD SWAP1 PUSH2 0x100 EXP SWAP1 DIV PUSH1 0xFF AND PUSH2 0x27F0 JUMPI PUSH1 0x1 PUSH1 0x41 PUSH1 0x0 DUP7 PUSH20 0xFFFFFFFFFFFFFFFFFFFFFFFFFFFFFFFFFFFFFFFF AND PUSH20 0xFFFFFFFFFFFFFFFFFFFFFFFFFFFFFFFFFFFFFFFF AND DUP2 MSTORE PUSH1 0x20 ADD SWAP1 DUP2 MSTORE PUSH1 0x20 ADD PUSH1 0x0 KECCAK256 PUSH1 0x0 PUSH2 0x100 EXP DUP2 SLOAD DUP2 PUSH1 0xFF MUL NOT AND SWAP1 DUP4 ISZERO ISZERO MUL OR SWAP1 SSTORE POP PUSH1 0x40 DUP5 SWAP1 DUP1 PUSH1 0x1 DUP2 SLOAD ADD DUP1 DUP3 SSTORE DUP1 SWAP2 POP POP PUSH1 0x1 SWAP1 SUB SWAP1 PUSH1 0x0 MSTORE PUSH1 0x20 PUSH1 0x0 KECCAK256 ADD PUSH1 0x0 SWAP1 SWAP2 SWAP1 SWAP2 SWAP1 SWAP2 PUSH2 0x100 EXP DUP2 SLOAD DUP2 PUSH20 0xFFFFFFFFFFFFFFFFFFFFFFFFFFFFFFFFFFFFFFFF MUL NOT AND SWAP1 DUP4 PUSH20 0xFFFFFFFFFFFFFFFFFFFFFFFFFFFFFFFFFFFFFFFF AND MUL OR SWAP1 SSTORE POP JUMPDEST PUSH2 0x27FA DUP5 DUP5 PUSH2 0x3F27 JUMP JUMPDEST SWAP2 POP POP SWAP3 SWAP2 POP POP JUMP JUMPDEST PUSH1 0x40 DUP2 DUP2 SLOAD DUP2 LT PUSH2 0x2813 JUMPI PUSH1 0x0 DUP1 REVERT JUMPDEST SWAP1 PUSH1 0x0 MSTORE PUSH1 0x20 PUSH1 0x0 KECCAK256 ADD PUSH1 0x0 SWAP2 POP SLOAD SWAP1 PUSH2 0x100 EXP SWAP1 DIV PUSH20 0xFFFFFFFFFFFFFFFFFFFFFFFFFFFFFFFFFFFFFFFF AND DUP2 JUMP JUMPDEST PUSH2 0x284A PUSH2 0x3AAA JUMP JUMPDEST PUSH1 0x0 PUSH1 0x48 PUSH1 0x0 PUSH2 0x100 EXP DUP2 SLOAD DUP2 PUSH20 0xFFFFFFFFFFFFFFFFFFFFFFFFFFFFFFFFFFFFFFFF MUL NOT AND SWAP1 DUP4 PUSH20 0xFFFFFFFFFFFFFFFFFFFFFFFFFFFFFFFFFFFFFFFF AND MUL OR SWAP1 SSTORE POP JUMP JUMPDEST PUSH2 0x2896 PUSH2 0x3AAA JUMP JUMPDEST DUP1 PUSH1 0x42 PUSH1 0x0 DUP5 PUSH20 0xFFFFFFFFFFFFFFFFFFFFFFFFFFFFFFFFFFFFFFFF AND PUSH20 0xFFFFFFFFFFFFFFFFFFFFFFFFFFFFFFFFFFFFFFFF AND DUP2 MSTORE PUSH1 0x20 ADD SWAP1 DUP2 MSTORE PUSH1 0x20 ADD PUSH1 0x0 KECCAK256 PUSH1 0x0 PUSH2 0x100 EXP DUP2 SLOAD DUP2 PUSH8 0xFFFFFFFFFFFFFFFF MUL NOT AND SWAP1 DUP4 PUSH1 0xC0 SHR MUL OR SWAP1 SSTORE POP PUSH32 0x7D8B5D160431A88659DEBB1733FECBE3058FF139085F28741B54A1DA0FA940F5 DUP3 PUSH1 0x40 MLOAD PUSH2 0x2924 SWAP2 SWAP1 PUSH2 0x617C JUMP JUMPDEST PUSH1 0x40 MLOAD DUP1 SWAP2 SUB SWAP1 LOG1 POP POP JUMP JUMPDEST DUP3 PUSH1 0x0 PUSH1 0x42 PUSH1 0x0 DUP4 PUSH20 0xFFFFFFFFFFFFFFFFFFFFFFFFFFFFFFFFFFFFFFFF AND PUSH20 0xFFFFFFFFFFFFFFFFFFFFFFFFFFFFFFFFFFFFFFFF AND DUP2 MSTORE PUSH1 0x20 ADD SWAP1 DUP2 MSTORE PUSH1 0x20 ADD PUSH1 0x0 KECCAK256 PUSH1 0x0 SWAP1 SLOAD SWAP1 PUSH2 0x100 EXP SWAP1 DIV PUSH1 0xC0 SHL PUSH24 0xFFFFFFFFFFFFFFFFFFFFFFFFFFFFFFFFFFFFFFFFFFFFFFFF NOT AND EQ ISZERO PUSH2 0x29DC JUMPI PUSH1 0x40 MLOAD PUSH32 0x8C379A000000000000000000000000000000000000000000000000000000000 DUP2 MSTORE PUSH1 0x4 ADD PUSH2 0x29D3 SWAP1 PUSH2 0x6546 JUMP JUMPDEST PUSH1 0x40 MLOAD DUP1 SWAP2 SUB SWAP1 REVERT JUMPDEST PUSH1 0x49 PUSH1 0x0 SWAP1 SLOAD SWAP1 PUSH2 0x100 EXP SWAP1 DIV PUSH20 0xFFFFFFFFFFFFFFFFFFFFFFFFFFFFFFFFFFFFFFFF AND PUSH20 0xFFFFFFFFFFFFFFFFFFFFFFFFFFFFFFFFFFFFFFFF AND CALLER PUSH20 0xFFFFFFFFFFFFFFFFFFFFFFFFFFFFFFFFFFFFFFFF AND EQ PUSH2 0x2A63 JUMPI PUSH1 0x40 MLOAD PUSH32 0xA6C1FF4800000000000000000000000000000000000000000000000000000000 DUP2 MSTORE PUSH1 0x4 ADD PUSH1 0x40 MLOAD DUP1 SWAP2 SUB SWAP1 REVERT JUMPDEST PUSH2 0x2A6B PUSH2 0x20F3 JUMP JUMPDEST PUSH20 0xFFFFFFFFFFFFFFFFFFFFFFFFFFFFFFFFFFFFFFFF AND DUP5 PUSH20 0xFFFFFFFFFFFFFFFFFFFFFFFFFFFFFFFFFFFFFFFF AND EQ PUSH2 0x2ADF JUMPI PUSH2 0x2AA7 DUP5 DUP5 PUSH2 0x40B5 JUMP JUMPDEST PUSH32 0x5AA5D4DBB3BDC35FE42446BA12FC59CDD56EE008D5A8159BA5E5FB5834734F62 DUP4 PUSH1 0x40 MLOAD PUSH2 0x2AD6 SWAP2 SWAP1 PUSH2 0x66A6 JUMP JUMPDEST PUSH1 0x40 MLOAD DUP1 SWAP2 SUB SWAP1 LOG1 JUMPDEST POP POP POP POP JUMP JUMPDEST PUSH2 0x2AED PUSH2 0x3AAA JUMP JUMPDEST PUSH1 0x0 JUMPDEST DUP3 DUP3 SWAP1 POP DUP2 LT ISZERO PUSH2 0x2E0A JUMPI PUSH2 0x2B03 PUSH2 0x20F3 JUMP JUMPDEST PUSH20 0xFFFFFFFFFFFFFFFFFFFFFFFFFFFFFFFFFFFFFFFF AND PUSH1 0x40 DUP3 DUP2 SLOAD DUP2 LT PUSH2 0x2B2D JUMPI PUSH2 0x2B2C PUSH2 0x6D0A JUMP JUMPDEST JUMPDEST SWAP1 PUSH1 0x0 MSTORE PUSH1 0x20 PUSH1 0x0 KECCAK256 ADD PUSH1 0x0 SWAP1 SLOAD SWAP1 PUSH2 0x100 EXP SWAP1 DIV PUSH20 0xFFFFFFFFFFFFFFFFFFFFFFFFFFFFFFFFFFFFFFFF AND PUSH20 0xFFFFFFFFFFFFFFFFFFFFFFFFFFFFFFFFFFFFFFFF AND EQ ISZERO PUSH2 0x2BAF JUMPI PUSH1 0x40 MLOAD PUSH32 0x8C379A000000000000000000000000000000000000000000000000000000000 DUP2 MSTORE PUSH1 0x4 ADD PUSH2 0x2BA6 SWAP1 PUSH2 0x6646 JUMP JUMPDEST PUSH1 0x40 MLOAD DUP1 SWAP2 SUB SWAP1 REVERT JUMPDEST PUSH1 0x0 DUP1 PUSH1 0x0 PUSH1 0x40 DUP5 DUP2 SLOAD DUP2 LT PUSH2 0x2BC8 JUMPI PUSH2 0x2BC7 PUSH2 0x6D0A JUMP JUMPDEST JUMPDEST SWAP1 PUSH1 0x0 MSTORE PUSH1 0x20 PUSH1 0x0 KECCAK256 ADD PUSH1 0x0 SWAP1 SLOAD SWAP1 PUSH2 0x100 EXP SWAP1 DIV PUSH20 0xFFFFFFFFFFFFFFFFFFFFFFFFFFFFFFFFFFFFFFFF AND PUSH20 0xFFFFFFFFFFFFFFFFFFFFFFFFFFFFFFFFFFFFFFFF AND PUSH20 0xFFFFFFFFFFFFFFFFFFFFFFFFFFFFFFFFFFFFFFFF AND DUP2 MSTORE PUSH1 0x20 ADD SWAP1 DUP2 MSTORE PUSH1 0x20 ADD PUSH1 0x0 KECCAK256 SLOAD SWAP1 POP DUP1 PUSH1 0x0 DUP1 PUSH2 0x2C3C PUSH2 0x20F3 JUMP JUMPDEST PUSH20 0xFFFFFFFFFFFFFFFFFFFFFFFFFFFFFFFFFFFFFFFF AND PUSH20 0xFFFFFFFFFFFFFFFFFFFFFFFFFFFFFFFFFFFFFFFF AND DUP2 MSTORE PUSH1 0x20 ADD SWAP1 DUP2 MSTORE PUSH1 0x20 ADD PUSH1 0x0 KECCAK256 SLOAD PUSH2 0x2C81 SWAP2 SWAP1 PUSH2 0x6908 JUMP JUMPDEST PUSH1 0x0 DUP1 PUSH2 0x2C8C PUSH2 0x20F3 JUMP JUMPDEST PUSH20 0xFFFFFFFFFFFFFFFFFFFFFFFFFFFFFFFFFFFFFFFF AND PUSH20 0xFFFFFFFFFFFFFFFFFFFFFFFFFFFFFFFFFFFFFFFF AND DUP2 MSTORE PUSH1 0x20 ADD SWAP1 DUP2 MSTORE PUSH1 0x20 ADD PUSH1 0x0 KECCAK256 DUP2 SWAP1 SSTORE POP PUSH1 0x0 DUP1 PUSH1 0x0 PUSH1 0x40 DUP6 DUP2 SLOAD DUP2 LT PUSH2 0x2CE3 JUMPI PUSH2 0x2CE2 PUSH2 0x6D0A JUMP JUMPDEST JUMPDEST SWAP1 PUSH1 0x0 MSTORE PUSH1 0x20 PUSH1 0x0 KECCAK256 ADD PUSH1 0x0 SWAP1 SLOAD SWAP1 PUSH2 0x100 EXP SWAP1 DIV PUSH20 0xFFFFFFFFFFFFFFFFFFFFFFFFFFFFFFFFFFFFFFFF AND PUSH20 0xFFFFFFFFFFFFFFFFFFFFFFFFFFFFFFFFFFFFFFFF AND PUSH20 0xFFFFFFFFFFFFFFFFFFFFFFFFFFFFFFFFFFFFFFFF AND DUP2 MSTORE PUSH1 0x20 ADD SWAP1 DUP2 MSTORE PUSH1 0x20 ADD PUSH1 0x0 KECCAK256 DUP2 SWAP1 SSTORE POP PUSH2 0x2D54 PUSH2 0x20F3 JUMP JUMPDEST PUSH20 0xFFFFFFFFFFFFFFFFFFFFFFFFFFFFFFFFFFFFFFFF AND PUSH1 0x40 DUP4 DUP2 SLOAD DUP2 LT PUSH2 0x2D7E JUMPI PUSH2 0x2D7D PUSH2 0x6D0A JUMP JUMPDEST JUMPDEST SWAP1 PUSH1 0x0 MSTORE PUSH1 0x20 PUSH1 0x0 KECCAK256 ADD PUSH1 0x0 SWAP1 SLOAD SWAP1 PUSH2 0x100 EXP SWAP1 DIV PUSH20 0xFFFFFFFFFFFFFFFFFFFFFFFFFFFFFFFFFFFFFFFF AND PUSH20 0xFFFFFFFFFFFFFFFFFFFFFFFFFFFFFFFFFFFFFFFF AND PUSH32 0xDDF252AD1BE2C89B69C2B068FC378DAA952BA7F163C4A11628F55A4DF523B3EF DUP4 PUSH1 0x40 MLOAD PUSH2 0x2DEE SWAP2 SWAP1 PUSH2 0x66A6 JUMP JUMPDEST PUSH1 0x40 MLOAD DUP1 SWAP2 SUB SWAP1 LOG3 POP DUP1 DUP1 PUSH2 0x2E02 SWAP1 PUSH2 0x6C05 JUMP JUMPDEST SWAP2 POP POP PUSH2 0x2AF0 JUMP JUMPDEST POP PUSH32 0xEF8A7D1D9ED56B75BA2D074C0443D09A07E60674F3F6D4E992E9BDA38EFE5880 PUSH1 0x40 DUP1 MLOAD PUSH2 0x2E3A SWAP2 SWAP1 PUSH2 0x6220 JUMP JUMPDEST PUSH1 0x40 MLOAD DUP1 SWAP2 SUB SWAP1 LOG1 POP POP JUMP JUMPDEST PUSH2 0x2E4E PUSH2 0x3AAA JUMP JUMPDEST PUSH2 0x2E58 CALLER DUP3 PUSH2 0x421F JUMP JUMPDEST PUSH2 0x2E60 PUSH2 0x20F3 JUMP JUMPDEST PUSH20 0xFFFFFFFFFFFFFFFFFFFFFFFFFFFFFFFFFFFFFFFF AND PUSH1 0x0 PUSH20 0xFFFFFFFFFFFFFFFFFFFFFFFFFFFFFFFFFFFFFFFF AND PUSH32 0xDDF252AD1BE2C89B69C2B068FC378DAA952BA7F163C4A11628F55A4DF523B3EF DUP4 PUSH1 0x40 MLOAD PUSH2 0x2EBD SWAP2 SWAP1 PUSH2 0x66A6 JUMP JUMPDEST PUSH1 0x40 MLOAD DUP1 SWAP2 SUB SWAP1 LOG3 PUSH32 0x5AA5D4DBB3BDC35FE42446BA12FC59CDD56EE008D5A8159BA5E5FB5834734F62 DUP2 PUSH1 0x40 MLOAD PUSH2 0x2EF4 SWAP2 SWAP1 PUSH2 0x66A6 JUMP JUMPDEST PUSH1 0x40 MLOAD DUP1 SWAP2 SUB SWAP1 LOG1 POP JUMP JUMPDEST PUSH2 0x2F07 PUSH2 0x3AAA JUMP JUMPDEST DUP1 PUSH1 0x46 PUSH1 0x0 PUSH2 0x100 EXP DUP2 SLOAD DUP2 PUSH20 0xFFFFFFFFFFFFFFFFFFFFFFFFFFFFFFFFFFFFFFFF MUL NOT AND SWAP1 DUP4 PUSH20 0xFFFFFFFFFFFFFFFFFFFFFFFFFFFFFFFFFFFFFFFF AND MUL OR SWAP1 SSTORE POP POP JUMP JUMPDEST PUSH1 0x4A DUP1 PUSH1 0x0 ADD DUP1 SLOAD PUSH2 0x2F5C SWAP1 PUSH2 0x6B88 JUMP JUMPDEST DUP1 PUSH1 0x1F ADD PUSH1 0x20 DUP1 SWAP2 DIV MUL PUSH1 0x20 ADD PUSH1 0x40 MLOAD SWAP1 DUP2 ADD PUSH1 0x40 MSTORE DUP1 SWAP3 SWAP2 SWAP1 DUP2 DUP2 MSTORE PUSH1 0x20 ADD DUP3 DUP1 SLOAD PUSH2 0x2F88 SWAP1 PUSH2 0x6B88 JUMP JUMPDEST DUP1 ISZERO PUSH2 0x2FD5 JUMPI DUP1 PUSH1 0x1F LT PUSH2 0x2FAA JUMPI PUSH2 0x100 DUP1 DUP4 SLOAD DIV MUL DUP4 MSTORE SWAP2 PUSH1 0x20 ADD SWAP2 PUSH2 0x2FD5 JUMP JUMPDEST DUP3 ADD SWAP2 SWAP1 PUSH1 0x0 MSTORE PUSH1 0x20 PUSH1 0x0 KECCAK256 SWAP1 JUMPDEST DUP2 SLOAD DUP2 MSTORE SWAP1 PUSH1 0x1 ADD SWAP1 PUSH1 0x20 ADD DUP1 DUP4 GT PUSH2 0x2FB8 JUMPI DUP3 SWAP1 SUB PUSH1 0x1F AND DUP3 ADD SWAP2 JUMPDEST POP POP POP POP POP SWAP1 DUP1 PUSH1 0x1 ADD DUP1 SLOAD PUSH2 0x2FEA SWAP1 PUSH2 0x6B88 JUMP JUMPDEST DUP1 PUSH1 0x1F ADD PUSH1 0x20 DUP1 SWAP2 DIV MUL PUSH1 0x20 ADD PUSH1 0x40 MLOAD SWAP1 DUP2 ADD PUSH1 0x40 MSTORE DUP1 SWAP3 SWAP2 SWAP1 DUP2 DUP2 MSTORE PUSH1 0x20 ADD DUP3 DUP1 SLOAD PUSH2 0x3016 SWAP1 PUSH2 0x6B88 JUMP JUMPDEST DUP1 ISZERO PUSH2 0x3063 JUMPI DUP1 PUSH1 0x1F LT PUSH2 0x3038 JUMPI PUSH2 0x100 DUP1 DUP4 SLOAD DIV MUL DUP4 MSTORE SWAP2 PUSH1 0x20 ADD SWAP2 PUSH2 0x3063 JUMP JUMPDEST DUP3 ADD SWAP2 SWAP1 PUSH1 0x0 MSTORE PUSH1 0x20 PUSH1 0x0 KECCAK256 SWAP1 JUMPDEST DUP2 SLOAD DUP2 MSTORE SWAP1 PUSH1 0x1 ADD SWAP1 PUSH1 0x20 ADD DUP1 DUP4 GT PUSH2 0x3046 JUMPI DUP3 SWAP1 SUB PUSH1 0x1F AND DUP3 ADD SWAP2 JUMPDEST POP POP POP POP POP SWAP1 POP DUP3 JUMP JUMPDEST PUSH1 0x0 PUSH2 0x3077 PUSH2 0x111B JUMP JUMPDEST PUSH20 0xFFFFFFFFFFFFFFFFFFFFFFFFFFFFFFFFFFFFFFFF AND CALLER PUSH20 0xFFFFFFFFFFFFFFFFFFFFFFFFFFFFFFFFFFFFFFFF AND EQ PUSH2 0x30E4 JUMPI PUSH1 0x40 MLOAD PUSH32 0x8C379A000000000000000000000000000000000000000000000000000000000 DUP2 MSTORE PUSH1 0x4 ADD PUSH2 0x30DB SWAP1 PUSH2 0x6526 JUMP JUMPDEST PUSH1 0x40 MLOAD DUP1 SWAP2 SUB SWAP1 REVERT JUMPDEST PUSH2 0x30EE DUP4 DUP4 PUSH2 0x4376 JUMP JUMPDEST SWAP1 POP SWAP3 SWAP2 POP POP JUMP JUMPDEST PUSH1 0x0 PUSH2 0x3100 PUSH2 0x11EA JUMP JUMPDEST ISZERO PUSH2 0x310E JUMPI PUSH1 0x42 SWAP1 POP PUSH2 0x3298 JUMP JUMPDEST PUSH1 0x0 PUSH1 0x42 PUSH1 0x0 DUP6 PUSH20 0xFFFFFFFFFFFFFFFFFFFFFFFFFFFFFFFFFFFFFFFF AND PUSH20 0xFFFFFFFFFFFFFFFFFFFFFFFFFFFFFFFFFFFFFFFF AND DUP2 MSTORE PUSH1 0x20 ADD SWAP1 DUP2 MSTORE PUSH1 0x20 ADD PUSH1 0x0 KECCAK256 PUSH1 0x0 SWAP1 SLOAD SWAP1 PUSH2 0x100 EXP SWAP1 DIV PUSH1 0xC0 SHL PUSH24 0xFFFFFFFFFFFFFFFFFFFFFFFFFFFFFFFFFFFFFFFFFFFFFFFF NOT AND EQ ISZERO PUSH2 0x3187 JUMPI PUSH1 0x5A SWAP1 POP PUSH2 0x3298 JUMP JUMPDEST PUSH1 0x0 PUSH20 0xFFFFFFFFFFFFFFFFFFFFFFFFFFFFFFFFFFFFFFFF AND PUSH1 0x43 PUSH1 0x0 SWAP1 SLOAD SWAP1 PUSH2 0x100 EXP SWAP1 DIV PUSH20 0xFFFFFFFFFFFFFFFFFFFFFFFFFFFFFFFFFFFFFFFF AND PUSH20 0xFFFFFFFFFFFFFFFFFFFFFFFFFFFFFFFFFFFFFFFF AND EQ PUSH2 0x3293 JUMPI PUSH1 0x43 PUSH1 0x0 SWAP1 SLOAD SWAP1 PUSH2 0x100 EXP SWAP1 DIV PUSH20 0xFFFFFFFFFFFFFFFFFFFFFFFFFFFFFFFFFFFFFFFF AND PUSH20 0xFFFFFFFFFFFFFFFFFFFFFFFFFFFFFFFFFFFFFFFF AND PUSH4 0xD4CE1415 DUP6 DUP6 DUP6 PUSH1 0x40 MLOAD DUP5 PUSH4 0xFFFFFFFF AND PUSH1 0xE0 SHL DUP2 MSTORE PUSH1 0x4 ADD PUSH2 0x323C SWAP4 SWAP3 SWAP2 SWAP1 PUSH2 0x61C0 JUMP JUMPDEST PUSH1 0x20 PUSH1 0x40 MLOAD DUP1 DUP4 SUB DUP2 DUP7 DUP1 EXTCODESIZE ISZERO DUP1 ISZERO PUSH2 0x3254 JUMPI PUSH1 0x0 DUP1 REVERT JUMPDEST POP GAS STATICCALL ISZERO DUP1 ISZERO PUSH2 0x3268 JUMPI RETURNDATASIZE PUSH1 0x0 DUP1 RETURNDATACOPY RETURNDATASIZE PUSH1 0x0 REVERT JUMPDEST POP POP POP POP PUSH1 0x40 MLOAD RETURNDATASIZE PUSH1 0x1F NOT PUSH1 0x1F DUP3 ADD AND DUP3 ADD DUP1 PUSH1 0x40 MSTORE POP DUP2 ADD SWAP1 PUSH2 0x328C SWAP2 SWAP1 PUSH2 0x5B7A JUMP JUMPDEST SWAP1 POP PUSH2 0x3298 JUMP JUMPDEST PUSH1 0x51 SWAP1 POP JUMPDEST SWAP4 SWAP3 POP POP POP JUMP JUMPDEST PUSH1 0x60 PUSH1 0xA DUP1 SLOAD DUP1 PUSH1 0x20 MUL PUSH1 0x20 ADD PUSH1 0x40 MLOAD SWAP1 DUP2 ADD PUSH1 0x40 MSTORE DUP1 SWAP3 SWAP2 SWAP1 DUP2 DUP2 MSTORE PUSH1 0x20 ADD DUP3 DUP1 SLOAD DUP1 ISZERO PUSH2 0x32ED JUMPI PUSH1 0x20 MUL DUP3 ADD SWAP2 SWAP1 PUSH1 0x0 MSTORE PUSH1 0x20 PUSH1 0x0 KECCAK256 SWAP1 JUMPDEST DUP2 SLOAD DUP2 MSTORE PUSH1 0x20 ADD SWAP1 PUSH1 0x1 ADD SWAP1 DUP1 DUP4 GT PUSH2 0x32D9 JUMPI JUMPDEST POP POP POP POP POP SWAP1 POP SWAP1 JUMP JUMPDEST PUSH2 0x32FF PUSH2 0x3AAA JUMP JUMPDEST DUP1 PUSH1 0x0 DUP1 PUSH2 0x330B PUSH2 0x20F3 JUMP JUMPDEST PUSH20 0xFFFFFFFFFFFFFFFFFFFFFFFFFFFFFFFFFFFFFFFF AND PUSH20 0xFFFFFFFFFFFFFFFFFFFFFFFFFFFFFFFFFFFFFFFF AND DUP2 MSTORE PUSH1 0x20 ADD SWAP1 DUP2 MSTORE PUSH1 0x20 ADD PUSH1 0x0 KECCAK256 SLOAD PUSH2 0x3350 SWAP2 SWAP1 PUSH2 0x69E9 JUMP JUMPDEST PUSH1 0x0 DUP1 PUSH2 0x335B PUSH2 0x20F3 JUMP JUMPDEST PUSH20 0xFFFFFFFFFFFFFFFFFFFFFFFFFFFFFFFFFFFFFFFF AND PUSH20 0xFFFFFFFFFFFFFFFFFFFFFFFFFFFFFFFFFFFFFFFF AND DUP2 MSTORE PUSH1 0x20 ADD SWAP1 DUP2 MSTORE PUSH1 0x20 ADD PUSH1 0x0 KECCAK256 DUP2 SWAP1 SSTORE POP DUP1 PUSH1 0x2 SLOAD PUSH2 0x33A7 SWAP2 SWAP1 PUSH2 0x69E9 JUMP JUMPDEST PUSH1 0x2 DUP2 SWAP1 SSTORE POP PUSH1 0x0 PUSH20 0xFFFFFFFFFFFFFFFFFFFFFFFFFFFFFFFFFFFFFFFF AND PUSH2 0x33CD PUSH2 0x20F3 JUMP JUMPDEST PUSH20 0xFFFFFFFFFFFFFFFFFFFFFFFFFFFFFFFFFFFFFFFF AND PUSH32 0xDDF252AD1BE2C89B69C2B068FC378DAA952BA7F163C4A11628F55A4DF523B3EF DUP4 PUSH1 0x40 MLOAD PUSH2 0x3412 SWAP2 SWAP1 PUSH2 0x66A6 JUMP JUMPDEST PUSH1 0x40 MLOAD DUP1 SWAP2 SUB SWAP1 LOG3 PUSH32 0xE3DD692F7E5C129A26D85142BF6118F2ECF7722A79A4507AC05AD7BB7AAAB152 DUP2 PUSH1 0x40 MLOAD PUSH2 0x3449 SWAP2 SWAP1 PUSH2 0x66A6 JUMP JUMPDEST PUSH1 0x40 MLOAD DUP1 SWAP2 SUB SWAP1 LOG1 POP JUMP JUMPDEST PUSH1 0x0 PUSH2 0x345E PUSH2 0x3AAA JUMP JUMPDEST PUSH1 0x48 PUSH1 0x0 SWAP1 SLOAD SWAP1 PUSH2 0x100 EXP SWAP1 DIV PUSH20 0xFFFFFFFFFFFFFFFFFFFFFFFFFFFFFFFFFFFFFFFF AND SWAP1 POP SWAP1 JUMP JUMPDEST PUSH1 0x0 PUSH1 0x1 PUSH1 0x0 DUP5 PUSH20 0xFFFFFFFFFFFFFFFFFFFFFFFFFFFFFFFFFFFFFFFF AND PUSH20 0xFFFFFFFFFFFFFFFFFFFFFFFFFFFFFFFFFFFFFFFF AND DUP2 MSTORE PUSH1 0x20 ADD SWAP1 DUP2 MSTORE PUSH1 0x20 ADD PUSH1 0x0 KECCAK256 PUSH1 0x0 DUP4 PUSH20 0xFFFFFFFFFFFFFFFFFFFFFFFFFFFFFFFFFFFFFFFF AND PUSH20 0xFFFFFFFFFFFFFFFFFFFFFFFFFFFFFFFFFFFFFFFF AND DUP2 MSTORE PUSH1 0x20 ADD SWAP1 DUP2 MSTORE PUSH1 0x20 ADD PUSH1 0x0 KECCAK256 SLOAD SWAP1 POP SWAP3 SWAP2 POP POP JUMP JUMPDEST PUSH1 0x0 PUSH2 0x3517 PUSH2 0x111B JUMP JUMPDEST PUSH20 0xFFFFFFFFFFFFFFFFFFFFFFFFFFFFFFFFFFFFFFFF AND CALLER PUSH20 0xFFFFFFFFFFFFFFFFFFFFFFFFFFFFFFFFFFFFFFFF AND EQ PUSH2 0x3584 JUMPI PUSH1 0x40 MLOAD PUSH32 0x8C379A000000000000000000000000000000000000000000000000000000000 DUP2 MSTORE PUSH1 0x4 ADD PUSH2 0x357B SWAP1 PUSH2 0x6526 JUMP JUMPDEST PUSH1 0x40 MLOAD DUP1 SWAP2 SUB SWAP1 REVERT JUMPDEST PUSH2 0x358D DUP3 PUSH2 0x44F8 JUMP JUMPDEST SWAP1 POP SWAP2 SWAP1 POP JUMP JUMPDEST PUSH1 0x0 DUP1 PUSH1 0x49 PUSH1 0x0 SWAP1 SLOAD SWAP1 PUSH2 0x100 EXP SWAP1 DIV PUSH20 0xFFFFFFFFFFFFFFFFFFFFFFFFFFFFFFFFFFFFFFFF AND PUSH20 0xFFFFFFFFFFFFFFFFFFFFFFFFFFFFFFFFFFFFFFFF AND PUSH4 0xDD62ED3E ADDRESS CALLER PUSH1 0x40 MLOAD DUP4 PUSH4 0xFFFFFFFF AND PUSH1 0xE0 SHL DUP2 MSTORE PUSH1 0x4 ADD PUSH2 0x35F4 SWAP3 SWAP2 SWAP1 PUSH2 0x6197 JUMP JUMPDEST PUSH1 0x20 PUSH1 0x40 MLOAD DUP1 DUP4 SUB DUP2 DUP7 DUP1 EXTCODESIZE ISZERO DUP1 ISZERO PUSH2 0x360C JUMPI PUSH1 0x0 DUP1 REVERT JUMPDEST POP GAS STATICCALL ISZERO DUP1 ISZERO PUSH2 0x3620 JUMPI RETURNDATASIZE PUSH1 0x0 DUP1 RETURNDATACOPY RETURNDATASIZE PUSH1 0x0 REVERT JUMPDEST POP POP POP POP PUSH1 0x40 MLOAD RETURNDATASIZE PUSH1 0x1F NOT PUSH1 0x1F DUP3 ADD AND DUP3 ADD DUP1 PUSH1 0x40 MSTORE POP DUP2 ADD SWAP1 PUSH2 0x3644 SWAP2 SWAP1 PUSH2 0x5AA0 JUMP JUMPDEST SWAP1 POP PUSH1 0x0 PUSH1 0x49 PUSH1 0x0 SWAP1 SLOAD SWAP1 PUSH2 0x100 EXP SWAP1 DIV PUSH20 0xFFFFFFFFFFFFFFFFFFFFFFFFFFFFFFFFFFFFFFFF AND PUSH20 0xFFFFFFFFFFFFFFFFFFFFFFFFFFFFFFFFFFFFFFFF AND PUSH4 0xA9059CBB CALLER DUP5 PUSH1 0x40 MLOAD DUP4 PUSH4 0xFFFFFFFF AND PUSH1 0xE0 SHL DUP2 MSTORE PUSH1 0x4 ADD PUSH2 0x36A5 SWAP3 SWAP2 SWAP1 PUSH2 0x61F7 JUMP JUMPDEST PUSH1 0x20 PUSH1 0x40 MLOAD DUP1 DUP4 SUB DUP2 PUSH1 0x0 DUP8 DUP1 EXTCODESIZE ISZERO DUP1 ISZERO PUSH2 0x36BF JUMPI PUSH1 0x0 DUP1 REVERT JUMPDEST POP GAS CALL ISZERO DUP1 ISZERO PUSH2 0x36D3 JUMPI RETURNDATASIZE PUSH1 0x0 DUP1 RETURNDATACOPY RETURNDATASIZE PUSH1 0x0 REVERT JUMPDEST POP POP POP POP PUSH1 0x40 MLOAD RETURNDATASIZE PUSH1 0x1F NOT PUSH1 0x1F DUP3 ADD AND DUP3 ADD DUP1 PUSH1 0x40 MSTORE POP DUP2 ADD SWAP1 PUSH2 0x36F7 SWAP2 SWAP1 PUSH2 0x5958 JUMP JUMPDEST SWAP1 POP PUSH1 0x49 PUSH1 0x0 SWAP1 SLOAD SWAP1 PUSH2 0x100 EXP SWAP1 DIV PUSH20 0xFFFFFFFFFFFFFFFFFFFFFFFFFFFFFFFFFFFFFFFF AND PUSH20 0xFFFFFFFFFFFFFFFFFFFFFFFFFFFFFFFFFFFFFFFF AND PUSH4 0xA457C2D7 CALLER DUP5 PUSH1 0x40 MLOAD DUP4 PUSH4 0xFFFFFFFF AND PUSH1 0xE0 SHL DUP2 MSTORE PUSH1 0x4 ADD PUSH2 0x3756 SWAP3 SWAP2 SWAP1 PUSH2 0x61F7 JUMP JUMPDEST PUSH1 0x20 PUSH1 0x40 MLOAD DUP1 DUP4 SUB DUP2 PUSH1 0x0 DUP8 DUP1 EXTCODESIZE ISZERO DUP1 ISZERO PUSH2 0x3770 JUMPI PUSH1 0x0 DUP1 REVERT JUMPDEST POP GAS CALL ISZERO DUP1 ISZERO PUSH2 0x3784 JUMPI RETURNDATASIZE PUSH1 0x0 DUP1 RETURNDATACOPY RETURNDATASIZE PUSH1 0x0 REVERT JUMPDEST POP POP POP POP PUSH1 0x40 MLOAD RETURNDATASIZE PUSH1 0x1F NOT PUSH1 0x1F DUP3 ADD AND DUP3 ADD DUP1 PUSH1 0x40 MSTORE POP DUP2 ADD SWAP1 PUSH2 0x37A8 SWAP2 SWAP1 PUSH2 0x5958 JUMP JUMPDEST POP PUSH32 0x9A8F88C5E6E981484880BF04D7B9E25440B611853C83CC5655D78455DC462FEE CALLER PUSH1 0x40 MLOAD PUSH2 0x37D8 SWAP2 SWAP1 PUSH2 0x617C JUMP JUMPDEST PUSH1 0x40 MLOAD DUP1 SWAP2 SUB SWAP1 LOG1 DUP1 SWAP3 POP POP POP SWAP1 JUMP JUMPDEST PUSH1 0x0 PUSH2 0x37F2 PUSH2 0x11EA JUMP JUMPDEST ISZERO PUSH2 0x3800 JUMPI PUSH1 0x0 SWAP1 POP PUSH2 0x398A JUMP JUMPDEST PUSH1 0x0 PUSH1 0x42 PUSH1 0x0 DUP6 PUSH20 0xFFFFFFFFFFFFFFFFFFFFFFFFFFFFFFFFFFFFFFFF AND PUSH20 0xFFFFFFFFFFFFFFFFFFFFFFFFFFFFFFFFFFFFFFFF AND DUP2 MSTORE PUSH1 0x20 ADD SWAP1 DUP2 MSTORE PUSH1 0x20 ADD PUSH1 0x0 KECCAK256 PUSH1 0x0 SWAP1 SLOAD SWAP1 PUSH2 0x100 EXP SWAP1 DIV PUSH1 0xC0 SHL PUSH24 0xFFFFFFFFFFFFFFFFFFFFFFFFFFFFFFFFFFFFFFFFFFFFFFFF NOT AND EQ ISZERO PUSH2 0x3879 JUMPI PUSH1 0x0 SWAP1 POP PUSH2 0x398A JUMP JUMPDEST PUSH1 0x0 PUSH20 0xFFFFFFFFFFFFFFFFFFFFFFFFFFFFFFFFFFFFFFFF AND PUSH1 0x43 PUSH1 0x0 SWAP1 SLOAD SWAP1 PUSH2 0x100 EXP SWAP1 DIV PUSH20 0xFFFFFFFFFFFFFFFFFFFFFFFFFFFFFFFFFFFFFFFF AND PUSH20 0xFFFFFFFFFFFFFFFFFFFFFFFFFFFFFFFFFFFFFFFF AND EQ PUSH2 0x3985 JUMPI PUSH1 0x43 PUSH1 0x0 SWAP1 SLOAD SWAP1 PUSH2 0x100 EXP SWAP1 DIV PUSH20 0xFFFFFFFFFFFFFFFFFFFFFFFFFFFFFFFFFFFFFFFF AND PUSH20 0xFFFFFFFFFFFFFFFFFFFFFFFFFFFFFFFFFFFFFFFF AND PUSH4 0xC6946A12 DUP6 DUP6 DUP6 PUSH1 0x40 MLOAD DUP5 PUSH4 0xFFFFFFFF AND PUSH1 0xE0 SHL DUP2 MSTORE PUSH1 0x4 ADD PUSH2 0x392E SWAP4 SWAP3 SWAP2 SWAP1 PUSH2 0x61C0 JUMP JUMPDEST PUSH1 0x20 PUSH1 0x40 MLOAD DUP1 DUP4 SUB DUP2 DUP7 DUP1 EXTCODESIZE ISZERO DUP1 ISZERO PUSH2 0x3946 JUMPI PUSH1 0x0 DUP1 REVERT JUMPDEST POP GAS STATICCALL ISZERO DUP1 ISZERO PUSH2 0x395A JUMPI RETURNDATASIZE PUSH1 0x0 DUP1 RETURNDATACOPY RETURNDATASIZE PUSH1 0x0 REVERT JUMPDEST POP POP POP POP PUSH1 0x40 MLOAD RETURNDATASIZE PUSH1 0x1F NOT PUSH1 0x1F DUP3 ADD AND DUP3 ADD DUP1 PUSH1 0x40 MSTORE POP DUP2 ADD SWAP1 PUSH2 0x397E SWAP2 SWAP1 PUSH2 0x5958 JUMP JUMPDEST SWAP1 POP PUSH2 0x398A JUMP JUMPDEST PUSH1 0x1 SWAP1 POP JUMPDEST SWAP4 SWAP3 POP POP POP JUMP JUMPDEST PUSH2 0x3999 PUSH2 0x3AAA JUMP JUMPDEST PUSH1 0x0 PUSH20 0xFFFFFFFFFFFFFFFFFFFFFFFFFFFFFFFFFFFFFFFF AND DUP2 PUSH20 0xFFFFFFFFFFFFFFFFFFFFFFFFFFFFFFFFFFFFFFFF AND EQ ISZERO PUSH2 0x3A09 JUMPI PUSH1 0x40 MLOAD PUSH32 0x8C379A000000000000000000000000000000000000000000000000000000000 DUP2 MSTORE PUSH1 0x4 ADD PUSH2 0x3A00 SWAP1 PUSH2 0x63E6 JUMP JUMPDEST PUSH1 0x40 MLOAD DUP1 SWAP2 SUB SWAP1 REVERT JUMPDEST PUSH2 0x3A12 DUP2 PUSH2 0x3DFE JUMP JUMPDEST POP JUMP JUMPDEST PUSH1 0x0 PUSH2 0x3A1F PUSH2 0x3AAA JUMP JUMPDEST PUSH2 0x3A27 PUSH2 0x20F3 JUMP JUMPDEST SWAP1 POP SWAP1 JUMP JUMPDEST PUSH1 0x60 PUSH1 0x9 DUP1 SLOAD DUP1 PUSH1 0x20 MUL PUSH1 0x20 ADD PUSH1 0x40 MLOAD SWAP1 DUP2 ADD PUSH1 0x40 MSTORE DUP1 SWAP3 SWAP2 SWAP1 DUP2 DUP2 MSTORE PUSH1 0x20 ADD DUP3 DUP1 SLOAD DUP1 ISZERO PUSH2 0x3A7A JUMPI PUSH1 0x20 MUL DUP3 ADD SWAP2 SWAP1 PUSH1 0x0 MSTORE PUSH1 0x20 PUSH1 0x0 KECCAK256 SWAP1 JUMPDEST DUP2 SLOAD DUP2 MSTORE PUSH1 0x20 ADD SWAP1 PUSH1 0x1 ADD SWAP1 DUP1 DUP4 GT PUSH2 0x3A66 JUMPI JUMPDEST POP POP POP POP POP SWAP1 POP SWAP1 JUMP JUMPDEST PUSH1 0x43 PUSH1 0x0 SWAP1 SLOAD SWAP1 PUSH2 0x100 EXP SWAP1 DIV PUSH20 0xFFFFFFFFFFFFFFFFFFFFFFFFFFFFFFFFFFFFFFFF AND DUP2 JUMP JUMPDEST PUSH2 0x3AB2 PUSH2 0x45CC JUMP JUMPDEST PUSH20 0xFFFFFFFFFFFFFFFFFFFFFFFFFFFFFFFFFFFFFFFF AND PUSH2 0x3AD0 PUSH2 0x20F3 JUMP JUMPDEST PUSH20 0xFFFFFFFFFFFFFFFFFFFFFFFFFFFFFFFFFFFFFFFF AND EQ PUSH2 0x3B26 JUMPI PUSH1 0x40 MLOAD PUSH32 0x8C379A000000000000000000000000000000000000000000000000000000000 DUP2 MSTORE PUSH1 0x4 ADD PUSH2 0x3B1D SWAP1 PUSH2 0x6566 JUMP JUMPDEST PUSH1 0x40 MLOAD DUP1 SWAP2 SUB SWAP1 REVERT JUMPDEST JUMP JUMPDEST PUSH2 0x3B30 PUSH2 0x11EA JUMP JUMPDEST ISZERO PUSH2 0x3B70 JUMPI PUSH1 0x40 MLOAD PUSH32 0x8C379A000000000000000000000000000000000000000000000000000000000 DUP2 MSTORE PUSH1 0x4 ADD PUSH2 0x3B67 SWAP1 PUSH2 0x64A6 JUMP JUMPDEST PUSH1 0x40 MLOAD DUP1 SWAP2 SUB SWAP1 REVERT JUMPDEST JUMP JUMPDEST PUSH1 0x0 DUP1 PUSH2 0x3B7D PUSH2 0x45CC JUMP JUMPDEST SWAP1 POP PUSH2 0x3B8A DUP2 DUP6 DUP6 PUSH2 0x45D4 JUMP JUMPDEST PUSH1 0x1 SWAP2 POP POP SWAP3 SWAP2 POP POP JUMP JUMPDEST PUSH1 0x0 DUP1 PUSH2 0x3BA0 PUSH2 0x45CC JUMP JUMPDEST SWAP1 POP PUSH2 0x3BAD DUP6 DUP3 DUP6 PUSH2 0x479F JUMP JUMPDEST PUSH2 0x3BB8 DUP6 DUP6 DUP6 PUSH2 0x482B JUMP JUMPDEST PUSH1 0x1 SWAP2 POP POP SWAP4 SWAP3 POP POP POP JUMP JUMPDEST PUSH1 0x60 PUSH1 0x0 DUP3 MLOAD PUSH8 0xFFFFFFFFFFFFFFFF DUP2 GT ISZERO PUSH2 0x3BE3 JUMPI PUSH2 0x3BE2 PUSH2 0x6D39 JUMP JUMPDEST JUMPDEST PUSH1 0x40 MLOAD SWAP1 DUP1 DUP3 MSTORE DUP1 PUSH1 0x20 MUL PUSH1 0x20 ADD DUP3 ADD PUSH1 0x40 MSTORE DUP1 ISZERO PUSH2 0x3C11 JUMPI DUP2 PUSH1 0x20 ADD PUSH1 0x20 DUP3 MUL DUP1 CALLDATASIZE DUP4 CALLDATACOPY DUP1 DUP3 ADD SWAP2 POP POP SWAP1 POP JUMPDEST POP SWAP1 POP PUSH1 0x0 JUMPDEST DUP4 MLOAD DUP2 LT ISZERO PUSH2 0x3CF1 JUMPI PUSH1 0x42 PUSH1 0x0 DUP6 DUP4 DUP2 MLOAD DUP2 LT PUSH2 0x3C37 JUMPI PUSH2 0x3C36 PUSH2 0x6D0A JUMP JUMPDEST JUMPDEST PUSH1 0x20 MUL PUSH1 0x20 ADD ADD MLOAD PUSH20 0xFFFFFFFFFFFFFFFFFFFFFFFFFFFFFFFFFFFFFFFF AND PUSH20 0xFFFFFFFFFFFFFFFFFFFFFFFFFFFFFFFFFFFFFFFF AND DUP2 MSTORE PUSH1 0x20 ADD SWAP1 DUP2 MSTORE PUSH1 0x20 ADD PUSH1 0x0 KECCAK256 PUSH1 0x0 SWAP1 SLOAD SWAP1 PUSH2 0x100 EXP SWAP1 DIV PUSH1 0xC0 SHL DUP3 DUP3 DUP2 MLOAD DUP2 LT PUSH2 0x3C9A JUMPI PUSH2 0x3C99 PUSH2 0x6D0A JUMP JUMPDEST JUMPDEST PUSH1 0x20 MUL PUSH1 0x20 ADD ADD SWAP1 PUSH24 0xFFFFFFFFFFFFFFFFFFFFFFFFFFFFFFFFFFFFFFFFFFFFFFFF NOT AND SWAP1 DUP2 PUSH24 0xFFFFFFFFFFFFFFFFFFFFFFFFFFFFFFFFFFFFFFFFFFFFFFFF NOT AND DUP2 MSTORE POP POP DUP1 DUP1 PUSH2 0x3CE9 SWAP1 PUSH2 0x6C05 JUMP JUMPDEST SWAP2 POP POP PUSH2 0x3C17 JUMP JUMPDEST POP DUP1 SWAP2 POP POP SWAP2 SWAP1 POP JUMP JUMPDEST PUSH1 0x0 DUP1 PUSH2 0x3D06 PUSH2 0x45CC JUMP JUMPDEST SWAP1 POP PUSH2 0x3D27 DUP2 DUP6 DUP6 PUSH2 0x3D18 DUP6 DUP10 PUSH2 0x3486 JUMP JUMPDEST PUSH2 0x3D22 SWAP2 SWAP1 PUSH2 0x6908 JUMP JUMPDEST PUSH2 0x45D4 JUMP JUMPDEST PUSH1 0x1 SWAP2 POP POP SWAP3 SWAP2 POP POP JUMP JUMPDEST PUSH2 0x3D3A PUSH2 0x4AA3 JUMP JUMPDEST PUSH1 0x0 PUSH1 0x3F PUSH1 0x0 PUSH2 0x100 EXP DUP2 SLOAD DUP2 PUSH1 0xFF MUL NOT AND SWAP1 DUP4 ISZERO ISZERO MUL OR SWAP1 SSTORE POP PUSH32 0x5DB9EE0A495BF2E6FF9C91A7834C1BA4FDD244A5E8AA4E537BD38AEAE4B073AA PUSH2 0x3D7E PUSH2 0x45CC JUMP JUMPDEST PUSH1 0x40 MLOAD PUSH2 0x3D8B SWAP2 SWAP1 PUSH2 0x617C JUMP JUMPDEST PUSH1 0x40 MLOAD DUP1 SWAP2 SUB SWAP1 LOG1 JUMP JUMPDEST PUSH1 0x0 DUP1 PUSH1 0x0 PUSH2 0x3DB0 DUP6 DUP6 PUSH1 0x0 ADD PUSH2 0x4AEC SWAP1 SWAP2 SWAP1 PUSH4 0xFFFFFFFF AND JUMP JUMPDEST SWAP1 POP DUP4 PUSH1 0x0 ADD DUP1 SLOAD SWAP1 POP DUP2 EQ ISZERO PUSH2 0x3DCE JUMPI PUSH1 0x0 DUP1 SWAP3 POP SWAP3 POP POP PUSH2 0x3DF7 JUMP JUMPDEST PUSH1 0x1 DUP5 PUSH1 0x1 ADD DUP3 DUP2 SLOAD DUP2 LT PUSH2 0x3DE6 JUMPI PUSH2 0x3DE5 PUSH2 0x6D0A JUMP JUMPDEST JUMPDEST SWAP1 PUSH1 0x0 MSTORE PUSH1 0x20 PUSH1 0x0 KECCAK256 ADD SLOAD SWAP3 POP SWAP3 POP POP JUMPDEST SWAP3 POP SWAP3 SWAP1 POP JUMP JUMPDEST PUSH1 0x0 PUSH1 0x3D PUSH1 0x0 SWAP1 SLOAD SWAP1 PUSH2 0x100 EXP SWAP1 DIV PUSH20 0xFFFFFFFFFFFFFFFFFFFFFFFFFFFFFFFFFFFFFFFF AND SWAP1 POP DUP2 PUSH1 0x3D PUSH1 0x0 PUSH2 0x100 EXP DUP2 SLOAD DUP2 PUSH20 0xFFFFFFFFFFFFFFFFFFFFFFFFFFFFFFFFFFFFFFFF MUL NOT AND SWAP1 DUP4 PUSH20 0xFFFFFFFFFFFFFFFFFFFFFFFFFFFFFFFFFFFFFFFF AND MUL OR SWAP1 SSTORE POP DUP2 PUSH20 0xFFFFFFFFFFFFFFFFFFFFFFFFFFFFFFFFFFFFFFFF AND DUP2 PUSH20 0xFFFFFFFFFFFFFFFFFFFFFFFFFFFFFFFFFFFFFFFF AND PUSH32 0x8BE0079C531659141344CD1FD0A4F28419497F9722A3DAAFE3B4186F6B6457E0 PUSH1 0x40 MLOAD PUSH1 0x40 MLOAD DUP1 SWAP2 SUB SWAP1 LOG3 POP POP JUMP JUMPDEST PUSH2 0x3ECC PUSH2 0x3B28 JUMP JUMPDEST PUSH1 0x1 PUSH1 0x3F PUSH1 0x0 PUSH2 0x100 EXP DUP2 SLOAD DUP2 PUSH1 0xFF MUL NOT AND SWAP1 DUP4 ISZERO ISZERO MUL OR SWAP1 SSTORE POP PUSH32 0x62E78CEA01BEE320CD4E420270B5EA74000D11B0C9F74754EBDBFC544B05A258 PUSH2 0x3F10 PUSH2 0x45CC JUMP JUMPDEST PUSH1 0x40 MLOAD PUSH2 0x3F1D SWAP2 SWAP1 PUSH2 0x617C JUMP JUMPDEST PUSH1 0x40 MLOAD DUP1 SWAP2 SUB SWAP1 LOG1 JUMP JUMPDEST PUSH1 0x0 DUP1 PUSH2 0x3F32 PUSH2 0x45CC JUMP JUMPDEST SWAP1 POP PUSH2 0x3F3F DUP2 DUP6 DUP6 PUSH2 0x482B JUMP JUMPDEST PUSH1 0x1 SWAP2 POP POP SWAP3 SWAP2 POP POP JUMP JUMPDEST PUSH1 0x0 DUP2 TIMESTAMP LT PUSH2 0x3F8E JUMPI PUSH1 0x40 MLOAD PUSH32 0x8C379A000000000000000000000000000000000000000000000000000000000 DUP2 MSTORE PUSH1 0x4 ADD PUSH2 0x3F85 SWAP1 PUSH2 0x65E6 JUMP JUMPDEST PUSH1 0x40 MLOAD DUP1 SWAP2 SUB SWAP1 REVERT JUMPDEST PUSH1 0x0 PUSH2 0x3F99 DUP4 PUSH2 0x4BC6 JUMP JUMPDEST POP SWAP1 POP DUP1 ISZERO PUSH2 0x3FDD JUMPI PUSH1 0x40 MLOAD PUSH32 0x8C379A000000000000000000000000000000000000000000000000000000000 DUP2 MSTORE PUSH1 0x4 ADD PUSH2 0x3FD4 SWAP1 PUSH2 0x6626 JUMP JUMPDEST PUSH1 0x40 MLOAD DUP1 SWAP2 SUB SWAP1 REVERT JUMPDEST PUSH1 0x9 DUP4 SWAP1 DUP1 PUSH1 0x1 DUP2 SLOAD ADD DUP1 DUP3 SSTORE DUP1 SWAP2 POP POP PUSH1 0x1 SWAP1 SUB SWAP1 PUSH1 0x0 MSTORE PUSH1 0x20 PUSH1 0x0 KECCAK256 ADD PUSH1 0x0 SWAP1 SWAP2 SWAP1 SWAP2 SWAP1 SWAP2 POP SSTORE DUP3 PUSH1 0x0 PUSH32 0xE2AD3B1ABE53383DBE6359F02F11AE76D91CFAB321B37083B16E1D96A81D4183 PUSH1 0x40 MLOAD PUSH1 0x40 MLOAD DUP1 SWAP2 SUB SWAP1 LOG3 DUP3 SWAP2 POP POP SWAP2 SWAP1 POP JUMP JUMPDEST PUSH1 0x0 DUP1 PUSH2 0x4049 PUSH2 0x45CC JUMP JUMPDEST SWAP1 POP PUSH1 0x0 PUSH2 0x4057 DUP3 DUP7 PUSH2 0x3486 JUMP JUMPDEST SWAP1 POP DUP4 DUP2 LT ISZERO PUSH2 0x409C JUMPI PUSH1 0x40 MLOAD PUSH32 0x8C379A000000000000000000000000000000000000000000000000000000000 DUP2 MSTORE PUSH1 0x4 ADD PUSH2 0x4093 SWAP1 PUSH2 0x6666 JUMP JUMPDEST PUSH1 0x40 MLOAD DUP1 SWAP2 SUB SWAP1 REVERT JUMPDEST PUSH2 0x40A9 DUP3 DUP7 DUP7 DUP5 SUB PUSH2 0x45D4 JUMP JUMPDEST PUSH1 0x1 SWAP3 POP POP POP SWAP3 SWAP2 POP POP JUMP JUMPDEST PUSH2 0x40BD PUSH2 0x3B28 JUMP JUMPDEST PUSH1 0x0 PUSH20 0xFFFFFFFFFFFFFFFFFFFFFFFFFFFFFFFFFFFFFFFF AND PUSH1 0x43 PUSH1 0x0 SWAP1 SLOAD SWAP1 PUSH2 0x100 EXP SWAP1 DIV PUSH20 0xFFFFFFFFFFFFFFFFFFFFFFFFFFFFFFFFFFFFFFFF AND PUSH20 0xFFFFFFFFFFFFFFFFFFFFFFFFFFFFFFFFFFFFFFFF AND EQ PUSH2 0x4209 JUMPI PUSH1 0x43 PUSH1 0x0 SWAP1 SLOAD SWAP1 PUSH2 0x100 EXP SWAP1 DIV PUSH20 0xFFFFFFFFFFFFFFFFFFFFFFFFFFFFFFFFFFFFFFFF AND PUSH20 0xFFFFFFFFFFFFFFFFFFFFFFFFFFFFFFFFFFFFFFFF AND PUSH4 0xC6946A12 PUSH2 0x4159 PUSH2 0x20F3 JUMP JUMPDEST DUP5 DUP5 PUSH1 0x40 MLOAD DUP5 PUSH4 0xFFFFFFFF AND PUSH1 0xE0 SHL DUP2 MSTORE PUSH1 0x4 ADD PUSH2 0x4179 SWAP4 SWAP3 SWAP2 SWAP1 PUSH2 0x61C0 JUMP JUMPDEST PUSH1 0x20 PUSH1 0x40 MLOAD DUP1 DUP4 SUB DUP2 DUP7 DUP1 EXTCODESIZE ISZERO DUP1 ISZERO PUSH2 0x4191 JUMPI PUSH1 0x0 DUP1 REVERT JUMPDEST POP GAS STATICCALL ISZERO DUP1 ISZERO PUSH2 0x41A5 JUMPI RETURNDATASIZE PUSH1 0x0 DUP1 RETURNDATACOPY RETURNDATASIZE PUSH1 0x0 REVERT JUMPDEST POP POP POP POP PUSH1 0x40 MLOAD RETURNDATASIZE PUSH1 0x1F NOT PUSH1 0x1F DUP3 ADD AND DUP3 ADD DUP1 PUSH1 0x40 MSTORE POP DUP2 ADD SWAP1 PUSH2 0x41C9 SWAP2 SWAP1 PUSH2 0x5958 JUMP JUMPDEST PUSH2 0x4208 JUMPI PUSH1 0x40 MLOAD PUSH32 0x8C379A000000000000000000000000000000000000000000000000000000000 DUP2 MSTORE PUSH1 0x4 ADD PUSH2 0x41FF SWAP1 PUSH2 0x6366 JUMP JUMPDEST PUSH1 0x40 MLOAD DUP1 SWAP2 SUB SWAP1 REVERT JUMPDEST JUMPDEST PUSH2 0x421B PUSH2 0x4214 PUSH2 0x20F3 JUMP JUMPDEST DUP4 DUP4 PUSH2 0x482B JUMP JUMPDEST POP POP JUMP JUMPDEST PUSH1 0x0 PUSH20 0xFFFFFFFFFFFFFFFFFFFFFFFFFFFFFFFFFFFFFFFF AND DUP3 PUSH20 0xFFFFFFFFFFFFFFFFFFFFFFFFFFFFFFFFFFFFFFFF AND EQ ISZERO PUSH2 0x428F JUMPI PUSH1 0x40 MLOAD PUSH32 0x8C379A000000000000000000000000000000000000000000000000000000000 DUP2 MSTORE PUSH1 0x4 ADD PUSH2 0x4286 SWAP1 PUSH2 0x6686 JUMP JUMPDEST PUSH1 0x40 MLOAD DUP1 SWAP2 SUB SWAP1 REVERT JUMPDEST PUSH2 0x429B PUSH1 0x0 DUP4 DUP4 PUSH2 0x4C2D JUMP JUMPDEST DUP1 PUSH1 0x2 PUSH1 0x0 DUP3 DUP3 SLOAD PUSH2 0x42AD SWAP2 SWAP1 PUSH2 0x6908 JUMP JUMPDEST SWAP3 POP POP DUP2 SWAP1 SSTORE POP DUP1 PUSH1 0x0 DUP1 DUP5 PUSH20 0xFFFFFFFFFFFFFFFFFFFFFFFFFFFFFFFFFFFFFFFF AND PUSH20 0xFFFFFFFFFFFFFFFFFFFFFFFFFFFFFFFFFFFFFFFF AND DUP2 MSTORE PUSH1 0x20 ADD SWAP1 DUP2 MSTORE PUSH1 0x20 ADD PUSH1 0x0 KECCAK256 PUSH1 0x0 DUP3 DUP3 SLOAD ADD SWAP3 POP POP DUP2 SWAP1 SSTORE POP DUP2 PUSH20 0xFFFFFFFFFFFFFFFFFFFFFFFFFFFFFFFFFFFFFFFF AND PUSH1 0x0 PUSH20 0xFFFFFFFFFFFFFFFFFFFFFFFFFFFFFFFFFFFFFFFF AND PUSH32 0xDDF252AD1BE2C89B69C2B068FC378DAA952BA7F163C4A11628F55A4DF523B3EF DUP4 PUSH1 0x40 MLOAD PUSH2 0x435E SWAP2 SWAP1 PUSH2 0x66A6 JUMP JUMPDEST PUSH1 0x40 MLOAD DUP1 SWAP2 SUB SWAP1 LOG3 PUSH2 0x4372 PUSH1 0x0 DUP4 DUP4 PUSH2 0x4CE4 JUMP JUMPDEST POP POP JUMP JUMPDEST PUSH1 0x0 DUP3 TIMESTAMP LT PUSH2 0x43BA JUMPI PUSH1 0x40 MLOAD PUSH32 0x8C379A000000000000000000000000000000000000000000000000000000000 DUP2 MSTORE PUSH1 0x4 ADD PUSH2 0x43B1 SWAP1 PUSH2 0x6446 JUMP JUMPDEST PUSH1 0x40 MLOAD DUP1 SWAP2 SUB SWAP1 REVERT JUMPDEST DUP2 TIMESTAMP LT PUSH2 0x43FC JUMPI PUSH1 0x40 MLOAD PUSH32 0x8C379A000000000000000000000000000000000000000000000000000000000 DUP2 MSTORE PUSH1 0x4 ADD PUSH2 0x43F3 SWAP1 PUSH2 0x65E6 JUMP JUMPDEST PUSH1 0x40 MLOAD DUP1 SWAP2 SUB SWAP1 REVERT JUMPDEST PUSH1 0x0 PUSH2 0x4407 DUP4 PUSH2 0x4BC6 JUMP JUMPDEST POP SWAP1 POP DUP1 ISZERO PUSH2 0x444B JUMPI PUSH1 0x40 MLOAD PUSH32 0x8C379A000000000000000000000000000000000000000000000000000000000 DUP2 MSTORE PUSH1 0x4 ADD PUSH2 0x4442 SWAP1 PUSH2 0x6626 JUMP JUMPDEST PUSH1 0x40 MLOAD DUP1 SWAP2 SUB SWAP1 REVERT JUMPDEST PUSH1 0x0 DUP1 PUSH2 0x4457 DUP7 PUSH2 0x4BC6 JUMP JUMPDEST SWAP2 POP SWAP2 POP DUP2 PUSH2 0x449B JUMPI PUSH1 0x40 MLOAD PUSH32 0x8C379A000000000000000000000000000000000000000000000000000000000 DUP2 MSTORE PUSH1 0x4 ADD PUSH2 0x4492 SWAP1 PUSH2 0x6586 JUMP JUMPDEST PUSH1 0x40 MLOAD DUP1 SWAP2 SUB SWAP1 REVERT JUMPDEST DUP5 PUSH1 0x9 DUP3 DUP2 SLOAD DUP2 LT PUSH2 0x44B0 JUMPI PUSH2 0x44AF PUSH2 0x6D0A JUMP JUMPDEST JUMPDEST SWAP1 PUSH1 0x0 MSTORE PUSH1 0x20 PUSH1 0x0 KECCAK256 ADD DUP2 SWAP1 SSTORE POP DUP5 DUP7 PUSH32 0xE2AD3B1ABE53383DBE6359F02F11AE76D91CFAB321B37083B16E1D96A81D4183 PUSH1 0x40 MLOAD PUSH1 0x40 MLOAD DUP1 SWAP2 SUB SWAP1 LOG3 DUP5 SWAP4 POP POP POP POP SWAP3 SWAP2 POP POP JUMP JUMPDEST PUSH1 0x0 DUP2 TIMESTAMP LT PUSH2 0x453C JUMPI PUSH1 0x40 MLOAD PUSH32 0x8C379A000000000000000000000000000000000000000000000000000000000 DUP2 MSTORE PUSH1 0x4 ADD PUSH2 0x4533 SWAP1 PUSH2 0x6446 JUMP JUMPDEST PUSH1 0x40 MLOAD DUP1 SWAP2 SUB SWAP1 REVERT JUMPDEST PUSH1 0x0 DUP1 PUSH2 0x4548 DUP5 PUSH2 0x4BC6 JUMP JUMPDEST SWAP2 POP SWAP2 POP DUP2 PUSH2 0x458C JUMPI PUSH1 0x40 MLOAD PUSH32 0x8C379A000000000000000000000000000000000000000000000000000000000 DUP2 MSTORE PUSH1 0x4 ADD PUSH2 0x4583 SWAP1 PUSH2 0x6586 JUMP JUMPDEST PUSH1 0x40 MLOAD DUP1 SWAP2 SUB SWAP1 REVERT JUMPDEST PUSH2 0x4595 DUP2 PUSH2 0x4CE9 JUMP JUMPDEST DUP4 PUSH32 0x6E2498F5548E5491BFE985562CC494131EAE56B5B6543B59129C8886F129F65 PUSH1 0x40 MLOAD PUSH1 0x40 MLOAD DUP1 SWAP2 SUB SWAP1 LOG2 DUP4 SWAP3 POP POP POP SWAP2 SWAP1 POP JUMP JUMPDEST PUSH1 0x0 CALLER SWAP1 POP SWAP1 JUMP JUMPDEST PUSH1 0x0 PUSH20 0xFFFFFFFFFFFFFFFFFFFFFFFFFFFFFFFFFFFFFFFF AND DUP4 PUSH20 0xFFFFFFFFFFFFFFFFFFFFFFFFFFFFFFFFFFFFFFFF AND EQ ISZERO PUSH2 0x4644 JUMPI PUSH1 0x40 MLOAD PUSH32 0x8C379A000000000000000000000000000000000000000000000000000000000 DUP2 MSTORE PUSH1 0x4 ADD PUSH2 0x463B SWAP1 PUSH2 0x6606 JUMP JUMPDEST PUSH1 0x40 MLOAD DUP1 SWAP2 SUB SWAP1 REVERT JUMPDEST PUSH1 0x0 PUSH20 0xFFFFFFFFFFFFFFFFFFFFFFFFFFFFFFFFFFFFFFFF AND DUP3 PUSH20 0xFFFFFFFFFFFFFFFFFFFFFFFFFFFFFFFFFFFFFFFF AND EQ ISZERO PUSH2 0x46B4 JUMPI PUSH1 0x40 MLOAD PUSH32 0x8C379A000000000000000000000000000000000000000000000000000000000 DUP2 MSTORE PUSH1 0x4 ADD PUSH2 0x46AB SWAP1 PUSH2 0x6406 JUMP JUMPDEST PUSH1 0x40 MLOAD DUP1 SWAP2 SUB SWAP1 REVERT JUMPDEST DUP1 PUSH1 0x1 PUSH1 0x0 DUP6 PUSH20 0xFFFFFFFFFFFFFFFFFFFFFFFFFFFFFFFFFFFFFFFF AND PUSH20 0xFFFFFFFFFFFFFFFFFFFFFFFFFFFFFFFFFFFFFFFF AND DUP2 MSTORE PUSH1 0x20 ADD SWAP1 DUP2 MSTORE PUSH1 0x20 ADD PUSH1 0x0 KECCAK256 PUSH1 0x0 DUP5 PUSH20 0xFFFFFFFFFFFFFFFFFFFFFFFFFFFFFFFFFFFFFFFF AND PUSH20 0xFFFFFFFFFFFFFFFFFFFFFFFFFFFFFFFFFFFFFFFF AND DUP2 MSTORE PUSH1 0x20 ADD SWAP1 DUP2 MSTORE PUSH1 0x20 ADD PUSH1 0x0 KECCAK256 DUP2 SWAP1 SSTORE POP DUP2 PUSH20 0xFFFFFFFFFFFFFFFFFFFFFFFFFFFFFFFFFFFFFFFF AND DUP4 PUSH20 0xFFFFFFFFFFFFFFFFFFFFFFFFFFFFFFFFFFFFFFFF AND PUSH32 0x8C5BE1E5EBEC7D5BD14F71427D1E84F3DD0314C0F7B2291E5B200AC8C7C3B925 DUP4 PUSH1 0x40 MLOAD PUSH2 0x4792 SWAP2 SWAP1 PUSH2 0x66A6 JUMP JUMPDEST PUSH1 0x40 MLOAD DUP1 SWAP2 SUB SWAP1 LOG3 POP POP POP JUMP JUMPDEST PUSH1 0x0 PUSH2 0x47AB DUP5 DUP5 PUSH2 0x3486 JUMP JUMPDEST SWAP1 POP PUSH32 0xFFFFFFFFFFFFFFFFFFFFFFFFFFFFFFFFFFFFFFFFFFFFFFFFFFFFFFFFFFFFFFFF DUP2 EQ PUSH2 0x4825 JUMPI DUP2 DUP2 LT ISZERO PUSH2 0x4817 JUMPI PUSH1 0x40 MLOAD PUSH32 0x8C379A000000000000000000000000000000000000000000000000000000000 DUP2 MSTORE PUSH1 0x4 ADD PUSH2 0x480E SWAP1 PUSH2 0x6426 JUMP JUMPDEST PUSH1 0x40 MLOAD DUP1 SWAP2 SUB SWAP1 REVERT JUMPDEST PUSH2 0x4824 DUP5 DUP5 DUP5 DUP5 SUB PUSH2 0x45D4 JUMP JUMPDEST JUMPDEST POP POP POP POP JUMP JUMPDEST PUSH1 0x0 PUSH20 0xFFFFFFFFFFFFFFFFFFFFFFFFFFFFFFFFFFFFFFFF AND DUP4 PUSH20 0xFFFFFFFFFFFFFFFFFFFFFFFFFFFFFFFFFFFFFFFF AND EQ ISZERO PUSH2 0x489B JUMPI PUSH1 0x40 MLOAD PUSH32 0x8C379A000000000000000000000000000000000000000000000000000000000 DUP2 MSTORE PUSH1 0x4 ADD PUSH2 0x4892 SWAP1 PUSH2 0x65C6 JUMP JUMPDEST PUSH1 0x40 MLOAD DUP1 SWAP2 SUB SWAP1 REVERT JUMPDEST PUSH1 0x0 PUSH20 0xFFFFFFFFFFFFFFFFFFFFFFFFFFFFFFFFFFFFFFFF AND DUP3 PUSH20 0xFFFFFFFFFFFFFFFFFFFFFFFFFFFFFFFFFFFFFFFF AND EQ ISZERO PUSH2 0x490B JUMPI PUSH1 0x40 MLOAD PUSH32 0x8C379A000000000000000000000000000000000000000000000000000000000 DUP2 MSTORE PUSH1 0x4 ADD PUSH2 0x4902 SWAP1 PUSH2 0x6386 JUMP JUMPDEST PUSH1 0x40 MLOAD DUP1 SWAP2 SUB SWAP1 REVERT JUMPDEST PUSH2 0x4916 DUP4 DUP4 DUP4 PUSH2 0x4C2D JUMP JUMPDEST PUSH1 0x0 DUP1 PUSH1 0x0 DUP6 PUSH20 0xFFFFFFFFFFFFFFFFFFFFFFFFFFFFFFFFFFFFFFFF AND PUSH20 0xFFFFFFFFFFFFFFFFFFFFFFFFFFFFFFFFFFFFFFFF AND DUP2 MSTORE PUSH1 0x20 ADD SWAP1 DUP2 MSTORE PUSH1 0x20 ADD PUSH1 0x0 KECCAK256 SLOAD SWAP1 POP DUP2 DUP2 LT ISZERO PUSH2 0x499C JUMPI PUSH1 0x40 MLOAD PUSH32 0x8C379A000000000000000000000000000000000000000000000000000000000 DUP2 MSTORE PUSH1 0x4 ADD PUSH2 0x4993 SWAP1 PUSH2 0x6486 JUMP JUMPDEST PUSH1 0x40 MLOAD DUP1 SWAP2 SUB SWAP1 REVERT JUMPDEST DUP2 DUP2 SUB PUSH1 0x0 DUP1 DUP7 PUSH20 0xFFFFFFFFFFFFFFFFFFFFFFFFFFFFFFFFFFFFFFFF AND PUSH20 0xFFFFFFFFFFFFFFFFFFFFFFFFFFFFFFFFFFFFFFFF AND DUP2 MSTORE PUSH1 0x20 ADD SWAP1 DUP2 MSTORE PUSH1 0x20 ADD PUSH1 0x0 KECCAK256 DUP2 SWAP1 SSTORE POP DUP2 PUSH1 0x0 DUP1 DUP6 PUSH20 0xFFFFFFFFFFFFFFFFFFFFFFFFFFFFFFFFFFFFFFFF AND PUSH20 0xFFFFFFFFFFFFFFFFFFFFFFFFFFFFFFFFFFFFFFFF AND DUP2 MSTORE PUSH1 0x20 ADD SWAP1 DUP2 MSTORE PUSH1 0x20 ADD PUSH1 0x0 KECCAK256 PUSH1 0x0 DUP3 DUP3 SLOAD ADD SWAP3 POP POP DUP2 SWAP1 SSTORE POP DUP3 PUSH20 0xFFFFFFFFFFFFFFFFFFFFFFFFFFFFFFFFFFFFFFFF AND DUP5 PUSH20 0xFFFFFFFFFFFFFFFFFFFFFFFFFFFFFFFFFFFFFFFF AND PUSH32 0xDDF252AD1BE2C89B69C2B068FC378DAA952BA7F163C4A11628F55A4DF523B3EF DUP5 PUSH1 0x40 MLOAD PUSH2 0x4A8A SWAP2 SWAP1 PUSH2 0x66A6 JUMP JUMPDEST PUSH1 0x40 MLOAD DUP1 SWAP2 SUB SWAP1 LOG3 PUSH2 0x4A9D DUP5 DUP5 DUP5 PUSH2 0x4CE4 JUMP JUMPDEST POP POP POP POP JUMP JUMPDEST PUSH2 0x4AAB PUSH2 0x11EA JUMP JUMPDEST PUSH2 0x4AEA JUMPI PUSH1 0x40 MLOAD PUSH32 0x8C379A000000000000000000000000000000000000000000000000000000000 DUP2 MSTORE PUSH1 0x4 ADD PUSH2 0x4AE1 SWAP1 PUSH2 0x63A6 JUMP JUMPDEST PUSH1 0x40 MLOAD DUP1 SWAP2 SUB SWAP1 REVERT JUMPDEST JUMP JUMPDEST PUSH1 0x0 DUP1 DUP4 DUP1 SLOAD SWAP1 POP EQ ISZERO PUSH2 0x4B03 JUMPI PUSH1 0x0 SWAP1 POP PUSH2 0x4BC0 JUMP JUMPDEST PUSH1 0x0 DUP1 DUP5 DUP1 SLOAD SWAP1 POP SWAP1 POP JUMPDEST DUP1 DUP3 LT ISZERO PUSH2 0x4B67 JUMPI PUSH1 0x0 PUSH2 0x4B22 DUP4 DUP4 PUSH2 0x4DBC JUMP JUMPDEST SWAP1 POP DUP5 DUP7 DUP3 DUP2 SLOAD DUP2 LT PUSH2 0x4B38 JUMPI PUSH2 0x4B37 PUSH2 0x6D0A JUMP JUMPDEST JUMPDEST SWAP1 PUSH1 0x0 MSTORE PUSH1 0x20 PUSH1 0x0 KECCAK256 ADD SLOAD GT ISZERO PUSH2 0x4B51 JUMPI DUP1 SWAP2 POP PUSH2 0x4B61 JUMP JUMPDEST PUSH1 0x1 DUP2 PUSH2 0x4B5E SWAP2 SWAP1 PUSH2 0x6908 JUMP JUMPDEST SWAP3 POP JUMPDEST POP PUSH2 0x4B0E JUMP JUMPDEST PUSH1 0x0 DUP3 GT DUP1 ISZERO PUSH2 0x4B9F JUMPI POP DUP4 DUP6 PUSH1 0x1 DUP5 PUSH2 0x4B81 SWAP2 SWAP1 PUSH2 0x69E9 JUMP JUMPDEST DUP2 SLOAD DUP2 LT PUSH2 0x4B92 JUMPI PUSH2 0x4B91 PUSH2 0x6D0A JUMP JUMPDEST JUMPDEST SWAP1 PUSH1 0x0 MSTORE PUSH1 0x20 PUSH1 0x0 KECCAK256 ADD SLOAD EQ JUMPDEST ISZERO PUSH2 0x4BBA JUMPI PUSH1 0x1 DUP3 PUSH2 0x4BB1 SWAP2 SWAP1 PUSH2 0x69E9 JUMP JUMPDEST SWAP3 POP POP POP PUSH2 0x4BC0 JUMP JUMPDEST DUP2 SWAP3 POP POP POP JUMPDEST SWAP3 SWAP2 POP POP JUMP JUMPDEST PUSH1 0x0 DUP1 PUSH1 0x0 JUMPDEST PUSH1 0x9 DUP1 SLOAD SWAP1 POP DUP2 LT ISZERO PUSH2 0x4C1F JUMPI DUP4 PUSH1 0x9 DUP3 DUP2 SLOAD DUP2 LT PUSH2 0x4BEE JUMPI PUSH2 0x4BED PUSH2 0x6D0A JUMP JUMPDEST JUMPDEST SWAP1 PUSH1 0x0 MSTORE PUSH1 0x20 PUSH1 0x0 KECCAK256 ADD SLOAD EQ ISZERO PUSH2 0x4C0C JUMPI PUSH1 0x1 DUP2 SWAP3 POP SWAP3 POP POP PUSH2 0x4C28 JUMP JUMPDEST DUP1 DUP1 PUSH2 0x4C17 SWAP1 PUSH2 0x6C05 JUMP JUMPDEST SWAP2 POP POP PUSH2 0x4BCC JUMP JUMPDEST POP PUSH1 0x0 DUP1 SWAP2 POP SWAP2 POP JUMPDEST SWAP2 POP SWAP2 JUMP JUMPDEST PUSH2 0x4C38 DUP4 DUP4 DUP4 PUSH2 0x4DE2 JUMP JUMPDEST PUSH2 0x4C40 PUSH2 0x4DE7 JUMP JUMPDEST PUSH1 0x0 PUSH20 0xFFFFFFFFFFFFFFFFFFFFFFFFFFFFFFFFFFFFFFFF AND DUP4 PUSH20 0xFFFFFFFFFFFFFFFFFFFFFFFFFFFFFFFFFFFFFFFF AND EQ PUSH2 0x4CCD JUMPI PUSH2 0x4C7D DUP4 PUSH2 0x4E0F JUMP JUMPDEST PUSH1 0x0 PUSH20 0xFFFFFFFFFFFFFFFFFFFFFFFFFFFFFFFFFFFFFFFF AND DUP3 PUSH20 0xFFFFFFFFFFFFFFFFFFFFFFFFFFFFFFFFFFFFFFFF AND EQ PUSH2 0x4CBF JUMPI PUSH2 0x4CBA DUP3 PUSH2 0x4E0F JUMP JUMPDEST PUSH2 0x4CC8 JUMP JUMPDEST PUSH2 0x4CC7 PUSH2 0x4E62 JUMP JUMPDEST JUMPDEST PUSH2 0x4CDF JUMP JUMPDEST PUSH2 0x4CD6 DUP3 PUSH2 0x4E0F JUMP JUMPDEST PUSH2 0x4CDE PUSH2 0x4E62 JUMP JUMPDEST JUMPDEST POP POP POP JUMP JUMPDEST POP POP POP JUMP JUMPDEST PUSH1 0x9 PUSH1 0x1 PUSH1 0x9 DUP1 SLOAD SWAP1 POP PUSH2 0x4CFD SWAP2 SWAP1 PUSH2 0x69E9 JUMP JUMPDEST DUP2 SLOAD DUP2 LT PUSH2 0x4D0E JUMPI PUSH2 0x4D0D PUSH2 0x6D0A JUMP JUMPDEST JUMPDEST SWAP1 PUSH1 0x0 MSTORE PUSH1 0x20 PUSH1 0x0 KECCAK256 ADD SLOAD PUSH1 0x9 DUP3 DUP2 SLOAD DUP2 LT PUSH2 0x4D2D JUMPI PUSH2 0x4D2C PUSH2 0x6D0A JUMP JUMPDEST JUMPDEST SWAP1 PUSH1 0x0 MSTORE PUSH1 0x20 PUSH1 0x0 KECCAK256 ADD DUP2 SWAP1 SSTORE POP PUSH1 0x9 PUSH1 0x1 PUSH1 0x9 DUP1 SLOAD SWAP1 POP PUSH2 0x4D4F SWAP2 SWAP1 PUSH2 0x69E9 JUMP JUMPDEST DUP2 SLOAD DUP2 LT PUSH2 0x4D60 JUMPI PUSH2 0x4D5F PUSH2 0x6D0A JUMP JUMPDEST JUMPDEST SWAP1 PUSH1 0x0 MSTORE PUSH1 0x20 PUSH1 0x0 KECCAK256 ADD SLOAD PUSH1 0xA DUP1 DUP1 SLOAD SWAP1 POP DUP2 SLOAD DUP2 LT PUSH2 0x4D83 JUMPI PUSH2 0x4D82 PUSH2 0x6D0A JUMP JUMPDEST JUMPDEST SWAP1 PUSH1 0x0 MSTORE PUSH1 0x20 PUSH1 0x0 KECCAK256 ADD DUP2 SWAP1 SSTORE POP PUSH1 0x9 DUP1 SLOAD DUP1 PUSH2 0x4DA3 JUMPI PUSH2 0x4DA2 PUSH2 0x6CDB JUMP JUMPDEST JUMPDEST PUSH1 0x1 SWAP1 SUB DUP2 DUP2 SWAP1 PUSH1 0x0 MSTORE PUSH1 0x20 PUSH1 0x0 KECCAK256 ADD PUSH1 0x0 SWAP1 SSTORE SWAP1 SSTORE POP JUMP JUMPDEST PUSH1 0x0 PUSH1 0x2 DUP3 DUP5 XOR PUSH2 0x4DCD SWAP2 SWAP1 PUSH2 0x695E JUMP JUMPDEST DUP3 DUP5 AND PUSH2 0x4DDA SWAP2 SWAP1 PUSH2 0x6908 JUMP JUMPDEST SWAP1 POP SWAP3 SWAP2 POP POP JUMP JUMPDEST POP POP POP JUMP JUMPDEST PUSH1 0x0 PUSH2 0x4DF1 PUSH2 0x4E76 JUMP JUMPDEST SWAP1 POP PUSH1 0x0 DUP2 GT ISZERO PUSH2 0x4E0C JUMPI DUP1 PUSH1 0x8 DUP2 SWAP1 SSTORE POP PUSH2 0x4E0B PUSH2 0x4F2D JUMP JUMPDEST JUMPDEST POP JUMP JUMPDEST PUSH2 0x4E5F PUSH1 0x5 PUSH1 0x0 DUP4 PUSH20 0xFFFFFFFFFFFFFFFFFFFFFFFFFFFFFFFFFFFFFFFF AND PUSH20 0xFFFFFFFFFFFFFFFFFFFFFFFFFFFFFFFFFFFFFFFF AND DUP2 MSTORE PUSH1 0x20 ADD SWAP1 DUP2 MSTORE PUSH1 0x20 ADD PUSH1 0x0 KECCAK256 PUSH2 0x4E5A DUP4 PUSH2 0x19A6 JUMP JUMPDEST PUSH2 0x4F88 JUMP JUMPDEST POP JUMP JUMPDEST PUSH2 0x4E74 PUSH1 0x6 PUSH2 0x4E6F PUSH2 0xCDC JUMP JUMPDEST PUSH2 0x4F88 JUMP JUMPDEST JUMP JUMPDEST PUSH1 0x0 DUP1 PUSH1 0x9 DUP1 SLOAD SWAP1 POP EQ ISZERO PUSH2 0x4E8E JUMPI PUSH1 0x0 SWAP1 POP PUSH2 0x4F2A JUMP JUMPDEST PUSH1 0x0 DUP1 JUMPDEST PUSH1 0x9 DUP1 SLOAD SWAP1 POP DUP2 LT ISZERO PUSH2 0x4F24 JUMPI TIMESTAMP PUSH1 0x9 DUP3 DUP2 SLOAD DUP2 LT PUSH2 0x4EB4 JUMPI PUSH2 0x4EB3 PUSH2 0x6D0A JUMP JUMPDEST JUMPDEST SWAP1 PUSH1 0x0 MSTORE PUSH1 0x20 PUSH1 0x0 KECCAK256 ADD SLOAD GT ISZERO DUP1 ISZERO PUSH2 0x4EEA JUMPI POP DUP2 PUSH1 0x9 DUP3 DUP2 SLOAD DUP2 LT PUSH2 0x4EDD JUMPI PUSH2 0x4EDC PUSH2 0x6D0A JUMP JUMPDEST JUMPDEST SWAP1 PUSH1 0x0 MSTORE PUSH1 0x20 PUSH1 0x0 KECCAK256 ADD SLOAD GT JUMPDEST ISZERO PUSH2 0x4F11 JUMPI PUSH1 0x9 DUP2 DUP2 SLOAD DUP2 LT PUSH2 0x4F03 JUMPI PUSH2 0x4F02 PUSH2 0x6D0A JUMP JUMPDEST JUMPDEST SWAP1 PUSH1 0x0 MSTORE PUSH1 0x20 PUSH1 0x0 KECCAK256 ADD SLOAD SWAP2 POP JUMPDEST DUP1 DUP1 PUSH2 0x4F1C SWAP1 PUSH2 0x6C05 JUMP JUMPDEST SWAP2 POP POP PUSH2 0x4E92 JUMP JUMPDEST POP DUP1 SWAP2 POP POP JUMPDEST SWAP1 JUMP JUMPDEST PUSH1 0x0 JUMPDEST PUSH1 0x9 DUP1 SLOAD SWAP1 POP DUP2 LT ISZERO PUSH2 0x4F85 JUMPI TIMESTAMP PUSH1 0x9 DUP3 DUP2 SLOAD DUP2 LT PUSH2 0x4F52 JUMPI PUSH2 0x4F51 PUSH2 0x6D0A JUMP JUMPDEST JUMPDEST SWAP1 PUSH1 0x0 MSTORE PUSH1 0x20 PUSH1 0x0 KECCAK256 ADD SLOAD GT PUSH2 0x4F70 JUMPI PUSH2 0x4F6B DUP2 PUSH2 0x4CE9 JUMP JUMPDEST PUSH2 0x4F80 JUMP JUMPDEST PUSH1 0x1 DUP2 PUSH2 0x4F7D SWAP2 SWAP1 PUSH2 0x6908 JUMP JUMPDEST SWAP1 POP JUMPDEST PUSH2 0x4F30 JUMP JUMPDEST POP JUMP JUMPDEST PUSH1 0x0 PUSH2 0x4F92 PUSH2 0x5003 JUMP JUMPDEST SWAP1 POP DUP1 PUSH2 0x4FA1 DUP5 PUSH1 0x0 ADD PUSH2 0x500D JUMP JUMPDEST LT ISZERO PUSH2 0x4FFE JUMPI DUP3 PUSH1 0x0 ADD DUP2 SWAP1 DUP1 PUSH1 0x1 DUP2 SLOAD ADD DUP1 DUP3 SSTORE DUP1 SWAP2 POP POP PUSH1 0x1 SWAP1 SUB SWAP1 PUSH1 0x0 MSTORE PUSH1 0x20 PUSH1 0x0 KECCAK256 ADD PUSH1 0x0 SWAP1 SWAP2 SWAP1 SWAP2 SWAP1 SWAP2 POP SSTORE DUP3 PUSH1 0x1 ADD DUP3 SWAP1 DUP1 PUSH1 0x1 DUP2 SLOAD ADD DUP1 DUP3 SSTORE DUP1 SWAP2 POP POP PUSH1 0x1 SWAP1 SUB SWAP1 PUSH1 0x0 MSTORE PUSH1 0x20 PUSH1 0x0 KECCAK256 ADD PUSH1 0x0 SWAP1 SWAP2 SWAP1 SWAP2 SWAP1 SWAP2 POP SSTORE JUMPDEST POP POP POP JUMP JUMPDEST PUSH1 0x0 PUSH1 0x8 SLOAD SWAP1 POP SWAP1 JUMP JUMPDEST PUSH1 0x0 DUP1 DUP3 DUP1 SLOAD SWAP1 POP EQ ISZERO PUSH2 0x5024 JUMPI PUSH1 0x0 SWAP1 POP PUSH2 0x5055 JUMP JUMPDEST DUP2 PUSH1 0x1 DUP4 DUP1 SLOAD SWAP1 POP PUSH2 0x5036 SWAP2 SWAP1 PUSH2 0x69E9 JUMP JUMPDEST DUP2 SLOAD DUP2 LT PUSH2 0x5047 JUMPI PUSH2 0x5046 PUSH2 0x6D0A JUMP JUMPDEST JUMPDEST SWAP1 PUSH1 0x0 MSTORE PUSH1 0x20 PUSH1 0x0 KECCAK256 ADD SLOAD SWAP1 POP JUMPDEST SWAP2 SWAP1 POP JUMP JUMPDEST DUP3 DUP1 SLOAD PUSH2 0x5066 SWAP1 PUSH2 0x6B88 JUMP JUMPDEST SWAP1 PUSH1 0x0 MSTORE PUSH1 0x20 PUSH1 0x0 KECCAK256 SWAP1 PUSH1 0x1F ADD PUSH1 0x20 SWAP1 DIV DUP2 ADD SWAP3 DUP3 PUSH2 0x5088 JUMPI PUSH1 0x0 DUP6 SSTORE PUSH2 0x50CF JUMP JUMPDEST DUP3 PUSH1 0x1F LT PUSH2 0x50A1 JUMPI DUP1 MLOAD PUSH1 0xFF NOT AND DUP4 DUP1 ADD OR DUP6 SSTORE PUSH2 0x50CF JUMP JUMPDEST DUP3 DUP1 ADD PUSH1 0x1 ADD DUP6 SSTORE DUP3 ISZERO PUSH2 0x50CF JUMPI SWAP2 DUP3 ADD JUMPDEST DUP3 DUP2 GT ISZERO PUSH2 0x50CE JUMPI DUP3 MLOAD DUP3 SSTORE SWAP2 PUSH1 0x20 ADD SWAP2 SWAP1 PUSH1 0x1 ADD SWAP1 PUSH2 0x50B3 JUMP JUMPDEST JUMPDEST POP SWAP1 POP PUSH2 0x50DC SWAP2 SWAP1 PUSH2 0x50E0 JUMP JUMPDEST POP SWAP1 JUMP JUMPDEST JUMPDEST DUP1 DUP3 GT ISZERO PUSH2 0x50F9 JUMPI PUSH1 0x0 DUP2 PUSH1 0x0 SWAP1 SSTORE POP PUSH1 0x1 ADD PUSH2 0x50E1 JUMP JUMPDEST POP SWAP1 JUMP JUMPDEST PUSH1 0x0 PUSH2 0x5110 PUSH2 0x510B DUP5 PUSH2 0x672A JUMP JUMPDEST PUSH2 0x6705 JUMP JUMPDEST SWAP1 POP DUP1 DUP4 DUP3 MSTORE PUSH1 0x20 DUP3 ADD SWAP1 POP DUP3 DUP6 PUSH1 0x20 DUP7 MUL DUP3 ADD GT ISZERO PUSH2 0x5133 JUMPI PUSH2 0x5132 PUSH2 0x6D85 JUMP JUMPDEST JUMPDEST PUSH1 0x0 JUMPDEST DUP6 DUP2 LT ISZERO PUSH2 0x5163 JUMPI DUP2 PUSH2 0x5149 DUP9 DUP3 PUSH2 0x53A1 JUMP JUMPDEST DUP5 MSTORE PUSH1 0x20 DUP5 ADD SWAP4 POP PUSH1 0x20 DUP4 ADD SWAP3 POP POP PUSH1 0x1 DUP2 ADD SWAP1 POP PUSH2 0x5136 JUMP JUMPDEST POP POP POP SWAP4 SWAP3 POP POP POP JUMP JUMPDEST PUSH1 0x0 PUSH2 0x5180 PUSH2 0x517B DUP5 PUSH2 0x6756 JUMP JUMPDEST PUSH2 0x6705 JUMP JUMPDEST SWAP1 POP DUP1 DUP4 DUP3 MSTORE PUSH1 0x20 DUP3 ADD SWAP1 POP DUP3 DUP6 PUSH1 0x20 DUP7 MUL DUP3 ADD GT ISZERO PUSH2 0x51A3 JUMPI PUSH2 0x51A2 PUSH2 0x6D85 JUMP JUMPDEST JUMPDEST PUSH1 0x0 JUMPDEST DUP6 DUP2 LT ISZERO PUSH2 0x51F1 JUMPI DUP2 CALLDATALOAD PUSH8 0xFFFFFFFFFFFFFFFF DUP2 GT ISZERO PUSH2 0x51C9 JUMPI PUSH2 0x51C8 PUSH2 0x6D80 JUMP JUMPDEST JUMPDEST DUP1 DUP7 ADD PUSH2 0x51D6 DUP10 DUP3 PUSH2 0x5546 JUMP JUMPDEST DUP6 MSTORE PUSH1 0x20 DUP6 ADD SWAP5 POP PUSH1 0x20 DUP5 ADD SWAP4 POP POP POP PUSH1 0x1 DUP2 ADD SWAP1 POP PUSH2 0x51A6 JUMP JUMPDEST POP POP POP SWAP4 SWAP3 POP POP POP JUMP JUMPDEST PUSH1 0x0 PUSH2 0x520E PUSH2 0x5209 DUP5 PUSH2 0x6782 JUMP JUMPDEST PUSH2 0x6705 JUMP JUMPDEST SWAP1 POP DUP1 DUP4 DUP3 MSTORE PUSH1 0x20 DUP3 ADD SWAP1 POP DUP3 DUP6 PUSH1 0x20 DUP7 MUL DUP3 ADD GT ISZERO PUSH2 0x5231 JUMPI PUSH2 0x5230 PUSH2 0x6D85 JUMP JUMPDEST JUMPDEST PUSH1 0x0 JUMPDEST DUP6 DUP2 LT ISZERO PUSH2 0x5261 JUMPI DUP2 PUSH2 0x5247 DUP9 DUP3 PUSH2 0x55A2 JUMP JUMPDEST DUP5 MSTORE PUSH1 0x20 DUP5 ADD SWAP4 POP PUSH1 0x20 DUP4 ADD SWAP3 POP POP PUSH1 0x1 DUP2 ADD SWAP1 POP PUSH2 0x5234 JUMP JUMPDEST POP POP POP SWAP4 SWAP3 POP POP POP JUMP JUMPDEST PUSH1 0x0 PUSH2 0x527E PUSH2 0x5279 DUP5 PUSH2 0x67AE JUMP JUMPDEST PUSH2 0x6705 JUMP JUMPDEST SWAP1 POP DUP1 DUP4 DUP3 MSTORE PUSH1 0x20 DUP3 ADD SWAP1 POP DUP3 DUP6 PUSH1 0x20 DUP7 MUL DUP3 ADD GT ISZERO PUSH2 0x52A1 JUMPI PUSH2 0x52A0 PUSH2 0x6D85 JUMP JUMPDEST JUMPDEST PUSH1 0x0 JUMPDEST DUP6 DUP2 LT ISZERO PUSH2 0x52D1 JUMPI DUP2 PUSH2 0x52B7 DUP9 DUP3 PUSH2 0x55CC JUMP JUMPDEST DUP5 MSTORE PUSH1 0x20 DUP5 ADD SWAP4 POP PUSH1 0x20 DUP4 ADD SWAP3 POP POP PUSH1 0x1 DUP2 ADD SWAP1 POP PUSH2 0x52A4 JUMP JUMPDEST POP POP POP SWAP4 SWAP3 POP POP POP JUMP JUMPDEST PUSH1 0x0 PUSH2 0x52EE PUSH2 0x52E9 DUP5 PUSH2 0x67DA JUMP JUMPDEST PUSH2 0x6705 JUMP JUMPDEST SWAP1 POP DUP3 DUP2 MSTORE PUSH1 0x20 DUP2 ADD DUP5 DUP5 DUP5 ADD GT ISZERO PUSH2 0x530A JUMPI PUSH2 0x5309 PUSH2 0x6D8A JUMP JUMPDEST JUMPDEST PUSH2 0x5315 DUP5 DUP3 DUP6 PUSH2 0x6B46 JUMP JUMPDEST POP SWAP4 SWAP3 POP POP POP JUMP JUMPDEST PUSH1 0x0 PUSH2 0x5330 PUSH2 0x532B DUP5 PUSH2 0x680B JUMP JUMPDEST PUSH2 0x6705 JUMP JUMPDEST SWAP1 POP DUP3 DUP2 MSTORE PUSH1 0x20 DUP2 ADD DUP5 DUP5 DUP5 ADD GT ISZERO PUSH2 0x534C JUMPI PUSH2 0x534B PUSH2 0x6D8A JUMP JUMPDEST JUMPDEST PUSH2 0x5357 DUP5 DUP3 DUP6 PUSH2 0x6B46 JUMP JUMPDEST POP SWAP4 SWAP3 POP POP POP JUMP JUMPDEST PUSH1 0x0 PUSH2 0x5372 PUSH2 0x536D DUP5 PUSH2 0x680B JUMP JUMPDEST PUSH2 0x6705 JUMP JUMPDEST SWAP1 POP DUP3 DUP2 MSTORE PUSH1 0x20 DUP2 ADD DUP5 DUP5 DUP5 ADD GT ISZERO PUSH2 0x538E JUMPI PUSH2 0x538D PUSH2 0x6D8A JUMP JUMPDEST JUMPDEST PUSH2 0x5399 DUP5 DUP3 DUP6 PUSH2 0x6B55 JUMP JUMPDEST POP SWAP4 SWAP3 POP POP POP JUMP JUMPDEST PUSH1 0x0 DUP2 CALLDATALOAD SWAP1 POP PUSH2 0x53B0 DUP2 PUSH2 0x7311 JUMP JUMPDEST SWAP3 SWAP2 POP POP JUMP JUMPDEST PUSH1 0x0 DUP2 CALLDATALOAD SWAP1 POP PUSH2 0x53C5 DUP2 PUSH2 0x7328 JUMP JUMPDEST SWAP3 SWAP2 POP POP JUMP JUMPDEST PUSH1 0x0 DUP1 DUP4 PUSH1 0x1F DUP5 ADD SLT PUSH2 0x53E1 JUMPI PUSH2 0x53E0 PUSH2 0x6D80 JUMP JUMPDEST JUMPDEST DUP3 CALLDATALOAD SWAP1 POP PUSH8 0xFFFFFFFFFFFFFFFF DUP2 GT ISZERO PUSH2 0x53FE JUMPI PUSH2 0x53FD PUSH2 0x6D7B JUMP JUMPDEST JUMPDEST PUSH1 0x20 DUP4 ADD SWAP2 POP DUP4 PUSH1 0x20 DUP3 MUL DUP4 ADD GT ISZERO PUSH2 0x541A JUMPI PUSH2 0x5419 PUSH2 0x6D85 JUMP JUMPDEST JUMPDEST SWAP3 POP SWAP3 SWAP1 POP JUMP JUMPDEST PUSH1 0x0 DUP3 PUSH1 0x1F DUP4 ADD SLT PUSH2 0x5436 JUMPI PUSH2 0x5435 PUSH2 0x6D80 JUMP JUMPDEST JUMPDEST DUP2 CALLDATALOAD PUSH2 0x5446 DUP5 DUP3 PUSH1 0x20 DUP7 ADD PUSH2 0x50FD JUMP JUMPDEST SWAP2 POP POP SWAP3 SWAP2 POP POP JUMP JUMPDEST PUSH1 0x0 DUP3 PUSH1 0x1F DUP4 ADD SLT PUSH2 0x5464 JUMPI PUSH2 0x5463 PUSH2 0x6D80 JUMP JUMPDEST JUMPDEST DUP2 CALLDATALOAD PUSH2 0x5474 DUP5 DUP3 PUSH1 0x20 DUP7 ADD PUSH2 0x516D JUMP JUMPDEST SWAP2 POP POP SWAP3 SWAP2 POP POP JUMP JUMPDEST PUSH1 0x0 DUP3 PUSH1 0x1F DUP4 ADD SLT PUSH2 0x5492 JUMPI PUSH2 0x5491 PUSH2 0x6D80 JUMP JUMPDEST JUMPDEST DUP2 CALLDATALOAD PUSH2 0x54A2 DUP5 DUP3 PUSH1 0x20 DUP7 ADD PUSH2 0x51FB JUMP JUMPDEST SWAP2 POP POP SWAP3 SWAP2 POP POP JUMP JUMPDEST PUSH1 0x0 DUP3 PUSH1 0x1F DUP4 ADD SLT PUSH2 0x54C0 JUMPI PUSH2 0x54BF PUSH2 0x6D80 JUMP JUMPDEST JUMPDEST DUP2 CALLDATALOAD PUSH2 0x54D0 DUP5 DUP3 PUSH1 0x20 DUP7 ADD PUSH2 0x526B JUMP JUMPDEST SWAP2 POP POP SWAP3 SWAP2 POP POP JUMP JUMPDEST PUSH1 0x0 DUP2 MLOAD SWAP1 POP PUSH2 0x54E8 DUP2 PUSH2 0x733F JUMP JUMPDEST SWAP3 SWAP2 POP POP JUMP JUMPDEST PUSH1 0x0 DUP2 CALLDATALOAD SWAP1 POP PUSH2 0x54FD DUP2 PUSH2 0x7356 JUMP JUMPDEST SWAP3 SWAP2 POP POP JUMP JUMPDEST PUSH1 0x0 DUP3 PUSH1 0x1F DUP4 ADD SLT PUSH2 0x5518 JUMPI PUSH2 0x5517 PUSH2 0x6D80 JUMP JUMPDEST JUMPDEST DUP2 CALLDATALOAD PUSH2 0x5528 DUP5 DUP3 PUSH1 0x20 DUP7 ADD PUSH2 0x52DB JUMP JUMPDEST SWAP2 POP POP SWAP3 SWAP2 POP POP JUMP JUMPDEST PUSH1 0x0 DUP2 CALLDATALOAD SWAP1 POP PUSH2 0x5540 DUP2 PUSH2 0x736D JUMP JUMPDEST SWAP3 SWAP2 POP POP JUMP JUMPDEST PUSH1 0x0 DUP3 PUSH1 0x1F DUP4 ADD SLT PUSH2 0x555B JUMPI PUSH2 0x555A PUSH2 0x6D80 JUMP JUMPDEST JUMPDEST DUP2 CALLDATALOAD PUSH2 0x556B DUP5 DUP3 PUSH1 0x20 DUP7 ADD PUSH2 0x531D JUMP JUMPDEST SWAP2 POP POP SWAP3 SWAP2 POP POP JUMP JUMPDEST PUSH1 0x0 DUP3 PUSH1 0x1F DUP4 ADD SLT PUSH2 0x5589 JUMPI PUSH2 0x5588 PUSH2 0x6D80 JUMP JUMPDEST JUMPDEST DUP2 MLOAD PUSH2 0x5599 DUP5 DUP3 PUSH1 0x20 DUP7 ADD PUSH2 0x535F JUMP JUMPDEST SWAP2 POP POP SWAP3 SWAP2 POP POP JUMP JUMPDEST PUSH1 0x0 DUP2 CALLDATALOAD SWAP1 POP PUSH2 0x55B1 DUP2 PUSH2 0x7384 JUMP JUMPDEST SWAP3 SWAP2 POP POP JUMP JUMPDEST PUSH1 0x0 DUP2 MLOAD SWAP1 POP PUSH2 0x55C6 DUP2 PUSH2 0x7384 JUMP JUMPDEST SWAP3 SWAP2 POP POP JUMP JUMPDEST PUSH1 0x0 DUP2 CALLDATALOAD SWAP1 POP PUSH2 0x55DB DUP2 PUSH2 0x739B JUMP JUMPDEST SWAP3 SWAP2 POP POP JUMP JUMPDEST PUSH1 0x0 DUP2 MLOAD SWAP1 POP PUSH2 0x55F0 DUP2 PUSH2 0x739B JUMP JUMPDEST SWAP3 SWAP2 POP POP JUMP JUMPDEST PUSH1 0x0 PUSH1 0x20 DUP3 DUP5 SUB SLT ISZERO PUSH2 0x560C JUMPI PUSH2 0x560B PUSH2 0x6D94 JUMP JUMPDEST JUMPDEST PUSH1 0x0 PUSH2 0x561A DUP5 DUP3 DUP6 ADD PUSH2 0x53A1 JUMP JUMPDEST SWAP2 POP POP SWAP3 SWAP2 POP POP JUMP JUMPDEST PUSH1 0x0 PUSH1 0x20 DUP3 DUP5 SUB SLT ISZERO PUSH2 0x5639 JUMPI PUSH2 0x5638 PUSH2 0x6D94 JUMP JUMPDEST JUMPDEST PUSH1 0x0 PUSH2 0x5647 DUP5 DUP3 DUP6 ADD PUSH2 0x53B6 JUMP JUMPDEST SWAP2 POP POP SWAP3 SWAP2 POP POP JUMP JUMPDEST PUSH1 0x0 DUP1 PUSH1 0x40 DUP4 DUP6 SUB SLT ISZERO PUSH2 0x5667 JUMPI PUSH2 0x5666 PUSH2 0x6D94 JUMP JUMPDEST JUMPDEST PUSH1 0x0 PUSH2 0x5675 DUP6 DUP3 DUP7 ADD PUSH2 0x53A1 JUMP JUMPDEST SWAP3 POP POP PUSH1 0x20 PUSH2 0x5686 DUP6 DUP3 DUP7 ADD PUSH2 0x53A1 JUMP JUMPDEST SWAP2 POP POP SWAP3 POP SWAP3 SWAP1 POP JUMP JUMPDEST PUSH1 0x0 DUP1 PUSH1 0x0 PUSH1 0x60 DUP5 DUP7 SUB SLT ISZERO PUSH2 0x56A9 JUMPI PUSH2 0x56A8 PUSH2 0x6D94 JUMP JUMPDEST JUMPDEST PUSH1 0x0 PUSH2 0x56B7 DUP7 DUP3 DUP8 ADD PUSH2 0x53A1 JUMP JUMPDEST SWAP4 POP POP PUSH1 0x20 PUSH2 0x56C8 DUP7 DUP3 DUP8 ADD PUSH2 0x53A1 JUMP JUMPDEST SWAP3 POP POP PUSH1 0x40 PUSH2 0x56D9 DUP7 DUP3 DUP8 ADD PUSH2 0x55A2 JUMP JUMPDEST SWAP2 POP POP SWAP3 POP SWAP3 POP SWAP3 JUMP JUMPDEST PUSH1 0x0 DUP1 PUSH1 0x40 DUP4 DUP6 SUB SLT ISZERO PUSH2 0x56FA JUMPI PUSH2 0x56F9 PUSH2 0x6D94 JUMP JUMPDEST JUMPDEST PUSH1 0x0 PUSH2 0x5708 DUP6 DUP3 DUP7 ADD PUSH2 0x53A1 JUMP JUMPDEST SWAP3 POP POP PUSH1 0x20 PUSH2 0x5719 DUP6 DUP3 DUP7 ADD PUSH2 0x54EE JUMP JUMPDEST SWAP2 POP POP SWAP3 POP SWAP3 SWAP1 POP JUMP JUMPDEST PUSH1 0x0 DUP1 PUSH1 0x40 DUP4 DUP6 SUB SLT ISZERO PUSH2 0x573A JUMPI PUSH2 0x5739 PUSH2 0x6D94 JUMP JUMPDEST JUMPDEST PUSH1 0x0 PUSH2 0x5748 DUP6 DUP3 DUP7 ADD PUSH2 0x53A1 JUMP JUMPDEST SWAP3 POP POP PUSH1 0x20 PUSH2 0x5759 DUP6 DUP3 DUP7 ADD PUSH2 0x55A2 JUMP JUMPDEST SWAP2 POP POP SWAP3 POP SWAP3 SWAP1 POP JUMP JUMPDEST PUSH1 0x0 DUP1 PUSH1 0x0 PUSH1 0x60 DUP5 DUP7 SUB SLT ISZERO PUSH2 0x577C JUMPI PUSH2 0x577B PUSH2 0x6D94 JUMP JUMPDEST JUMPDEST PUSH1 0x0 PUSH2 0x578A DUP7 DUP3 DUP8 ADD PUSH2 0x53A1 JUMP JUMPDEST SWAP4 POP POP PUSH1 0x20 PUSH2 0x579B DUP7 DUP3 DUP8 ADD PUSH2 0x55A2 JUMP JUMPDEST SWAP3 POP POP PUSH1 0x40 DUP5 ADD CALLDATALOAD PUSH8 0xFFFFFFFFFFFFFFFF DUP2 GT ISZERO PUSH2 0x57BC JUMPI PUSH2 0x57BB PUSH2 0x6D8F JUMP JUMPDEST JUMPDEST PUSH2 0x57C8 DUP7 DUP3 DUP8 ADD PUSH2 0x5503 JUMP JUMPDEST SWAP2 POP POP SWAP3 POP SWAP3 POP SWAP3 JUMP JUMPDEST PUSH1 0x0 DUP1 PUSH1 0x20 DUP4 DUP6 SUB SLT ISZERO PUSH2 0x57E9 JUMPI PUSH2 0x57E8 PUSH2 0x6D94 JUMP JUMPDEST JUMPDEST PUSH1 0x0 DUP4 ADD CALLDATALOAD PUSH8 0xFFFFFFFFFFFFFFFF DUP2 GT ISZERO PUSH2 0x5807 JUMPI PUSH2 0x5806 PUSH2 0x6D8F JUMP JUMPDEST JUMPDEST PUSH2 0x5813 DUP6 DUP3 DUP7 ADD PUSH2 0x53CB JUMP JUMPDEST SWAP3 POP SWAP3 POP POP SWAP3 POP SWAP3 SWAP1 POP JUMP JUMPDEST PUSH1 0x0 PUSH1 0x20 DUP3 DUP5 SUB SLT ISZERO PUSH2 0x5835 JUMPI PUSH2 0x5834 PUSH2 0x6D94 JUMP JUMPDEST JUMPDEST PUSH1 0x0 DUP3 ADD CALLDATALOAD PUSH8 0xFFFFFFFFFFFFFFFF DUP2 GT ISZERO PUSH2 0x5853 JUMPI PUSH2 0x5852 PUSH2 0x6D8F JUMP JUMPDEST JUMPDEST PUSH2 0x585F DUP5 DUP3 DUP6 ADD PUSH2 0x5421 JUMP JUMPDEST SWAP2 POP POP SWAP3 SWAP2 POP POP JUMP JUMPDEST PUSH1 0x0 DUP1 PUSH1 0x40 DUP4 DUP6 SUB SLT ISZERO PUSH2 0x587F JUMPI PUSH2 0x587E PUSH2 0x6D94 JUMP JUMPDEST JUMPDEST PUSH1 0x0 DUP4 ADD CALLDATALOAD PUSH8 0xFFFFFFFFFFFFFFFF DUP2 GT ISZERO PUSH2 0x589D JUMPI PUSH2 0x589C PUSH2 0x6D8F JUMP JUMPDEST JUMPDEST PUSH2 0x58A9 DUP6 DUP3 DUP7 ADD PUSH2 0x5421 JUMP JUMPDEST SWAP3 POP POP PUSH1 0x20 DUP4 ADD CALLDATALOAD PUSH8 0xFFFFFFFFFFFFFFFF DUP2 GT ISZERO PUSH2 0x58CA JUMPI PUSH2 0x58C9 PUSH2 0x6D8F JUMP JUMPDEST JUMPDEST PUSH2 0x58D6 DUP6 DUP3 DUP7 ADD PUSH2 0x547D JUMP JUMPDEST SWAP2 POP POP SWAP3 POP SWAP3 SWAP1 POP JUMP JUMPDEST PUSH1 0x0 DUP1 PUSH1 0x40 DUP4 DUP6 SUB SLT ISZERO PUSH2 0x58F7 JUMPI PUSH2 0x58F6 PUSH2 0x6D94 JUMP JUMPDEST JUMPDEST PUSH1 0x0 DUP4 ADD CALLDATALOAD PUSH8 0xFFFFFFFFFFFFFFFF DUP2 GT ISZERO PUSH2 0x5915 JUMPI PUSH2 0x5914 PUSH2 0x6D8F JUMP JUMPDEST JUMPDEST PUSH2 0x5921 DUP6 DUP3 DUP7 ADD PUSH2 0x54AB JUMP JUMPDEST SWAP3 POP POP PUSH1 0x20 DUP4 ADD CALLDATALOAD PUSH8 0xFFFFFFFFFFFFFFFF DUP2 GT ISZERO PUSH2 0x5942 JUMPI PUSH2 0x5941 PUSH2 0x6D8F JUMP JUMPDEST JUMPDEST PUSH2 0x594E DUP6 DUP3 DUP7 ADD PUSH2 0x544F JUMP JUMPDEST SWAP2 POP POP SWAP3 POP SWAP3 SWAP1 POP JUMP JUMPDEST PUSH1 0x0 PUSH1 0x20 DUP3 DUP5 SUB SLT ISZERO PUSH2 0x596E JUMPI PUSH2 0x596D PUSH2 0x6D94 JUMP JUMPDEST JUMPDEST PUSH1 0x0 PUSH2 0x597C DUP5 DUP3 DUP6 ADD PUSH2 0x54D9 JUMP JUMPDEST SWAP2 POP POP SWAP3 SWAP2 POP POP JUMP JUMPDEST PUSH1 0x0 PUSH1 0x20 DUP3 DUP5 SUB SLT ISZERO PUSH2 0x599B JUMPI PUSH2 0x599A PUSH2 0x6D94 JUMP JUMPDEST JUMPDEST PUSH1 0x0 PUSH2 0x59A9 DUP5 DUP3 DUP6 ADD PUSH2 0x5531 JUMP JUMPDEST SWAP2 POP POP SWAP3 SWAP2 POP POP JUMP JUMPDEST PUSH1 0x0 PUSH1 0x20 DUP3 DUP5 SUB SLT ISZERO PUSH2 0x59C8 JUMPI PUSH2 0x59C7 PUSH2 0x6D94 JUMP JUMPDEST JUMPDEST PUSH1 0x0 DUP3 ADD MLOAD PUSH8 0xFFFFFFFFFFFFFFFF DUP2 GT ISZERO PUSH2 0x59E6 JUMPI PUSH2 0x59E5 PUSH2 0x6D8F JUMP JUMPDEST JUMPDEST PUSH2 0x59F2 DUP5 DUP3 DUP6 ADD PUSH2 0x5574 JUMP JUMPDEST SWAP2 POP POP SWAP3 SWAP2 POP POP JUMP JUMPDEST PUSH1 0x0 DUP1 PUSH1 0x40 DUP4 DUP6 SUB SLT ISZERO PUSH2 0x5A12 JUMPI PUSH2 0x5A11 PUSH2 0x6D94 JUMP JUMPDEST JUMPDEST PUSH1 0x0 DUP4 ADD CALLDATALOAD PUSH8 0xFFFFFFFFFFFFFFFF DUP2 GT ISZERO PUSH2 0x5A30 JUMPI PUSH2 0x5A2F PUSH2 0x6D8F JUMP JUMPDEST JUMPDEST PUSH2 0x5A3C DUP6 DUP3 DUP7 ADD PUSH2 0x5546 JUMP JUMPDEST SWAP3 POP POP PUSH1 0x20 DUP4 ADD CALLDATALOAD PUSH8 0xFFFFFFFFFFFFFFFF DUP2 GT ISZERO PUSH2 0x5A5D JUMPI PUSH2 0x5A5C PUSH2 0x6D8F JUMP JUMPDEST JUMPDEST PUSH2 0x5A69 DUP6 DUP3 DUP7 ADD PUSH2 0x5546 JUMP JUMPDEST SWAP2 POP POP SWAP3 POP SWAP3 SWAP1 POP JUMP JUMPDEST PUSH1 0x0 PUSH1 0x20 DUP3 DUP5 SUB SLT ISZERO PUSH2 0x5A89 JUMPI PUSH2 0x5A88 PUSH2 0x6D94 JUMP JUMPDEST JUMPDEST PUSH1 0x0 PUSH2 0x5A97 DUP5 DUP3 DUP6 ADD PUSH2 0x55A2 JUMP JUMPDEST SWAP2 POP POP SWAP3 SWAP2 POP POP JUMP JUMPDEST PUSH1 0x0 PUSH1 0x20 DUP3 DUP5 SUB SLT ISZERO PUSH2 0x5AB6 JUMPI PUSH2 0x5AB5 PUSH2 0x6D94 JUMP JUMPDEST JUMPDEST PUSH1 0x0 PUSH2 0x5AC4 DUP5 DUP3 DUP6 ADD PUSH2 0x55B7 JUMP JUMPDEST SWAP2 POP POP SWAP3 SWAP2 POP POP JUMP JUMPDEST PUSH1 0x0 DUP1 PUSH1 0x40 DUP4 DUP6 SUB SLT ISZERO PUSH2 0x5AE4 JUMPI PUSH2 0x5AE3 PUSH2 0x6D94 JUMP JUMPDEST JUMPDEST PUSH1 0x0 PUSH2 0x5AF2 DUP6 DUP3 DUP7 ADD PUSH2 0x55A2 JUMP JUMPDEST SWAP3 POP POP PUSH1 0x20 PUSH2 0x5B03 DUP6 DUP3 DUP7 ADD PUSH2 0x53A1 JUMP JUMPDEST SWAP2 POP POP SWAP3 POP SWAP3 SWAP1 POP JUMP JUMPDEST PUSH1 0x0 DUP1 PUSH1 0x40 DUP4 DUP6 SUB SLT ISZERO PUSH2 0x5B24 JUMPI PUSH2 0x5B23 PUSH2 0x6D94 JUMP JUMPDEST JUMPDEST PUSH1 0x0 PUSH2 0x5B32 DUP6 DUP3 DUP7 ADD PUSH2 0x55A2 JUMP JUMPDEST SWAP3 POP POP PUSH1 0x20 PUSH2 0x5B43 DUP6 DUP3 DUP7 ADD PUSH2 0x55A2 JUMP JUMPDEST SWAP2 POP POP SWAP3 POP SWAP3 SWAP1 POP JUMP JUMPDEST PUSH1 0x0 PUSH1 0x20 DUP3 DUP5 SUB SLT ISZERO PUSH2 0x5B63 JUMPI PUSH2 0x5B62 PUSH2 0x6D94 JUMP JUMPDEST JUMPDEST PUSH1 0x0 PUSH2 0x5B71 DUP5 DUP3 DUP6 ADD PUSH2 0x55CC JUMP JUMPDEST SWAP2 POP POP SWAP3 SWAP2 POP POP JUMP JUMPDEST PUSH1 0x0 PUSH1 0x20 DUP3 DUP5 SUB SLT ISZERO PUSH2 0x5B90 JUMPI PUSH2 0x5B8F PUSH2 0x6D94 JUMP JUMPDEST JUMPDEST PUSH1 0x0 PUSH2 0x5B9E DUP5 DUP3 DUP6 ADD PUSH2 0x55E1 JUMP JUMPDEST SWAP2 POP POP SWAP3 SWAP2 POP POP JUMP JUMPDEST PUSH1 0x0 PUSH2 0x5BB3 DUP4 DUP4 PUSH2 0x5BEF JUMP JUMPDEST PUSH1 0x20 DUP4 ADD SWAP1 POP SWAP3 SWAP2 POP POP JUMP JUMPDEST PUSH1 0x0 PUSH2 0x5BCB DUP4 DUP4 PUSH2 0x5D4C JUMP JUMPDEST PUSH1 0x20 DUP4 ADD SWAP1 POP SWAP3 SWAP2 POP POP JUMP JUMPDEST PUSH1 0x0 PUSH2 0x5BE3 DUP4 DUP4 PUSH2 0x614F JUMP JUMPDEST PUSH1 0x20 DUP4 ADD SWAP1 POP SWAP3 SWAP2 POP POP JUMP JUMPDEST PUSH2 0x5BF8 DUP2 PUSH2 0x6A3D JUMP JUMPDEST DUP3 MSTORE POP POP JUMP JUMPDEST PUSH2 0x5C07 DUP2 PUSH2 0x6A3D JUMP JUMPDEST DUP3 MSTORE POP POP JUMP JUMPDEST PUSH1 0x0 PUSH2 0x5C18 DUP3 PUSH2 0x6871 JUMP JUMPDEST PUSH2 0x5C22 DUP2 DUP6 PUSH2 0x68C4 JUMP JUMPDEST SWAP4 POP PUSH2 0x5C2D DUP4 PUSH2 0x683C JUMP JUMPDEST DUP1 PUSH1 0x0 JUMPDEST DUP4 DUP2 LT ISZERO PUSH2 0x5C65 JUMPI PUSH2 0x5C42 DUP3 PUSH2 0x6D68 JUMP JUMPDEST PUSH2 0x5C4C DUP9 DUP3 PUSH2 0x5BA7 JUMP JUMPDEST SWAP8 POP PUSH2 0x5C57 DUP4 PUSH2 0x689D JUMP JUMPDEST SWAP3 POP POP PUSH1 0x1 DUP2 ADD SWAP1 POP PUSH2 0x5C31 JUMP JUMPDEST POP DUP6 SWAP4 POP POP POP POP SWAP3 SWAP2 POP POP JUMP JUMPDEST PUSH1 0x0 PUSH2 0x5C7D DUP3 PUSH2 0x687C JUMP JUMPDEST PUSH2 0x5C87 DUP2 DUP6 PUSH2 0x68D5 JUMP JUMPDEST SWAP4 POP PUSH2 0x5C92 DUP4 PUSH2 0x6851 JUMP JUMPDEST DUP1 PUSH1 0x0 JUMPDEST DUP4 DUP2 LT ISZERO PUSH2 0x5CC3 JUMPI DUP2 MLOAD PUSH2 0x5CAA DUP9 DUP3 PUSH2 0x5BBF JUMP JUMPDEST SWAP8 POP PUSH2 0x5CB5 DUP4 PUSH2 0x68AA JUMP JUMPDEST SWAP3 POP POP PUSH1 0x1 DUP2 ADD SWAP1 POP PUSH2 0x5C96 JUMP JUMPDEST POP DUP6 SWAP4 POP POP POP POP SWAP3 SWAP2 POP POP JUMP JUMPDEST PUSH1 0x0 PUSH2 0x5CDB DUP3 PUSH2 0x6887 JUMP JUMPDEST PUSH2 0x5CE5 DUP2 DUP6 PUSH2 0x68E6 JUMP JUMPDEST SWAP4 POP PUSH2 0x5CF0 DUP4 PUSH2 0x6861 JUMP JUMPDEST DUP1 PUSH1 0x0 JUMPDEST DUP4 DUP2 LT ISZERO PUSH2 0x5D21 JUMPI DUP2 MLOAD PUSH2 0x5D08 DUP9 DUP3 PUSH2 0x5BD7 JUMP JUMPDEST SWAP8 POP PUSH2 0x5D13 DUP4 PUSH2 0x68B7 JUMP JUMPDEST SWAP3 POP POP PUSH1 0x1 DUP2 ADD SWAP1 POP PUSH2 0x5CF4 JUMP JUMPDEST POP DUP6 SWAP4 POP POP POP POP SWAP3 SWAP2 POP POP JUMP JUMPDEST PUSH2 0x5D37 DUP2 PUSH2 0x6A61 JUMP JUMPDEST DUP3 MSTORE POP POP JUMP JUMPDEST PUSH2 0x5D46 DUP2 PUSH2 0x6A6D JUMP JUMPDEST DUP3 MSTORE POP POP JUMP JUMPDEST PUSH2 0x5D55 DUP2 PUSH2 0x6A77 JUMP JUMPDEST DUP3 MSTORE POP POP JUMP JUMPDEST PUSH2 0x5D64 DUP2 PUSH2 0x6A77 JUMP JUMPDEST DUP3 MSTORE POP POP JUMP JUMPDEST PUSH2 0x5D73 DUP2 PUSH2 0x6AEC JUMP JUMPDEST DUP3 MSTORE POP POP JUMP JUMPDEST PUSH2 0x5D82 DUP2 PUSH2 0x6AFE JUMP JUMPDEST DUP3 MSTORE POP POP JUMP JUMPDEST PUSH1 0x0 PUSH2 0x5D93 DUP3 PUSH2 0x6892 JUMP JUMPDEST PUSH2 0x5D9D DUP2 DUP6 PUSH2 0x68F7 JUMP JUMPDEST SWAP4 POP PUSH2 0x5DAD DUP2 DUP6 PUSH1 0x20 DUP7 ADD PUSH2 0x6B55 JUMP JUMPDEST PUSH2 0x5DB6 DUP2 PUSH2 0x6D99 JUMP JUMPDEST DUP5 ADD SWAP2 POP POP SWAP3 SWAP2 POP POP JUMP JUMPDEST PUSH1 0x0 PUSH2 0x5DCE PUSH1 0x4 DUP4 PUSH2 0x68F7 JUMP JUMPDEST SWAP2 POP PUSH2 0x5DD9 DUP3 PUSH2 0x6DB7 JUMP JUMPDEST PUSH1 0x20 DUP3 ADD SWAP1 POP SWAP2 SWAP1 POP JUMP JUMPDEST PUSH1 0x0 PUSH2 0x5DF1 PUSH1 0x23 DUP4 PUSH2 0x68F7 JUMP JUMPDEST SWAP2 POP PUSH2 0x5DFC DUP3 PUSH2 0x6DE0 JUMP JUMPDEST PUSH1 0x40 DUP3 ADD SWAP1 POP SWAP2 SWAP1 POP JUMP JUMPDEST PUSH1 0x0 PUSH2 0x5E14 PUSH1 0x14 DUP4 PUSH2 0x68F7 JUMP JUMPDEST SWAP2 POP PUSH2 0x5E1F DUP3 PUSH2 0x6E2F JUMP JUMPDEST PUSH1 0x20 DUP3 ADD SWAP1 POP SWAP2 SWAP1 POP JUMP JUMPDEST PUSH1 0x0 PUSH2 0x5E37 PUSH1 0x25 DUP4 PUSH2 0x68F7 JUMP JUMPDEST SWAP2 POP PUSH2 0x5E42 DUP3 PUSH2 0x6E58 JUMP JUMPDEST PUSH1 0x40 DUP3 ADD SWAP1 POP SWAP2 SWAP1 POP JUMP JUMPDEST PUSH1 0x0 PUSH2 0x5E5A PUSH1 0x26 DUP4 PUSH2 0x68F7 JUMP JUMPDEST SWAP2 POP PUSH2 0x5E65 DUP3 PUSH2 0x6EA7 JUMP JUMPDEST PUSH1 0x40 DUP3 ADD SWAP1 POP SWAP2 SWAP1 POP JUMP JUMPDEST PUSH1 0x0 PUSH2 0x5E7D PUSH1 0x22 DUP4 PUSH2 0x68F7 JUMP JUMPDEST SWAP2 POP PUSH2 0x5E88 DUP3 PUSH2 0x6EF6 JUMP JUMPDEST PUSH1 0x40 DUP3 ADD SWAP1 POP SWAP2 SWAP1 POP JUMP JUMPDEST PUSH1 0x0 PUSH2 0x5EA0 PUSH1 0x1D DUP4 PUSH2 0x68F7 JUMP JUMPDEST SWAP2 POP PUSH2 0x5EAB DUP3 PUSH2 0x6F45 JUMP JUMPDEST PUSH1 0x20 DUP3 ADD SWAP1 POP SWAP2 SWAP1 POP JUMP JUMPDEST PUSH1 0x0 PUSH2 0x5EC3 PUSH1 0x15 DUP4 PUSH2 0x68F7 JUMP JUMPDEST SWAP2 POP PUSH2 0x5ECE DUP3 PUSH2 0x6F6E JUMP JUMPDEST PUSH1 0x20 DUP3 ADD SWAP1 POP SWAP2 SWAP1 POP JUMP JUMPDEST PUSH1 0x0 PUSH2 0x5EE6 PUSH1 0x16 DUP4 PUSH2 0x68F7 JUMP JUMPDEST SWAP2 POP PUSH2 0x5EF1 DUP3 PUSH2 0x6F97 JUMP JUMPDEST PUSH1 0x20 DUP3 ADD SWAP1 POP SWAP2 SWAP1 POP JUMP JUMPDEST PUSH1 0x0 PUSH2 0x5F09 PUSH1 0x4 DUP4 PUSH2 0x68F7 JUMP JUMPDEST SWAP2 POP PUSH2 0x5F14 DUP3 PUSH2 0x6FC0 JUMP JUMPDEST PUSH1 0x20 DUP3 ADD SWAP1 POP SWAP2 SWAP1 POP JUMP JUMPDEST PUSH1 0x0 PUSH2 0x5F2C PUSH1 0x10 DUP4 PUSH2 0x68F7 JUMP JUMPDEST SWAP2 POP PUSH2 0x5F37 DUP3 PUSH2 0x6FE9 JUMP JUMPDEST PUSH1 0x20 DUP3 ADD SWAP1 POP SWAP2 SWAP1 POP JUMP JUMPDEST PUSH1 0x0 PUSH2 0x5F4F PUSH1 0x17 DUP4 PUSH2 0x68F7 JUMP JUMPDEST SWAP2 POP PUSH2 0x5F5A DUP3 PUSH2 0x7012 JUMP JUMPDEST PUSH1 0x20 DUP3 ADD SWAP1 POP SWAP2 SWAP1 POP JUMP JUMPDEST PUSH1 0x0 PUSH2 0x5F72 PUSH1 0x9 DUP4 PUSH2 0x68F7 JUMP JUMPDEST SWAP2 POP PUSH2 0x5F7D DUP3 PUSH2 0x703B JUMP JUMPDEST PUSH1 0x20 DUP3 ADD SWAP1 POP SWAP2 SWAP1 POP JUMP JUMPDEST PUSH1 0x0 PUSH2 0x5F95 PUSH1 0x4 DUP4 PUSH2 0x68F7 JUMP JUMPDEST SWAP2 POP PUSH2 0x5FA0 DUP3 PUSH2 0x7064 JUMP JUMPDEST PUSH1 0x20 DUP3 ADD SWAP1 POP SWAP2 SWAP1 POP JUMP JUMPDEST PUSH1 0x0 PUSH2 0x5FB8 PUSH1 0xE DUP4 PUSH2 0x68F7 JUMP JUMPDEST SWAP2 POP PUSH2 0x5FC3 DUP3 PUSH2 0x708D JUMP JUMPDEST PUSH1 0x20 DUP3 ADD SWAP1 POP SWAP2 SWAP1 POP JUMP JUMPDEST PUSH1 0x0 PUSH2 0x5FDB PUSH1 0x17 DUP4 PUSH2 0x68F7 JUMP JUMPDEST SWAP2 POP PUSH2 0x5FE6 DUP3 PUSH2 0x70B6 JUMP JUMPDEST PUSH1 0x20 DUP3 ADD SWAP1 POP SWAP2 SWAP1 POP JUMP JUMPDEST PUSH1 0x0 PUSH2 0x5FFE PUSH1 0x20 DUP4 PUSH2 0x68F7 JUMP JUMPDEST SWAP2 POP PUSH2 0x6009 DUP3 PUSH2 0x70DF JUMP JUMPDEST PUSH1 0x20 DUP3 ADD SWAP1 POP SWAP2 SWAP1 POP JUMP JUMPDEST PUSH1 0x0 PUSH2 0x6021 PUSH1 0x12 DUP4 PUSH2 0x68F7 JUMP JUMPDEST SWAP2 POP PUSH2 0x602C DUP3 PUSH2 0x7108 JUMP JUMPDEST PUSH1 0x20 DUP3 ADD SWAP1 POP SWAP2 SWAP1 POP JUMP JUMPDEST PUSH1 0x0 PUSH2 0x6044 PUSH1 0x1F DUP4 PUSH2 0x68F7 JUMP JUMPDEST SWAP2 POP PUSH2 0x604F DUP3 PUSH2 0x7131 JUMP JUMPDEST PUSH1 0x20 DUP3 ADD SWAP1 POP SWAP2 SWAP1 POP JUMP JUMPDEST PUSH1 0x0 PUSH2 0x6067 PUSH1 0x25 DUP4 PUSH2 0x68F7 JUMP JUMPDEST SWAP2 POP PUSH2 0x6072 DUP3 PUSH2 0x715A JUMP JUMPDEST PUSH1 0x40 DUP3 ADD SWAP1 POP SWAP2 SWAP1 POP JUMP JUMPDEST PUSH1 0x0 PUSH2 0x608A PUSH1 0x1E DUP4 PUSH2 0x68F7 JUMP JUMPDEST SWAP2 POP PUSH2 0x6095 DUP3 PUSH2 0x71A9 JUMP JUMPDEST PUSH1 0x20 DUP3 ADD SWAP1 POP SWAP2 SWAP1 POP JUMP JUMPDEST PUSH1 0x0 PUSH2 0x60AD PUSH1 0x24 DUP4 PUSH2 0x68F7 JUMP JUMPDEST SWAP2 POP PUSH2 0x60B8 DUP3 PUSH2 0x71D2 JUMP JUMPDEST PUSH1 0x40 DUP3 ADD SWAP1 POP SWAP2 SWAP1 POP JUMP JUMPDEST PUSH1 0x0 PUSH2 0x60D0 PUSH1 0x28 DUP4 PUSH2 0x68F7 JUMP JUMPDEST SWAP2 POP PUSH2 0x60DB DUP3 PUSH2 0x7221 JUMP JUMPDEST PUSH1 0x40 DUP3 ADD SWAP1 POP SWAP2 SWAP1 POP JUMP JUMPDEST PUSH1 0x0 PUSH2 0x60F3 PUSH1 0x10 DUP4 PUSH2 0x68F7 JUMP JUMPDEST SWAP2 POP PUSH2 0x60FE DUP3 PUSH2 0x7270 JUMP JUMPDEST PUSH1 0x20 DUP3 ADD SWAP1 POP SWAP2 SWAP1 POP JUMP JUMPDEST PUSH1 0x0 PUSH2 0x6116 PUSH1 0x25 DUP4 PUSH2 0x68F7 JUMP JUMPDEST SWAP2 POP PUSH2 0x6121 DUP3 PUSH2 0x7299 JUMP JUMPDEST PUSH1 0x40 DUP3 ADD SWAP1 POP SWAP2 SWAP1 POP JUMP JUMPDEST PUSH1 0x0 PUSH2 0x6139 PUSH1 0x1F DUP4 PUSH2 0x68F7 JUMP JUMPDEST SWAP2 POP PUSH2 0x6144 DUP3 PUSH2 0x72E8 JUMP JUMPDEST PUSH1 0x20 DUP3 ADD SWAP1 POP SWAP2 SWAP1 POP JUMP JUMPDEST PUSH2 0x6158 DUP2 PUSH2 0x6AD5 JUMP JUMPDEST DUP3 MSTORE POP POP JUMP JUMPDEST PUSH2 0x6167 DUP2 PUSH2 0x6AD5 JUMP JUMPDEST DUP3 MSTORE POP POP JUMP JUMPDEST PUSH2 0x6176 DUP2 PUSH2 0x6ADF JUMP JUMPDEST DUP3 MSTORE POP POP JUMP JUMPDEST PUSH1 0x0 PUSH1 0x20 DUP3 ADD SWAP1 POP PUSH2 0x6191 PUSH1 0x0 DUP4 ADD DUP5 PUSH2 0x5BFE JUMP JUMPDEST SWAP3 SWAP2 POP POP JUMP JUMPDEST PUSH1 0x0 PUSH1 0x40 DUP3 ADD SWAP1 POP PUSH2 0x61AC PUSH1 0x0 DUP4 ADD DUP6 PUSH2 0x5BFE JUMP JUMPDEST PUSH2 0x61B9 PUSH1 0x20 DUP4 ADD DUP5 PUSH2 0x5BFE JUMP JUMPDEST SWAP4 SWAP3 POP POP POP JUMP JUMPDEST PUSH1 0x0 PUSH1 0x60 DUP3 ADD SWAP1 POP PUSH2 0x61D5 PUSH1 0x0 DUP4 ADD DUP7 PUSH2 0x5BFE JUMP JUMPDEST PUSH2 0x61E2 PUSH1 0x20 DUP4 ADD DUP6 PUSH2 0x5BFE JUMP JUMPDEST PUSH2 0x61EF PUSH1 0x40 DUP4 ADD DUP5 PUSH2 0x615E JUMP JUMPDEST SWAP5 SWAP4 POP POP POP POP JUMP JUMPDEST PUSH1 0x0 PUSH1 0x40 DUP3 ADD SWAP1 POP PUSH2 0x620C PUSH1 0x0 DUP4 ADD DUP6 PUSH2 0x5BFE JUMP JUMPDEST PUSH2 0x6219 PUSH1 0x20 DUP4 ADD DUP5 PUSH2 0x615E JUMP JUMPDEST SWAP4 SWAP3 POP POP POP JUMP JUMPDEST PUSH1 0x0 PUSH1 0x20 DUP3 ADD SWAP1 POP DUP2 DUP2 SUB PUSH1 0x0 DUP4 ADD MSTORE PUSH2 0x623A DUP2 DUP5 PUSH2 0x5C0D JUMP JUMPDEST SWAP1 POP SWAP3 SWAP2 POP POP JUMP JUMPDEST PUSH1 0x0 PUSH1 0x20 DUP3 ADD SWAP1 POP DUP2 DUP2 SUB PUSH1 0x0 DUP4 ADD MSTORE PUSH2 0x625C DUP2 DUP5 PUSH2 0x5C72 JUMP JUMPDEST SWAP1 POP SWAP3 SWAP2 POP POP JUMP JUMPDEST PUSH1 0x0 PUSH1 0x20 DUP3 ADD SWAP1 POP DUP2 DUP2 SUB PUSH1 0x0 DUP4 ADD MSTORE PUSH2 0x627E DUP2 DUP5 PUSH2 0x5CD0 JUMP JUMPDEST SWAP1 POP SWAP3 SWAP2 POP POP JUMP JUMPDEST PUSH1 0x0 PUSH1 0x20 DUP3 ADD SWAP1 POP PUSH2 0x629B PUSH1 0x0 DUP4 ADD DUP5 PUSH2 0x5D2E JUMP JUMPDEST SWAP3 SWAP2 POP POP JUMP JUMPDEST PUSH1 0x0 PUSH1 0x20 DUP3 ADD SWAP1 POP PUSH2 0x62B6 PUSH1 0x0 DUP4 ADD DUP5 PUSH2 0x5D3D JUMP JUMPDEST SWAP3 SWAP2 POP POP JUMP JUMPDEST PUSH1 0x0 PUSH1 0x20 DUP3 ADD SWAP1 POP PUSH2 0x62D1 PUSH1 0x0 DUP4 ADD DUP5 PUSH2 0x5D5B JUMP JUMPDEST SWAP3 SWAP2 POP POP JUMP JUMPDEST PUSH1 0x0 PUSH1 0x20 DUP3 ADD SWAP1 POP PUSH2 0x62EC PUSH1 0x0 DUP4 ADD DUP5 PUSH2 0x5D6A JUMP JUMPDEST SWAP3 SWAP2 POP POP JUMP JUMPDEST PUSH1 0x0 PUSH1 0x20 DUP3 ADD SWAP1 POP PUSH2 0x6307 PUSH1 0x0 DUP4 ADD DUP5 PUSH2 0x5D79 JUMP JUMPDEST SWAP3 SWAP2 POP POP JUMP JUMPDEST PUSH1 0x0 PUSH1 0x20 DUP3 ADD SWAP1 POP DUP2 DUP2 SUB PUSH1 0x0 DUP4 ADD MSTORE PUSH2 0x6327 DUP2 DUP5 PUSH2 0x5D88 JUMP JUMPDEST SWAP1 POP SWAP3 SWAP2 POP POP JUMP JUMPDEST PUSH1 0x0 PUSH1 0x40 DUP3 ADD SWAP1 POP DUP2 DUP2 SUB PUSH1 0x0 DUP4 ADD MSTORE PUSH2 0x6349 DUP2 DUP6 PUSH2 0x5D88 JUMP JUMPDEST SWAP1 POP DUP2 DUP2 SUB PUSH1 0x20 DUP4 ADD MSTORE PUSH2 0x635D DUP2 DUP5 PUSH2 0x5D88 JUMP JUMPDEST SWAP1 POP SWAP4 SWAP3 POP POP POP JUMP JUMPDEST PUSH1 0x0 PUSH1 0x20 DUP3 ADD SWAP1 POP DUP2 DUP2 SUB PUSH1 0x0 DUP4 ADD MSTORE PUSH2 0x637F DUP2 PUSH2 0x5DC1 JUMP JUMPDEST SWAP1 POP SWAP2 SWAP1 POP JUMP JUMPDEST PUSH1 0x0 PUSH1 0x20 DUP3 ADD SWAP1 POP DUP2 DUP2 SUB PUSH1 0x0 DUP4 ADD MSTORE PUSH2 0x639F DUP2 PUSH2 0x5DE4 JUMP JUMPDEST SWAP1 POP SWAP2 SWAP1 POP JUMP JUMPDEST PUSH1 0x0 PUSH1 0x20 DUP3 ADD SWAP1 POP DUP2 DUP2 SUB PUSH1 0x0 DUP4 ADD MSTORE PUSH2 0x63BF DUP2 PUSH2 0x5E07 JUMP JUMPDEST SWAP1 POP SWAP2 SWAP1 POP JUMP JUMPDEST PUSH1 0x0 PUSH1 0x20 DUP3 ADD SWAP1 POP DUP2 DUP2 SUB PUSH1 0x0 DUP4 ADD MSTORE PUSH2 0x63DF DUP2 PUSH2 0x5E2A JUMP JUMPDEST SWAP1 POP SWAP2 SWAP1 POP JUMP JUMPDEST PUSH1 0x0 PUSH1 0x20 DUP3 ADD SWAP1 POP DUP2 DUP2 SUB PUSH1 0x0 DUP4 ADD MSTORE PUSH2 0x63FF DUP2 PUSH2 0x5E4D JUMP JUMPDEST SWAP1 POP SWAP2 SWAP1 POP JUMP JUMPDEST PUSH1 0x0 PUSH1 0x20 DUP3 ADD SWAP1 POP DUP2 DUP2 SUB PUSH1 0x0 DUP4 ADD MSTORE PUSH2 0x641F DUP2 PUSH2 0x5E70 JUMP JUMPDEST SWAP1 POP SWAP2 SWAP1 POP JUMP JUMPDEST PUSH1 0x0 PUSH1 0x20 DUP3 ADD SWAP1 POP DUP2 DUP2 SUB PUSH1 0x0 DUP4 ADD MSTORE PUSH2 0x643F DUP2 PUSH2 0x5E93 JUMP JUMPDEST SWAP1 POP SWAP2 SWAP1 POP JUMP JUMPDEST PUSH1 0x0 PUSH1 0x20 DUP3 ADD SWAP1 POP DUP2 DUP2 SUB PUSH1 0x0 DUP4 ADD MSTORE PUSH2 0x645F DUP2 PUSH2 0x5EB6 JUMP JUMPDEST SWAP1 POP SWAP2 SWAP1 POP JUMP JUMPDEST PUSH1 0x0 PUSH1 0x20 DUP3 ADD SWAP1 POP DUP2 DUP2 SUB PUSH1 0x0 DUP4 ADD MSTORE PUSH2 0x647F DUP2 PUSH2 0x5ED9 JUMP JUMPDEST SWAP1 POP SWAP2 SWAP1 POP JUMP JUMPDEST PUSH1 0x0 PUSH1 0x20 DUP3 ADD SWAP1 POP DUP2 DUP2 SUB PUSH1 0x0 DUP4 ADD MSTORE PUSH2 0x649F DUP2 PUSH2 0x5EFC JUMP JUMPDEST SWAP1 POP SWAP2 SWAP1 POP JUMP JUMPDEST PUSH1 0x0 PUSH1 0x20 DUP3 ADD SWAP1 POP DUP2 DUP2 SUB PUSH1 0x0 DUP4 ADD MSTORE PUSH2 0x64BF DUP2 PUSH2 0x5F1F JUMP JUMPDEST SWAP1 POP SWAP2 SWAP1 POP JUMP JUMPDEST PUSH1 0x0 PUSH1 0x20 DUP3 ADD SWAP1 POP DUP2 DUP2 SUB PUSH1 0x0 DUP4 ADD MSTORE PUSH2 0x64DF DUP2 PUSH2 0x5F42 JUMP JUMPDEST SWAP1 POP SWAP2 SWAP1 POP JUMP JUMPDEST PUSH1 0x0 PUSH1 0x20 DUP3 ADD SWAP1 POP DUP2 DUP2 SUB PUSH1 0x0 DUP4 ADD MSTORE PUSH2 0x64FF DUP2 PUSH2 0x5F65 JUMP JUMPDEST SWAP1 POP SWAP2 SWAP1 POP JUMP JUMPDEST PUSH1 0x0 PUSH1 0x20 DUP3 ADD SWAP1 POP DUP2 DUP2 SUB PUSH1 0x0 DUP4 ADD MSTORE PUSH2 0x651F DUP2 PUSH2 0x5F88 JUMP JUMPDEST SWAP1 POP SWAP2 SWAP1 POP JUMP JUMPDEST PUSH1 0x0 PUSH1 0x20 DUP3 ADD SWAP1 POP DUP2 DUP2 SUB PUSH1 0x0 DUP4 ADD MSTORE PUSH2 0x653F DUP2 PUSH2 0x5FAB JUMP JUMPDEST SWAP1 POP SWAP2 SWAP1 POP JUMP JUMPDEST PUSH1 0x0 PUSH1 0x20 DUP3 ADD SWAP1 POP DUP2 DUP2 SUB PUSH1 0x0 DUP4 ADD MSTORE PUSH2 0x655F DUP2 PUSH2 0x5FCE JUMP JUMPDEST SWAP1 POP SWAP2 SWAP1 POP JUMP JUMPDEST PUSH1 0x0 PUSH1 0x20 DUP3 ADD SWAP1 POP DUP2 DUP2 SUB PUSH1 0x0 DUP4 ADD MSTORE PUSH2 0x657F DUP2 PUSH2 0x5FF1 JUMP JUMPDEST SWAP1 POP SWAP2 SWAP1 POP JUMP JUMPDEST PUSH1 0x0 PUSH1 0x20 DUP3 ADD SWAP1 POP DUP2 DUP2 SUB PUSH1 0x0 DUP4 ADD MSTORE PUSH2 0x659F DUP2 PUSH2 0x6014 JUMP JUMPDEST SWAP1 POP SWAP2 SWAP1 POP JUMP JUMPDEST PUSH1 0x0 PUSH1 0x20 DUP3 ADD SWAP1 POP DUP2 DUP2 SUB PUSH1 0x0 DUP4 ADD MSTORE PUSH2 0x65BF DUP2 PUSH2 0x6037 JUMP JUMPDEST SWAP1 POP SWAP2 SWAP1 POP JUMP JUMPDEST PUSH1 0x0 PUSH1 0x20 DUP3 ADD SWAP1 POP DUP2 DUP2 SUB PUSH1 0x0 DUP4 ADD MSTORE PUSH2 0x65DF DUP2 PUSH2 0x605A JUMP JUMPDEST SWAP1 POP SWAP2 SWAP1 POP JUMP JUMPDEST PUSH1 0x0 PUSH1 0x20 DUP3 ADD SWAP1 POP DUP2 DUP2 SUB PUSH1 0x0 DUP4 ADD MSTORE PUSH2 0x65FF DUP2 PUSH2 0x607D JUMP JUMPDEST SWAP1 POP SWAP2 SWAP1 POP JUMP JUMPDEST PUSH1 0x0 PUSH1 0x20 DUP3 ADD SWAP1 POP DUP2 DUP2 SUB PUSH1 0x0 DUP4 ADD MSTORE PUSH2 0x661F DUP2 PUSH2 0x60A0 JUMP JUMPDEST SWAP1 POP SWAP2 SWAP1 POP JUMP JUMPDEST PUSH1 0x0 PUSH1 0x20 DUP3 ADD SWAP1 POP DUP2 DUP2 SUB PUSH1 0x0 DUP4 ADD MSTORE PUSH2 0x663F DUP2 PUSH2 0x60C3 JUMP JUMPDEST SWAP1 POP SWAP2 SWAP1 POP JUMP JUMPDEST PUSH1 0x0 PUSH1 0x20 DUP3 ADD SWAP1 POP DUP2 DUP2 SUB PUSH1 0x0 DUP4 ADD MSTORE PUSH2 0x665F DUP2 PUSH2 0x60E6 JUMP JUMPDEST SWAP1 POP SWAP2 SWAP1 POP JUMP JUMPDEST PUSH1 0x0 PUSH1 0x20 DUP3 ADD SWAP1 POP DUP2 DUP2 SUB PUSH1 0x0 DUP4 ADD MSTORE PUSH2 0x667F DUP2 PUSH2 0x6109 JUMP JUMPDEST SWAP1 POP SWAP2 SWAP1 POP JUMP JUMPDEST PUSH1 0x0 PUSH1 0x20 DUP3 ADD SWAP1 POP DUP2 DUP2 SUB PUSH1 0x0 DUP4 ADD MSTORE PUSH2 0x669F DUP2 PUSH2 0x612C JUMP JUMPDEST SWAP1 POP SWAP2 SWAP1 POP JUMP JUMPDEST PUSH1 0x0 PUSH1 0x20 DUP3 ADD SWAP1 POP PUSH2 0x66BB PUSH1 0x0 DUP4 ADD DUP5 PUSH2 0x615E JUMP JUMPDEST SWAP3 SWAP2 POP POP JUMP JUMPDEST PUSH1 0x0 PUSH1 0x40 DUP3 ADD SWAP1 POP PUSH2 0x66D6 PUSH1 0x0 DUP4 ADD DUP6 PUSH2 0x615E JUMP JUMPDEST PUSH2 0x66E3 PUSH1 0x20 DUP4 ADD DUP5 PUSH2 0x615E JUMP JUMPDEST SWAP4 SWAP3 POP POP POP JUMP JUMPDEST PUSH1 0x0 PUSH1 0x20 DUP3 ADD SWAP1 POP PUSH2 0x66FF PUSH1 0x0 DUP4 ADD DUP5 PUSH2 0x616D JUMP JUMPDEST SWAP3 SWAP2 POP POP JUMP JUMPDEST PUSH1 0x0 PUSH2 0x670F PUSH2 0x6720 JUMP JUMPDEST SWAP1 POP PUSH2 0x671B DUP3 DUP3 PUSH2 0x6BD4 JUMP JUMPDEST SWAP2 SWAP1 POP JUMP JUMPDEST PUSH1 0x0 PUSH1 0x40 MLOAD SWAP1 POP SWAP1 JUMP JUMPDEST PUSH1 0x0 PUSH8 0xFFFFFFFFFFFFFFFF DUP3 GT ISZERO PUSH2 0x6745 JUMPI PUSH2 0x6744 PUSH2 0x6D39 JUMP JUMPDEST JUMPDEST PUSH1 0x20 DUP3 MUL SWAP1 POP PUSH1 0x20 DUP2 ADD SWAP1 POP SWAP2 SWAP1 POP JUMP JUMPDEST PUSH1 0x0 PUSH8 0xFFFFFFFFFFFFFFFF DUP3 GT ISZERO PUSH2 0x6771 JUMPI PUSH2 0x6770 PUSH2 0x6D39 JUMP JUMPDEST JUMPDEST PUSH1 0x20 DUP3 MUL SWAP1 POP PUSH1 0x20 DUP2 ADD SWAP1 POP SWAP2 SWAP1 POP JUMP JUMPDEST PUSH1 0x0 PUSH8 0xFFFFFFFFFFFFFFFF DUP3 GT ISZERO PUSH2 0x679D JUMPI PUSH2 0x679C PUSH2 0x6D39 JUMP JUMPDEST JUMPDEST PUSH1 0x20 DUP3 MUL SWAP1 POP PUSH1 0x20 DUP2 ADD SWAP1 POP SWAP2 SWAP1 POP JUMP JUMPDEST PUSH1 0x0 PUSH8 0xFFFFFFFFFFFFFFFF DUP3 GT ISZERO PUSH2 0x67C9 JUMPI PUSH2 0x67C8 PUSH2 0x6D39 JUMP JUMPDEST JUMPDEST PUSH1 0x20 DUP3 MUL SWAP1 POP PUSH1 0x20 DUP2 ADD SWAP1 POP SWAP2 SWAP1 POP JUMP JUMPDEST PUSH1 0x0 PUSH8 0xFFFFFFFFFFFFFFFF DUP3 GT ISZERO PUSH2 0x67F5 JUMPI PUSH2 0x67F4 PUSH2 0x6D39 JUMP JUMPDEST JUMPDEST PUSH2 0x67FE DUP3 PUSH2 0x6D99 JUMP JUMPDEST SWAP1 POP PUSH1 0x20 DUP2 ADD SWAP1 POP SWAP2 SWAP1 POP JUMP JUMPDEST PUSH1 0x0 PUSH8 0xFFFFFFFFFFFFFFFF DUP3 GT ISZERO PUSH2 0x6826 JUMPI PUSH2 0x6825 PUSH2 0x6D39 JUMP JUMPDEST JUMPDEST PUSH2 0x682F DUP3 PUSH2 0x6D99 JUMP JUMPDEST SWAP1 POP PUSH1 0x20 DUP2 ADD SWAP1 POP SWAP2 SWAP1 POP JUMP JUMPDEST PUSH1 0x0 DUP2 SWAP1 POP DUP2 PUSH1 0x0 MSTORE PUSH1 0x20 PUSH1 0x0 KECCAK256 SWAP1 POP SWAP2 SWAP1 POP JUMP JUMPDEST PUSH1 0x0 DUP2 SWAP1 POP PUSH1 0x20 DUP3 ADD SWAP1 POP SWAP2 SWAP1 POP JUMP JUMPDEST PUSH1 0x0 DUP2 SWAP1 POP PUSH1 0x20 DUP3 ADD SWAP1 POP SWAP2 SWAP1 POP JUMP JUMPDEST PUSH1 0x0 DUP2 SLOAD SWAP1 POP SWAP2 SWAP1 POP JUMP JUMPDEST PUSH1 0x0 DUP2 MLOAD SWAP1 POP SWAP2 SWAP1 POP JUMP JUMPDEST PUSH1 0x0 DUP2 MLOAD SWAP1 POP SWAP2 SWAP1 POP JUMP JUMPDEST PUSH1 0x0 DUP2 MLOAD SWAP1 POP SWAP2 SWAP1 POP JUMP JUMPDEST PUSH1 0x0 PUSH1 0x1 DUP3 ADD SWAP1 POP SWAP2 SWAP1 POP JUMP JUMPDEST PUSH1 0x0 PUSH1 0x20 DUP3 ADD SWAP1 POP SWAP2 SWAP1 POP JUMP JUMPDEST PUSH1 0x0 PUSH1 0x20 DUP3 ADD SWAP1 POP SWAP2 SWAP1 POP JUMP JUMPDEST PUSH1 0x0 DUP3 DUP3 MSTORE PUSH1 0x20 DUP3 ADD SWAP1 POP SWAP3 SWAP2 POP POP JUMP JUMPDEST PUSH1 0x0 DUP3 DUP3 MSTORE PUSH1 0x20 DUP3 ADD SWAP1 POP SWAP3 SWAP2 POP POP JUMP JUMPDEST PUSH1 0x0 DUP3 DUP3 MSTORE PUSH1 0x20 DUP3 ADD SWAP1 POP SWAP3 SWAP2 POP POP JUMP JUMPDEST PUSH1 0x0 DUP3 DUP3 MSTORE PUSH1 0x20 DUP3 ADD SWAP1 POP SWAP3 SWAP2 POP POP JUMP JUMPDEST PUSH1 0x0 PUSH2 0x6913 DUP3 PUSH2 0x6AD5 JUMP JUMPDEST SWAP2 POP PUSH2 0x691E DUP4 PUSH2 0x6AD5 JUMP JUMPDEST SWAP3 POP DUP3 PUSH32 0xFFFFFFFFFFFFFFFFFFFFFFFFFFFFFFFFFFFFFFFFFFFFFFFFFFFFFFFFFFFFFFFF SUB DUP3 GT ISZERO PUSH2 0x6953 JUMPI PUSH2 0x6952 PUSH2 0x6C4E JUMP JUMPDEST JUMPDEST DUP3 DUP3 ADD SWAP1 POP SWAP3 SWAP2 POP POP JUMP JUMPDEST PUSH1 0x0 PUSH2 0x6969 DUP3 PUSH2 0x6AD5 JUMP JUMPDEST SWAP2 POP PUSH2 0x6974 DUP4 PUSH2 0x6AD5 JUMP JUMPDEST SWAP3 POP DUP3 PUSH2 0x6984 JUMPI PUSH2 0x6983 PUSH2 0x6C7D JUMP JUMPDEST JUMPDEST DUP3 DUP3 DIV SWAP1 POP SWAP3 SWAP2 POP POP JUMP JUMPDEST PUSH1 0x0 PUSH2 0x699A DUP3 PUSH2 0x6AD5 JUMP JUMPDEST SWAP2 POP PUSH2 0x69A5 DUP4 PUSH2 0x6AD5 JUMP JUMPDEST SWAP3 POP DUP2 PUSH32 0xFFFFFFFFFFFFFFFFFFFFFFFFFFFFFFFFFFFFFFFFFFFFFFFFFFFFFFFFFFFFFFFF DIV DUP4 GT DUP3 ISZERO ISZERO AND ISZERO PUSH2 0x69DE JUMPI PUSH2 0x69DD PUSH2 0x6C4E JUMP JUMPDEST JUMPDEST DUP3 DUP3 MUL SWAP1 POP SWAP3 SWAP2 POP POP JUMP JUMPDEST PUSH1 0x0 PUSH2 0x69F4 DUP3 PUSH2 0x6AD5 JUMP JUMPDEST SWAP2 POP PUSH2 0x69FF DUP4 PUSH2 0x6AD5 JUMP JUMPDEST SWAP3 POP DUP3 DUP3 LT ISZERO PUSH2 0x6A12 JUMPI PUSH2 0x6A11 PUSH2 0x6C4E JUMP JUMPDEST JUMPDEST DUP3 DUP3 SUB SWAP1 POP SWAP3 SWAP2 POP POP JUMP JUMPDEST PUSH1 0x0 PUSH20 0xFFFFFFFFFFFFFFFFFFFFFFFFFFFFFFFFFFFFFFFF DUP3 AND SWAP1 POP SWAP2 SWAP1 POP JUMP JUMPDEST PUSH1 0x0 PUSH2 0x6A48 DUP3 PUSH2 0x6AB5 JUMP JUMPDEST SWAP1 POP SWAP2 SWAP1 POP JUMP JUMPDEST PUSH1 0x0 PUSH2 0x6A5A DUP3 PUSH2 0x6AB5 JUMP JUMPDEST SWAP1 POP SWAP2 SWAP1 POP JUMP JUMPDEST PUSH1 0x0 DUP2 ISZERO ISZERO SWAP1 POP SWAP2 SWAP1 POP JUMP JUMPDEST PUSH1 0x0 DUP2 SWAP1 POP SWAP2 SWAP1 POP JUMP JUMPDEST PUSH1 0x0 PUSH32 0xFFFFFFFFFFFFFFFF000000000000000000000000000000000000000000000000 DUP3 AND SWAP1 POP SWAP2 SWAP1 POP JUMP JUMPDEST PUSH1 0x0 PUSH2 0x6AAE DUP3 PUSH2 0x6A3D JUMP JUMPDEST SWAP1 POP SWAP2 SWAP1 POP JUMP JUMPDEST PUSH1 0x0 PUSH20 0xFFFFFFFFFFFFFFFFFFFFFFFFFFFFFFFFFFFFFFFF DUP3 AND SWAP1 POP SWAP2 SWAP1 POP JUMP JUMPDEST PUSH1 0x0 DUP2 SWAP1 POP SWAP2 SWAP1 POP JUMP JUMPDEST PUSH1 0x0 PUSH1 0xFF DUP3 AND SWAP1 POP SWAP2 SWAP1 POP JUMP JUMPDEST PUSH1 0x0 PUSH2 0x6AF7 DUP3 PUSH2 0x6B10 JUMP JUMPDEST SWAP1 POP SWAP2 SWAP1 POP JUMP JUMPDEST PUSH1 0x0 PUSH2 0x6B09 DUP3 PUSH2 0x6B22 JUMP JUMPDEST SWAP1 POP SWAP2 SWAP1 POP JUMP JUMPDEST PUSH1 0x0 PUSH2 0x6B1B DUP3 PUSH2 0x6B34 JUMP JUMPDEST SWAP1 POP SWAP2 SWAP1 POP JUMP JUMPDEST PUSH1 0x0 PUSH2 0x6B2D DUP3 PUSH2 0x6B34 JUMP JUMPDEST SWAP1 POP SWAP2 SWAP1 POP JUMP JUMPDEST PUSH1 0x0 PUSH2 0x6B3F DUP3 PUSH2 0x6AB5 JUMP JUMPDEST SWAP1 POP SWAP2 SWAP1 POP JUMP JUMPDEST DUP3 DUP2 DUP4 CALLDATACOPY PUSH1 0x0 DUP4 DUP4 ADD MSTORE POP POP POP JUMP JUMPDEST PUSH1 0x0 JUMPDEST DUP4 DUP2 LT ISZERO PUSH2 0x6B73 JUMPI DUP1 DUP3 ADD MLOAD DUP2 DUP5 ADD MSTORE PUSH1 0x20 DUP2 ADD SWAP1 POP PUSH2 0x6B58 JUMP JUMPDEST DUP4 DUP2 GT ISZERO PUSH2 0x6B82 JUMPI PUSH1 0x0 DUP5 DUP5 ADD MSTORE JUMPDEST POP POP POP POP JUMP JUMPDEST PUSH1 0x0 PUSH1 0x2 DUP3 DIV SWAP1 POP PUSH1 0x1 DUP3 AND DUP1 PUSH2 0x6BA0 JUMPI PUSH1 0x7F DUP3 AND SWAP2 POP JUMPDEST PUSH1 0x20 DUP3 LT DUP2 EQ ISZERO PUSH2 0x6BB4 JUMPI PUSH2 0x6BB3 PUSH2 0x6CAC JUMP JUMPDEST JUMPDEST POP SWAP2 SWAP1 POP JUMP JUMPDEST PUSH1 0x0 PUSH2 0x6BCD PUSH2 0x6BC8 DUP4 PUSH2 0x6DAA JUMP JUMPDEST PUSH2 0x6A1D JUMP JUMPDEST SWAP1 POP SWAP2 SWAP1 POP JUMP JUMPDEST PUSH2 0x6BDD DUP3 PUSH2 0x6D99 JUMP JUMPDEST DUP2 ADD DUP2 DUP2 LT PUSH8 0xFFFFFFFFFFFFFFFF DUP3 GT OR ISZERO PUSH2 0x6BFC JUMPI PUSH2 0x6BFB PUSH2 0x6D39 JUMP JUMPDEST JUMPDEST DUP1 PUSH1 0x40 MSTORE POP POP POP JUMP JUMPDEST PUSH1 0x0 PUSH2 0x6C10 DUP3 PUSH2 0x6AD5 JUMP JUMPDEST SWAP2 POP PUSH32 0xFFFFFFFFFFFFFFFFFFFFFFFFFFFFFFFFFFFFFFFFFFFFFFFFFFFFFFFFFFFFFFFF DUP3 EQ ISZERO PUSH2 0x6C43 JUMPI PUSH2 0x6C42 PUSH2 0x6C4E JUMP JUMPDEST JUMPDEST PUSH1 0x1 DUP3 ADD SWAP1 POP SWAP2 SWAP1 POP JUMP JUMPDEST PUSH32 0x4E487B7100000000000000000000000000000000000000000000000000000000 PUSH1 0x0 MSTORE PUSH1 0x11 PUSH1 0x4 MSTORE PUSH1 0x24 PUSH1 0x0 REVERT JUMPDEST PUSH32 0x4E487B7100000000000000000000000000000000000000000000000000000000 PUSH1 0x0 MSTORE PUSH1 0x12 PUSH1 0x4 MSTORE PUSH1 0x24 PUSH1 0x0 REVERT JUMPDEST PUSH32 0x4E487B7100000000000000000000000000000000000000000000000000000000 PUSH1 0x0 MSTORE PUSH1 0x22 PUSH1 0x4 MSTORE PUSH1 0x24 PUSH1 0x0 REVERT JUMPDEST PUSH32 0x4E487B7100000000000000000000000000000000000000000000000000000000 PUSH1 0x0 MSTORE PUSH1 0x31 PUSH1 0x4 MSTORE PUSH1 0x24 PUSH1 0x0 REVERT JUMPDEST PUSH32 0x4E487B7100000000000000000000000000000000000000000000000000000000 PUSH1 0x0 MSTORE PUSH1 0x32 PUSH1 0x4 MSTORE PUSH1 0x24 PUSH1 0x0 REVERT JUMPDEST PUSH32 0x4E487B7100000000000000000000000000000000000000000000000000000000 PUSH1 0x0 MSTORE PUSH1 0x41 PUSH1 0x4 MSTORE PUSH1 0x24 PUSH1 0x0 REVERT JUMPDEST PUSH1 0x0 PUSH2 0x6D74 DUP3 SLOAD PUSH2 0x6BBA JUMP JUMPDEST SWAP1 POP SWAP2 SWAP1 POP JUMP JUMPDEST PUSH1 0x0 DUP1 REVERT JUMPDEST PUSH1 0x0 DUP1 REVERT JUMPDEST PUSH1 0x0 DUP1 REVERT JUMPDEST PUSH1 0x0 DUP1 REVERT JUMPDEST PUSH1 0x0 DUP1 REVERT JUMPDEST PUSH1 0x0 DUP1 REVERT JUMPDEST PUSH1 0x0 PUSH1 0x1F NOT PUSH1 0x1F DUP4 ADD AND SWAP1 POP SWAP2 SWAP1 POP JUMP JUMPDEST PUSH1 0x0 DUP2 PUSH1 0x0 SHR SWAP1 POP SWAP2 SWAP1 POP JUMP JUMPDEST PUSH32 0x3078353000000000000000000000000000000000000000000000000000000000 PUSH1 0x0 DUP3 ADD MSTORE POP JUMP JUMPDEST PUSH32 0x45524332303A207472616E7366657220746F20746865207A65726F2061646472 PUSH1 0x0 DUP3 ADD MSTORE PUSH32 0x6573730000000000000000000000000000000000000000000000000000000000 PUSH1 0x20 DUP3 ADD MSTORE POP JUMP JUMPDEST PUSH32 0x5061757361626C653A206E6F7420706175736564000000000000000000000000 PUSH1 0x0 DUP3 ADD MSTORE POP JUMP JUMPDEST PUSH32 0x70726F7669646520657175616C20616D6F756E74206F6620636F646520616E64 PUSH1 0x0 DUP3 ADD MSTORE PUSH32 0x2074657874000000000000000000000000000000000000000000000000000000 PUSH1 0x20 DUP3 ADD MSTORE POP JUMP JUMPDEST PUSH32 0x4F776E61626C653A206E6577206F776E657220697320746865207A65726F2061 PUSH1 0x0 DUP3 ADD MSTORE PUSH32 0x6464726573730000000000000000000000000000000000000000000000000000 PUSH1 0x20 DUP3 ADD MSTORE POP JUMP JUMPDEST PUSH32 0x45524332303A20617070726F766520746F20746865207A65726F206164647265 PUSH1 0x0 DUP3 ADD MSTORE PUSH32 0x7373000000000000000000000000000000000000000000000000000000000000 PUSH1 0x20 DUP3 ADD MSTORE POP JUMP JUMPDEST PUSH32 0x45524332303A20696E73756666696369656E7420616C6C6F77616E6365000000 PUSH1 0x0 DUP3 ADD MSTORE POP JUMP JUMPDEST PUSH32 0x536E617073686F7420616C726561647920646F6E650000000000000000000000 PUSH1 0x0 DUP3 ADD MSTORE POP JUMP JUMPDEST PUSH32 0x6F726967696E616C203D207265706C6163656D656E7400000000000000000000 PUSH1 0x0 DUP3 ADD MSTORE POP JUMP JUMPDEST PUSH32 0x3078353400000000000000000000000000000000000000000000000000000000 PUSH1 0x0 DUP3 ADD MSTORE POP JUMP JUMPDEST PUSH32 0x5061757361626C653A2070617573656400000000000000000000000000000000 PUSH1 0x0 DUP3 ADD MSTORE POP JUMP JUMPDEST PUSH32 0x6E6F74206964656E746966696564207265636569766572000000000000000000 PUSH1 0x0 DUP3 ADD MSTORE POP JUMP JUMPDEST PUSH32 0x3020616464726573730000000000000000000000000000000000000000000000 PUSH1 0x0 DUP3 ADD MSTORE POP JUMP JUMPDEST PUSH32 0x3078353900000000000000000000000000000000000000000000000000000000 PUSH1 0x0 DUP3 ADD MSTORE POP JUMP JUMPDEST PUSH32 0x6E6F7420617574686F72697A6564000000000000000000000000000000000000 PUSH1 0x0 DUP3 ADD MSTORE POP JUMP JUMPDEST PUSH32 0x5265636569766572206E6F74206964656E746966696564000000000000000000 PUSH1 0x0 DUP3 ADD MSTORE POP JUMP JUMPDEST PUSH32 0x4F776E61626C653A2063616C6C6572206973206E6F7420746865206F776E6572 PUSH1 0x0 DUP3 ADD MSTORE POP JUMP JUMPDEST PUSH32 0x536E617073686F74206E6F7420666F756E640000000000000000000000000000 PUSH1 0x0 DUP3 ADD MSTORE POP JUMP JUMPDEST PUSH32 0x4E6F7420657175616C2072656365697665727320616E6420616D6F756E747300 PUSH1 0x0 DUP3 ADD MSTORE POP JUMP JUMPDEST PUSH32 0x45524332303A207472616E736665722066726F6D20746865207A65726F206164 PUSH1 0x0 DUP3 ADD MSTORE PUSH32 0x6472657373000000000000000000000000000000000000000000000000000000 PUSH1 0x20 DUP3 ADD MSTORE POP JUMP JUMPDEST PUSH32 0x536E617073686F74207363686564756C656420696E2074686520706173740000 PUSH1 0x0 DUP3 ADD MSTORE POP JUMP JUMPDEST PUSH32 0x45524332303A20617070726F76652066726F6D20746865207A65726F20616464 PUSH1 0x0 DUP3 ADD MSTORE PUSH32 0x7265737300000000000000000000000000000000000000000000000000000000 PUSH1 0x20 DUP3 ADD MSTORE POP JUMP JUMPDEST PUSH32 0x536E617073686F7420616C7265616479207363686564756C656420666F722074 PUSH1 0x0 DUP3 ADD MSTORE PUSH32 0x6869732074696D65000000000000000000000000000000000000000000000000 PUSH1 0x20 DUP3 ADD MSTORE POP JUMP JUMPDEST PUSH32 0x6F776E65722070726F74656374696F6E00000000000000000000000000000000 PUSH1 0x0 DUP3 ADD MSTORE POP JUMP JUMPDEST PUSH32 0x45524332303A2064656372656173656420616C6C6F77616E63652062656C6F77 PUSH1 0x0 DUP3 ADD MSTORE PUSH32 0x207A65726F000000000000000000000000000000000000000000000000000000 PUSH1 0x20 DUP3 ADD MSTORE POP JUMP JUMPDEST PUSH32 0x45524332303A206D696E7420746F20746865207A65726F206164647265737300 PUSH1 0x0 DUP3 ADD MSTORE POP JUMP JUMPDEST PUSH2 0x731A DUP2 PUSH2 0x6A3D JUMP JUMPDEST DUP2 EQ PUSH2 0x7325 JUMPI PUSH1 0x0 DUP1 REVERT JUMPDEST POP JUMP JUMPDEST PUSH2 0x7331 DUP2 PUSH2 0x6A4F JUMP JUMPDEST DUP2 EQ PUSH2 0x733C JUMPI PUSH1 0x0 DUP1 REVERT JUMPDEST POP JUMP JUMPDEST PUSH2 0x7348 DUP2 PUSH2 0x6A61 JUMP JUMPDEST DUP2 EQ PUSH2 0x7353 JUMPI PUSH1 0x0 DUP1 REVERT JUMPDEST POP JUMP JUMPDEST PUSH2 0x735F DUP2 PUSH2 0x6A77 JUMP JUMPDEST DUP2 EQ PUSH2 0x736A JUMPI PUSH1 0x0 DUP1 REVERT JUMPDEST POP JUMP JUMPDEST PUSH2 0x7376 DUP2 PUSH2 0x6AA3 JUMP JUMPDEST DUP2 EQ PUSH2 0x7381 JUMPI PUSH1 0x0 DUP1 REVERT JUMPDEST POP JUMP JUMPDEST PUSH2 0x738D DUP2 PUSH2 0x6AD5 JUMP JUMPDEST DUP2 EQ PUSH2 0x7398 JUMPI PUSH1 0x0 DUP1 REVERT JUMPDEST POP JUMP JUMPDEST PUSH2 0x73A4 DUP2 PUSH2 0x6ADF JUMP JUMPDEST DUP2 EQ PUSH2 0x73AF JUMPI PUSH1 0x0 DUP1 REVERT JUMPDEST POP JUMP INVALID LOG2 PUSH5 0x6970667358 0x22 SLT KECCAK256 0xDC 0xCB AND PUSH4 0x8E307EA6 EQ 0xCF STATICCALL 0xDA 0xC EXTCODESIZE STATICCALL JUMPDEST TIMESTAMP 0xC2 0xE7 SWAP9 SMOD 0x5C BALANCE 0x2A 0xE3 0xD7 0xC5 SWAP12 ADDRESS 0xC8 POP BASEFEE PUSH5 0x736F6C6343 STOP ADDMOD SMOD STOP CALLER "
		},
		"gasEstimates": {
			"creation": {
				"codeDepositCost": "5934400",
				"executionCost": "infinite",
				"totalCost": "infinite"
			},
			"external": {
				"SNAPSHOOTER_ROLE()": "398",
				"allowance(address,address)": "infinite",
				"approve(address,uint256)": "infinite",
				"assignPaymentToken(address)": "27077",
				"balanceOf(address)": "2953",
				"batchTransfer(address[],uint256[])": "infinite",
				"canTransfer(address,address,uint256)": "infinite",
				"decimals()": "425",
				"decreaseAllowance(address,uint256)": "infinite",
				"destroy(address[])": "infinite",
				"detectTransferRestriction(address,address,uint256)": "infinite",
				"distributionClaimDeposit()": "infinite",
				"distributionCreateParameters(uint256)": "infinite",
				"distributionSetDeposit(address,uint256)": "infinite",
				"distributionSetEligibility(address[])": "infinite",
				"dividend()": "2498",
				"getContactInformation()": "infinite",
				"getNextSnapshots()": "infinite",
				"grantOperatorRole(address)": "infinite",
				"grantPauserRole(address)": "27076",
				"grantSnapshotRole(address)": "27054",
				"hasOperatorRole()": "infinite",
				"hasPauserRole()": "4919",
				"hasSnapshotRole()": "4855",
				"identity(address[])": "infinite",
				"increaseAllowance(address,uint256)": "infinite",
				"issue(uint256)": "infinite",
				"messageForTransferRestriction(uint8)": "infinite",
				"name()": "infinite",
				"owner()": "2613",
				"pause()": "infinite",
				"paused()": "2592",
				"paymentToken()": "2668",
				"prospectus()": "infinite",
				"reassign(address,address)": "infinite",
				"redeem(uint256)": "infinite",
				"renounceOwnership()": "30465",
				"rescheduleSnapshot(uint256,uint256)": "infinite",
				"revokePauserRole()": "26809",
				"revokeSnapshotRole()": "26743",
				"ruleEngine()": "2732",
				"scheduleSnapshot(uint256)": "infinite",
				"setContactInformation(string,string)": "infinite",
				"setIdentity(address,bytes8)": "infinite",
				"setRuleEngine(address)": "28324",
				"shareholders(uint256)": "5068",
				"showMyIdentity()": "2636",
				"showPastScheduledSnapshots()": "infinite",
				"snapshotBalanceOf(uint256,address)": "infinite",
				"snapshotTotalSupply(uint256)": "infinite",
				"symbol()": "infinite",
				"tokenFallback(address,uint256,bytes)": "infinite",
				"totalSupply()": "2550",
				"transfer(address,uint256)": "infinite",
				"transferFrom(address,address,uint256)": "infinite",
				"transferOwnership(address)": "30813",
				"unpause()": "infinite",
				"unscheduleSnapshot(uint256)": "infinite",
				"updateRestrictionCodes(uint8[],string[])": "infinite"
			},
			"internal": {
				"_identity(address[] memory)": "infinite",
				"transferTokenFallback(address,uint256)": "infinite"
			}
		},
		"methodIdentifiers": {
			"SNAPSHOOTER_ROLE()": "246b72ec",
			"allowance(address,address)": "dd62ed3e",
			"approve(address,uint256)": "095ea7b3",
			"assignPaymentToken(address)": "10b3b159",
			"balanceOf(address)": "70a08231",
			"batchTransfer(address[],uint256[])": "88d695b2",
			"canTransfer(address,address,uint256)": "e46638e6",
			"decimals()": "313ce567",
			"decreaseAllowance(address,uint256)": "a457c2d7",
			"destroy(address[])": "c6786e5a",
			"detectTransferRestriction(address,address,uint256)": "d4ce1415",
			"distributionClaimDeposit()": "e2358351",
			"distributionCreateParameters(uint256)": "a69ee24f",
			"distributionSetDeposit(address,uint256)": "067a8a70",
			"distributionSetEligibility(address[])": "4cd12dd7",
			"dividend()": "0ff8cf9b",
			"getContactInformation()": "5dc952f3",
			"getNextSnapshots()": "fb78ed40",
			"grantOperatorRole(address)": "27ac0c58",
			"grantPauserRole(address)": "6c11c21c",
			"grantSnapshotRole(address)": "ccace0b0",
			"hasOperatorRole()": "f87c0809",
			"hasPauserRole()": "dcbf4305",
			"hasSnapshotRole()": "40b9c28a",
			"identity(address[])": "2613169c",
			"increaseAllowance(address,uint256)": "39509351",
			"issue(uint256)": "cc872b66",
			"messageForTransferRestriction(uint8)": "7f4ab1dd",
			"name()": "06fdde03",
			"owner()": "8da5cb5b",
			"pause()": "8456cb59",
			"paused()": "5c975abb",
			"paymentToken()": "3013ce29",
			"prospectus()": "cff688f3",
			"reassign(address,address)": "5fff8cd3",
			"redeem(uint256)": "db006a75",
			"renounceOwnership()": "715018a6",
			"rescheduleSnapshot(uint256,uint256)": "d21268ef",
			"revokePauserRole()": "ae6f1f32",
			"revokeSnapshotRole()": "699798bb",
			"ruleEngine()": "fcf196b4",
			"scheduleSnapshot(uint256)": "a312e155",
			"setContactInformation(string,string)": "82e0fbac",
			"setIdentity(address,bytes8)": "b71afb09",
			"setRuleEngine(address)": "a4a0a301",
			"shareholders(uint256)": "ab377daa",
			"showMyIdentity()": "9fcaff50",
			"showPastScheduledSnapshots()": "d635d66e",
			"snapshotBalanceOf(uint256,address)": "634daf76",
			"snapshotTotalSupply(uint256)": "5ee7a942",
			"symbol()": "95d89b41",
			"tokenFallback(address,uint256,bytes)": "c0ee0b8a",
			"totalSupply()": "18160ddd",
			"transfer(address,uint256)": "a9059cbb",
			"transferFrom(address,address,uint256)": "23b872dd",
			"transferOwnership(address)": "f2fde38b",
			"unpause()": "3f4ba83a",
			"unscheduleSnapshot(uint256)": "e20c35e5",
			"updateRestrictionCodes(uint8[],string[])": "70ea07b8"
		}
	},
	"abi": [
		{
			"inputs": [
				{
					"internalType": "string",
					"name": "_name",
					"type": "string"
				},
				{
					"internalType": "string",
					"name": "_symbol",
					"type": "string"
				},
				{
					"internalType": "string",
					"name": "_referenceToTerms",
					"type": "string"
				},
				{
					"internalType": "string",
					"name": "_contact",
					"type": "string"
				}
			],
			"stateMutability": "nonpayable",
			"type": "constructor"
		},
		{
			"inputs": [],
			"name": "NotOCFcalling",
			"type": "error"
		},
		{
			"anonymous": false,
			"inputs": [
				{
					"indexed": true,
					"internalType": "address",
					"name": "owner",
					"type": "address"
				},
				{
					"indexed": true,
					"internalType": "address",
					"name": "spender",
					"type": "address"
				},
				{
					"indexed": false,
					"internalType": "uint256",
					"name": "value",
					"type": "uint256"
				}
			],
			"name": "Approval",
			"type": "event"
		},
		{
			"anonymous": false,
			"inputs": [
				{
					"indexed": false,
					"internalType": "string",
					"name": "",
					"type": "string"
				},
				{
					"indexed": false,
					"internalType": "string",
					"name": "",
					"type": "string"
				}
			],
			"name": "LogContactSet",
			"type": "event"
		},
		{
			"anonymous": false,
			"inputs": [
				{
					"indexed": false,
					"internalType": "address[]",
					"name": "shareholders",
					"type": "address[]"
				}
			],
			"name": "LogDestroyed",
			"type": "event"
		},
		{
			"anonymous": false,
			"inputs": [
				{
					"indexed": false,
					"internalType": "uint256",
					"name": "value",
					"type": "uint256"
				}
			],
			"name": "LogIssued",
			"type": "event"
		},
		{
			"anonymous": false,
			"inputs": [
				{
					"indexed": true,
					"internalType": "address",
					"name": "original",
					"type": "address"
				},
				{
					"indexed": true,
					"internalType": "address",
					"name": "replacement",
					"type": "address"
				},
				{
					"indexed": false,
					"internalType": "uint256",
					"name": "value",
					"type": "uint256"
				}
			],
			"name": "LogReassigned",
			"type": "event"
		},
		{
			"anonymous": false,
			"inputs": [
				{
					"indexed": false,
					"internalType": "uint256",
					"name": "value",
					"type": "uint256"
				}
			],
			"name": "LogRedeemed",
			"type": "event"
		},
		{
			"anonymous": false,
			"inputs": [
				{
					"indexed": true,
					"internalType": "address",
					"name": "newRuleEngine",
					"type": "address"
				}
			],
			"name": "LogRuleEngineSet",
			"type": "event"
		},
		{
			"anonymous": false,
			"inputs": [
				{
					"indexed": true,
					"internalType": "address",
					"name": "previousOwner",
					"type": "address"
				},
				{
					"indexed": true,
					"internalType": "address",
					"name": "newOwner",
					"type": "address"
				}
			],
			"name": "OwnershipTransferred",
			"type": "event"
		},
		{
			"anonymous": false,
			"inputs": [
				{
					"indexed": false,
					"internalType": "address",
					"name": "account",
					"type": "address"
				}
			],
			"name": "Paused",
			"type": "event"
		},
		{
			"anonymous": false,
			"inputs": [
				{
					"indexed": true,
					"internalType": "uint256",
					"name": "oldTime",
					"type": "uint256"
				},
				{
					"indexed": true,
					"internalType": "uint256",
					"name": "newTime",
					"type": "uint256"
				}
			],
			"name": "SnapshotSchedule",
			"type": "event"
		},
		{
			"anonymous": false,
			"inputs": [
				{
					"indexed": true,
					"internalType": "uint256",
					"name": "time",
					"type": "uint256"
				}
			],
			"name": "SnapshotUnschedule",
			"type": "event"
		},
		{
			"anonymous": false,
			"inputs": [
				{
					"indexed": true,
					"internalType": "address",
					"name": "from",
					"type": "address"
				},
				{
					"indexed": true,
					"internalType": "address",
					"name": "to",
					"type": "address"
				},
				{
					"indexed": false,
					"internalType": "uint256",
					"name": "value",
					"type": "uint256"
				}
			],
			"name": "Transfer",
			"type": "event"
		},
		{
			"anonymous": false,
			"inputs": [
				{
					"indexed": false,
					"internalType": "address",
					"name": "account",
					"type": "address"
				}
			],
			"name": "Unpaused",
			"type": "event"
		},
		{
			"anonymous": false,
			"inputs": [
				{
					"indexed": false,
					"internalType": "uint256",
					"name": "time",
					"type": "uint256"
				},
				{
					"indexed": false,
					"internalType": "uint256",
					"name": "amount",
					"type": "uint256"
				}
			],
			"name": "divdidensDeposited",
			"type": "event"
		},
		{
			"anonymous": false,
			"inputs": [
				{
					"indexed": false,
					"internalType": "address",
					"name": "claimer",
					"type": "address"
				}
			],
			"name": "dividendsClaimedBy",
			"type": "event"
		},
		{
			"anonymous": false,
			"inputs": [
				{
					"indexed": false,
					"internalType": "address",
					"name": "acc",
					"type": "address"
				}
			],
			"name": "gotIdentified",
			"type": "event"
		},
		{
			"inputs": [],
			"name": "SNAPSHOOTER_ROLE",
			"outputs": [
				{
					"internalType": "bytes32",
					"name": "",
					"type": "bytes32"
				}
			],
			"stateMutability": "view",
			"type": "function"
		},
		{
			"inputs": [
				{
					"internalType": "address",
					"name": "owner",
					"type": "address"
				},
				{
					"internalType": "address",
					"name": "spender",
					"type": "address"
				}
			],
			"name": "allowance",
			"outputs": [
				{
					"internalType": "uint256",
					"name": "",
					"type": "uint256"
				}
			],
			"stateMutability": "view",
			"type": "function"
		},
		{
			"inputs": [
				{
					"internalType": "address",
					"name": "_spender",
					"type": "address"
				},
				{
					"internalType": "uint256",
					"name": "_value",
					"type": "uint256"
				}
			],
			"name": "approve",
			"outputs": [
				{
					"internalType": "bool",
					"name": "",
					"type": "bool"
				}
			],
			"stateMutability": "nonpayable",
			"type": "function"
		},
		{
			"inputs": [
				{
					"internalType": "address payable",
					"name": "_paymentToken",
					"type": "address"
				}
			],
			"name": "assignPaymentToken",
			"outputs": [],
			"stateMutability": "nonpayable",
			"type": "function"
		},
		{
			"inputs": [
				{
					"internalType": "address",
					"name": "account",
					"type": "address"
				}
			],
			"name": "balanceOf",
			"outputs": [
				{
					"internalType": "uint256",
					"name": "",
					"type": "uint256"
				}
			],
			"stateMutability": "view",
			"type": "function"
		},
		{
			"inputs": [
				{
					"internalType": "address[]",
					"name": "_to",
					"type": "address[]"
				},
				{
					"internalType": "uint256[]",
					"name": "_value",
					"type": "uint256[]"
				}
			],
			"name": "batchTransfer",
			"outputs": [],
			"stateMutability": "nonpayable",
			"type": "function"
		},
		{
			"inputs": [
				{
					"internalType": "address",
					"name": "_from",
					"type": "address"
				},
				{
					"internalType": "address",
					"name": "_to",
					"type": "address"
				},
				{
					"internalType": "uint256",
					"name": "_value",
					"type": "uint256"
				}
			],
			"name": "canTransfer",
			"outputs": [
				{
					"internalType": "bool",
					"name": "",
					"type": "bool"
				}
			],
			"stateMutability": "view",
			"type": "function"
		},
		{
			"inputs": [],
			"name": "decimals",
			"outputs": [
				{
					"internalType": "uint8",
					"name": "",
					"type": "uint8"
				}
			],
			"stateMutability": "pure",
			"type": "function"
		},
		{
			"inputs": [
				{
					"internalType": "address",
					"name": "_spender",
					"type": "address"
				},
				{
					"internalType": "uint256",
					"name": "_subtractedValue",
					"type": "uint256"
				}
			],
			"name": "decreaseAllowance",
			"outputs": [
				{
					"internalType": "bool",
					"name": "",
					"type": "bool"
				}
			],
			"stateMutability": "nonpayable",
			"type": "function"
		},
		{
			"inputs": [
				{
					"internalType": "address[]",
					"name": "shareholder",
					"type": "address[]"
				}
			],
			"name": "destroy",
			"outputs": [],
			"stateMutability": "nonpayable",
			"type": "function"
		},
		{
			"inputs": [
				{
					"internalType": "address",
					"name": "_from",
					"type": "address"
				},
				{
					"internalType": "address",
					"name": "_to",
					"type": "address"
				},
				{
					"internalType": "uint256",
					"name": "_value",
					"type": "uint256"
				}
			],
			"name": "detectTransferRestriction",
			"outputs": [
				{
					"internalType": "uint8",
					"name": "",
					"type": "uint8"
				}
			],
			"stateMutability": "view",
			"type": "function"
		},
		{
			"inputs": [],
			"name": "distributionClaimDeposit",
			"outputs": [
				{
					"internalType": "bool",
					"name": "",
					"type": "bool"
				}
			],
			"stateMutability": "nonpayable",
			"type": "function"
		},
		{
			"inputs": [
				{
					"internalType": "uint256",
					"name": "amount",
					"type": "uint256"
				}
			],
			"name": "distributionCreateParameters",
			"outputs": [],
			"stateMutability": "nonpayable",
			"type": "function"
		},
		{
			"inputs": [
				{
					"internalType": "address",
					"name": "shareholder",
					"type": "address"
				},
				{
					"internalType": "uint256",
					"name": "amount",
					"type": "uint256"
				}
			],
			"name": "distributionSetDeposit",
			"outputs": [],
			"stateMutability": "nonpayable",
			"type": "function"
		},
		{
			"inputs": [
				{
					"internalType": "address[]",
					"name": "_flaggedShareholders",
					"type": "address[]"
				}
			],
			"name": "distributionSetEligibility",
			"outputs": [],
			"stateMutability": "nonpayable",
			"type": "function"
		},
		{
			"inputs": [],
			"name": "dividend",
			"outputs": [
				{
					"internalType": "uint256",
					"name": "",
					"type": "uint256"
				}
			],
			"stateMutability": "view",
			"type": "function"
		},
		{
			"inputs": [],
			"name": "getContactInformation",
			"outputs": [
				{
					"internalType": "string",
					"name": "",
					"type": "string"
				},
				{
					"internalType": "string",
					"name": "",
					"type": "string"
				}
			],
			"stateMutability": "view",
			"type": "function"
		},
		{
			"inputs": [],
			"name": "getNextSnapshots",
			"outputs": [
				{
					"internalType": "uint256[]",
					"name": "",
					"type": "uint256[]"
				}
			],
			"stateMutability": "view",
			"type": "function"
		},
		{
			"inputs": [
				{
					"internalType": "address",
					"name": "acc",
					"type": "address"
				}
			],
			"name": "grantOperatorRole",
			"outputs": [],
			"stateMutability": "nonpayable",
			"type": "function"
		},
		{
			"inputs": [
				{
					"internalType": "address",
					"name": "acc",
					"type": "address"
				}
			],
			"name": "grantPauserRole",
			"outputs": [],
			"stateMutability": "nonpayable",
			"type": "function"
		},
		{
			"inputs": [
				{
					"internalType": "address",
					"name": "acc",
					"type": "address"
				}
			],
			"name": "grantSnapshotRole",
			"outputs": [],
			"stateMutability": "nonpayable",
			"type": "function"
		},
		{
			"inputs": [],
			"name": "hasOperatorRole",
			"outputs": [
				{
					"internalType": "address",
					"name": "",
					"type": "address"
				}
			],
			"stateMutability": "view",
			"type": "function"
		},
		{
			"inputs": [],
			"name": "hasPauserRole",
			"outputs": [
				{
					"internalType": "address",
					"name": "",
					"type": "address"
				}
			],
			"stateMutability": "view",
			"type": "function"
		},
		{
			"inputs": [],
			"name": "hasSnapshotRole",
			"outputs": [
				{
					"internalType": "address",
					"name": "",
					"type": "address"
				}
			],
			"stateMutability": "view",
			"type": "function"
		},
		{
			"inputs": [
				{
					"internalType": "address[]",
					"name": "shareholder",
					"type": "address[]"
				}
			],
			"name": "identity",
			"outputs": [
				{
					"internalType": "bytes8[]",
					"name": "",
					"type": "bytes8[]"
				}
			],
			"stateMutability": "view",
			"type": "function"
		},
		{
			"inputs": [
				{
					"internalType": "address",
					"name": "_spender",
					"type": "address"
				},
				{
					"internalType": "uint256",
					"name": "_addedValue",
					"type": "uint256"
				}
			],
			"name": "increaseAllowance",
			"outputs": [
				{
					"internalType": "bool",
					"name": "",
					"type": "bool"
				}
			],
			"stateMutability": "nonpayable",
			"type": "function"
		},
		{
			"inputs": [
				{
					"internalType": "uint256",
					"name": "_value",
					"type": "uint256"
				}
			],
			"name": "issue",
			"outputs": [],
			"stateMutability": "nonpayable",
			"type": "function"
		},
		{
			"inputs": [
				{
					"internalType": "uint8",
					"name": "_restrictionCode",
					"type": "uint8"
				}
			],
			"name": "messageForTransferRestriction",
			"outputs": [
				{
					"internalType": "string",
					"name": "",
					"type": "string"
				}
			],
			"stateMutability": "view",
			"type": "function"
		},
		{
			"inputs": [],
			"name": "name",
			"outputs": [
				{
					"internalType": "string",
					"name": "",
					"type": "string"
				}
			],
			"stateMutability": "view",
			"type": "function"
		},
		{
			"inputs": [],
			"name": "owner",
			"outputs": [
				{
					"internalType": "address",
					"name": "",
					"type": "address"
				}
			],
			"stateMutability": "view",
			"type": "function"
		},
		{
			"inputs": [],
			"name": "pause",
			"outputs": [],
			"stateMutability": "nonpayable",
			"type": "function"
		},
		{
			"inputs": [],
			"name": "paused",
			"outputs": [
				{
					"internalType": "bool",
					"name": "",
					"type": "bool"
				}
			],
			"stateMutability": "view",
			"type": "function"
		},
		{
			"inputs": [],
			"name": "paymentToken",
			"outputs": [
				{
					"internalType": "contract OCF",
					"name": "",
					"type": "address"
				}
			],
			"stateMutability": "view",
			"type": "function"
		},
		{
			"inputs": [],
			"name": "prospectus",
			"outputs": [
				{
					"internalType": "string",
					"name": "referenceToTerms",
					"type": "string"
				},
				{
					"internalType": "string",
					"name": "contact",
					"type": "string"
				}
			],
			"stateMutability": "view",
			"type": "function"
		},
		{
			"inputs": [
				{
					"internalType": "address",
					"name": "original",
					"type": "address"
				},
				{
					"internalType": "address",
					"name": "replacement",
					"type": "address"
				}
			],
			"name": "reassign",
			"outputs": [],
			"stateMutability": "nonpayable",
			"type": "function"
		},
		{
			"inputs": [
				{
					"internalType": "uint256",
					"name": "_value",
					"type": "uint256"
				}
			],
			"name": "redeem",
			"outputs": [],
			"stateMutability": "nonpayable",
			"type": "function"
		},
		{
			"inputs": [],
			"name": "renounceOwnership",
			"outputs": [],
			"stateMutability": "nonpayable",
			"type": "function"
		},
		{
			"inputs": [
				{
					"internalType": "uint256",
					"name": "oldTime",
					"type": "uint256"
				},
				{
					"internalType": "uint256",
					"name": "newTime",
					"type": "uint256"
				}
			],
			"name": "rescheduleSnapshot",
			"outputs": [
				{
					"internalType": "uint256",
					"name": "",
					"type": "uint256"
				}
			],
			"stateMutability": "nonpayable",
			"type": "function"
		},
		{
			"inputs": [],
			"name": "revokePauserRole",
			"outputs": [],
			"stateMutability": "nonpayable",
			"type": "function"
		},
		{
			"inputs": [],
			"name": "revokeSnapshotRole",
			"outputs": [],
			"stateMutability": "nonpayable",
			"type": "function"
		},
		{
			"inputs": [],
			"name": "ruleEngine",
			"outputs": [
				{
					"internalType": "contract IRuleEngine",
					"name": "",
					"type": "address"
				}
			],
			"stateMutability": "view",
			"type": "function"
		},
		{
			"inputs": [
				{
					"internalType": "uint256",
					"name": "time",
					"type": "uint256"
				}
			],
			"name": "scheduleSnapshot",
			"outputs": [],
			"stateMutability": "nonpayable",
			"type": "function"
		},
		{
			"inputs": [
				{
					"internalType": "string",
					"name": "ref",
					"type": "string"
				},
				{
					"internalType": "string",
					"name": "contact",
					"type": "string"
				}
			],
			"name": "setContactInformation",
			"outputs": [],
			"stateMutability": "nonpayable",
			"type": "function"
		},
		{
			"inputs": [
				{
					"internalType": "address",
					"name": "shareholder",
					"type": "address"
				},
				{
					"internalType": "bytes8",
					"name": "_ident",
					"type": "bytes8"
				}
			],
			"name": "setIdentity",
			"outputs": [],
			"stateMutability": "nonpayable",
			"type": "function"
		},
		{
			"inputs": [
				{
					"internalType": "contract IRuleEngine",
					"name": "_ruleEngine",
					"type": "address"
				}
			],
			"name": "setRuleEngine",
			"outputs": [],
			"stateMutability": "nonpayable",
			"type": "function"
		},
		{
			"inputs": [
				{
					"internalType": "uint256",
					"name": "",
					"type": "uint256"
				}
			],
			"name": "shareholders",
			"outputs": [
				{
					"internalType": "address",
					"name": "",
					"type": "address"
				}
			],
			"stateMutability": "view",
			"type": "function"
		},
		{
			"inputs": [],
			"name": "showMyIdentity",
			"outputs": [
				{
					"internalType": "bytes8",
					"name": "",
					"type": "bytes8"
				}
			],
			"stateMutability": "view",
			"type": "function"
		},
		{
			"inputs": [],
			"name": "showPastScheduledSnapshots",
			"outputs": [
				{
					"internalType": "uint256[]",
					"name": "",
					"type": "uint256[]"
				}
			],
			"stateMutability": "view",
			"type": "function"
		},
		{
			"inputs": [
				{
					"internalType": "uint256",
					"name": "time",
					"type": "uint256"
				},
				{
					"internalType": "address",
					"name": "owner",
					"type": "address"
				}
			],
			"name": "snapshotBalanceOf",
			"outputs": [
				{
					"internalType": "uint256",
					"name": "",
					"type": "uint256"
				}
			],
			"stateMutability": "view",
			"type": "function"
		},
		{
			"inputs": [
				{
					"internalType": "uint256",
					"name": "time",
					"type": "uint256"
				}
			],
			"name": "snapshotTotalSupply",
			"outputs": [
				{
					"internalType": "uint256",
					"name": "",
					"type": "uint256"
				}
			],
			"stateMutability": "view",
			"type": "function"
		},
		{
			"inputs": [],
			"name": "symbol",
			"outputs": [
				{
					"internalType": "string",
					"name": "",
					"type": "string"
				}
			],
			"stateMutability": "view",
			"type": "function"
		},
		{
			"inputs": [
				{
					"internalType": "address",
					"name": "from",
					"type": "address"
				},
				{
					"internalType": "uint256",
					"name": "value",
					"type": "uint256"
				},
				{
					"internalType": "bytes",
					"name": "",
					"type": "bytes"
				}
			],
			"name": "tokenFallback",
			"outputs": [],
			"stateMutability": "nonpayable",
			"type": "function"
		},
		{
			"inputs": [],
			"name": "totalSupply",
			"outputs": [
				{
					"internalType": "uint256",
					"name": "",
					"type": "uint256"
				}
			],
			"stateMutability": "view",
			"type": "function"
		},
		{
			"inputs": [
				{
					"internalType": "address",
					"name": "_to",
					"type": "address"
				},
				{
					"internalType": "uint256",
					"name": "_value",
					"type": "uint256"
				}
			],
			"name": "transfer",
			"outputs": [
				{
					"internalType": "bool",
					"name": "",
					"type": "bool"
				}
			],
			"stateMutability": "nonpayable",
			"type": "function"
		},
		{
			"inputs": [
				{
					"internalType": "address",
					"name": "_from",
					"type": "address"
				},
				{
					"internalType": "address",
					"name": "_to",
					"type": "address"
				},
				{
					"internalType": "uint256",
					"name": "_value",
					"type": "uint256"
				}
			],
			"name": "transferFrom",
			"outputs": [
				{
					"internalType": "bool",
					"name": "",
					"type": "bool"
				}
			],
			"stateMutability": "nonpayable",
			"type": "function"
		},
		{
			"inputs": [
				{
					"internalType": "address",
					"name": "newOwner",
					"type": "address"
				}
			],
			"name": "transferOwnership",
			"outputs": [],
			"stateMutability": "nonpayable",
			"type": "function"
		},
		{
			"inputs": [],
			"name": "unpause",
			"outputs": [],
			"stateMutability": "nonpayable",
			"type": "function"
		},
		{
			"inputs": [
				{
					"internalType": "uint256",
					"name": "time",
					"type": "uint256"
				}
			],
			"name": "unscheduleSnapshot",
			"outputs": [
				{
					"internalType": "uint256",
					"name": "",
					"type": "uint256"
				}
			],
			"stateMutability": "nonpayable",
			"type": "function"
		},
		{
			"inputs": [
				{
					"internalType": "uint8[]",
					"name": "code",
					"type": "uint8[]"
				},
				{
					"internalType": "string[]",
					"name": "text",
					"type": "string[]"
				}
			],
			"name": "updateRestrictionCodes",
			"outputs": [],
			"stateMutability": "nonpayable",
			"type": "function"
		}
	]
}