{
	"data": {
		"bytecode": {
			"linkReferences": {},
			"object": "608060405260006008553480156200001657600080fd5b5060405162006f1638038062006f1683398181016040528101906200003c9190620004da565b8383816003908051906020019062000056929190620003ac565b5080600490805190602001906200006f929190620003ac565b5050506200009262000086620002de60201b60201c565b620002e660201b60201c565b6040518060400160405280600f81526020017f5472616e73666572204661696c65640000000000000000000000000000000000815250603e6000605060ff1681526020019081526020016000209080519060200190620000f4929190620003ac565b506040518060400160405280601381526020017f5472616e73666572207375636365737366756c00000000000000000000000000815250603e6000605160ff168152602001908152602001600020908051906020019062000157929190620003ac565b506040518060400160405280601281526020017f496e73756666696369656e742046756e64730000000000000000000000000000815250603e6000605460ff1681526020019081526020016000209080519060200190620001ba929190620003ac565b506040518060400160405280600881526020017f4e6f2046756e6473000000000000000000000000000000000000000000000000815250603e6000605960ff16815260200190815260200160002090805190602001906200021d929190620003ac565b506040518060400160405280600f81526020017f5472616e73666572205061757365640000000000000000000000000000000000815250603e6000604260ff168152602001908152602001600020908051906020019062000280929190620003ac565b506000603f60006101000a81548160ff0219169083151502179055508160466000019080519060200190620002b7929190620003ac565b508060466001019080519060200190620002d3929190620003ac565b50505050506200074c565b600033905090565b6000603d60009054906101000a900473ffffffffffffffffffffffffffffffffffffffff16905081603d60006101000a81548173ffffffffffffffffffffffffffffffffffffffff021916908373ffffffffffffffffffffffffffffffffffffffff1602179055508173ffffffffffffffffffffffffffffffffffffffff168173ffffffffffffffffffffffffffffffffffffffff167f8be0079c531659141344cd1fd0a4f28419497f9722a3daafe3b4186f6b6457e060405160405180910390a35050565b828054620003ba906200065d565b90600052602060002090601f016020900481019282620003de57600085556200042a565b82601f10620003f957805160ff19168380011785556200042a565b828001600101855582156200042a579182015b82811115620004295782518255916020019190600101906200040c565b5b5090506200043991906200043d565b5090565b5b80821115620004585760008160009055506001016200043e565b5090565b6000620004736200046d84620005f1565b620005c8565b9050828152602081018484840111156200049257620004916200072c565b5b6200049f84828562000627565b509392505050565b600082601f830112620004bf57620004be62000727565b5b8151620004d18482602086016200045c565b91505092915050565b60008060008060808587031215620004f757620004f662000736565b5b600085015167ffffffffffffffff81111562000518576200051762000731565b5b6200052687828801620004a7565b945050602085015167ffffffffffffffff8111156200054a576200054962000731565b5b6200055887828801620004a7565b935050604085015167ffffffffffffffff8111156200057c576200057b62000731565b5b6200058a87828801620004a7565b925050606085015167ffffffffffffffff811115620005ae57620005ad62000731565b5b620005bc87828801620004a7565b91505092959194509250565b6000620005d4620005e7565b9050620005e2828262000693565b919050565b6000604051905090565b600067ffffffffffffffff8211156200060f576200060e620006f8565b5b6200061a826200073b565b9050602081019050919050565b60005b83811015620006475780820151818401526020810190506200062a565b8381111562000657576000848401525b50505050565b600060028204905060018216806200067657607f821691505b602082108114156200068d576200068c620006c9565b5b50919050565b6200069e826200073b565b810181811067ffffffffffffffff82111715620006c057620006bf620006f8565b5b80604052505050565b7f4e487b7100000000000000000000000000000000000000000000000000000000600052602260045260246000fd5b7f4e487b7100000000000000000000000000000000000000000000000000000000600052604160045260246000fd5b600080fd5b600080fd5b600080fd5b600080fd5b6000601f19601f8301169050919050565b6167ba806200075c6000396000f3fe608060405234801561001057600080fd5b50600436106102bb5760003560e01c80638456cb5911610182578063cc872b66116100e9578063db006a75116100a2578063e46638e61161007c578063e46638e6146108c0578063f2fde38b146108f0578063fb78ed401461090c578063fcf196b41461092a576102bb565b8063db006a7514610844578063dd62ed3e14610860578063e20c35e514610890576102bb565b8063cc872b661461076d578063cff688f314610789578063d21268ef146107a8578063d4ce1415146107d8578063d635d66e14610808578063d6a3f37414610826576102bb565b8063a457c2d71161013b578063a457c2d714610689578063a4a0a301146106b9578063a9059cbb146106d5578063ab377daa14610705578063c0ee0b8a14610735578063c6786e5a14610751576102bb565b80638456cb59146105ed57806388d695b2146105f75780638da5cb5b1461061357806395d89b41146106315780639fcaff501461064f578063a312e1551461066d576102bb565b806343b466a711610226578063634daf76116101df578063634daf761461051b5780636f2dd8f61461054b57806370a082311461056757806370ea07b814610597578063715018a6146105b35780637f4ab1dd146105bd576102bb565b806343b466a714610458578063570ca735146104745780635c975abb146104925780635dc952f3146104b05780635ee7a942146104cf5780635fff8cd3146104ff576102bb565b80632515994e116102785780632515994e146103965780632613169c146103b25780633013ce29146103e2578063313ce56714610400578063395093511461041e5780633f4ba83a1461044e576102bb565b806306fdde03146102c0578063095ea7b3146102de57806310b3b1591461030e57806318160ddd1461032a57806323b872dd14610348578063246b72ec14610378575b600080fd5b6102c8610948565b6040516102d59190615751565b60405180910390f35b6102f860048036038101906102f39190614c58565b6109da565b60405161030591906156ca565b60405180910390f35b61032860048036038101906103239190614b58565b6109f6565b005b610332610a42565b60405161033f9190615aca565b60405180910390f35b610362600480360381019061035d9190614bc5565b610a4c565b60405161036f91906156ca565b60405180910390f35b610380610d61565b60405161038d9190615700565b60405180910390f35b6103b060048036038101906103ab9190614f30565b610d85565b005b6103cc60048036038101906103c79190614d54565b610f27565b6040516103d99190615686565b60405180910390f35b6103ea610f41565b6040516103f79190615736565b60405180910390f35b610408610f67565b6040516104159190615ae5565b60405180910390f35b61043860048036038101906104339190614c58565b610f6c565b60405161044591906156ca565b60405180910390f35b610456610f88565b005b610472600480360381019061046d9190614c18565b610f9a565b005b61047c61100d565b60405161048991906155e9565b60405180910390f35b61049a611033565b6040516104a791906156ca565b60405180910390f35b6104b861104a565b6040516104c6929190615773565b60405180910390f35b6104e960048036038101906104e49190614f30565b611177565b6040516104f69190615aca565b60405180910390f35b61051960048036038101906105149190614b85565b6111a8565b005b61053560048036038101906105309190614f5d565b6116df565b6040516105429190615aca565b60405180910390f35b61056560048036038101906105609190614fdd565b61174f565b005b610581600480360381019061057c9190614b2b565b611775565b60405161058e9190615aca565b60405180910390f35b6105b160048036038101906105ac9190614e15565b6117bd565b005b6105bb61188f565b005b6105d760048036038101906105d29190614fdd565b6118a3565b6040516105e49190615751565b60405180910390f35b6105f5611a8e565b005b610611600480360381019061060c9190614d9d565b611aa0565b005b61061b611d88565b60405161062891906155e9565b60405180910390f35b610639611db2565b6040516106469190615751565b60405180910390f35b610657611e44565b60405161066491906156e5565b60405180910390f35b61068760048036038101906106829190614f30565b611e98565b005b6106a3600480360381019061069e9190614c58565b611ead565b6040516106b091906156ca565b60405180910390f35b6106d360048036038101906106ce9190614eba565b611ec9565b005b6106ef60048036038101906106ea9190614c58565b611f58565b6040516106fc91906156ca565b60405180910390f35b61071f600480360381019061071a9190614f30565b61226b565b60405161072c91906155e9565b60405180910390f35b61074f600480360381019061074a9190614c98565b6122aa565b005b61076b60048036038101906107669190614d07565b612472565b005b61078760048036038101906107829190614f30565b6127d3565b005b61079161288c565b60405161079f929190615773565b60405180910390f35b6107c260048036038101906107bd9190614f9d565b6129ae565b6040516107cf9190615aca565b60405180910390f35b6107f260048036038101906107ed9190614bc5565b6129c9565b6040516107ff9190615ae5565b60405180910390f35b610810612af9565b60405161081d91906156a8565b60405180910390f35b61082e612b51565b60405161083b9190615ae5565b60405180910390f35b61085e60048036038101906108599190614f30565b612b64565b005b61087a60048036038101906108759190614b85565b612cc1565b6040516108879190615aca565b60405180910390f35b6108aa60048036038101906108a59190614f30565b612d48565b6040516108b79190615aca565b60405180910390f35b6108da60048036038101906108d59190614bc5565b612d61565b6040516108e791906156ca565b60405180910390f35b61090a60048036038101906109059190614b2b565b612f02565b005b610914612f86565b60405161092191906156a8565b60405180910390f35b610932612fde565b60405161093f919061571b565b60405180910390f35b60606003805461095790615f83565b80601f016020809104026020016040519081016040528092919081815260200182805461098390615f83565b80156109d05780601f106109a5576101008083540402835291602001916109d0565b820191906000526020600020905b8154815290600101906020018083116109b357829003601f168201915b5050505050905090565b60006109e4613004565b6109ee838361304e565b905092915050565b6109fe613071565b80604460006101000a81548173ffffffffffffffffffffffffffffffffffffffff021916908373ffffffffffffffffffffffffffffffffffffffff16021790555050565b6000600254905090565b6000826000604260008373ffffffffffffffffffffffffffffffffffffffff1673ffffffffffffffffffffffffffffffffffffffff16815260200190815260200160002060009054906101000a900460801b6fffffffffffffffffffffffffffffffff19161415610af2576040517f08c379a0000000000000000000000000000000000000000000000000000000008152600401610ae99061596a565b60405180910390fd5b610afa613004565b600073ffffffffffffffffffffffffffffffffffffffff16604360009054906101000a900473ffffffffffffffffffffffffffffffffffffffff1673ffffffffffffffffffffffffffffffffffffffff1614610c3f57604360009054906101000a900473ffffffffffffffffffffffffffffffffffffffff1673ffffffffffffffffffffffffffffffffffffffff1663c6946a128686866040518463ffffffff1660e01b8152600401610baf93929190615604565b60206040518083038186803b158015610bc757600080fd5b505afa158015610bdb573d6000803e3d6000fd5b505050506040513d601f19601f82011682018060405250810190610bff9190614e8d565b610c3e576040517f08c379a0000000000000000000000000000000000000000000000000000000008152600401610c35906157aa565b60405180910390fd5b5b604160008573ffffffffffffffffffffffffffffffffffffffff1673ffffffffffffffffffffffffffffffffffffffff16815260200190815260200160002060009054906101000a900460ff16610d4c576001604160008673ffffffffffffffffffffffffffffffffffffffff1673ffffffffffffffffffffffffffffffffffffffff16815260200190815260200160002060006101000a81548160ff0219169083151502179055506040849080600181540180825580915050600190039060005260206000200160009091909190916101000a81548173ffffffffffffffffffffffffffffffffffffffff021916908373ffffffffffffffffffffffffffffffffffffffff1602179055505b610d578585856130ef565b9150509392505050565b7f809a0fc49fc0600540f1d39e23454e1f6f215bc7505fa22b17c154616570ddef81565b610d8d613071565b6000610d9f610d9a61311e565b611177565b905060005b604080549050811015610f22576000610e02610dbe61311e565b60408481548110610dd257610dd1616105565b5b9060005260206000200160009054906101000a900473ffffffffffffffffffffffffffffffffffffffff166116df565b90506000838286610e139190615d8a565b610e1d9190615d59565b9050604460009054906101000a900473ffffffffffffffffffffffffffffffffffffffff1673ffffffffffffffffffffffffffffffffffffffff1663a9059cbb60408581548110610e7157610e70616105565b5b9060005260206000200160009054906101000a900473ffffffffffffffffffffffffffffffffffffffff16836040518363ffffffff1660e01b8152600401610eba92919061563b565b602060405180830381600087803b158015610ed457600080fd5b505af1158015610ee8573d6000803e3d6000fd5b505050506040513d601f19601f82011682018060405250810190610f0c9190614e8d565b5050508080610f1a90616000565b915050610da4565b505050565b6060610f31613071565b610f3a82613128565b9050919050565b604460009054906101000a900473ffffffffffffffffffffffffffffffffffffffff1681565b600090565b6000610f76613004565b610f80838361324f565b905092915050565b610f90613071565b610f98613286565b565b610fa2613071565b80604260008473ffffffffffffffffffffffffffffffffffffffff1673ffffffffffffffffffffffffffffffffffffffff16815260200190815260200160002060006101000a8154816fffffffffffffffffffffffffffffffff021916908360801c02179055505050565b604560009054906101000a900473ffffffffffffffffffffffffffffffffffffffff1681565b6000603f60009054906101000a900460ff16905090565b6060806046600101604660000181805461106390615f83565b80601f016020809104026020016040519081016040528092919081815260200182805461108f90615f83565b80156110dc5780601f106110b1576101008083540402835291602001916110dc565b820191906000526020600020905b8154815290600101906020018083116110bf57829003601f168201915b505050505091508080546110ef90615f83565b80601f016020809104026020016040519081016040528092919081815260200182805461111b90615f83565b80156111685780601f1061113d57610100808354040283529160200191611168565b820191906000526020600020905b81548152906001019060200180831161114b57829003601f168201915b50505050509050915091509091565b60008060006111878460066132e9565b915091508161119d57611198610a42565b61119f565b805b92505050919050565b6111b0613071565b806000604260008373ffffffffffffffffffffffffffffffffffffffff1673ffffffffffffffffffffffffffffffffffffffff16815260200190815260200160002060009054906101000a900460801b6fffffffffffffffffffffffffffffffff19161415611254576040517f08c379a000000000000000000000000000000000000000000000000000000000815260040161124b9061596a565b60405180910390fd5b61125c613004565b600073ffffffffffffffffffffffffffffffffffffffff168373ffffffffffffffffffffffffffffffffffffffff1614156112cc576040517f08c379a00000000000000000000000000000000000000000000000000000000081526004016112c39061592a565b60405180910390fd5b600073ffffffffffffffffffffffffffffffffffffffff168273ffffffffffffffffffffffffffffffffffffffff16141561133c576040517f08c379a00000000000000000000000000000000000000000000000000000000081526004016113339061592a565b60405180910390fd5b8173ffffffffffffffffffffffffffffffffffffffff168373ffffffffffffffffffffffffffffffffffffffff1614156113ab576040517f08c379a00000000000000000000000000000000000000000000000000000000081526004016113a2906158ca565b60405180910390fd5b60008060008573ffffffffffffffffffffffffffffffffffffffff1673ffffffffffffffffffffffffffffffffffffffff1681526020019081526020016000205490506000811415611432576040517f08c379a00000000000000000000000000000000000000000000000000000000081526004016114299061594a565b60405180910390fd5b806000808573ffffffffffffffffffffffffffffffffffffffff1673ffffffffffffffffffffffffffffffffffffffff1681526020019081526020016000205461147c9190615d03565b6000808573ffffffffffffffffffffffffffffffffffffffff1673ffffffffffffffffffffffffffffffffffffffff1681526020019081526020016000208190555060008060008673ffffffffffffffffffffffffffffffffffffffff1673ffffffffffffffffffffffffffffffffffffffff16815260200190815260200160002081905550604160008473ffffffffffffffffffffffffffffffffffffffff1673ffffffffffffffffffffffffffffffffffffffff16815260200190815260200160002060009054906101000a900460ff1661160f576001604160008573ffffffffffffffffffffffffffffffffffffffff1673ffffffffffffffffffffffffffffffffffffffff16815260200190815260200160002060006101000a81548160ff0219169083151502179055506040839080600181540180825580915050600190039060005260206000200160009091909190916101000a81548173ffffffffffffffffffffffffffffffffffffffff021916908373ffffffffffffffffffffffffffffffffffffffff1602179055505b8273ffffffffffffffffffffffffffffffffffffffff168473ffffffffffffffffffffffffffffffffffffffff167fddf252ad1be2c89b69c2b068fc378daa952ba7f163c4a11628f55a4df523b3ef8360405161166c9190615aca565b60405180910390a38273ffffffffffffffffffffffffffffffffffffffff168473ffffffffffffffffffffffffffffffffffffffff167f9b50bb42c2f723a111ed2b4a02d7963b78fcef409123755e32db36acf004c721836040516116d19190615aca565b60405180910390a350505050565b600080600061172c85600560008773ffffffffffffffffffffffffffffffffffffffff1673ffffffffffffffffffffffffffffffffffffffff1681526020019081526020016000206132e9565b91509150816117435761173e84611775565b611745565b805b9250505092915050565b611757613071565b80604360146101000a81548160ff021916908360ff16021790555050565b60008060008373ffffffffffffffffffffffffffffffffffffffff1673ffffffffffffffffffffffffffffffffffffffff168152602001908152602001600020549050919050565b6117c5613071565b8051825114611809576040517f08c379a00000000000000000000000000000000000000000000000000000000081526004016118009061580a565b60405180910390fd5b60005b825181101561188a5781818151811061182857611827616105565b5b6020026020010151603e600085848151811061184757611846616105565b5b602002602001015160ff1660ff16815260200190815260200160002090805190602001906118769291906145a4565b50808061188290616000565b91505061180c565b505050565b611897613071565b6118a16000613352565b565b60606000603e60008460ff1660ff16815260200190815260200160002080546118cb90615f83565b90501461197b57603e60008360ff1660ff16815260200190815260200160002080546118f690615f83565b80601f016020809104026020016040519081016040528092919081815260200182805461192290615f83565b801561196f5780601f106119445761010080835404028352916020019161196f565b820191906000526020600020905b81548152906001019060200180831161195257829003601f168201915b50505050509050611a89565b600073ffffffffffffffffffffffffffffffffffffffff16604360009054906101000a900473ffffffffffffffffffffffffffffffffffffffff1673ffffffffffffffffffffffffffffffffffffffff1614611a8857604360009054906101000a900473ffffffffffffffffffffffffffffffffffffffff1673ffffffffffffffffffffffffffffffffffffffff16637f4ab1dd836040518263ffffffff1660e01b8152600401611a2c9190615ae5565b60006040518083038186803b158015611a4457600080fd5b505afa158015611a58573d6000803e3d6000fd5b505050506040513d6000823e3d601f19601f82011682018060405250810190611a819190614ee7565b9050611a89565b5b919050565b611a96613071565b611a9e613418565b565b611aa8613004565b8051825114611aec576040517f08c379a0000000000000000000000000000000000000000000000000000000008152600401611ae3906159ca565b60405180910390fd5b60005b8251811015611d8357600060801b60426000858481518110611b1457611b13616105565b5b602002602001015173ffffffffffffffffffffffffffffffffffffffff1673ffffffffffffffffffffffffffffffffffffffff16815260200190815260200160002060009054906101000a900460801b6fffffffffffffffffffffffffffffffff19161415611bb8576040517f08c379a0000000000000000000000000000000000000000000000000000000008152600401611baf9061590a565b60405180910390fd5b600073ffffffffffffffffffffffffffffffffffffffff16604360009054906101000a900473ffffffffffffffffffffffffffffffffffffffff1673ffffffffffffffffffffffffffffffffffffffff1614611d7057604360009054906101000a900473ffffffffffffffffffffffffffffffffffffffff1673ffffffffffffffffffffffffffffffffffffffff1663c6946a1233858481518110611c6057611c5f616105565b5b6020026020010151858581518110611c7b57611c7a616105565b5b60200260200101516040518463ffffffff1660e01b8152600401611ca193929190615604565b60206040518083038186803b158015611cb957600080fd5b505afa158015611ccd573d6000803e3d6000fd5b505050506040513d601f19601f82011682018060405250810190611cf19190614e8d565b611d30576040517f08c379a0000000000000000000000000000000000000000000000000000000008152600401611d27906157aa565b60405180910390fd5b611d6e838281518110611d4657611d45616105565b5b6020026020010151838381518110611d6157611d60616105565b5b602002602001015161347b565b505b8080611d7b90616000565b915050611aef565b505050565b6000603d60009054906101000a900473ffffffffffffffffffffffffffffffffffffffff16905090565b606060048054611dc190615f83565b80601f0160208091040260200160405190810160405280929190818152602001828054611ded90615f83565b8015611e3a5780601f10611e0f57610100808354040283529160200191611e3a565b820191906000526020600020905b815481529060010190602001808311611e1d57829003601f168201915b5050505050905090565b6000604260003373ffffffffffffffffffffffffffffffffffffffff1673ffffffffffffffffffffffffffffffffffffffff16815260200190815260200160002060009054906101000a900460801b905090565b611ea0613071565b611ea98161349e565b5050565b6000611eb7613004565b611ec18383613592565b905092915050565b611ed1613071565b80604360006101000a81548173ffffffffffffffffffffffffffffffffffffffff021916908373ffffffffffffffffffffffffffffffffffffffff1602179055508073ffffffffffffffffffffffffffffffffffffffff167fc821fee57f621fad293a6960b94de2653a70bcc62506ea4f85149777b45901fe60405160405180910390a250565b6000826000604260008373ffffffffffffffffffffffffffffffffffffffff1673ffffffffffffffffffffffffffffffffffffffff16815260200190815260200160002060009054906101000a900460801b6fffffffffffffffffffffffffffffffff19161415611ffe576040517f08c379a0000000000000000000000000000000000000000000000000000000008152600401611ff59061596a565b60405180910390fd5b612006613004565b600073ffffffffffffffffffffffffffffffffffffffff16604360009054906101000a900473ffffffffffffffffffffffffffffffffffffffff1673ffffffffffffffffffffffffffffffffffffffff161461214b57604360009054906101000a900473ffffffffffffffffffffffffffffffffffffffff1673ffffffffffffffffffffffffffffffffffffffff1663c6946a123386866040518463ffffffff1660e01b81526004016120bb93929190615604565b60206040518083038186803b1580156120d357600080fd5b505afa1580156120e7573d6000803e3d6000fd5b505050506040513d601f19601f8201168201806040525081019061210b9190614e8d565b61214a576040517f08c379a0000000000000000000000000000000000000000000000000000000008152600401612141906157aa565b60405180910390fd5b5b604160008573ffffffffffffffffffffffffffffffffffffffff1673ffffffffffffffffffffffffffffffffffffffff16815260200190815260200160002060009054906101000a900460ff16612258576001604160008673ffffffffffffffffffffffffffffffffffffffff1673ffffffffffffffffffffffffffffffffffffffff16815260200190815260200160002060006101000a81548160ff0219169083151502179055506040849080600181540180825580915050600190039060005260206000200160009091909190916101000a81548173ffffffffffffffffffffffffffffffffffffffff021916908373ffffffffffffffffffffffffffffffffffffffff1602179055505b612262848461347b565b91505092915050565b6040818154811061227b57600080fd5b906000526020600020016000915054906101000a900473ffffffffffffffffffffffffffffffffffffffff1681565b826000604260008373ffffffffffffffffffffffffffffffffffffffff1673ffffffffffffffffffffffffffffffffffffffff16815260200190815260200160002060009054906101000a900460801b6fffffffffffffffffffffffffffffffff1916141561234e576040517f08c379a00000000000000000000000000000000000000000000000000000000081526004016123459061596a565b60405180910390fd5b604460009054906101000a900473ffffffffffffffffffffffffffffffffffffffff1673ffffffffffffffffffffffffffffffffffffffff163373ffffffffffffffffffffffffffffffffffffffff16146123d5576040517fa6c1ff4800000000000000000000000000000000000000000000000000000000815260040160405180910390fd5b604560009054906101000a900473ffffffffffffffffffffffffffffffffffffffff1673ffffffffffffffffffffffffffffffffffffffff168473ffffffffffffffffffffffffffffffffffffffff161461246c576124348484613609565b7f5aa5d4dbb3bdc35fe42446ba12fc59cdd56ee008d5a8159ba5e5fb5834734f62836040516124639190615aca565b60405180910390a15b50505050565b61247a613071565b60005b8282905081101561279757612490611d88565b73ffffffffffffffffffffffffffffffffffffffff16604082815481106124ba576124b9616105565b5b9060005260206000200160009054906101000a900473ffffffffffffffffffffffffffffffffffffffff1673ffffffffffffffffffffffffffffffffffffffff16141561253c576040517f08c379a000000000000000000000000000000000000000000000000000000000815260040161253390615a6a565b60405180910390fd5b60008060006040848154811061255557612554616105565b5b9060005260206000200160009054906101000a900473ffffffffffffffffffffffffffffffffffffffff1673ffffffffffffffffffffffffffffffffffffffff1673ffffffffffffffffffffffffffffffffffffffff168152602001908152602001600020549050806000806125c9611d88565b73ffffffffffffffffffffffffffffffffffffffff1673ffffffffffffffffffffffffffffffffffffffff1681526020019081526020016000205461260e9190615d03565b600080612619611d88565b73ffffffffffffffffffffffffffffffffffffffff1673ffffffffffffffffffffffffffffffffffffffff168152602001908152602001600020819055506000806000604085815481106126705761266f616105565b5b9060005260206000200160009054906101000a900473ffffffffffffffffffffffffffffffffffffffff1673ffffffffffffffffffffffffffffffffffffffff1673ffffffffffffffffffffffffffffffffffffffff168152602001908152602001600020819055506126e1611d88565b73ffffffffffffffffffffffffffffffffffffffff166040838154811061270b5761270a616105565b5b9060005260206000200160009054906101000a900473ffffffffffffffffffffffffffffffffffffffff1673ffffffffffffffffffffffffffffffffffffffff167fddf252ad1be2c89b69c2b068fc378daa952ba7f163c4a11628f55a4df523b3ef8360405161277b9190615aca565b60405180910390a350808061278f90616000565b91505061247d565b507fef8a7d1d9ed56b75ba2d074c0443d09a07e60674f3f6d4e992e9bda38efe5880604080516127c79190615664565b60405180910390a15050565b6127db613071565b6127e53382613773565b6127ed611d88565b73ffffffffffffffffffffffffffffffffffffffff16600073ffffffffffffffffffffffffffffffffffffffff167fddf252ad1be2c89b69c2b068fc378daa952ba7f163c4a11628f55a4df523b3ef8360405161284a9190615aca565b60405180910390a37f5aa5d4dbb3bdc35fe42446ba12fc59cdd56ee008d5a8159ba5e5fb5834734f62816040516128819190615aca565b60405180910390a150565b604680600001805461289d90615f83565b80601f01602080910402602001604051908101604052809291908181526020018280546128c990615f83565b80156129165780601f106128eb57610100808354040283529160200191612916565b820191906000526020600020905b8154815290600101906020018083116128f957829003601f168201915b50505050509080600101805461292b90615f83565b80601f016020809104026020016040519081016040528092919081815260200182805461295790615f83565b80156129a45780601f10612979576101008083540402835291602001916129a4565b820191906000526020600020905b81548152906001019060200180831161298757829003601f168201915b5050505050905082565b60006129b8613071565b6129c283836138ca565b5092915050565b60006129d3611033565b156129e15760429050612af2565b600073ffffffffffffffffffffffffffffffffffffffff16604360009054906101000a900473ffffffffffffffffffffffffffffffffffffffff1673ffffffffffffffffffffffffffffffffffffffff1614612aed57604360009054906101000a900473ffffffffffffffffffffffffffffffffffffffff1673ffffffffffffffffffffffffffffffffffffffff1663d4ce14158585856040518463ffffffff1660e01b8152600401612a9693929190615604565b60206040518083038186803b158015612aae57600080fd5b505afa158015612ac2573d6000803e3d6000fd5b505050506040513d601f19601f82011682018060405250810190612ae6919061500a565b9050612af2565b605190505b9392505050565b6060600a805480602002602001604051908101604052809291908181526020018280548015612b4757602002820191906000526020600020905b815481526020019060010190808311612b33575b5050505050905090565b604360149054906101000a900460ff1681565b612b6c613071565b80600080612b78611d88565b73ffffffffffffffffffffffffffffffffffffffff1673ffffffffffffffffffffffffffffffffffffffff16815260200190815260200160002054612bbd9190615de4565b600080612bc8611d88565b73ffffffffffffffffffffffffffffffffffffffff1673ffffffffffffffffffffffffffffffffffffffff1681526020019081526020016000208190555080600254612c149190615de4565b600281905550600073ffffffffffffffffffffffffffffffffffffffff16612c3a611d88565b73ffffffffffffffffffffffffffffffffffffffff167fddf252ad1be2c89b69c2b068fc378daa952ba7f163c4a11628f55a4df523b3ef83604051612c7f9190615aca565b60405180910390a37fe3dd692f7e5c129a26d85142bf6118f2ecf7722a79a4507ac05ad7bb7aaab15281604051612cb69190615aca565b60405180910390a150565b6000600160008473ffffffffffffffffffffffffffffffffffffffff1673ffffffffffffffffffffffffffffffffffffffff16815260200190815260200160002060008373ffffffffffffffffffffffffffffffffffffffff1673ffffffffffffffffffffffffffffffffffffffff16815260200190815260200160002054905092915050565b6000612d52613071565b612d5b82613a4c565b50919050565b6000612d6b611033565b15612d795760009050612efb565b6000604260008573ffffffffffffffffffffffffffffffffffffffff1673ffffffffffffffffffffffffffffffffffffffff16815260200190815260200160002060009054906101000a900460801b6fffffffffffffffffffffffffffffffff19161415612dea5760009050612efb565b600073ffffffffffffffffffffffffffffffffffffffff16604360009054906101000a900473ffffffffffffffffffffffffffffffffffffffff1673ffffffffffffffffffffffffffffffffffffffff1614612ef657604360009054906101000a900473ffffffffffffffffffffffffffffffffffffffff1673ffffffffffffffffffffffffffffffffffffffff1663c6946a128585856040518463ffffffff1660e01b8152600401612e9f93929190615604565b60206040518083038186803b158015612eb757600080fd5b505afa158015612ecb573d6000803e3d6000fd5b505050506040513d601f19601f82011682018060405250810190612eef9190614e8d565b9050612efb565b600190505b9392505050565b612f0a613071565b600073ffffffffffffffffffffffffffffffffffffffff168173ffffffffffffffffffffffffffffffffffffffff161415612f7a576040517f08c379a0000000000000000000000000000000000000000000000000000000008152600401612f719061582a565b60405180910390fd5b612f8381613352565b50565b60606009805480602002602001604051908101604052809291908181526020018280548015612fd457602002820191906000526020600020905b815481526020019060010190808311612fc0575b5050505050905090565b604360009054906101000a900473ffffffffffffffffffffffffffffffffffffffff1681565b61300c611033565b1561304c576040517f08c379a00000000000000000000000000000000000000000000000000000000081526004016130439061588a565b60405180910390fd5b565b600080613059613b20565b9050613066818585613b28565b600191505092915050565b613079613b20565b73ffffffffffffffffffffffffffffffffffffffff16613097611d88565b73ffffffffffffffffffffffffffffffffffffffff16146130ed576040517f08c379a00000000000000000000000000000000000000000000000000000000081526004016130e49061598a565b60405180910390fd5b565b6000806130fa613b20565b9050613107858285613cf3565b613112858585613d7f565b60019150509392505050565b6000600854905090565b60606000825167ffffffffffffffff81111561314757613146616134565b5b6040519080825280602002602001820160405280156131755781602001602082028036833780820191505090505b50905060005b8351811015613245576042600085838151811061319b5761319a616105565b5b602002602001015173ffffffffffffffffffffffffffffffffffffffff1673ffffffffffffffffffffffffffffffffffffffff16815260200190815260200160002060009054906101000a900460801b8282815181106131fe576131fd616105565b5b60200260200101906fffffffffffffffffffffffffffffffff191690816fffffffffffffffffffffffffffffffff191681525050808061323d90616000565b91505061317b565b5080915050919050565b60008061325a613b20565b905061327b81858561326c8589612cc1565b6132769190615d03565b613b28565b600191505092915050565b61328e613ff7565b6000603f60006101000a81548160ff0219169083151502179055507f5db9ee0a495bf2e6ff9c91a7834c1ba4fdd244a5e8aa4e537bd38aeae4b073aa6132d2613b20565b6040516132df91906155e9565b60405180910390a1565b6000806000613304858560000161404090919063ffffffff16565b9050836000018054905081141561332257600080925092505061334b565b600184600101828154811061333a57613339616105565b5b906000526020600020015492509250505b9250929050565b6000603d60009054906101000a900473ffffffffffffffffffffffffffffffffffffffff16905081603d60006101000a81548173ffffffffffffffffffffffffffffffffffffffff021916908373ffffffffffffffffffffffffffffffffffffffff1602179055508173ffffffffffffffffffffffffffffffffffffffff168173ffffffffffffffffffffffffffffffffffffffff167f8be0079c531659141344cd1fd0a4f28419497f9722a3daafe3b4186f6b6457e060405160405180910390a35050565b613420613004565b6001603f60006101000a81548160ff0219169083151502179055507f62e78cea01bee320cd4e420270b5ea74000d11b0c9f74754ebdbfc544b05a258613464613b20565b60405161347191906155e9565b60405180910390a1565b600080613486613b20565b9050613493818585613d7f565b600191505092915050565b60008142106134e2576040517f08c379a00000000000000000000000000000000000000000000000000000000081526004016134d990615a0a565b60405180910390fd5b60006134ed8361411a565b5090508015613531576040517f08c379a000000000000000000000000000000000000000000000000000000000815260040161352890615a4a565b60405180910390fd5b60098390806001815401808255809150506001900390600052602060002001600090919091909150558260007fe2ad3b1abe53383dbe6359f02f11ae76d91cfab321b37083b16e1d96a81d418360405160405180910390a382915050919050565b60008061359d613b20565b905060006135ab8286612cc1565b9050838110156135f0576040517f08c379a00000000000000000000000000000000000000000000000000000000081526004016135e790615a8a565b60405180910390fd5b6135fd8286868403613b28565b60019250505092915050565b613611613004565b600073ffffffffffffffffffffffffffffffffffffffff16604360009054906101000a900473ffffffffffffffffffffffffffffffffffffffff1673ffffffffffffffffffffffffffffffffffffffff161461375d57604360009054906101000a900473ffffffffffffffffffffffffffffffffffffffff1673ffffffffffffffffffffffffffffffffffffffff1663c6946a126136ad611d88565b84846040518463ffffffff1660e01b81526004016136cd93929190615604565b60206040518083038186803b1580156136e557600080fd5b505afa1580156136f9573d6000803e3d6000fd5b505050506040513d601f19601f8201168201806040525081019061371d9190614e8d565b61375c576040517f08c379a0000000000000000000000000000000000000000000000000000000008152600401613753906157aa565b60405180910390fd5b5b61376f613768611d88565b8383613d7f565b5050565b600073ffffffffffffffffffffffffffffffffffffffff168273ffffffffffffffffffffffffffffffffffffffff1614156137e3576040517f08c379a00000000000000000000000000000000000000000000000000000000081526004016137da90615aaa565b60405180910390fd5b6137ef60008383614181565b80600260008282546138019190615d03565b92505081905550806000808473ffffffffffffffffffffffffffffffffffffffff1673ffffffffffffffffffffffffffffffffffffffff168152602001908152602001600020600082825401925050819055508173ffffffffffffffffffffffffffffffffffffffff16600073ffffffffffffffffffffffffffffffffffffffff167fddf252ad1be2c89b69c2b068fc378daa952ba7f163c4a11628f55a4df523b3ef836040516138b29190615aca565b60405180910390a36138c660008383614238565b5050565b600082421061390e576040517f08c379a0000000000000000000000000000000000000000000000000000000008152600401613905906158aa565b60405180910390fd5b814210613950576040517f08c379a000000000000000000000000000000000000000000000000000000000815260040161394790615a0a565b60405180910390fd5b600061395b8361411a565b509050801561399f576040517f08c379a000000000000000000000000000000000000000000000000000000000815260040161399690615a4a565b60405180910390fd5b6000806139ab8661411a565b91509150816139ef576040517f08c379a00000000000000000000000000000000000000000000000000000000081526004016139e6906159aa565b60405180910390fd5b8460098281548110613a0457613a03616105565b5b906000526020600020018190555084867fe2ad3b1abe53383dbe6359f02f11ae76d91cfab321b37083b16e1d96a81d418360405160405180910390a384935050505092915050565b6000814210613a90576040517f08c379a0000000000000000000000000000000000000000000000000000000008152600401613a87906158aa565b60405180910390fd5b600080613a9c8461411a565b9150915081613ae0576040517f08c379a0000000000000000000000000000000000000000000000000000000008152600401613ad7906159aa565b60405180910390fd5b613ae98161423d565b837f06e2498f5548e5491bfe985562cc494131eae56b5b6543b59129c8886f129f6560405160405180910390a28392505050919050565b600033905090565b600073ffffffffffffffffffffffffffffffffffffffff168373ffffffffffffffffffffffffffffffffffffffff161415613b98576040517f08c379a0000000000000000000000000000000000000000000000000000000008152600401613b8f90615a2a565b60405180910390fd5b600073ffffffffffffffffffffffffffffffffffffffff168273ffffffffffffffffffffffffffffffffffffffff161415613c08576040517f08c379a0000000000000000000000000000000000000000000000000000000008152600401613bff9061584a565b60405180910390fd5b80600160008573ffffffffffffffffffffffffffffffffffffffff1673ffffffffffffffffffffffffffffffffffffffff16815260200190815260200160002060008473ffffffffffffffffffffffffffffffffffffffff1673ffffffffffffffffffffffffffffffffffffffff168152602001908152602001600020819055508173ffffffffffffffffffffffffffffffffffffffff168373ffffffffffffffffffffffffffffffffffffffff167f8c5be1e5ebec7d5bd14f71427d1e84f3dd0314c0f7b2291e5b200ac8c7c3b92583604051613ce69190615aca565b60405180910390a3505050565b6000613cff8484612cc1565b90507fffffffffffffffffffffffffffffffffffffffffffffffffffffffffffffffff8114613d795781811015613d6b576040517f08c379a0000000000000000000000000000000000000000000000000000000008152600401613d629061586a565b60405180910390fd5b613d788484848403613b28565b5b50505050565b600073ffffffffffffffffffffffffffffffffffffffff168373ffffffffffffffffffffffffffffffffffffffff161415613def576040517f08c379a0000000000000000000000000000000000000000000000000000000008152600401613de6906159ea565b60405180910390fd5b600073ffffffffffffffffffffffffffffffffffffffff168273ffffffffffffffffffffffffffffffffffffffff161415613e5f576040517f08c379a0000000000000000000000000000000000000000000000000000000008152600401613e56906157ca565b60405180910390fd5b613e6a838383614181565b60008060008573ffffffffffffffffffffffffffffffffffffffff1673ffffffffffffffffffffffffffffffffffffffff16815260200190815260200160002054905081811015613ef0576040517f08c379a0000000000000000000000000000000000000000000000000000000008152600401613ee7906158ea565b60405180910390fd5b8181036000808673ffffffffffffffffffffffffffffffffffffffff1673ffffffffffffffffffffffffffffffffffffffff16815260200190815260200160002081905550816000808573ffffffffffffffffffffffffffffffffffffffff1673ffffffffffffffffffffffffffffffffffffffff168152602001908152602001600020600082825401925050819055508273ffffffffffffffffffffffffffffffffffffffff168473ffffffffffffffffffffffffffffffffffffffff167fddf252ad1be2c89b69c2b068fc378daa952ba7f163c4a11628f55a4df523b3ef84604051613fde9190615aca565b60405180910390a3613ff1848484614238565b50505050565b613fff611033565b61403e576040517f08c379a0000000000000000000000000000000000000000000000000000000008152600401614035906157ea565b60405180910390fd5b565b600080838054905014156140575760009050614114565b600080848054905090505b808210156140bb5760006140768383614310565b90508486828154811061408c5761408b616105565b5b906000526020600020015411156140a5578091506140b5565b6001816140b29190615d03565b92505b50614062565b6000821180156140f3575083856001846140d59190615de4565b815481106140e6576140e5616105565b5b9060005260206000200154145b1561410e576001826141059190615de4565b92505050614114565b81925050505b92915050565b60008060005b60098054905081101561417357836009828154811061414257614141616105565b5b9060005260206000200154141561416057600181925092505061417c565b808061416b90616000565b915050614120565b50600080915091505b915091565b61418c838383614336565b61419461433b565b600073ffffffffffffffffffffffffffffffffffffffff168373ffffffffffffffffffffffffffffffffffffffff1614614221576141d183614363565b600073ffffffffffffffffffffffffffffffffffffffff168273ffffffffffffffffffffffffffffffffffffffff16146142135761420e82614363565b61421c565b61421b6143b6565b5b614233565b61422a82614363565b6142326143b6565b5b505050565b505050565b600960016009805490506142519190615de4565b8154811061426257614261616105565b5b90600052602060002001546009828154811061428157614280616105565b5b9060005260206000200181905550600960016009805490506142a39190615de4565b815481106142b4576142b3616105565b5b9060005260206000200154600a8080549050815481106142d7576142d6616105565b5b906000526020600020018190555060098054806142f7576142f66160d6565b5b6001900381819060005260206000200160009055905550565b600060028284186143219190615d59565b82841661432e9190615d03565b905092915050565b505050565b60006143456143ca565b90506000811115614360578060088190555061435f614481565b5b50565b6143b3600560008373ffffffffffffffffffffffffffffffffffffffff1673ffffffffffffffffffffffffffffffffffffffff1681526020019081526020016000206143ae83611775565b6144dc565b50565b6143c860066143c3610a42565b6144dc565b565b60008060098054905014156143e2576000905061447e565b6000805b60098054905081101561447857426009828154811061440857614407616105565b5b90600052602060002001541115801561443e5750816009828154811061443157614430616105565b5b9060005260206000200154115b15614465576009818154811061445757614456616105565b5b906000526020600020015491505b808061447090616000565b9150506143e6565b50809150505b90565b60005b6009805490508110156144d95742600982815481106144a6576144a5616105565b5b9060005260206000200154116144c4576144bf8161423d565b6144d4565b6001816144d19190615d03565b90505b614484565b50565b60006144e661311e565b9050806144f584600001614557565b10156145525782600001819080600181540180825580915050600190039060005260206000200160009091909190915055826001018290806001815401808255809150506001900390600052602060002001600090919091909150555b505050565b6000808280549050141561456e576000905061459f565b81600183805490506145809190615de4565b8154811061459157614590616105565b5b906000526020600020015490505b919050565b8280546145b090615f83565b90600052602060002090601f0160209004810192826145d25760008555614619565b82601f106145eb57805160ff1916838001178555614619565b82800160010185558215614619579182015b828111156146185782518255916020019190600101906145fd565b5b509050614626919061462a565b5090565b5b8082111561464357600081600090555060010161462b565b5090565b600061465a61465584615b25565b615b00565b9050808382526020820190508285602086028201111561467d5761467c616180565b5b60005b858110156146ad578161469388826148eb565b845260208401935060208301925050600181019050614680565b5050509392505050565b60006146ca6146c584615b51565b615b00565b905080838252602082019050828560208602820111156146ed576146ec616180565b5b60005b8581101561473b57813567ffffffffffffffff8111156147135761471261617b565b5b8086016147208982614a90565b855260208501945060208401935050506001810190506146f0565b5050509392505050565b600061475861475384615b7d565b615b00565b9050808382526020820190508285602086028201111561477b5761477a616180565b5b60005b858110156147ab57816147918882614aec565b84526020840193506020830192505060018101905061477e565b5050509392505050565b60006147c86147c384615ba9565b615b00565b905080838252602082019050828560208602820111156147eb576147ea616180565b5b60005b8581101561481b57816148018882614b01565b8452602084019350602083019250506001810190506147ee565b5050509392505050565b600061483861483384615bd5565b615b00565b90508281526020810184848401111561485457614853616185565b5b61485f848285615f41565b509392505050565b600061487a61487584615c06565b615b00565b90508281526020810184848401111561489657614895616185565b5b6148a1848285615f41565b509392505050565b60006148bc6148b784615c06565b615b00565b9050828152602081018484840111156148d8576148d7616185565b5b6148e3848285615f50565b509392505050565b6000813590506148fa816166e3565b92915050565b60008135905061490f816166fa565b92915050565b60008083601f84011261492b5761492a61617b565b5b8235905067ffffffffffffffff81111561494857614947616176565b5b60208301915083602082028301111561496457614963616180565b5b9250929050565b600082601f8301126149805761497f61617b565b5b8135614990848260208601614647565b91505092915050565b600082601f8301126149ae576149ad61617b565b5b81356149be8482602086016146b7565b91505092915050565b600082601f8301126149dc576149db61617b565b5b81356149ec848260208601614745565b91505092915050565b600082601f830112614a0a57614a0961617b565b5b8135614a1a8482602086016147b5565b91505092915050565b600081519050614a3281616711565b92915050565b600081359050614a4781616728565b92915050565b600082601f830112614a6257614a6161617b565b5b8135614a72848260208601614825565b91505092915050565b600081359050614a8a8161673f565b92915050565b600082601f830112614aa557614aa461617b565b5b8135614ab5848260208601614867565b91505092915050565b600082601f830112614ad357614ad261617b565b5b8151614ae38482602086016148a9565b91505092915050565b600081359050614afb81616756565b92915050565b600081359050614b108161676d565b92915050565b600081519050614b258161676d565b92915050565b600060208284031215614b4157614b4061618f565b5b6000614b4f848285016148eb565b91505092915050565b600060208284031215614b6e57614b6d61618f565b5b6000614b7c84828501614900565b91505092915050565b60008060408385031215614b9c57614b9b61618f565b5b6000614baa858286016148eb565b9250506020614bbb858286016148eb565b9150509250929050565b600080600060608486031215614bde57614bdd61618f565b5b6000614bec868287016148eb565b9350506020614bfd868287016148eb565b9250506040614c0e86828701614aec565b9150509250925092565b60008060408385031215614c2f57614c2e61618f565b5b6000614c3d858286016148eb565b9250506020614c4e85828601614a38565b9150509250929050565b60008060408385031215614c6f57614c6e61618f565b5b6000614c7d858286016148eb565b9250506020614c8e85828601614aec565b9150509250929050565b600080600060608486031215614cb157614cb061618f565b5b6000614cbf868287016148eb565b9350506020614cd086828701614aec565b925050604084013567ffffffffffffffff811115614cf157614cf061618a565b5b614cfd86828701614a4d565b9150509250925092565b60008060208385031215614d1e57614d1d61618f565b5b600083013567ffffffffffffffff811115614d3c57614d3b61618a565b5b614d4885828601614915565b92509250509250929050565b600060208284031215614d6a57614d6961618f565b5b600082013567ffffffffffffffff811115614d8857614d8761618a565b5b614d948482850161496b565b91505092915050565b60008060408385031215614db457614db361618f565b5b600083013567ffffffffffffffff811115614dd257614dd161618a565b5b614dde8582860161496b565b925050602083013567ffffffffffffffff811115614dff57614dfe61618a565b5b614e0b858286016149c7565b9150509250929050565b60008060408385031215614e2c57614e2b61618f565b5b600083013567ffffffffffffffff811115614e4a57614e4961618a565b5b614e56858286016149f5565b925050602083013567ffffffffffffffff811115614e7757614e7661618a565b5b614e8385828601614999565b9150509250929050565b600060208284031215614ea357614ea261618f565b5b6000614eb184828501614a23565b91505092915050565b600060208284031215614ed057614ecf61618f565b5b6000614ede84828501614a7b565b91505092915050565b600060208284031215614efd57614efc61618f565b5b600082015167ffffffffffffffff811115614f1b57614f1a61618a565b5b614f2784828501614abe565b91505092915050565b600060208284031215614f4657614f4561618f565b5b6000614f5484828501614aec565b91505092915050565b60008060408385031215614f7457614f7361618f565b5b6000614f8285828601614aec565b9250506020614f93858286016148eb565b9150509250929050565b60008060408385031215614fb457614fb361618f565b5b6000614fc285828601614aec565b9250506020614fd385828601614aec565b9150509250929050565b600060208284031215614ff357614ff261618f565b5b600061500184828501614b01565b91505092915050565b6000602082840312156150205761501f61618f565b5b600061502e84828501614b16565b91505092915050565b6000615043838361507f565b60208301905092915050565b600061505b83836151cd565b60208301905092915050565b600061507383836155bc565b60208301905092915050565b61508881615e38565b82525050565b61509781615e38565b82525050565b60006150a882615c6c565b6150b28185615cbf565b93506150bd83615c37565b8060005b838110156150f5576150d282616163565b6150dc8882615037565b97506150e783615c98565b9250506001810190506150c1565b5085935050505092915050565b600061510d82615c77565b6151178185615cd0565b935061512283615c4c565b8060005b8381101561515357815161513a888261504f565b975061514583615ca5565b925050600181019050615126565b5085935050505092915050565b600061516b82615c82565b6151758185615ce1565b935061518083615c5c565b8060005b838110156151b15781516151988882615067565b97506151a383615cb2565b925050600181019050615184565b5085935050505092915050565b6151c781615e5c565b82525050565b6151d681615e68565b82525050565b6151e581615e68565b82525050565b6151f481615e94565b82525050565b61520381615ee7565b82525050565b61521281615ef9565b82525050565b600061522382615c8d565b61522d8185615cf2565b935061523d818560208601615f50565b61524681616194565b840191505092915050565b600061525e600483615cf2565b9150615269826161b2565b602082019050919050565b6000615281602383615cf2565b915061528c826161db565b604082019050919050565b60006152a4601483615cf2565b91506152af8261622a565b602082019050919050565b60006152c7602583615cf2565b91506152d282616253565b604082019050919050565b60006152ea602683615cf2565b91506152f5826162a2565b604082019050919050565b600061530d602283615cf2565b9150615318826162f1565b604082019050919050565b6000615330601d83615cf2565b915061533b82616340565b602082019050919050565b6000615353600483615cf2565b915061535e82616369565b602082019050919050565b6000615376601583615cf2565b915061538182616392565b602082019050919050565b6000615399601683615cf2565b91506153a4826163bb565b602082019050919050565b60006153bc600483615cf2565b91506153c7826163e4565b602082019050919050565b60006153df601783615cf2565b91506153ea8261640d565b602082019050919050565b6000615402600983615cf2565b915061540d82616436565b602082019050919050565b6000615425600483615cf2565b91506154308261645f565b602082019050919050565b6000615448601783615cf2565b915061545382616488565b602082019050919050565b600061546b602083615cf2565b9150615476826164b1565b602082019050919050565b600061548e601283615cf2565b9150615499826164da565b602082019050919050565b60006154b1601f83615cf2565b91506154bc82616503565b602082019050919050565b60006154d4602583615cf2565b91506154df8261652c565b604082019050919050565b60006154f7601e83615cf2565b91506155028261657b565b602082019050919050565b600061551a602483615cf2565b9150615525826165a4565b604082019050919050565b600061553d602883615cf2565b9150615548826165f3565b604082019050919050565b6000615560601083615cf2565b915061556b82616642565b602082019050919050565b6000615583602583615cf2565b915061558e8261666b565b604082019050919050565b60006155a6601f83615cf2565b91506155b1826166ba565b602082019050919050565b6155c581615ed0565b82525050565b6155d481615ed0565b82525050565b6155e381615eda565b82525050565b60006020820190506155fe600083018461508e565b92915050565b6000606082019050615619600083018661508e565b615626602083018561508e565b61563360408301846155cb565b949350505050565b6000604082019050615650600083018561508e565b61565d60208301846155cb565b9392505050565b6000602082019050818103600083015261567e818461509d565b905092915050565b600060208201905081810360008301526156a08184615102565b905092915050565b600060208201905081810360008301526156c28184615160565b905092915050565b60006020820190506156df60008301846151be565b92915050565b60006020820190506156fa60008301846151dc565b92915050565b600060208201905061571560008301846151eb565b92915050565b600060208201905061573060008301846151fa565b92915050565b600060208201905061574b6000830184615209565b92915050565b6000602082019050818103600083015261576b8184615218565b905092915050565b6000604082019050818103600083015261578d8185615218565b905081810360208301526157a18184615218565b90509392505050565b600060208201905081810360008301526157c381615251565b9050919050565b600060208201905081810360008301526157e381615274565b9050919050565b6000602082019050818103600083015261580381615297565b9050919050565b60006020820190508181036000830152615823816152ba565b9050919050565b60006020820190508181036000830152615843816152dd565b9050919050565b6000602082019050818103600083015261586381615300565b9050919050565b6000602082019050818103600083015261588381615323565b9050919050565b600060208201905081810360008301526158a381615346565b9050919050565b600060208201905081810360008301526158c381615369565b9050919050565b600060208201905081810360008301526158e38161538c565b9050919050565b60006020820190508181036000830152615903816153af565b9050919050565b60006020820190508181036000830152615923816153d2565b9050919050565b60006020820190508181036000830152615943816153f5565b9050919050565b6000602082019050818103600083015261596381615418565b9050919050565b600060208201905081810360008301526159838161543b565b9050919050565b600060208201905081810360008301526159a38161545e565b9050919050565b600060208201905081810360008301526159c381615481565b9050919050565b600060208201905081810360008301526159e3816154a4565b9050919050565b60006020820190508181036000830152615a03816154c7565b9050919050565b60006020820190508181036000830152615a23816154ea565b9050919050565b60006020820190508181036000830152615a438161550d565b9050919050565b60006020820190508181036000830152615a6381615530565b9050919050565b60006020820190508181036000830152615a8381615553565b9050919050565b60006020820190508181036000830152615aa381615576565b9050919050565b60006020820190508181036000830152615ac381615599565b9050919050565b6000602082019050615adf60008301846155cb565b92915050565b6000602082019050615afa60008301846155da565b92915050565b6000615b0a615b1b565b9050615b168282615fcf565b919050565b6000604051905090565b600067ffffffffffffffff821115615b4057615b3f616134565b5b602082029050602081019050919050565b600067ffffffffffffffff821115615b6c57615b6b616134565b5b602082029050602081019050919050565b600067ffffffffffffffff821115615b9857615b97616134565b5b602082029050602081019050919050565b600067ffffffffffffffff821115615bc457615bc3616134565b5b602082029050602081019050919050565b600067ffffffffffffffff821115615bf057615bef616134565b5b615bf982616194565b9050602081019050919050565b600067ffffffffffffffff821115615c2157615c20616134565b5b615c2a82616194565b9050602081019050919050565b60008190508160005260206000209050919050565b6000819050602082019050919050565b6000819050602082019050919050565b600081549050919050565b600081519050919050565b600081519050919050565b600081519050919050565b6000600182019050919050565b6000602082019050919050565b6000602082019050919050565b600082825260208201905092915050565b600082825260208201905092915050565b600082825260208201905092915050565b600082825260208201905092915050565b6000615d0e82615ed0565b9150615d1983615ed0565b9250827fffffffffffffffffffffffffffffffffffffffffffffffffffffffffffffffff03821115615d4e57615d4d616049565b5b828201905092915050565b6000615d6482615ed0565b9150615d6f83615ed0565b925082615d7f57615d7e616078565b5b828204905092915050565b6000615d9582615ed0565b9150615da083615ed0565b9250817fffffffffffffffffffffffffffffffffffffffffffffffffffffffffffffffff0483118215151615615dd957615dd8616049565b5b828202905092915050565b6000615def82615ed0565b9150615dfa83615ed0565b925082821015615e0d57615e0c616049565b5b828203905092915050565b600073ffffffffffffffffffffffffffffffffffffffff82169050919050565b6000615e4382615eb0565b9050919050565b6000615e5582615eb0565b9050919050565b60008115159050919050565b60007fffffffffffffffffffffffffffffffff0000000000000000000000000000000082169050919050565b6000819050919050565b6000615ea982615e38565b9050919050565b600073ffffffffffffffffffffffffffffffffffffffff82169050919050565b6000819050919050565b600060ff82169050919050565b6000615ef282615f0b565b9050919050565b6000615f0482615f1d565b9050919050565b6000615f1682615f2f565b9050919050565b6000615f2882615f2f565b9050919050565b6000615f3a82615eb0565b9050919050565b82818337600083830152505050565b60005b83811015615f6e578082015181840152602081019050615f53565b83811115615f7d576000848401525b50505050565b60006002820490506001821680615f9b57607f821691505b60208210811415615faf57615fae6160a7565b5b50919050565b6000615fc8615fc3836161a5565b615e18565b9050919050565b615fd882616194565b810181811067ffffffffffffffff82111715615ff757615ff6616134565b5b80604052505050565b600061600b82615ed0565b91507fffffffffffffffffffffffffffffffffffffffffffffffffffffffffffffffff82141561603e5761603d616049565b5b600182019050919050565b7f4e487b7100000000000000000000000000000000000000000000000000000000600052601160045260246000fd5b7f4e487b7100000000000000000000000000000000000000000000000000000000600052601260045260246000fd5b7f4e487b7100000000000000000000000000000000000000000000000000000000600052602260045260246000fd5b7f4e487b7100000000000000000000000000000000000000000000000000000000600052603160045260246000fd5b7f4e487b7100000000000000000000000000000000000000000000000000000000600052603260045260246000fd5b7f4e487b7100000000000000000000000000000000000000000000000000000000600052604160045260246000fd5b600061616f8254615fb5565b9050919050565b600080fd5b600080fd5b600080fd5b600080fd5b600080fd5b600080fd5b6000601f19601f8301169050919050565b60008160001c9050919050565b7f3078353000000000000000000000000000000000000000000000000000000000600082015250565b7f45524332303a207472616e7366657220746f20746865207a65726f206164647260008201527f6573730000000000000000000000000000000000000000000000000000000000602082015250565b7f5061757361626c653a206e6f7420706175736564000000000000000000000000600082015250565b7f70726f7669646520657175616c20616d6f756e74206f6620636f646520616e6460008201527f2074657874000000000000000000000000000000000000000000000000000000602082015250565b7f4f776e61626c653a206e6577206f776e657220697320746865207a65726f206160008201527f6464726573730000000000000000000000000000000000000000000000000000602082015250565b7f45524332303a20617070726f766520746f20746865207a65726f20616464726560008201527f7373000000000000000000000000000000000000000000000000000000000000602082015250565b7f45524332303a20696e73756666696369656e7420616c6c6f77616e6365000000600082015250565b7f3078343200000000000000000000000000000000000000000000000000000000600082015250565b7f536e617073686f7420616c726561647920646f6e650000000000000000000000600082015250565b7f6f726967696e616c203d207265706c6163656d656e7400000000000000000000600082015250565b7f3078353400000000000000000000000000000000000000000000000000000000600082015250565b7f6e6f74206964656e746966696564207265636569766572000000000000000000600082015250565b7f3020616464726573730000000000000000000000000000000000000000000000600082015250565b7f3078353900000000000000000000000000000000000000000000000000000000600082015250565b7f5265636569766572206e6f74206964656e746966696564000000000000000000600082015250565b7f4f776e61626c653a2063616c6c6572206973206e6f7420746865206f776e6572600082015250565b7f536e617073686f74206e6f7420666f756e640000000000000000000000000000600082015250565b7f4e6f7420657175616c2072656365697665727320616e6420616d6f756e747300600082015250565b7f45524332303a207472616e736665722066726f6d20746865207a65726f20616460008201527f6472657373000000000000000000000000000000000000000000000000000000602082015250565b7f536e617073686f74207363686564756c656420696e2074686520706173740000600082015250565b7f45524332303a20617070726f76652066726f6d20746865207a65726f2061646460008201527f7265737300000000000000000000000000000000000000000000000000000000602082015250565b7f536e617073686f7420616c7265616479207363686564756c656420666f72207460008201527f6869732074696d65000000000000000000000000000000000000000000000000602082015250565b7f6f776e65722070726f74656374696f6e00000000000000000000000000000000600082015250565b7f45524332303a2064656372656173656420616c6c6f77616e63652062656c6f7760008201527f207a65726f000000000000000000000000000000000000000000000000000000602082015250565b7f45524332303a206d696e7420746f20746865207a65726f206164647265737300600082015250565b6166ec81615e38565b81146166f757600080fd5b50565b61670381615e4a565b811461670e57600080fd5b50565b61671a81615e5c565b811461672557600080fd5b50565b61673181615e68565b811461673c57600080fd5b50565b61674881615e9e565b811461675357600080fd5b50565b61675f81615ed0565b811461676a57600080fd5b50565b61677681615eda565b811461678157600080fd5b5056fea2646970667358221220feda5f1d7f2d5e3d3a941dbcaa3410989c06428ee51eb38ccb078d5ed675c50864736f6c63430008070033",
			"opcodes": "PUSH1 0x80 PUSH1 0x40 MSTORE PUSH1 0x0 PUSH1 0x8 SSTORE CALLVALUE DUP1 ISZERO PUSH3 0x16 JUMPI PUSH1 0x0 DUP1 REVERT JUMPDEST POP PUSH1 0x40 MLOAD PUSH3 0x6F16 CODESIZE SUB DUP1 PUSH3 0x6F16 DUP4 CODECOPY DUP2 DUP2 ADD PUSH1 0x40 MSTORE DUP2 ADD SWAP1 PUSH3 0x3C SWAP2 SWAP1 PUSH3 0x4DA JUMP JUMPDEST DUP4 DUP4 DUP2 PUSH1 0x3 SWAP1 DUP1 MLOAD SWAP1 PUSH1 0x20 ADD SWAP1 PUSH3 0x56 SWAP3 SWAP2 SWAP1 PUSH3 0x3AC JUMP JUMPDEST POP DUP1 PUSH1 0x4 SWAP1 DUP1 MLOAD SWAP1 PUSH1 0x20 ADD SWAP1 PUSH3 0x6F SWAP3 SWAP2 SWAP1 PUSH3 0x3AC JUMP JUMPDEST POP POP POP PUSH3 0x92 PUSH3 0x86 PUSH3 0x2DE PUSH1 0x20 SHL PUSH1 0x20 SHR JUMP JUMPDEST PUSH3 0x2E6 PUSH1 0x20 SHL PUSH1 0x20 SHR JUMP JUMPDEST PUSH1 0x40 MLOAD DUP1 PUSH1 0x40 ADD PUSH1 0x40 MSTORE DUP1 PUSH1 0xF DUP2 MSTORE PUSH1 0x20 ADD PUSH32 0x5472616E73666572204661696C65640000000000000000000000000000000000 DUP2 MSTORE POP PUSH1 0x3E PUSH1 0x0 PUSH1 0x50 PUSH1 0xFF AND DUP2 MSTORE PUSH1 0x20 ADD SWAP1 DUP2 MSTORE PUSH1 0x20 ADD PUSH1 0x0 KECCAK256 SWAP1 DUP1 MLOAD SWAP1 PUSH1 0x20 ADD SWAP1 PUSH3 0xF4 SWAP3 SWAP2 SWAP1 PUSH3 0x3AC JUMP JUMPDEST POP PUSH1 0x40 MLOAD DUP1 PUSH1 0x40 ADD PUSH1 0x40 MSTORE DUP1 PUSH1 0x13 DUP2 MSTORE PUSH1 0x20 ADD PUSH32 0x5472616E73666572207375636365737366756C00000000000000000000000000 DUP2 MSTORE POP PUSH1 0x3E PUSH1 0x0 PUSH1 0x51 PUSH1 0xFF AND DUP2 MSTORE PUSH1 0x20 ADD SWAP1 DUP2 MSTORE PUSH1 0x20 ADD PUSH1 0x0 KECCAK256 SWAP1 DUP1 MLOAD SWAP1 PUSH1 0x20 ADD SWAP1 PUSH3 0x157 SWAP3 SWAP2 SWAP1 PUSH3 0x3AC JUMP JUMPDEST POP PUSH1 0x40 MLOAD DUP1 PUSH1 0x40 ADD PUSH1 0x40 MSTORE DUP1 PUSH1 0x12 DUP2 MSTORE PUSH1 0x20 ADD PUSH32 0x496E73756666696369656E742046756E64730000000000000000000000000000 DUP2 MSTORE POP PUSH1 0x3E PUSH1 0x0 PUSH1 0x54 PUSH1 0xFF AND DUP2 MSTORE PUSH1 0x20 ADD SWAP1 DUP2 MSTORE PUSH1 0x20 ADD PUSH1 0x0 KECCAK256 SWAP1 DUP1 MLOAD SWAP1 PUSH1 0x20 ADD SWAP1 PUSH3 0x1BA SWAP3 SWAP2 SWAP1 PUSH3 0x3AC JUMP JUMPDEST POP PUSH1 0x40 MLOAD DUP1 PUSH1 0x40 ADD PUSH1 0x40 MSTORE DUP1 PUSH1 0x8 DUP2 MSTORE PUSH1 0x20 ADD PUSH32 0x4E6F2046756E6473000000000000000000000000000000000000000000000000 DUP2 MSTORE POP PUSH1 0x3E PUSH1 0x0 PUSH1 0x59 PUSH1 0xFF AND DUP2 MSTORE PUSH1 0x20 ADD SWAP1 DUP2 MSTORE PUSH1 0x20 ADD PUSH1 0x0 KECCAK256 SWAP1 DUP1 MLOAD SWAP1 PUSH1 0x20 ADD SWAP1 PUSH3 0x21D SWAP3 SWAP2 SWAP1 PUSH3 0x3AC JUMP JUMPDEST POP PUSH1 0x40 MLOAD DUP1 PUSH1 0x40 ADD PUSH1 0x40 MSTORE DUP1 PUSH1 0xF DUP2 MSTORE PUSH1 0x20 ADD PUSH32 0x5472616E73666572205061757365640000000000000000000000000000000000 DUP2 MSTORE POP PUSH1 0x3E PUSH1 0x0 PUSH1 0x42 PUSH1 0xFF AND DUP2 MSTORE PUSH1 0x20 ADD SWAP1 DUP2 MSTORE PUSH1 0x20 ADD PUSH1 0x0 KECCAK256 SWAP1 DUP1 MLOAD SWAP1 PUSH1 0x20 ADD SWAP1 PUSH3 0x280 SWAP3 SWAP2 SWAP1 PUSH3 0x3AC JUMP JUMPDEST POP PUSH1 0x0 PUSH1 0x3F PUSH1 0x0 PUSH2 0x100 EXP DUP2 SLOAD DUP2 PUSH1 0xFF MUL NOT AND SWAP1 DUP4 ISZERO ISZERO MUL OR SWAP1 SSTORE POP DUP2 PUSH1 0x46 PUSH1 0x0 ADD SWAP1 DUP1 MLOAD SWAP1 PUSH1 0x20 ADD SWAP1 PUSH3 0x2B7 SWAP3 SWAP2 SWAP1 PUSH3 0x3AC JUMP JUMPDEST POP DUP1 PUSH1 0x46 PUSH1 0x1 ADD SWAP1 DUP1 MLOAD SWAP1 PUSH1 0x20 ADD SWAP1 PUSH3 0x2D3 SWAP3 SWAP2 SWAP1 PUSH3 0x3AC JUMP JUMPDEST POP POP POP POP POP PUSH3 0x74C JUMP JUMPDEST PUSH1 0x0 CALLER SWAP1 POP SWAP1 JUMP JUMPDEST PUSH1 0x0 PUSH1 0x3D PUSH1 0x0 SWAP1 SLOAD SWAP1 PUSH2 0x100 EXP SWAP1 DIV PUSH20 0xFFFFFFFFFFFFFFFFFFFFFFFFFFFFFFFFFFFFFFFF AND SWAP1 POP DUP2 PUSH1 0x3D PUSH1 0x0 PUSH2 0x100 EXP DUP2 SLOAD DUP2 PUSH20 0xFFFFFFFFFFFFFFFFFFFFFFFFFFFFFFFFFFFFFFFF MUL NOT AND SWAP1 DUP4 PUSH20 0xFFFFFFFFFFFFFFFFFFFFFFFFFFFFFFFFFFFFFFFF AND MUL OR SWAP1 SSTORE POP DUP2 PUSH20 0xFFFFFFFFFFFFFFFFFFFFFFFFFFFFFFFFFFFFFFFF AND DUP2 PUSH20 0xFFFFFFFFFFFFFFFFFFFFFFFFFFFFFFFFFFFFFFFF AND PUSH32 0x8BE0079C531659141344CD1FD0A4F28419497F9722A3DAAFE3B4186F6B6457E0 PUSH1 0x40 MLOAD PUSH1 0x40 MLOAD DUP1 SWAP2 SUB SWAP1 LOG3 POP POP JUMP JUMPDEST DUP3 DUP1 SLOAD PUSH3 0x3BA SWAP1 PUSH3 0x65D JUMP JUMPDEST SWAP1 PUSH1 0x0 MSTORE PUSH1 0x20 PUSH1 0x0 KECCAK256 SWAP1 PUSH1 0x1F ADD PUSH1 0x20 SWAP1 DIV DUP2 ADD SWAP3 DUP3 PUSH3 0x3DE JUMPI PUSH1 0x0 DUP6 SSTORE PUSH3 0x42A JUMP JUMPDEST DUP3 PUSH1 0x1F LT PUSH3 0x3F9 JUMPI DUP1 MLOAD PUSH1 0xFF NOT AND DUP4 DUP1 ADD OR DUP6 SSTORE PUSH3 0x42A JUMP JUMPDEST DUP3 DUP1 ADD PUSH1 0x1 ADD DUP6 SSTORE DUP3 ISZERO PUSH3 0x42A JUMPI SWAP2 DUP3 ADD JUMPDEST DUP3 DUP2 GT ISZERO PUSH3 0x429 JUMPI DUP3 MLOAD DUP3 SSTORE SWAP2 PUSH1 0x20 ADD SWAP2 SWAP1 PUSH1 0x1 ADD SWAP1 PUSH3 0x40C JUMP JUMPDEST JUMPDEST POP SWAP1 POP PUSH3 0x439 SWAP2 SWAP1 PUSH3 0x43D JUMP JUMPDEST POP SWAP1 JUMP JUMPDEST JUMPDEST DUP1 DUP3 GT ISZERO PUSH3 0x458 JUMPI PUSH1 0x0 DUP2 PUSH1 0x0 SWAP1 SSTORE POP PUSH1 0x1 ADD PUSH3 0x43E JUMP JUMPDEST POP SWAP1 JUMP JUMPDEST PUSH1 0x0 PUSH3 0x473 PUSH3 0x46D DUP5 PUSH3 0x5F1 JUMP JUMPDEST PUSH3 0x5C8 JUMP JUMPDEST SWAP1 POP DUP3 DUP2 MSTORE PUSH1 0x20 DUP2 ADD DUP5 DUP5 DUP5 ADD GT ISZERO PUSH3 0x492 JUMPI PUSH3 0x491 PUSH3 0x72C JUMP JUMPDEST JUMPDEST PUSH3 0x49F DUP5 DUP3 DUP6 PUSH3 0x627 JUMP JUMPDEST POP SWAP4 SWAP3 POP POP POP JUMP JUMPDEST PUSH1 0x0 DUP3 PUSH1 0x1F DUP4 ADD SLT PUSH3 0x4BF JUMPI PUSH3 0x4BE PUSH3 0x727 JUMP JUMPDEST JUMPDEST DUP2 MLOAD PUSH3 0x4D1 DUP5 DUP3 PUSH1 0x20 DUP7 ADD PUSH3 0x45C JUMP JUMPDEST SWAP2 POP POP SWAP3 SWAP2 POP POP JUMP JUMPDEST PUSH1 0x0 DUP1 PUSH1 0x0 DUP1 PUSH1 0x80 DUP6 DUP8 SUB SLT ISZERO PUSH3 0x4F7 JUMPI PUSH3 0x4F6 PUSH3 0x736 JUMP JUMPDEST JUMPDEST PUSH1 0x0 DUP6 ADD MLOAD PUSH8 0xFFFFFFFFFFFFFFFF DUP2 GT ISZERO PUSH3 0x518 JUMPI PUSH3 0x517 PUSH3 0x731 JUMP JUMPDEST JUMPDEST PUSH3 0x526 DUP8 DUP3 DUP9 ADD PUSH3 0x4A7 JUMP JUMPDEST SWAP5 POP POP PUSH1 0x20 DUP6 ADD MLOAD PUSH8 0xFFFFFFFFFFFFFFFF DUP2 GT ISZERO PUSH3 0x54A JUMPI PUSH3 0x549 PUSH3 0x731 JUMP JUMPDEST JUMPDEST PUSH3 0x558 DUP8 DUP3 DUP9 ADD PUSH3 0x4A7 JUMP JUMPDEST SWAP4 POP POP PUSH1 0x40 DUP6 ADD MLOAD PUSH8 0xFFFFFFFFFFFFFFFF DUP2 GT ISZERO PUSH3 0x57C JUMPI PUSH3 0x57B PUSH3 0x731 JUMP JUMPDEST JUMPDEST PUSH3 0x58A DUP8 DUP3 DUP9 ADD PUSH3 0x4A7 JUMP JUMPDEST SWAP3 POP POP PUSH1 0x60 DUP6 ADD MLOAD PUSH8 0xFFFFFFFFFFFFFFFF DUP2 GT ISZERO PUSH3 0x5AE JUMPI PUSH3 0x5AD PUSH3 0x731 JUMP JUMPDEST JUMPDEST PUSH3 0x5BC DUP8 DUP3 DUP9 ADD PUSH3 0x4A7 JUMP JUMPDEST SWAP2 POP POP SWAP3 SWAP6 SWAP2 SWAP5 POP SWAP3 POP JUMP JUMPDEST PUSH1 0x0 PUSH3 0x5D4 PUSH3 0x5E7 JUMP JUMPDEST SWAP1 POP PUSH3 0x5E2 DUP3 DUP3 PUSH3 0x693 JUMP JUMPDEST SWAP2 SWAP1 POP JUMP JUMPDEST PUSH1 0x0 PUSH1 0x40 MLOAD SWAP1 POP SWAP1 JUMP JUMPDEST PUSH1 0x0 PUSH8 0xFFFFFFFFFFFFFFFF DUP3 GT ISZERO PUSH3 0x60F JUMPI PUSH3 0x60E PUSH3 0x6F8 JUMP JUMPDEST JUMPDEST PUSH3 0x61A DUP3 PUSH3 0x73B JUMP JUMPDEST SWAP1 POP PUSH1 0x20 DUP2 ADD SWAP1 POP SWAP2 SWAP1 POP JUMP JUMPDEST PUSH1 0x0 JUMPDEST DUP4 DUP2 LT ISZERO PUSH3 0x647 JUMPI DUP1 DUP3 ADD MLOAD DUP2 DUP5 ADD MSTORE PUSH1 0x20 DUP2 ADD SWAP1 POP PUSH3 0x62A JUMP JUMPDEST DUP4 DUP2 GT ISZERO PUSH3 0x657 JUMPI PUSH1 0x0 DUP5 DUP5 ADD MSTORE JUMPDEST POP POP POP POP JUMP JUMPDEST PUSH1 0x0 PUSH1 0x2 DUP3 DIV SWAP1 POP PUSH1 0x1 DUP3 AND DUP1 PUSH3 0x676 JUMPI PUSH1 0x7F DUP3 AND SWAP2 POP JUMPDEST PUSH1 0x20 DUP3 LT DUP2 EQ ISZERO PUSH3 0x68D JUMPI PUSH3 0x68C PUSH3 0x6C9 JUMP JUMPDEST JUMPDEST POP SWAP2 SWAP1 POP JUMP JUMPDEST PUSH3 0x69E DUP3 PUSH3 0x73B JUMP JUMPDEST DUP2 ADD DUP2 DUP2 LT PUSH8 0xFFFFFFFFFFFFFFFF DUP3 GT OR ISZERO PUSH3 0x6C0 JUMPI PUSH3 0x6BF PUSH3 0x6F8 JUMP JUMPDEST JUMPDEST DUP1 PUSH1 0x40 MSTORE POP POP POP JUMP JUMPDEST PUSH32 0x4E487B7100000000000000000000000000000000000000000000000000000000 PUSH1 0x0 MSTORE PUSH1 0x22 PUSH1 0x4 MSTORE PUSH1 0x24 PUSH1 0x0 REVERT JUMPDEST PUSH32 0x4E487B7100000000000000000000000000000000000000000000000000000000 PUSH1 0x0 MSTORE PUSH1 0x41 PUSH1 0x4 MSTORE PUSH1 0x24 PUSH1 0x0 REVERT JUMPDEST PUSH1 0x0 DUP1 REVERT JUMPDEST PUSH1 0x0 DUP1 REVERT JUMPDEST PUSH1 0x0 DUP1 REVERT JUMPDEST PUSH1 0x0 DUP1 REVERT JUMPDEST PUSH1 0x0 PUSH1 0x1F NOT PUSH1 0x1F DUP4 ADD AND SWAP1 POP SWAP2 SWAP1 POP JUMP JUMPDEST PUSH2 0x67BA DUP1 PUSH3 0x75C PUSH1 0x0 CODECOPY PUSH1 0x0 RETURN INVALID PUSH1 0x80 PUSH1 0x40 MSTORE CALLVALUE DUP1 ISZERO PUSH2 0x10 JUMPI PUSH1 0x0 DUP1 REVERT JUMPDEST POP PUSH1 0x4 CALLDATASIZE LT PUSH2 0x2BB JUMPI PUSH1 0x0 CALLDATALOAD PUSH1 0xE0 SHR DUP1 PUSH4 0x8456CB59 GT PUSH2 0x182 JUMPI DUP1 PUSH4 0xCC872B66 GT PUSH2 0xE9 JUMPI DUP1 PUSH4 0xDB006A75 GT PUSH2 0xA2 JUMPI DUP1 PUSH4 0xE46638E6 GT PUSH2 0x7C JUMPI DUP1 PUSH4 0xE46638E6 EQ PUSH2 0x8C0 JUMPI DUP1 PUSH4 0xF2FDE38B EQ PUSH2 0x8F0 JUMPI DUP1 PUSH4 0xFB78ED40 EQ PUSH2 0x90C JUMPI DUP1 PUSH4 0xFCF196B4 EQ PUSH2 0x92A JUMPI PUSH2 0x2BB JUMP JUMPDEST DUP1 PUSH4 0xDB006A75 EQ PUSH2 0x844 JUMPI DUP1 PUSH4 0xDD62ED3E EQ PUSH2 0x860 JUMPI DUP1 PUSH4 0xE20C35E5 EQ PUSH2 0x890 JUMPI PUSH2 0x2BB JUMP JUMPDEST DUP1 PUSH4 0xCC872B66 EQ PUSH2 0x76D JUMPI DUP1 PUSH4 0xCFF688F3 EQ PUSH2 0x789 JUMPI DUP1 PUSH4 0xD21268EF EQ PUSH2 0x7A8 JUMPI DUP1 PUSH4 0xD4CE1415 EQ PUSH2 0x7D8 JUMPI DUP1 PUSH4 0xD635D66E EQ PUSH2 0x808 JUMPI DUP1 PUSH4 0xD6A3F374 EQ PUSH2 0x826 JUMPI PUSH2 0x2BB JUMP JUMPDEST DUP1 PUSH4 0xA457C2D7 GT PUSH2 0x13B JUMPI DUP1 PUSH4 0xA457C2D7 EQ PUSH2 0x689 JUMPI DUP1 PUSH4 0xA4A0A301 EQ PUSH2 0x6B9 JUMPI DUP1 PUSH4 0xA9059CBB EQ PUSH2 0x6D5 JUMPI DUP1 PUSH4 0xAB377DAA EQ PUSH2 0x705 JUMPI DUP1 PUSH4 0xC0EE0B8A EQ PUSH2 0x735 JUMPI DUP1 PUSH4 0xC6786E5A EQ PUSH2 0x751 JUMPI PUSH2 0x2BB JUMP JUMPDEST DUP1 PUSH4 0x8456CB59 EQ PUSH2 0x5ED JUMPI DUP1 PUSH4 0x88D695B2 EQ PUSH2 0x5F7 JUMPI DUP1 PUSH4 0x8DA5CB5B EQ PUSH2 0x613 JUMPI DUP1 PUSH4 0x95D89B41 EQ PUSH2 0x631 JUMPI DUP1 PUSH4 0x9FCAFF50 EQ PUSH2 0x64F JUMPI DUP1 PUSH4 0xA312E155 EQ PUSH2 0x66D JUMPI PUSH2 0x2BB JUMP JUMPDEST DUP1 PUSH4 0x43B466A7 GT PUSH2 0x226 JUMPI DUP1 PUSH4 0x634DAF76 GT PUSH2 0x1DF JUMPI DUP1 PUSH4 0x634DAF76 EQ PUSH2 0x51B JUMPI DUP1 PUSH4 0x6F2DD8F6 EQ PUSH2 0x54B JUMPI DUP1 PUSH4 0x70A08231 EQ PUSH2 0x567 JUMPI DUP1 PUSH4 0x70EA07B8 EQ PUSH2 0x597 JUMPI DUP1 PUSH4 0x715018A6 EQ PUSH2 0x5B3 JUMPI DUP1 PUSH4 0x7F4AB1DD EQ PUSH2 0x5BD JUMPI PUSH2 0x2BB JUMP JUMPDEST DUP1 PUSH4 0x43B466A7 EQ PUSH2 0x458 JUMPI DUP1 PUSH4 0x570CA735 EQ PUSH2 0x474 JUMPI DUP1 PUSH4 0x5C975ABB EQ PUSH2 0x492 JUMPI DUP1 PUSH4 0x5DC952F3 EQ PUSH2 0x4B0 JUMPI DUP1 PUSH4 0x5EE7A942 EQ PUSH2 0x4CF JUMPI DUP1 PUSH4 0x5FFF8CD3 EQ PUSH2 0x4FF JUMPI PUSH2 0x2BB JUMP JUMPDEST DUP1 PUSH4 0x2515994E GT PUSH2 0x278 JUMPI DUP1 PUSH4 0x2515994E EQ PUSH2 0x396 JUMPI DUP1 PUSH4 0x2613169C EQ PUSH2 0x3B2 JUMPI DUP1 PUSH4 0x3013CE29 EQ PUSH2 0x3E2 JUMPI DUP1 PUSH4 0x313CE567 EQ PUSH2 0x400 JUMPI DUP1 PUSH4 0x39509351 EQ PUSH2 0x41E JUMPI DUP1 PUSH4 0x3F4BA83A EQ PUSH2 0x44E JUMPI PUSH2 0x2BB JUMP JUMPDEST DUP1 PUSH4 0x6FDDE03 EQ PUSH2 0x2C0 JUMPI DUP1 PUSH4 0x95EA7B3 EQ PUSH2 0x2DE JUMPI DUP1 PUSH4 0x10B3B159 EQ PUSH2 0x30E JUMPI DUP1 PUSH4 0x18160DDD EQ PUSH2 0x32A JUMPI DUP1 PUSH4 0x23B872DD EQ PUSH2 0x348 JUMPI DUP1 PUSH4 0x246B72EC EQ PUSH2 0x378 JUMPI JUMPDEST PUSH1 0x0 DUP1 REVERT JUMPDEST PUSH2 0x2C8 PUSH2 0x948 JUMP JUMPDEST PUSH1 0x40 MLOAD PUSH2 0x2D5 SWAP2 SWAP1 PUSH2 0x5751 JUMP JUMPDEST PUSH1 0x40 MLOAD DUP1 SWAP2 SUB SWAP1 RETURN JUMPDEST PUSH2 0x2F8 PUSH1 0x4 DUP1 CALLDATASIZE SUB DUP2 ADD SWAP1 PUSH2 0x2F3 SWAP2 SWAP1 PUSH2 0x4C58 JUMP JUMPDEST PUSH2 0x9DA JUMP JUMPDEST PUSH1 0x40 MLOAD PUSH2 0x305 SWAP2 SWAP1 PUSH2 0x56CA JUMP JUMPDEST PUSH1 0x40 MLOAD DUP1 SWAP2 SUB SWAP1 RETURN JUMPDEST PUSH2 0x328 PUSH1 0x4 DUP1 CALLDATASIZE SUB DUP2 ADD SWAP1 PUSH2 0x323 SWAP2 SWAP1 PUSH2 0x4B58 JUMP JUMPDEST PUSH2 0x9F6 JUMP JUMPDEST STOP JUMPDEST PUSH2 0x332 PUSH2 0xA42 JUMP JUMPDEST PUSH1 0x40 MLOAD PUSH2 0x33F SWAP2 SWAP1 PUSH2 0x5ACA JUMP JUMPDEST PUSH1 0x40 MLOAD DUP1 SWAP2 SUB SWAP1 RETURN JUMPDEST PUSH2 0x362 PUSH1 0x4 DUP1 CALLDATASIZE SUB DUP2 ADD SWAP1 PUSH2 0x35D SWAP2 SWAP1 PUSH2 0x4BC5 JUMP JUMPDEST PUSH2 0xA4C JUMP JUMPDEST PUSH1 0x40 MLOAD PUSH2 0x36F SWAP2 SWAP1 PUSH2 0x56CA JUMP JUMPDEST PUSH1 0x40 MLOAD DUP1 SWAP2 SUB SWAP1 RETURN JUMPDEST PUSH2 0x380 PUSH2 0xD61 JUMP JUMPDEST PUSH1 0x40 MLOAD PUSH2 0x38D SWAP2 SWAP1 PUSH2 0x5700 JUMP JUMPDEST PUSH1 0x40 MLOAD DUP1 SWAP2 SUB SWAP1 RETURN JUMPDEST PUSH2 0x3B0 PUSH1 0x4 DUP1 CALLDATASIZE SUB DUP2 ADD SWAP1 PUSH2 0x3AB SWAP2 SWAP1 PUSH2 0x4F30 JUMP JUMPDEST PUSH2 0xD85 JUMP JUMPDEST STOP JUMPDEST PUSH2 0x3CC PUSH1 0x4 DUP1 CALLDATASIZE SUB DUP2 ADD SWAP1 PUSH2 0x3C7 SWAP2 SWAP1 PUSH2 0x4D54 JUMP JUMPDEST PUSH2 0xF27 JUMP JUMPDEST PUSH1 0x40 MLOAD PUSH2 0x3D9 SWAP2 SWAP1 PUSH2 0x5686 JUMP JUMPDEST PUSH1 0x40 MLOAD DUP1 SWAP2 SUB SWAP1 RETURN JUMPDEST PUSH2 0x3EA PUSH2 0xF41 JUMP JUMPDEST PUSH1 0x40 MLOAD PUSH2 0x3F7 SWAP2 SWAP1 PUSH2 0x5736 JUMP JUMPDEST PUSH1 0x40 MLOAD DUP1 SWAP2 SUB SWAP1 RETURN JUMPDEST PUSH2 0x408 PUSH2 0xF67 JUMP JUMPDEST PUSH1 0x40 MLOAD PUSH2 0x415 SWAP2 SWAP1 PUSH2 0x5AE5 JUMP JUMPDEST PUSH1 0x40 MLOAD DUP1 SWAP2 SUB SWAP1 RETURN JUMPDEST PUSH2 0x438 PUSH1 0x4 DUP1 CALLDATASIZE SUB DUP2 ADD SWAP1 PUSH2 0x433 SWAP2 SWAP1 PUSH2 0x4C58 JUMP JUMPDEST PUSH2 0xF6C JUMP JUMPDEST PUSH1 0x40 MLOAD PUSH2 0x445 SWAP2 SWAP1 PUSH2 0x56CA JUMP JUMPDEST PUSH1 0x40 MLOAD DUP1 SWAP2 SUB SWAP1 RETURN JUMPDEST PUSH2 0x456 PUSH2 0xF88 JUMP JUMPDEST STOP JUMPDEST PUSH2 0x472 PUSH1 0x4 DUP1 CALLDATASIZE SUB DUP2 ADD SWAP1 PUSH2 0x46D SWAP2 SWAP1 PUSH2 0x4C18 JUMP JUMPDEST PUSH2 0xF9A JUMP JUMPDEST STOP JUMPDEST PUSH2 0x47C PUSH2 0x100D JUMP JUMPDEST PUSH1 0x40 MLOAD PUSH2 0x489 SWAP2 SWAP1 PUSH2 0x55E9 JUMP JUMPDEST PUSH1 0x40 MLOAD DUP1 SWAP2 SUB SWAP1 RETURN JUMPDEST PUSH2 0x49A PUSH2 0x1033 JUMP JUMPDEST PUSH1 0x40 MLOAD PUSH2 0x4A7 SWAP2 SWAP1 PUSH2 0x56CA JUMP JUMPDEST PUSH1 0x40 MLOAD DUP1 SWAP2 SUB SWAP1 RETURN JUMPDEST PUSH2 0x4B8 PUSH2 0x104A JUMP JUMPDEST PUSH1 0x40 MLOAD PUSH2 0x4C6 SWAP3 SWAP2 SWAP1 PUSH2 0x5773 JUMP JUMPDEST PUSH1 0x40 MLOAD DUP1 SWAP2 SUB SWAP1 RETURN JUMPDEST PUSH2 0x4E9 PUSH1 0x4 DUP1 CALLDATASIZE SUB DUP2 ADD SWAP1 PUSH2 0x4E4 SWAP2 SWAP1 PUSH2 0x4F30 JUMP JUMPDEST PUSH2 0x1177 JUMP JUMPDEST PUSH1 0x40 MLOAD PUSH2 0x4F6 SWAP2 SWAP1 PUSH2 0x5ACA JUMP JUMPDEST PUSH1 0x40 MLOAD DUP1 SWAP2 SUB SWAP1 RETURN JUMPDEST PUSH2 0x519 PUSH1 0x4 DUP1 CALLDATASIZE SUB DUP2 ADD SWAP1 PUSH2 0x514 SWAP2 SWAP1 PUSH2 0x4B85 JUMP JUMPDEST PUSH2 0x11A8 JUMP JUMPDEST STOP JUMPDEST PUSH2 0x535 PUSH1 0x4 DUP1 CALLDATASIZE SUB DUP2 ADD SWAP1 PUSH2 0x530 SWAP2 SWAP1 PUSH2 0x4F5D JUMP JUMPDEST PUSH2 0x16DF JUMP JUMPDEST PUSH1 0x40 MLOAD PUSH2 0x542 SWAP2 SWAP1 PUSH2 0x5ACA JUMP JUMPDEST PUSH1 0x40 MLOAD DUP1 SWAP2 SUB SWAP1 RETURN JUMPDEST PUSH2 0x565 PUSH1 0x4 DUP1 CALLDATASIZE SUB DUP2 ADD SWAP1 PUSH2 0x560 SWAP2 SWAP1 PUSH2 0x4FDD JUMP JUMPDEST PUSH2 0x174F JUMP JUMPDEST STOP JUMPDEST PUSH2 0x581 PUSH1 0x4 DUP1 CALLDATASIZE SUB DUP2 ADD SWAP1 PUSH2 0x57C SWAP2 SWAP1 PUSH2 0x4B2B JUMP JUMPDEST PUSH2 0x1775 JUMP JUMPDEST PUSH1 0x40 MLOAD PUSH2 0x58E SWAP2 SWAP1 PUSH2 0x5ACA JUMP JUMPDEST PUSH1 0x40 MLOAD DUP1 SWAP2 SUB SWAP1 RETURN JUMPDEST PUSH2 0x5B1 PUSH1 0x4 DUP1 CALLDATASIZE SUB DUP2 ADD SWAP1 PUSH2 0x5AC SWAP2 SWAP1 PUSH2 0x4E15 JUMP JUMPDEST PUSH2 0x17BD JUMP JUMPDEST STOP JUMPDEST PUSH2 0x5BB PUSH2 0x188F JUMP JUMPDEST STOP JUMPDEST PUSH2 0x5D7 PUSH1 0x4 DUP1 CALLDATASIZE SUB DUP2 ADD SWAP1 PUSH2 0x5D2 SWAP2 SWAP1 PUSH2 0x4FDD JUMP JUMPDEST PUSH2 0x18A3 JUMP JUMPDEST PUSH1 0x40 MLOAD PUSH2 0x5E4 SWAP2 SWAP1 PUSH2 0x5751 JUMP JUMPDEST PUSH1 0x40 MLOAD DUP1 SWAP2 SUB SWAP1 RETURN JUMPDEST PUSH2 0x5F5 PUSH2 0x1A8E JUMP JUMPDEST STOP JUMPDEST PUSH2 0x611 PUSH1 0x4 DUP1 CALLDATASIZE SUB DUP2 ADD SWAP1 PUSH2 0x60C SWAP2 SWAP1 PUSH2 0x4D9D JUMP JUMPDEST PUSH2 0x1AA0 JUMP JUMPDEST STOP JUMPDEST PUSH2 0x61B PUSH2 0x1D88 JUMP JUMPDEST PUSH1 0x40 MLOAD PUSH2 0x628 SWAP2 SWAP1 PUSH2 0x55E9 JUMP JUMPDEST PUSH1 0x40 MLOAD DUP1 SWAP2 SUB SWAP1 RETURN JUMPDEST PUSH2 0x639 PUSH2 0x1DB2 JUMP JUMPDEST PUSH1 0x40 MLOAD PUSH2 0x646 SWAP2 SWAP1 PUSH2 0x5751 JUMP JUMPDEST PUSH1 0x40 MLOAD DUP1 SWAP2 SUB SWAP1 RETURN JUMPDEST PUSH2 0x657 PUSH2 0x1E44 JUMP JUMPDEST PUSH1 0x40 MLOAD PUSH2 0x664 SWAP2 SWAP1 PUSH2 0x56E5 JUMP JUMPDEST PUSH1 0x40 MLOAD DUP1 SWAP2 SUB SWAP1 RETURN JUMPDEST PUSH2 0x687 PUSH1 0x4 DUP1 CALLDATASIZE SUB DUP2 ADD SWAP1 PUSH2 0x682 SWAP2 SWAP1 PUSH2 0x4F30 JUMP JUMPDEST PUSH2 0x1E98 JUMP JUMPDEST STOP JUMPDEST PUSH2 0x6A3 PUSH1 0x4 DUP1 CALLDATASIZE SUB DUP2 ADD SWAP1 PUSH2 0x69E SWAP2 SWAP1 PUSH2 0x4C58 JUMP JUMPDEST PUSH2 0x1EAD JUMP JUMPDEST PUSH1 0x40 MLOAD PUSH2 0x6B0 SWAP2 SWAP1 PUSH2 0x56CA JUMP JUMPDEST PUSH1 0x40 MLOAD DUP1 SWAP2 SUB SWAP1 RETURN JUMPDEST PUSH2 0x6D3 PUSH1 0x4 DUP1 CALLDATASIZE SUB DUP2 ADD SWAP1 PUSH2 0x6CE SWAP2 SWAP1 PUSH2 0x4EBA JUMP JUMPDEST PUSH2 0x1EC9 JUMP JUMPDEST STOP JUMPDEST PUSH2 0x6EF PUSH1 0x4 DUP1 CALLDATASIZE SUB DUP2 ADD SWAP1 PUSH2 0x6EA SWAP2 SWAP1 PUSH2 0x4C58 JUMP JUMPDEST PUSH2 0x1F58 JUMP JUMPDEST PUSH1 0x40 MLOAD PUSH2 0x6FC SWAP2 SWAP1 PUSH2 0x56CA JUMP JUMPDEST PUSH1 0x40 MLOAD DUP1 SWAP2 SUB SWAP1 RETURN JUMPDEST PUSH2 0x71F PUSH1 0x4 DUP1 CALLDATASIZE SUB DUP2 ADD SWAP1 PUSH2 0x71A SWAP2 SWAP1 PUSH2 0x4F30 JUMP JUMPDEST PUSH2 0x226B JUMP JUMPDEST PUSH1 0x40 MLOAD PUSH2 0x72C SWAP2 SWAP1 PUSH2 0x55E9 JUMP JUMPDEST PUSH1 0x40 MLOAD DUP1 SWAP2 SUB SWAP1 RETURN JUMPDEST PUSH2 0x74F PUSH1 0x4 DUP1 CALLDATASIZE SUB DUP2 ADD SWAP1 PUSH2 0x74A SWAP2 SWAP1 PUSH2 0x4C98 JUMP JUMPDEST PUSH2 0x22AA JUMP JUMPDEST STOP JUMPDEST PUSH2 0x76B PUSH1 0x4 DUP1 CALLDATASIZE SUB DUP2 ADD SWAP1 PUSH2 0x766 SWAP2 SWAP1 PUSH2 0x4D07 JUMP JUMPDEST PUSH2 0x2472 JUMP JUMPDEST STOP JUMPDEST PUSH2 0x787 PUSH1 0x4 DUP1 CALLDATASIZE SUB DUP2 ADD SWAP1 PUSH2 0x782 SWAP2 SWAP1 PUSH2 0x4F30 JUMP JUMPDEST PUSH2 0x27D3 JUMP JUMPDEST STOP JUMPDEST PUSH2 0x791 PUSH2 0x288C JUMP JUMPDEST PUSH1 0x40 MLOAD PUSH2 0x79F SWAP3 SWAP2 SWAP1 PUSH2 0x5773 JUMP JUMPDEST PUSH1 0x40 MLOAD DUP1 SWAP2 SUB SWAP1 RETURN JUMPDEST PUSH2 0x7C2 PUSH1 0x4 DUP1 CALLDATASIZE SUB DUP2 ADD SWAP1 PUSH2 0x7BD SWAP2 SWAP1 PUSH2 0x4F9D JUMP JUMPDEST PUSH2 0x29AE JUMP JUMPDEST PUSH1 0x40 MLOAD PUSH2 0x7CF SWAP2 SWAP1 PUSH2 0x5ACA JUMP JUMPDEST PUSH1 0x40 MLOAD DUP1 SWAP2 SUB SWAP1 RETURN JUMPDEST PUSH2 0x7F2 PUSH1 0x4 DUP1 CALLDATASIZE SUB DUP2 ADD SWAP1 PUSH2 0x7ED SWAP2 SWAP1 PUSH2 0x4BC5 JUMP JUMPDEST PUSH2 0x29C9 JUMP JUMPDEST PUSH1 0x40 MLOAD PUSH2 0x7FF SWAP2 SWAP1 PUSH2 0x5AE5 JUMP JUMPDEST PUSH1 0x40 MLOAD DUP1 SWAP2 SUB SWAP1 RETURN JUMPDEST PUSH2 0x810 PUSH2 0x2AF9 JUMP JUMPDEST PUSH1 0x40 MLOAD PUSH2 0x81D SWAP2 SWAP1 PUSH2 0x56A8 JUMP JUMPDEST PUSH1 0x40 MLOAD DUP1 SWAP2 SUB SWAP1 RETURN JUMPDEST PUSH2 0x82E PUSH2 0x2B51 JUMP JUMPDEST PUSH1 0x40 MLOAD PUSH2 0x83B SWAP2 SWAP1 PUSH2 0x5AE5 JUMP JUMPDEST PUSH1 0x40 MLOAD DUP1 SWAP2 SUB SWAP1 RETURN JUMPDEST PUSH2 0x85E PUSH1 0x4 DUP1 CALLDATASIZE SUB DUP2 ADD SWAP1 PUSH2 0x859 SWAP2 SWAP1 PUSH2 0x4F30 JUMP JUMPDEST PUSH2 0x2B64 JUMP JUMPDEST STOP JUMPDEST PUSH2 0x87A PUSH1 0x4 DUP1 CALLDATASIZE SUB DUP2 ADD SWAP1 PUSH2 0x875 SWAP2 SWAP1 PUSH2 0x4B85 JUMP JUMPDEST PUSH2 0x2CC1 JUMP JUMPDEST PUSH1 0x40 MLOAD PUSH2 0x887 SWAP2 SWAP1 PUSH2 0x5ACA JUMP JUMPDEST PUSH1 0x40 MLOAD DUP1 SWAP2 SUB SWAP1 RETURN JUMPDEST PUSH2 0x8AA PUSH1 0x4 DUP1 CALLDATASIZE SUB DUP2 ADD SWAP1 PUSH2 0x8A5 SWAP2 SWAP1 PUSH2 0x4F30 JUMP JUMPDEST PUSH2 0x2D48 JUMP JUMPDEST PUSH1 0x40 MLOAD PUSH2 0x8B7 SWAP2 SWAP1 PUSH2 0x5ACA JUMP JUMPDEST PUSH1 0x40 MLOAD DUP1 SWAP2 SUB SWAP1 RETURN JUMPDEST PUSH2 0x8DA PUSH1 0x4 DUP1 CALLDATASIZE SUB DUP2 ADD SWAP1 PUSH2 0x8D5 SWAP2 SWAP1 PUSH2 0x4BC5 JUMP JUMPDEST PUSH2 0x2D61 JUMP JUMPDEST PUSH1 0x40 MLOAD PUSH2 0x8E7 SWAP2 SWAP1 PUSH2 0x56CA JUMP JUMPDEST PUSH1 0x40 MLOAD DUP1 SWAP2 SUB SWAP1 RETURN JUMPDEST PUSH2 0x90A PUSH1 0x4 DUP1 CALLDATASIZE SUB DUP2 ADD SWAP1 PUSH2 0x905 SWAP2 SWAP1 PUSH2 0x4B2B JUMP JUMPDEST PUSH2 0x2F02 JUMP JUMPDEST STOP JUMPDEST PUSH2 0x914 PUSH2 0x2F86 JUMP JUMPDEST PUSH1 0x40 MLOAD PUSH2 0x921 SWAP2 SWAP1 PUSH2 0x56A8 JUMP JUMPDEST PUSH1 0x40 MLOAD DUP1 SWAP2 SUB SWAP1 RETURN JUMPDEST PUSH2 0x932 PUSH2 0x2FDE JUMP JUMPDEST PUSH1 0x40 MLOAD PUSH2 0x93F SWAP2 SWAP1 PUSH2 0x571B JUMP JUMPDEST PUSH1 0x40 MLOAD DUP1 SWAP2 SUB SWAP1 RETURN JUMPDEST PUSH1 0x60 PUSH1 0x3 DUP1 SLOAD PUSH2 0x957 SWAP1 PUSH2 0x5F83 JUMP JUMPDEST DUP1 PUSH1 0x1F ADD PUSH1 0x20 DUP1 SWAP2 DIV MUL PUSH1 0x20 ADD PUSH1 0x40 MLOAD SWAP1 DUP2 ADD PUSH1 0x40 MSTORE DUP1 SWAP3 SWAP2 SWAP1 DUP2 DUP2 MSTORE PUSH1 0x20 ADD DUP3 DUP1 SLOAD PUSH2 0x983 SWAP1 PUSH2 0x5F83 JUMP JUMPDEST DUP1 ISZERO PUSH2 0x9D0 JUMPI DUP1 PUSH1 0x1F LT PUSH2 0x9A5 JUMPI PUSH2 0x100 DUP1 DUP4 SLOAD DIV MUL DUP4 MSTORE SWAP2 PUSH1 0x20 ADD SWAP2 PUSH2 0x9D0 JUMP JUMPDEST DUP3 ADD SWAP2 SWAP1 PUSH1 0x0 MSTORE PUSH1 0x20 PUSH1 0x0 KECCAK256 SWAP1 JUMPDEST DUP2 SLOAD DUP2 MSTORE SWAP1 PUSH1 0x1 ADD SWAP1 PUSH1 0x20 ADD DUP1 DUP4 GT PUSH2 0x9B3 JUMPI DUP3 SWAP1 SUB PUSH1 0x1F AND DUP3 ADD SWAP2 JUMPDEST POP POP POP POP POP SWAP1 POP SWAP1 JUMP JUMPDEST PUSH1 0x0 PUSH2 0x9E4 PUSH2 0x3004 JUMP JUMPDEST PUSH2 0x9EE DUP4 DUP4 PUSH2 0x304E JUMP JUMPDEST SWAP1 POP SWAP3 SWAP2 POP POP JUMP JUMPDEST PUSH2 0x9FE PUSH2 0x3071 JUMP JUMPDEST DUP1 PUSH1 0x44 PUSH1 0x0 PUSH2 0x100 EXP DUP2 SLOAD DUP2 PUSH20 0xFFFFFFFFFFFFFFFFFFFFFFFFFFFFFFFFFFFFFFFF MUL NOT AND SWAP1 DUP4 PUSH20 0xFFFFFFFFFFFFFFFFFFFFFFFFFFFFFFFFFFFFFFFF AND MUL OR SWAP1 SSTORE POP POP JUMP JUMPDEST PUSH1 0x0 PUSH1 0x2 SLOAD SWAP1 POP SWAP1 JUMP JUMPDEST PUSH1 0x0 DUP3 PUSH1 0x0 PUSH1 0x42 PUSH1 0x0 DUP4 PUSH20 0xFFFFFFFFFFFFFFFFFFFFFFFFFFFFFFFFFFFFFFFF AND PUSH20 0xFFFFFFFFFFFFFFFFFFFFFFFFFFFFFFFFFFFFFFFF AND DUP2 MSTORE PUSH1 0x20 ADD SWAP1 DUP2 MSTORE PUSH1 0x20 ADD PUSH1 0x0 KECCAK256 PUSH1 0x0 SWAP1 SLOAD SWAP1 PUSH2 0x100 EXP SWAP1 DIV PUSH1 0x80 SHL PUSH16 0xFFFFFFFFFFFFFFFFFFFFFFFFFFFFFFFF NOT AND EQ ISZERO PUSH2 0xAF2 JUMPI PUSH1 0x40 MLOAD PUSH32 0x8C379A000000000000000000000000000000000000000000000000000000000 DUP2 MSTORE PUSH1 0x4 ADD PUSH2 0xAE9 SWAP1 PUSH2 0x596A JUMP JUMPDEST PUSH1 0x40 MLOAD DUP1 SWAP2 SUB SWAP1 REVERT JUMPDEST PUSH2 0xAFA PUSH2 0x3004 JUMP JUMPDEST PUSH1 0x0 PUSH20 0xFFFFFFFFFFFFFFFFFFFFFFFFFFFFFFFFFFFFFFFF AND PUSH1 0x43 PUSH1 0x0 SWAP1 SLOAD SWAP1 PUSH2 0x100 EXP SWAP1 DIV PUSH20 0xFFFFFFFFFFFFFFFFFFFFFFFFFFFFFFFFFFFFFFFF AND PUSH20 0xFFFFFFFFFFFFFFFFFFFFFFFFFFFFFFFFFFFFFFFF AND EQ PUSH2 0xC3F JUMPI PUSH1 0x43 PUSH1 0x0 SWAP1 SLOAD SWAP1 PUSH2 0x100 EXP SWAP1 DIV PUSH20 0xFFFFFFFFFFFFFFFFFFFFFFFFFFFFFFFFFFFFFFFF AND PUSH20 0xFFFFFFFFFFFFFFFFFFFFFFFFFFFFFFFFFFFFFFFF AND PUSH4 0xC6946A12 DUP7 DUP7 DUP7 PUSH1 0x40 MLOAD DUP5 PUSH4 0xFFFFFFFF AND PUSH1 0xE0 SHL DUP2 MSTORE PUSH1 0x4 ADD PUSH2 0xBAF SWAP4 SWAP3 SWAP2 SWAP1 PUSH2 0x5604 JUMP JUMPDEST PUSH1 0x20 PUSH1 0x40 MLOAD DUP1 DUP4 SUB DUP2 DUP7 DUP1 EXTCODESIZE ISZERO DUP1 ISZERO PUSH2 0xBC7 JUMPI PUSH1 0x0 DUP1 REVERT JUMPDEST POP GAS STATICCALL ISZERO DUP1 ISZERO PUSH2 0xBDB JUMPI RETURNDATASIZE PUSH1 0x0 DUP1 RETURNDATACOPY RETURNDATASIZE PUSH1 0x0 REVERT JUMPDEST POP POP POP POP PUSH1 0x40 MLOAD RETURNDATASIZE PUSH1 0x1F NOT PUSH1 0x1F DUP3 ADD AND DUP3 ADD DUP1 PUSH1 0x40 MSTORE POP DUP2 ADD SWAP1 PUSH2 0xBFF SWAP2 SWAP1 PUSH2 0x4E8D JUMP JUMPDEST PUSH2 0xC3E JUMPI PUSH1 0x40 MLOAD PUSH32 0x8C379A000000000000000000000000000000000000000000000000000000000 DUP2 MSTORE PUSH1 0x4 ADD PUSH2 0xC35 SWAP1 PUSH2 0x57AA JUMP JUMPDEST PUSH1 0x40 MLOAD DUP1 SWAP2 SUB SWAP1 REVERT JUMPDEST JUMPDEST PUSH1 0x41 PUSH1 0x0 DUP6 PUSH20 0xFFFFFFFFFFFFFFFFFFFFFFFFFFFFFFFFFFFFFFFF AND PUSH20 0xFFFFFFFFFFFFFFFFFFFFFFFFFFFFFFFFFFFFFFFF AND DUP2 MSTORE PUSH1 0x20 ADD SWAP1 DUP2 MSTORE PUSH1 0x20 ADD PUSH1 0x0 KECCAK256 PUSH1 0x0 SWAP1 SLOAD SWAP1 PUSH2 0x100 EXP SWAP1 DIV PUSH1 0xFF AND PUSH2 0xD4C JUMPI PUSH1 0x1 PUSH1 0x41 PUSH1 0x0 DUP7 PUSH20 0xFFFFFFFFFFFFFFFFFFFFFFFFFFFFFFFFFFFFFFFF AND PUSH20 0xFFFFFFFFFFFFFFFFFFFFFFFFFFFFFFFFFFFFFFFF AND DUP2 MSTORE PUSH1 0x20 ADD SWAP1 DUP2 MSTORE PUSH1 0x20 ADD PUSH1 0x0 KECCAK256 PUSH1 0x0 PUSH2 0x100 EXP DUP2 SLOAD DUP2 PUSH1 0xFF MUL NOT AND SWAP1 DUP4 ISZERO ISZERO MUL OR SWAP1 SSTORE POP PUSH1 0x40 DUP5 SWAP1 DUP1 PUSH1 0x1 DUP2 SLOAD ADD DUP1 DUP3 SSTORE DUP1 SWAP2 POP POP PUSH1 0x1 SWAP1 SUB SWAP1 PUSH1 0x0 MSTORE PUSH1 0x20 PUSH1 0x0 KECCAK256 ADD PUSH1 0x0 SWAP1 SWAP2 SWAP1 SWAP2 SWAP1 SWAP2 PUSH2 0x100 EXP DUP2 SLOAD DUP2 PUSH20 0xFFFFFFFFFFFFFFFFFFFFFFFFFFFFFFFFFFFFFFFF MUL NOT AND SWAP1 DUP4 PUSH20 0xFFFFFFFFFFFFFFFFFFFFFFFFFFFFFFFFFFFFFFFF AND MUL OR SWAP1 SSTORE POP JUMPDEST PUSH2 0xD57 DUP6 DUP6 DUP6 PUSH2 0x30EF JUMP JUMPDEST SWAP2 POP POP SWAP4 SWAP3 POP POP POP JUMP JUMPDEST PUSH32 0x809A0FC49FC0600540F1D39E23454E1F6F215BC7505FA22B17C154616570DDEF DUP2 JUMP JUMPDEST PUSH2 0xD8D PUSH2 0x3071 JUMP JUMPDEST PUSH1 0x0 PUSH2 0xD9F PUSH2 0xD9A PUSH2 0x311E JUMP JUMPDEST PUSH2 0x1177 JUMP JUMPDEST SWAP1 POP PUSH1 0x0 JUMPDEST PUSH1 0x40 DUP1 SLOAD SWAP1 POP DUP2 LT ISZERO PUSH2 0xF22 JUMPI PUSH1 0x0 PUSH2 0xE02 PUSH2 0xDBE PUSH2 0x311E JUMP JUMPDEST PUSH1 0x40 DUP5 DUP2 SLOAD DUP2 LT PUSH2 0xDD2 JUMPI PUSH2 0xDD1 PUSH2 0x6105 JUMP JUMPDEST JUMPDEST SWAP1 PUSH1 0x0 MSTORE PUSH1 0x20 PUSH1 0x0 KECCAK256 ADD PUSH1 0x0 SWAP1 SLOAD SWAP1 PUSH2 0x100 EXP SWAP1 DIV PUSH20 0xFFFFFFFFFFFFFFFFFFFFFFFFFFFFFFFFFFFFFFFF AND PUSH2 0x16DF JUMP JUMPDEST SWAP1 POP PUSH1 0x0 DUP4 DUP3 DUP7 PUSH2 0xE13 SWAP2 SWAP1 PUSH2 0x5D8A JUMP JUMPDEST PUSH2 0xE1D SWAP2 SWAP1 PUSH2 0x5D59 JUMP JUMPDEST SWAP1 POP PUSH1 0x44 PUSH1 0x0 SWAP1 SLOAD SWAP1 PUSH2 0x100 EXP SWAP1 DIV PUSH20 0xFFFFFFFFFFFFFFFFFFFFFFFFFFFFFFFFFFFFFFFF AND PUSH20 0xFFFFFFFFFFFFFFFFFFFFFFFFFFFFFFFFFFFFFFFF AND PUSH4 0xA9059CBB PUSH1 0x40 DUP6 DUP2 SLOAD DUP2 LT PUSH2 0xE71 JUMPI PUSH2 0xE70 PUSH2 0x6105 JUMP JUMPDEST JUMPDEST SWAP1 PUSH1 0x0 MSTORE PUSH1 0x20 PUSH1 0x0 KECCAK256 ADD PUSH1 0x0 SWAP1 SLOAD SWAP1 PUSH2 0x100 EXP SWAP1 DIV PUSH20 0xFFFFFFFFFFFFFFFFFFFFFFFFFFFFFFFFFFFFFFFF AND DUP4 PUSH1 0x40 MLOAD DUP4 PUSH4 0xFFFFFFFF AND PUSH1 0xE0 SHL DUP2 MSTORE PUSH1 0x4 ADD PUSH2 0xEBA SWAP3 SWAP2 SWAP1 PUSH2 0x563B JUMP JUMPDEST PUSH1 0x20 PUSH1 0x40 MLOAD DUP1 DUP4 SUB DUP2 PUSH1 0x0 DUP8 DUP1 EXTCODESIZE ISZERO DUP1 ISZERO PUSH2 0xED4 JUMPI PUSH1 0x0 DUP1 REVERT JUMPDEST POP GAS CALL ISZERO DUP1 ISZERO PUSH2 0xEE8 JUMPI RETURNDATASIZE PUSH1 0x0 DUP1 RETURNDATACOPY RETURNDATASIZE PUSH1 0x0 REVERT JUMPDEST POP POP POP POP PUSH1 0x40 MLOAD RETURNDATASIZE PUSH1 0x1F NOT PUSH1 0x1F DUP3 ADD AND DUP3 ADD DUP1 PUSH1 0x40 MSTORE POP DUP2 ADD SWAP1 PUSH2 0xF0C SWAP2 SWAP1 PUSH2 0x4E8D JUMP JUMPDEST POP POP POP DUP1 DUP1 PUSH2 0xF1A SWAP1 PUSH2 0x6000 JUMP JUMPDEST SWAP2 POP POP PUSH2 0xDA4 JUMP JUMPDEST POP POP POP JUMP JUMPDEST PUSH1 0x60 PUSH2 0xF31 PUSH2 0x3071 JUMP JUMPDEST PUSH2 0xF3A DUP3 PUSH2 0x3128 JUMP JUMPDEST SWAP1 POP SWAP2 SWAP1 POP JUMP JUMPDEST PUSH1 0x44 PUSH1 0x0 SWAP1 SLOAD SWAP1 PUSH2 0x100 EXP SWAP1 DIV PUSH20 0xFFFFFFFFFFFFFFFFFFFFFFFFFFFFFFFFFFFFFFFF AND DUP2 JUMP JUMPDEST PUSH1 0x0 SWAP1 JUMP JUMPDEST PUSH1 0x0 PUSH2 0xF76 PUSH2 0x3004 JUMP JUMPDEST PUSH2 0xF80 DUP4 DUP4 PUSH2 0x324F JUMP JUMPDEST SWAP1 POP SWAP3 SWAP2 POP POP JUMP JUMPDEST PUSH2 0xF90 PUSH2 0x3071 JUMP JUMPDEST PUSH2 0xF98 PUSH2 0x3286 JUMP JUMPDEST JUMP JUMPDEST PUSH2 0xFA2 PUSH2 0x3071 JUMP JUMPDEST DUP1 PUSH1 0x42 PUSH1 0x0 DUP5 PUSH20 0xFFFFFFFFFFFFFFFFFFFFFFFFFFFFFFFFFFFFFFFF AND PUSH20 0xFFFFFFFFFFFFFFFFFFFFFFFFFFFFFFFFFFFFFFFF AND DUP2 MSTORE PUSH1 0x20 ADD SWAP1 DUP2 MSTORE PUSH1 0x20 ADD PUSH1 0x0 KECCAK256 PUSH1 0x0 PUSH2 0x100 EXP DUP2 SLOAD DUP2 PUSH16 0xFFFFFFFFFFFFFFFFFFFFFFFFFFFFFFFF MUL NOT AND SWAP1 DUP4 PUSH1 0x80 SHR MUL OR SWAP1 SSTORE POP POP POP JUMP JUMPDEST PUSH1 0x45 PUSH1 0x0 SWAP1 SLOAD SWAP1 PUSH2 0x100 EXP SWAP1 DIV PUSH20 0xFFFFFFFFFFFFFFFFFFFFFFFFFFFFFFFFFFFFFFFF AND DUP2 JUMP JUMPDEST PUSH1 0x0 PUSH1 0x3F PUSH1 0x0 SWAP1 SLOAD SWAP1 PUSH2 0x100 EXP SWAP1 DIV PUSH1 0xFF AND SWAP1 POP SWAP1 JUMP JUMPDEST PUSH1 0x60 DUP1 PUSH1 0x46 PUSH1 0x1 ADD PUSH1 0x46 PUSH1 0x0 ADD DUP2 DUP1 SLOAD PUSH2 0x1063 SWAP1 PUSH2 0x5F83 JUMP JUMPDEST DUP1 PUSH1 0x1F ADD PUSH1 0x20 DUP1 SWAP2 DIV MUL PUSH1 0x20 ADD PUSH1 0x40 MLOAD SWAP1 DUP2 ADD PUSH1 0x40 MSTORE DUP1 SWAP3 SWAP2 SWAP1 DUP2 DUP2 MSTORE PUSH1 0x20 ADD DUP3 DUP1 SLOAD PUSH2 0x108F SWAP1 PUSH2 0x5F83 JUMP JUMPDEST DUP1 ISZERO PUSH2 0x10DC JUMPI DUP1 PUSH1 0x1F LT PUSH2 0x10B1 JUMPI PUSH2 0x100 DUP1 DUP4 SLOAD DIV MUL DUP4 MSTORE SWAP2 PUSH1 0x20 ADD SWAP2 PUSH2 0x10DC JUMP JUMPDEST DUP3 ADD SWAP2 SWAP1 PUSH1 0x0 MSTORE PUSH1 0x20 PUSH1 0x0 KECCAK256 SWAP1 JUMPDEST DUP2 SLOAD DUP2 MSTORE SWAP1 PUSH1 0x1 ADD SWAP1 PUSH1 0x20 ADD DUP1 DUP4 GT PUSH2 0x10BF JUMPI DUP3 SWAP1 SUB PUSH1 0x1F AND DUP3 ADD SWAP2 JUMPDEST POP POP POP POP POP SWAP2 POP DUP1 DUP1 SLOAD PUSH2 0x10EF SWAP1 PUSH2 0x5F83 JUMP JUMPDEST DUP1 PUSH1 0x1F ADD PUSH1 0x20 DUP1 SWAP2 DIV MUL PUSH1 0x20 ADD PUSH1 0x40 MLOAD SWAP1 DUP2 ADD PUSH1 0x40 MSTORE DUP1 SWAP3 SWAP2 SWAP1 DUP2 DUP2 MSTORE PUSH1 0x20 ADD DUP3 DUP1 SLOAD PUSH2 0x111B SWAP1 PUSH2 0x5F83 JUMP JUMPDEST DUP1 ISZERO PUSH2 0x1168 JUMPI DUP1 PUSH1 0x1F LT PUSH2 0x113D JUMPI PUSH2 0x100 DUP1 DUP4 SLOAD DIV MUL DUP4 MSTORE SWAP2 PUSH1 0x20 ADD SWAP2 PUSH2 0x1168 JUMP JUMPDEST DUP3 ADD SWAP2 SWAP1 PUSH1 0x0 MSTORE PUSH1 0x20 PUSH1 0x0 KECCAK256 SWAP1 JUMPDEST DUP2 SLOAD DUP2 MSTORE SWAP1 PUSH1 0x1 ADD SWAP1 PUSH1 0x20 ADD DUP1 DUP4 GT PUSH2 0x114B JUMPI DUP3 SWAP1 SUB PUSH1 0x1F AND DUP3 ADD SWAP2 JUMPDEST POP POP POP POP POP SWAP1 POP SWAP2 POP SWAP2 POP SWAP1 SWAP2 JUMP JUMPDEST PUSH1 0x0 DUP1 PUSH1 0x0 PUSH2 0x1187 DUP5 PUSH1 0x6 PUSH2 0x32E9 JUMP JUMPDEST SWAP2 POP SWAP2 POP DUP2 PUSH2 0x119D JUMPI PUSH2 0x1198 PUSH2 0xA42 JUMP JUMPDEST PUSH2 0x119F JUMP JUMPDEST DUP1 JUMPDEST SWAP3 POP POP POP SWAP2 SWAP1 POP JUMP JUMPDEST PUSH2 0x11B0 PUSH2 0x3071 JUMP JUMPDEST DUP1 PUSH1 0x0 PUSH1 0x42 PUSH1 0x0 DUP4 PUSH20 0xFFFFFFFFFFFFFFFFFFFFFFFFFFFFFFFFFFFFFFFF AND PUSH20 0xFFFFFFFFFFFFFFFFFFFFFFFFFFFFFFFFFFFFFFFF AND DUP2 MSTORE PUSH1 0x20 ADD SWAP1 DUP2 MSTORE PUSH1 0x20 ADD PUSH1 0x0 KECCAK256 PUSH1 0x0 SWAP1 SLOAD SWAP1 PUSH2 0x100 EXP SWAP1 DIV PUSH1 0x80 SHL PUSH16 0xFFFFFFFFFFFFFFFFFFFFFFFFFFFFFFFF NOT AND EQ ISZERO PUSH2 0x1254 JUMPI PUSH1 0x40 MLOAD PUSH32 0x8C379A000000000000000000000000000000000000000000000000000000000 DUP2 MSTORE PUSH1 0x4 ADD PUSH2 0x124B SWAP1 PUSH2 0x596A JUMP JUMPDEST PUSH1 0x40 MLOAD DUP1 SWAP2 SUB SWAP1 REVERT JUMPDEST PUSH2 0x125C PUSH2 0x3004 JUMP JUMPDEST PUSH1 0x0 PUSH20 0xFFFFFFFFFFFFFFFFFFFFFFFFFFFFFFFFFFFFFFFF AND DUP4 PUSH20 0xFFFFFFFFFFFFFFFFFFFFFFFFFFFFFFFFFFFFFFFF AND EQ ISZERO PUSH2 0x12CC JUMPI PUSH1 0x40 MLOAD PUSH32 0x8C379A000000000000000000000000000000000000000000000000000000000 DUP2 MSTORE PUSH1 0x4 ADD PUSH2 0x12C3 SWAP1 PUSH2 0x592A JUMP JUMPDEST PUSH1 0x40 MLOAD DUP1 SWAP2 SUB SWAP1 REVERT JUMPDEST PUSH1 0x0 PUSH20 0xFFFFFFFFFFFFFFFFFFFFFFFFFFFFFFFFFFFFFFFF AND DUP3 PUSH20 0xFFFFFFFFFFFFFFFFFFFFFFFFFFFFFFFFFFFFFFFF AND EQ ISZERO PUSH2 0x133C JUMPI PUSH1 0x40 MLOAD PUSH32 0x8C379A000000000000000000000000000000000000000000000000000000000 DUP2 MSTORE PUSH1 0x4 ADD PUSH2 0x1333 SWAP1 PUSH2 0x592A JUMP JUMPDEST PUSH1 0x40 MLOAD DUP1 SWAP2 SUB SWAP1 REVERT JUMPDEST DUP2 PUSH20 0xFFFFFFFFFFFFFFFFFFFFFFFFFFFFFFFFFFFFFFFF AND DUP4 PUSH20 0xFFFFFFFFFFFFFFFFFFFFFFFFFFFFFFFFFFFFFFFF AND EQ ISZERO PUSH2 0x13AB JUMPI PUSH1 0x40 MLOAD PUSH32 0x8C379A000000000000000000000000000000000000000000000000000000000 DUP2 MSTORE PUSH1 0x4 ADD PUSH2 0x13A2 SWAP1 PUSH2 0x58CA JUMP JUMPDEST PUSH1 0x40 MLOAD DUP1 SWAP2 SUB SWAP1 REVERT JUMPDEST PUSH1 0x0 DUP1 PUSH1 0x0 DUP6 PUSH20 0xFFFFFFFFFFFFFFFFFFFFFFFFFFFFFFFFFFFFFFFF AND PUSH20 0xFFFFFFFFFFFFFFFFFFFFFFFFFFFFFFFFFFFFFFFF AND DUP2 MSTORE PUSH1 0x20 ADD SWAP1 DUP2 MSTORE PUSH1 0x20 ADD PUSH1 0x0 KECCAK256 SLOAD SWAP1 POP PUSH1 0x0 DUP2 EQ ISZERO PUSH2 0x1432 JUMPI PUSH1 0x40 MLOAD PUSH32 0x8C379A000000000000000000000000000000000000000000000000000000000 DUP2 MSTORE PUSH1 0x4 ADD PUSH2 0x1429 SWAP1 PUSH2 0x594A JUMP JUMPDEST PUSH1 0x40 MLOAD DUP1 SWAP2 SUB SWAP1 REVERT JUMPDEST DUP1 PUSH1 0x0 DUP1 DUP6 PUSH20 0xFFFFFFFFFFFFFFFFFFFFFFFFFFFFFFFFFFFFFFFF AND PUSH20 0xFFFFFFFFFFFFFFFFFFFFFFFFFFFFFFFFFFFFFFFF AND DUP2 MSTORE PUSH1 0x20 ADD SWAP1 DUP2 MSTORE PUSH1 0x20 ADD PUSH1 0x0 KECCAK256 SLOAD PUSH2 0x147C SWAP2 SWAP1 PUSH2 0x5D03 JUMP JUMPDEST PUSH1 0x0 DUP1 DUP6 PUSH20 0xFFFFFFFFFFFFFFFFFFFFFFFFFFFFFFFFFFFFFFFF AND PUSH20 0xFFFFFFFFFFFFFFFFFFFFFFFFFFFFFFFFFFFFFFFF AND DUP2 MSTORE PUSH1 0x20 ADD SWAP1 DUP2 MSTORE PUSH1 0x20 ADD PUSH1 0x0 KECCAK256 DUP2 SWAP1 SSTORE POP PUSH1 0x0 DUP1 PUSH1 0x0 DUP7 PUSH20 0xFFFFFFFFFFFFFFFFFFFFFFFFFFFFFFFFFFFFFFFF AND PUSH20 0xFFFFFFFFFFFFFFFFFFFFFFFFFFFFFFFFFFFFFFFF AND DUP2 MSTORE PUSH1 0x20 ADD SWAP1 DUP2 MSTORE PUSH1 0x20 ADD PUSH1 0x0 KECCAK256 DUP2 SWAP1 SSTORE POP PUSH1 0x41 PUSH1 0x0 DUP5 PUSH20 0xFFFFFFFFFFFFFFFFFFFFFFFFFFFFFFFFFFFFFFFF AND PUSH20 0xFFFFFFFFFFFFFFFFFFFFFFFFFFFFFFFFFFFFFFFF AND DUP2 MSTORE PUSH1 0x20 ADD SWAP1 DUP2 MSTORE PUSH1 0x20 ADD PUSH1 0x0 KECCAK256 PUSH1 0x0 SWAP1 SLOAD SWAP1 PUSH2 0x100 EXP SWAP1 DIV PUSH1 0xFF AND PUSH2 0x160F JUMPI PUSH1 0x1 PUSH1 0x41 PUSH1 0x0 DUP6 PUSH20 0xFFFFFFFFFFFFFFFFFFFFFFFFFFFFFFFFFFFFFFFF AND PUSH20 0xFFFFFFFFFFFFFFFFFFFFFFFFFFFFFFFFFFFFFFFF AND DUP2 MSTORE PUSH1 0x20 ADD SWAP1 DUP2 MSTORE PUSH1 0x20 ADD PUSH1 0x0 KECCAK256 PUSH1 0x0 PUSH2 0x100 EXP DUP2 SLOAD DUP2 PUSH1 0xFF MUL NOT AND SWAP1 DUP4 ISZERO ISZERO MUL OR SWAP1 SSTORE POP PUSH1 0x40 DUP4 SWAP1 DUP1 PUSH1 0x1 DUP2 SLOAD ADD DUP1 DUP3 SSTORE DUP1 SWAP2 POP POP PUSH1 0x1 SWAP1 SUB SWAP1 PUSH1 0x0 MSTORE PUSH1 0x20 PUSH1 0x0 KECCAK256 ADD PUSH1 0x0 SWAP1 SWAP2 SWAP1 SWAP2 SWAP1 SWAP2 PUSH2 0x100 EXP DUP2 SLOAD DUP2 PUSH20 0xFFFFFFFFFFFFFFFFFFFFFFFFFFFFFFFFFFFFFFFF MUL NOT AND SWAP1 DUP4 PUSH20 0xFFFFFFFFFFFFFFFFFFFFFFFFFFFFFFFFFFFFFFFF AND MUL OR SWAP1 SSTORE POP JUMPDEST DUP3 PUSH20 0xFFFFFFFFFFFFFFFFFFFFFFFFFFFFFFFFFFFFFFFF AND DUP5 PUSH20 0xFFFFFFFFFFFFFFFFFFFFFFFFFFFFFFFFFFFFFFFF AND PUSH32 0xDDF252AD1BE2C89B69C2B068FC378DAA952BA7F163C4A11628F55A4DF523B3EF DUP4 PUSH1 0x40 MLOAD PUSH2 0x166C SWAP2 SWAP1 PUSH2 0x5ACA JUMP JUMPDEST PUSH1 0x40 MLOAD DUP1 SWAP2 SUB SWAP1 LOG3 DUP3 PUSH20 0xFFFFFFFFFFFFFFFFFFFFFFFFFFFFFFFFFFFFFFFF AND DUP5 PUSH20 0xFFFFFFFFFFFFFFFFFFFFFFFFFFFFFFFFFFFFFFFF AND PUSH32 0x9B50BB42C2F723A111ED2B4A02D7963B78FCEF409123755E32DB36ACF004C721 DUP4 PUSH1 0x40 MLOAD PUSH2 0x16D1 SWAP2 SWAP1 PUSH2 0x5ACA JUMP JUMPDEST PUSH1 0x40 MLOAD DUP1 SWAP2 SUB SWAP1 LOG3 POP POP POP POP JUMP JUMPDEST PUSH1 0x0 DUP1 PUSH1 0x0 PUSH2 0x172C DUP6 PUSH1 0x5 PUSH1 0x0 DUP8 PUSH20 0xFFFFFFFFFFFFFFFFFFFFFFFFFFFFFFFFFFFFFFFF AND PUSH20 0xFFFFFFFFFFFFFFFFFFFFFFFFFFFFFFFFFFFFFFFF AND DUP2 MSTORE PUSH1 0x20 ADD SWAP1 DUP2 MSTORE PUSH1 0x20 ADD PUSH1 0x0 KECCAK256 PUSH2 0x32E9 JUMP JUMPDEST SWAP2 POP SWAP2 POP DUP2 PUSH2 0x1743 JUMPI PUSH2 0x173E DUP5 PUSH2 0x1775 JUMP JUMPDEST PUSH2 0x1745 JUMP JUMPDEST DUP1 JUMPDEST SWAP3 POP POP POP SWAP3 SWAP2 POP POP JUMP JUMPDEST PUSH2 0x1757 PUSH2 0x3071 JUMP JUMPDEST DUP1 PUSH1 0x43 PUSH1 0x14 PUSH2 0x100 EXP DUP2 SLOAD DUP2 PUSH1 0xFF MUL NOT AND SWAP1 DUP4 PUSH1 0xFF AND MUL OR SWAP1 SSTORE POP POP JUMP JUMPDEST PUSH1 0x0 DUP1 PUSH1 0x0 DUP4 PUSH20 0xFFFFFFFFFFFFFFFFFFFFFFFFFFFFFFFFFFFFFFFF AND PUSH20 0xFFFFFFFFFFFFFFFFFFFFFFFFFFFFFFFFFFFFFFFF AND DUP2 MSTORE PUSH1 0x20 ADD SWAP1 DUP2 MSTORE PUSH1 0x20 ADD PUSH1 0x0 KECCAK256 SLOAD SWAP1 POP SWAP2 SWAP1 POP JUMP JUMPDEST PUSH2 0x17C5 PUSH2 0x3071 JUMP JUMPDEST DUP1 MLOAD DUP3 MLOAD EQ PUSH2 0x1809 JUMPI PUSH1 0x40 MLOAD PUSH32 0x8C379A000000000000000000000000000000000000000000000000000000000 DUP2 MSTORE PUSH1 0x4 ADD PUSH2 0x1800 SWAP1 PUSH2 0x580A JUMP JUMPDEST PUSH1 0x40 MLOAD DUP1 SWAP2 SUB SWAP1 REVERT JUMPDEST PUSH1 0x0 JUMPDEST DUP3 MLOAD DUP2 LT ISZERO PUSH2 0x188A JUMPI DUP2 DUP2 DUP2 MLOAD DUP2 LT PUSH2 0x1828 JUMPI PUSH2 0x1827 PUSH2 0x6105 JUMP JUMPDEST JUMPDEST PUSH1 0x20 MUL PUSH1 0x20 ADD ADD MLOAD PUSH1 0x3E PUSH1 0x0 DUP6 DUP5 DUP2 MLOAD DUP2 LT PUSH2 0x1847 JUMPI PUSH2 0x1846 PUSH2 0x6105 JUMP JUMPDEST JUMPDEST PUSH1 0x20 MUL PUSH1 0x20 ADD ADD MLOAD PUSH1 0xFF AND PUSH1 0xFF AND DUP2 MSTORE PUSH1 0x20 ADD SWAP1 DUP2 MSTORE PUSH1 0x20 ADD PUSH1 0x0 KECCAK256 SWAP1 DUP1 MLOAD SWAP1 PUSH1 0x20 ADD SWAP1 PUSH2 0x1876 SWAP3 SWAP2 SWAP1 PUSH2 0x45A4 JUMP JUMPDEST POP DUP1 DUP1 PUSH2 0x1882 SWAP1 PUSH2 0x6000 JUMP JUMPDEST SWAP2 POP POP PUSH2 0x180C JUMP JUMPDEST POP POP POP JUMP JUMPDEST PUSH2 0x1897 PUSH2 0x3071 JUMP JUMPDEST PUSH2 0x18A1 PUSH1 0x0 PUSH2 0x3352 JUMP JUMPDEST JUMP JUMPDEST PUSH1 0x60 PUSH1 0x0 PUSH1 0x3E PUSH1 0x0 DUP5 PUSH1 0xFF AND PUSH1 0xFF AND DUP2 MSTORE PUSH1 0x20 ADD SWAP1 DUP2 MSTORE PUSH1 0x20 ADD PUSH1 0x0 KECCAK256 DUP1 SLOAD PUSH2 0x18CB SWAP1 PUSH2 0x5F83 JUMP JUMPDEST SWAP1 POP EQ PUSH2 0x197B JUMPI PUSH1 0x3E PUSH1 0x0 DUP4 PUSH1 0xFF AND PUSH1 0xFF AND DUP2 MSTORE PUSH1 0x20 ADD SWAP1 DUP2 MSTORE PUSH1 0x20 ADD PUSH1 0x0 KECCAK256 DUP1 SLOAD PUSH2 0x18F6 SWAP1 PUSH2 0x5F83 JUMP JUMPDEST DUP1 PUSH1 0x1F ADD PUSH1 0x20 DUP1 SWAP2 DIV MUL PUSH1 0x20 ADD PUSH1 0x40 MLOAD SWAP1 DUP2 ADD PUSH1 0x40 MSTORE DUP1 SWAP3 SWAP2 SWAP1 DUP2 DUP2 MSTORE PUSH1 0x20 ADD DUP3 DUP1 SLOAD PUSH2 0x1922 SWAP1 PUSH2 0x5F83 JUMP JUMPDEST DUP1 ISZERO PUSH2 0x196F JUMPI DUP1 PUSH1 0x1F LT PUSH2 0x1944 JUMPI PUSH2 0x100 DUP1 DUP4 SLOAD DIV MUL DUP4 MSTORE SWAP2 PUSH1 0x20 ADD SWAP2 PUSH2 0x196F JUMP JUMPDEST DUP3 ADD SWAP2 SWAP1 PUSH1 0x0 MSTORE PUSH1 0x20 PUSH1 0x0 KECCAK256 SWAP1 JUMPDEST DUP2 SLOAD DUP2 MSTORE SWAP1 PUSH1 0x1 ADD SWAP1 PUSH1 0x20 ADD DUP1 DUP4 GT PUSH2 0x1952 JUMPI DUP3 SWAP1 SUB PUSH1 0x1F AND DUP3 ADD SWAP2 JUMPDEST POP POP POP POP POP SWAP1 POP PUSH2 0x1A89 JUMP JUMPDEST PUSH1 0x0 PUSH20 0xFFFFFFFFFFFFFFFFFFFFFFFFFFFFFFFFFFFFFFFF AND PUSH1 0x43 PUSH1 0x0 SWAP1 SLOAD SWAP1 PUSH2 0x100 EXP SWAP1 DIV PUSH20 0xFFFFFFFFFFFFFFFFFFFFFFFFFFFFFFFFFFFFFFFF AND PUSH20 0xFFFFFFFFFFFFFFFFFFFFFFFFFFFFFFFFFFFFFFFF AND EQ PUSH2 0x1A88 JUMPI PUSH1 0x43 PUSH1 0x0 SWAP1 SLOAD SWAP1 PUSH2 0x100 EXP SWAP1 DIV PUSH20 0xFFFFFFFFFFFFFFFFFFFFFFFFFFFFFFFFFFFFFFFF AND PUSH20 0xFFFFFFFFFFFFFFFFFFFFFFFFFFFFFFFFFFFFFFFF AND PUSH4 0x7F4AB1DD DUP4 PUSH1 0x40 MLOAD DUP3 PUSH4 0xFFFFFFFF AND PUSH1 0xE0 SHL DUP2 MSTORE PUSH1 0x4 ADD PUSH2 0x1A2C SWAP2 SWAP1 PUSH2 0x5AE5 JUMP JUMPDEST PUSH1 0x0 PUSH1 0x40 MLOAD DUP1 DUP4 SUB DUP2 DUP7 DUP1 EXTCODESIZE ISZERO DUP1 ISZERO PUSH2 0x1A44 JUMPI PUSH1 0x0 DUP1 REVERT JUMPDEST POP GAS STATICCALL ISZERO DUP1 ISZERO PUSH2 0x1A58 JUMPI RETURNDATASIZE PUSH1 0x0 DUP1 RETURNDATACOPY RETURNDATASIZE PUSH1 0x0 REVERT JUMPDEST POP POP POP POP PUSH1 0x40 MLOAD RETURNDATASIZE PUSH1 0x0 DUP3 RETURNDATACOPY RETURNDATASIZE PUSH1 0x1F NOT PUSH1 0x1F DUP3 ADD AND DUP3 ADD DUP1 PUSH1 0x40 MSTORE POP DUP2 ADD SWAP1 PUSH2 0x1A81 SWAP2 SWAP1 PUSH2 0x4EE7 JUMP JUMPDEST SWAP1 POP PUSH2 0x1A89 JUMP JUMPDEST JUMPDEST SWAP2 SWAP1 POP JUMP JUMPDEST PUSH2 0x1A96 PUSH2 0x3071 JUMP JUMPDEST PUSH2 0x1A9E PUSH2 0x3418 JUMP JUMPDEST JUMP JUMPDEST PUSH2 0x1AA8 PUSH2 0x3004 JUMP JUMPDEST DUP1 MLOAD DUP3 MLOAD EQ PUSH2 0x1AEC JUMPI PUSH1 0x40 MLOAD PUSH32 0x8C379A000000000000000000000000000000000000000000000000000000000 DUP2 MSTORE PUSH1 0x4 ADD PUSH2 0x1AE3 SWAP1 PUSH2 0x59CA JUMP JUMPDEST PUSH1 0x40 MLOAD DUP1 SWAP2 SUB SWAP1 REVERT JUMPDEST PUSH1 0x0 JUMPDEST DUP3 MLOAD DUP2 LT ISZERO PUSH2 0x1D83 JUMPI PUSH1 0x0 PUSH1 0x80 SHL PUSH1 0x42 PUSH1 0x0 DUP6 DUP5 DUP2 MLOAD DUP2 LT PUSH2 0x1B14 JUMPI PUSH2 0x1B13 PUSH2 0x6105 JUMP JUMPDEST JUMPDEST PUSH1 0x20 MUL PUSH1 0x20 ADD ADD MLOAD PUSH20 0xFFFFFFFFFFFFFFFFFFFFFFFFFFFFFFFFFFFFFFFF AND PUSH20 0xFFFFFFFFFFFFFFFFFFFFFFFFFFFFFFFFFFFFFFFF AND DUP2 MSTORE PUSH1 0x20 ADD SWAP1 DUP2 MSTORE PUSH1 0x20 ADD PUSH1 0x0 KECCAK256 PUSH1 0x0 SWAP1 SLOAD SWAP1 PUSH2 0x100 EXP SWAP1 DIV PUSH1 0x80 SHL PUSH16 0xFFFFFFFFFFFFFFFFFFFFFFFFFFFFFFFF NOT AND EQ ISZERO PUSH2 0x1BB8 JUMPI PUSH1 0x40 MLOAD PUSH32 0x8C379A000000000000000000000000000000000000000000000000000000000 DUP2 MSTORE PUSH1 0x4 ADD PUSH2 0x1BAF SWAP1 PUSH2 0x590A JUMP JUMPDEST PUSH1 0x40 MLOAD DUP1 SWAP2 SUB SWAP1 REVERT JUMPDEST PUSH1 0x0 PUSH20 0xFFFFFFFFFFFFFFFFFFFFFFFFFFFFFFFFFFFFFFFF AND PUSH1 0x43 PUSH1 0x0 SWAP1 SLOAD SWAP1 PUSH2 0x100 EXP SWAP1 DIV PUSH20 0xFFFFFFFFFFFFFFFFFFFFFFFFFFFFFFFFFFFFFFFF AND PUSH20 0xFFFFFFFFFFFFFFFFFFFFFFFFFFFFFFFFFFFFFFFF AND EQ PUSH2 0x1D70 JUMPI PUSH1 0x43 PUSH1 0x0 SWAP1 SLOAD SWAP1 PUSH2 0x100 EXP SWAP1 DIV PUSH20 0xFFFFFFFFFFFFFFFFFFFFFFFFFFFFFFFFFFFFFFFF AND PUSH20 0xFFFFFFFFFFFFFFFFFFFFFFFFFFFFFFFFFFFFFFFF AND PUSH4 0xC6946A12 CALLER DUP6 DUP5 DUP2 MLOAD DUP2 LT PUSH2 0x1C60 JUMPI PUSH2 0x1C5F PUSH2 0x6105 JUMP JUMPDEST JUMPDEST PUSH1 0x20 MUL PUSH1 0x20 ADD ADD MLOAD DUP6 DUP6 DUP2 MLOAD DUP2 LT PUSH2 0x1C7B JUMPI PUSH2 0x1C7A PUSH2 0x6105 JUMP JUMPDEST JUMPDEST PUSH1 0x20 MUL PUSH1 0x20 ADD ADD MLOAD PUSH1 0x40 MLOAD DUP5 PUSH4 0xFFFFFFFF AND PUSH1 0xE0 SHL DUP2 MSTORE PUSH1 0x4 ADD PUSH2 0x1CA1 SWAP4 SWAP3 SWAP2 SWAP1 PUSH2 0x5604 JUMP JUMPDEST PUSH1 0x20 PUSH1 0x40 MLOAD DUP1 DUP4 SUB DUP2 DUP7 DUP1 EXTCODESIZE ISZERO DUP1 ISZERO PUSH2 0x1CB9 JUMPI PUSH1 0x0 DUP1 REVERT JUMPDEST POP GAS STATICCALL ISZERO DUP1 ISZERO PUSH2 0x1CCD JUMPI RETURNDATASIZE PUSH1 0x0 DUP1 RETURNDATACOPY RETURNDATASIZE PUSH1 0x0 REVERT JUMPDEST POP POP POP POP PUSH1 0x40 MLOAD RETURNDATASIZE PUSH1 0x1F NOT PUSH1 0x1F DUP3 ADD AND DUP3 ADD DUP1 PUSH1 0x40 MSTORE POP DUP2 ADD SWAP1 PUSH2 0x1CF1 SWAP2 SWAP1 PUSH2 0x4E8D JUMP JUMPDEST PUSH2 0x1D30 JUMPI PUSH1 0x40 MLOAD PUSH32 0x8C379A000000000000000000000000000000000000000000000000000000000 DUP2 MSTORE PUSH1 0x4 ADD PUSH2 0x1D27 SWAP1 PUSH2 0x57AA JUMP JUMPDEST PUSH1 0x40 MLOAD DUP1 SWAP2 SUB SWAP1 REVERT JUMPDEST PUSH2 0x1D6E DUP4 DUP3 DUP2 MLOAD DUP2 LT PUSH2 0x1D46 JUMPI PUSH2 0x1D45 PUSH2 0x6105 JUMP JUMPDEST JUMPDEST PUSH1 0x20 MUL PUSH1 0x20 ADD ADD MLOAD DUP4 DUP4 DUP2 MLOAD DUP2 LT PUSH2 0x1D61 JUMPI PUSH2 0x1D60 PUSH2 0x6105 JUMP JUMPDEST JUMPDEST PUSH1 0x20 MUL PUSH1 0x20 ADD ADD MLOAD PUSH2 0x347B JUMP JUMPDEST POP JUMPDEST DUP1 DUP1 PUSH2 0x1D7B SWAP1 PUSH2 0x6000 JUMP JUMPDEST SWAP2 POP POP PUSH2 0x1AEF JUMP JUMPDEST POP POP POP JUMP JUMPDEST PUSH1 0x0 PUSH1 0x3D PUSH1 0x0 SWAP1 SLOAD SWAP1 PUSH2 0x100 EXP SWAP1 DIV PUSH20 0xFFFFFFFFFFFFFFFFFFFFFFFFFFFFFFFFFFFFFFFF AND SWAP1 POP SWAP1 JUMP JUMPDEST PUSH1 0x60 PUSH1 0x4 DUP1 SLOAD PUSH2 0x1DC1 SWAP1 PUSH2 0x5F83 JUMP JUMPDEST DUP1 PUSH1 0x1F ADD PUSH1 0x20 DUP1 SWAP2 DIV MUL PUSH1 0x20 ADD PUSH1 0x40 MLOAD SWAP1 DUP2 ADD PUSH1 0x40 MSTORE DUP1 SWAP3 SWAP2 SWAP1 DUP2 DUP2 MSTORE PUSH1 0x20 ADD DUP3 DUP1 SLOAD PUSH2 0x1DED SWAP1 PUSH2 0x5F83 JUMP JUMPDEST DUP1 ISZERO PUSH2 0x1E3A JUMPI DUP1 PUSH1 0x1F LT PUSH2 0x1E0F JUMPI PUSH2 0x100 DUP1 DUP4 SLOAD DIV MUL DUP4 MSTORE SWAP2 PUSH1 0x20 ADD SWAP2 PUSH2 0x1E3A JUMP JUMPDEST DUP3 ADD SWAP2 SWAP1 PUSH1 0x0 MSTORE PUSH1 0x20 PUSH1 0x0 KECCAK256 SWAP1 JUMPDEST DUP2 SLOAD DUP2 MSTORE SWAP1 PUSH1 0x1 ADD SWAP1 PUSH1 0x20 ADD DUP1 DUP4 GT PUSH2 0x1E1D JUMPI DUP3 SWAP1 SUB PUSH1 0x1F AND DUP3 ADD SWAP2 JUMPDEST POP POP POP POP POP SWAP1 POP SWAP1 JUMP JUMPDEST PUSH1 0x0 PUSH1 0x42 PUSH1 0x0 CALLER PUSH20 0xFFFFFFFFFFFFFFFFFFFFFFFFFFFFFFFFFFFFFFFF AND PUSH20 0xFFFFFFFFFFFFFFFFFFFFFFFFFFFFFFFFFFFFFFFF AND DUP2 MSTORE PUSH1 0x20 ADD SWAP1 DUP2 MSTORE PUSH1 0x20 ADD PUSH1 0x0 KECCAK256 PUSH1 0x0 SWAP1 SLOAD SWAP1 PUSH2 0x100 EXP SWAP1 DIV PUSH1 0x80 SHL SWAP1 POP SWAP1 JUMP JUMPDEST PUSH2 0x1EA0 PUSH2 0x3071 JUMP JUMPDEST PUSH2 0x1EA9 DUP2 PUSH2 0x349E JUMP JUMPDEST POP POP JUMP JUMPDEST PUSH1 0x0 PUSH2 0x1EB7 PUSH2 0x3004 JUMP JUMPDEST PUSH2 0x1EC1 DUP4 DUP4 PUSH2 0x3592 JUMP JUMPDEST SWAP1 POP SWAP3 SWAP2 POP POP JUMP JUMPDEST PUSH2 0x1ED1 PUSH2 0x3071 JUMP JUMPDEST DUP1 PUSH1 0x43 PUSH1 0x0 PUSH2 0x100 EXP DUP2 SLOAD DUP2 PUSH20 0xFFFFFFFFFFFFFFFFFFFFFFFFFFFFFFFFFFFFFFFF MUL NOT AND SWAP1 DUP4 PUSH20 0xFFFFFFFFFFFFFFFFFFFFFFFFFFFFFFFFFFFFFFFF AND MUL OR SWAP1 SSTORE POP DUP1 PUSH20 0xFFFFFFFFFFFFFFFFFFFFFFFFFFFFFFFFFFFFFFFF AND PUSH32 0xC821FEE57F621FAD293A6960B94DE2653A70BCC62506EA4F85149777B45901FE PUSH1 0x40 MLOAD PUSH1 0x40 MLOAD DUP1 SWAP2 SUB SWAP1 LOG2 POP JUMP JUMPDEST PUSH1 0x0 DUP3 PUSH1 0x0 PUSH1 0x42 PUSH1 0x0 DUP4 PUSH20 0xFFFFFFFFFFFFFFFFFFFFFFFFFFFFFFFFFFFFFFFF AND PUSH20 0xFFFFFFFFFFFFFFFFFFFFFFFFFFFFFFFFFFFFFFFF AND DUP2 MSTORE PUSH1 0x20 ADD SWAP1 DUP2 MSTORE PUSH1 0x20 ADD PUSH1 0x0 KECCAK256 PUSH1 0x0 SWAP1 SLOAD SWAP1 PUSH2 0x100 EXP SWAP1 DIV PUSH1 0x80 SHL PUSH16 0xFFFFFFFFFFFFFFFFFFFFFFFFFFFFFFFF NOT AND EQ ISZERO PUSH2 0x1FFE JUMPI PUSH1 0x40 MLOAD PUSH32 0x8C379A000000000000000000000000000000000000000000000000000000000 DUP2 MSTORE PUSH1 0x4 ADD PUSH2 0x1FF5 SWAP1 PUSH2 0x596A JUMP JUMPDEST PUSH1 0x40 MLOAD DUP1 SWAP2 SUB SWAP1 REVERT JUMPDEST PUSH2 0x2006 PUSH2 0x3004 JUMP JUMPDEST PUSH1 0x0 PUSH20 0xFFFFFFFFFFFFFFFFFFFFFFFFFFFFFFFFFFFFFFFF AND PUSH1 0x43 PUSH1 0x0 SWAP1 SLOAD SWAP1 PUSH2 0x100 EXP SWAP1 DIV PUSH20 0xFFFFFFFFFFFFFFFFFFFFFFFFFFFFFFFFFFFFFFFF AND PUSH20 0xFFFFFFFFFFFFFFFFFFFFFFFFFFFFFFFFFFFFFFFF AND EQ PUSH2 0x214B JUMPI PUSH1 0x43 PUSH1 0x0 SWAP1 SLOAD SWAP1 PUSH2 0x100 EXP SWAP1 DIV PUSH20 0xFFFFFFFFFFFFFFFFFFFFFFFFFFFFFFFFFFFFFFFF AND PUSH20 0xFFFFFFFFFFFFFFFFFFFFFFFFFFFFFFFFFFFFFFFF AND PUSH4 0xC6946A12 CALLER DUP7 DUP7 PUSH1 0x40 MLOAD DUP5 PUSH4 0xFFFFFFFF AND PUSH1 0xE0 SHL DUP2 MSTORE PUSH1 0x4 ADD PUSH2 0x20BB SWAP4 SWAP3 SWAP2 SWAP1 PUSH2 0x5604 JUMP JUMPDEST PUSH1 0x20 PUSH1 0x40 MLOAD DUP1 DUP4 SUB DUP2 DUP7 DUP1 EXTCODESIZE ISZERO DUP1 ISZERO PUSH2 0x20D3 JUMPI PUSH1 0x0 DUP1 REVERT JUMPDEST POP GAS STATICCALL ISZERO DUP1 ISZERO PUSH2 0x20E7 JUMPI RETURNDATASIZE PUSH1 0x0 DUP1 RETURNDATACOPY RETURNDATASIZE PUSH1 0x0 REVERT JUMPDEST POP POP POP POP PUSH1 0x40 MLOAD RETURNDATASIZE PUSH1 0x1F NOT PUSH1 0x1F DUP3 ADD AND DUP3 ADD DUP1 PUSH1 0x40 MSTORE POP DUP2 ADD SWAP1 PUSH2 0x210B SWAP2 SWAP1 PUSH2 0x4E8D JUMP JUMPDEST PUSH2 0x214A JUMPI PUSH1 0x40 MLOAD PUSH32 0x8C379A000000000000000000000000000000000000000000000000000000000 DUP2 MSTORE PUSH1 0x4 ADD PUSH2 0x2141 SWAP1 PUSH2 0x57AA JUMP JUMPDEST PUSH1 0x40 MLOAD DUP1 SWAP2 SUB SWAP1 REVERT JUMPDEST JUMPDEST PUSH1 0x41 PUSH1 0x0 DUP6 PUSH20 0xFFFFFFFFFFFFFFFFFFFFFFFFFFFFFFFFFFFFFFFF AND PUSH20 0xFFFFFFFFFFFFFFFFFFFFFFFFFFFFFFFFFFFFFFFF AND DUP2 MSTORE PUSH1 0x20 ADD SWAP1 DUP2 MSTORE PUSH1 0x20 ADD PUSH1 0x0 KECCAK256 PUSH1 0x0 SWAP1 SLOAD SWAP1 PUSH2 0x100 EXP SWAP1 DIV PUSH1 0xFF AND PUSH2 0x2258 JUMPI PUSH1 0x1 PUSH1 0x41 PUSH1 0x0 DUP7 PUSH20 0xFFFFFFFFFFFFFFFFFFFFFFFFFFFFFFFFFFFFFFFF AND PUSH20 0xFFFFFFFFFFFFFFFFFFFFFFFFFFFFFFFFFFFFFFFF AND DUP2 MSTORE PUSH1 0x20 ADD SWAP1 DUP2 MSTORE PUSH1 0x20 ADD PUSH1 0x0 KECCAK256 PUSH1 0x0 PUSH2 0x100 EXP DUP2 SLOAD DUP2 PUSH1 0xFF MUL NOT AND SWAP1 DUP4 ISZERO ISZERO MUL OR SWAP1 SSTORE POP PUSH1 0x40 DUP5 SWAP1 DUP1 PUSH1 0x1 DUP2 SLOAD ADD DUP1 DUP3 SSTORE DUP1 SWAP2 POP POP PUSH1 0x1 SWAP1 SUB SWAP1 PUSH1 0x0 MSTORE PUSH1 0x20 PUSH1 0x0 KECCAK256 ADD PUSH1 0x0 SWAP1 SWAP2 SWAP1 SWAP2 SWAP1 SWAP2 PUSH2 0x100 EXP DUP2 SLOAD DUP2 PUSH20 0xFFFFFFFFFFFFFFFFFFFFFFFFFFFFFFFFFFFFFFFF MUL NOT AND SWAP1 DUP4 PUSH20 0xFFFFFFFFFFFFFFFFFFFFFFFFFFFFFFFFFFFFFFFF AND MUL OR SWAP1 SSTORE POP JUMPDEST PUSH2 0x2262 DUP5 DUP5 PUSH2 0x347B JUMP JUMPDEST SWAP2 POP POP SWAP3 SWAP2 POP POP JUMP JUMPDEST PUSH1 0x40 DUP2 DUP2 SLOAD DUP2 LT PUSH2 0x227B JUMPI PUSH1 0x0 DUP1 REVERT JUMPDEST SWAP1 PUSH1 0x0 MSTORE PUSH1 0x20 PUSH1 0x0 KECCAK256 ADD PUSH1 0x0 SWAP2 POP SLOAD SWAP1 PUSH2 0x100 EXP SWAP1 DIV PUSH20 0xFFFFFFFFFFFFFFFFFFFFFFFFFFFFFFFFFFFFFFFF AND DUP2 JUMP JUMPDEST DUP3 PUSH1 0x0 PUSH1 0x42 PUSH1 0x0 DUP4 PUSH20 0xFFFFFFFFFFFFFFFFFFFFFFFFFFFFFFFFFFFFFFFF AND PUSH20 0xFFFFFFFFFFFFFFFFFFFFFFFFFFFFFFFFFFFFFFFF AND DUP2 MSTORE PUSH1 0x20 ADD SWAP1 DUP2 MSTORE PUSH1 0x20 ADD PUSH1 0x0 KECCAK256 PUSH1 0x0 SWAP1 SLOAD SWAP1 PUSH2 0x100 EXP SWAP1 DIV PUSH1 0x80 SHL PUSH16 0xFFFFFFFFFFFFFFFFFFFFFFFFFFFFFFFF NOT AND EQ ISZERO PUSH2 0x234E JUMPI PUSH1 0x40 MLOAD PUSH32 0x8C379A000000000000000000000000000000000000000000000000000000000 DUP2 MSTORE PUSH1 0x4 ADD PUSH2 0x2345 SWAP1 PUSH2 0x596A JUMP JUMPDEST PUSH1 0x40 MLOAD DUP1 SWAP2 SUB SWAP1 REVERT JUMPDEST PUSH1 0x44 PUSH1 0x0 SWAP1 SLOAD SWAP1 PUSH2 0x100 EXP SWAP1 DIV PUSH20 0xFFFFFFFFFFFFFFFFFFFFFFFFFFFFFFFFFFFFFFFF AND PUSH20 0xFFFFFFFFFFFFFFFFFFFFFFFFFFFFFFFFFFFFFFFF AND CALLER PUSH20 0xFFFFFFFFFFFFFFFFFFFFFFFFFFFFFFFFFFFFFFFF AND EQ PUSH2 0x23D5 JUMPI PUSH1 0x40 MLOAD PUSH32 0xA6C1FF4800000000000000000000000000000000000000000000000000000000 DUP2 MSTORE PUSH1 0x4 ADD PUSH1 0x40 MLOAD DUP1 SWAP2 SUB SWAP1 REVERT JUMPDEST PUSH1 0x45 PUSH1 0x0 SWAP1 SLOAD SWAP1 PUSH2 0x100 EXP SWAP1 DIV PUSH20 0xFFFFFFFFFFFFFFFFFFFFFFFFFFFFFFFFFFFFFFFF AND PUSH20 0xFFFFFFFFFFFFFFFFFFFFFFFFFFFFFFFFFFFFFFFF AND DUP5 PUSH20 0xFFFFFFFFFFFFFFFFFFFFFFFFFFFFFFFFFFFFFFFF AND EQ PUSH2 0x246C JUMPI PUSH2 0x2434 DUP5 DUP5 PUSH2 0x3609 JUMP JUMPDEST PUSH32 0x5AA5D4DBB3BDC35FE42446BA12FC59CDD56EE008D5A8159BA5E5FB5834734F62 DUP4 PUSH1 0x40 MLOAD PUSH2 0x2463 SWAP2 SWAP1 PUSH2 0x5ACA JUMP JUMPDEST PUSH1 0x40 MLOAD DUP1 SWAP2 SUB SWAP1 LOG1 JUMPDEST POP POP POP POP JUMP JUMPDEST PUSH2 0x247A PUSH2 0x3071 JUMP JUMPDEST PUSH1 0x0 JUMPDEST DUP3 DUP3 SWAP1 POP DUP2 LT ISZERO PUSH2 0x2797 JUMPI PUSH2 0x2490 PUSH2 0x1D88 JUMP JUMPDEST PUSH20 0xFFFFFFFFFFFFFFFFFFFFFFFFFFFFFFFFFFFFFFFF AND PUSH1 0x40 DUP3 DUP2 SLOAD DUP2 LT PUSH2 0x24BA JUMPI PUSH2 0x24B9 PUSH2 0x6105 JUMP JUMPDEST JUMPDEST SWAP1 PUSH1 0x0 MSTORE PUSH1 0x20 PUSH1 0x0 KECCAK256 ADD PUSH1 0x0 SWAP1 SLOAD SWAP1 PUSH2 0x100 EXP SWAP1 DIV PUSH20 0xFFFFFFFFFFFFFFFFFFFFFFFFFFFFFFFFFFFFFFFF AND PUSH20 0xFFFFFFFFFFFFFFFFFFFFFFFFFFFFFFFFFFFFFFFF AND EQ ISZERO PUSH2 0x253C JUMPI PUSH1 0x40 MLOAD PUSH32 0x8C379A000000000000000000000000000000000000000000000000000000000 DUP2 MSTORE PUSH1 0x4 ADD PUSH2 0x2533 SWAP1 PUSH2 0x5A6A JUMP JUMPDEST PUSH1 0x40 MLOAD DUP1 SWAP2 SUB SWAP1 REVERT JUMPDEST PUSH1 0x0 DUP1 PUSH1 0x0 PUSH1 0x40 DUP5 DUP2 SLOAD DUP2 LT PUSH2 0x2555 JUMPI PUSH2 0x2554 PUSH2 0x6105 JUMP JUMPDEST JUMPDEST SWAP1 PUSH1 0x0 MSTORE PUSH1 0x20 PUSH1 0x0 KECCAK256 ADD PUSH1 0x0 SWAP1 SLOAD SWAP1 PUSH2 0x100 EXP SWAP1 DIV PUSH20 0xFFFFFFFFFFFFFFFFFFFFFFFFFFFFFFFFFFFFFFFF AND PUSH20 0xFFFFFFFFFFFFFFFFFFFFFFFFFFFFFFFFFFFFFFFF AND PUSH20 0xFFFFFFFFFFFFFFFFFFFFFFFFFFFFFFFFFFFFFFFF AND DUP2 MSTORE PUSH1 0x20 ADD SWAP1 DUP2 MSTORE PUSH1 0x20 ADD PUSH1 0x0 KECCAK256 SLOAD SWAP1 POP DUP1 PUSH1 0x0 DUP1 PUSH2 0x25C9 PUSH2 0x1D88 JUMP JUMPDEST PUSH20 0xFFFFFFFFFFFFFFFFFFFFFFFFFFFFFFFFFFFFFFFF AND PUSH20 0xFFFFFFFFFFFFFFFFFFFFFFFFFFFFFFFFFFFFFFFF AND DUP2 MSTORE PUSH1 0x20 ADD SWAP1 DUP2 MSTORE PUSH1 0x20 ADD PUSH1 0x0 KECCAK256 SLOAD PUSH2 0x260E SWAP2 SWAP1 PUSH2 0x5D03 JUMP JUMPDEST PUSH1 0x0 DUP1 PUSH2 0x2619 PUSH2 0x1D88 JUMP JUMPDEST PUSH20 0xFFFFFFFFFFFFFFFFFFFFFFFFFFFFFFFFFFFFFFFF AND PUSH20 0xFFFFFFFFFFFFFFFFFFFFFFFFFFFFFFFFFFFFFFFF AND DUP2 MSTORE PUSH1 0x20 ADD SWAP1 DUP2 MSTORE PUSH1 0x20 ADD PUSH1 0x0 KECCAK256 DUP2 SWAP1 SSTORE POP PUSH1 0x0 DUP1 PUSH1 0x0 PUSH1 0x40 DUP6 DUP2 SLOAD DUP2 LT PUSH2 0x2670 JUMPI PUSH2 0x266F PUSH2 0x6105 JUMP JUMPDEST JUMPDEST SWAP1 PUSH1 0x0 MSTORE PUSH1 0x20 PUSH1 0x0 KECCAK256 ADD PUSH1 0x0 SWAP1 SLOAD SWAP1 PUSH2 0x100 EXP SWAP1 DIV PUSH20 0xFFFFFFFFFFFFFFFFFFFFFFFFFFFFFFFFFFFFFFFF AND PUSH20 0xFFFFFFFFFFFFFFFFFFFFFFFFFFFFFFFFFFFFFFFF AND PUSH20 0xFFFFFFFFFFFFFFFFFFFFFFFFFFFFFFFFFFFFFFFF AND DUP2 MSTORE PUSH1 0x20 ADD SWAP1 DUP2 MSTORE PUSH1 0x20 ADD PUSH1 0x0 KECCAK256 DUP2 SWAP1 SSTORE POP PUSH2 0x26E1 PUSH2 0x1D88 JUMP JUMPDEST PUSH20 0xFFFFFFFFFFFFFFFFFFFFFFFFFFFFFFFFFFFFFFFF AND PUSH1 0x40 DUP4 DUP2 SLOAD DUP2 LT PUSH2 0x270B JUMPI PUSH2 0x270A PUSH2 0x6105 JUMP JUMPDEST JUMPDEST SWAP1 PUSH1 0x0 MSTORE PUSH1 0x20 PUSH1 0x0 KECCAK256 ADD PUSH1 0x0 SWAP1 SLOAD SWAP1 PUSH2 0x100 EXP SWAP1 DIV PUSH20 0xFFFFFFFFFFFFFFFFFFFFFFFFFFFFFFFFFFFFFFFF AND PUSH20 0xFFFFFFFFFFFFFFFFFFFFFFFFFFFFFFFFFFFFFFFF AND PUSH32 0xDDF252AD1BE2C89B69C2B068FC378DAA952BA7F163C4A11628F55A4DF523B3EF DUP4 PUSH1 0x40 MLOAD PUSH2 0x277B SWAP2 SWAP1 PUSH2 0x5ACA JUMP JUMPDEST PUSH1 0x40 MLOAD DUP1 SWAP2 SUB SWAP1 LOG3 POP DUP1 DUP1 PUSH2 0x278F SWAP1 PUSH2 0x6000 JUMP JUMPDEST SWAP2 POP POP PUSH2 0x247D JUMP JUMPDEST POP PUSH32 0xEF8A7D1D9ED56B75BA2D074C0443D09A07E60674F3F6D4E992E9BDA38EFE5880 PUSH1 0x40 DUP1 MLOAD PUSH2 0x27C7 SWAP2 SWAP1 PUSH2 0x5664 JUMP JUMPDEST PUSH1 0x40 MLOAD DUP1 SWAP2 SUB SWAP1 LOG1 POP POP JUMP JUMPDEST PUSH2 0x27DB PUSH2 0x3071 JUMP JUMPDEST PUSH2 0x27E5 CALLER DUP3 PUSH2 0x3773 JUMP JUMPDEST PUSH2 0x27ED PUSH2 0x1D88 JUMP JUMPDEST PUSH20 0xFFFFFFFFFFFFFFFFFFFFFFFFFFFFFFFFFFFFFFFF AND PUSH1 0x0 PUSH20 0xFFFFFFFFFFFFFFFFFFFFFFFFFFFFFFFFFFFFFFFF AND PUSH32 0xDDF252AD1BE2C89B69C2B068FC378DAA952BA7F163C4A11628F55A4DF523B3EF DUP4 PUSH1 0x40 MLOAD PUSH2 0x284A SWAP2 SWAP1 PUSH2 0x5ACA JUMP JUMPDEST PUSH1 0x40 MLOAD DUP1 SWAP2 SUB SWAP1 LOG3 PUSH32 0x5AA5D4DBB3BDC35FE42446BA12FC59CDD56EE008D5A8159BA5E5FB5834734F62 DUP2 PUSH1 0x40 MLOAD PUSH2 0x2881 SWAP2 SWAP1 PUSH2 0x5ACA JUMP JUMPDEST PUSH1 0x40 MLOAD DUP1 SWAP2 SUB SWAP1 LOG1 POP JUMP JUMPDEST PUSH1 0x46 DUP1 PUSH1 0x0 ADD DUP1 SLOAD PUSH2 0x289D SWAP1 PUSH2 0x5F83 JUMP JUMPDEST DUP1 PUSH1 0x1F ADD PUSH1 0x20 DUP1 SWAP2 DIV MUL PUSH1 0x20 ADD PUSH1 0x40 MLOAD SWAP1 DUP2 ADD PUSH1 0x40 MSTORE DUP1 SWAP3 SWAP2 SWAP1 DUP2 DUP2 MSTORE PUSH1 0x20 ADD DUP3 DUP1 SLOAD PUSH2 0x28C9 SWAP1 PUSH2 0x5F83 JUMP JUMPDEST DUP1 ISZERO PUSH2 0x2916 JUMPI DUP1 PUSH1 0x1F LT PUSH2 0x28EB JUMPI PUSH2 0x100 DUP1 DUP4 SLOAD DIV MUL DUP4 MSTORE SWAP2 PUSH1 0x20 ADD SWAP2 PUSH2 0x2916 JUMP JUMPDEST DUP3 ADD SWAP2 SWAP1 PUSH1 0x0 MSTORE PUSH1 0x20 PUSH1 0x0 KECCAK256 SWAP1 JUMPDEST DUP2 SLOAD DUP2 MSTORE SWAP1 PUSH1 0x1 ADD SWAP1 PUSH1 0x20 ADD DUP1 DUP4 GT PUSH2 0x28F9 JUMPI DUP3 SWAP1 SUB PUSH1 0x1F AND DUP3 ADD SWAP2 JUMPDEST POP POP POP POP POP SWAP1 DUP1 PUSH1 0x1 ADD DUP1 SLOAD PUSH2 0x292B SWAP1 PUSH2 0x5F83 JUMP JUMPDEST DUP1 PUSH1 0x1F ADD PUSH1 0x20 DUP1 SWAP2 DIV MUL PUSH1 0x20 ADD PUSH1 0x40 MLOAD SWAP1 DUP2 ADD PUSH1 0x40 MSTORE DUP1 SWAP3 SWAP2 SWAP1 DUP2 DUP2 MSTORE PUSH1 0x20 ADD DUP3 DUP1 SLOAD PUSH2 0x2957 SWAP1 PUSH2 0x5F83 JUMP JUMPDEST DUP1 ISZERO PUSH2 0x29A4 JUMPI DUP1 PUSH1 0x1F LT PUSH2 0x2979 JUMPI PUSH2 0x100 DUP1 DUP4 SLOAD DIV MUL DUP4 MSTORE SWAP2 PUSH1 0x20 ADD SWAP2 PUSH2 0x29A4 JUMP JUMPDEST DUP3 ADD SWAP2 SWAP1 PUSH1 0x0 MSTORE PUSH1 0x20 PUSH1 0x0 KECCAK256 SWAP1 JUMPDEST DUP2 SLOAD DUP2 MSTORE SWAP1 PUSH1 0x1 ADD SWAP1 PUSH1 0x20 ADD DUP1 DUP4 GT PUSH2 0x2987 JUMPI DUP3 SWAP1 SUB PUSH1 0x1F AND DUP3 ADD SWAP2 JUMPDEST POP POP POP POP POP SWAP1 POP DUP3 JUMP JUMPDEST PUSH1 0x0 PUSH2 0x29B8 PUSH2 0x3071 JUMP JUMPDEST PUSH2 0x29C2 DUP4 DUP4 PUSH2 0x38CA JUMP JUMPDEST POP SWAP3 SWAP2 POP POP JUMP JUMPDEST PUSH1 0x0 PUSH2 0x29D3 PUSH2 0x1033 JUMP JUMPDEST ISZERO PUSH2 0x29E1 JUMPI PUSH1 0x42 SWAP1 POP PUSH2 0x2AF2 JUMP JUMPDEST PUSH1 0x0 PUSH20 0xFFFFFFFFFFFFFFFFFFFFFFFFFFFFFFFFFFFFFFFF AND PUSH1 0x43 PUSH1 0x0 SWAP1 SLOAD SWAP1 PUSH2 0x100 EXP SWAP1 DIV PUSH20 0xFFFFFFFFFFFFFFFFFFFFFFFFFFFFFFFFFFFFFFFF AND PUSH20 0xFFFFFFFFFFFFFFFFFFFFFFFFFFFFFFFFFFFFFFFF AND EQ PUSH2 0x2AED JUMPI PUSH1 0x43 PUSH1 0x0 SWAP1 SLOAD SWAP1 PUSH2 0x100 EXP SWAP1 DIV PUSH20 0xFFFFFFFFFFFFFFFFFFFFFFFFFFFFFFFFFFFFFFFF AND PUSH20 0xFFFFFFFFFFFFFFFFFFFFFFFFFFFFFFFFFFFFFFFF AND PUSH4 0xD4CE1415 DUP6 DUP6 DUP6 PUSH1 0x40 MLOAD DUP5 PUSH4 0xFFFFFFFF AND PUSH1 0xE0 SHL DUP2 MSTORE PUSH1 0x4 ADD PUSH2 0x2A96 SWAP4 SWAP3 SWAP2 SWAP1 PUSH2 0x5604 JUMP JUMPDEST PUSH1 0x20 PUSH1 0x40 MLOAD DUP1 DUP4 SUB DUP2 DUP7 DUP1 EXTCODESIZE ISZERO DUP1 ISZERO PUSH2 0x2AAE JUMPI PUSH1 0x0 DUP1 REVERT JUMPDEST POP GAS STATICCALL ISZERO DUP1 ISZERO PUSH2 0x2AC2 JUMPI RETURNDATASIZE PUSH1 0x0 DUP1 RETURNDATACOPY RETURNDATASIZE PUSH1 0x0 REVERT JUMPDEST POP POP POP POP PUSH1 0x40 MLOAD RETURNDATASIZE PUSH1 0x1F NOT PUSH1 0x1F DUP3 ADD AND DUP3 ADD DUP1 PUSH1 0x40 MSTORE POP DUP2 ADD SWAP1 PUSH2 0x2AE6 SWAP2 SWAP1 PUSH2 0x500A JUMP JUMPDEST SWAP1 POP PUSH2 0x2AF2 JUMP JUMPDEST PUSH1 0x51 SWAP1 POP JUMPDEST SWAP4 SWAP3 POP POP POP JUMP JUMPDEST PUSH1 0x60 PUSH1 0xA DUP1 SLOAD DUP1 PUSH1 0x20 MUL PUSH1 0x20 ADD PUSH1 0x40 MLOAD SWAP1 DUP2 ADD PUSH1 0x40 MSTORE DUP1 SWAP3 SWAP2 SWAP1 DUP2 DUP2 MSTORE PUSH1 0x20 ADD DUP3 DUP1 SLOAD DUP1 ISZERO PUSH2 0x2B47 JUMPI PUSH1 0x20 MUL DUP3 ADD SWAP2 SWAP1 PUSH1 0x0 MSTORE PUSH1 0x20 PUSH1 0x0 KECCAK256 SWAP1 JUMPDEST DUP2 SLOAD DUP2 MSTORE PUSH1 0x20 ADD SWAP1 PUSH1 0x1 ADD SWAP1 DUP1 DUP4 GT PUSH2 0x2B33 JUMPI JUMPDEST POP POP POP POP POP SWAP1 POP SWAP1 JUMP JUMPDEST PUSH1 0x43 PUSH1 0x14 SWAP1 SLOAD SWAP1 PUSH2 0x100 EXP SWAP1 DIV PUSH1 0xFF AND DUP2 JUMP JUMPDEST PUSH2 0x2B6C PUSH2 0x3071 JUMP JUMPDEST DUP1 PUSH1 0x0 DUP1 PUSH2 0x2B78 PUSH2 0x1D88 JUMP JUMPDEST PUSH20 0xFFFFFFFFFFFFFFFFFFFFFFFFFFFFFFFFFFFFFFFF AND PUSH20 0xFFFFFFFFFFFFFFFFFFFFFFFFFFFFFFFFFFFFFFFF AND DUP2 MSTORE PUSH1 0x20 ADD SWAP1 DUP2 MSTORE PUSH1 0x20 ADD PUSH1 0x0 KECCAK256 SLOAD PUSH2 0x2BBD SWAP2 SWAP1 PUSH2 0x5DE4 JUMP JUMPDEST PUSH1 0x0 DUP1 PUSH2 0x2BC8 PUSH2 0x1D88 JUMP JUMPDEST PUSH20 0xFFFFFFFFFFFFFFFFFFFFFFFFFFFFFFFFFFFFFFFF AND PUSH20 0xFFFFFFFFFFFFFFFFFFFFFFFFFFFFFFFFFFFFFFFF AND DUP2 MSTORE PUSH1 0x20 ADD SWAP1 DUP2 MSTORE PUSH1 0x20 ADD PUSH1 0x0 KECCAK256 DUP2 SWAP1 SSTORE POP DUP1 PUSH1 0x2 SLOAD PUSH2 0x2C14 SWAP2 SWAP1 PUSH2 0x5DE4 JUMP JUMPDEST PUSH1 0x2 DUP2 SWAP1 SSTORE POP PUSH1 0x0 PUSH20 0xFFFFFFFFFFFFFFFFFFFFFFFFFFFFFFFFFFFFFFFF AND PUSH2 0x2C3A PUSH2 0x1D88 JUMP JUMPDEST PUSH20 0xFFFFFFFFFFFFFFFFFFFFFFFFFFFFFFFFFFFFFFFF AND PUSH32 0xDDF252AD1BE2C89B69C2B068FC378DAA952BA7F163C4A11628F55A4DF523B3EF DUP4 PUSH1 0x40 MLOAD PUSH2 0x2C7F SWAP2 SWAP1 PUSH2 0x5ACA JUMP JUMPDEST PUSH1 0x40 MLOAD DUP1 SWAP2 SUB SWAP1 LOG3 PUSH32 0xE3DD692F7E5C129A26D85142BF6118F2ECF7722A79A4507AC05AD7BB7AAAB152 DUP2 PUSH1 0x40 MLOAD PUSH2 0x2CB6 SWAP2 SWAP1 PUSH2 0x5ACA JUMP JUMPDEST PUSH1 0x40 MLOAD DUP1 SWAP2 SUB SWAP1 LOG1 POP JUMP JUMPDEST PUSH1 0x0 PUSH1 0x1 PUSH1 0x0 DUP5 PUSH20 0xFFFFFFFFFFFFFFFFFFFFFFFFFFFFFFFFFFFFFFFF AND PUSH20 0xFFFFFFFFFFFFFFFFFFFFFFFFFFFFFFFFFFFFFFFF AND DUP2 MSTORE PUSH1 0x20 ADD SWAP1 DUP2 MSTORE PUSH1 0x20 ADD PUSH1 0x0 KECCAK256 PUSH1 0x0 DUP4 PUSH20 0xFFFFFFFFFFFFFFFFFFFFFFFFFFFFFFFFFFFFFFFF AND PUSH20 0xFFFFFFFFFFFFFFFFFFFFFFFFFFFFFFFFFFFFFFFF AND DUP2 MSTORE PUSH1 0x20 ADD SWAP1 DUP2 MSTORE PUSH1 0x20 ADD PUSH1 0x0 KECCAK256 SLOAD SWAP1 POP SWAP3 SWAP2 POP POP JUMP JUMPDEST PUSH1 0x0 PUSH2 0x2D52 PUSH2 0x3071 JUMP JUMPDEST PUSH2 0x2D5B DUP3 PUSH2 0x3A4C JUMP JUMPDEST POP SWAP2 SWAP1 POP JUMP JUMPDEST PUSH1 0x0 PUSH2 0x2D6B PUSH2 0x1033 JUMP JUMPDEST ISZERO PUSH2 0x2D79 JUMPI PUSH1 0x0 SWAP1 POP PUSH2 0x2EFB JUMP JUMPDEST PUSH1 0x0 PUSH1 0x42 PUSH1 0x0 DUP6 PUSH20 0xFFFFFFFFFFFFFFFFFFFFFFFFFFFFFFFFFFFFFFFF AND PUSH20 0xFFFFFFFFFFFFFFFFFFFFFFFFFFFFFFFFFFFFFFFF AND DUP2 MSTORE PUSH1 0x20 ADD SWAP1 DUP2 MSTORE PUSH1 0x20 ADD PUSH1 0x0 KECCAK256 PUSH1 0x0 SWAP1 SLOAD SWAP1 PUSH2 0x100 EXP SWAP1 DIV PUSH1 0x80 SHL PUSH16 0xFFFFFFFFFFFFFFFFFFFFFFFFFFFFFFFF NOT AND EQ ISZERO PUSH2 0x2DEA JUMPI PUSH1 0x0 SWAP1 POP PUSH2 0x2EFB JUMP JUMPDEST PUSH1 0x0 PUSH20 0xFFFFFFFFFFFFFFFFFFFFFFFFFFFFFFFFFFFFFFFF AND PUSH1 0x43 PUSH1 0x0 SWAP1 SLOAD SWAP1 PUSH2 0x100 EXP SWAP1 DIV PUSH20 0xFFFFFFFFFFFFFFFFFFFFFFFFFFFFFFFFFFFFFFFF AND PUSH20 0xFFFFFFFFFFFFFFFFFFFFFFFFFFFFFFFFFFFFFFFF AND EQ PUSH2 0x2EF6 JUMPI PUSH1 0x43 PUSH1 0x0 SWAP1 SLOAD SWAP1 PUSH2 0x100 EXP SWAP1 DIV PUSH20 0xFFFFFFFFFFFFFFFFFFFFFFFFFFFFFFFFFFFFFFFF AND PUSH20 0xFFFFFFFFFFFFFFFFFFFFFFFFFFFFFFFFFFFFFFFF AND PUSH4 0xC6946A12 DUP6 DUP6 DUP6 PUSH1 0x40 MLOAD DUP5 PUSH4 0xFFFFFFFF AND PUSH1 0xE0 SHL DUP2 MSTORE PUSH1 0x4 ADD PUSH2 0x2E9F SWAP4 SWAP3 SWAP2 SWAP1 PUSH2 0x5604 JUMP JUMPDEST PUSH1 0x20 PUSH1 0x40 MLOAD DUP1 DUP4 SUB DUP2 DUP7 DUP1 EXTCODESIZE ISZERO DUP1 ISZERO PUSH2 0x2EB7 JUMPI PUSH1 0x0 DUP1 REVERT JUMPDEST POP GAS STATICCALL ISZERO DUP1 ISZERO PUSH2 0x2ECB JUMPI RETURNDATASIZE PUSH1 0x0 DUP1 RETURNDATACOPY RETURNDATASIZE PUSH1 0x0 REVERT JUMPDEST POP POP POP POP PUSH1 0x40 MLOAD RETURNDATASIZE PUSH1 0x1F NOT PUSH1 0x1F DUP3 ADD AND DUP3 ADD DUP1 PUSH1 0x40 MSTORE POP DUP2 ADD SWAP1 PUSH2 0x2EEF SWAP2 SWAP1 PUSH2 0x4E8D JUMP JUMPDEST SWAP1 POP PUSH2 0x2EFB JUMP JUMPDEST PUSH1 0x1 SWAP1 POP JUMPDEST SWAP4 SWAP3 POP POP POP JUMP JUMPDEST PUSH2 0x2F0A PUSH2 0x3071 JUMP JUMPDEST PUSH1 0x0 PUSH20 0xFFFFFFFFFFFFFFFFFFFFFFFFFFFFFFFFFFFFFFFF AND DUP2 PUSH20 0xFFFFFFFFFFFFFFFFFFFFFFFFFFFFFFFFFFFFFFFF AND EQ ISZERO PUSH2 0x2F7A JUMPI PUSH1 0x40 MLOAD PUSH32 0x8C379A000000000000000000000000000000000000000000000000000000000 DUP2 MSTORE PUSH1 0x4 ADD PUSH2 0x2F71 SWAP1 PUSH2 0x582A JUMP JUMPDEST PUSH1 0x40 MLOAD DUP1 SWAP2 SUB SWAP1 REVERT JUMPDEST PUSH2 0x2F83 DUP2 PUSH2 0x3352 JUMP JUMPDEST POP JUMP JUMPDEST PUSH1 0x60 PUSH1 0x9 DUP1 SLOAD DUP1 PUSH1 0x20 MUL PUSH1 0x20 ADD PUSH1 0x40 MLOAD SWAP1 DUP2 ADD PUSH1 0x40 MSTORE DUP1 SWAP3 SWAP2 SWAP1 DUP2 DUP2 MSTORE PUSH1 0x20 ADD DUP3 DUP1 SLOAD DUP1 ISZERO PUSH2 0x2FD4 JUMPI PUSH1 0x20 MUL DUP3 ADD SWAP2 SWAP1 PUSH1 0x0 MSTORE PUSH1 0x20 PUSH1 0x0 KECCAK256 SWAP1 JUMPDEST DUP2 SLOAD DUP2 MSTORE PUSH1 0x20 ADD SWAP1 PUSH1 0x1 ADD SWAP1 DUP1 DUP4 GT PUSH2 0x2FC0 JUMPI JUMPDEST POP POP POP POP POP SWAP1 POP SWAP1 JUMP JUMPDEST PUSH1 0x43 PUSH1 0x0 SWAP1 SLOAD SWAP1 PUSH2 0x100 EXP SWAP1 DIV PUSH20 0xFFFFFFFFFFFFFFFFFFFFFFFFFFFFFFFFFFFFFFFF AND DUP2 JUMP JUMPDEST PUSH2 0x300C PUSH2 0x1033 JUMP JUMPDEST ISZERO PUSH2 0x304C JUMPI PUSH1 0x40 MLOAD PUSH32 0x8C379A000000000000000000000000000000000000000000000000000000000 DUP2 MSTORE PUSH1 0x4 ADD PUSH2 0x3043 SWAP1 PUSH2 0x588A JUMP JUMPDEST PUSH1 0x40 MLOAD DUP1 SWAP2 SUB SWAP1 REVERT JUMPDEST JUMP JUMPDEST PUSH1 0x0 DUP1 PUSH2 0x3059 PUSH2 0x3B20 JUMP JUMPDEST SWAP1 POP PUSH2 0x3066 DUP2 DUP6 DUP6 PUSH2 0x3B28 JUMP JUMPDEST PUSH1 0x1 SWAP2 POP POP SWAP3 SWAP2 POP POP JUMP JUMPDEST PUSH2 0x3079 PUSH2 0x3B20 JUMP JUMPDEST PUSH20 0xFFFFFFFFFFFFFFFFFFFFFFFFFFFFFFFFFFFFFFFF AND PUSH2 0x3097 PUSH2 0x1D88 JUMP JUMPDEST PUSH20 0xFFFFFFFFFFFFFFFFFFFFFFFFFFFFFFFFFFFFFFFF AND EQ PUSH2 0x30ED JUMPI PUSH1 0x40 MLOAD PUSH32 0x8C379A000000000000000000000000000000000000000000000000000000000 DUP2 MSTORE PUSH1 0x4 ADD PUSH2 0x30E4 SWAP1 PUSH2 0x598A JUMP JUMPDEST PUSH1 0x40 MLOAD DUP1 SWAP2 SUB SWAP1 REVERT JUMPDEST JUMP JUMPDEST PUSH1 0x0 DUP1 PUSH2 0x30FA PUSH2 0x3B20 JUMP JUMPDEST SWAP1 POP PUSH2 0x3107 DUP6 DUP3 DUP6 PUSH2 0x3CF3 JUMP JUMPDEST PUSH2 0x3112 DUP6 DUP6 DUP6 PUSH2 0x3D7F JUMP JUMPDEST PUSH1 0x1 SWAP2 POP POP SWAP4 SWAP3 POP POP POP JUMP JUMPDEST PUSH1 0x0 PUSH1 0x8 SLOAD SWAP1 POP SWAP1 JUMP JUMPDEST PUSH1 0x60 PUSH1 0x0 DUP3 MLOAD PUSH8 0xFFFFFFFFFFFFFFFF DUP2 GT ISZERO PUSH2 0x3147 JUMPI PUSH2 0x3146 PUSH2 0x6134 JUMP JUMPDEST JUMPDEST PUSH1 0x40 MLOAD SWAP1 DUP1 DUP3 MSTORE DUP1 PUSH1 0x20 MUL PUSH1 0x20 ADD DUP3 ADD PUSH1 0x40 MSTORE DUP1 ISZERO PUSH2 0x3175 JUMPI DUP2 PUSH1 0x20 ADD PUSH1 0x20 DUP3 MUL DUP1 CALLDATASIZE DUP4 CALLDATACOPY DUP1 DUP3 ADD SWAP2 POP POP SWAP1 POP JUMPDEST POP SWAP1 POP PUSH1 0x0 JUMPDEST DUP4 MLOAD DUP2 LT ISZERO PUSH2 0x3245 JUMPI PUSH1 0x42 PUSH1 0x0 DUP6 DUP4 DUP2 MLOAD DUP2 LT PUSH2 0x319B JUMPI PUSH2 0x319A PUSH2 0x6105 JUMP JUMPDEST JUMPDEST PUSH1 0x20 MUL PUSH1 0x20 ADD ADD MLOAD PUSH20 0xFFFFFFFFFFFFFFFFFFFFFFFFFFFFFFFFFFFFFFFF AND PUSH20 0xFFFFFFFFFFFFFFFFFFFFFFFFFFFFFFFFFFFFFFFF AND DUP2 MSTORE PUSH1 0x20 ADD SWAP1 DUP2 MSTORE PUSH1 0x20 ADD PUSH1 0x0 KECCAK256 PUSH1 0x0 SWAP1 SLOAD SWAP1 PUSH2 0x100 EXP SWAP1 DIV PUSH1 0x80 SHL DUP3 DUP3 DUP2 MLOAD DUP2 LT PUSH2 0x31FE JUMPI PUSH2 0x31FD PUSH2 0x6105 JUMP JUMPDEST JUMPDEST PUSH1 0x20 MUL PUSH1 0x20 ADD ADD SWAP1 PUSH16 0xFFFFFFFFFFFFFFFFFFFFFFFFFFFFFFFF NOT AND SWAP1 DUP2 PUSH16 0xFFFFFFFFFFFFFFFFFFFFFFFFFFFFFFFF NOT AND DUP2 MSTORE POP POP DUP1 DUP1 PUSH2 0x323D SWAP1 PUSH2 0x6000 JUMP JUMPDEST SWAP2 POP POP PUSH2 0x317B JUMP JUMPDEST POP DUP1 SWAP2 POP POP SWAP2 SWAP1 POP JUMP JUMPDEST PUSH1 0x0 DUP1 PUSH2 0x325A PUSH2 0x3B20 JUMP JUMPDEST SWAP1 POP PUSH2 0x327B DUP2 DUP6 DUP6 PUSH2 0x326C DUP6 DUP10 PUSH2 0x2CC1 JUMP JUMPDEST PUSH2 0x3276 SWAP2 SWAP1 PUSH2 0x5D03 JUMP JUMPDEST PUSH2 0x3B28 JUMP JUMPDEST PUSH1 0x1 SWAP2 POP POP SWAP3 SWAP2 POP POP JUMP JUMPDEST PUSH2 0x328E PUSH2 0x3FF7 JUMP JUMPDEST PUSH1 0x0 PUSH1 0x3F PUSH1 0x0 PUSH2 0x100 EXP DUP2 SLOAD DUP2 PUSH1 0xFF MUL NOT AND SWAP1 DUP4 ISZERO ISZERO MUL OR SWAP1 SSTORE POP PUSH32 0x5DB9EE0A495BF2E6FF9C91A7834C1BA4FDD244A5E8AA4E537BD38AEAE4B073AA PUSH2 0x32D2 PUSH2 0x3B20 JUMP JUMPDEST PUSH1 0x40 MLOAD PUSH2 0x32DF SWAP2 SWAP1 PUSH2 0x55E9 JUMP JUMPDEST PUSH1 0x40 MLOAD DUP1 SWAP2 SUB SWAP1 LOG1 JUMP JUMPDEST PUSH1 0x0 DUP1 PUSH1 0x0 PUSH2 0x3304 DUP6 DUP6 PUSH1 0x0 ADD PUSH2 0x4040 SWAP1 SWAP2 SWAP1 PUSH4 0xFFFFFFFF AND JUMP JUMPDEST SWAP1 POP DUP4 PUSH1 0x0 ADD DUP1 SLOAD SWAP1 POP DUP2 EQ ISZERO PUSH2 0x3322 JUMPI PUSH1 0x0 DUP1 SWAP3 POP SWAP3 POP POP PUSH2 0x334B JUMP JUMPDEST PUSH1 0x1 DUP5 PUSH1 0x1 ADD DUP3 DUP2 SLOAD DUP2 LT PUSH2 0x333A JUMPI PUSH2 0x3339 PUSH2 0x6105 JUMP JUMPDEST JUMPDEST SWAP1 PUSH1 0x0 MSTORE PUSH1 0x20 PUSH1 0x0 KECCAK256 ADD SLOAD SWAP3 POP SWAP3 POP POP JUMPDEST SWAP3 POP SWAP3 SWAP1 POP JUMP JUMPDEST PUSH1 0x0 PUSH1 0x3D PUSH1 0x0 SWAP1 SLOAD SWAP1 PUSH2 0x100 EXP SWAP1 DIV PUSH20 0xFFFFFFFFFFFFFFFFFFFFFFFFFFFFFFFFFFFFFFFF AND SWAP1 POP DUP2 PUSH1 0x3D PUSH1 0x0 PUSH2 0x100 EXP DUP2 SLOAD DUP2 PUSH20 0xFFFFFFFFFFFFFFFFFFFFFFFFFFFFFFFFFFFFFFFF MUL NOT AND SWAP1 DUP4 PUSH20 0xFFFFFFFFFFFFFFFFFFFFFFFFFFFFFFFFFFFFFFFF AND MUL OR SWAP1 SSTORE POP DUP2 PUSH20 0xFFFFFFFFFFFFFFFFFFFFFFFFFFFFFFFFFFFFFFFF AND DUP2 PUSH20 0xFFFFFFFFFFFFFFFFFFFFFFFFFFFFFFFFFFFFFFFF AND PUSH32 0x8BE0079C531659141344CD1FD0A4F28419497F9722A3DAAFE3B4186F6B6457E0 PUSH1 0x40 MLOAD PUSH1 0x40 MLOAD DUP1 SWAP2 SUB SWAP1 LOG3 POP POP JUMP JUMPDEST PUSH2 0x3420 PUSH2 0x3004 JUMP JUMPDEST PUSH1 0x1 PUSH1 0x3F PUSH1 0x0 PUSH2 0x100 EXP DUP2 SLOAD DUP2 PUSH1 0xFF MUL NOT AND SWAP1 DUP4 ISZERO ISZERO MUL OR SWAP1 SSTORE POP PUSH32 0x62E78CEA01BEE320CD4E420270B5EA74000D11B0C9F74754EBDBFC544B05A258 PUSH2 0x3464 PUSH2 0x3B20 JUMP JUMPDEST PUSH1 0x40 MLOAD PUSH2 0x3471 SWAP2 SWAP1 PUSH2 0x55E9 JUMP JUMPDEST PUSH1 0x40 MLOAD DUP1 SWAP2 SUB SWAP1 LOG1 JUMP JUMPDEST PUSH1 0x0 DUP1 PUSH2 0x3486 PUSH2 0x3B20 JUMP JUMPDEST SWAP1 POP PUSH2 0x3493 DUP2 DUP6 DUP6 PUSH2 0x3D7F JUMP JUMPDEST PUSH1 0x1 SWAP2 POP POP SWAP3 SWAP2 POP POP JUMP JUMPDEST PUSH1 0x0 DUP2 TIMESTAMP LT PUSH2 0x34E2 JUMPI PUSH1 0x40 MLOAD PUSH32 0x8C379A000000000000000000000000000000000000000000000000000000000 DUP2 MSTORE PUSH1 0x4 ADD PUSH2 0x34D9 SWAP1 PUSH2 0x5A0A JUMP JUMPDEST PUSH1 0x40 MLOAD DUP1 SWAP2 SUB SWAP1 REVERT JUMPDEST PUSH1 0x0 PUSH2 0x34ED DUP4 PUSH2 0x411A JUMP JUMPDEST POP SWAP1 POP DUP1 ISZERO PUSH2 0x3531 JUMPI PUSH1 0x40 MLOAD PUSH32 0x8C379A000000000000000000000000000000000000000000000000000000000 DUP2 MSTORE PUSH1 0x4 ADD PUSH2 0x3528 SWAP1 PUSH2 0x5A4A JUMP JUMPDEST PUSH1 0x40 MLOAD DUP1 SWAP2 SUB SWAP1 REVERT JUMPDEST PUSH1 0x9 DUP4 SWAP1 DUP1 PUSH1 0x1 DUP2 SLOAD ADD DUP1 DUP3 SSTORE DUP1 SWAP2 POP POP PUSH1 0x1 SWAP1 SUB SWAP1 PUSH1 0x0 MSTORE PUSH1 0x20 PUSH1 0x0 KECCAK256 ADD PUSH1 0x0 SWAP1 SWAP2 SWAP1 SWAP2 SWAP1 SWAP2 POP SSTORE DUP3 PUSH1 0x0 PUSH32 0xE2AD3B1ABE53383DBE6359F02F11AE76D91CFAB321B37083B16E1D96A81D4183 PUSH1 0x40 MLOAD PUSH1 0x40 MLOAD DUP1 SWAP2 SUB SWAP1 LOG3 DUP3 SWAP2 POP POP SWAP2 SWAP1 POP JUMP JUMPDEST PUSH1 0x0 DUP1 PUSH2 0x359D PUSH2 0x3B20 JUMP JUMPDEST SWAP1 POP PUSH1 0x0 PUSH2 0x35AB DUP3 DUP7 PUSH2 0x2CC1 JUMP JUMPDEST SWAP1 POP DUP4 DUP2 LT ISZERO PUSH2 0x35F0 JUMPI PUSH1 0x40 MLOAD PUSH32 0x8C379A000000000000000000000000000000000000000000000000000000000 DUP2 MSTORE PUSH1 0x4 ADD PUSH2 0x35E7 SWAP1 PUSH2 0x5A8A JUMP JUMPDEST PUSH1 0x40 MLOAD DUP1 SWAP2 SUB SWAP1 REVERT JUMPDEST PUSH2 0x35FD DUP3 DUP7 DUP7 DUP5 SUB PUSH2 0x3B28 JUMP JUMPDEST PUSH1 0x1 SWAP3 POP POP POP SWAP3 SWAP2 POP POP JUMP JUMPDEST PUSH2 0x3611 PUSH2 0x3004 JUMP JUMPDEST PUSH1 0x0 PUSH20 0xFFFFFFFFFFFFFFFFFFFFFFFFFFFFFFFFFFFFFFFF AND PUSH1 0x43 PUSH1 0x0 SWAP1 SLOAD SWAP1 PUSH2 0x100 EXP SWAP1 DIV PUSH20 0xFFFFFFFFFFFFFFFFFFFFFFFFFFFFFFFFFFFFFFFF AND PUSH20 0xFFFFFFFFFFFFFFFFFFFFFFFFFFFFFFFFFFFFFFFF AND EQ PUSH2 0x375D JUMPI PUSH1 0x43 PUSH1 0x0 SWAP1 SLOAD SWAP1 PUSH2 0x100 EXP SWAP1 DIV PUSH20 0xFFFFFFFFFFFFFFFFFFFFFFFFFFFFFFFFFFFFFFFF AND PUSH20 0xFFFFFFFFFFFFFFFFFFFFFFFFFFFFFFFFFFFFFFFF AND PUSH4 0xC6946A12 PUSH2 0x36AD PUSH2 0x1D88 JUMP JUMPDEST DUP5 DUP5 PUSH1 0x40 MLOAD DUP5 PUSH4 0xFFFFFFFF AND PUSH1 0xE0 SHL DUP2 MSTORE PUSH1 0x4 ADD PUSH2 0x36CD SWAP4 SWAP3 SWAP2 SWAP1 PUSH2 0x5604 JUMP JUMPDEST PUSH1 0x20 PUSH1 0x40 MLOAD DUP1 DUP4 SUB DUP2 DUP7 DUP1 EXTCODESIZE ISZERO DUP1 ISZERO PUSH2 0x36E5 JUMPI PUSH1 0x0 DUP1 REVERT JUMPDEST POP GAS STATICCALL ISZERO DUP1 ISZERO PUSH2 0x36F9 JUMPI RETURNDATASIZE PUSH1 0x0 DUP1 RETURNDATACOPY RETURNDATASIZE PUSH1 0x0 REVERT JUMPDEST POP POP POP POP PUSH1 0x40 MLOAD RETURNDATASIZE PUSH1 0x1F NOT PUSH1 0x1F DUP3 ADD AND DUP3 ADD DUP1 PUSH1 0x40 MSTORE POP DUP2 ADD SWAP1 PUSH2 0x371D SWAP2 SWAP1 PUSH2 0x4E8D JUMP JUMPDEST PUSH2 0x375C JUMPI PUSH1 0x40 MLOAD PUSH32 0x8C379A000000000000000000000000000000000000000000000000000000000 DUP2 MSTORE PUSH1 0x4 ADD PUSH2 0x3753 SWAP1 PUSH2 0x57AA JUMP JUMPDEST PUSH1 0x40 MLOAD DUP1 SWAP2 SUB SWAP1 REVERT JUMPDEST JUMPDEST PUSH2 0x376F PUSH2 0x3768 PUSH2 0x1D88 JUMP JUMPDEST DUP4 DUP4 PUSH2 0x3D7F JUMP JUMPDEST POP POP JUMP JUMPDEST PUSH1 0x0 PUSH20 0xFFFFFFFFFFFFFFFFFFFFFFFFFFFFFFFFFFFFFFFF AND DUP3 PUSH20 0xFFFFFFFFFFFFFFFFFFFFFFFFFFFFFFFFFFFFFFFF AND EQ ISZERO PUSH2 0x37E3 JUMPI PUSH1 0x40 MLOAD PUSH32 0x8C379A000000000000000000000000000000000000000000000000000000000 DUP2 MSTORE PUSH1 0x4 ADD PUSH2 0x37DA SWAP1 PUSH2 0x5AAA JUMP JUMPDEST PUSH1 0x40 MLOAD DUP1 SWAP2 SUB SWAP1 REVERT JUMPDEST PUSH2 0x37EF PUSH1 0x0 DUP4 DUP4 PUSH2 0x4181 JUMP JUMPDEST DUP1 PUSH1 0x2 PUSH1 0x0 DUP3 DUP3 SLOAD PUSH2 0x3801 SWAP2 SWAP1 PUSH2 0x5D03 JUMP JUMPDEST SWAP3 POP POP DUP2 SWAP1 SSTORE POP DUP1 PUSH1 0x0 DUP1 DUP5 PUSH20 0xFFFFFFFFFFFFFFFFFFFFFFFFFFFFFFFFFFFFFFFF AND PUSH20 0xFFFFFFFFFFFFFFFFFFFFFFFFFFFFFFFFFFFFFFFF AND DUP2 MSTORE PUSH1 0x20 ADD SWAP1 DUP2 MSTORE PUSH1 0x20 ADD PUSH1 0x0 KECCAK256 PUSH1 0x0 DUP3 DUP3 SLOAD ADD SWAP3 POP POP DUP2 SWAP1 SSTORE POP DUP2 PUSH20 0xFFFFFFFFFFFFFFFFFFFFFFFFFFFFFFFFFFFFFFFF AND PUSH1 0x0 PUSH20 0xFFFFFFFFFFFFFFFFFFFFFFFFFFFFFFFFFFFFFFFF AND PUSH32 0xDDF252AD1BE2C89B69C2B068FC378DAA952BA7F163C4A11628F55A4DF523B3EF DUP4 PUSH1 0x40 MLOAD PUSH2 0x38B2 SWAP2 SWAP1 PUSH2 0x5ACA JUMP JUMPDEST PUSH1 0x40 MLOAD DUP1 SWAP2 SUB SWAP1 LOG3 PUSH2 0x38C6 PUSH1 0x0 DUP4 DUP4 PUSH2 0x4238 JUMP JUMPDEST POP POP JUMP JUMPDEST PUSH1 0x0 DUP3 TIMESTAMP LT PUSH2 0x390E JUMPI PUSH1 0x40 MLOAD PUSH32 0x8C379A000000000000000000000000000000000000000000000000000000000 DUP2 MSTORE PUSH1 0x4 ADD PUSH2 0x3905 SWAP1 PUSH2 0x58AA JUMP JUMPDEST PUSH1 0x40 MLOAD DUP1 SWAP2 SUB SWAP1 REVERT JUMPDEST DUP2 TIMESTAMP LT PUSH2 0x3950 JUMPI PUSH1 0x40 MLOAD PUSH32 0x8C379A000000000000000000000000000000000000000000000000000000000 DUP2 MSTORE PUSH1 0x4 ADD PUSH2 0x3947 SWAP1 PUSH2 0x5A0A JUMP JUMPDEST PUSH1 0x40 MLOAD DUP1 SWAP2 SUB SWAP1 REVERT JUMPDEST PUSH1 0x0 PUSH2 0x395B DUP4 PUSH2 0x411A JUMP JUMPDEST POP SWAP1 POP DUP1 ISZERO PUSH2 0x399F JUMPI PUSH1 0x40 MLOAD PUSH32 0x8C379A000000000000000000000000000000000000000000000000000000000 DUP2 MSTORE PUSH1 0x4 ADD PUSH2 0x3996 SWAP1 PUSH2 0x5A4A JUMP JUMPDEST PUSH1 0x40 MLOAD DUP1 SWAP2 SUB SWAP1 REVERT JUMPDEST PUSH1 0x0 DUP1 PUSH2 0x39AB DUP7 PUSH2 0x411A JUMP JUMPDEST SWAP2 POP SWAP2 POP DUP2 PUSH2 0x39EF JUMPI PUSH1 0x40 MLOAD PUSH32 0x8C379A000000000000000000000000000000000000000000000000000000000 DUP2 MSTORE PUSH1 0x4 ADD PUSH2 0x39E6 SWAP1 PUSH2 0x59AA JUMP JUMPDEST PUSH1 0x40 MLOAD DUP1 SWAP2 SUB SWAP1 REVERT JUMPDEST DUP5 PUSH1 0x9 DUP3 DUP2 SLOAD DUP2 LT PUSH2 0x3A04 JUMPI PUSH2 0x3A03 PUSH2 0x6105 JUMP JUMPDEST JUMPDEST SWAP1 PUSH1 0x0 MSTORE PUSH1 0x20 PUSH1 0x0 KECCAK256 ADD DUP2 SWAP1 SSTORE POP DUP5 DUP7 PUSH32 0xE2AD3B1ABE53383DBE6359F02F11AE76D91CFAB321B37083B16E1D96A81D4183 PUSH1 0x40 MLOAD PUSH1 0x40 MLOAD DUP1 SWAP2 SUB SWAP1 LOG3 DUP5 SWAP4 POP POP POP POP SWAP3 SWAP2 POP POP JUMP JUMPDEST PUSH1 0x0 DUP2 TIMESTAMP LT PUSH2 0x3A90 JUMPI PUSH1 0x40 MLOAD PUSH32 0x8C379A000000000000000000000000000000000000000000000000000000000 DUP2 MSTORE PUSH1 0x4 ADD PUSH2 0x3A87 SWAP1 PUSH2 0x58AA JUMP JUMPDEST PUSH1 0x40 MLOAD DUP1 SWAP2 SUB SWAP1 REVERT JUMPDEST PUSH1 0x0 DUP1 PUSH2 0x3A9C DUP5 PUSH2 0x411A JUMP JUMPDEST SWAP2 POP SWAP2 POP DUP2 PUSH2 0x3AE0 JUMPI PUSH1 0x40 MLOAD PUSH32 0x8C379A000000000000000000000000000000000000000000000000000000000 DUP2 MSTORE PUSH1 0x4 ADD PUSH2 0x3AD7 SWAP1 PUSH2 0x59AA JUMP JUMPDEST PUSH1 0x40 MLOAD DUP1 SWAP2 SUB SWAP1 REVERT JUMPDEST PUSH2 0x3AE9 DUP2 PUSH2 0x423D JUMP JUMPDEST DUP4 PUSH32 0x6E2498F5548E5491BFE985562CC494131EAE56B5B6543B59129C8886F129F65 PUSH1 0x40 MLOAD PUSH1 0x40 MLOAD DUP1 SWAP2 SUB SWAP1 LOG2 DUP4 SWAP3 POP POP POP SWAP2 SWAP1 POP JUMP JUMPDEST PUSH1 0x0 CALLER SWAP1 POP SWAP1 JUMP JUMPDEST PUSH1 0x0 PUSH20 0xFFFFFFFFFFFFFFFFFFFFFFFFFFFFFFFFFFFFFFFF AND DUP4 PUSH20 0xFFFFFFFFFFFFFFFFFFFFFFFFFFFFFFFFFFFFFFFF AND EQ ISZERO PUSH2 0x3B98 JUMPI PUSH1 0x40 MLOAD PUSH32 0x8C379A000000000000000000000000000000000000000000000000000000000 DUP2 MSTORE PUSH1 0x4 ADD PUSH2 0x3B8F SWAP1 PUSH2 0x5A2A JUMP JUMPDEST PUSH1 0x40 MLOAD DUP1 SWAP2 SUB SWAP1 REVERT JUMPDEST PUSH1 0x0 PUSH20 0xFFFFFFFFFFFFFFFFFFFFFFFFFFFFFFFFFFFFFFFF AND DUP3 PUSH20 0xFFFFFFFFFFFFFFFFFFFFFFFFFFFFFFFFFFFFFFFF AND EQ ISZERO PUSH2 0x3C08 JUMPI PUSH1 0x40 MLOAD PUSH32 0x8C379A000000000000000000000000000000000000000000000000000000000 DUP2 MSTORE PUSH1 0x4 ADD PUSH2 0x3BFF SWAP1 PUSH2 0x584A JUMP JUMPDEST PUSH1 0x40 MLOAD DUP1 SWAP2 SUB SWAP1 REVERT JUMPDEST DUP1 PUSH1 0x1 PUSH1 0x0 DUP6 PUSH20 0xFFFFFFFFFFFFFFFFFFFFFFFFFFFFFFFFFFFFFFFF AND PUSH20 0xFFFFFFFFFFFFFFFFFFFFFFFFFFFFFFFFFFFFFFFF AND DUP2 MSTORE PUSH1 0x20 ADD SWAP1 DUP2 MSTORE PUSH1 0x20 ADD PUSH1 0x0 KECCAK256 PUSH1 0x0 DUP5 PUSH20 0xFFFFFFFFFFFFFFFFFFFFFFFFFFFFFFFFFFFFFFFF AND PUSH20 0xFFFFFFFFFFFFFFFFFFFFFFFFFFFFFFFFFFFFFFFF AND DUP2 MSTORE PUSH1 0x20 ADD SWAP1 DUP2 MSTORE PUSH1 0x20 ADD PUSH1 0x0 KECCAK256 DUP2 SWAP1 SSTORE POP DUP2 PUSH20 0xFFFFFFFFFFFFFFFFFFFFFFFFFFFFFFFFFFFFFFFF AND DUP4 PUSH20 0xFFFFFFFFFFFFFFFFFFFFFFFFFFFFFFFFFFFFFFFF AND PUSH32 0x8C5BE1E5EBEC7D5BD14F71427D1E84F3DD0314C0F7B2291E5B200AC8C7C3B925 DUP4 PUSH1 0x40 MLOAD PUSH2 0x3CE6 SWAP2 SWAP1 PUSH2 0x5ACA JUMP JUMPDEST PUSH1 0x40 MLOAD DUP1 SWAP2 SUB SWAP1 LOG3 POP POP POP JUMP JUMPDEST PUSH1 0x0 PUSH2 0x3CFF DUP5 DUP5 PUSH2 0x2CC1 JUMP JUMPDEST SWAP1 POP PUSH32 0xFFFFFFFFFFFFFFFFFFFFFFFFFFFFFFFFFFFFFFFFFFFFFFFFFFFFFFFFFFFFFFFF DUP2 EQ PUSH2 0x3D79 JUMPI DUP2 DUP2 LT ISZERO PUSH2 0x3D6B JUMPI PUSH1 0x40 MLOAD PUSH32 0x8C379A000000000000000000000000000000000000000000000000000000000 DUP2 MSTORE PUSH1 0x4 ADD PUSH2 0x3D62 SWAP1 PUSH2 0x586A JUMP JUMPDEST PUSH1 0x40 MLOAD DUP1 SWAP2 SUB SWAP1 REVERT JUMPDEST PUSH2 0x3D78 DUP5 DUP5 DUP5 DUP5 SUB PUSH2 0x3B28 JUMP JUMPDEST JUMPDEST POP POP POP POP JUMP JUMPDEST PUSH1 0x0 PUSH20 0xFFFFFFFFFFFFFFFFFFFFFFFFFFFFFFFFFFFFFFFF AND DUP4 PUSH20 0xFFFFFFFFFFFFFFFFFFFFFFFFFFFFFFFFFFFFFFFF AND EQ ISZERO PUSH2 0x3DEF JUMPI PUSH1 0x40 MLOAD PUSH32 0x8C379A000000000000000000000000000000000000000000000000000000000 DUP2 MSTORE PUSH1 0x4 ADD PUSH2 0x3DE6 SWAP1 PUSH2 0x59EA JUMP JUMPDEST PUSH1 0x40 MLOAD DUP1 SWAP2 SUB SWAP1 REVERT JUMPDEST PUSH1 0x0 PUSH20 0xFFFFFFFFFFFFFFFFFFFFFFFFFFFFFFFFFFFFFFFF AND DUP3 PUSH20 0xFFFFFFFFFFFFFFFFFFFFFFFFFFFFFFFFFFFFFFFF AND EQ ISZERO PUSH2 0x3E5F JUMPI PUSH1 0x40 MLOAD PUSH32 0x8C379A000000000000000000000000000000000000000000000000000000000 DUP2 MSTORE PUSH1 0x4 ADD PUSH2 0x3E56 SWAP1 PUSH2 0x57CA JUMP JUMPDEST PUSH1 0x40 MLOAD DUP1 SWAP2 SUB SWAP1 REVERT JUMPDEST PUSH2 0x3E6A DUP4 DUP4 DUP4 PUSH2 0x4181 JUMP JUMPDEST PUSH1 0x0 DUP1 PUSH1 0x0 DUP6 PUSH20 0xFFFFFFFFFFFFFFFFFFFFFFFFFFFFFFFFFFFFFFFF AND PUSH20 0xFFFFFFFFFFFFFFFFFFFFFFFFFFFFFFFFFFFFFFFF AND DUP2 MSTORE PUSH1 0x20 ADD SWAP1 DUP2 MSTORE PUSH1 0x20 ADD PUSH1 0x0 KECCAK256 SLOAD SWAP1 POP DUP2 DUP2 LT ISZERO PUSH2 0x3EF0 JUMPI PUSH1 0x40 MLOAD PUSH32 0x8C379A000000000000000000000000000000000000000000000000000000000 DUP2 MSTORE PUSH1 0x4 ADD PUSH2 0x3EE7 SWAP1 PUSH2 0x58EA JUMP JUMPDEST PUSH1 0x40 MLOAD DUP1 SWAP2 SUB SWAP1 REVERT JUMPDEST DUP2 DUP2 SUB PUSH1 0x0 DUP1 DUP7 PUSH20 0xFFFFFFFFFFFFFFFFFFFFFFFFFFFFFFFFFFFFFFFF AND PUSH20 0xFFFFFFFFFFFFFFFFFFFFFFFFFFFFFFFFFFFFFFFF AND DUP2 MSTORE PUSH1 0x20 ADD SWAP1 DUP2 MSTORE PUSH1 0x20 ADD PUSH1 0x0 KECCAK256 DUP2 SWAP1 SSTORE POP DUP2 PUSH1 0x0 DUP1 DUP6 PUSH20 0xFFFFFFFFFFFFFFFFFFFFFFFFFFFFFFFFFFFFFFFF AND PUSH20 0xFFFFFFFFFFFFFFFFFFFFFFFFFFFFFFFFFFFFFFFF AND DUP2 MSTORE PUSH1 0x20 ADD SWAP1 DUP2 MSTORE PUSH1 0x20 ADD PUSH1 0x0 KECCAK256 PUSH1 0x0 DUP3 DUP3 SLOAD ADD SWAP3 POP POP DUP2 SWAP1 SSTORE POP DUP3 PUSH20 0xFFFFFFFFFFFFFFFFFFFFFFFFFFFFFFFFFFFFFFFF AND DUP5 PUSH20 0xFFFFFFFFFFFFFFFFFFFFFFFFFFFFFFFFFFFFFFFF AND PUSH32 0xDDF252AD1BE2C89B69C2B068FC378DAA952BA7F163C4A11628F55A4DF523B3EF DUP5 PUSH1 0x40 MLOAD PUSH2 0x3FDE SWAP2 SWAP1 PUSH2 0x5ACA JUMP JUMPDEST PUSH1 0x40 MLOAD DUP1 SWAP2 SUB SWAP1 LOG3 PUSH2 0x3FF1 DUP5 DUP5 DUP5 PUSH2 0x4238 JUMP JUMPDEST POP POP POP POP JUMP JUMPDEST PUSH2 0x3FFF PUSH2 0x1033 JUMP JUMPDEST PUSH2 0x403E JUMPI PUSH1 0x40 MLOAD PUSH32 0x8C379A000000000000000000000000000000000000000000000000000000000 DUP2 MSTORE PUSH1 0x4 ADD PUSH2 0x4035 SWAP1 PUSH2 0x57EA JUMP JUMPDEST PUSH1 0x40 MLOAD DUP1 SWAP2 SUB SWAP1 REVERT JUMPDEST JUMP JUMPDEST PUSH1 0x0 DUP1 DUP4 DUP1 SLOAD SWAP1 POP EQ ISZERO PUSH2 0x4057 JUMPI PUSH1 0x0 SWAP1 POP PUSH2 0x4114 JUMP JUMPDEST PUSH1 0x0 DUP1 DUP5 DUP1 SLOAD SWAP1 POP SWAP1 POP JUMPDEST DUP1 DUP3 LT ISZERO PUSH2 0x40BB JUMPI PUSH1 0x0 PUSH2 0x4076 DUP4 DUP4 PUSH2 0x4310 JUMP JUMPDEST SWAP1 POP DUP5 DUP7 DUP3 DUP2 SLOAD DUP2 LT PUSH2 0x408C JUMPI PUSH2 0x408B PUSH2 0x6105 JUMP JUMPDEST JUMPDEST SWAP1 PUSH1 0x0 MSTORE PUSH1 0x20 PUSH1 0x0 KECCAK256 ADD SLOAD GT ISZERO PUSH2 0x40A5 JUMPI DUP1 SWAP2 POP PUSH2 0x40B5 JUMP JUMPDEST PUSH1 0x1 DUP2 PUSH2 0x40B2 SWAP2 SWAP1 PUSH2 0x5D03 JUMP JUMPDEST SWAP3 POP JUMPDEST POP PUSH2 0x4062 JUMP JUMPDEST PUSH1 0x0 DUP3 GT DUP1 ISZERO PUSH2 0x40F3 JUMPI POP DUP4 DUP6 PUSH1 0x1 DUP5 PUSH2 0x40D5 SWAP2 SWAP1 PUSH2 0x5DE4 JUMP JUMPDEST DUP2 SLOAD DUP2 LT PUSH2 0x40E6 JUMPI PUSH2 0x40E5 PUSH2 0x6105 JUMP JUMPDEST JUMPDEST SWAP1 PUSH1 0x0 MSTORE PUSH1 0x20 PUSH1 0x0 KECCAK256 ADD SLOAD EQ JUMPDEST ISZERO PUSH2 0x410E JUMPI PUSH1 0x1 DUP3 PUSH2 0x4105 SWAP2 SWAP1 PUSH2 0x5DE4 JUMP JUMPDEST SWAP3 POP POP POP PUSH2 0x4114 JUMP JUMPDEST DUP2 SWAP3 POP POP POP JUMPDEST SWAP3 SWAP2 POP POP JUMP JUMPDEST PUSH1 0x0 DUP1 PUSH1 0x0 JUMPDEST PUSH1 0x9 DUP1 SLOAD SWAP1 POP DUP2 LT ISZERO PUSH2 0x4173 JUMPI DUP4 PUSH1 0x9 DUP3 DUP2 SLOAD DUP2 LT PUSH2 0x4142 JUMPI PUSH2 0x4141 PUSH2 0x6105 JUMP JUMPDEST JUMPDEST SWAP1 PUSH1 0x0 MSTORE PUSH1 0x20 PUSH1 0x0 KECCAK256 ADD SLOAD EQ ISZERO PUSH2 0x4160 JUMPI PUSH1 0x1 DUP2 SWAP3 POP SWAP3 POP POP PUSH2 0x417C JUMP JUMPDEST DUP1 DUP1 PUSH2 0x416B SWAP1 PUSH2 0x6000 JUMP JUMPDEST SWAP2 POP POP PUSH2 0x4120 JUMP JUMPDEST POP PUSH1 0x0 DUP1 SWAP2 POP SWAP2 POP JUMPDEST SWAP2 POP SWAP2 JUMP JUMPDEST PUSH2 0x418C DUP4 DUP4 DUP4 PUSH2 0x4336 JUMP JUMPDEST PUSH2 0x4194 PUSH2 0x433B JUMP JUMPDEST PUSH1 0x0 PUSH20 0xFFFFFFFFFFFFFFFFFFFFFFFFFFFFFFFFFFFFFFFF AND DUP4 PUSH20 0xFFFFFFFFFFFFFFFFFFFFFFFFFFFFFFFFFFFFFFFF AND EQ PUSH2 0x4221 JUMPI PUSH2 0x41D1 DUP4 PUSH2 0x4363 JUMP JUMPDEST PUSH1 0x0 PUSH20 0xFFFFFFFFFFFFFFFFFFFFFFFFFFFFFFFFFFFFFFFF AND DUP3 PUSH20 0xFFFFFFFFFFFFFFFFFFFFFFFFFFFFFFFFFFFFFFFF AND EQ PUSH2 0x4213 JUMPI PUSH2 0x420E DUP3 PUSH2 0x4363 JUMP JUMPDEST PUSH2 0x421C JUMP JUMPDEST PUSH2 0x421B PUSH2 0x43B6 JUMP JUMPDEST JUMPDEST PUSH2 0x4233 JUMP JUMPDEST PUSH2 0x422A DUP3 PUSH2 0x4363 JUMP JUMPDEST PUSH2 0x4232 PUSH2 0x43B6 JUMP JUMPDEST JUMPDEST POP POP POP JUMP JUMPDEST POP POP POP JUMP JUMPDEST PUSH1 0x9 PUSH1 0x1 PUSH1 0x9 DUP1 SLOAD SWAP1 POP PUSH2 0x4251 SWAP2 SWAP1 PUSH2 0x5DE4 JUMP JUMPDEST DUP2 SLOAD DUP2 LT PUSH2 0x4262 JUMPI PUSH2 0x4261 PUSH2 0x6105 JUMP JUMPDEST JUMPDEST SWAP1 PUSH1 0x0 MSTORE PUSH1 0x20 PUSH1 0x0 KECCAK256 ADD SLOAD PUSH1 0x9 DUP3 DUP2 SLOAD DUP2 LT PUSH2 0x4281 JUMPI PUSH2 0x4280 PUSH2 0x6105 JUMP JUMPDEST JUMPDEST SWAP1 PUSH1 0x0 MSTORE PUSH1 0x20 PUSH1 0x0 KECCAK256 ADD DUP2 SWAP1 SSTORE POP PUSH1 0x9 PUSH1 0x1 PUSH1 0x9 DUP1 SLOAD SWAP1 POP PUSH2 0x42A3 SWAP2 SWAP1 PUSH2 0x5DE4 JUMP JUMPDEST DUP2 SLOAD DUP2 LT PUSH2 0x42B4 JUMPI PUSH2 0x42B3 PUSH2 0x6105 JUMP JUMPDEST JUMPDEST SWAP1 PUSH1 0x0 MSTORE PUSH1 0x20 PUSH1 0x0 KECCAK256 ADD SLOAD PUSH1 0xA DUP1 DUP1 SLOAD SWAP1 POP DUP2 SLOAD DUP2 LT PUSH2 0x42D7 JUMPI PUSH2 0x42D6 PUSH2 0x6105 JUMP JUMPDEST JUMPDEST SWAP1 PUSH1 0x0 MSTORE PUSH1 0x20 PUSH1 0x0 KECCAK256 ADD DUP2 SWAP1 SSTORE POP PUSH1 0x9 DUP1 SLOAD DUP1 PUSH2 0x42F7 JUMPI PUSH2 0x42F6 PUSH2 0x60D6 JUMP JUMPDEST JUMPDEST PUSH1 0x1 SWAP1 SUB DUP2 DUP2 SWAP1 PUSH1 0x0 MSTORE PUSH1 0x20 PUSH1 0x0 KECCAK256 ADD PUSH1 0x0 SWAP1 SSTORE SWAP1 SSTORE POP JUMP JUMPDEST PUSH1 0x0 PUSH1 0x2 DUP3 DUP5 XOR PUSH2 0x4321 SWAP2 SWAP1 PUSH2 0x5D59 JUMP JUMPDEST DUP3 DUP5 AND PUSH2 0x432E SWAP2 SWAP1 PUSH2 0x5D03 JUMP JUMPDEST SWAP1 POP SWAP3 SWAP2 POP POP JUMP JUMPDEST POP POP POP JUMP JUMPDEST PUSH1 0x0 PUSH2 0x4345 PUSH2 0x43CA JUMP JUMPDEST SWAP1 POP PUSH1 0x0 DUP2 GT ISZERO PUSH2 0x4360 JUMPI DUP1 PUSH1 0x8 DUP2 SWAP1 SSTORE POP PUSH2 0x435F PUSH2 0x4481 JUMP JUMPDEST JUMPDEST POP JUMP JUMPDEST PUSH2 0x43B3 PUSH1 0x5 PUSH1 0x0 DUP4 PUSH20 0xFFFFFFFFFFFFFFFFFFFFFFFFFFFFFFFFFFFFFFFF AND PUSH20 0xFFFFFFFFFFFFFFFFFFFFFFFFFFFFFFFFFFFFFFFF AND DUP2 MSTORE PUSH1 0x20 ADD SWAP1 DUP2 MSTORE PUSH1 0x20 ADD PUSH1 0x0 KECCAK256 PUSH2 0x43AE DUP4 PUSH2 0x1775 JUMP JUMPDEST PUSH2 0x44DC JUMP JUMPDEST POP JUMP JUMPDEST PUSH2 0x43C8 PUSH1 0x6 PUSH2 0x43C3 PUSH2 0xA42 JUMP JUMPDEST PUSH2 0x44DC JUMP JUMPDEST JUMP JUMPDEST PUSH1 0x0 DUP1 PUSH1 0x9 DUP1 SLOAD SWAP1 POP EQ ISZERO PUSH2 0x43E2 JUMPI PUSH1 0x0 SWAP1 POP PUSH2 0x447E JUMP JUMPDEST PUSH1 0x0 DUP1 JUMPDEST PUSH1 0x9 DUP1 SLOAD SWAP1 POP DUP2 LT ISZERO PUSH2 0x4478 JUMPI TIMESTAMP PUSH1 0x9 DUP3 DUP2 SLOAD DUP2 LT PUSH2 0x4408 JUMPI PUSH2 0x4407 PUSH2 0x6105 JUMP JUMPDEST JUMPDEST SWAP1 PUSH1 0x0 MSTORE PUSH1 0x20 PUSH1 0x0 KECCAK256 ADD SLOAD GT ISZERO DUP1 ISZERO PUSH2 0x443E JUMPI POP DUP2 PUSH1 0x9 DUP3 DUP2 SLOAD DUP2 LT PUSH2 0x4431 JUMPI PUSH2 0x4430 PUSH2 0x6105 JUMP JUMPDEST JUMPDEST SWAP1 PUSH1 0x0 MSTORE PUSH1 0x20 PUSH1 0x0 KECCAK256 ADD SLOAD GT JUMPDEST ISZERO PUSH2 0x4465 JUMPI PUSH1 0x9 DUP2 DUP2 SLOAD DUP2 LT PUSH2 0x4457 JUMPI PUSH2 0x4456 PUSH2 0x6105 JUMP JUMPDEST JUMPDEST SWAP1 PUSH1 0x0 MSTORE PUSH1 0x20 PUSH1 0x0 KECCAK256 ADD SLOAD SWAP2 POP JUMPDEST DUP1 DUP1 PUSH2 0x4470 SWAP1 PUSH2 0x6000 JUMP JUMPDEST SWAP2 POP POP PUSH2 0x43E6 JUMP JUMPDEST POP DUP1 SWAP2 POP POP JUMPDEST SWAP1 JUMP JUMPDEST PUSH1 0x0 JUMPDEST PUSH1 0x9 DUP1 SLOAD SWAP1 POP DUP2 LT ISZERO PUSH2 0x44D9 JUMPI TIMESTAMP PUSH1 0x9 DUP3 DUP2 SLOAD DUP2 LT PUSH2 0x44A6 JUMPI PUSH2 0x44A5 PUSH2 0x6105 JUMP JUMPDEST JUMPDEST SWAP1 PUSH1 0x0 MSTORE PUSH1 0x20 PUSH1 0x0 KECCAK256 ADD SLOAD GT PUSH2 0x44C4 JUMPI PUSH2 0x44BF DUP2 PUSH2 0x423D JUMP JUMPDEST PUSH2 0x44D4 JUMP JUMPDEST PUSH1 0x1 DUP2 PUSH2 0x44D1 SWAP2 SWAP1 PUSH2 0x5D03 JUMP JUMPDEST SWAP1 POP JUMPDEST PUSH2 0x4484 JUMP JUMPDEST POP JUMP JUMPDEST PUSH1 0x0 PUSH2 0x44E6 PUSH2 0x311E JUMP JUMPDEST SWAP1 POP DUP1 PUSH2 0x44F5 DUP5 PUSH1 0x0 ADD PUSH2 0x4557 JUMP JUMPDEST LT ISZERO PUSH2 0x4552 JUMPI DUP3 PUSH1 0x0 ADD DUP2 SWAP1 DUP1 PUSH1 0x1 DUP2 SLOAD ADD DUP1 DUP3 SSTORE DUP1 SWAP2 POP POP PUSH1 0x1 SWAP1 SUB SWAP1 PUSH1 0x0 MSTORE PUSH1 0x20 PUSH1 0x0 KECCAK256 ADD PUSH1 0x0 SWAP1 SWAP2 SWAP1 SWAP2 SWAP1 SWAP2 POP SSTORE DUP3 PUSH1 0x1 ADD DUP3 SWAP1 DUP1 PUSH1 0x1 DUP2 SLOAD ADD DUP1 DUP3 SSTORE DUP1 SWAP2 POP POP PUSH1 0x1 SWAP1 SUB SWAP1 PUSH1 0x0 MSTORE PUSH1 0x20 PUSH1 0x0 KECCAK256 ADD PUSH1 0x0 SWAP1 SWAP2 SWAP1 SWAP2 SWAP1 SWAP2 POP SSTORE JUMPDEST POP POP POP JUMP JUMPDEST PUSH1 0x0 DUP1 DUP3 DUP1 SLOAD SWAP1 POP EQ ISZERO PUSH2 0x456E JUMPI PUSH1 0x0 SWAP1 POP PUSH2 0x459F JUMP JUMPDEST DUP2 PUSH1 0x1 DUP4 DUP1 SLOAD SWAP1 POP PUSH2 0x4580 SWAP2 SWAP1 PUSH2 0x5DE4 JUMP JUMPDEST DUP2 SLOAD DUP2 LT PUSH2 0x4591 JUMPI PUSH2 0x4590 PUSH2 0x6105 JUMP JUMPDEST JUMPDEST SWAP1 PUSH1 0x0 MSTORE PUSH1 0x20 PUSH1 0x0 KECCAK256 ADD SLOAD SWAP1 POP JUMPDEST SWAP2 SWAP1 POP JUMP JUMPDEST DUP3 DUP1 SLOAD PUSH2 0x45B0 SWAP1 PUSH2 0x5F83 JUMP JUMPDEST SWAP1 PUSH1 0x0 MSTORE PUSH1 0x20 PUSH1 0x0 KECCAK256 SWAP1 PUSH1 0x1F ADD PUSH1 0x20 SWAP1 DIV DUP2 ADD SWAP3 DUP3 PUSH2 0x45D2 JUMPI PUSH1 0x0 DUP6 SSTORE PUSH2 0x4619 JUMP JUMPDEST DUP3 PUSH1 0x1F LT PUSH2 0x45EB JUMPI DUP1 MLOAD PUSH1 0xFF NOT AND DUP4 DUP1 ADD OR DUP6 SSTORE PUSH2 0x4619 JUMP JUMPDEST DUP3 DUP1 ADD PUSH1 0x1 ADD DUP6 SSTORE DUP3 ISZERO PUSH2 0x4619 JUMPI SWAP2 DUP3 ADD JUMPDEST DUP3 DUP2 GT ISZERO PUSH2 0x4618 JUMPI DUP3 MLOAD DUP3 SSTORE SWAP2 PUSH1 0x20 ADD SWAP2 SWAP1 PUSH1 0x1 ADD SWAP1 PUSH2 0x45FD JUMP JUMPDEST JUMPDEST POP SWAP1 POP PUSH2 0x4626 SWAP2 SWAP1 PUSH2 0x462A JUMP JUMPDEST POP SWAP1 JUMP JUMPDEST JUMPDEST DUP1 DUP3 GT ISZERO PUSH2 0x4643 JUMPI PUSH1 0x0 DUP2 PUSH1 0x0 SWAP1 SSTORE POP PUSH1 0x1 ADD PUSH2 0x462B JUMP JUMPDEST POP SWAP1 JUMP JUMPDEST PUSH1 0x0 PUSH2 0x465A PUSH2 0x4655 DUP5 PUSH2 0x5B25 JUMP JUMPDEST PUSH2 0x5B00 JUMP JUMPDEST SWAP1 POP DUP1 DUP4 DUP3 MSTORE PUSH1 0x20 DUP3 ADD SWAP1 POP DUP3 DUP6 PUSH1 0x20 DUP7 MUL DUP3 ADD GT ISZERO PUSH2 0x467D JUMPI PUSH2 0x467C PUSH2 0x6180 JUMP JUMPDEST JUMPDEST PUSH1 0x0 JUMPDEST DUP6 DUP2 LT ISZERO PUSH2 0x46AD JUMPI DUP2 PUSH2 0x4693 DUP9 DUP3 PUSH2 0x48EB JUMP JUMPDEST DUP5 MSTORE PUSH1 0x20 DUP5 ADD SWAP4 POP PUSH1 0x20 DUP4 ADD SWAP3 POP POP PUSH1 0x1 DUP2 ADD SWAP1 POP PUSH2 0x4680 JUMP JUMPDEST POP POP POP SWAP4 SWAP3 POP POP POP JUMP JUMPDEST PUSH1 0x0 PUSH2 0x46CA PUSH2 0x46C5 DUP5 PUSH2 0x5B51 JUMP JUMPDEST PUSH2 0x5B00 JUMP JUMPDEST SWAP1 POP DUP1 DUP4 DUP3 MSTORE PUSH1 0x20 DUP3 ADD SWAP1 POP DUP3 DUP6 PUSH1 0x20 DUP7 MUL DUP3 ADD GT ISZERO PUSH2 0x46ED JUMPI PUSH2 0x46EC PUSH2 0x6180 JUMP JUMPDEST JUMPDEST PUSH1 0x0 JUMPDEST DUP6 DUP2 LT ISZERO PUSH2 0x473B JUMPI DUP2 CALLDATALOAD PUSH8 0xFFFFFFFFFFFFFFFF DUP2 GT ISZERO PUSH2 0x4713 JUMPI PUSH2 0x4712 PUSH2 0x617B JUMP JUMPDEST JUMPDEST DUP1 DUP7 ADD PUSH2 0x4720 DUP10 DUP3 PUSH2 0x4A90 JUMP JUMPDEST DUP6 MSTORE PUSH1 0x20 DUP6 ADD SWAP5 POP PUSH1 0x20 DUP5 ADD SWAP4 POP POP POP PUSH1 0x1 DUP2 ADD SWAP1 POP PUSH2 0x46F0 JUMP JUMPDEST POP POP POP SWAP4 SWAP3 POP POP POP JUMP JUMPDEST PUSH1 0x0 PUSH2 0x4758 PUSH2 0x4753 DUP5 PUSH2 0x5B7D JUMP JUMPDEST PUSH2 0x5B00 JUMP JUMPDEST SWAP1 POP DUP1 DUP4 DUP3 MSTORE PUSH1 0x20 DUP3 ADD SWAP1 POP DUP3 DUP6 PUSH1 0x20 DUP7 MUL DUP3 ADD GT ISZERO PUSH2 0x477B JUMPI PUSH2 0x477A PUSH2 0x6180 JUMP JUMPDEST JUMPDEST PUSH1 0x0 JUMPDEST DUP6 DUP2 LT ISZERO PUSH2 0x47AB JUMPI DUP2 PUSH2 0x4791 DUP9 DUP3 PUSH2 0x4AEC JUMP JUMPDEST DUP5 MSTORE PUSH1 0x20 DUP5 ADD SWAP4 POP PUSH1 0x20 DUP4 ADD SWAP3 POP POP PUSH1 0x1 DUP2 ADD SWAP1 POP PUSH2 0x477E JUMP JUMPDEST POP POP POP SWAP4 SWAP3 POP POP POP JUMP JUMPDEST PUSH1 0x0 PUSH2 0x47C8 PUSH2 0x47C3 DUP5 PUSH2 0x5BA9 JUMP JUMPDEST PUSH2 0x5B00 JUMP JUMPDEST SWAP1 POP DUP1 DUP4 DUP3 MSTORE PUSH1 0x20 DUP3 ADD SWAP1 POP DUP3 DUP6 PUSH1 0x20 DUP7 MUL DUP3 ADD GT ISZERO PUSH2 0x47EB JUMPI PUSH2 0x47EA PUSH2 0x6180 JUMP JUMPDEST JUMPDEST PUSH1 0x0 JUMPDEST DUP6 DUP2 LT ISZERO PUSH2 0x481B JUMPI DUP2 PUSH2 0x4801 DUP9 DUP3 PUSH2 0x4B01 JUMP JUMPDEST DUP5 MSTORE PUSH1 0x20 DUP5 ADD SWAP4 POP PUSH1 0x20 DUP4 ADD SWAP3 POP POP PUSH1 0x1 DUP2 ADD SWAP1 POP PUSH2 0x47EE JUMP JUMPDEST POP POP POP SWAP4 SWAP3 POP POP POP JUMP JUMPDEST PUSH1 0x0 PUSH2 0x4838 PUSH2 0x4833 DUP5 PUSH2 0x5BD5 JUMP JUMPDEST PUSH2 0x5B00 JUMP JUMPDEST SWAP1 POP DUP3 DUP2 MSTORE PUSH1 0x20 DUP2 ADD DUP5 DUP5 DUP5 ADD GT ISZERO PUSH2 0x4854 JUMPI PUSH2 0x4853 PUSH2 0x6185 JUMP JUMPDEST JUMPDEST PUSH2 0x485F DUP5 DUP3 DUP6 PUSH2 0x5F41 JUMP JUMPDEST POP SWAP4 SWAP3 POP POP POP JUMP JUMPDEST PUSH1 0x0 PUSH2 0x487A PUSH2 0x4875 DUP5 PUSH2 0x5C06 JUMP JUMPDEST PUSH2 0x5B00 JUMP JUMPDEST SWAP1 POP DUP3 DUP2 MSTORE PUSH1 0x20 DUP2 ADD DUP5 DUP5 DUP5 ADD GT ISZERO PUSH2 0x4896 JUMPI PUSH2 0x4895 PUSH2 0x6185 JUMP JUMPDEST JUMPDEST PUSH2 0x48A1 DUP5 DUP3 DUP6 PUSH2 0x5F41 JUMP JUMPDEST POP SWAP4 SWAP3 POP POP POP JUMP JUMPDEST PUSH1 0x0 PUSH2 0x48BC PUSH2 0x48B7 DUP5 PUSH2 0x5C06 JUMP JUMPDEST PUSH2 0x5B00 JUMP JUMPDEST SWAP1 POP DUP3 DUP2 MSTORE PUSH1 0x20 DUP2 ADD DUP5 DUP5 DUP5 ADD GT ISZERO PUSH2 0x48D8 JUMPI PUSH2 0x48D7 PUSH2 0x6185 JUMP JUMPDEST JUMPDEST PUSH2 0x48E3 DUP5 DUP3 DUP6 PUSH2 0x5F50 JUMP JUMPDEST POP SWAP4 SWAP3 POP POP POP JUMP JUMPDEST PUSH1 0x0 DUP2 CALLDATALOAD SWAP1 POP PUSH2 0x48FA DUP2 PUSH2 0x66E3 JUMP JUMPDEST SWAP3 SWAP2 POP POP JUMP JUMPDEST PUSH1 0x0 DUP2 CALLDATALOAD SWAP1 POP PUSH2 0x490F DUP2 PUSH2 0x66FA JUMP JUMPDEST SWAP3 SWAP2 POP POP JUMP JUMPDEST PUSH1 0x0 DUP1 DUP4 PUSH1 0x1F DUP5 ADD SLT PUSH2 0x492B JUMPI PUSH2 0x492A PUSH2 0x617B JUMP JUMPDEST JUMPDEST DUP3 CALLDATALOAD SWAP1 POP PUSH8 0xFFFFFFFFFFFFFFFF DUP2 GT ISZERO PUSH2 0x4948 JUMPI PUSH2 0x4947 PUSH2 0x6176 JUMP JUMPDEST JUMPDEST PUSH1 0x20 DUP4 ADD SWAP2 POP DUP4 PUSH1 0x20 DUP3 MUL DUP4 ADD GT ISZERO PUSH2 0x4964 JUMPI PUSH2 0x4963 PUSH2 0x6180 JUMP JUMPDEST JUMPDEST SWAP3 POP SWAP3 SWAP1 POP JUMP JUMPDEST PUSH1 0x0 DUP3 PUSH1 0x1F DUP4 ADD SLT PUSH2 0x4980 JUMPI PUSH2 0x497F PUSH2 0x617B JUMP JUMPDEST JUMPDEST DUP2 CALLDATALOAD PUSH2 0x4990 DUP5 DUP3 PUSH1 0x20 DUP7 ADD PUSH2 0x4647 JUMP JUMPDEST SWAP2 POP POP SWAP3 SWAP2 POP POP JUMP JUMPDEST PUSH1 0x0 DUP3 PUSH1 0x1F DUP4 ADD SLT PUSH2 0x49AE JUMPI PUSH2 0x49AD PUSH2 0x617B JUMP JUMPDEST JUMPDEST DUP2 CALLDATALOAD PUSH2 0x49BE DUP5 DUP3 PUSH1 0x20 DUP7 ADD PUSH2 0x46B7 JUMP JUMPDEST SWAP2 POP POP SWAP3 SWAP2 POP POP JUMP JUMPDEST PUSH1 0x0 DUP3 PUSH1 0x1F DUP4 ADD SLT PUSH2 0x49DC JUMPI PUSH2 0x49DB PUSH2 0x617B JUMP JUMPDEST JUMPDEST DUP2 CALLDATALOAD PUSH2 0x49EC DUP5 DUP3 PUSH1 0x20 DUP7 ADD PUSH2 0x4745 JUMP JUMPDEST SWAP2 POP POP SWAP3 SWAP2 POP POP JUMP JUMPDEST PUSH1 0x0 DUP3 PUSH1 0x1F DUP4 ADD SLT PUSH2 0x4A0A JUMPI PUSH2 0x4A09 PUSH2 0x617B JUMP JUMPDEST JUMPDEST DUP2 CALLDATALOAD PUSH2 0x4A1A DUP5 DUP3 PUSH1 0x20 DUP7 ADD PUSH2 0x47B5 JUMP JUMPDEST SWAP2 POP POP SWAP3 SWAP2 POP POP JUMP JUMPDEST PUSH1 0x0 DUP2 MLOAD SWAP1 POP PUSH2 0x4A32 DUP2 PUSH2 0x6711 JUMP JUMPDEST SWAP3 SWAP2 POP POP JUMP JUMPDEST PUSH1 0x0 DUP2 CALLDATALOAD SWAP1 POP PUSH2 0x4A47 DUP2 PUSH2 0x6728 JUMP JUMPDEST SWAP3 SWAP2 POP POP JUMP JUMPDEST PUSH1 0x0 DUP3 PUSH1 0x1F DUP4 ADD SLT PUSH2 0x4A62 JUMPI PUSH2 0x4A61 PUSH2 0x617B JUMP JUMPDEST JUMPDEST DUP2 CALLDATALOAD PUSH2 0x4A72 DUP5 DUP3 PUSH1 0x20 DUP7 ADD PUSH2 0x4825 JUMP JUMPDEST SWAP2 POP POP SWAP3 SWAP2 POP POP JUMP JUMPDEST PUSH1 0x0 DUP2 CALLDATALOAD SWAP1 POP PUSH2 0x4A8A DUP2 PUSH2 0x673F JUMP JUMPDEST SWAP3 SWAP2 POP POP JUMP JUMPDEST PUSH1 0x0 DUP3 PUSH1 0x1F DUP4 ADD SLT PUSH2 0x4AA5 JUMPI PUSH2 0x4AA4 PUSH2 0x617B JUMP JUMPDEST JUMPDEST DUP2 CALLDATALOAD PUSH2 0x4AB5 DUP5 DUP3 PUSH1 0x20 DUP7 ADD PUSH2 0x4867 JUMP JUMPDEST SWAP2 POP POP SWAP3 SWAP2 POP POP JUMP JUMPDEST PUSH1 0x0 DUP3 PUSH1 0x1F DUP4 ADD SLT PUSH2 0x4AD3 JUMPI PUSH2 0x4AD2 PUSH2 0x617B JUMP JUMPDEST JUMPDEST DUP2 MLOAD PUSH2 0x4AE3 DUP5 DUP3 PUSH1 0x20 DUP7 ADD PUSH2 0x48A9 JUMP JUMPDEST SWAP2 POP POP SWAP3 SWAP2 POP POP JUMP JUMPDEST PUSH1 0x0 DUP2 CALLDATALOAD SWAP1 POP PUSH2 0x4AFB DUP2 PUSH2 0x6756 JUMP JUMPDEST SWAP3 SWAP2 POP POP JUMP JUMPDEST PUSH1 0x0 DUP2 CALLDATALOAD SWAP1 POP PUSH2 0x4B10 DUP2 PUSH2 0x676D JUMP JUMPDEST SWAP3 SWAP2 POP POP JUMP JUMPDEST PUSH1 0x0 DUP2 MLOAD SWAP1 POP PUSH2 0x4B25 DUP2 PUSH2 0x676D JUMP JUMPDEST SWAP3 SWAP2 POP POP JUMP JUMPDEST PUSH1 0x0 PUSH1 0x20 DUP3 DUP5 SUB SLT ISZERO PUSH2 0x4B41 JUMPI PUSH2 0x4B40 PUSH2 0x618F JUMP JUMPDEST JUMPDEST PUSH1 0x0 PUSH2 0x4B4F DUP5 DUP3 DUP6 ADD PUSH2 0x48EB JUMP JUMPDEST SWAP2 POP POP SWAP3 SWAP2 POP POP JUMP JUMPDEST PUSH1 0x0 PUSH1 0x20 DUP3 DUP5 SUB SLT ISZERO PUSH2 0x4B6E JUMPI PUSH2 0x4B6D PUSH2 0x618F JUMP JUMPDEST JUMPDEST PUSH1 0x0 PUSH2 0x4B7C DUP5 DUP3 DUP6 ADD PUSH2 0x4900 JUMP JUMPDEST SWAP2 POP POP SWAP3 SWAP2 POP POP JUMP JUMPDEST PUSH1 0x0 DUP1 PUSH1 0x40 DUP4 DUP6 SUB SLT ISZERO PUSH2 0x4B9C JUMPI PUSH2 0x4B9B PUSH2 0x618F JUMP JUMPDEST JUMPDEST PUSH1 0x0 PUSH2 0x4BAA DUP6 DUP3 DUP7 ADD PUSH2 0x48EB JUMP JUMPDEST SWAP3 POP POP PUSH1 0x20 PUSH2 0x4BBB DUP6 DUP3 DUP7 ADD PUSH2 0x48EB JUMP JUMPDEST SWAP2 POP POP SWAP3 POP SWAP3 SWAP1 POP JUMP JUMPDEST PUSH1 0x0 DUP1 PUSH1 0x0 PUSH1 0x60 DUP5 DUP7 SUB SLT ISZERO PUSH2 0x4BDE JUMPI PUSH2 0x4BDD PUSH2 0x618F JUMP JUMPDEST JUMPDEST PUSH1 0x0 PUSH2 0x4BEC DUP7 DUP3 DUP8 ADD PUSH2 0x48EB JUMP JUMPDEST SWAP4 POP POP PUSH1 0x20 PUSH2 0x4BFD DUP7 DUP3 DUP8 ADD PUSH2 0x48EB JUMP JUMPDEST SWAP3 POP POP PUSH1 0x40 PUSH2 0x4C0E DUP7 DUP3 DUP8 ADD PUSH2 0x4AEC JUMP JUMPDEST SWAP2 POP POP SWAP3 POP SWAP3 POP SWAP3 JUMP JUMPDEST PUSH1 0x0 DUP1 PUSH1 0x40 DUP4 DUP6 SUB SLT ISZERO PUSH2 0x4C2F JUMPI PUSH2 0x4C2E PUSH2 0x618F JUMP JUMPDEST JUMPDEST PUSH1 0x0 PUSH2 0x4C3D DUP6 DUP3 DUP7 ADD PUSH2 0x48EB JUMP JUMPDEST SWAP3 POP POP PUSH1 0x20 PUSH2 0x4C4E DUP6 DUP3 DUP7 ADD PUSH2 0x4A38 JUMP JUMPDEST SWAP2 POP POP SWAP3 POP SWAP3 SWAP1 POP JUMP JUMPDEST PUSH1 0x0 DUP1 PUSH1 0x40 DUP4 DUP6 SUB SLT ISZERO PUSH2 0x4C6F JUMPI PUSH2 0x4C6E PUSH2 0x618F JUMP JUMPDEST JUMPDEST PUSH1 0x0 PUSH2 0x4C7D DUP6 DUP3 DUP7 ADD PUSH2 0x48EB JUMP JUMPDEST SWAP3 POP POP PUSH1 0x20 PUSH2 0x4C8E DUP6 DUP3 DUP7 ADD PUSH2 0x4AEC JUMP JUMPDEST SWAP2 POP POP SWAP3 POP SWAP3 SWAP1 POP JUMP JUMPDEST PUSH1 0x0 DUP1 PUSH1 0x0 PUSH1 0x60 DUP5 DUP7 SUB SLT ISZERO PUSH2 0x4CB1 JUMPI PUSH2 0x4CB0 PUSH2 0x618F JUMP JUMPDEST JUMPDEST PUSH1 0x0 PUSH2 0x4CBF DUP7 DUP3 DUP8 ADD PUSH2 0x48EB JUMP JUMPDEST SWAP4 POP POP PUSH1 0x20 PUSH2 0x4CD0 DUP7 DUP3 DUP8 ADD PUSH2 0x4AEC JUMP JUMPDEST SWAP3 POP POP PUSH1 0x40 DUP5 ADD CALLDATALOAD PUSH8 0xFFFFFFFFFFFFFFFF DUP2 GT ISZERO PUSH2 0x4CF1 JUMPI PUSH2 0x4CF0 PUSH2 0x618A JUMP JUMPDEST JUMPDEST PUSH2 0x4CFD DUP7 DUP3 DUP8 ADD PUSH2 0x4A4D JUMP JUMPDEST SWAP2 POP POP SWAP3 POP SWAP3 POP SWAP3 JUMP JUMPDEST PUSH1 0x0 DUP1 PUSH1 0x20 DUP4 DUP6 SUB SLT ISZERO PUSH2 0x4D1E JUMPI PUSH2 0x4D1D PUSH2 0x618F JUMP JUMPDEST JUMPDEST PUSH1 0x0 DUP4 ADD CALLDATALOAD PUSH8 0xFFFFFFFFFFFFFFFF DUP2 GT ISZERO PUSH2 0x4D3C JUMPI PUSH2 0x4D3B PUSH2 0x618A JUMP JUMPDEST JUMPDEST PUSH2 0x4D48 DUP6 DUP3 DUP7 ADD PUSH2 0x4915 JUMP JUMPDEST SWAP3 POP SWAP3 POP POP SWAP3 POP SWAP3 SWAP1 POP JUMP JUMPDEST PUSH1 0x0 PUSH1 0x20 DUP3 DUP5 SUB SLT ISZERO PUSH2 0x4D6A JUMPI PUSH2 0x4D69 PUSH2 0x618F JUMP JUMPDEST JUMPDEST PUSH1 0x0 DUP3 ADD CALLDATALOAD PUSH8 0xFFFFFFFFFFFFFFFF DUP2 GT ISZERO PUSH2 0x4D88 JUMPI PUSH2 0x4D87 PUSH2 0x618A JUMP JUMPDEST JUMPDEST PUSH2 0x4D94 DUP5 DUP3 DUP6 ADD PUSH2 0x496B JUMP JUMPDEST SWAP2 POP POP SWAP3 SWAP2 POP POP JUMP JUMPDEST PUSH1 0x0 DUP1 PUSH1 0x40 DUP4 DUP6 SUB SLT ISZERO PUSH2 0x4DB4 JUMPI PUSH2 0x4DB3 PUSH2 0x618F JUMP JUMPDEST JUMPDEST PUSH1 0x0 DUP4 ADD CALLDATALOAD PUSH8 0xFFFFFFFFFFFFFFFF DUP2 GT ISZERO PUSH2 0x4DD2 JUMPI PUSH2 0x4DD1 PUSH2 0x618A JUMP JUMPDEST JUMPDEST PUSH2 0x4DDE DUP6 DUP3 DUP7 ADD PUSH2 0x496B JUMP JUMPDEST SWAP3 POP POP PUSH1 0x20 DUP4 ADD CALLDATALOAD PUSH8 0xFFFFFFFFFFFFFFFF DUP2 GT ISZERO PUSH2 0x4DFF JUMPI PUSH2 0x4DFE PUSH2 0x618A JUMP JUMPDEST JUMPDEST PUSH2 0x4E0B DUP6 DUP3 DUP7 ADD PUSH2 0x49C7 JUMP JUMPDEST SWAP2 POP POP SWAP3 POP SWAP3 SWAP1 POP JUMP JUMPDEST PUSH1 0x0 DUP1 PUSH1 0x40 DUP4 DUP6 SUB SLT ISZERO PUSH2 0x4E2C JUMPI PUSH2 0x4E2B PUSH2 0x618F JUMP JUMPDEST JUMPDEST PUSH1 0x0 DUP4 ADD CALLDATALOAD PUSH8 0xFFFFFFFFFFFFFFFF DUP2 GT ISZERO PUSH2 0x4E4A JUMPI PUSH2 0x4E49 PUSH2 0x618A JUMP JUMPDEST JUMPDEST PUSH2 0x4E56 DUP6 DUP3 DUP7 ADD PUSH2 0x49F5 JUMP JUMPDEST SWAP3 POP POP PUSH1 0x20 DUP4 ADD CALLDATALOAD PUSH8 0xFFFFFFFFFFFFFFFF DUP2 GT ISZERO PUSH2 0x4E77 JUMPI PUSH2 0x4E76 PUSH2 0x618A JUMP JUMPDEST JUMPDEST PUSH2 0x4E83 DUP6 DUP3 DUP7 ADD PUSH2 0x4999 JUMP JUMPDEST SWAP2 POP POP SWAP3 POP SWAP3 SWAP1 POP JUMP JUMPDEST PUSH1 0x0 PUSH1 0x20 DUP3 DUP5 SUB SLT ISZERO PUSH2 0x4EA3 JUMPI PUSH2 0x4EA2 PUSH2 0x618F JUMP JUMPDEST JUMPDEST PUSH1 0x0 PUSH2 0x4EB1 DUP5 DUP3 DUP6 ADD PUSH2 0x4A23 JUMP JUMPDEST SWAP2 POP POP SWAP3 SWAP2 POP POP JUMP JUMPDEST PUSH1 0x0 PUSH1 0x20 DUP3 DUP5 SUB SLT ISZERO PUSH2 0x4ED0 JUMPI PUSH2 0x4ECF PUSH2 0x618F JUMP JUMPDEST JUMPDEST PUSH1 0x0 PUSH2 0x4EDE DUP5 DUP3 DUP6 ADD PUSH2 0x4A7B JUMP JUMPDEST SWAP2 POP POP SWAP3 SWAP2 POP POP JUMP JUMPDEST PUSH1 0x0 PUSH1 0x20 DUP3 DUP5 SUB SLT ISZERO PUSH2 0x4EFD JUMPI PUSH2 0x4EFC PUSH2 0x618F JUMP JUMPDEST JUMPDEST PUSH1 0x0 DUP3 ADD MLOAD PUSH8 0xFFFFFFFFFFFFFFFF DUP2 GT ISZERO PUSH2 0x4F1B JUMPI PUSH2 0x4F1A PUSH2 0x618A JUMP JUMPDEST JUMPDEST PUSH2 0x4F27 DUP5 DUP3 DUP6 ADD PUSH2 0x4ABE JUMP JUMPDEST SWAP2 POP POP SWAP3 SWAP2 POP POP JUMP JUMPDEST PUSH1 0x0 PUSH1 0x20 DUP3 DUP5 SUB SLT ISZERO PUSH2 0x4F46 JUMPI PUSH2 0x4F45 PUSH2 0x618F JUMP JUMPDEST JUMPDEST PUSH1 0x0 PUSH2 0x4F54 DUP5 DUP3 DUP6 ADD PUSH2 0x4AEC JUMP JUMPDEST SWAP2 POP POP SWAP3 SWAP2 POP POP JUMP JUMPDEST PUSH1 0x0 DUP1 PUSH1 0x40 DUP4 DUP6 SUB SLT ISZERO PUSH2 0x4F74 JUMPI PUSH2 0x4F73 PUSH2 0x618F JUMP JUMPDEST JUMPDEST PUSH1 0x0 PUSH2 0x4F82 DUP6 DUP3 DUP7 ADD PUSH2 0x4AEC JUMP JUMPDEST SWAP3 POP POP PUSH1 0x20 PUSH2 0x4F93 DUP6 DUP3 DUP7 ADD PUSH2 0x48EB JUMP JUMPDEST SWAP2 POP POP SWAP3 POP SWAP3 SWAP1 POP JUMP JUMPDEST PUSH1 0x0 DUP1 PUSH1 0x40 DUP4 DUP6 SUB SLT ISZERO PUSH2 0x4FB4 JUMPI PUSH2 0x4FB3 PUSH2 0x618F JUMP JUMPDEST JUMPDEST PUSH1 0x0 PUSH2 0x4FC2 DUP6 DUP3 DUP7 ADD PUSH2 0x4AEC JUMP JUMPDEST SWAP3 POP POP PUSH1 0x20 PUSH2 0x4FD3 DUP6 DUP3 DUP7 ADD PUSH2 0x4AEC JUMP JUMPDEST SWAP2 POP POP SWAP3 POP SWAP3 SWAP1 POP JUMP JUMPDEST PUSH1 0x0 PUSH1 0x20 DUP3 DUP5 SUB SLT ISZERO PUSH2 0x4FF3 JUMPI PUSH2 0x4FF2 PUSH2 0x618F JUMP JUMPDEST JUMPDEST PUSH1 0x0 PUSH2 0x5001 DUP5 DUP3 DUP6 ADD PUSH2 0x4B01 JUMP JUMPDEST SWAP2 POP POP SWAP3 SWAP2 POP POP JUMP JUMPDEST PUSH1 0x0 PUSH1 0x20 DUP3 DUP5 SUB SLT ISZERO PUSH2 0x5020 JUMPI PUSH2 0x501F PUSH2 0x618F JUMP JUMPDEST JUMPDEST PUSH1 0x0 PUSH2 0x502E DUP5 DUP3 DUP6 ADD PUSH2 0x4B16 JUMP JUMPDEST SWAP2 POP POP SWAP3 SWAP2 POP POP JUMP JUMPDEST PUSH1 0x0 PUSH2 0x5043 DUP4 DUP4 PUSH2 0x507F JUMP JUMPDEST PUSH1 0x20 DUP4 ADD SWAP1 POP SWAP3 SWAP2 POP POP JUMP JUMPDEST PUSH1 0x0 PUSH2 0x505B DUP4 DUP4 PUSH2 0x51CD JUMP JUMPDEST PUSH1 0x20 DUP4 ADD SWAP1 POP SWAP3 SWAP2 POP POP JUMP JUMPDEST PUSH1 0x0 PUSH2 0x5073 DUP4 DUP4 PUSH2 0x55BC JUMP JUMPDEST PUSH1 0x20 DUP4 ADD SWAP1 POP SWAP3 SWAP2 POP POP JUMP JUMPDEST PUSH2 0x5088 DUP2 PUSH2 0x5E38 JUMP JUMPDEST DUP3 MSTORE POP POP JUMP JUMPDEST PUSH2 0x5097 DUP2 PUSH2 0x5E38 JUMP JUMPDEST DUP3 MSTORE POP POP JUMP JUMPDEST PUSH1 0x0 PUSH2 0x50A8 DUP3 PUSH2 0x5C6C JUMP JUMPDEST PUSH2 0x50B2 DUP2 DUP6 PUSH2 0x5CBF JUMP JUMPDEST SWAP4 POP PUSH2 0x50BD DUP4 PUSH2 0x5C37 JUMP JUMPDEST DUP1 PUSH1 0x0 JUMPDEST DUP4 DUP2 LT ISZERO PUSH2 0x50F5 JUMPI PUSH2 0x50D2 DUP3 PUSH2 0x6163 JUMP JUMPDEST PUSH2 0x50DC DUP9 DUP3 PUSH2 0x5037 JUMP JUMPDEST SWAP8 POP PUSH2 0x50E7 DUP4 PUSH2 0x5C98 JUMP JUMPDEST SWAP3 POP POP PUSH1 0x1 DUP2 ADD SWAP1 POP PUSH2 0x50C1 JUMP JUMPDEST POP DUP6 SWAP4 POP POP POP POP SWAP3 SWAP2 POP POP JUMP JUMPDEST PUSH1 0x0 PUSH2 0x510D DUP3 PUSH2 0x5C77 JUMP JUMPDEST PUSH2 0x5117 DUP2 DUP6 PUSH2 0x5CD0 JUMP JUMPDEST SWAP4 POP PUSH2 0x5122 DUP4 PUSH2 0x5C4C JUMP JUMPDEST DUP1 PUSH1 0x0 JUMPDEST DUP4 DUP2 LT ISZERO PUSH2 0x5153 JUMPI DUP2 MLOAD PUSH2 0x513A DUP9 DUP3 PUSH2 0x504F JUMP JUMPDEST SWAP8 POP PUSH2 0x5145 DUP4 PUSH2 0x5CA5 JUMP JUMPDEST SWAP3 POP POP PUSH1 0x1 DUP2 ADD SWAP1 POP PUSH2 0x5126 JUMP JUMPDEST POP DUP6 SWAP4 POP POP POP POP SWAP3 SWAP2 POP POP JUMP JUMPDEST PUSH1 0x0 PUSH2 0x516B DUP3 PUSH2 0x5C82 JUMP JUMPDEST PUSH2 0x5175 DUP2 DUP6 PUSH2 0x5CE1 JUMP JUMPDEST SWAP4 POP PUSH2 0x5180 DUP4 PUSH2 0x5C5C JUMP JUMPDEST DUP1 PUSH1 0x0 JUMPDEST DUP4 DUP2 LT ISZERO PUSH2 0x51B1 JUMPI DUP2 MLOAD PUSH2 0x5198 DUP9 DUP3 PUSH2 0x5067 JUMP JUMPDEST SWAP8 POP PUSH2 0x51A3 DUP4 PUSH2 0x5CB2 JUMP JUMPDEST SWAP3 POP POP PUSH1 0x1 DUP2 ADD SWAP1 POP PUSH2 0x5184 JUMP JUMPDEST POP DUP6 SWAP4 POP POP POP POP SWAP3 SWAP2 POP POP JUMP JUMPDEST PUSH2 0x51C7 DUP2 PUSH2 0x5E5C JUMP JUMPDEST DUP3 MSTORE POP POP JUMP JUMPDEST PUSH2 0x51D6 DUP2 PUSH2 0x5E68 JUMP JUMPDEST DUP3 MSTORE POP POP JUMP JUMPDEST PUSH2 0x51E5 DUP2 PUSH2 0x5E68 JUMP JUMPDEST DUP3 MSTORE POP POP JUMP JUMPDEST PUSH2 0x51F4 DUP2 PUSH2 0x5E94 JUMP JUMPDEST DUP3 MSTORE POP POP JUMP JUMPDEST PUSH2 0x5203 DUP2 PUSH2 0x5EE7 JUMP JUMPDEST DUP3 MSTORE POP POP JUMP JUMPDEST PUSH2 0x5212 DUP2 PUSH2 0x5EF9 JUMP JUMPDEST DUP3 MSTORE POP POP JUMP JUMPDEST PUSH1 0x0 PUSH2 0x5223 DUP3 PUSH2 0x5C8D JUMP JUMPDEST PUSH2 0x522D DUP2 DUP6 PUSH2 0x5CF2 JUMP JUMPDEST SWAP4 POP PUSH2 0x523D DUP2 DUP6 PUSH1 0x20 DUP7 ADD PUSH2 0x5F50 JUMP JUMPDEST PUSH2 0x5246 DUP2 PUSH2 0x6194 JUMP JUMPDEST DUP5 ADD SWAP2 POP POP SWAP3 SWAP2 POP POP JUMP JUMPDEST PUSH1 0x0 PUSH2 0x525E PUSH1 0x4 DUP4 PUSH2 0x5CF2 JUMP JUMPDEST SWAP2 POP PUSH2 0x5269 DUP3 PUSH2 0x61B2 JUMP JUMPDEST PUSH1 0x20 DUP3 ADD SWAP1 POP SWAP2 SWAP1 POP JUMP JUMPDEST PUSH1 0x0 PUSH2 0x5281 PUSH1 0x23 DUP4 PUSH2 0x5CF2 JUMP JUMPDEST SWAP2 POP PUSH2 0x528C DUP3 PUSH2 0x61DB JUMP JUMPDEST PUSH1 0x40 DUP3 ADD SWAP1 POP SWAP2 SWAP1 POP JUMP JUMPDEST PUSH1 0x0 PUSH2 0x52A4 PUSH1 0x14 DUP4 PUSH2 0x5CF2 JUMP JUMPDEST SWAP2 POP PUSH2 0x52AF DUP3 PUSH2 0x622A JUMP JUMPDEST PUSH1 0x20 DUP3 ADD SWAP1 POP SWAP2 SWAP1 POP JUMP JUMPDEST PUSH1 0x0 PUSH2 0x52C7 PUSH1 0x25 DUP4 PUSH2 0x5CF2 JUMP JUMPDEST SWAP2 POP PUSH2 0x52D2 DUP3 PUSH2 0x6253 JUMP JUMPDEST PUSH1 0x40 DUP3 ADD SWAP1 POP SWAP2 SWAP1 POP JUMP JUMPDEST PUSH1 0x0 PUSH2 0x52EA PUSH1 0x26 DUP4 PUSH2 0x5CF2 JUMP JUMPDEST SWAP2 POP PUSH2 0x52F5 DUP3 PUSH2 0x62A2 JUMP JUMPDEST PUSH1 0x40 DUP3 ADD SWAP1 POP SWAP2 SWAP1 POP JUMP JUMPDEST PUSH1 0x0 PUSH2 0x530D PUSH1 0x22 DUP4 PUSH2 0x5CF2 JUMP JUMPDEST SWAP2 POP PUSH2 0x5318 DUP3 PUSH2 0x62F1 JUMP JUMPDEST PUSH1 0x40 DUP3 ADD SWAP1 POP SWAP2 SWAP1 POP JUMP JUMPDEST PUSH1 0x0 PUSH2 0x5330 PUSH1 0x1D DUP4 PUSH2 0x5CF2 JUMP JUMPDEST SWAP2 POP PUSH2 0x533B DUP3 PUSH2 0x6340 JUMP JUMPDEST PUSH1 0x20 DUP3 ADD SWAP1 POP SWAP2 SWAP1 POP JUMP JUMPDEST PUSH1 0x0 PUSH2 0x5353 PUSH1 0x4 DUP4 PUSH2 0x5CF2 JUMP JUMPDEST SWAP2 POP PUSH2 0x535E DUP3 PUSH2 0x6369 JUMP JUMPDEST PUSH1 0x20 DUP3 ADD SWAP1 POP SWAP2 SWAP1 POP JUMP JUMPDEST PUSH1 0x0 PUSH2 0x5376 PUSH1 0x15 DUP4 PUSH2 0x5CF2 JUMP JUMPDEST SWAP2 POP PUSH2 0x5381 DUP3 PUSH2 0x6392 JUMP JUMPDEST PUSH1 0x20 DUP3 ADD SWAP1 POP SWAP2 SWAP1 POP JUMP JUMPDEST PUSH1 0x0 PUSH2 0x5399 PUSH1 0x16 DUP4 PUSH2 0x5CF2 JUMP JUMPDEST SWAP2 POP PUSH2 0x53A4 DUP3 PUSH2 0x63BB JUMP JUMPDEST PUSH1 0x20 DUP3 ADD SWAP1 POP SWAP2 SWAP1 POP JUMP JUMPDEST PUSH1 0x0 PUSH2 0x53BC PUSH1 0x4 DUP4 PUSH2 0x5CF2 JUMP JUMPDEST SWAP2 POP PUSH2 0x53C7 DUP3 PUSH2 0x63E4 JUMP JUMPDEST PUSH1 0x20 DUP3 ADD SWAP1 POP SWAP2 SWAP1 POP JUMP JUMPDEST PUSH1 0x0 PUSH2 0x53DF PUSH1 0x17 DUP4 PUSH2 0x5CF2 JUMP JUMPDEST SWAP2 POP PUSH2 0x53EA DUP3 PUSH2 0x640D JUMP JUMPDEST PUSH1 0x20 DUP3 ADD SWAP1 POP SWAP2 SWAP1 POP JUMP JUMPDEST PUSH1 0x0 PUSH2 0x5402 PUSH1 0x9 DUP4 PUSH2 0x5CF2 JUMP JUMPDEST SWAP2 POP PUSH2 0x540D DUP3 PUSH2 0x6436 JUMP JUMPDEST PUSH1 0x20 DUP3 ADD SWAP1 POP SWAP2 SWAP1 POP JUMP JUMPDEST PUSH1 0x0 PUSH2 0x5425 PUSH1 0x4 DUP4 PUSH2 0x5CF2 JUMP JUMPDEST SWAP2 POP PUSH2 0x5430 DUP3 PUSH2 0x645F JUMP JUMPDEST PUSH1 0x20 DUP3 ADD SWAP1 POP SWAP2 SWAP1 POP JUMP JUMPDEST PUSH1 0x0 PUSH2 0x5448 PUSH1 0x17 DUP4 PUSH2 0x5CF2 JUMP JUMPDEST SWAP2 POP PUSH2 0x5453 DUP3 PUSH2 0x6488 JUMP JUMPDEST PUSH1 0x20 DUP3 ADD SWAP1 POP SWAP2 SWAP1 POP JUMP JUMPDEST PUSH1 0x0 PUSH2 0x546B PUSH1 0x20 DUP4 PUSH2 0x5CF2 JUMP JUMPDEST SWAP2 POP PUSH2 0x5476 DUP3 PUSH2 0x64B1 JUMP JUMPDEST PUSH1 0x20 DUP3 ADD SWAP1 POP SWAP2 SWAP1 POP JUMP JUMPDEST PUSH1 0x0 PUSH2 0x548E PUSH1 0x12 DUP4 PUSH2 0x5CF2 JUMP JUMPDEST SWAP2 POP PUSH2 0x5499 DUP3 PUSH2 0x64DA JUMP JUMPDEST PUSH1 0x20 DUP3 ADD SWAP1 POP SWAP2 SWAP1 POP JUMP JUMPDEST PUSH1 0x0 PUSH2 0x54B1 PUSH1 0x1F DUP4 PUSH2 0x5CF2 JUMP JUMPDEST SWAP2 POP PUSH2 0x54BC DUP3 PUSH2 0x6503 JUMP JUMPDEST PUSH1 0x20 DUP3 ADD SWAP1 POP SWAP2 SWAP1 POP JUMP JUMPDEST PUSH1 0x0 PUSH2 0x54D4 PUSH1 0x25 DUP4 PUSH2 0x5CF2 JUMP JUMPDEST SWAP2 POP PUSH2 0x54DF DUP3 PUSH2 0x652C JUMP JUMPDEST PUSH1 0x40 DUP3 ADD SWAP1 POP SWAP2 SWAP1 POP JUMP JUMPDEST PUSH1 0x0 PUSH2 0x54F7 PUSH1 0x1E DUP4 PUSH2 0x5CF2 JUMP JUMPDEST SWAP2 POP PUSH2 0x5502 DUP3 PUSH2 0x657B JUMP JUMPDEST PUSH1 0x20 DUP3 ADD SWAP1 POP SWAP2 SWAP1 POP JUMP JUMPDEST PUSH1 0x0 PUSH2 0x551A PUSH1 0x24 DUP4 PUSH2 0x5CF2 JUMP JUMPDEST SWAP2 POP PUSH2 0x5525 DUP3 PUSH2 0x65A4 JUMP JUMPDEST PUSH1 0x40 DUP3 ADD SWAP1 POP SWAP2 SWAP1 POP JUMP JUMPDEST PUSH1 0x0 PUSH2 0x553D PUSH1 0x28 DUP4 PUSH2 0x5CF2 JUMP JUMPDEST SWAP2 POP PUSH2 0x5548 DUP3 PUSH2 0x65F3 JUMP JUMPDEST PUSH1 0x40 DUP3 ADD SWAP1 POP SWAP2 SWAP1 POP JUMP JUMPDEST PUSH1 0x0 PUSH2 0x5560 PUSH1 0x10 DUP4 PUSH2 0x5CF2 JUMP JUMPDEST SWAP2 POP PUSH2 0x556B DUP3 PUSH2 0x6642 JUMP JUMPDEST PUSH1 0x20 DUP3 ADD SWAP1 POP SWAP2 SWAP1 POP JUMP JUMPDEST PUSH1 0x0 PUSH2 0x5583 PUSH1 0x25 DUP4 PUSH2 0x5CF2 JUMP JUMPDEST SWAP2 POP PUSH2 0x558E DUP3 PUSH2 0x666B JUMP JUMPDEST PUSH1 0x40 DUP3 ADD SWAP1 POP SWAP2 SWAP1 POP JUMP JUMPDEST PUSH1 0x0 PUSH2 0x55A6 PUSH1 0x1F DUP4 PUSH2 0x5CF2 JUMP JUMPDEST SWAP2 POP PUSH2 0x55B1 DUP3 PUSH2 0x66BA JUMP JUMPDEST PUSH1 0x20 DUP3 ADD SWAP1 POP SWAP2 SWAP1 POP JUMP JUMPDEST PUSH2 0x55C5 DUP2 PUSH2 0x5ED0 JUMP JUMPDEST DUP3 MSTORE POP POP JUMP JUMPDEST PUSH2 0x55D4 DUP2 PUSH2 0x5ED0 JUMP JUMPDEST DUP3 MSTORE POP POP JUMP JUMPDEST PUSH2 0x55E3 DUP2 PUSH2 0x5EDA JUMP JUMPDEST DUP3 MSTORE POP POP JUMP JUMPDEST PUSH1 0x0 PUSH1 0x20 DUP3 ADD SWAP1 POP PUSH2 0x55FE PUSH1 0x0 DUP4 ADD DUP5 PUSH2 0x508E JUMP JUMPDEST SWAP3 SWAP2 POP POP JUMP JUMPDEST PUSH1 0x0 PUSH1 0x60 DUP3 ADD SWAP1 POP PUSH2 0x5619 PUSH1 0x0 DUP4 ADD DUP7 PUSH2 0x508E JUMP JUMPDEST PUSH2 0x5626 PUSH1 0x20 DUP4 ADD DUP6 PUSH2 0x508E JUMP JUMPDEST PUSH2 0x5633 PUSH1 0x40 DUP4 ADD DUP5 PUSH2 0x55CB JUMP JUMPDEST SWAP5 SWAP4 POP POP POP POP JUMP JUMPDEST PUSH1 0x0 PUSH1 0x40 DUP3 ADD SWAP1 POP PUSH2 0x5650 PUSH1 0x0 DUP4 ADD DUP6 PUSH2 0x508E JUMP JUMPDEST PUSH2 0x565D PUSH1 0x20 DUP4 ADD DUP5 PUSH2 0x55CB JUMP JUMPDEST SWAP4 SWAP3 POP POP POP JUMP JUMPDEST PUSH1 0x0 PUSH1 0x20 DUP3 ADD SWAP1 POP DUP2 DUP2 SUB PUSH1 0x0 DUP4 ADD MSTORE PUSH2 0x567E DUP2 DUP5 PUSH2 0x509D JUMP JUMPDEST SWAP1 POP SWAP3 SWAP2 POP POP JUMP JUMPDEST PUSH1 0x0 PUSH1 0x20 DUP3 ADD SWAP1 POP DUP2 DUP2 SUB PUSH1 0x0 DUP4 ADD MSTORE PUSH2 0x56A0 DUP2 DUP5 PUSH2 0x5102 JUMP JUMPDEST SWAP1 POP SWAP3 SWAP2 POP POP JUMP JUMPDEST PUSH1 0x0 PUSH1 0x20 DUP3 ADD SWAP1 POP DUP2 DUP2 SUB PUSH1 0x0 DUP4 ADD MSTORE PUSH2 0x56C2 DUP2 DUP5 PUSH2 0x5160 JUMP JUMPDEST SWAP1 POP SWAP3 SWAP2 POP POP JUMP JUMPDEST PUSH1 0x0 PUSH1 0x20 DUP3 ADD SWAP1 POP PUSH2 0x56DF PUSH1 0x0 DUP4 ADD DUP5 PUSH2 0x51BE JUMP JUMPDEST SWAP3 SWAP2 POP POP JUMP JUMPDEST PUSH1 0x0 PUSH1 0x20 DUP3 ADD SWAP1 POP PUSH2 0x56FA PUSH1 0x0 DUP4 ADD DUP5 PUSH2 0x51DC JUMP JUMPDEST SWAP3 SWAP2 POP POP JUMP JUMPDEST PUSH1 0x0 PUSH1 0x20 DUP3 ADD SWAP1 POP PUSH2 0x5715 PUSH1 0x0 DUP4 ADD DUP5 PUSH2 0x51EB JUMP JUMPDEST SWAP3 SWAP2 POP POP JUMP JUMPDEST PUSH1 0x0 PUSH1 0x20 DUP3 ADD SWAP1 POP PUSH2 0x5730 PUSH1 0x0 DUP4 ADD DUP5 PUSH2 0x51FA JUMP JUMPDEST SWAP3 SWAP2 POP POP JUMP JUMPDEST PUSH1 0x0 PUSH1 0x20 DUP3 ADD SWAP1 POP PUSH2 0x574B PUSH1 0x0 DUP4 ADD DUP5 PUSH2 0x5209 JUMP JUMPDEST SWAP3 SWAP2 POP POP JUMP JUMPDEST PUSH1 0x0 PUSH1 0x20 DUP3 ADD SWAP1 POP DUP2 DUP2 SUB PUSH1 0x0 DUP4 ADD MSTORE PUSH2 0x576B DUP2 DUP5 PUSH2 0x5218 JUMP JUMPDEST SWAP1 POP SWAP3 SWAP2 POP POP JUMP JUMPDEST PUSH1 0x0 PUSH1 0x40 DUP3 ADD SWAP1 POP DUP2 DUP2 SUB PUSH1 0x0 DUP4 ADD MSTORE PUSH2 0x578D DUP2 DUP6 PUSH2 0x5218 JUMP JUMPDEST SWAP1 POP DUP2 DUP2 SUB PUSH1 0x20 DUP4 ADD MSTORE PUSH2 0x57A1 DUP2 DUP5 PUSH2 0x5218 JUMP JUMPDEST SWAP1 POP SWAP4 SWAP3 POP POP POP JUMP JUMPDEST PUSH1 0x0 PUSH1 0x20 DUP3 ADD SWAP1 POP DUP2 DUP2 SUB PUSH1 0x0 DUP4 ADD MSTORE PUSH2 0x57C3 DUP2 PUSH2 0x5251 JUMP JUMPDEST SWAP1 POP SWAP2 SWAP1 POP JUMP JUMPDEST PUSH1 0x0 PUSH1 0x20 DUP3 ADD SWAP1 POP DUP2 DUP2 SUB PUSH1 0x0 DUP4 ADD MSTORE PUSH2 0x57E3 DUP2 PUSH2 0x5274 JUMP JUMPDEST SWAP1 POP SWAP2 SWAP1 POP JUMP JUMPDEST PUSH1 0x0 PUSH1 0x20 DUP3 ADD SWAP1 POP DUP2 DUP2 SUB PUSH1 0x0 DUP4 ADD MSTORE PUSH2 0x5803 DUP2 PUSH2 0x5297 JUMP JUMPDEST SWAP1 POP SWAP2 SWAP1 POP JUMP JUMPDEST PUSH1 0x0 PUSH1 0x20 DUP3 ADD SWAP1 POP DUP2 DUP2 SUB PUSH1 0x0 DUP4 ADD MSTORE PUSH2 0x5823 DUP2 PUSH2 0x52BA JUMP JUMPDEST SWAP1 POP SWAP2 SWAP1 POP JUMP JUMPDEST PUSH1 0x0 PUSH1 0x20 DUP3 ADD SWAP1 POP DUP2 DUP2 SUB PUSH1 0x0 DUP4 ADD MSTORE PUSH2 0x5843 DUP2 PUSH2 0x52DD JUMP JUMPDEST SWAP1 POP SWAP2 SWAP1 POP JUMP JUMPDEST PUSH1 0x0 PUSH1 0x20 DUP3 ADD SWAP1 POP DUP2 DUP2 SUB PUSH1 0x0 DUP4 ADD MSTORE PUSH2 0x5863 DUP2 PUSH2 0x5300 JUMP JUMPDEST SWAP1 POP SWAP2 SWAP1 POP JUMP JUMPDEST PUSH1 0x0 PUSH1 0x20 DUP3 ADD SWAP1 POP DUP2 DUP2 SUB PUSH1 0x0 DUP4 ADD MSTORE PUSH2 0x5883 DUP2 PUSH2 0x5323 JUMP JUMPDEST SWAP1 POP SWAP2 SWAP1 POP JUMP JUMPDEST PUSH1 0x0 PUSH1 0x20 DUP3 ADD SWAP1 POP DUP2 DUP2 SUB PUSH1 0x0 DUP4 ADD MSTORE PUSH2 0x58A3 DUP2 PUSH2 0x5346 JUMP JUMPDEST SWAP1 POP SWAP2 SWAP1 POP JUMP JUMPDEST PUSH1 0x0 PUSH1 0x20 DUP3 ADD SWAP1 POP DUP2 DUP2 SUB PUSH1 0x0 DUP4 ADD MSTORE PUSH2 0x58C3 DUP2 PUSH2 0x5369 JUMP JUMPDEST SWAP1 POP SWAP2 SWAP1 POP JUMP JUMPDEST PUSH1 0x0 PUSH1 0x20 DUP3 ADD SWAP1 POP DUP2 DUP2 SUB PUSH1 0x0 DUP4 ADD MSTORE PUSH2 0x58E3 DUP2 PUSH2 0x538C JUMP JUMPDEST SWAP1 POP SWAP2 SWAP1 POP JUMP JUMPDEST PUSH1 0x0 PUSH1 0x20 DUP3 ADD SWAP1 POP DUP2 DUP2 SUB PUSH1 0x0 DUP4 ADD MSTORE PUSH2 0x5903 DUP2 PUSH2 0x53AF JUMP JUMPDEST SWAP1 POP SWAP2 SWAP1 POP JUMP JUMPDEST PUSH1 0x0 PUSH1 0x20 DUP3 ADD SWAP1 POP DUP2 DUP2 SUB PUSH1 0x0 DUP4 ADD MSTORE PUSH2 0x5923 DUP2 PUSH2 0x53D2 JUMP JUMPDEST SWAP1 POP SWAP2 SWAP1 POP JUMP JUMPDEST PUSH1 0x0 PUSH1 0x20 DUP3 ADD SWAP1 POP DUP2 DUP2 SUB PUSH1 0x0 DUP4 ADD MSTORE PUSH2 0x5943 DUP2 PUSH2 0x53F5 JUMP JUMPDEST SWAP1 POP SWAP2 SWAP1 POP JUMP JUMPDEST PUSH1 0x0 PUSH1 0x20 DUP3 ADD SWAP1 POP DUP2 DUP2 SUB PUSH1 0x0 DUP4 ADD MSTORE PUSH2 0x5963 DUP2 PUSH2 0x5418 JUMP JUMPDEST SWAP1 POP SWAP2 SWAP1 POP JUMP JUMPDEST PUSH1 0x0 PUSH1 0x20 DUP3 ADD SWAP1 POP DUP2 DUP2 SUB PUSH1 0x0 DUP4 ADD MSTORE PUSH2 0x5983 DUP2 PUSH2 0x543B JUMP JUMPDEST SWAP1 POP SWAP2 SWAP1 POP JUMP JUMPDEST PUSH1 0x0 PUSH1 0x20 DUP3 ADD SWAP1 POP DUP2 DUP2 SUB PUSH1 0x0 DUP4 ADD MSTORE PUSH2 0x59A3 DUP2 PUSH2 0x545E JUMP JUMPDEST SWAP1 POP SWAP2 SWAP1 POP JUMP JUMPDEST PUSH1 0x0 PUSH1 0x20 DUP3 ADD SWAP1 POP DUP2 DUP2 SUB PUSH1 0x0 DUP4 ADD MSTORE PUSH2 0x59C3 DUP2 PUSH2 0x5481 JUMP JUMPDEST SWAP1 POP SWAP2 SWAP1 POP JUMP JUMPDEST PUSH1 0x0 PUSH1 0x20 DUP3 ADD SWAP1 POP DUP2 DUP2 SUB PUSH1 0x0 DUP4 ADD MSTORE PUSH2 0x59E3 DUP2 PUSH2 0x54A4 JUMP JUMPDEST SWAP1 POP SWAP2 SWAP1 POP JUMP JUMPDEST PUSH1 0x0 PUSH1 0x20 DUP3 ADD SWAP1 POP DUP2 DUP2 SUB PUSH1 0x0 DUP4 ADD MSTORE PUSH2 0x5A03 DUP2 PUSH2 0x54C7 JUMP JUMPDEST SWAP1 POP SWAP2 SWAP1 POP JUMP JUMPDEST PUSH1 0x0 PUSH1 0x20 DUP3 ADD SWAP1 POP DUP2 DUP2 SUB PUSH1 0x0 DUP4 ADD MSTORE PUSH2 0x5A23 DUP2 PUSH2 0x54EA JUMP JUMPDEST SWAP1 POP SWAP2 SWAP1 POP JUMP JUMPDEST PUSH1 0x0 PUSH1 0x20 DUP3 ADD SWAP1 POP DUP2 DUP2 SUB PUSH1 0x0 DUP4 ADD MSTORE PUSH2 0x5A43 DUP2 PUSH2 0x550D JUMP JUMPDEST SWAP1 POP SWAP2 SWAP1 POP JUMP JUMPDEST PUSH1 0x0 PUSH1 0x20 DUP3 ADD SWAP1 POP DUP2 DUP2 SUB PUSH1 0x0 DUP4 ADD MSTORE PUSH2 0x5A63 DUP2 PUSH2 0x5530 JUMP JUMPDEST SWAP1 POP SWAP2 SWAP1 POP JUMP JUMPDEST PUSH1 0x0 PUSH1 0x20 DUP3 ADD SWAP1 POP DUP2 DUP2 SUB PUSH1 0x0 DUP4 ADD MSTORE PUSH2 0x5A83 DUP2 PUSH2 0x5553 JUMP JUMPDEST SWAP1 POP SWAP2 SWAP1 POP JUMP JUMPDEST PUSH1 0x0 PUSH1 0x20 DUP3 ADD SWAP1 POP DUP2 DUP2 SUB PUSH1 0x0 DUP4 ADD MSTORE PUSH2 0x5AA3 DUP2 PUSH2 0x5576 JUMP JUMPDEST SWAP1 POP SWAP2 SWAP1 POP JUMP JUMPDEST PUSH1 0x0 PUSH1 0x20 DUP3 ADD SWAP1 POP DUP2 DUP2 SUB PUSH1 0x0 DUP4 ADD MSTORE PUSH2 0x5AC3 DUP2 PUSH2 0x5599 JUMP JUMPDEST SWAP1 POP SWAP2 SWAP1 POP JUMP JUMPDEST PUSH1 0x0 PUSH1 0x20 DUP3 ADD SWAP1 POP PUSH2 0x5ADF PUSH1 0x0 DUP4 ADD DUP5 PUSH2 0x55CB JUMP JUMPDEST SWAP3 SWAP2 POP POP JUMP JUMPDEST PUSH1 0x0 PUSH1 0x20 DUP3 ADD SWAP1 POP PUSH2 0x5AFA PUSH1 0x0 DUP4 ADD DUP5 PUSH2 0x55DA JUMP JUMPDEST SWAP3 SWAP2 POP POP JUMP JUMPDEST PUSH1 0x0 PUSH2 0x5B0A PUSH2 0x5B1B JUMP JUMPDEST SWAP1 POP PUSH2 0x5B16 DUP3 DUP3 PUSH2 0x5FCF JUMP JUMPDEST SWAP2 SWAP1 POP JUMP JUMPDEST PUSH1 0x0 PUSH1 0x40 MLOAD SWAP1 POP SWAP1 JUMP JUMPDEST PUSH1 0x0 PUSH8 0xFFFFFFFFFFFFFFFF DUP3 GT ISZERO PUSH2 0x5B40 JUMPI PUSH2 0x5B3F PUSH2 0x6134 JUMP JUMPDEST JUMPDEST PUSH1 0x20 DUP3 MUL SWAP1 POP PUSH1 0x20 DUP2 ADD SWAP1 POP SWAP2 SWAP1 POP JUMP JUMPDEST PUSH1 0x0 PUSH8 0xFFFFFFFFFFFFFFFF DUP3 GT ISZERO PUSH2 0x5B6C JUMPI PUSH2 0x5B6B PUSH2 0x6134 JUMP JUMPDEST JUMPDEST PUSH1 0x20 DUP3 MUL SWAP1 POP PUSH1 0x20 DUP2 ADD SWAP1 POP SWAP2 SWAP1 POP JUMP JUMPDEST PUSH1 0x0 PUSH8 0xFFFFFFFFFFFFFFFF DUP3 GT ISZERO PUSH2 0x5B98 JUMPI PUSH2 0x5B97 PUSH2 0x6134 JUMP JUMPDEST JUMPDEST PUSH1 0x20 DUP3 MUL SWAP1 POP PUSH1 0x20 DUP2 ADD SWAP1 POP SWAP2 SWAP1 POP JUMP JUMPDEST PUSH1 0x0 PUSH8 0xFFFFFFFFFFFFFFFF DUP3 GT ISZERO PUSH2 0x5BC4 JUMPI PUSH2 0x5BC3 PUSH2 0x6134 JUMP JUMPDEST JUMPDEST PUSH1 0x20 DUP3 MUL SWAP1 POP PUSH1 0x20 DUP2 ADD SWAP1 POP SWAP2 SWAP1 POP JUMP JUMPDEST PUSH1 0x0 PUSH8 0xFFFFFFFFFFFFFFFF DUP3 GT ISZERO PUSH2 0x5BF0 JUMPI PUSH2 0x5BEF PUSH2 0x6134 JUMP JUMPDEST JUMPDEST PUSH2 0x5BF9 DUP3 PUSH2 0x6194 JUMP JUMPDEST SWAP1 POP PUSH1 0x20 DUP2 ADD SWAP1 POP SWAP2 SWAP1 POP JUMP JUMPDEST PUSH1 0x0 PUSH8 0xFFFFFFFFFFFFFFFF DUP3 GT ISZERO PUSH2 0x5C21 JUMPI PUSH2 0x5C20 PUSH2 0x6134 JUMP JUMPDEST JUMPDEST PUSH2 0x5C2A DUP3 PUSH2 0x6194 JUMP JUMPDEST SWAP1 POP PUSH1 0x20 DUP2 ADD SWAP1 POP SWAP2 SWAP1 POP JUMP JUMPDEST PUSH1 0x0 DUP2 SWAP1 POP DUP2 PUSH1 0x0 MSTORE PUSH1 0x20 PUSH1 0x0 KECCAK256 SWAP1 POP SWAP2 SWAP1 POP JUMP JUMPDEST PUSH1 0x0 DUP2 SWAP1 POP PUSH1 0x20 DUP3 ADD SWAP1 POP SWAP2 SWAP1 POP JUMP JUMPDEST PUSH1 0x0 DUP2 SWAP1 POP PUSH1 0x20 DUP3 ADD SWAP1 POP SWAP2 SWAP1 POP JUMP JUMPDEST PUSH1 0x0 DUP2 SLOAD SWAP1 POP SWAP2 SWAP1 POP JUMP JUMPDEST PUSH1 0x0 DUP2 MLOAD SWAP1 POP SWAP2 SWAP1 POP JUMP JUMPDEST PUSH1 0x0 DUP2 MLOAD SWAP1 POP SWAP2 SWAP1 POP JUMP JUMPDEST PUSH1 0x0 DUP2 MLOAD SWAP1 POP SWAP2 SWAP1 POP JUMP JUMPDEST PUSH1 0x0 PUSH1 0x1 DUP3 ADD SWAP1 POP SWAP2 SWAP1 POP JUMP JUMPDEST PUSH1 0x0 PUSH1 0x20 DUP3 ADD SWAP1 POP SWAP2 SWAP1 POP JUMP JUMPDEST PUSH1 0x0 PUSH1 0x20 DUP3 ADD SWAP1 POP SWAP2 SWAP1 POP JUMP JUMPDEST PUSH1 0x0 DUP3 DUP3 MSTORE PUSH1 0x20 DUP3 ADD SWAP1 POP SWAP3 SWAP2 POP POP JUMP JUMPDEST PUSH1 0x0 DUP3 DUP3 MSTORE PUSH1 0x20 DUP3 ADD SWAP1 POP SWAP3 SWAP2 POP POP JUMP JUMPDEST PUSH1 0x0 DUP3 DUP3 MSTORE PUSH1 0x20 DUP3 ADD SWAP1 POP SWAP3 SWAP2 POP POP JUMP JUMPDEST PUSH1 0x0 DUP3 DUP3 MSTORE PUSH1 0x20 DUP3 ADD SWAP1 POP SWAP3 SWAP2 POP POP JUMP JUMPDEST PUSH1 0x0 PUSH2 0x5D0E DUP3 PUSH2 0x5ED0 JUMP JUMPDEST SWAP2 POP PUSH2 0x5D19 DUP4 PUSH2 0x5ED0 JUMP JUMPDEST SWAP3 POP DUP3 PUSH32 0xFFFFFFFFFFFFFFFFFFFFFFFFFFFFFFFFFFFFFFFFFFFFFFFFFFFFFFFFFFFFFFFF SUB DUP3 GT ISZERO PUSH2 0x5D4E JUMPI PUSH2 0x5D4D PUSH2 0x6049 JUMP JUMPDEST JUMPDEST DUP3 DUP3 ADD SWAP1 POP SWAP3 SWAP2 POP POP JUMP JUMPDEST PUSH1 0x0 PUSH2 0x5D64 DUP3 PUSH2 0x5ED0 JUMP JUMPDEST SWAP2 POP PUSH2 0x5D6F DUP4 PUSH2 0x5ED0 JUMP JUMPDEST SWAP3 POP DUP3 PUSH2 0x5D7F JUMPI PUSH2 0x5D7E PUSH2 0x6078 JUMP JUMPDEST JUMPDEST DUP3 DUP3 DIV SWAP1 POP SWAP3 SWAP2 POP POP JUMP JUMPDEST PUSH1 0x0 PUSH2 0x5D95 DUP3 PUSH2 0x5ED0 JUMP JUMPDEST SWAP2 POP PUSH2 0x5DA0 DUP4 PUSH2 0x5ED0 JUMP JUMPDEST SWAP3 POP DUP2 PUSH32 0xFFFFFFFFFFFFFFFFFFFFFFFFFFFFFFFFFFFFFFFFFFFFFFFFFFFFFFFFFFFFFFFF DIV DUP4 GT DUP3 ISZERO ISZERO AND ISZERO PUSH2 0x5DD9 JUMPI PUSH2 0x5DD8 PUSH2 0x6049 JUMP JUMPDEST JUMPDEST DUP3 DUP3 MUL SWAP1 POP SWAP3 SWAP2 POP POP JUMP JUMPDEST PUSH1 0x0 PUSH2 0x5DEF DUP3 PUSH2 0x5ED0 JUMP JUMPDEST SWAP2 POP PUSH2 0x5DFA DUP4 PUSH2 0x5ED0 JUMP JUMPDEST SWAP3 POP DUP3 DUP3 LT ISZERO PUSH2 0x5E0D JUMPI PUSH2 0x5E0C PUSH2 0x6049 JUMP JUMPDEST JUMPDEST DUP3 DUP3 SUB SWAP1 POP SWAP3 SWAP2 POP POP JUMP JUMPDEST PUSH1 0x0 PUSH20 0xFFFFFFFFFFFFFFFFFFFFFFFFFFFFFFFFFFFFFFFF DUP3 AND SWAP1 POP SWAP2 SWAP1 POP JUMP JUMPDEST PUSH1 0x0 PUSH2 0x5E43 DUP3 PUSH2 0x5EB0 JUMP JUMPDEST SWAP1 POP SWAP2 SWAP1 POP JUMP JUMPDEST PUSH1 0x0 PUSH2 0x5E55 DUP3 PUSH2 0x5EB0 JUMP JUMPDEST SWAP1 POP SWAP2 SWAP1 POP JUMP JUMPDEST PUSH1 0x0 DUP2 ISZERO ISZERO SWAP1 POP SWAP2 SWAP1 POP JUMP JUMPDEST PUSH1 0x0 PUSH32 0xFFFFFFFFFFFFFFFFFFFFFFFFFFFFFFFF00000000000000000000000000000000 DUP3 AND SWAP1 POP SWAP2 SWAP1 POP JUMP JUMPDEST PUSH1 0x0 DUP2 SWAP1 POP SWAP2 SWAP1 POP JUMP JUMPDEST PUSH1 0x0 PUSH2 0x5EA9 DUP3 PUSH2 0x5E38 JUMP JUMPDEST SWAP1 POP SWAP2 SWAP1 POP JUMP JUMPDEST PUSH1 0x0 PUSH20 0xFFFFFFFFFFFFFFFFFFFFFFFFFFFFFFFFFFFFFFFF DUP3 AND SWAP1 POP SWAP2 SWAP1 POP JUMP JUMPDEST PUSH1 0x0 DUP2 SWAP1 POP SWAP2 SWAP1 POP JUMP JUMPDEST PUSH1 0x0 PUSH1 0xFF DUP3 AND SWAP1 POP SWAP2 SWAP1 POP JUMP JUMPDEST PUSH1 0x0 PUSH2 0x5EF2 DUP3 PUSH2 0x5F0B JUMP JUMPDEST SWAP1 POP SWAP2 SWAP1 POP JUMP JUMPDEST PUSH1 0x0 PUSH2 0x5F04 DUP3 PUSH2 0x5F1D JUMP JUMPDEST SWAP1 POP SWAP2 SWAP1 POP JUMP JUMPDEST PUSH1 0x0 PUSH2 0x5F16 DUP3 PUSH2 0x5F2F JUMP JUMPDEST SWAP1 POP SWAP2 SWAP1 POP JUMP JUMPDEST PUSH1 0x0 PUSH2 0x5F28 DUP3 PUSH2 0x5F2F JUMP JUMPDEST SWAP1 POP SWAP2 SWAP1 POP JUMP JUMPDEST PUSH1 0x0 PUSH2 0x5F3A DUP3 PUSH2 0x5EB0 JUMP JUMPDEST SWAP1 POP SWAP2 SWAP1 POP JUMP JUMPDEST DUP3 DUP2 DUP4 CALLDATACOPY PUSH1 0x0 DUP4 DUP4 ADD MSTORE POP POP POP JUMP JUMPDEST PUSH1 0x0 JUMPDEST DUP4 DUP2 LT ISZERO PUSH2 0x5F6E JUMPI DUP1 DUP3 ADD MLOAD DUP2 DUP5 ADD MSTORE PUSH1 0x20 DUP2 ADD SWAP1 POP PUSH2 0x5F53 JUMP JUMPDEST DUP4 DUP2 GT ISZERO PUSH2 0x5F7D JUMPI PUSH1 0x0 DUP5 DUP5 ADD MSTORE JUMPDEST POP POP POP POP JUMP JUMPDEST PUSH1 0x0 PUSH1 0x2 DUP3 DIV SWAP1 POP PUSH1 0x1 DUP3 AND DUP1 PUSH2 0x5F9B JUMPI PUSH1 0x7F DUP3 AND SWAP2 POP JUMPDEST PUSH1 0x20 DUP3 LT DUP2 EQ ISZERO PUSH2 0x5FAF JUMPI PUSH2 0x5FAE PUSH2 0x60A7 JUMP JUMPDEST JUMPDEST POP SWAP2 SWAP1 POP JUMP JUMPDEST PUSH1 0x0 PUSH2 0x5FC8 PUSH2 0x5FC3 DUP4 PUSH2 0x61A5 JUMP JUMPDEST PUSH2 0x5E18 JUMP JUMPDEST SWAP1 POP SWAP2 SWAP1 POP JUMP JUMPDEST PUSH2 0x5FD8 DUP3 PUSH2 0x6194 JUMP JUMPDEST DUP2 ADD DUP2 DUP2 LT PUSH8 0xFFFFFFFFFFFFFFFF DUP3 GT OR ISZERO PUSH2 0x5FF7 JUMPI PUSH2 0x5FF6 PUSH2 0x6134 JUMP JUMPDEST JUMPDEST DUP1 PUSH1 0x40 MSTORE POP POP POP JUMP JUMPDEST PUSH1 0x0 PUSH2 0x600B DUP3 PUSH2 0x5ED0 JUMP JUMPDEST SWAP2 POP PUSH32 0xFFFFFFFFFFFFFFFFFFFFFFFFFFFFFFFFFFFFFFFFFFFFFFFFFFFFFFFFFFFFFFFF DUP3 EQ ISZERO PUSH2 0x603E JUMPI PUSH2 0x603D PUSH2 0x6049 JUMP JUMPDEST JUMPDEST PUSH1 0x1 DUP3 ADD SWAP1 POP SWAP2 SWAP1 POP JUMP JUMPDEST PUSH32 0x4E487B7100000000000000000000000000000000000000000000000000000000 PUSH1 0x0 MSTORE PUSH1 0x11 PUSH1 0x4 MSTORE PUSH1 0x24 PUSH1 0x0 REVERT JUMPDEST PUSH32 0x4E487B7100000000000000000000000000000000000000000000000000000000 PUSH1 0x0 MSTORE PUSH1 0x12 PUSH1 0x4 MSTORE PUSH1 0x24 PUSH1 0x0 REVERT JUMPDEST PUSH32 0x4E487B7100000000000000000000000000000000000000000000000000000000 PUSH1 0x0 MSTORE PUSH1 0x22 PUSH1 0x4 MSTORE PUSH1 0x24 PUSH1 0x0 REVERT JUMPDEST PUSH32 0x4E487B7100000000000000000000000000000000000000000000000000000000 PUSH1 0x0 MSTORE PUSH1 0x31 PUSH1 0x4 MSTORE PUSH1 0x24 PUSH1 0x0 REVERT JUMPDEST PUSH32 0x4E487B7100000000000000000000000000000000000000000000000000000000 PUSH1 0x0 MSTORE PUSH1 0x32 PUSH1 0x4 MSTORE PUSH1 0x24 PUSH1 0x0 REVERT JUMPDEST PUSH32 0x4E487B7100000000000000000000000000000000000000000000000000000000 PUSH1 0x0 MSTORE PUSH1 0x41 PUSH1 0x4 MSTORE PUSH1 0x24 PUSH1 0x0 REVERT JUMPDEST PUSH1 0x0 PUSH2 0x616F DUP3 SLOAD PUSH2 0x5FB5 JUMP JUMPDEST SWAP1 POP SWAP2 SWAP1 POP JUMP JUMPDEST PUSH1 0x0 DUP1 REVERT JUMPDEST PUSH1 0x0 DUP1 REVERT JUMPDEST PUSH1 0x0 DUP1 REVERT JUMPDEST PUSH1 0x0 DUP1 REVERT JUMPDEST PUSH1 0x0 DUP1 REVERT JUMPDEST PUSH1 0x0 DUP1 REVERT JUMPDEST PUSH1 0x0 PUSH1 0x1F NOT PUSH1 0x1F DUP4 ADD AND SWAP1 POP SWAP2 SWAP1 POP JUMP JUMPDEST PUSH1 0x0 DUP2 PUSH1 0x0 SHR SWAP1 POP SWAP2 SWAP1 POP JUMP JUMPDEST PUSH32 0x3078353000000000000000000000000000000000000000000000000000000000 PUSH1 0x0 DUP3 ADD MSTORE POP JUMP JUMPDEST PUSH32 0x45524332303A207472616E7366657220746F20746865207A65726F2061646472 PUSH1 0x0 DUP3 ADD MSTORE PUSH32 0x6573730000000000000000000000000000000000000000000000000000000000 PUSH1 0x20 DUP3 ADD MSTORE POP JUMP JUMPDEST PUSH32 0x5061757361626C653A206E6F7420706175736564000000000000000000000000 PUSH1 0x0 DUP3 ADD MSTORE POP JUMP JUMPDEST PUSH32 0x70726F7669646520657175616C20616D6F756E74206F6620636F646520616E64 PUSH1 0x0 DUP3 ADD MSTORE PUSH32 0x2074657874000000000000000000000000000000000000000000000000000000 PUSH1 0x20 DUP3 ADD MSTORE POP JUMP JUMPDEST PUSH32 0x4F776E61626C653A206E6577206F776E657220697320746865207A65726F2061 PUSH1 0x0 DUP3 ADD MSTORE PUSH32 0x6464726573730000000000000000000000000000000000000000000000000000 PUSH1 0x20 DUP3 ADD MSTORE POP JUMP JUMPDEST PUSH32 0x45524332303A20617070726F766520746F20746865207A65726F206164647265 PUSH1 0x0 DUP3 ADD MSTORE PUSH32 0x7373000000000000000000000000000000000000000000000000000000000000 PUSH1 0x20 DUP3 ADD MSTORE POP JUMP JUMPDEST PUSH32 0x45524332303A20696E73756666696369656E7420616C6C6F77616E6365000000 PUSH1 0x0 DUP3 ADD MSTORE POP JUMP JUMPDEST PUSH32 0x3078343200000000000000000000000000000000000000000000000000000000 PUSH1 0x0 DUP3 ADD MSTORE POP JUMP JUMPDEST PUSH32 0x536E617073686F7420616C726561647920646F6E650000000000000000000000 PUSH1 0x0 DUP3 ADD MSTORE POP JUMP JUMPDEST PUSH32 0x6F726967696E616C203D207265706C6163656D656E7400000000000000000000 PUSH1 0x0 DUP3 ADD MSTORE POP JUMP JUMPDEST PUSH32 0x3078353400000000000000000000000000000000000000000000000000000000 PUSH1 0x0 DUP3 ADD MSTORE POP JUMP JUMPDEST PUSH32 0x6E6F74206964656E746966696564207265636569766572000000000000000000 PUSH1 0x0 DUP3 ADD MSTORE POP JUMP JUMPDEST PUSH32 0x3020616464726573730000000000000000000000000000000000000000000000 PUSH1 0x0 DUP3 ADD MSTORE POP JUMP JUMPDEST PUSH32 0x3078353900000000000000000000000000000000000000000000000000000000 PUSH1 0x0 DUP3 ADD MSTORE POP JUMP JUMPDEST PUSH32 0x5265636569766572206E6F74206964656E746966696564000000000000000000 PUSH1 0x0 DUP3 ADD MSTORE POP JUMP JUMPDEST PUSH32 0x4F776E61626C653A2063616C6C6572206973206E6F7420746865206F776E6572 PUSH1 0x0 DUP3 ADD MSTORE POP JUMP JUMPDEST PUSH32 0x536E617073686F74206E6F7420666F756E640000000000000000000000000000 PUSH1 0x0 DUP3 ADD MSTORE POP JUMP JUMPDEST PUSH32 0x4E6F7420657175616C2072656365697665727320616E6420616D6F756E747300 PUSH1 0x0 DUP3 ADD MSTORE POP JUMP JUMPDEST PUSH32 0x45524332303A207472616E736665722066726F6D20746865207A65726F206164 PUSH1 0x0 DUP3 ADD MSTORE PUSH32 0x6472657373000000000000000000000000000000000000000000000000000000 PUSH1 0x20 DUP3 ADD MSTORE POP JUMP JUMPDEST PUSH32 0x536E617073686F74207363686564756C656420696E2074686520706173740000 PUSH1 0x0 DUP3 ADD MSTORE POP JUMP JUMPDEST PUSH32 0x45524332303A20617070726F76652066726F6D20746865207A65726F20616464 PUSH1 0x0 DUP3 ADD MSTORE PUSH32 0x7265737300000000000000000000000000000000000000000000000000000000 PUSH1 0x20 DUP3 ADD MSTORE POP JUMP JUMPDEST PUSH32 0x536E617073686F7420616C7265616479207363686564756C656420666F722074 PUSH1 0x0 DUP3 ADD MSTORE PUSH32 0x6869732074696D65000000000000000000000000000000000000000000000000 PUSH1 0x20 DUP3 ADD MSTORE POP JUMP JUMPDEST PUSH32 0x6F776E65722070726F74656374696F6E00000000000000000000000000000000 PUSH1 0x0 DUP3 ADD MSTORE POP JUMP JUMPDEST PUSH32 0x45524332303A2064656372656173656420616C6C6F77616E63652062656C6F77 PUSH1 0x0 DUP3 ADD MSTORE PUSH32 0x207A65726F000000000000000000000000000000000000000000000000000000 PUSH1 0x20 DUP3 ADD MSTORE POP JUMP JUMPDEST PUSH32 0x45524332303A206D696E7420746F20746865207A65726F206164647265737300 PUSH1 0x0 DUP3 ADD MSTORE POP JUMP JUMPDEST PUSH2 0x66EC DUP2 PUSH2 0x5E38 JUMP JUMPDEST DUP2 EQ PUSH2 0x66F7 JUMPI PUSH1 0x0 DUP1 REVERT JUMPDEST POP JUMP JUMPDEST PUSH2 0x6703 DUP2 PUSH2 0x5E4A JUMP JUMPDEST DUP2 EQ PUSH2 0x670E JUMPI PUSH1 0x0 DUP1 REVERT JUMPDEST POP JUMP JUMPDEST PUSH2 0x671A DUP2 PUSH2 0x5E5C JUMP JUMPDEST DUP2 EQ PUSH2 0x6725 JUMPI PUSH1 0x0 DUP1 REVERT JUMPDEST POP JUMP JUMPDEST PUSH2 0x6731 DUP2 PUSH2 0x5E68 JUMP JUMPDEST DUP2 EQ PUSH2 0x673C JUMPI PUSH1 0x0 DUP1 REVERT JUMPDEST POP JUMP JUMPDEST PUSH2 0x6748 DUP2 PUSH2 0x5E9E JUMP JUMPDEST DUP2 EQ PUSH2 0x6753 JUMPI PUSH1 0x0 DUP1 REVERT JUMPDEST POP JUMP JUMPDEST PUSH2 0x675F DUP2 PUSH2 0x5ED0 JUMP JUMPDEST DUP2 EQ PUSH2 0x676A JUMPI PUSH1 0x0 DUP1 REVERT JUMPDEST POP JUMP JUMPDEST PUSH2 0x6776 DUP2 PUSH2 0x5EDA JUMP JUMPDEST DUP2 EQ PUSH2 0x6781 JUMPI PUSH1 0x0 DUP1 REVERT JUMPDEST POP JUMP INVALID LOG2 PUSH5 0x6970667358 0x22 SLT KECCAK256 INVALID 0xDA 0x5F SAR PUSH32 0x2D5E3D3A941DBCAA3410989C06428EE51EB38CCB078D5ED675C50864736F6C63 NUMBER STOP ADDMOD SMOD STOP CALLER "
		},
		"gasEstimates": {
			"creation": {
				"codeDepositCost": "5310800",
				"executionCost": "infinite",
				"totalCost": "infinite"
			},
			"external": {
				"SNAPSHOOTER_ROLE()": "486",
				"allowance(address,address)": "infinite",
				"approve(address,uint256)": "infinite",
				"assignPaymentToken(address)": "27077",
				"balanceOf(address)": "2930",
				"batchTransfer(address[],uint256[])": "infinite",
				"canTransfer(address,address,uint256)": "infinite",
				"decimals()": "447",
				"decreaseAllowance(address,uint256)": "infinite",
				"destroy(address[])": "infinite",
				"detectTransferRestriction(address,address,uint256)": "infinite",
				"dividendRate()": "2676",
				"getContactInformation()": "infinite",
				"getNextSnapshots()": "infinite",
				"identity(address[])": "infinite",
				"increaseAllowance(address,uint256)": "infinite",
				"issue(uint256)": "infinite",
				"messageForTransferRestriction(uint8)": "infinite",
				"name()": "infinite",
				"operator()": "2582",
				"owner()": "2612",
				"pause()": "infinite",
				"paused()": "2569",
				"payDividend(uint256)": "infinite",
				"paymentToken()": "2690",
				"prospectus()": "infinite",
				"reassign(address,address)": "infinite",
				"redeem(uint256)": "infinite",
				"renounceOwnership()": "30531",
				"rescheduleSnapshot(uint256,uint256)": "infinite",
				"ruleEngine()": "2732",
				"scheduleSnapshot(uint256)": "infinite",
				"setDividendRate(uint8)": "27060",
				"setIdentity(address,bytes16)": "27301",
				"setRuleEngine(address)": "28257",
				"shareholders(uint256)": "5067",
				"showMyIdentity()": "2702",
				"showPastScheduledSnapshots()": "infinite",
				"snapshotBalanceOf(uint256,address)": "infinite",
				"snapshotTotalSupply(uint256)": "infinite",
				"symbol()": "infinite",
				"tokenFallback(address,uint256,bytes)": "infinite",
				"totalSupply()": "2550",
				"transfer(address,uint256)": "infinite",
				"transferFrom(address,address,uint256)": "infinite",
				"transferOwnership(address)": "30835",
				"unpause()": "infinite",
				"unscheduleSnapshot(uint256)": "infinite",
				"updateRestrictionCodes(uint8[],string[])": "infinite"
			},
			"internal": {
				"_identity(address[] memory)": "infinite",
				"transferTokenFallback(address,uint256)": "infinite"
			}
		},
		"methodIdentifiers": {
			"SNAPSHOOTER_ROLE()": "246b72ec",
			"allowance(address,address)": "dd62ed3e",
			"approve(address,uint256)": "095ea7b3",
			"assignPaymentToken(address)": "10b3b159",
			"balanceOf(address)": "70a08231",
			"batchTransfer(address[],uint256[])": "88d695b2",
			"canTransfer(address,address,uint256)": "e46638e6",
			"decimals()": "313ce567",
			"decreaseAllowance(address,uint256)": "a457c2d7",
			"destroy(address[])": "c6786e5a",
			"detectTransferRestriction(address,address,uint256)": "d4ce1415",
			"dividendRate()": "d6a3f374",
			"getContactInformation()": "5dc952f3",
			"getNextSnapshots()": "fb78ed40",
			"identity(address[])": "2613169c",
			"increaseAllowance(address,uint256)": "39509351",
			"issue(uint256)": "cc872b66",
			"messageForTransferRestriction(uint8)": "7f4ab1dd",
			"name()": "06fdde03",
			"operator()": "570ca735",
			"owner()": "8da5cb5b",
			"pause()": "8456cb59",
			"paused()": "5c975abb",
			"payDividend(uint256)": "2515994e",
			"paymentToken()": "3013ce29",
			"prospectus()": "cff688f3",
			"reassign(address,address)": "5fff8cd3",
			"redeem(uint256)": "db006a75",
			"renounceOwnership()": "715018a6",
			"rescheduleSnapshot(uint256,uint256)": "d21268ef",
			"ruleEngine()": "fcf196b4",
			"scheduleSnapshot(uint256)": "a312e155",
			"setDividendRate(uint8)": "6f2dd8f6",
			"setIdentity(address,bytes16)": "43b466a7",
			"setRuleEngine(address)": "a4a0a301",
			"shareholders(uint256)": "ab377daa",
			"showMyIdentity()": "9fcaff50",
			"showPastScheduledSnapshots()": "d635d66e",
			"snapshotBalanceOf(uint256,address)": "634daf76",
			"snapshotTotalSupply(uint256)": "5ee7a942",
			"symbol()": "95d89b41",
			"tokenFallback(address,uint256,bytes)": "c0ee0b8a",
			"totalSupply()": "18160ddd",
			"transfer(address,uint256)": "a9059cbb",
			"transferFrom(address,address,uint256)": "23b872dd",
			"transferOwnership(address)": "f2fde38b",
			"unpause()": "3f4ba83a",
			"unscheduleSnapshot(uint256)": "e20c35e5",
			"updateRestrictionCodes(uint8[],string[])": "70ea07b8"
		}
	},
	"abi": [
		{
			"inputs": [
				{
					"internalType": "string",
					"name": "_name",
					"type": "string"
				},
				{
					"internalType": "string",
					"name": "_symbol",
					"type": "string"
				},
				{
					"internalType": "string",
					"name": "_referenceToTerms",
					"type": "string"
				},
				{
					"internalType": "string",
					"name": "_contact",
					"type": "string"
				}
			],
			"stateMutability": "nonpayable",
			"type": "constructor"
		},
		{
			"inputs": [],
			"name": "NotOCFcalling",
			"type": "error"
		},
		{
			"anonymous": false,
			"inputs": [
				{
					"indexed": true,
					"internalType": "address",
					"name": "owner",
					"type": "address"
				},
				{
					"indexed": true,
					"internalType": "address",
					"name": "spender",
					"type": "address"
				},
				{
					"indexed": false,
					"internalType": "uint256",
					"name": "value",
					"type": "uint256"
				}
			],
			"name": "Approval",
			"type": "event"
		},
		{
			"anonymous": false,
			"inputs": [
				{
					"indexed": false,
					"internalType": "bytes",
					"name": "contact",
					"type": "bytes"
				}
			],
			"name": "LogContactSet",
			"type": "event"
		},
		{
			"anonymous": false,
			"inputs": [
				{
					"indexed": false,
					"internalType": "address[]",
					"name": "shareholders",
					"type": "address[]"
				}
			],
			"name": "LogDestroyed",
			"type": "event"
		},
		{
			"anonymous": false,
			"inputs": [
				{
					"indexed": false,
					"internalType": "uint256",
					"name": "value",
					"type": "uint256"
				}
			],
			"name": "LogIssued",
			"type": "event"
		},
		{
			"anonymous": false,
			"inputs": [
				{
					"indexed": true,
					"internalType": "address",
					"name": "original",
					"type": "address"
				},
				{
					"indexed": true,
					"internalType": "address",
					"name": "replacement",
					"type": "address"
				},
				{
					"indexed": false,
					"internalType": "uint256",
					"name": "value",
					"type": "uint256"
				}
			],
			"name": "LogReassigned",
			"type": "event"
		},
		{
			"anonymous": false,
			"inputs": [
				{
					"indexed": false,
					"internalType": "uint256",
					"name": "value",
					"type": "uint256"
				}
			],
			"name": "LogRedeemed",
			"type": "event"
		},
		{
			"anonymous": false,
			"inputs": [
				{
					"indexed": true,
					"internalType": "address",
					"name": "newRuleEngine",
					"type": "address"
				}
			],
			"name": "LogRuleEngineSet",
			"type": "event"
		},
		{
			"anonymous": false,
			"inputs": [
				{
					"indexed": true,
					"internalType": "address",
					"name": "previousOwner",
					"type": "address"
				},
				{
					"indexed": true,
					"internalType": "address",
					"name": "newOwner",
					"type": "address"
				}
			],
			"name": "OwnershipTransferred",
			"type": "event"
		},
		{
			"anonymous": false,
			"inputs": [
				{
					"indexed": false,
					"internalType": "address",
					"name": "account",
					"type": "address"
				}
			],
			"name": "Paused",
			"type": "event"
		},
		{
			"anonymous": false,
			"inputs": [
				{
					"indexed": true,
					"internalType": "uint256",
					"name": "oldTime",
					"type": "uint256"
				},
				{
					"indexed": true,
					"internalType": "uint256",
					"name": "newTime",
					"type": "uint256"
				}
			],
			"name": "SnapshotSchedule",
			"type": "event"
		},
		{
			"anonymous": false,
			"inputs": [
				{
					"indexed": true,
					"internalType": "uint256",
					"name": "time",
					"type": "uint256"
				}
			],
			"name": "SnapshotUnschedule",
			"type": "event"
		},
		{
			"anonymous": false,
			"inputs": [
				{
					"indexed": true,
					"internalType": "address",
					"name": "from",
					"type": "address"
				},
				{
					"indexed": true,
					"internalType": "address",
					"name": "to",
					"type": "address"
				},
				{
					"indexed": false,
					"internalType": "uint256",
					"name": "value",
					"type": "uint256"
				}
			],
			"name": "Transfer",
			"type": "event"
		},
		{
			"anonymous": false,
			"inputs": [
				{
					"indexed": false,
					"internalType": "address",
					"name": "account",
					"type": "address"
				}
			],
			"name": "Unpaused",
			"type": "event"
		},
		{
			"inputs": [],
			"name": "SNAPSHOOTER_ROLE",
			"outputs": [
				{
					"internalType": "bytes32",
					"name": "",
					"type": "bytes32"
				}
			],
			"stateMutability": "view",
			"type": "function"
		},
		{
			"inputs": [
				{
					"internalType": "address",
					"name": "owner",
					"type": "address"
				},
				{
					"internalType": "address",
					"name": "spender",
					"type": "address"
				}
			],
			"name": "allowance",
			"outputs": [
				{
					"internalType": "uint256",
					"name": "",
					"type": "uint256"
				}
			],
			"stateMutability": "view",
			"type": "function"
		},
		{
			"inputs": [
				{
					"internalType": "address",
					"name": "_spender",
					"type": "address"
				},
				{
					"internalType": "uint256",
					"name": "_value",
					"type": "uint256"
				}
			],
			"name": "approve",
			"outputs": [
				{
					"internalType": "bool",
					"name": "",
					"type": "bool"
				}
			],
			"stateMutability": "nonpayable",
			"type": "function"
		},
		{
			"inputs": [
				{
					"internalType": "address payable",
					"name": "_paymentToken",
					"type": "address"
				}
			],
			"name": "assignPaymentToken",
			"outputs": [],
			"stateMutability": "nonpayable",
			"type": "function"
		},
		{
			"inputs": [
				{
					"internalType": "address",
					"name": "account",
					"type": "address"
				}
			],
			"name": "balanceOf",
			"outputs": [
				{
					"internalType": "uint256",
					"name": "",
					"type": "uint256"
				}
			],
			"stateMutability": "view",
			"type": "function"
		},
		{
			"inputs": [
				{
					"internalType": "address[]",
					"name": "_to",
					"type": "address[]"
				},
				{
					"internalType": "uint256[]",
					"name": "_value",
					"type": "uint256[]"
				}
			],
			"name": "batchTransfer",
			"outputs": [],
			"stateMutability": "nonpayable",
			"type": "function"
		},
		{
			"inputs": [
				{
					"internalType": "address",
					"name": "_from",
					"type": "address"
				},
				{
					"internalType": "address",
					"name": "_to",
					"type": "address"
				},
				{
					"internalType": "uint256",
					"name": "_value",
					"type": "uint256"
				}
			],
			"name": "canTransfer",
			"outputs": [
				{
					"internalType": "bool",
					"name": "",
					"type": "bool"
				}
			],
			"stateMutability": "view",
			"type": "function"
		},
		{
			"inputs": [],
			"name": "decimals",
			"outputs": [
				{
					"internalType": "uint8",
					"name": "",
					"type": "uint8"
				}
			],
			"stateMutability": "pure",
			"type": "function"
		},
		{
			"inputs": [
				{
					"internalType": "address",
					"name": "_spender",
					"type": "address"
				},
				{
					"internalType": "uint256",
					"name": "_subtractedValue",
					"type": "uint256"
				}
			],
			"name": "decreaseAllowance",
			"outputs": [
				{
					"internalType": "bool",
					"name": "",
					"type": "bool"
				}
			],
			"stateMutability": "nonpayable",
			"type": "function"
		},
		{
			"inputs": [
				{
					"internalType": "address[]",
					"name": "shareholder",
					"type": "address[]"
				}
			],
			"name": "destroy",
			"outputs": [],
			"stateMutability": "nonpayable",
			"type": "function"
		},
		{
			"inputs": [
				{
					"internalType": "address",
					"name": "_from",
					"type": "address"
				},
				{
					"internalType": "address",
					"name": "_to",
					"type": "address"
				},
				{
					"internalType": "uint256",
					"name": "_value",
					"type": "uint256"
				}
			],
			"name": "detectTransferRestriction",
			"outputs": [
				{
					"internalType": "uint8",
					"name": "",
					"type": "uint8"
				}
			],
			"stateMutability": "view",
			"type": "function"
		},
		{
			"inputs": [],
			"name": "dividendRate",
			"outputs": [
				{
					"internalType": "uint8",
					"name": "",
					"type": "uint8"
				}
			],
			"stateMutability": "view",
			"type": "function"
		},
		{
			"inputs": [],
			"name": "getContactInformation",
			"outputs": [
				{
					"internalType": "string",
					"name": "",
					"type": "string"
				},
				{
					"internalType": "string",
					"name": "",
					"type": "string"
				}
			],
			"stateMutability": "view",
			"type": "function"
		},
		{
			"inputs": [],
			"name": "getNextSnapshots",
			"outputs": [
				{
					"internalType": "uint256[]",
					"name": "",
					"type": "uint256[]"
				}
			],
			"stateMutability": "view",
			"type": "function"
		},
		{
			"inputs": [
				{
					"internalType": "address[]",
					"name": "shareholder",
					"type": "address[]"
				}
			],
			"name": "identity",
			"outputs": [
				{
					"internalType": "bytes16[]",
					"name": "",
					"type": "bytes16[]"
				}
			],
			"stateMutability": "view",
			"type": "function"
		},
		{
			"inputs": [
				{
					"internalType": "address",
					"name": "_spender",
					"type": "address"
				},
				{
					"internalType": "uint256",
					"name": "_addedValue",
					"type": "uint256"
				}
			],
			"name": "increaseAllowance",
			"outputs": [
				{
					"internalType": "bool",
					"name": "",
					"type": "bool"
				}
			],
			"stateMutability": "nonpayable",
			"type": "function"
		},
		{
			"inputs": [
				{
					"internalType": "uint256",
					"name": "_value",
					"type": "uint256"
				}
			],
			"name": "issue",
			"outputs": [],
			"stateMutability": "nonpayable",
			"type": "function"
		},
		{
			"inputs": [
				{
					"internalType": "uint8",
					"name": "_restrictionCode",
					"type": "uint8"
				}
			],
			"name": "messageForTransferRestriction",
			"outputs": [
				{
					"internalType": "string",
					"name": "",
					"type": "string"
				}
			],
			"stateMutability": "view",
			"type": "function"
		},
		{
			"inputs": [],
			"name": "name",
			"outputs": [
				{
					"internalType": "string",
					"name": "",
					"type": "string"
				}
			],
			"stateMutability": "view",
			"type": "function"
		},
		{
			"inputs": [],
			"name": "operator",
			"outputs": [
				{
					"internalType": "address",
					"name": "",
					"type": "address"
				}
			],
			"stateMutability": "view",
			"type": "function"
		},
		{
			"inputs": [],
			"name": "owner",
			"outputs": [
				{
					"internalType": "address",
					"name": "",
					"type": "address"
				}
			],
			"stateMutability": "view",
			"type": "function"
		},
		{
			"inputs": [],
			"name": "pause",
			"outputs": [],
			"stateMutability": "nonpayable",
			"type": "function"
		},
		{
			"inputs": [],
			"name": "paused",
			"outputs": [
				{
					"internalType": "bool",
					"name": "",
					"type": "bool"
				}
			],
			"stateMutability": "view",
			"type": "function"
		},
		{
			"inputs": [
				{
					"internalType": "uint256",
					"name": "_value",
					"type": "uint256"
				}
			],
			"name": "payDividend",
			"outputs": [],
			"stateMutability": "nonpayable",
			"type": "function"
		},
		{
			"inputs": [],
			"name": "paymentToken",
			"outputs": [
				{
					"internalType": "contract OCF",
					"name": "",
					"type": "address"
				}
			],
			"stateMutability": "view",
			"type": "function"
		},
		{
			"inputs": [],
			"name": "prospectus",
			"outputs": [
				{
					"internalType": "string",
					"name": "referenceToTerms",
					"type": "string"
				},
				{
					"internalType": "string",
					"name": "contact",
					"type": "string"
				}
			],
			"stateMutability": "view",
			"type": "function"
		},
		{
			"inputs": [
				{
					"internalType": "address",
					"name": "original",
					"type": "address"
				},
				{
					"internalType": "address",
					"name": "replacement",
					"type": "address"
				}
			],
			"name": "reassign",
			"outputs": [],
			"stateMutability": "nonpayable",
			"type": "function"
		},
		{
			"inputs": [
				{
					"internalType": "uint256",
					"name": "_value",
					"type": "uint256"
				}
			],
			"name": "redeem",
			"outputs": [],
			"stateMutability": "nonpayable",
			"type": "function"
		},
		{
			"inputs": [],
			"name": "renounceOwnership",
			"outputs": [],
			"stateMutability": "nonpayable",
			"type": "function"
		},
		{
			"inputs": [
				{
					"internalType": "uint256",
					"name": "oldTime",
					"type": "uint256"
				},
				{
					"internalType": "uint256",
					"name": "newTime",
					"type": "uint256"
				}
			],
			"name": "rescheduleSnapshot",
			"outputs": [
				{
					"internalType": "uint256",
					"name": "",
					"type": "uint256"
				}
			],
			"stateMutability": "nonpayable",
			"type": "function"
		},
		{
			"inputs": [],
			"name": "ruleEngine",
			"outputs": [
				{
					"internalType": "contract IRuleEngine",
					"name": "",
					"type": "address"
				}
			],
			"stateMutability": "view",
			"type": "function"
		},
		{
			"inputs": [
				{
					"internalType": "uint256",
					"name": "time",
					"type": "uint256"
				}
			],
			"name": "scheduleSnapshot",
			"outputs": [],
			"stateMutability": "nonpayable",
			"type": "function"
		},
		{
			"inputs": [
				{
					"internalType": "uint8",
					"name": "_rate",
					"type": "uint8"
				}
			],
			"name": "setDividendRate",
			"outputs": [],
			"stateMutability": "nonpayable",
			"type": "function"
		},
		{
			"inputs": [
				{
					"internalType": "address",
					"name": "shareholder",
					"type": "address"
				},
				{
					"internalType": "bytes16",
					"name": "_ident",
					"type": "bytes16"
				}
			],
			"name": "setIdentity",
			"outputs": [],
			"stateMutability": "nonpayable",
			"type": "function"
		},
		{
			"inputs": [
				{
					"internalType": "contract IRuleEngine",
					"name": "_ruleEngine",
					"type": "address"
				}
			],
			"name": "setRuleEngine",
			"outputs": [],
			"stateMutability": "nonpayable",
			"type": "function"
		},
		{
			"inputs": [
				{
					"internalType": "uint256",
					"name": "",
					"type": "uint256"
				}
			],
			"name": "shareholders",
			"outputs": [
				{
					"internalType": "address",
					"name": "",
					"type": "address"
				}
			],
			"stateMutability": "view",
			"type": "function"
		},
		{
			"inputs": [],
			"name": "showMyIdentity",
			"outputs": [
				{
					"internalType": "bytes16",
					"name": "",
					"type": "bytes16"
				}
			],
			"stateMutability": "view",
			"type": "function"
		},
		{
			"inputs": [],
			"name": "showPastScheduledSnapshots",
			"outputs": [
				{
					"internalType": "uint256[]",
					"name": "",
					"type": "uint256[]"
				}
			],
			"stateMutability": "view",
			"type": "function"
		},
		{
			"inputs": [
				{
					"internalType": "uint256",
					"name": "time",
					"type": "uint256"
				},
				{
					"internalType": "address",
					"name": "owner",
					"type": "address"
				}
			],
			"name": "snapshotBalanceOf",
			"outputs": [
				{
					"internalType": "uint256",
					"name": "",
					"type": "uint256"
				}
			],
			"stateMutability": "view",
			"type": "function"
		},
		{
			"inputs": [
				{
					"internalType": "uint256",
					"name": "time",
					"type": "uint256"
				}
			],
			"name": "snapshotTotalSupply",
			"outputs": [
				{
					"internalType": "uint256",
					"name": "",
					"type": "uint256"
				}
			],
			"stateMutability": "view",
			"type": "function"
		},
		{
			"inputs": [],
			"name": "symbol",
			"outputs": [
				{
					"internalType": "string",
					"name": "",
					"type": "string"
				}
			],
			"stateMutability": "view",
			"type": "function"
		},
		{
			"inputs": [
				{
					"internalType": "address",
					"name": "from",
					"type": "address"
				},
				{
					"internalType": "uint256",
					"name": "value",
					"type": "uint256"
				},
				{
					"internalType": "bytes",
					"name": "data",
					"type": "bytes"
				}
			],
			"name": "tokenFallback",
			"outputs": [],
			"stateMutability": "nonpayable",
			"type": "function"
		},
		{
			"inputs": [],
			"name": "totalSupply",
			"outputs": [
				{
					"internalType": "uint256",
					"name": "",
					"type": "uint256"
				}
			],
			"stateMutability": "view",
			"type": "function"
		},
		{
			"inputs": [
				{
					"internalType": "address",
					"name": "_to",
					"type": "address"
				},
				{
					"internalType": "uint256",
					"name": "_value",
					"type": "uint256"
				}
			],
			"name": "transfer",
			"outputs": [
				{
					"internalType": "bool",
					"name": "",
					"type": "bool"
				}
			],
			"stateMutability": "nonpayable",
			"type": "function"
		},
		{
			"inputs": [
				{
					"internalType": "address",
					"name": "_from",
					"type": "address"
				},
				{
					"internalType": "address",
					"name": "_to",
					"type": "address"
				},
				{
					"internalType": "uint256",
					"name": "_value",
					"type": "uint256"
				}
			],
			"name": "transferFrom",
			"outputs": [
				{
					"internalType": "bool",
					"name": "",
					"type": "bool"
				}
			],
			"stateMutability": "nonpayable",
			"type": "function"
		},
		{
			"inputs": [
				{
					"internalType": "address",
					"name": "newOwner",
					"type": "address"
				}
			],
			"name": "transferOwnership",
			"outputs": [],
			"stateMutability": "nonpayable",
			"type": "function"
		},
		{
			"inputs": [],
			"name": "unpause",
			"outputs": [],
			"stateMutability": "nonpayable",
			"type": "function"
		},
		{
			"inputs": [
				{
					"internalType": "uint256",
					"name": "time",
					"type": "uint256"
				}
			],
			"name": "unscheduleSnapshot",
			"outputs": [
				{
					"internalType": "uint256",
					"name": "",
					"type": "uint256"
				}
			],
			"stateMutability": "nonpayable",
			"type": "function"
		},
		{
			"inputs": [
				{
					"internalType": "uint8[]",
					"name": "code",
					"type": "uint8[]"
				},
				{
					"internalType": "string[]",
					"name": "text",
					"type": "string[]"
				}
			],
			"name": "updateRestrictionCodes",
			"outputs": [],
			"stateMutability": "nonpayable",
			"type": "function"
		}
	]
}